{
  "contractName": "Artist",
  "abi": [
    {
      "inputs": [],
      "stateMutability": "nonpayable",
      "type": "constructor"
    },
    {
      "anonymous": false,
      "inputs": [
        {
          "indexed": true,
          "internalType": "address",
          "name": "owner",
          "type": "address"
        },
        {
          "indexed": true,
          "internalType": "address",
          "name": "approved",
          "type": "address"
        },
        {
          "indexed": true,
          "internalType": "uint256",
          "name": "tokenId",
          "type": "uint256"
        }
      ],
      "name": "Approval",
      "type": "event"
    },
    {
      "anonymous": false,
      "inputs": [
        {
          "indexed": true,
          "internalType": "address",
          "name": "owner",
          "type": "address"
        },
        {
          "indexed": true,
          "internalType": "address",
          "name": "operator",
          "type": "address"
        },
        {
          "indexed": false,
          "internalType": "bool",
          "name": "approved",
          "type": "bool"
        }
      ],
      "name": "ApprovalForAll",
      "type": "event"
    },
    {
      "anonymous": false,
      "inputs": [
        {
          "indexed": true,
          "internalType": "address",
          "name": "previousOwner",
          "type": "address"
        },
        {
          "indexed": true,
          "internalType": "address",
          "name": "newOwner",
          "type": "address"
        }
      ],
      "name": "OwnershipTransferred",
      "type": "event"
    },
    {
      "anonymous": false,
      "inputs": [
        {
          "indexed": false,
          "internalType": "address",
          "name": "account",
          "type": "address"
        }
      ],
      "name": "Paused",
      "type": "event"
    },
    {
      "anonymous": false,
      "inputs": [
        {
          "indexed": true,
          "internalType": "address",
          "name": "from",
          "type": "address"
        },
        {
          "indexed": true,
          "internalType": "address",
          "name": "to",
          "type": "address"
        },
        {
          "indexed": true,
          "internalType": "uint256",
          "name": "tokenId",
          "type": "uint256"
        }
      ],
      "name": "Transfer",
      "type": "event"
    },
    {
      "anonymous": false,
      "inputs": [
        {
          "indexed": false,
          "internalType": "address",
          "name": "account",
          "type": "address"
        }
      ],
      "name": "Unpaused",
      "type": "event"
    },
    {
      "inputs": [
        {
          "internalType": "address",
          "name": "to",
          "type": "address"
        },
        {
          "internalType": "uint256",
          "name": "tokenId",
          "type": "uint256"
        }
      ],
      "name": "approve",
      "outputs": [],
      "stateMutability": "nonpayable",
      "type": "function"
    },
    {
      "inputs": [
        {
          "internalType": "address",
          "name": "owner",
          "type": "address"
        }
      ],
      "name": "balanceOf",
      "outputs": [
        {
          "internalType": "uint256",
          "name": "",
          "type": "uint256"
        }
      ],
      "stateMutability": "view",
      "type": "function"
    },
    {
      "inputs": [
        {
          "internalType": "uint256",
          "name": "tokenId",
          "type": "uint256"
        }
      ],
      "name": "getApproved",
      "outputs": [
        {
          "internalType": "address",
          "name": "",
          "type": "address"
        }
      ],
      "stateMutability": "view",
      "type": "function"
    },
    {
      "inputs": [
        {
          "internalType": "address",
          "name": "owner",
          "type": "address"
        },
        {
          "internalType": "address",
          "name": "operator",
          "type": "address"
        }
      ],
      "name": "isApprovedForAll",
      "outputs": [
        {
          "internalType": "bool",
          "name": "",
          "type": "bool"
        }
      ],
      "stateMutability": "view",
      "type": "function"
    },
    {
      "inputs": [],
      "name": "name",
      "outputs": [
        {
          "internalType": "string",
          "name": "",
          "type": "string"
        }
      ],
      "stateMutability": "view",
      "type": "function"
    },
    {
      "inputs": [],
      "name": "owner",
      "outputs": [
        {
          "internalType": "address",
          "name": "",
          "type": "address"
        }
      ],
      "stateMutability": "view",
      "type": "function"
    },
    {
      "inputs": [
        {
          "internalType": "uint256",
          "name": "tokenId",
          "type": "uint256"
        }
      ],
      "name": "ownerOf",
      "outputs": [
        {
          "internalType": "address",
          "name": "",
          "type": "address"
        }
      ],
      "stateMutability": "view",
      "type": "function"
    },
    {
      "inputs": [],
      "name": "paused",
      "outputs": [
        {
          "internalType": "bool",
          "name": "",
          "type": "bool"
        }
      ],
      "stateMutability": "view",
      "type": "function"
    },
    {
      "inputs": [],
      "name": "renounceOwnership",
      "outputs": [],
      "stateMutability": "nonpayable",
      "type": "function"
    },
    {
      "inputs": [
        {
          "internalType": "address",
          "name": "from",
          "type": "address"
        },
        {
          "internalType": "address",
          "name": "to",
          "type": "address"
        },
        {
          "internalType": "uint256",
          "name": "tokenId",
          "type": "uint256"
        }
      ],
      "name": "safeTransferFrom",
      "outputs": [],
      "stateMutability": "nonpayable",
      "type": "function"
    },
    {
      "inputs": [
        {
          "internalType": "address",
          "name": "from",
          "type": "address"
        },
        {
          "internalType": "address",
          "name": "to",
          "type": "address"
        },
        {
          "internalType": "uint256",
          "name": "tokenId",
          "type": "uint256"
        },
        {
          "internalType": "bytes",
          "name": "_data",
          "type": "bytes"
        }
      ],
      "name": "safeTransferFrom",
      "outputs": [],
      "stateMutability": "nonpayable",
      "type": "function"
    },
    {
      "inputs": [
        {
          "internalType": "address",
          "name": "operator",
          "type": "address"
        },
        {
          "internalType": "bool",
          "name": "approved",
          "type": "bool"
        }
      ],
      "name": "setApprovalForAll",
      "outputs": [],
      "stateMutability": "nonpayable",
      "type": "function"
    },
    {
      "inputs": [
        {
          "internalType": "bytes4",
          "name": "interfaceId",
          "type": "bytes4"
        }
      ],
      "name": "supportsInterface",
      "outputs": [
        {
          "internalType": "bool",
          "name": "",
          "type": "bool"
        }
      ],
      "stateMutability": "view",
      "type": "function"
    },
    {
      "inputs": [],
      "name": "symbol",
      "outputs": [
        {
          "internalType": "string",
          "name": "",
          "type": "string"
        }
      ],
      "stateMutability": "view",
      "type": "function"
    },
    {
      "inputs": [
        {
          "internalType": "uint256",
          "name": "",
          "type": "uint256"
        }
      ],
      "name": "tokenTraits",
      "outputs": [
        {
          "internalType": "uint8",
          "name": "background",
          "type": "uint8"
        },
        {
          "internalType": "uint8",
          "name": "skin",
          "type": "uint8"
        },
        {
          "internalType": "uint8",
          "name": "neck",
          "type": "uint8"
        },
        {
          "internalType": "uint8",
          "name": "head",
          "type": "uint8"
        },
        {
          "internalType": "uint8",
          "name": "mouth",
          "type": "uint8"
        },
        {
          "internalType": "uint8",
          "name": "beard",
          "type": "uint8"
        },
        {
          "internalType": "uint8",
          "name": "eyes",
          "type": "uint8"
        },
        {
          "internalType": "uint8",
          "name": "clothes",
          "type": "uint8"
        },
        {
          "internalType": "uint8",
          "name": "earrings",
          "type": "uint8"
        },
        {
          "internalType": "uint8",
          "name": "glasses",
          "type": "uint8"
        }
      ],
      "stateMutability": "view",
      "type": "function"
    },
    {
      "inputs": [
        {
          "internalType": "uint256",
          "name": "tokenId",
          "type": "uint256"
        }
      ],
      "name": "tokenURI",
      "outputs": [
        {
          "internalType": "string",
          "name": "",
          "type": "string"
        }
      ],
      "stateMutability": "view",
      "type": "function"
    },
    {
      "inputs": [
        {
          "internalType": "address",
          "name": "from",
          "type": "address"
        },
        {
          "internalType": "address",
          "name": "to",
          "type": "address"
        },
        {
          "internalType": "uint256",
          "name": "tokenId",
          "type": "uint256"
        }
      ],
      "name": "transferFrom",
      "outputs": [],
      "stateMutability": "nonpayable",
      "type": "function"
    },
    {
      "inputs": [
        {
          "internalType": "address",
          "name": "newOwner",
          "type": "address"
        }
      ],
      "name": "transferOwnership",
      "outputs": [],
      "stateMutability": "nonpayable",
      "type": "function"
    },
    {
      "inputs": [],
      "name": "initialize",
      "outputs": [],
      "stateMutability": "nonpayable",
      "type": "function"
    },
    {
      "inputs": [],
      "name": "pause",
      "outputs": [],
      "stateMutability": "nonpayable",
      "type": "function"
    },
    {
      "inputs": [],
      "name": "unpause",
      "outputs": [],
      "stateMutability": "nonpayable",
      "type": "function"
    },
    {
      "inputs": [
        {
          "internalType": "address",
          "name": "to",
          "type": "address"
        },
        {
          "internalType": "uint256",
          "name": "tokenId",
          "type": "uint256"
        }
      ],
      "name": "safeMint",
      "outputs": [],
      "stateMutability": "nonpayable",
      "type": "function"
    },
    {
      "inputs": [
        {
          "internalType": "uint256",
          "name": "tokenId",
          "type": "uint256"
        }
      ],
      "name": "getTokenTraits",
      "outputs": [
        {
          "components": [
            {
              "internalType": "uint8",
              "name": "background",
              "type": "uint8"
            },
            {
              "internalType": "uint8",
              "name": "skin",
              "type": "uint8"
            },
            {
              "internalType": "uint8",
              "name": "neck",
              "type": "uint8"
            },
            {
              "internalType": "uint8",
              "name": "head",
              "type": "uint8"
            },
            {
              "internalType": "uint8",
              "name": "mouth",
              "type": "uint8"
            },
            {
              "internalType": "uint8",
              "name": "beard",
              "type": "uint8"
            },
            {
              "internalType": "uint8",
              "name": "eyes",
              "type": "uint8"
            },
            {
              "internalType": "uint8",
              "name": "clothes",
              "type": "uint8"
            },
            {
              "internalType": "uint8",
              "name": "earrings",
              "type": "uint8"
            },
            {
              "internalType": "uint8",
              "name": "glasses",
              "type": "uint8"
            }
          ],
          "internalType": "struct IArtist.Person",
          "name": "",
          "type": "tuple"
        }
      ],
      "stateMutability": "view",
      "type": "function"
    }
  ],
  "bytecode": "0x60806040523480156200001157600080fd5b50600060019054906101000a900460ff166200003c5760008054906101000a900460ff16156200004d565b6200004c6200010960201b60201c565b5b6200008f576040517f08c379a00000000000000000000000000000000000000000000000000000000081526004016200008690620001c1565b60405180910390fd5b60008060019054906101000a900460ff161590508015620000e0576001600060016101000a81548160ff02191690831515021790555060016000806101000a81548160ff0219169083151502179055505b8015620001025760008060016101000a81548160ff0219169083151502179055505b50620001e3565b600062000121306200012760201b620012641760201c565b15905090565b600080823b905060008111915050919050565b600082825260208201905092915050565b7f496e697469616c697a61626c653a20636f6e747261637420697320616c72656160008201527f647920696e697469616c697a6564000000000000000000000000000000000000602082015250565b6000620001a9602e836200013a565b9150620001b6826200014b565b604082019050919050565b60006020820190508181036000830152620001dc816200019a565b9050919050565b613a9680620001f36000396000f3fe608060405234801561001057600080fd5b506004361061014d5760003560e01c80638129fc1c116100c3578063a22cb4651161007c578063a22cb46514610352578063b88d4fde1461036e578063c87b56dd1461038a578063e05c57bf146103ba578063e985e9c5146103f3578063f2fde38b146104235761014d565b80638129fc1c146102b65780638456cb59146102c05780638da5cb5b146102ca57806394e56847146102e857806395d89b4114610318578063a1448194146103365761014d565b80633f4ba83a116101155780633f4ba83a1461020857806342842e0e146102125780635c975abb1461022e5780636352211e1461024c57806370a082311461027c578063715018a6146102ac5761014d565b806301ffc9a71461015257806306fdde0314610182578063081812fc146101a0578063095ea7b3146101d057806323b872dd146101ec575b600080fd5b61016c60048036038101906101679190612570565b61043f565b60405161017991906125b8565b60405180910390f35b61018a610521565b604051610197919061266c565b60405180910390f35b6101ba60048036038101906101b591906126c4565b6105b3565b6040516101c79190612732565b60405180910390f35b6101ea60048036038101906101e59190612779565b610638565b005b610206600480360381019061020191906127b9565b610750565b005b6102106107b0565b005b61022c600480360381019061022791906127b9565b610836565b005b610236610856565b60405161024391906125b8565b60405180910390f35b610266600480360381019061026191906126c4565b61086d565b6040516102739190612732565b60405180910390f35b6102966004803603810190610291919061280c565b61091f565b6040516102a39190612848565b60405180910390f35b6102b46109d7565b005b6102be610a5f565b005b6102c8610bc7565b005b6102d2610c4d565b6040516102df9190612732565b60405180910390f35b61030260048036038101906102fd91906126c4565b610c77565b60405161030f919061294b565b60405180910390f35b610320610dc7565b60405161032d919061266c565b60405180910390f35b610350600480360381019061034b9190612779565b610e59565b005b61036c60048036038101906103679190612993565b610ee3565b005b61038860048036038101906103839190612b08565b610ef9565b005b6103a4600480360381019061039f91906126c4565b610f5b565b6040516103b1919061266c565b60405180910390f35b6103d460048036038101906103cf91906126c4565b611002565b6040516103ea9a99989796959493929190612b9a565b60405180910390f35b61040d60048036038101906104089190612c36565b6110d8565b60405161041a91906125b8565b60405180910390f35b61043d6004803603810190610438919061280c565b61116c565b005b60007f80ac58cd000000000000000000000000000000000000000000000000000000007bffffffffffffffffffffffffffffffffffffffffffffffffffffffff1916827bffffffffffffffffffffffffffffffffffffffffffffffffffffffff1916148061050a57507f5b5e139f000000000000000000000000000000000000000000000000000000007bffffffffffffffffffffffffffffffffffffffffffffffffffffffff1916827bffffffffffffffffffffffffffffffffffffffffffffffffffffffff1916145b8061051a575061051982611277565b5b9050919050565b60606065805461053090612ca5565b80601f016020809104026020016040519081016040528092919081815260200182805461055c90612ca5565b80156105a95780601f1061057e576101008083540402835291602001916105a9565b820191906000526020600020905b81548152906001019060200180831161058c57829003601f168201915b5050505050905090565b60006105be826112e1565b6105fd576040517f08c379a00000000000000000000000000000000000000000000000000000000081526004016105f490612d49565b60405180910390fd5b6069600083815260200190815260200160002060009054906101000a900473ffffffffffffffffffffffffffffffffffffffff169050919050565b60006106438261086d565b90508073ffffffffffffffffffffffffffffffffffffffff168373ffffffffffffffffffffffffffffffffffffffff1614156106b4576040517f08c379a00000000000000000000000000000000000000000000000000000000081526004016106ab90612ddb565b60405180910390fd5b8073ffffffffffffffffffffffffffffffffffffffff166106d361134d565b73ffffffffffffffffffffffffffffffffffffffff1614806107025750610701816106fc61134d565b6110d8565b5b610741576040517f08c379a000000000000000000000000000000000000000000000000000000000815260040161073890612e6d565b60405180910390fd5b61074b8383611355565b505050565b61076161075b61134d565b8261140e565b6107a0576040517f08c379a000000000000000000000000000000000000000000000000000000000815260040161079790612eff565b60405180910390fd5b6107ab8383836114ec565b505050565b6107b861134d565b73ffffffffffffffffffffffffffffffffffffffff166107d6610c4d565b73ffffffffffffffffffffffffffffffffffffffff161461082c576040517f08c379a000000000000000000000000000000000000000000000000000000000815260040161082390612f6b565b60405180910390fd5b610834611748565b565b61085183838360405180602001604052806000815250610ef9565b505050565b6000609760009054906101000a900460ff16905090565b6000806067600084815260200190815260200160002060009054906101000a900473ffffffffffffffffffffffffffffffffffffffff169050600073ffffffffffffffffffffffffffffffffffffffff168173ffffffffffffffffffffffffffffffffffffffff161415610916576040517f08c379a000000000000000000000000000000000000000000000000000000000815260040161090d90612ffd565b60405180910390fd5b80915050919050565b60008073ffffffffffffffffffffffffffffffffffffffff168273ffffffffffffffffffffffffffffffffffffffff161415610990576040517f08c379a00000000000000000000000000000000000000000000000000000000081526004016109879061308f565b60405180910390fd5b606860008373ffffffffffffffffffffffffffffffffffffffff1673ffffffffffffffffffffffffffffffffffffffff168152602001908152602001600020549050919050565b6109df61134d565b73ffffffffffffffffffffffffffffffffffffffff166109fd610c4d565b73ffffffffffffffffffffffffffffffffffffffff1614610a53576040517f08c379a0000000000000000000000000000000000000000000000000000000008152600401610a4a90612f6b565b60405180910390fd5b610a5d60006117ea565b565b600060019054906101000a900460ff16610a875760008054906101000a900460ff1615610a90565b610a8f6118b0565b5b610acf576040517f08c379a0000000000000000000000000000000000000000000000000000000008152600401610ac690613121565b60405180910390fd5b60008060019054906101000a900460ff161590508015610b1f576001600060016101000a81548160ff02191690831515021790555060016000806101000a81548160ff0219169083151502179055505b610b936040518060400160405280600681526020017f41727469737400000000000000000000000000000000000000000000000000008152506040518060400160405280600381526020017f43424100000000000000000000000000000000000000000000000000000000008152506118c1565b610b9b61192e565b610ba361198f565b8015610bc45760008060016101000a81548160ff0219169083151502179055505b50565b610bcf61134d565b73ffffffffffffffffffffffffffffffffffffffff16610bed610c4d565b73ffffffffffffffffffffffffffffffffffffffff1614610c43576040517f08c379a0000000000000000000000000000000000000000000000000000000008152600401610c3a90612f6b565b60405180910390fd5b610c4b6119f0565b565b600060c960009054906101000a900473ffffffffffffffffffffffffffffffffffffffff16905090565b610c7f6123f0565b60fb6000838152602001908152602001600020604051806101400160405290816000820160009054906101000a900460ff1660ff1660ff1681526020016000820160019054906101000a900460ff1660ff1660ff1681526020016000820160029054906101000a900460ff1660ff1660ff1681526020016000820160039054906101000a900460ff1660ff1660ff1681526020016000820160049054906101000a900460ff1660ff1660ff1681526020016000820160059054906101000a900460ff1660ff1660ff1681526020016000820160069054906101000a900460ff1660ff1660ff1681526020016000820160079054906101000a900460ff1660ff1660ff1681526020016000820160089054906101000a900460ff1660ff1660ff1681526020016000820160099054906101000a900460ff1660ff1660ff16815250509050919050565b606060668054610dd690612ca5565b80601f0160208091040260200160405190810160405280929190818152602001828054610e0290612ca5565b8015610e4f5780601f10610e2457610100808354040283529160200191610e4f565b820191906000526020600020905b815481529060010190602001808311610e3257829003601f168201915b5050505050905090565b610e6161134d565b73ffffffffffffffffffffffffffffffffffffffff16610e7f610c4d565b73ffffffffffffffffffffffffffffffffffffffff1614610ed5576040517f08c379a0000000000000000000000000000000000000000000000000000000008152600401610ecc90612f6b565b60405180910390fd5b610edf8282611a93565b5050565b610ef5610eee61134d565b8383611ab1565b5050565b610f0a610f0461134d565b8361140e565b610f49576040517f08c379a0000000000000000000000000000000000000000000000000000000008152600401610f4090612eff565b60405180910390fd5b610f5584848484611c1e565b50505050565b6060610f66826112e1565b610fa5576040517f08c379a0000000000000000000000000000000000000000000000000000000008152600401610f9c906131b3565b60405180910390fd5b6000610faf611c7a565b90506000815111610fcf5760405180602001604052806000815250610ffa565b80610fd984611c91565b604051602001610fea92919061320f565b6040516020818303038152906040525b915050919050565b60fb6020528060005260406000206000915090508060000160009054906101000a900460ff16908060000160019054906101000a900460ff16908060000160029054906101000a900460ff16908060000160039054906101000a900460ff16908060000160049054906101000a900460ff16908060000160059054906101000a900460ff16908060000160069054906101000a900460ff16908060000160079054906101000a900460ff16908060000160089054906101000a900460ff16908060000160099054906101000a900460ff1690508a565b6000606a60008473ffffffffffffffffffffffffffffffffffffffff1673ffffffffffffffffffffffffffffffffffffffff16815260200190815260200160002060008373ffffffffffffffffffffffffffffffffffffffff1673ffffffffffffffffffffffffffffffffffffffff16815260200190815260200160002060009054906101000a900460ff16905092915050565b61117461134d565b73ffffffffffffffffffffffffffffffffffffffff16611192610c4d565b73ffffffffffffffffffffffffffffffffffffffff16146111e8576040517f08c379a00000000000000000000000000000000000000000000000000000000081526004016111df90612f6b565b60405180910390fd5b600073ffffffffffffffffffffffffffffffffffffffff168173ffffffffffffffffffffffffffffffffffffffff161415611258576040517f08c379a000000000000000000000000000000000000000000000000000000000815260040161124f906132a5565b60405180910390fd5b611261816117ea565b50565b600080823b905060008111915050919050565b60007f01ffc9a7000000000000000000000000000000000000000000000000000000007bffffffffffffffffffffffffffffffffffffffffffffffffffffffff1916827bffffffffffffffffffffffffffffffffffffffffffffffffffffffff1916149050919050565b60008073ffffffffffffffffffffffffffffffffffffffff166067600084815260200190815260200160002060009054906101000a900473ffffffffffffffffffffffffffffffffffffffff1673ffffffffffffffffffffffffffffffffffffffff1614159050919050565b600033905090565b816069600083815260200190815260200160002060006101000a81548173ffffffffffffffffffffffffffffffffffffffff021916908373ffffffffffffffffffffffffffffffffffffffff160217905550808273ffffffffffffffffffffffffffffffffffffffff166113c88361086d565b73ffffffffffffffffffffffffffffffffffffffff167f8c5be1e5ebec7d5bd14f71427d1e84f3dd0314c0f7b2291e5b200ac8c7c3b92560405160405180910390a45050565b6000611419826112e1565b611458576040517f08c379a000000000000000000000000000000000000000000000000000000000815260040161144f90613337565b60405180910390fd5b60006114638361086d565b90508073ffffffffffffffffffffffffffffffffffffffff168473ffffffffffffffffffffffffffffffffffffffff1614806114d257508373ffffffffffffffffffffffffffffffffffffffff166114ba846105b3565b73ffffffffffffffffffffffffffffffffffffffff16145b806114e357506114e281856110d8565b5b91505092915050565b8273ffffffffffffffffffffffffffffffffffffffff1661150c8261086d565b73ffffffffffffffffffffffffffffffffffffffff1614611562576040517f08c379a0000000000000000000000000000000000000000000000000000000008152600401611559906133c9565b60405180910390fd5b600073ffffffffffffffffffffffffffffffffffffffff168273ffffffffffffffffffffffffffffffffffffffff1614156115d2576040517f08c379a00000000000000000000000000000000000000000000000000000000081526004016115c99061345b565b60405180910390fd5b6115dd838383611df2565b6115e8600082611355565b6001606860008573ffffffffffffffffffffffffffffffffffffffff1673ffffffffffffffffffffffffffffffffffffffff168152602001908152602001600020600082825461163891906134aa565b925050819055506001606860008473ffffffffffffffffffffffffffffffffffffffff1673ffffffffffffffffffffffffffffffffffffffff168152602001908152602001600020600082825461168f91906134de565b92505081905550816067600083815260200190815260200160002060006101000a81548173ffffffffffffffffffffffffffffffffffffffff021916908373ffffffffffffffffffffffffffffffffffffffff160217905550808273ffffffffffffffffffffffffffffffffffffffff168473ffffffffffffffffffffffffffffffffffffffff167fddf252ad1be2c89b69c2b068fc378daa952ba7f163c4a11628f55a4df523b3ef60405160405180910390a4505050565b611750610856565b61178f576040517f08c379a000000000000000000000000000000000000000000000000000000000815260040161178690613580565b60405180910390fd5b6000609760006101000a81548160ff0219169083151502179055507f5db9ee0a495bf2e6ff9c91a7834c1ba4fdd244a5e8aa4e537bd38aeae4b073aa6117d361134d565b6040516117e09190612732565b60405180910390a1565b600060c960009054906101000a900473ffffffffffffffffffffffffffffffffffffffff1690508160c960006101000a81548173ffffffffffffffffffffffffffffffffffffffff021916908373ffffffffffffffffffffffffffffffffffffffff1602179055508173ffffffffffffffffffffffffffffffffffffffff168173ffffffffffffffffffffffffffffffffffffffff167f8be0079c531659141344cd1fd0a4f28419497f9722a3daafe3b4186f6b6457e060405160405180910390a35050565b60006118bb30611264565b15905090565b600060019054906101000a900460ff16611910576040517f08c379a000000000000000000000000000000000000000000000000000000000815260040161190790613612565b60405180910390fd5b611918611e4a565b611920611e9b565b61192a8282611eec565b5050565b600060019054906101000a900460ff1661197d576040517f08c379a000000000000000000000000000000000000000000000000000000000815260040161197490613612565b60405180910390fd5b611985611e4a565b61198d611f6d565b565b600060019054906101000a900460ff166119de576040517f08c379a00000000000000000000000000000000000000000000000000000000081526004016119d590613612565b60405180910390fd5b6119e6611e4a565b6119ee611fd9565b565b6119f8610856565b15611a38576040517f08c379a0000000000000000000000000000000000000000000000000000000008152600401611a2f9061367e565b60405180910390fd5b6001609760006101000a81548160ff0219169083151502179055507f62e78cea01bee320cd4e420270b5ea74000d11b0c9f74754ebdbfc544b05a258611a7c61134d565b604051611a899190612732565b60405180910390a1565b611aad82826040518060200160405280600081525061203a565b5050565b8173ffffffffffffffffffffffffffffffffffffffff168373ffffffffffffffffffffffffffffffffffffffff161415611b20576040517f08c379a0000000000000000000000000000000000000000000000000000000008152600401611b17906136ea565b60405180910390fd5b80606a60008573ffffffffffffffffffffffffffffffffffffffff1673ffffffffffffffffffffffffffffffffffffffff16815260200190815260200160002060008473ffffffffffffffffffffffffffffffffffffffff1673ffffffffffffffffffffffffffffffffffffffff16815260200190815260200160002060006101000a81548160ff0219169083151502179055508173ffffffffffffffffffffffffffffffffffffffff168373ffffffffffffffffffffffffffffffffffffffff167f17307eab39ab6107e8899845ad3d59bd9653f200f220920489ca2b5937696c3183604051611c1191906125b8565b60405180910390a3505050565b611c298484846114ec565b611c3584848484612095565b611c74576040517f08c379a0000000000000000000000000000000000000000000000000000000008152600401611c6b9061377c565b60405180910390fd5b50505050565b606060405180602001604052806000815250905090565b60606000821415611cd9576040518060400160405280600181526020017f30000000000000000000000000000000000000000000000000000000000000008152509050611ded565b600082905060005b60008214611d0b578080611cf49061379c565b915050600a82611d049190613814565b9150611ce1565b60008167ffffffffffffffff811115611d2757611d266129dd565b5b6040519080825280601f01601f191660200182016040528015611d595781602001600182028036833780820191505090505b5090505b60008514611de657600182611d7291906134aa565b9150600a85611d819190613845565b6030611d8d91906134de565b60f81b818381518110611da357611da2613876565b5b60200101907effffffffffffffffffffffffffffffffffffffffffffffffffffffffffffff1916908160001a905350600a85611ddf9190613814565b9450611d5d565b8093505050505b919050565b611dfa610856565b15611e3a576040517f08c379a0000000000000000000000000000000000000000000000000000000008152600401611e319061367e565b60405180910390fd5b611e4583838361221d565b505050565b600060019054906101000a900460ff16611e99576040517f08c379a0000000000000000000000000000000000000000000000000000000008152600401611e9090613612565b60405180910390fd5b565b600060019054906101000a900460ff16611eea576040517f08c379a0000000000000000000000000000000000000000000000000000000008152600401611ee190613612565b60405180910390fd5b565b600060019054906101000a900460ff16611f3b576040517f08c379a0000000000000000000000000000000000000000000000000000000008152600401611f3290613612565b60405180910390fd5b8160659080519060200190611f51929190612461565b508060669080519060200190611f68929190612461565b505050565b600060019054906101000a900460ff16611fbc576040517f08c379a0000000000000000000000000000000000000000000000000000000008152600401611fb390613612565b60405180910390fd5b6000609760006101000a81548160ff021916908315150217905550565b600060019054906101000a900460ff16612028576040517f08c379a000000000000000000000000000000000000000000000000000000000815260040161201f90613612565b60405180910390fd5b61203861203361134d565b6117ea565b565b6120448383612222565b6120516000848484612095565b612090576040517f08c379a00000000000000000000000000000000000000000000000000000000081526004016120879061377c565b60405180910390fd5b505050565b60006120b68473ffffffffffffffffffffffffffffffffffffffff16611264565b15612210578373ffffffffffffffffffffffffffffffffffffffff1663150b7a026120df61134d565b8786866040518563ffffffff1660e01b815260040161210194939291906138fa565b6020604051808303816000875af192505050801561213d57506040513d601f19601f8201168201806040525081019061213a919061395b565b60015b6121c0573d806000811461216d576040519150601f19603f3d011682016040523d82523d6000602084013e612172565b606091505b506000815114156121b8576040517f08c379a00000000000000000000000000000000000000000000000000000000081526004016121af9061377c565b60405180910390fd5b805181602001fd5b63150b7a0260e01b7bffffffffffffffffffffffffffffffffffffffffffffffffffffffff1916817bffffffffffffffffffffffffffffffffffffffffffffffffffffffff191614915050612215565b600190505b949350505050565b505050565b600073ffffffffffffffffffffffffffffffffffffffff168273ffffffffffffffffffffffffffffffffffffffff161415612292576040517f08c379a0000000000000000000000000000000000000000000000000000000008152600401612289906139d4565b60405180910390fd5b61229b816112e1565b156122db576040517f08c379a00000000000000000000000000000000000000000000000000000000081526004016122d290613a40565b60405180910390fd5b6122e760008383611df2565b6001606860008473ffffffffffffffffffffffffffffffffffffffff1673ffffffffffffffffffffffffffffffffffffffff168152602001908152602001600020600082825461233791906134de565b92505081905550816067600083815260200190815260200160002060006101000a81548173ffffffffffffffffffffffffffffffffffffffff021916908373ffffffffffffffffffffffffffffffffffffffff160217905550808273ffffffffffffffffffffffffffffffffffffffff16600073ffffffffffffffffffffffffffffffffffffffff167fddf252ad1be2c89b69c2b068fc378daa952ba7f163c4a11628f55a4df523b3ef60405160405180910390a45050565b604051806101400160405280600060ff168152602001600060ff168152602001600060ff168152602001600060ff168152602001600060ff168152602001600060ff168152602001600060ff168152602001600060ff168152602001600060ff168152602001600060ff1681525090565b82805461246d90612ca5565b90600052602060002090601f01602090048101928261248f57600085556124d6565b82601f106124a857805160ff19168380011785556124d6565b828001600101855582156124d6579182015b828111156124d55782518255916020019190600101906124ba565b5b5090506124e391906124e7565b5090565b5b808211156125005760008160009055506001016124e8565b5090565b6000604051905090565b600080fd5b600080fd5b60007fffffffff0000000000000000000000000000000000000000000000000000000082169050919050565b61254d81612518565b811461255857600080fd5b50565b60008135905061256a81612544565b92915050565b6000602082840312156125865761258561250e565b5b60006125948482850161255b565b91505092915050565b60008115159050919050565b6125b28161259d565b82525050565b60006020820190506125cd60008301846125a9565b92915050565b600081519050919050565b600082825260208201905092915050565b60005b8381101561260d5780820151818401526020810190506125f2565b8381111561261c576000848401525b50505050565b6000601f19601f8301169050919050565b600061263e826125d3565b61264881856125de565b93506126588185602086016125ef565b61266181612622565b840191505092915050565b600060208201905081810360008301526126868184612633565b905092915050565b6000819050919050565b6126a18161268e565b81146126ac57600080fd5b50565b6000813590506126be81612698565b92915050565b6000602082840312156126da576126d961250e565b5b60006126e8848285016126af565b91505092915050565b600073ffffffffffffffffffffffffffffffffffffffff82169050919050565b600061271c826126f1565b9050919050565b61272c81612711565b82525050565b60006020820190506127476000830184612723565b92915050565b61275681612711565b811461276157600080fd5b50565b6000813590506127738161274d565b92915050565b600080604083850312156127905761278f61250e565b5b600061279e85828601612764565b92505060206127af858286016126af565b9150509250929050565b6000806000606084860312156127d2576127d161250e565b5b60006127e086828701612764565b93505060206127f186828701612764565b9250506040612802868287016126af565b9150509250925092565b6000602082840312156128225761282161250e565b5b600061283084828501612764565b91505092915050565b6128428161268e565b82525050565b600060208201905061285d6000830184612839565b92915050565b600060ff82169050919050565b61287981612863565b82525050565b610140820160008201516128966000850182612870565b5060208201516128a96020850182612870565b5060408201516128bc6040850182612870565b5060608201516128cf6060850182612870565b5060808201516128e26080850182612870565b5060a08201516128f560a0850182612870565b5060c082015161290860c0850182612870565b5060e082015161291b60e0850182612870565b50610100820151612930610100850182612870565b50610120820151612945610120850182612870565b50505050565b600061014082019050612961600083018461287f565b92915050565b6129708161259d565b811461297b57600080fd5b50565b60008135905061298d81612967565b92915050565b600080604083850312156129aa576129a961250e565b5b60006129b885828601612764565b92505060206129c98582860161297e565b9150509250929050565b600080fd5b600080fd5b7f4e487b7100000000000000000000000000000000000000000000000000000000600052604160045260246000fd5b612a1582612622565b810181811067ffffffffffffffff82111715612a3457612a336129dd565b5b80604052505050565b6000612a47612504565b9050612a538282612a0c565b919050565b600067ffffffffffffffff821115612a7357612a726129dd565b5b612a7c82612622565b9050602081019050919050565b82818337600083830152505050565b6000612aab612aa684612a58565b612a3d565b905082815260208101848484011115612ac757612ac66129d8565b5b612ad2848285612a89565b509392505050565b600082601f830112612aef57612aee6129d3565b5b8135612aff848260208601612a98565b91505092915050565b60008060008060808587031215612b2257612b2161250e565b5b6000612b3087828801612764565b9450506020612b4187828801612764565b9350506040612b52878288016126af565b925050606085013567ffffffffffffffff811115612b7357612b72612513565b5b612b7f87828801612ada565b91505092959194509250565b612b9481612863565b82525050565b600061014082019050612bb0600083018d612b8b565b612bbd602083018c612b8b565b612bca604083018b612b8b565b612bd7606083018a612b8b565b612be46080830189612b8b565b612bf160a0830188612b8b565b612bfe60c0830187612b8b565b612c0b60e0830186612b8b565b612c19610100830185612b8b565b612c27610120830184612b8b565b9b9a5050505050505050505050565b60008060408385031215612c4d57612c4c61250e565b5b6000612c5b85828601612764565b9250506020612c6c85828601612764565b9150509250929050565b7f4e487b7100000000000000000000000000000000000000000000000000000000600052602260045260246000fd5b60006002820490506001821680612cbd57607f821691505b60208210811415612cd157612cd0612c76565b5b50919050565b7f4552433732313a20617070726f76656420717565727920666f72206e6f6e657860008201527f697374656e7420746f6b656e0000000000000000000000000000000000000000602082015250565b6000612d33602c836125de565b9150612d3e82612cd7565b604082019050919050565b60006020820190508181036000830152612d6281612d26565b9050919050565b7f4552433732313a20617070726f76616c20746f2063757272656e74206f776e6560008201527f7200000000000000000000000000000000000000000000000000000000000000602082015250565b6000612dc56021836125de565b9150612dd082612d69565b604082019050919050565b60006020820190508181036000830152612df481612db8565b9050919050565b7f4552433732313a20617070726f76652063616c6c6572206973206e6f74206f7760008201527f6e6572206e6f7220617070726f76656420666f7220616c6c0000000000000000602082015250565b6000612e576038836125de565b9150612e6282612dfb565b604082019050919050565b60006020820190508181036000830152612e8681612e4a565b9050919050565b7f4552433732313a207472616e736665722063616c6c6572206973206e6f74206f60008201527f776e6572206e6f7220617070726f766564000000000000000000000000000000602082015250565b6000612ee96031836125de565b9150612ef482612e8d565b604082019050919050565b60006020820190508181036000830152612f1881612edc565b9050919050565b7f4f776e61626c653a2063616c6c6572206973206e6f7420746865206f776e6572600082015250565b6000612f556020836125de565b9150612f6082612f1f565b602082019050919050565b60006020820190508181036000830152612f8481612f48565b9050919050565b7f4552433732313a206f776e657220717565727920666f72206e6f6e657869737460008201527f656e7420746f6b656e0000000000000000000000000000000000000000000000602082015250565b6000612fe76029836125de565b9150612ff282612f8b565b604082019050919050565b6000602082019050818103600083015261301681612fda565b9050919050565b7f4552433732313a2062616c616e636520717565727920666f7220746865207a6560008201527f726f206164647265737300000000000000000000000000000000000000000000602082015250565b6000613079602a836125de565b91506130848261301d565b604082019050919050565b600060208201905081810360008301526130a88161306c565b9050919050565b7f496e697469616c697a61626c653a20636f6e747261637420697320616c72656160008201527f647920696e697469616c697a6564000000000000000000000000000000000000602082015250565b600061310b602e836125de565b9150613116826130af565b604082019050919050565b6000602082019050818103600083015261313a816130fe565b9050919050565b7f4552433732314d657461646174613a2055524920717565727920666f72206e6f60008201527f6e6578697374656e7420746f6b656e0000000000000000000000000000000000602082015250565b600061319d602f836125de565b91506131a882613141565b604082019050919050565b600060208201905081810360008301526131cc81613190565b9050919050565b600081905092915050565b60006131e9826125d3565b6131f381856131d3565b93506132038185602086016125ef565b80840191505092915050565b600061321b82856131de565b915061322782846131de565b91508190509392505050565b7f4f776e61626c653a206e6577206f776e657220697320746865207a65726f206160008201527f6464726573730000000000000000000000000000000000000000000000000000602082015250565b600061328f6026836125de565b915061329a82613233565b604082019050919050565b600060208201905081810360008301526132be81613282565b9050919050565b7f4552433732313a206f70657261746f7220717565727920666f72206e6f6e657860008201527f697374656e7420746f6b656e0000000000000000000000000000000000000000602082015250565b6000613321602c836125de565b915061332c826132c5565b604082019050919050565b6000602082019050818103600083015261335081613314565b9050919050565b7f4552433732313a207472616e73666572206f6620746f6b656e2074686174206960008201527f73206e6f74206f776e0000000000000000000000000000000000000000000000602082015250565b60006133b36029836125de565b91506133be82613357565b604082019050919050565b600060208201905081810360008301526133e2816133a6565b9050919050565b7f4552433732313a207472616e7366657220746f20746865207a65726f2061646460008201527f7265737300000000000000000000000000000000000000000000000000000000602082015250565b60006134456024836125de565b9150613450826133e9565b604082019050919050565b6000602082019050818103600083015261347481613438565b9050919050565b7f4e487b7100000000000000000000000000000000000000000000000000000000600052601160045260246000fd5b60006134b58261268e565b91506134c08361268e565b9250828210156134d3576134d261347b565b5b828203905092915050565b60006134e98261268e565b91506134f48361268e565b9250827fffffffffffffffffffffffffffffffffffffffffffffffffffffffffffffffff038211156135295761352861347b565b5b828201905092915050565b7f5061757361626c653a206e6f7420706175736564000000000000000000000000600082015250565b600061356a6014836125de565b915061357582613534565b602082019050919050565b600060208201905081810360008301526135998161355d565b9050919050565b7f496e697469616c697a61626c653a20636f6e7472616374206973206e6f74206960008201527f6e697469616c697a696e67000000000000000000000000000000000000000000602082015250565b60006135fc602b836125de565b9150613607826135a0565b604082019050919050565b6000602082019050818103600083015261362b816135ef565b9050919050565b7f5061757361626c653a2070617573656400000000000000000000000000000000600082015250565b60006136686010836125de565b915061367382613632565b602082019050919050565b600060208201905081810360008301526136978161365b565b9050919050565b7f4552433732313a20617070726f766520746f2063616c6c657200000000000000600082015250565b60006136d46019836125de565b91506136df8261369e565b602082019050919050565b60006020820190508181036000830152613703816136c7565b9050919050565b7f4552433732313a207472616e7366657220746f206e6f6e20455243373231526560008201527f63656976657220696d706c656d656e7465720000000000000000000000000000602082015250565b60006137666032836125de565b91506137718261370a565b604082019050919050565b6000602082019050818103600083015261379581613759565b9050919050565b60006137a78261268e565b91507fffffffffffffffffffffffffffffffffffffffffffffffffffffffffffffffff8214156137da576137d961347b565b5b600182019050919050565b7f4e487b7100000000000000000000000000000000000000000000000000000000600052601260045260246000fd5b600061381f8261268e565b915061382a8361268e565b92508261383a576138396137e5565b5b828204905092915050565b60006138508261268e565b915061385b8361268e565b92508261386b5761386a6137e5565b5b828206905092915050565b7f4e487b7100000000000000000000000000000000000000000000000000000000600052603260045260246000fd5b600081519050919050565b600082825260208201905092915050565b60006138cc826138a5565b6138d681856138b0565b93506138e68185602086016125ef565b6138ef81612622565b840191505092915050565b600060808201905061390f6000830187612723565b61391c6020830186612723565b6139296040830185612839565b818103606083015261393b81846138c1565b905095945050505050565b60008151905061395581612544565b92915050565b6000602082840312156139715761397061250e565b5b600061397f84828501613946565b91505092915050565b7f4552433732313a206d696e7420746f20746865207a65726f2061646472657373600082015250565b60006139be6020836125de565b91506139c982613988565b602082019050919050565b600060208201905081810360008301526139ed816139b1565b9050919050565b7f4552433732313a20746f6b656e20616c7265616479206d696e74656400000000600082015250565b6000613a2a601c836125de565b9150613a35826139f4565b602082019050919050565b60006020820190508181036000830152613a5981613a1d565b905091905056fea264697066735822122065c0e5a119254bca490c1a6bf7bd39afce23f43af68a34be285b1e824415c82964736f6c634300080a0033",
  "immutableReferences": {},
  "source": "// SPDX-License-Identifier: MIT\npragma solidity ^0.8.2;\n\nimport \"@openzeppelin/contracts-upgradeable/token/ERC721/ERC721Upgradeable.sol\";\nimport \"@openzeppelin/contracts-upgradeable/security/PausableUpgradeable.sol\";\nimport \"@openzeppelin/contracts-upgradeable/access/OwnableUpgradeable.sol\";\nimport \"@openzeppelin/contracts-upgradeable/proxy/utils/Initializable.sol\";\nimport \"./IArtist.sol\";\n\ncontract Artist is IArtist, Initializable, ERC721Upgradeable, PausableUpgradeable, OwnableUpgradeable {\n\n    //mapping from tokenId to struct containing traits\n    mapping (uint256 => Person) public tokenTraits;\n\n    /// @custom:oz-upgrades-unsafe-allow constructor\n    constructor() initializer {}\n\n    function initialize() initializer public {\n        __ERC721_init(\"Artist\", \"CBA\");\n        __Pausable_init();\n        __Ownable_init();\n    }\n\n    function pause() public onlyOwner {\n        _pause();\n    }\n\n    function unpause() public onlyOwner {\n        _unpause();\n    }\n\n    function safeMint(address to, uint256 tokenId) public onlyOwner {\n        _safeMint(to, tokenId);\n    }\n\n    function _beforeTokenTransfer(address from, address to, uint256 tokenId)\n        internal\n        whenNotPaused\n        override\n    {\n        super._beforeTokenTransfer(from, to, tokenId);\n    }\n\n    function getTokenTraits(uint256 tokenId) external view override returns (Person memory) {\n        return tokenTraits[tokenId];\n    }\n}",
  "sourcePath": "/Users/warrenschwartz/Projects/ColdBehaviour/contracts/contracts/Artist.sol",
  "compiler": {
    "name": "solc",
    "version": "0.8.10+commit.fc410830.Emscripten.clang"
  },
  "schemaVersion": "3.4.3",
  "updatedAt": "2022-01-19T12:39:52.993Z",
  "devdoc": {
    "kind": "dev",
    "methods": {
      "approve(address,uint256)": {
        "details": "See {IERC721-approve}."
      },
      "balanceOf(address)": {
        "details": "See {IERC721-balanceOf}."
      },
      "constructor": {
        "custom:oz-upgrades-unsafe-allow": "constructor"
      },
      "getApproved(uint256)": {
        "details": "See {IERC721-getApproved}."
      },
      "isApprovedForAll(address,address)": {
        "details": "See {IERC721-isApprovedForAll}."
      },
      "name()": {
        "details": "See {IERC721Metadata-name}."
      },
      "owner()": {
        "details": "Returns the address of the current owner."
      },
      "ownerOf(uint256)": {
        "details": "See {IERC721-ownerOf}."
      },
      "paused()": {
        "details": "Returns true if the contract is paused, and false otherwise."
      },
      "renounceOwnership()": {
        "details": "Leaves the contract without owner. It will not be possible to call `onlyOwner` functions anymore. Can only be called by the current owner. NOTE: Renouncing ownership will leave the contract without an owner, thereby removing any functionality that is only available to the owner."
      },
      "safeTransferFrom(address,address,uint256)": {
        "details": "See {IERC721-safeTransferFrom}."
      },
      "safeTransferFrom(address,address,uint256,bytes)": {
        "details": "See {IERC721-safeTransferFrom}."
      },
      "setApprovalForAll(address,bool)": {
        "details": "See {IERC721-setApprovalForAll}."
      },
      "supportsInterface(bytes4)": {
        "details": "See {IERC165-supportsInterface}."
      },
      "symbol()": {
        "details": "See {IERC721Metadata-symbol}."
      },
      "tokenURI(uint256)": {
        "details": "See {IERC721Metadata-tokenURI}."
      },
      "transferFrom(address,address,uint256)": {
        "details": "See {IERC721-transferFrom}."
      },
      "transferOwnership(address)": {
        "details": "Transfers ownership of the contract to a new account (`newOwner`). Can only be called by the current owner."
      }
    },
    "version": 1
  },
  "userdoc": {
    "kind": "user",
    "methods": {},
    "version": 1
  }
}