{
  "contractName": "Artist",
  "abi": [
    {
      "inputs": [],
      "stateMutability": "nonpayable",
      "type": "constructor"
    },
    {
      "anonymous": false,
      "inputs": [
        {
          "indexed": true,
          "internalType": "address",
          "name": "owner",
          "type": "address"
        },
        {
          "indexed": true,
          "internalType": "address",
          "name": "approved",
          "type": "address"
        },
        {
          "indexed": true,
          "internalType": "uint256",
          "name": "tokenId",
          "type": "uint256"
        }
      ],
      "name": "Approval",
      "type": "event"
    },
    {
      "anonymous": false,
      "inputs": [
        {
          "indexed": true,
          "internalType": "address",
          "name": "owner",
          "type": "address"
        },
        {
          "indexed": true,
          "internalType": "address",
          "name": "operator",
          "type": "address"
        },
        {
          "indexed": false,
          "internalType": "bool",
          "name": "approved",
          "type": "bool"
        }
      ],
      "name": "ApprovalForAll",
      "type": "event"
    },
    {
      "anonymous": false,
      "inputs": [
        {
          "indexed": true,
          "internalType": "address",
          "name": "previousOwner",
          "type": "address"
        },
        {
          "indexed": true,
          "internalType": "address",
          "name": "newOwner",
          "type": "address"
        }
      ],
      "name": "OwnershipTransferred",
      "type": "event"
    },
    {
      "anonymous": false,
      "inputs": [
        {
          "indexed": false,
          "internalType": "address",
          "name": "account",
          "type": "address"
        }
      ],
      "name": "Paused",
      "type": "event"
    },
    {
      "anonymous": false,
      "inputs": [
        {
          "indexed": true,
          "internalType": "address",
          "name": "from",
          "type": "address"
        },
        {
          "indexed": true,
          "internalType": "address",
          "name": "to",
          "type": "address"
        },
        {
          "indexed": true,
          "internalType": "uint256",
          "name": "tokenId",
          "type": "uint256"
        }
      ],
      "name": "Transfer",
      "type": "event"
    },
    {
      "anonymous": false,
      "inputs": [
        {
          "indexed": false,
          "internalType": "address",
          "name": "account",
          "type": "address"
        }
      ],
      "name": "Unpaused",
      "type": "event"
    },
    {
      "inputs": [
        {
          "internalType": "address",
          "name": "to",
          "type": "address"
        },
        {
          "internalType": "uint256",
          "name": "tokenId",
          "type": "uint256"
        }
      ],
      "name": "approve",
      "outputs": [],
      "stateMutability": "nonpayable",
      "type": "function"
    },
    {
      "inputs": [
        {
          "internalType": "address",
          "name": "owner",
          "type": "address"
        }
      ],
      "name": "balanceOf",
      "outputs": [
        {
          "internalType": "uint256",
          "name": "",
          "type": "uint256"
        }
      ],
      "stateMutability": "view",
      "type": "function",
      "constant": true
    },
    {
      "inputs": [
        {
          "internalType": "uint256",
          "name": "tokenId",
          "type": "uint256"
        }
      ],
      "name": "getApproved",
      "outputs": [
        {
          "internalType": "address",
          "name": "",
          "type": "address"
        }
      ],
      "stateMutability": "view",
      "type": "function",
      "constant": true
    },
    {
      "inputs": [
        {
          "internalType": "address",
          "name": "owner",
          "type": "address"
        },
        {
          "internalType": "address",
          "name": "operator",
          "type": "address"
        }
      ],
      "name": "isApprovedForAll",
      "outputs": [
        {
          "internalType": "bool",
          "name": "",
          "type": "bool"
        }
      ],
      "stateMutability": "view",
      "type": "function",
      "constant": true
    },
    {
      "inputs": [],
      "name": "name",
      "outputs": [
        {
          "internalType": "string",
          "name": "",
          "type": "string"
        }
      ],
      "stateMutability": "view",
      "type": "function",
      "constant": true
    },
    {
      "inputs": [],
      "name": "owner",
      "outputs": [
        {
          "internalType": "address",
          "name": "",
          "type": "address"
        }
      ],
      "stateMutability": "view",
      "type": "function",
      "constant": true
    },
    {
      "inputs": [
        {
          "internalType": "uint256",
          "name": "tokenId",
          "type": "uint256"
        }
      ],
      "name": "ownerOf",
      "outputs": [
        {
          "internalType": "address",
          "name": "",
          "type": "address"
        }
      ],
      "stateMutability": "view",
      "type": "function",
      "constant": true
    },
    {
      "inputs": [],
      "name": "paused",
      "outputs": [
        {
          "internalType": "bool",
          "name": "",
          "type": "bool"
        }
      ],
      "stateMutability": "view",
      "type": "function",
      "constant": true
    },
    {
      "inputs": [],
      "name": "renounceOwnership",
      "outputs": [],
      "stateMutability": "nonpayable",
      "type": "function"
    },
    {
      "inputs": [
        {
          "internalType": "address",
          "name": "from",
          "type": "address"
        },
        {
          "internalType": "address",
          "name": "to",
          "type": "address"
        },
        {
          "internalType": "uint256",
          "name": "tokenId",
          "type": "uint256"
        }
      ],
      "name": "safeTransferFrom",
      "outputs": [],
      "stateMutability": "nonpayable",
      "type": "function"
    },
    {
      "inputs": [
        {
          "internalType": "address",
          "name": "from",
          "type": "address"
        },
        {
          "internalType": "address",
          "name": "to",
          "type": "address"
        },
        {
          "internalType": "uint256",
          "name": "tokenId",
          "type": "uint256"
        },
        {
          "internalType": "bytes",
          "name": "_data",
          "type": "bytes"
        }
      ],
      "name": "safeTransferFrom",
      "outputs": [],
      "stateMutability": "nonpayable",
      "type": "function"
    },
    {
      "inputs": [
        {
          "internalType": "address",
          "name": "operator",
          "type": "address"
        },
        {
          "internalType": "bool",
          "name": "approved",
          "type": "bool"
        }
      ],
      "name": "setApprovalForAll",
      "outputs": [],
      "stateMutability": "nonpayable",
      "type": "function"
    },
    {
      "inputs": [
        {
          "internalType": "bytes4",
          "name": "interfaceId",
          "type": "bytes4"
        }
      ],
      "name": "supportsInterface",
      "outputs": [
        {
          "internalType": "bool",
          "name": "",
          "type": "bool"
        }
      ],
      "stateMutability": "view",
      "type": "function",
      "constant": true
    },
    {
      "inputs": [],
      "name": "symbol",
      "outputs": [
        {
          "internalType": "string",
          "name": "",
          "type": "string"
        }
      ],
      "stateMutability": "view",
      "type": "function",
      "constant": true
    },
    {
      "inputs": [
        {
          "internalType": "uint256",
          "name": "",
          "type": "uint256"
        }
      ],
      "name": "tokenTraits",
      "outputs": [
        {
          "internalType": "uint8",
          "name": "background",
          "type": "uint8"
        },
        {
          "internalType": "uint8",
          "name": "colour",
          "type": "uint8"
        },
        {
          "internalType": "uint8",
          "name": "eyes",
          "type": "uint8"
        },
        {
          "internalType": "uint8",
          "name": "hair",
          "type": "uint8"
        },
        {
          "internalType": "uint8",
          "name": "hat",
          "type": "uint8"
        },
        {
          "internalType": "uint8",
          "name": "necklace",
          "type": "uint8"
        },
        {
          "internalType": "uint8",
          "name": "teeth",
          "type": "uint8"
        }
      ],
      "stateMutability": "view",
      "type": "function",
      "constant": true
    },
    {
      "inputs": [
        {
          "internalType": "uint256",
          "name": "tokenId",
          "type": "uint256"
        }
      ],
      "name": "tokenURI",
      "outputs": [
        {
          "internalType": "string",
          "name": "",
          "type": "string"
        }
      ],
      "stateMutability": "view",
      "type": "function",
      "constant": true
    },
    {
      "inputs": [
        {
          "internalType": "address",
          "name": "from",
          "type": "address"
        },
        {
          "internalType": "address",
          "name": "to",
          "type": "address"
        },
        {
          "internalType": "uint256",
          "name": "tokenId",
          "type": "uint256"
        }
      ],
      "name": "transferFrom",
      "outputs": [],
      "stateMutability": "nonpayable",
      "type": "function"
    },
    {
      "inputs": [
        {
          "internalType": "address",
          "name": "newOwner",
          "type": "address"
        }
      ],
      "name": "transferOwnership",
      "outputs": [],
      "stateMutability": "nonpayable",
      "type": "function"
    },
    {
      "inputs": [],
      "name": "initialize",
      "outputs": [],
      "stateMutability": "nonpayable",
      "type": "function"
    },
    {
      "inputs": [],
      "name": "pause",
      "outputs": [],
      "stateMutability": "nonpayable",
      "type": "function"
    },
    {
      "inputs": [],
      "name": "unpause",
      "outputs": [],
      "stateMutability": "nonpayable",
      "type": "function"
    },
    {
      "inputs": [
        {
          "internalType": "address",
          "name": "to",
          "type": "address"
        },
        {
          "internalType": "uint256",
          "name": "tokenId",
          "type": "uint256"
        }
      ],
      "name": "safeMint",
      "outputs": [],
      "stateMutability": "nonpayable",
      "type": "function"
    }
  ],
  "bytecode": "0x60806040523480156200001157600080fd5b50600060019054906101000a900460ff166200003c5760008054906101000a900460ff16156200004d565b6200004c6200010960201b60201c565b5b6200008f576040517f08c379a00000000000000000000000000000000000000000000000000000000081526004016200008690620001c1565b60405180910390fd5b60008060019054906101000a900460ff161590508015620000e0576001600060016101000a81548160ff02191690831515021790555060016000806101000a81548160ff0219169083151502179055505b8015620001025760008060016101000a81548160ff0219169083151502179055505b50620001e3565b600062000121306200012760201b6200109d1760201c565b15905090565b600080823b905060008111915050919050565b600082825260208201905092915050565b7f496e697469616c697a61626c653a20636f6e747261637420697320616c72656160008201527f647920696e697469616c697a6564000000000000000000000000000000000000602082015250565b6000620001a9602e836200013a565b9150620001b6826200014b565b604082019050919050565b60006020820190508181036000830152620001dc816200019a565b9050919050565b61373a80620001f36000396000f3fe608060405234801561001057600080fd5b50600436106101425760003560e01c80638129fc1c116100b8578063a22cb4651161007c578063a22cb46514610317578063b88d4fde14610333578063c87b56dd1461034f578063e05c57bf1461037f578063e985e9c5146103b5578063f2fde38b146103e557610142565b80638129fc1c146102ab5780638456cb59146102b55780638da5cb5b146102bf57806395d89b41146102dd578063a1448194146102fb57610142565b80633f4ba83a1161010a5780633f4ba83a146101fd57806342842e0e146102075780635c975abb146102235780636352211e1461024157806370a0823114610271578063715018a6146102a157610142565b806301ffc9a71461014757806306fdde0314610177578063081812fc14610195578063095ea7b3146101c557806323b872dd146101e1575b600080fd5b610161600480360381019061015c9190612338565b610401565b60405161016e9190612380565b60405180910390f35b61017f6104e3565b60405161018c9190612434565b60405180910390f35b6101af60048036038101906101aa919061248c565b610575565b6040516101bc91906124fa565b60405180910390f35b6101df60048036038101906101da9190612541565b6105fa565b005b6101fb60048036038101906101f69190612581565b610712565b005b610205610772565b005b610221600480360381019061021c9190612581565b6107f8565b005b61022b610818565b6040516102389190612380565b60405180910390f35b61025b6004803603810190610256919061248c565b61082f565b60405161026891906124fa565b60405180910390f35b61028b600480360381019061028691906125d4565b6108e1565b6040516102989190612610565b60405180910390f35b6102a9610999565b005b6102b3610a21565b005b6102bd610b89565b005b6102c7610c0f565b6040516102d491906124fa565b60405180910390f35b6102e5610c39565b6040516102f29190612434565b60405180910390f35b61031560048036038101906103109190612541565b610ccb565b005b610331600480360381019061032c9190612657565b610d55565b005b61034d600480360381019061034891906127cc565b610d6b565b005b6103696004803603810190610364919061248c565b610dcd565b6040516103769190612434565b60405180910390f35b6103996004803603810190610394919061248c565b610e74565b6040516103ac979695949392919061286b565b60405180910390f35b6103cf60048036038101906103ca91906128da565b610f11565b6040516103dc9190612380565b60405180910390f35b6103ff60048036038101906103fa91906125d4565b610fa5565b005b60007f80ac58cd000000000000000000000000000000000000000000000000000000007bffffffffffffffffffffffffffffffffffffffffffffffffffffffff1916827bffffffffffffffffffffffffffffffffffffffffffffffffffffffff191614806104cc57507f5b5e139f000000000000000000000000000000000000000000000000000000007bffffffffffffffffffffffffffffffffffffffffffffffffffffffff1916827bffffffffffffffffffffffffffffffffffffffffffffffffffffffff1916145b806104dc57506104db826110b0565b5b9050919050565b6060606580546104f290612949565b80601f016020809104026020016040519081016040528092919081815260200182805461051e90612949565b801561056b5780601f106105405761010080835404028352916020019161056b565b820191906000526020600020905b81548152906001019060200180831161054e57829003601f168201915b5050505050905090565b60006105808261111a565b6105bf576040517f08c379a00000000000000000000000000000000000000000000000000000000081526004016105b6906129ed565b60405180910390fd5b6069600083815260200190815260200160002060009054906101000a900473ffffffffffffffffffffffffffffffffffffffff169050919050565b60006106058261082f565b90508073ffffffffffffffffffffffffffffffffffffffff168373ffffffffffffffffffffffffffffffffffffffff161415610676576040517f08c379a000000000000000000000000000000000000000000000000000000000815260040161066d90612a7f565b60405180910390fd5b8073ffffffffffffffffffffffffffffffffffffffff16610695611186565b73ffffffffffffffffffffffffffffffffffffffff1614806106c457506106c3816106be611186565b610f11565b5b610703576040517f08c379a00000000000000000000000000000000000000000000000000000000081526004016106fa90612b11565b60405180910390fd5b61070d838361118e565b505050565b61072361071d611186565b82611247565b610762576040517f08c379a000000000000000000000000000000000000000000000000000000000815260040161075990612ba3565b60405180910390fd5b61076d838383611325565b505050565b61077a611186565b73ffffffffffffffffffffffffffffffffffffffff16610798610c0f565b73ffffffffffffffffffffffffffffffffffffffff16146107ee576040517f08c379a00000000000000000000000000000000000000000000000000000000081526004016107e590612c0f565b60405180910390fd5b6107f6611581565b565b61081383838360405180602001604052806000815250610d6b565b505050565b6000609760009054906101000a900460ff16905090565b6000806067600084815260200190815260200160002060009054906101000a900473ffffffffffffffffffffffffffffffffffffffff169050600073ffffffffffffffffffffffffffffffffffffffff168173ffffffffffffffffffffffffffffffffffffffff1614156108d8576040517f08c379a00000000000000000000000000000000000000000000000000000000081526004016108cf90612ca1565b60405180910390fd5b80915050919050565b60008073ffffffffffffffffffffffffffffffffffffffff168273ffffffffffffffffffffffffffffffffffffffff161415610952576040517f08c379a000000000000000000000000000000000000000000000000000000000815260040161094990612d33565b60405180910390fd5b606860008373ffffffffffffffffffffffffffffffffffffffff1673ffffffffffffffffffffffffffffffffffffffff168152602001908152602001600020549050919050565b6109a1611186565b73ffffffffffffffffffffffffffffffffffffffff166109bf610c0f565b73ffffffffffffffffffffffffffffffffffffffff1614610a15576040517f08c379a0000000000000000000000000000000000000000000000000000000008152600401610a0c90612c0f565b60405180910390fd5b610a1f6000611623565b565b600060019054906101000a900460ff16610a495760008054906101000a900460ff1615610a52565b610a516116e9565b5b610a91576040517f08c379a0000000000000000000000000000000000000000000000000000000008152600401610a8890612dc5565b60405180910390fd5b60008060019054906101000a900460ff161590508015610ae1576001600060016101000a81548160ff02191690831515021790555060016000806101000a81548160ff0219169083151502179055505b610b556040518060400160405280600681526020017f41727469737400000000000000000000000000000000000000000000000000008152506040518060400160405280600381526020017f43424100000000000000000000000000000000000000000000000000000000008152506116fa565b610b5d611767565b610b656117c8565b8015610b865760008060016101000a81548160ff0219169083151502179055505b50565b610b91611186565b73ffffffffffffffffffffffffffffffffffffffff16610baf610c0f565b73ffffffffffffffffffffffffffffffffffffffff1614610c05576040517f08c379a0000000000000000000000000000000000000000000000000000000008152600401610bfc90612c0f565b60405180910390fd5b610c0d611829565b565b600060c960009054906101000a900473ffffffffffffffffffffffffffffffffffffffff16905090565b606060668054610c4890612949565b80601f0160208091040260200160405190810160405280929190818152602001828054610c7490612949565b8015610cc15780601f10610c9657610100808354040283529160200191610cc1565b820191906000526020600020905b815481529060010190602001808311610ca457829003601f168201915b5050505050905090565b610cd3611186565b73ffffffffffffffffffffffffffffffffffffffff16610cf1610c0f565b73ffffffffffffffffffffffffffffffffffffffff1614610d47576040517f08c379a0000000000000000000000000000000000000000000000000000000008152600401610d3e90612c0f565b60405180910390fd5b610d5182826118cc565b5050565b610d67610d60611186565b83836118ea565b5050565b610d7c610d76611186565b83611247565b610dbb576040517f08c379a0000000000000000000000000000000000000000000000000000000008152600401610db290612ba3565b60405180910390fd5b610dc784848484611a57565b50505050565b6060610dd88261111a565b610e17576040517f08c379a0000000000000000000000000000000000000000000000000000000008152600401610e0e90612e57565b60405180910390fd5b6000610e21611ab3565b90506000815111610e415760405180602001604052806000815250610e6c565b80610e4b84611aca565b604051602001610e5c929190612eb3565b6040516020818303038152906040525b915050919050565b60fb6020528060005260406000206000915090508060000160009054906101000a900460ff16908060000160019054906101000a900460ff16908060000160029054906101000a900460ff16908060000160039054906101000a900460ff16908060000160049054906101000a900460ff16908060000160059054906101000a900460ff16908060000160069054906101000a900460ff16905087565b6000606a60008473ffffffffffffffffffffffffffffffffffffffff1673ffffffffffffffffffffffffffffffffffffffff16815260200190815260200160002060008373ffffffffffffffffffffffffffffffffffffffff1673ffffffffffffffffffffffffffffffffffffffff16815260200190815260200160002060009054906101000a900460ff16905092915050565b610fad611186565b73ffffffffffffffffffffffffffffffffffffffff16610fcb610c0f565b73ffffffffffffffffffffffffffffffffffffffff1614611021576040517f08c379a000000000000000000000000000000000000000000000000000000000815260040161101890612c0f565b60405180910390fd5b600073ffffffffffffffffffffffffffffffffffffffff168173ffffffffffffffffffffffffffffffffffffffff161415611091576040517f08c379a000000000000000000000000000000000000000000000000000000000815260040161108890612f49565b60405180910390fd5b61109a81611623565b50565b600080823b905060008111915050919050565b60007f01ffc9a7000000000000000000000000000000000000000000000000000000007bffffffffffffffffffffffffffffffffffffffffffffffffffffffff1916827bffffffffffffffffffffffffffffffffffffffffffffffffffffffff1916149050919050565b60008073ffffffffffffffffffffffffffffffffffffffff166067600084815260200190815260200160002060009054906101000a900473ffffffffffffffffffffffffffffffffffffffff1673ffffffffffffffffffffffffffffffffffffffff1614159050919050565b600033905090565b816069600083815260200190815260200160002060006101000a81548173ffffffffffffffffffffffffffffffffffffffff021916908373ffffffffffffffffffffffffffffffffffffffff160217905550808273ffffffffffffffffffffffffffffffffffffffff166112018361082f565b73ffffffffffffffffffffffffffffffffffffffff167f8c5be1e5ebec7d5bd14f71427d1e84f3dd0314c0f7b2291e5b200ac8c7c3b92560405160405180910390a45050565b60006112528261111a565b611291576040517f08c379a000000000000000000000000000000000000000000000000000000000815260040161128890612fdb565b60405180910390fd5b600061129c8361082f565b90508073ffffffffffffffffffffffffffffffffffffffff168473ffffffffffffffffffffffffffffffffffffffff16148061130b57508373ffffffffffffffffffffffffffffffffffffffff166112f384610575565b73ffffffffffffffffffffffffffffffffffffffff16145b8061131c575061131b8185610f11565b5b91505092915050565b8273ffffffffffffffffffffffffffffffffffffffff166113458261082f565b73ffffffffffffffffffffffffffffffffffffffff161461139b576040517f08c379a00000000000000000000000000000000000000000000000000000000081526004016113929061306d565b60405180910390fd5b600073ffffffffffffffffffffffffffffffffffffffff168273ffffffffffffffffffffffffffffffffffffffff16141561140b576040517f08c379a0000000000000000000000000000000000000000000000000000000008152600401611402906130ff565b60405180910390fd5b611416838383611c2b565b61142160008261118e565b6001606860008573ffffffffffffffffffffffffffffffffffffffff1673ffffffffffffffffffffffffffffffffffffffff1681526020019081526020016000206000828254611471919061314e565b925050819055506001606860008473ffffffffffffffffffffffffffffffffffffffff1673ffffffffffffffffffffffffffffffffffffffff16815260200190815260200160002060008282546114c89190613182565b92505081905550816067600083815260200190815260200160002060006101000a81548173ffffffffffffffffffffffffffffffffffffffff021916908373ffffffffffffffffffffffffffffffffffffffff160217905550808273ffffffffffffffffffffffffffffffffffffffff168473ffffffffffffffffffffffffffffffffffffffff167fddf252ad1be2c89b69c2b068fc378daa952ba7f163c4a11628f55a4df523b3ef60405160405180910390a4505050565b611589610818565b6115c8576040517f08c379a00000000000000000000000000000000000000000000000000000000081526004016115bf90613224565b60405180910390fd5b6000609760006101000a81548160ff0219169083151502179055507f5db9ee0a495bf2e6ff9c91a7834c1ba4fdd244a5e8aa4e537bd38aeae4b073aa61160c611186565b60405161161991906124fa565b60405180910390a1565b600060c960009054906101000a900473ffffffffffffffffffffffffffffffffffffffff1690508160c960006101000a81548173ffffffffffffffffffffffffffffffffffffffff021916908373ffffffffffffffffffffffffffffffffffffffff1602179055508173ffffffffffffffffffffffffffffffffffffffff168173ffffffffffffffffffffffffffffffffffffffff167f8be0079c531659141344cd1fd0a4f28419497f9722a3daafe3b4186f6b6457e060405160405180910390a35050565b60006116f43061109d565b15905090565b600060019054906101000a900460ff16611749576040517f08c379a0000000000000000000000000000000000000000000000000000000008152600401611740906132b6565b60405180910390fd5b611751611c83565b611759611cd4565b6117638282611d25565b5050565b600060019054906101000a900460ff166117b6576040517f08c379a00000000000000000000000000000000000000000000000000000000081526004016117ad906132b6565b60405180910390fd5b6117be611c83565b6117c6611da6565b565b600060019054906101000a900460ff16611817576040517f08c379a000000000000000000000000000000000000000000000000000000000815260040161180e906132b6565b60405180910390fd5b61181f611c83565b611827611e12565b565b611831610818565b15611871576040517f08c379a000000000000000000000000000000000000000000000000000000000815260040161186890613322565b60405180910390fd5b6001609760006101000a81548160ff0219169083151502179055507f62e78cea01bee320cd4e420270b5ea74000d11b0c9f74754ebdbfc544b05a2586118b5611186565b6040516118c291906124fa565b60405180910390a1565b6118e6828260405180602001604052806000815250611e73565b5050565b8173ffffffffffffffffffffffffffffffffffffffff168373ffffffffffffffffffffffffffffffffffffffff161415611959576040517f08c379a00000000000000000000000000000000000000000000000000000000081526004016119509061338e565b60405180910390fd5b80606a60008573ffffffffffffffffffffffffffffffffffffffff1673ffffffffffffffffffffffffffffffffffffffff16815260200190815260200160002060008473ffffffffffffffffffffffffffffffffffffffff1673ffffffffffffffffffffffffffffffffffffffff16815260200190815260200160002060006101000a81548160ff0219169083151502179055508173ffffffffffffffffffffffffffffffffffffffff168373ffffffffffffffffffffffffffffffffffffffff167f17307eab39ab6107e8899845ad3d59bd9653f200f220920489ca2b5937696c3183604051611a4a9190612380565b60405180910390a3505050565b611a62848484611325565b611a6e84848484611ece565b611aad576040517f08c379a0000000000000000000000000000000000000000000000000000000008152600401611aa490613420565b60405180910390fd5b50505050565b606060405180602001604052806000815250905090565b60606000821415611b12576040518060400160405280600181526020017f30000000000000000000000000000000000000000000000000000000000000008152509050611c26565b600082905060005b60008214611b44578080611b2d90613440565b915050600a82611b3d91906134b8565b9150611b1a565b60008167ffffffffffffffff811115611b6057611b5f6126a1565b5b6040519080825280601f01601f191660200182016040528015611b925781602001600182028036833780820191505090505b5090505b60008514611c1f57600182611bab919061314e565b9150600a85611bba91906134e9565b6030611bc69190613182565b60f81b818381518110611bdc57611bdb61351a565b5b60200101907effffffffffffffffffffffffffffffffffffffffffffffffffffffffffffff1916908160001a905350600a85611c1891906134b8565b9450611b96565b8093505050505b919050565b611c33610818565b15611c73576040517f08c379a0000000000000000000000000000000000000000000000000000000008152600401611c6a90613322565b60405180910390fd5b611c7e838383612056565b505050565b600060019054906101000a900460ff16611cd2576040517f08c379a0000000000000000000000000000000000000000000000000000000008152600401611cc9906132b6565b60405180910390fd5b565b600060019054906101000a900460ff16611d23576040517f08c379a0000000000000000000000000000000000000000000000000000000008152600401611d1a906132b6565b60405180910390fd5b565b600060019054906101000a900460ff16611d74576040517f08c379a0000000000000000000000000000000000000000000000000000000008152600401611d6b906132b6565b60405180910390fd5b8160659080519060200190611d8a929190612229565b508060669080519060200190611da1929190612229565b505050565b600060019054906101000a900460ff16611df5576040517f08c379a0000000000000000000000000000000000000000000000000000000008152600401611dec906132b6565b60405180910390fd5b6000609760006101000a81548160ff021916908315150217905550565b600060019054906101000a900460ff16611e61576040517f08c379a0000000000000000000000000000000000000000000000000000000008152600401611e58906132b6565b60405180910390fd5b611e71611e6c611186565b611623565b565b611e7d838361205b565b611e8a6000848484611ece565b611ec9576040517f08c379a0000000000000000000000000000000000000000000000000000000008152600401611ec090613420565b60405180910390fd5b505050565b6000611eef8473ffffffffffffffffffffffffffffffffffffffff1661109d565b15612049578373ffffffffffffffffffffffffffffffffffffffff1663150b7a02611f18611186565b8786866040518563ffffffff1660e01b8152600401611f3a949392919061359e565b6020604051808303816000875af1925050508015611f7657506040513d601f19601f82011682018060405250810190611f7391906135ff565b60015b611ff9573d8060008114611fa6576040519150601f19603f3d011682016040523d82523d6000602084013e611fab565b606091505b50600081511415611ff1576040517f08c379a0000000000000000000000000000000000000000000000000000000008152600401611fe890613420565b60405180910390fd5b805181602001fd5b63150b7a0260e01b7bffffffffffffffffffffffffffffffffffffffffffffffffffffffff1916817bffffffffffffffffffffffffffffffffffffffffffffffffffffffff19161491505061204e565b600190505b949350505050565b505050565b600073ffffffffffffffffffffffffffffffffffffffff168273ffffffffffffffffffffffffffffffffffffffff1614156120cb576040517f08c379a00000000000000000000000000000000000000000000000000000000081526004016120c290613678565b60405180910390fd5b6120d48161111a565b15612114576040517f08c379a000000000000000000000000000000000000000000000000000000000815260040161210b906136e4565b60405180910390fd5b61212060008383611c2b565b6001606860008473ffffffffffffffffffffffffffffffffffffffff1673ffffffffffffffffffffffffffffffffffffffff16815260200190815260200160002060008282546121709190613182565b92505081905550816067600083815260200190815260200160002060006101000a81548173ffffffffffffffffffffffffffffffffffffffff021916908373ffffffffffffffffffffffffffffffffffffffff160217905550808273ffffffffffffffffffffffffffffffffffffffff16600073ffffffffffffffffffffffffffffffffffffffff167fddf252ad1be2c89b69c2b068fc378daa952ba7f163c4a11628f55a4df523b3ef60405160405180910390a45050565b82805461223590612949565b90600052602060002090601f016020900481019282612257576000855561229e565b82601f1061227057805160ff191683800117855561229e565b8280016001018555821561229e579182015b8281111561229d578251825591602001919060010190612282565b5b5090506122ab91906122af565b5090565b5b808211156122c85760008160009055506001016122b0565b5090565b6000604051905090565b600080fd5b600080fd5b60007fffffffff0000000000000000000000000000000000000000000000000000000082169050919050565b612315816122e0565b811461232057600080fd5b50565b6000813590506123328161230c565b92915050565b60006020828403121561234e5761234d6122d6565b5b600061235c84828501612323565b91505092915050565b60008115159050919050565b61237a81612365565b82525050565b60006020820190506123956000830184612371565b92915050565b600081519050919050565b600082825260208201905092915050565b60005b838110156123d55780820151818401526020810190506123ba565b838111156123e4576000848401525b50505050565b6000601f19601f8301169050919050565b60006124068261239b565b61241081856123a6565b93506124208185602086016123b7565b612429816123ea565b840191505092915050565b6000602082019050818103600083015261244e81846123fb565b905092915050565b6000819050919050565b61246981612456565b811461247457600080fd5b50565b60008135905061248681612460565b92915050565b6000602082840312156124a2576124a16122d6565b5b60006124b084828501612477565b91505092915050565b600073ffffffffffffffffffffffffffffffffffffffff82169050919050565b60006124e4826124b9565b9050919050565b6124f4816124d9565b82525050565b600060208201905061250f60008301846124eb565b92915050565b61251e816124d9565b811461252957600080fd5b50565b60008135905061253b81612515565b92915050565b60008060408385031215612558576125576122d6565b5b60006125668582860161252c565b925050602061257785828601612477565b9150509250929050565b60008060006060848603121561259a576125996122d6565b5b60006125a88682870161252c565b93505060206125b98682870161252c565b92505060406125ca86828701612477565b9150509250925092565b6000602082840312156125ea576125e96122d6565b5b60006125f88482850161252c565b91505092915050565b61260a81612456565b82525050565b60006020820190506126256000830184612601565b92915050565b61263481612365565b811461263f57600080fd5b50565b6000813590506126518161262b565b92915050565b6000806040838503121561266e5761266d6122d6565b5b600061267c8582860161252c565b925050602061268d85828601612642565b9150509250929050565b600080fd5b600080fd5b7f4e487b7100000000000000000000000000000000000000000000000000000000600052604160045260246000fd5b6126d9826123ea565b810181811067ffffffffffffffff821117156126f8576126f76126a1565b5b80604052505050565b600061270b6122cc565b905061271782826126d0565b919050565b600067ffffffffffffffff821115612737576127366126a1565b5b612740826123ea565b9050602081019050919050565b82818337600083830152505050565b600061276f61276a8461271c565b612701565b90508281526020810184848401111561278b5761278a61269c565b5b61279684828561274d565b509392505050565b600082601f8301126127b3576127b2612697565b5b81356127c384826020860161275c565b91505092915050565b600080600080608085870312156127e6576127e56122d6565b5b60006127f48782880161252c565b94505060206128058782880161252c565b935050604061281687828801612477565b925050606085013567ffffffffffffffff811115612837576128366122db565b5b6128438782880161279e565b91505092959194509250565b600060ff82169050919050565b6128658161284f565b82525050565b600060e082019050612880600083018a61285c565b61288d602083018961285c565b61289a604083018861285c565b6128a7606083018761285c565b6128b4608083018661285c565b6128c160a083018561285c565b6128ce60c083018461285c565b98975050505050505050565b600080604083850312156128f1576128f06122d6565b5b60006128ff8582860161252c565b92505060206129108582860161252c565b9150509250929050565b7f4e487b7100000000000000000000000000000000000000000000000000000000600052602260045260246000fd5b6000600282049050600182168061296157607f821691505b602082108114156129755761297461291a565b5b50919050565b7f4552433732313a20617070726f76656420717565727920666f72206e6f6e657860008201527f697374656e7420746f6b656e0000000000000000000000000000000000000000602082015250565b60006129d7602c836123a6565b91506129e28261297b565b604082019050919050565b60006020820190508181036000830152612a06816129ca565b9050919050565b7f4552433732313a20617070726f76616c20746f2063757272656e74206f776e6560008201527f7200000000000000000000000000000000000000000000000000000000000000602082015250565b6000612a696021836123a6565b9150612a7482612a0d565b604082019050919050565b60006020820190508181036000830152612a9881612a5c565b9050919050565b7f4552433732313a20617070726f76652063616c6c6572206973206e6f74206f7760008201527f6e6572206e6f7220617070726f76656420666f7220616c6c0000000000000000602082015250565b6000612afb6038836123a6565b9150612b0682612a9f565b604082019050919050565b60006020820190508181036000830152612b2a81612aee565b9050919050565b7f4552433732313a207472616e736665722063616c6c6572206973206e6f74206f60008201527f776e6572206e6f7220617070726f766564000000000000000000000000000000602082015250565b6000612b8d6031836123a6565b9150612b9882612b31565b604082019050919050565b60006020820190508181036000830152612bbc81612b80565b9050919050565b7f4f776e61626c653a2063616c6c6572206973206e6f7420746865206f776e6572600082015250565b6000612bf96020836123a6565b9150612c0482612bc3565b602082019050919050565b60006020820190508181036000830152612c2881612bec565b9050919050565b7f4552433732313a206f776e657220717565727920666f72206e6f6e657869737460008201527f656e7420746f6b656e0000000000000000000000000000000000000000000000602082015250565b6000612c8b6029836123a6565b9150612c9682612c2f565b604082019050919050565b60006020820190508181036000830152612cba81612c7e565b9050919050565b7f4552433732313a2062616c616e636520717565727920666f7220746865207a6560008201527f726f206164647265737300000000000000000000000000000000000000000000602082015250565b6000612d1d602a836123a6565b9150612d2882612cc1565b604082019050919050565b60006020820190508181036000830152612d4c81612d10565b9050919050565b7f496e697469616c697a61626c653a20636f6e747261637420697320616c72656160008201527f647920696e697469616c697a6564000000000000000000000000000000000000602082015250565b6000612daf602e836123a6565b9150612dba82612d53565b604082019050919050565b60006020820190508181036000830152612dde81612da2565b9050919050565b7f4552433732314d657461646174613a2055524920717565727920666f72206e6f60008201527f6e6578697374656e7420746f6b656e0000000000000000000000000000000000602082015250565b6000612e41602f836123a6565b9150612e4c82612de5565b604082019050919050565b60006020820190508181036000830152612e7081612e34565b9050919050565b600081905092915050565b6000612e8d8261239b565b612e978185612e77565b9350612ea78185602086016123b7565b80840191505092915050565b6000612ebf8285612e82565b9150612ecb8284612e82565b91508190509392505050565b7f4f776e61626c653a206e6577206f776e657220697320746865207a65726f206160008201527f6464726573730000000000000000000000000000000000000000000000000000602082015250565b6000612f336026836123a6565b9150612f3e82612ed7565b604082019050919050565b60006020820190508181036000830152612f6281612f26565b9050919050565b7f4552433732313a206f70657261746f7220717565727920666f72206e6f6e657860008201527f697374656e7420746f6b656e0000000000000000000000000000000000000000602082015250565b6000612fc5602c836123a6565b9150612fd082612f69565b604082019050919050565b60006020820190508181036000830152612ff481612fb8565b9050919050565b7f4552433732313a207472616e73666572206f6620746f6b656e2074686174206960008201527f73206e6f74206f776e0000000000000000000000000000000000000000000000602082015250565b60006130576029836123a6565b915061306282612ffb565b604082019050919050565b600060208201905081810360008301526130868161304a565b9050919050565b7f4552433732313a207472616e7366657220746f20746865207a65726f2061646460008201527f7265737300000000000000000000000000000000000000000000000000000000602082015250565b60006130e96024836123a6565b91506130f48261308d565b604082019050919050565b60006020820190508181036000830152613118816130dc565b9050919050565b7f4e487b7100000000000000000000000000000000000000000000000000000000600052601160045260246000fd5b600061315982612456565b915061316483612456565b9250828210156131775761317661311f565b5b828203905092915050565b600061318d82612456565b915061319883612456565b9250827fffffffffffffffffffffffffffffffffffffffffffffffffffffffffffffffff038211156131cd576131cc61311f565b5b828201905092915050565b7f5061757361626c653a206e6f7420706175736564000000000000000000000000600082015250565b600061320e6014836123a6565b9150613219826131d8565b602082019050919050565b6000602082019050818103600083015261323d81613201565b9050919050565b7f496e697469616c697a61626c653a20636f6e7472616374206973206e6f74206960008201527f6e697469616c697a696e67000000000000000000000000000000000000000000602082015250565b60006132a0602b836123a6565b91506132ab82613244565b604082019050919050565b600060208201905081810360008301526132cf81613293565b9050919050565b7f5061757361626c653a2070617573656400000000000000000000000000000000600082015250565b600061330c6010836123a6565b9150613317826132d6565b602082019050919050565b6000602082019050818103600083015261333b816132ff565b9050919050565b7f4552433732313a20617070726f766520746f2063616c6c657200000000000000600082015250565b60006133786019836123a6565b915061338382613342565b602082019050919050565b600060208201905081810360008301526133a78161336b565b9050919050565b7f4552433732313a207472616e7366657220746f206e6f6e20455243373231526560008201527f63656976657220696d706c656d656e7465720000000000000000000000000000602082015250565b600061340a6032836123a6565b9150613415826133ae565b604082019050919050565b60006020820190508181036000830152613439816133fd565b9050919050565b600061344b82612456565b91507fffffffffffffffffffffffffffffffffffffffffffffffffffffffffffffffff82141561347e5761347d61311f565b5b600182019050919050565b7f4e487b7100000000000000000000000000000000000000000000000000000000600052601260045260246000fd5b60006134c382612456565b91506134ce83612456565b9250826134de576134dd613489565b5b828204905092915050565b60006134f482612456565b91506134ff83612456565b92508261350f5761350e613489565b5b828206905092915050565b7f4e487b7100000000000000000000000000000000000000000000000000000000600052603260045260246000fd5b600081519050919050565b600082825260208201905092915050565b600061357082613549565b61357a8185613554565b935061358a8185602086016123b7565b613593816123ea565b840191505092915050565b60006080820190506135b360008301876124eb565b6135c060208301866124eb565b6135cd6040830185612601565b81810360608301526135df8184613565565b905095945050505050565b6000815190506135f98161230c565b92915050565b600060208284031215613615576136146122d6565b5b6000613623848285016135ea565b91505092915050565b7f4552433732313a206d696e7420746f20746865207a65726f2061646472657373600082015250565b60006136626020836123a6565b915061366d8261362c565b602082019050919050565b6000602082019050818103600083015261369181613655565b9050919050565b7f4552433732313a20746f6b656e20616c7265616479206d696e74656400000000600082015250565b60006136ce601c836123a6565b91506136d982613698565b602082019050919050565b600060208201905081810360008301526136fd816136c1565b905091905056fea264697066735822122086b6abd6fae61f631673bf052008a1a4077d8399ed6976baa290e62d977df7b264736f6c634300080a0033",
  "immutableReferences": {},
  "source": "// SPDX-License-Identifier: MIT\npragma solidity ^0.8.2;\n\nimport \"@openzeppelin/contracts-upgradeable/token/ERC721/ERC721Upgradeable.sol\";\nimport \"@openzeppelin/contracts-upgradeable/security/PausableUpgradeable.sol\";\nimport \"@openzeppelin/contracts-upgradeable/access/OwnableUpgradeable.sol\";\nimport \"@openzeppelin/contracts-upgradeable/proxy/utils/Initializable.sol\";\nimport \"./IArtist.sol\";\n\ncontract Artist is IArtist, Initializable, ERC721Upgradeable, PausableUpgradeable, OwnableUpgradeable {\n    \n    //mapping from tokenId to struct containing traits\n    mapping (uint256 => Person) public tokenTraits;\n\n    /// @custom:oz-upgrades-unsafe-allow constructor\n    constructor() initializer {}\n\n    function initialize() initializer public {\n        __ERC721_init(\"Artist\", \"CBA\");\n        __Pausable_init();\n        __Ownable_init();\n    }\n\n    function pause() public onlyOwner {\n        _pause();\n    }\n\n    function unpause() public onlyOwner {\n        _unpause();\n    }\n\n    function safeMint(address to, uint256 tokenId) public onlyOwner {\n        _safeMint(to, tokenId);\n    }\n\n    function _beforeTokenTransfer(address from, address to, uint256 tokenId)\n        internal\n        whenNotPaused\n        override\n    {\n        super._beforeTokenTransfer(from, to, tokenId);\n    }\n}",
  "sourcePath": "/Users/warrenschwartz/Projects/ColdBehaviour/contracts/contracts/Artist.sol",
  "compiler": {
    "name": "solc",
    "version": "0.8.10+commit.fc410830.Emscripten.clang"
  },
  "schemaVersion": "3.4.3",
  "updatedAt": "2022-01-18T13:32:50.817Z",
  "networkType": "ethereum",
  "devdoc": {
    "kind": "dev",
    "methods": {
      "approve(address,uint256)": {
        "details": "See {IERC721-approve}."
      },
      "balanceOf(address)": {
        "details": "See {IERC721-balanceOf}."
      },
      "constructor": {
        "custom:oz-upgrades-unsafe-allow": "constructor"
      },
      "getApproved(uint256)": {
        "details": "See {IERC721-getApproved}."
      },
      "isApprovedForAll(address,address)": {
        "details": "See {IERC721-isApprovedForAll}."
      },
      "name()": {
        "details": "See {IERC721Metadata-name}."
      },
      "owner()": {
        "details": "Returns the address of the current owner."
      },
      "ownerOf(uint256)": {
        "details": "See {IERC721-ownerOf}."
      },
      "paused()": {
        "details": "Returns true if the contract is paused, and false otherwise."
      },
      "renounceOwnership()": {
        "details": "Leaves the contract without owner. It will not be possible to call `onlyOwner` functions anymore. Can only be called by the current owner. NOTE: Renouncing ownership will leave the contract without an owner, thereby removing any functionality that is only available to the owner."
      },
      "safeTransferFrom(address,address,uint256)": {
        "details": "See {IERC721-safeTransferFrom}."
      },
      "safeTransferFrom(address,address,uint256,bytes)": {
        "details": "See {IERC721-safeTransferFrom}."
      },
      "setApprovalForAll(address,bool)": {
        "details": "See {IERC721-setApprovalForAll}."
      },
      "supportsInterface(bytes4)": {
        "details": "See {IERC165-supportsInterface}."
      },
      "symbol()": {
        "details": "See {IERC721Metadata-symbol}."
      },
      "tokenURI(uint256)": {
        "details": "See {IERC721Metadata-tokenURI}."
      },
      "transferFrom(address,address,uint256)": {
        "details": "See {IERC721-transferFrom}."
      },
      "transferOwnership(address)": {
        "details": "Transfers ownership of the contract to a new account (`newOwner`). Can only be called by the current owner."
      }
    },
    "version": 1
  },
  "userdoc": {
    "kind": "user",
    "methods": {},
    "version": 1
  }
}