{
  "contractName": "Artist",
  "abi": [
    {
      "inputs": [],
      "stateMutability": "nonpayable",
      "type": "constructor"
    },
    {
      "anonymous": false,
      "inputs": [
        {
          "indexed": true,
          "internalType": "address",
          "name": "owner",
          "type": "address"
        },
        {
          "indexed": true,
          "internalType": "address",
          "name": "approved",
          "type": "address"
        },
        {
          "indexed": true,
          "internalType": "uint256",
          "name": "tokenId",
          "type": "uint256"
        }
      ],
      "name": "Approval",
      "type": "event"
    },
    {
      "anonymous": false,
      "inputs": [
        {
          "indexed": true,
          "internalType": "address",
          "name": "owner",
          "type": "address"
        },
        {
          "indexed": true,
          "internalType": "address",
          "name": "operator",
          "type": "address"
        },
        {
          "indexed": false,
          "internalType": "bool",
          "name": "approved",
          "type": "bool"
        }
      ],
      "name": "ApprovalForAll",
      "type": "event"
    },
    {
      "anonymous": false,
      "inputs": [
        {
          "indexed": false,
          "internalType": "address",
          "name": "account",
          "type": "address"
        }
      ],
      "name": "Paused",
      "type": "event"
    },
    {
      "anonymous": false,
      "inputs": [
        {
          "indexed": true,
          "internalType": "bytes32",
          "name": "role",
          "type": "bytes32"
        },
        {
          "indexed": true,
          "internalType": "bytes32",
          "name": "previousAdminRole",
          "type": "bytes32"
        },
        {
          "indexed": true,
          "internalType": "bytes32",
          "name": "newAdminRole",
          "type": "bytes32"
        }
      ],
      "name": "RoleAdminChanged",
      "type": "event"
    },
    {
      "anonymous": false,
      "inputs": [
        {
          "indexed": true,
          "internalType": "bytes32",
          "name": "role",
          "type": "bytes32"
        },
        {
          "indexed": true,
          "internalType": "address",
          "name": "account",
          "type": "address"
        },
        {
          "indexed": true,
          "internalType": "address",
          "name": "sender",
          "type": "address"
        }
      ],
      "name": "RoleGranted",
      "type": "event"
    },
    {
      "anonymous": false,
      "inputs": [
        {
          "indexed": true,
          "internalType": "bytes32",
          "name": "role",
          "type": "bytes32"
        },
        {
          "indexed": true,
          "internalType": "address",
          "name": "account",
          "type": "address"
        },
        {
          "indexed": true,
          "internalType": "address",
          "name": "sender",
          "type": "address"
        }
      ],
      "name": "RoleRevoked",
      "type": "event"
    },
    {
      "anonymous": false,
      "inputs": [
        {
          "indexed": true,
          "internalType": "address",
          "name": "from",
          "type": "address"
        },
        {
          "indexed": true,
          "internalType": "address",
          "name": "to",
          "type": "address"
        },
        {
          "indexed": true,
          "internalType": "uint256",
          "name": "tokenId",
          "type": "uint256"
        }
      ],
      "name": "Transfer",
      "type": "event"
    },
    {
      "anonymous": false,
      "inputs": [
        {
          "indexed": false,
          "internalType": "address",
          "name": "account",
          "type": "address"
        }
      ],
      "name": "Unpaused",
      "type": "event"
    },
    {
      "inputs": [],
      "name": "DEFAULT_ADMIN_ROLE",
      "outputs": [
        {
          "internalType": "bytes32",
          "name": "",
          "type": "bytes32"
        }
      ],
      "stateMutability": "view",
      "type": "function"
    },
    {
      "inputs": [],
      "name": "MINTER_ROLE",
      "outputs": [
        {
          "internalType": "bytes32",
          "name": "",
          "type": "bytes32"
        }
      ],
      "stateMutability": "view",
      "type": "function"
    },
    {
      "inputs": [],
      "name": "PAUSER_ROLE",
      "outputs": [
        {
          "internalType": "bytes32",
          "name": "",
          "type": "bytes32"
        }
      ],
      "stateMutability": "view",
      "type": "function"
    },
    {
      "inputs": [
        {
          "internalType": "address",
          "name": "to",
          "type": "address"
        },
        {
          "internalType": "uint256",
          "name": "tokenId",
          "type": "uint256"
        }
      ],
      "name": "approve",
      "outputs": [],
      "stateMutability": "nonpayable",
      "type": "function"
    },
    {
      "inputs": [
        {
          "internalType": "address",
          "name": "owner",
          "type": "address"
        }
      ],
      "name": "balanceOf",
      "outputs": [
        {
          "internalType": "uint256",
          "name": "",
          "type": "uint256"
        }
      ],
      "stateMutability": "view",
      "type": "function"
    },
    {
      "inputs": [
        {
          "internalType": "uint256",
          "name": "tokenId",
          "type": "uint256"
        }
      ],
      "name": "getApproved",
      "outputs": [
        {
          "internalType": "address",
          "name": "",
          "type": "address"
        }
      ],
      "stateMutability": "view",
      "type": "function"
    },
    {
      "inputs": [
        {
          "internalType": "bytes32",
          "name": "role",
          "type": "bytes32"
        }
      ],
      "name": "getRoleAdmin",
      "outputs": [
        {
          "internalType": "bytes32",
          "name": "",
          "type": "bytes32"
        }
      ],
      "stateMutability": "view",
      "type": "function"
    },
    {
      "inputs": [
        {
          "internalType": "bytes32",
          "name": "role",
          "type": "bytes32"
        },
        {
          "internalType": "address",
          "name": "account",
          "type": "address"
        }
      ],
      "name": "grantRole",
      "outputs": [],
      "stateMutability": "nonpayable",
      "type": "function"
    },
    {
      "inputs": [
        {
          "internalType": "bytes32",
          "name": "role",
          "type": "bytes32"
        },
        {
          "internalType": "address",
          "name": "account",
          "type": "address"
        }
      ],
      "name": "hasRole",
      "outputs": [
        {
          "internalType": "bool",
          "name": "",
          "type": "bool"
        }
      ],
      "stateMutability": "view",
      "type": "function"
    },
    {
      "inputs": [
        {
          "internalType": "address",
          "name": "owner",
          "type": "address"
        },
        {
          "internalType": "address",
          "name": "operator",
          "type": "address"
        }
      ],
      "name": "isApprovedForAll",
      "outputs": [
        {
          "internalType": "bool",
          "name": "",
          "type": "bool"
        }
      ],
      "stateMutability": "view",
      "type": "function"
    },
    {
      "inputs": [],
      "name": "mintPrice",
      "outputs": [
        {
          "internalType": "uint256",
          "name": "",
          "type": "uint256"
        }
      ],
      "stateMutability": "view",
      "type": "function"
    },
    {
      "inputs": [
        {
          "internalType": "address",
          "name": "",
          "type": "address"
        }
      ],
      "name": "minters",
      "outputs": [
        {
          "internalType": "bool",
          "name": "",
          "type": "bool"
        }
      ],
      "stateMutability": "view",
      "type": "function"
    },
    {
      "inputs": [],
      "name": "name",
      "outputs": [
        {
          "internalType": "string",
          "name": "",
          "type": "string"
        }
      ],
      "stateMutability": "view",
      "type": "function"
    },
    {
      "inputs": [
        {
          "internalType": "uint256",
          "name": "tokenId",
          "type": "uint256"
        }
      ],
      "name": "ownerOf",
      "outputs": [
        {
          "internalType": "address",
          "name": "",
          "type": "address"
        }
      ],
      "stateMutability": "view",
      "type": "function"
    },
    {
      "inputs": [],
      "name": "paused",
      "outputs": [
        {
          "internalType": "bool",
          "name": "",
          "type": "bool"
        }
      ],
      "stateMutability": "view",
      "type": "function"
    },
    {
      "inputs": [
        {
          "internalType": "bytes32",
          "name": "role",
          "type": "bytes32"
        },
        {
          "internalType": "address",
          "name": "account",
          "type": "address"
        }
      ],
      "name": "renounceRole",
      "outputs": [],
      "stateMutability": "nonpayable",
      "type": "function"
    },
    {
      "inputs": [
        {
          "internalType": "bytes32",
          "name": "role",
          "type": "bytes32"
        },
        {
          "internalType": "address",
          "name": "account",
          "type": "address"
        }
      ],
      "name": "revokeRole",
      "outputs": [],
      "stateMutability": "nonpayable",
      "type": "function"
    },
    {
      "inputs": [
        {
          "internalType": "address",
          "name": "from",
          "type": "address"
        },
        {
          "internalType": "address",
          "name": "to",
          "type": "address"
        },
        {
          "internalType": "uint256",
          "name": "tokenId",
          "type": "uint256"
        }
      ],
      "name": "safeTransferFrom",
      "outputs": [],
      "stateMutability": "nonpayable",
      "type": "function"
    },
    {
      "inputs": [
        {
          "internalType": "address",
          "name": "from",
          "type": "address"
        },
        {
          "internalType": "address",
          "name": "to",
          "type": "address"
        },
        {
          "internalType": "uint256",
          "name": "tokenId",
          "type": "uint256"
        },
        {
          "internalType": "bytes",
          "name": "_data",
          "type": "bytes"
        }
      ],
      "name": "safeTransferFrom",
      "outputs": [],
      "stateMutability": "nonpayable",
      "type": "function"
    },
    {
      "inputs": [
        {
          "internalType": "address",
          "name": "operator",
          "type": "address"
        },
        {
          "internalType": "bool",
          "name": "approved",
          "type": "bool"
        }
      ],
      "name": "setApprovalForAll",
      "outputs": [],
      "stateMutability": "nonpayable",
      "type": "function"
    },
    {
      "inputs": [],
      "name": "symbol",
      "outputs": [
        {
          "internalType": "string",
          "name": "",
          "type": "string"
        }
      ],
      "stateMutability": "view",
      "type": "function"
    },
    {
      "inputs": [
        {
          "internalType": "uint256",
          "name": "",
          "type": "uint256"
        }
      ],
      "name": "tokenTraits",
      "outputs": [
        {
          "internalType": "uint8",
          "name": "background",
          "type": "uint8"
        },
        {
          "internalType": "uint8",
          "name": "skin",
          "type": "uint8"
        },
        {
          "internalType": "uint8",
          "name": "neck",
          "type": "uint8"
        },
        {
          "internalType": "uint8",
          "name": "head",
          "type": "uint8"
        },
        {
          "internalType": "uint8",
          "name": "mouth",
          "type": "uint8"
        },
        {
          "internalType": "uint8",
          "name": "beard",
          "type": "uint8"
        },
        {
          "internalType": "uint8",
          "name": "eyes",
          "type": "uint8"
        },
        {
          "internalType": "uint8",
          "name": "clothes",
          "type": "uint8"
        },
        {
          "internalType": "uint8",
          "name": "earrings",
          "type": "uint8"
        },
        {
          "internalType": "uint8",
          "name": "glasses",
          "type": "uint8"
        }
      ],
      "stateMutability": "view",
      "type": "function"
    },
    {
      "inputs": [
        {
          "internalType": "uint256",
          "name": "tokenId",
          "type": "uint256"
        }
      ],
      "name": "tokenURI",
      "outputs": [
        {
          "internalType": "string",
          "name": "",
          "type": "string"
        }
      ],
      "stateMutability": "view",
      "type": "function"
    },
    {
      "inputs": [
        {
          "internalType": "address",
          "name": "from",
          "type": "address"
        },
        {
          "internalType": "address",
          "name": "to",
          "type": "address"
        },
        {
          "internalType": "uint256",
          "name": "tokenId",
          "type": "uint256"
        }
      ],
      "name": "transferFrom",
      "outputs": [],
      "stateMutability": "nonpayable",
      "type": "function"
    },
    {
      "inputs": [
        {
          "internalType": "address[]",
          "name": "_minters",
          "type": "address[]"
        }
      ],
      "name": "addMinter",
      "outputs": [],
      "stateMutability": "nonpayable",
      "type": "function"
    },
    {
      "inputs": [
        {
          "internalType": "address[]",
          "name": "_minters",
          "type": "address[]"
        }
      ],
      "name": "removeMinter",
      "outputs": [],
      "stateMutability": "nonpayable",
      "type": "function"
    },
    {
      "inputs": [
        {
          "internalType": "uint256",
          "name": "_mintPrice",
          "type": "uint256"
        }
      ],
      "name": "setMintPrice",
      "outputs": [],
      "stateMutability": "nonpayable",
      "type": "function"
    },
    {
      "inputs": [],
      "name": "pause",
      "outputs": [],
      "stateMutability": "nonpayable",
      "type": "function"
    },
    {
      "inputs": [],
      "name": "unpause",
      "outputs": [],
      "stateMutability": "nonpayable",
      "type": "function"
    },
    {
      "inputs": [
        {
          "internalType": "address",
          "name": "to",
          "type": "address"
        },
        {
          "internalType": "uint256",
          "name": "tokenId",
          "type": "uint256"
        }
      ],
      "name": "safeMint",
      "outputs": [],
      "stateMutability": "nonpayable",
      "type": "function"
    },
    {
      "inputs": [
        {
          "internalType": "uint256",
          "name": "tokenId",
          "type": "uint256"
        }
      ],
      "name": "getTokenTraits",
      "outputs": [
        {
          "components": [
            {
              "internalType": "uint8",
              "name": "background",
              "type": "uint8"
            },
            {
              "internalType": "uint8",
              "name": "skin",
              "type": "uint8"
            },
            {
              "internalType": "uint8",
              "name": "neck",
              "type": "uint8"
            },
            {
              "internalType": "uint8",
              "name": "head",
              "type": "uint8"
            },
            {
              "internalType": "uint8",
              "name": "mouth",
              "type": "uint8"
            },
            {
              "internalType": "uint8",
              "name": "beard",
              "type": "uint8"
            },
            {
              "internalType": "uint8",
              "name": "eyes",
              "type": "uint8"
            },
            {
              "internalType": "uint8",
              "name": "clothes",
              "type": "uint8"
            },
            {
              "internalType": "uint8",
              "name": "earrings",
              "type": "uint8"
            },
            {
              "internalType": "uint8",
              "name": "glasses",
              "type": "uint8"
            }
          ],
          "internalType": "struct IArtist.Person",
          "name": "",
          "type": "tuple"
        }
      ],
      "stateMutability": "view",
      "type": "function"
    },
    {
      "inputs": [
        {
          "internalType": "bytes4",
          "name": "interfaceId",
          "type": "bytes4"
        }
      ],
      "name": "supportsInterface",
      "outputs": [
        {
          "internalType": "bool",
          "name": "",
          "type": "bool"
        }
      ],
      "stateMutability": "view",
      "type": "function"
    }
  ],
  "bytecode": "0x60806040523480156200001157600080fd5b506040518060400160405280600681526020017f41727469737400000000000000000000000000000000000000000000000000008152506040518060400160405280600381526020017f4342410000000000000000000000000000000000000000000000000000000000815250816000908051906020019062000096929190620002c0565b508060019080519060200190620000af929190620002c0565b5050506000600660006101000a81548160ff021916908315150217905550620000e26000801b336200015b60201b60201c565b620001147f65d7a28e3265b37a6474929f336521b332c1681b933f6cb9f3376673440d862a336200015b60201b60201c565b620001467f9f2df0fed2c77648de5860a4cc508cd0818c85b8b8a1ab4ceeef8d981c8956a6336200015b60201b60201c565b670429d069189e0000600881905550620003d5565b6200016d82826200024d60201b60201c565b620002495760016007600084815260200190815260200160002060000160008373ffffffffffffffffffffffffffffffffffffffff1673ffffffffffffffffffffffffffffffffffffffff16815260200190815260200160002060006101000a81548160ff021916908315150217905550620001ee620002b860201b60201c565b73ffffffffffffffffffffffffffffffffffffffff168173ffffffffffffffffffffffffffffffffffffffff16837f2f8788117e7eff1d82e926ec794901d17c78024a50270940304540a733656f0d60405160405180910390a45b5050565b60006007600084815260200190815260200160002060000160008373ffffffffffffffffffffffffffffffffffffffff1673ffffffffffffffffffffffffffffffffffffffff16815260200190815260200160002060009054906101000a900460ff16905092915050565b600033905090565b828054620002ce906200039f565b90600052602060002090601f016020900481019282620002f257600085556200033e565b82601f106200030d57805160ff19168380011785556200033e565b828001600101855582156200033e579182015b828111156200033d57825182559160200191906001019062000320565b5b5090506200034d919062000351565b5090565b5b808211156200036c57600081600090555060010162000352565b5090565b7f4e487b7100000000000000000000000000000000000000000000000000000000600052602260045260246000fd5b60006002820490506001821680620003b857607f821691505b60208210811415620003cf57620003ce62000370565b5b50919050565b613ed280620003e56000396000f3fe608060405234801561001057600080fd5b50600436106101f05760003560e01c806394e568471161010f578063d5391393116100a2578063e985e9c511610071578063e985e9c5146105ac578063f18e33e1146105dc578063f46eccc4146105f8578063f4a0a52814610628576101f0565b8063d53913931461051b578063d547741f14610539578063e05c57bf14610555578063e63ab1e91461058e576101f0565b8063a22cb465116100de578063a22cb46514610497578063a81b42e8146104b3578063b88d4fde146104cf578063c87b56dd146104eb576101f0565b806394e568471461040f57806395d89b411461043f578063a14481941461045d578063a217fddf14610479576101f0565b80633f4ba83a116101875780636817c76c116101565780636817c76c1461038757806370a08231146103a55780638456cb59146103d557806391d14854146103df576101f0565b80633f4ba83a1461031357806342842e0e1461031d5780635c975abb146103395780636352211e14610357576101f0565b806323b872dd116101c357806323b872dd1461028f578063248a9ca3146102ab5780632f2ff15d146102db57806336568abe146102f7576101f0565b806301ffc9a7146101f557806306fdde0314610225578063081812fc14610243578063095ea7b314610273575b600080fd5b61020f600480360381019061020a919061279c565b610644565b60405161021c91906127e4565b60405180910390f35b61022d610656565b60405161023a9190612898565b60405180910390f35b61025d600480360381019061025891906128f0565b6106e8565b60405161026a919061295e565b60405180910390f35b61028d600480360381019061028891906129a5565b61076d565b005b6102a960048036038101906102a491906129e5565b610885565b005b6102c560048036038101906102c09190612a6e565b6108e5565b6040516102d29190612aaa565b60405180910390f35b6102f560048036038101906102f09190612ac5565b610905565b005b610311600480360381019061030c9190612ac5565b61092e565b005b61031b6109b1565b005b610337600480360381019061033291906129e5565b6109ee565b005b610341610a0e565b60405161034e91906127e4565b60405180910390f35b610371600480360381019061036c91906128f0565b610a25565b60405161037e919061295e565b60405180910390f35b61038f610ad7565b60405161039c9190612b14565b60405180910390f35b6103bf60048036038101906103ba9190612b2f565b610add565b6040516103cc9190612b14565b60405180910390f35b6103dd610b95565b005b6103f960048036038101906103f49190612ac5565b610bd2565b60405161040691906127e4565b60405180910390f35b610429600480360381019061042491906128f0565b610c3d565b6040516104369190612c44565b60405180910390f35b610447610d8d565b6040516104549190612898565b60405180910390f35b610477600480360381019061047291906129a5565b610e1f565b005b610481610e60565b60405161048e9190612aaa565b60405180910390f35b6104b160048036038101906104ac9190612c8c565b610e67565b005b6104cd60048036038101906104c89190612e14565b610e7d565b005b6104e960048036038101906104e49190612f12565b610f45565b005b610505600480360381019061050091906128f0565b610fa7565b6040516105129190612898565b60405180910390f35b61052361104e565b6040516105309190612aaa565b60405180910390f35b610553600480360381019061054e9190612ac5565b611072565b005b61056f600480360381019061056a91906128f0565b61109b565b6040516105859a99989796959493929190612fa4565b60405180910390f35b610596611171565b6040516105a39190612aaa565b60405180910390f35b6105c660048036038101906105c19190613040565b611195565b6040516105d391906127e4565b60405180910390f35b6105f660048036038101906105f19190612e14565b611229565b005b610612600480360381019061060d9190612b2f565b6112f1565b60405161061f91906127e4565b60405180910390f35b610642600480360381019061063d91906128f0565b611311565b005b600061064f82611331565b9050919050565b606060008054610665906130af565b80601f0160208091040260200160405190810160405280929190818152602001828054610691906130af565b80156106de5780601f106106b3576101008083540402835291602001916106de565b820191906000526020600020905b8154815290600101906020018083116106c157829003601f168201915b5050505050905090565b60006106f3826113ab565b610732576040517f08c379a000000000000000000000000000000000000000000000000000000000815260040161072990613153565b60405180910390fd5b6004600083815260200190815260200160002060009054906101000a900473ffffffffffffffffffffffffffffffffffffffff169050919050565b600061077882610a25565b90508073ffffffffffffffffffffffffffffffffffffffff168373ffffffffffffffffffffffffffffffffffffffff1614156107e9576040517f08c379a00000000000000000000000000000000000000000000000000000000081526004016107e0906131e5565b60405180910390fd5b8073ffffffffffffffffffffffffffffffffffffffff16610808611417565b73ffffffffffffffffffffffffffffffffffffffff161480610837575061083681610831611417565b611195565b5b610876576040517f08c379a000000000000000000000000000000000000000000000000000000000815260040161086d90613277565b60405180910390fd5b610880838361141f565b505050565b610896610890611417565b826114d8565b6108d5576040517f08c379a00000000000000000000000000000000000000000000000000000000081526004016108cc90613309565b60405180910390fd5b6108e08383836115b6565b505050565b600060076000838152602001908152602001600020600101549050919050565b61090e826108e5565b61091f8161091a611417565b611812565b61092983836118af565b505050565b610936611417565b73ffffffffffffffffffffffffffffffffffffffff168173ffffffffffffffffffffffffffffffffffffffff16146109a3576040517f08c379a000000000000000000000000000000000000000000000000000000000815260040161099a9061339b565b60405180910390fd5b6109ad8282611990565b5050565b7f65d7a28e3265b37a6474929f336521b332c1681b933f6cb9f3376673440d862a6109e3816109de611417565b611812565b6109eb611a72565b50565b610a0983838360405180602001604052806000815250610f45565b505050565b6000600660009054906101000a900460ff16905090565b6000806002600084815260200190815260200160002060009054906101000a900473ffffffffffffffffffffffffffffffffffffffff169050600073ffffffffffffffffffffffffffffffffffffffff168173ffffffffffffffffffffffffffffffffffffffff161415610ace576040517f08c379a0000000000000000000000000000000000000000000000000000000008152600401610ac59061342d565b60405180910390fd5b80915050919050565b60085481565b60008073ffffffffffffffffffffffffffffffffffffffff168273ffffffffffffffffffffffffffffffffffffffff161415610b4e576040517f08c379a0000000000000000000000000000000000000000000000000000000008152600401610b45906134bf565b60405180910390fd5b600360008373ffffffffffffffffffffffffffffffffffffffff1673ffffffffffffffffffffffffffffffffffffffff168152602001908152602001600020549050919050565b7f65d7a28e3265b37a6474929f336521b332c1681b933f6cb9f3376673440d862a610bc781610bc2611417565b611812565b610bcf611b14565b50565b60006007600084815260200190815260200160002060000160008373ffffffffffffffffffffffffffffffffffffffff1673ffffffffffffffffffffffffffffffffffffffff16815260200190815260200160002060009054906101000a900460ff16905092915050565b610c456126bf565b60096000838152602001908152602001600020604051806101400160405290816000820160009054906101000a900460ff1660ff1660ff1681526020016000820160019054906101000a900460ff1660ff1660ff1681526020016000820160029054906101000a900460ff1660ff1660ff1681526020016000820160039054906101000a900460ff1660ff1660ff1681526020016000820160049054906101000a900460ff1660ff1660ff1681526020016000820160059054906101000a900460ff1660ff1660ff1681526020016000820160069054906101000a900460ff1660ff1660ff1681526020016000820160079054906101000a900460ff1660ff1660ff1681526020016000820160089054906101000a900460ff1660ff1660ff1681526020016000820160099054906101000a900460ff1660ff1660ff16815250509050919050565b606060018054610d9c906130af565b80601f0160208091040260200160405190810160405280929190818152602001828054610dc8906130af565b8015610e155780601f10610dea57610100808354040283529160200191610e15565b820191906000526020600020905b815481529060010190602001808311610df857829003601f168201915b5050505050905090565b7f9f2df0fed2c77648de5860a4cc508cd0818c85b8b8a1ab4ceeef8d981c8956a6610e5181610e4c611417565b611812565b610e5b8383611bb7565b505050565b6000801b81565b610e79610e72611417565b8383611bd5565b5050565b7f9f2df0fed2c77648de5860a4cc508cd0818c85b8b8a1ab4ceeef8d981c8956a6610eaf81610eaa611417565b611812565b60005b8251811015610f40576000600a6000858481518110610ed457610ed36134df565b5b602002602001015173ffffffffffffffffffffffffffffffffffffffff1673ffffffffffffffffffffffffffffffffffffffff16815260200190815260200160002060006101000a81548160ff0219169083151502179055508080610f389061353d565b915050610eb2565b505050565b610f56610f50611417565b836114d8565b610f95576040517f08c379a0000000000000000000000000000000000000000000000000000000008152600401610f8c90613309565b60405180910390fd5b610fa184848484611d42565b50505050565b6060610fb2826113ab565b610ff1576040517f08c379a0000000000000000000000000000000000000000000000000000000008152600401610fe8906135f8565b60405180910390fd5b6000610ffb611d9e565b9050600081511161101b5760405180602001604052806000815250611046565b8061102584611db5565b604051602001611036929190613654565b6040516020818303038152906040525b915050919050565b7f9f2df0fed2c77648de5860a4cc508cd0818c85b8b8a1ab4ceeef8d981c8956a681565b61107b826108e5565b61108c81611087611417565b611812565b6110968383611990565b505050565b60096020528060005260406000206000915090508060000160009054906101000a900460ff16908060000160019054906101000a900460ff16908060000160029054906101000a900460ff16908060000160039054906101000a900460ff16908060000160049054906101000a900460ff16908060000160059054906101000a900460ff16908060000160069054906101000a900460ff16908060000160079054906101000a900460ff16908060000160089054906101000a900460ff16908060000160099054906101000a900460ff1690508a565b7f65d7a28e3265b37a6474929f336521b332c1681b933f6cb9f3376673440d862a81565b6000600560008473ffffffffffffffffffffffffffffffffffffffff1673ffffffffffffffffffffffffffffffffffffffff16815260200190815260200160002060008373ffffffffffffffffffffffffffffffffffffffff1673ffffffffffffffffffffffffffffffffffffffff16815260200190815260200160002060009054906101000a900460ff16905092915050565b7f9f2df0fed2c77648de5860a4cc508cd0818c85b8b8a1ab4ceeef8d981c8956a661125b81611256611417565b611812565b60005b82518110156112ec576001600a60008584815181106112805761127f6134df565b5b602002602001015173ffffffffffffffffffffffffffffffffffffffff1673ffffffffffffffffffffffffffffffffffffffff16815260200190815260200160002060006101000a81548160ff02191690831515021790555080806112e49061353d565b91505061125e565b505050565b600a6020528060005260406000206000915054906101000a900460ff1681565b6000801b61132681611321611417565b611812565b816008819055505050565b60007f7965db0b000000000000000000000000000000000000000000000000000000007bffffffffffffffffffffffffffffffffffffffffffffffffffffffff1916827bffffffffffffffffffffffffffffffffffffffffffffffffffffffff191614806113a457506113a382611f16565b5b9050919050565b60008073ffffffffffffffffffffffffffffffffffffffff166002600084815260200190815260200160002060009054906101000a900473ffffffffffffffffffffffffffffffffffffffff1673ffffffffffffffffffffffffffffffffffffffff1614159050919050565b600033905090565b816004600083815260200190815260200160002060006101000a81548173ffffffffffffffffffffffffffffffffffffffff021916908373ffffffffffffffffffffffffffffffffffffffff160217905550808273ffffffffffffffffffffffffffffffffffffffff1661149283610a25565b73ffffffffffffffffffffffffffffffffffffffff167f8c5be1e5ebec7d5bd14f71427d1e84f3dd0314c0f7b2291e5b200ac8c7c3b92560405160405180910390a45050565b60006114e3826113ab565b611522576040517f08c379a0000000000000000000000000000000000000000000000000000000008152600401611519906136ea565b60405180910390fd5b600061152d83610a25565b90508073ffffffffffffffffffffffffffffffffffffffff168473ffffffffffffffffffffffffffffffffffffffff16148061159c57508373ffffffffffffffffffffffffffffffffffffffff16611584846106e8565b73ffffffffffffffffffffffffffffffffffffffff16145b806115ad57506115ac8185611195565b5b91505092915050565b8273ffffffffffffffffffffffffffffffffffffffff166115d682610a25565b73ffffffffffffffffffffffffffffffffffffffff161461162c576040517f08c379a00000000000000000000000000000000000000000000000000000000081526004016116239061377c565b60405180910390fd5b600073ffffffffffffffffffffffffffffffffffffffff168273ffffffffffffffffffffffffffffffffffffffff16141561169c576040517f08c379a00000000000000000000000000000000000000000000000000000000081526004016116939061380e565b60405180910390fd5b6116a7838383611ff8565b6116b260008261141f565b6001600360008573ffffffffffffffffffffffffffffffffffffffff1673ffffffffffffffffffffffffffffffffffffffff1681526020019081526020016000206000828254611702919061382e565b925050819055506001600360008473ffffffffffffffffffffffffffffffffffffffff1673ffffffffffffffffffffffffffffffffffffffff16815260200190815260200160002060008282546117599190613862565b92505081905550816002600083815260200190815260200160002060006101000a81548173ffffffffffffffffffffffffffffffffffffffff021916908373ffffffffffffffffffffffffffffffffffffffff160217905550808273ffffffffffffffffffffffffffffffffffffffff168473ffffffffffffffffffffffffffffffffffffffff167fddf252ad1be2c89b69c2b068fc378daa952ba7f163c4a11628f55a4df523b3ef60405160405180910390a4505050565b61181c8282610bd2565b6118ab576118418173ffffffffffffffffffffffffffffffffffffffff166014612050565b61184f8360001c6020612050565b604051602001611860929190613950565b6040516020818303038152906040526040517f08c379a00000000000000000000000000000000000000000000000000000000081526004016118a29190612898565b60405180910390fd5b5050565b6118b98282610bd2565b61198c5760016007600084815260200190815260200160002060000160008373ffffffffffffffffffffffffffffffffffffffff1673ffffffffffffffffffffffffffffffffffffffff16815260200190815260200160002060006101000a81548160ff021916908315150217905550611931611417565b73ffffffffffffffffffffffffffffffffffffffff168173ffffffffffffffffffffffffffffffffffffffff16837f2f8788117e7eff1d82e926ec794901d17c78024a50270940304540a733656f0d60405160405180910390a45b5050565b61199a8282610bd2565b15611a6e5760006007600084815260200190815260200160002060000160008373ffffffffffffffffffffffffffffffffffffffff1673ffffffffffffffffffffffffffffffffffffffff16815260200190815260200160002060006101000a81548160ff021916908315150217905550611a13611417565b73ffffffffffffffffffffffffffffffffffffffff168173ffffffffffffffffffffffffffffffffffffffff16837ff6391f5c32d9c69d2a47ea670b442974b53935d1edc7fd64eb21e047a839171b60405160405180910390a45b5050565b611a7a610a0e565b611ab9576040517f08c379a0000000000000000000000000000000000000000000000000000000008152600401611ab0906139d6565b60405180910390fd5b6000600660006101000a81548160ff0219169083151502179055507f5db9ee0a495bf2e6ff9c91a7834c1ba4fdd244a5e8aa4e537bd38aeae4b073aa611afd611417565b604051611b0a919061295e565b60405180910390a1565b611b1c610a0e565b15611b5c576040517f08c379a0000000000000000000000000000000000000000000000000000000008152600401611b5390613a42565b60405180910390fd5b6001600660006101000a81548160ff0219169083151502179055507f62e78cea01bee320cd4e420270b5ea74000d11b0c9f74754ebdbfc544b05a258611ba0611417565b604051611bad919061295e565b60405180910390a1565b611bd182826040518060200160405280600081525061228c565b5050565b8173ffffffffffffffffffffffffffffffffffffffff168373ffffffffffffffffffffffffffffffffffffffff161415611c44576040517f08c379a0000000000000000000000000000000000000000000000000000000008152600401611c3b90613aae565b60405180910390fd5b80600560008573ffffffffffffffffffffffffffffffffffffffff1673ffffffffffffffffffffffffffffffffffffffff16815260200190815260200160002060008473ffffffffffffffffffffffffffffffffffffffff1673ffffffffffffffffffffffffffffffffffffffff16815260200190815260200160002060006101000a81548160ff0219169083151502179055508173ffffffffffffffffffffffffffffffffffffffff168373ffffffffffffffffffffffffffffffffffffffff167f17307eab39ab6107e8899845ad3d59bd9653f200f220920489ca2b5937696c3183604051611d3591906127e4565b60405180910390a3505050565b611d4d8484846115b6565b611d59848484846122e7565b611d98576040517f08c379a0000000000000000000000000000000000000000000000000000000008152600401611d8f90613b40565b60405180910390fd5b50505050565b606060405180602001604052806000815250905090565b60606000821415611dfd576040518060400160405280600181526020017f30000000000000000000000000000000000000000000000000000000000000008152509050611f11565b600082905060005b60008214611e2f578080611e189061353d565b915050600a82611e289190613b8f565b9150611e05565b60008167ffffffffffffffff811115611e4b57611e4a612cd1565b5b6040519080825280601f01601f191660200182016040528015611e7d5781602001600182028036833780820191505090505b5090505b60008514611f0a57600182611e96919061382e565b9150600a85611ea59190613bc0565b6030611eb19190613862565b60f81b818381518110611ec757611ec66134df565b5b60200101907effffffffffffffffffffffffffffffffffffffffffffffffffffffffffffff1916908160001a905350600a85611f039190613b8f565b9450611e81565b8093505050505b919050565b60007f80ac58cd000000000000000000000000000000000000000000000000000000007bffffffffffffffffffffffffffffffffffffffffffffffffffffffff1916827bffffffffffffffffffffffffffffffffffffffffffffffffffffffff19161480611fe157507f5b5e139f000000000000000000000000000000000000000000000000000000007bffffffffffffffffffffffffffffffffffffffffffffffffffffffff1916827bffffffffffffffffffffffffffffffffffffffffffffffffffffffff1916145b80611ff15750611ff08261246f565b5b9050919050565b612000610a0e565b15612040576040517f08c379a000000000000000000000000000000000000000000000000000000000815260040161203790613a42565b60405180910390fd5b61204b8383836124d9565b505050565b6060600060028360026120639190613bf1565b61206d9190613862565b67ffffffffffffffff81111561208657612085612cd1565b5b6040519080825280601f01601f1916602001820160405280156120b85781602001600182028036833780820191505090505b5090507f3000000000000000000000000000000000000000000000000000000000000000816000815181106120f0576120ef6134df565b5b60200101907effffffffffffffffffffffffffffffffffffffffffffffffffffffffffffff1916908160001a9053507f780000000000000000000000000000000000000000000000000000000000000081600181518110612154576121536134df565b5b60200101907effffffffffffffffffffffffffffffffffffffffffffffffffffffffffffff1916908160001a905350600060018460026121949190613bf1565b61219e9190613862565b90505b600181111561223e577f3031323334353637383961626364656600000000000000000000000000000000600f8616601081106121e0576121df6134df565b5b1a60f81b8282815181106121f7576121f66134df565b5b60200101907effffffffffffffffffffffffffffffffffffffffffffffffffffffffffffff1916908160001a905350600485901c94508061223790613c4b565b90506121a1565b5060008414612282576040517f08c379a000000000000000000000000000000000000000000000000000000000815260040161227990613cc1565b60405180910390fd5b8091505092915050565b61229683836124de565b6122a360008484846122e7565b6122e2576040517f08c379a00000000000000000000000000000000000000000000000000000000081526004016122d990613b40565b60405180910390fd5b505050565b60006123088473ffffffffffffffffffffffffffffffffffffffff166126ac565b15612462578373ffffffffffffffffffffffffffffffffffffffff1663150b7a02612331611417565b8786866040518563ffffffff1660e01b81526004016123539493929190613d36565b6020604051808303816000875af192505050801561238f57506040513d601f19601f8201168201806040525081019061238c9190613d97565b60015b612412573d80600081146123bf576040519150601f19603f3d011682016040523d82523d6000602084013e6123c4565b606091505b5060008151141561240a576040517f08c379a000000000000000000000000000000000000000000000000000000000815260040161240190613b40565b60405180910390fd5b805181602001fd5b63150b7a0260e01b7bffffffffffffffffffffffffffffffffffffffffffffffffffffffff1916817bffffffffffffffffffffffffffffffffffffffffffffffffffffffff191614915050612467565b600190505b949350505050565b60007f01ffc9a7000000000000000000000000000000000000000000000000000000007bffffffffffffffffffffffffffffffffffffffffffffffffffffffff1916827bffffffffffffffffffffffffffffffffffffffffffffffffffffffff1916149050919050565b505050565b600073ffffffffffffffffffffffffffffffffffffffff168273ffffffffffffffffffffffffffffffffffffffff16141561254e576040517f08c379a000000000000000000000000000000000000000000000000000000000815260040161254590613e10565b60405180910390fd5b612557816113ab565b15612597576040517f08c379a000000000000000000000000000000000000000000000000000000000815260040161258e90613e7c565b60405180910390fd5b6125a360008383611ff8565b6001600360008473ffffffffffffffffffffffffffffffffffffffff1673ffffffffffffffffffffffffffffffffffffffff16815260200190815260200160002060008282546125f39190613862565b92505081905550816002600083815260200190815260200160002060006101000a81548173ffffffffffffffffffffffffffffffffffffffff021916908373ffffffffffffffffffffffffffffffffffffffff160217905550808273ffffffffffffffffffffffffffffffffffffffff16600073ffffffffffffffffffffffffffffffffffffffff167fddf252ad1be2c89b69c2b068fc378daa952ba7f163c4a11628f55a4df523b3ef60405160405180910390a45050565b600080823b905060008111915050919050565b604051806101400160405280600060ff168152602001600060ff168152602001600060ff168152602001600060ff168152602001600060ff168152602001600060ff168152602001600060ff168152602001600060ff168152602001600060ff168152602001600060ff1681525090565b6000604051905090565b600080fd5b600080fd5b60007fffffffff0000000000000000000000000000000000000000000000000000000082169050919050565b61277981612744565b811461278457600080fd5b50565b60008135905061279681612770565b92915050565b6000602082840312156127b2576127b161273a565b5b60006127c084828501612787565b91505092915050565b60008115159050919050565b6127de816127c9565b82525050565b60006020820190506127f960008301846127d5565b92915050565b600081519050919050565b600082825260208201905092915050565b60005b8381101561283957808201518184015260208101905061281e565b83811115612848576000848401525b50505050565b6000601f19601f8301169050919050565b600061286a826127ff565b612874818561280a565b935061288481856020860161281b565b61288d8161284e565b840191505092915050565b600060208201905081810360008301526128b2818461285f565b905092915050565b6000819050919050565b6128cd816128ba565b81146128d857600080fd5b50565b6000813590506128ea816128c4565b92915050565b6000602082840312156129065761290561273a565b5b6000612914848285016128db565b91505092915050565b600073ffffffffffffffffffffffffffffffffffffffff82169050919050565b60006129488261291d565b9050919050565b6129588161293d565b82525050565b6000602082019050612973600083018461294f565b92915050565b6129828161293d565b811461298d57600080fd5b50565b60008135905061299f81612979565b92915050565b600080604083850312156129bc576129bb61273a565b5b60006129ca85828601612990565b92505060206129db858286016128db565b9150509250929050565b6000806000606084860312156129fe576129fd61273a565b5b6000612a0c86828701612990565b9350506020612a1d86828701612990565b9250506040612a2e868287016128db565b9150509250925092565b6000819050919050565b612a4b81612a38565b8114612a5657600080fd5b50565b600081359050612a6881612a42565b92915050565b600060208284031215612a8457612a8361273a565b5b6000612a9284828501612a59565b91505092915050565b612aa481612a38565b82525050565b6000602082019050612abf6000830184612a9b565b92915050565b60008060408385031215612adc57612adb61273a565b5b6000612aea85828601612a59565b9250506020612afb85828601612990565b9150509250929050565b612b0e816128ba565b82525050565b6000602082019050612b296000830184612b05565b92915050565b600060208284031215612b4557612b4461273a565b5b6000612b5384828501612990565b91505092915050565b600060ff82169050919050565b612b7281612b5c565b82525050565b61014082016000820151612b8f6000850182612b69565b506020820151612ba26020850182612b69565b506040820151612bb56040850182612b69565b506060820151612bc86060850182612b69565b506080820151612bdb6080850182612b69565b5060a0820151612bee60a0850182612b69565b5060c0820151612c0160c0850182612b69565b5060e0820151612c1460e0850182612b69565b50610100820151612c29610100850182612b69565b50610120820151612c3e610120850182612b69565b50505050565b600061014082019050612c5a6000830184612b78565b92915050565b612c69816127c9565b8114612c7457600080fd5b50565b600081359050612c8681612c60565b92915050565b60008060408385031215612ca357612ca261273a565b5b6000612cb185828601612990565b9250506020612cc285828601612c77565b9150509250929050565b600080fd5b7f4e487b7100000000000000000000000000000000000000000000000000000000600052604160045260246000fd5b612d098261284e565b810181811067ffffffffffffffff82111715612d2857612d27612cd1565b5b80604052505050565b6000612d3b612730565b9050612d478282612d00565b919050565b600067ffffffffffffffff821115612d6757612d66612cd1565b5b602082029050602081019050919050565b600080fd5b6000612d90612d8b84612d4c565b612d31565b90508083825260208201905060208402830185811115612db357612db2612d78565b5b835b81811015612ddc5780612dc88882612990565b845260208401935050602081019050612db5565b5050509392505050565b600082601f830112612dfb57612dfa612ccc565b5b8135612e0b848260208601612d7d565b91505092915050565b600060208284031215612e2a57612e2961273a565b5b600082013567ffffffffffffffff811115612e4857612e4761273f565b5b612e5484828501612de6565b91505092915050565b600080fd5b600067ffffffffffffffff821115612e7d57612e7c612cd1565b5b612e868261284e565b9050602081019050919050565b82818337600083830152505050565b6000612eb5612eb084612e62565b612d31565b905082815260208101848484011115612ed157612ed0612e5d565b5b612edc848285612e93565b509392505050565b600082601f830112612ef957612ef8612ccc565b5b8135612f09848260208601612ea2565b91505092915050565b60008060008060808587031215612f2c57612f2b61273a565b5b6000612f3a87828801612990565b9450506020612f4b87828801612990565b9350506040612f5c878288016128db565b925050606085013567ffffffffffffffff811115612f7d57612f7c61273f565b5b612f8987828801612ee4565b91505092959194509250565b612f9e81612b5c565b82525050565b600061014082019050612fba600083018d612f95565b612fc7602083018c612f95565b612fd4604083018b612f95565b612fe1606083018a612f95565b612fee6080830189612f95565b612ffb60a0830188612f95565b61300860c0830187612f95565b61301560e0830186612f95565b613023610100830185612f95565b613031610120830184612f95565b9b9a5050505050505050505050565b600080604083850312156130575761305661273a565b5b600061306585828601612990565b925050602061307685828601612990565b9150509250929050565b7f4e487b7100000000000000000000000000000000000000000000000000000000600052602260045260246000fd5b600060028204905060018216806130c757607f821691505b602082108114156130db576130da613080565b5b50919050565b7f4552433732313a20617070726f76656420717565727920666f72206e6f6e657860008201527f697374656e7420746f6b656e0000000000000000000000000000000000000000602082015250565b600061313d602c8361280a565b9150613148826130e1565b604082019050919050565b6000602082019050818103600083015261316c81613130565b9050919050565b7f4552433732313a20617070726f76616c20746f2063757272656e74206f776e6560008201527f7200000000000000000000000000000000000000000000000000000000000000602082015250565b60006131cf60218361280a565b91506131da82613173565b604082019050919050565b600060208201905081810360008301526131fe816131c2565b9050919050565b7f4552433732313a20617070726f76652063616c6c6572206973206e6f74206f7760008201527f6e6572206e6f7220617070726f76656420666f7220616c6c0000000000000000602082015250565b600061326160388361280a565b915061326c82613205565b604082019050919050565b6000602082019050818103600083015261329081613254565b9050919050565b7f4552433732313a207472616e736665722063616c6c6572206973206e6f74206f60008201527f776e6572206e6f7220617070726f766564000000000000000000000000000000602082015250565b60006132f360318361280a565b91506132fe82613297565b604082019050919050565b60006020820190508181036000830152613322816132e6565b9050919050565b7f416363657373436f6e74726f6c3a2063616e206f6e6c792072656e6f756e636560008201527f20726f6c657320666f722073656c660000000000000000000000000000000000602082015250565b6000613385602f8361280a565b915061339082613329565b604082019050919050565b600060208201905081810360008301526133b481613378565b9050919050565b7f4552433732313a206f776e657220717565727920666f72206e6f6e657869737460008201527f656e7420746f6b656e0000000000000000000000000000000000000000000000602082015250565b600061341760298361280a565b9150613422826133bb565b604082019050919050565b600060208201905081810360008301526134468161340a565b9050919050565b7f4552433732313a2062616c616e636520717565727920666f7220746865207a6560008201527f726f206164647265737300000000000000000000000000000000000000000000602082015250565b60006134a9602a8361280a565b91506134b48261344d565b604082019050919050565b600060208201905081810360008301526134d88161349c565b9050919050565b7f4e487b7100000000000000000000000000000000000000000000000000000000600052603260045260246000fd5b7f4e487b7100000000000000000000000000000000000000000000000000000000600052601160045260246000fd5b6000613548826128ba565b91507fffffffffffffffffffffffffffffffffffffffffffffffffffffffffffffffff82141561357b5761357a61350e565b5b600182019050919050565b7f4552433732314d657461646174613a2055524920717565727920666f72206e6f60008201527f6e6578697374656e7420746f6b656e0000000000000000000000000000000000602082015250565b60006135e2602f8361280a565b91506135ed82613586565b604082019050919050565b60006020820190508181036000830152613611816135d5565b9050919050565b600081905092915050565b600061362e826127ff565b6136388185613618565b935061364881856020860161281b565b80840191505092915050565b60006136608285613623565b915061366c8284613623565b91508190509392505050565b7f4552433732313a206f70657261746f7220717565727920666f72206e6f6e657860008201527f697374656e7420746f6b656e0000000000000000000000000000000000000000602082015250565b60006136d4602c8361280a565b91506136df82613678565b604082019050919050565b60006020820190508181036000830152613703816136c7565b9050919050565b7f4552433732313a207472616e73666572206f6620746f6b656e2074686174206960008201527f73206e6f74206f776e0000000000000000000000000000000000000000000000602082015250565b600061376660298361280a565b91506137718261370a565b604082019050919050565b6000602082019050818103600083015261379581613759565b9050919050565b7f4552433732313a207472616e7366657220746f20746865207a65726f2061646460008201527f7265737300000000000000000000000000000000000000000000000000000000602082015250565b60006137f860248361280a565b91506138038261379c565b604082019050919050565b60006020820190508181036000830152613827816137eb565b9050919050565b6000613839826128ba565b9150613844836128ba565b9250828210156138575761385661350e565b5b828203905092915050565b600061386d826128ba565b9150613878836128ba565b9250827fffffffffffffffffffffffffffffffffffffffffffffffffffffffffffffffff038211156138ad576138ac61350e565b5b828201905092915050565b7f416363657373436f6e74726f6c3a206163636f756e7420000000000000000000600082015250565b60006138ee601783613618565b91506138f9826138b8565b601782019050919050565b7f206973206d697373696e6720726f6c6520000000000000000000000000000000600082015250565b600061393a601183613618565b915061394582613904565b601182019050919050565b600061395b826138e1565b91506139678285613623565b91506139728261392d565b915061397e8284613623565b91508190509392505050565b7f5061757361626c653a206e6f7420706175736564000000000000000000000000600082015250565b60006139c060148361280a565b91506139cb8261398a565b602082019050919050565b600060208201905081810360008301526139ef816139b3565b9050919050565b7f5061757361626c653a2070617573656400000000000000000000000000000000600082015250565b6000613a2c60108361280a565b9150613a37826139f6565b602082019050919050565b60006020820190508181036000830152613a5b81613a1f565b9050919050565b7f4552433732313a20617070726f766520746f2063616c6c657200000000000000600082015250565b6000613a9860198361280a565b9150613aa382613a62565b602082019050919050565b60006020820190508181036000830152613ac781613a8b565b9050919050565b7f4552433732313a207472616e7366657220746f206e6f6e20455243373231526560008201527f63656976657220696d706c656d656e7465720000000000000000000000000000602082015250565b6000613b2a60328361280a565b9150613b3582613ace565b604082019050919050565b60006020820190508181036000830152613b5981613b1d565b9050919050565b7f4e487b7100000000000000000000000000000000000000000000000000000000600052601260045260246000fd5b6000613b9a826128ba565b9150613ba5836128ba565b925082613bb557613bb4613b60565b5b828204905092915050565b6000613bcb826128ba565b9150613bd6836128ba565b925082613be657613be5613b60565b5b828206905092915050565b6000613bfc826128ba565b9150613c07836128ba565b9250817fffffffffffffffffffffffffffffffffffffffffffffffffffffffffffffffff0483118215151615613c4057613c3f61350e565b5b828202905092915050565b6000613c56826128ba565b91506000821415613c6a57613c6961350e565b5b600182039050919050565b7f537472696e67733a20686578206c656e67746820696e73756666696369656e74600082015250565b6000613cab60208361280a565b9150613cb682613c75565b602082019050919050565b60006020820190508181036000830152613cda81613c9e565b9050919050565b600081519050919050565b600082825260208201905092915050565b6000613d0882613ce1565b613d128185613cec565b9350613d2281856020860161281b565b613d2b8161284e565b840191505092915050565b6000608082019050613d4b600083018761294f565b613d58602083018661294f565b613d656040830185612b05565b8181036060830152613d778184613cfd565b905095945050505050565b600081519050613d9181612770565b92915050565b600060208284031215613dad57613dac61273a565b5b6000613dbb84828501613d82565b91505092915050565b7f4552433732313a206d696e7420746f20746865207a65726f2061646472657373600082015250565b6000613dfa60208361280a565b9150613e0582613dc4565b602082019050919050565b60006020820190508181036000830152613e2981613ded565b9050919050565b7f4552433732313a20746f6b656e20616c7265616479206d696e74656400000000600082015250565b6000613e66601c8361280a565b9150613e7182613e30565b602082019050919050565b60006020820190508181036000830152613e9581613e59565b905091905056fea2646970667358221220dadd9e9e72adc870ceda11d2972c5b3ad959b45e62f81d0f952dd664704cbcd764736f6c634300080a0033",
  "immutableReferences": {},
  "source": "// SPDX-License-Identifier: MIT\npragma solidity ^0.8.2;\n\n\nimport \"@openzeppelin/contracts/token/ERC721/ERC721.sol\";\nimport \"@openzeppelin/contracts/security/Pausable.sol\";\nimport \"@openzeppelin/contracts/access/AccessControl.sol\";\nimport \"./IArtist.sol\";\n\ncontract Artist is IArtist, ERC721, Pausable, AccessControl {\n    bytes32 public constant PAUSER_ROLE = keccak256(\"PAUSER_ROLE\");\n    bytes32 public constant MINTER_ROLE = keccak256(\"MINTER_ROLE\");\n    uint public mintPrice;\n\n    //mapping from tokenId to struct containing traits\n    mapping (uint256 => Person) public tokenTraits;\n\n    //mapping from address to bool of allowed minters\n    mapping(address => bool) public minters;\n\n\n    constructor() ERC721(\"Artist\", \"CBA\") {\n        _grantRole(DEFAULT_ADMIN_ROLE, msg.sender);\n        _grantRole(PAUSER_ROLE, msg.sender);\n        _grantRole(MINTER_ROLE, msg.sender);\n\n        mintPrice = 0.3 ether;\n    }\n    \n    function addMinter(address[] memory _minters) external onlyRole(MINTER_ROLE) {\n        for (uint x = 0; x < _minters.length; x++) {\n            minters[_minters[x]] = true;\n        }\n    }\n\n    function removeMinter(address[] memory _minters) external onlyRole(MINTER_ROLE) {\n        for (uint x = 0; x < _minters.length; x++) {\n            minters[_minters[x]] = false;\n        }\n    }\n\n    function setMintPrice(uint _mintPrice) external onlyRole(DEFAULT_ADMIN_ROLE) {\n        mintPrice = _mintPrice;\n    }\n\n    function pause() public onlyRole(PAUSER_ROLE) {\n        _pause();\n    }\n\n    function unpause() public onlyRole(PAUSER_ROLE) {\n        _unpause();\n    }\n\n    function safeMint(address to, uint256 tokenId) public onlyRole(MINTER_ROLE) {\n        _safeMint(to, tokenId);\n    }\n\n    function _beforeTokenTransfer(address from, address to, uint256 tokenId)\n        internal\n        whenNotPaused\n        override\n    {\n        super._beforeTokenTransfer(from, to, tokenId);\n    }\n\n    function getTokenTraits(uint256 tokenId) external view override returns (Person memory) {\n        return tokenTraits[tokenId];\n    }\n\n    // The following functions are overrides required by Solidity.\n\n    function supportsInterface(bytes4 interfaceId)\n        public\n        view\n        override(ERC721, AccessControl)\n        returns (bool)\n    {\n        return super.supportsInterface(interfaceId);\n    }\n}",
  "sourcePath": "/Users/warrenschwartz/Projects/ColdBehaviour/contracts/contracts/Artist.sol",
  "compiler": {
    "name": "solc",
    "version": "0.8.10+commit.fc410830.Emscripten.clang"
  },
  "schemaVersion": "3.4.3",
  "updatedAt": "2022-01-21T14:32:13.053Z",
  "devdoc": {
    "kind": "dev",
    "methods": {
      "approve(address,uint256)": {
        "details": "See {IERC721-approve}."
      },
      "balanceOf(address)": {
        "details": "See {IERC721-balanceOf}."
      },
      "getApproved(uint256)": {
        "details": "See {IERC721-getApproved}."
      },
      "getRoleAdmin(bytes32)": {
        "details": "Returns the admin role that controls `role`. See {grantRole} and {revokeRole}. To change a role's admin, use {_setRoleAdmin}."
      },
      "grantRole(bytes32,address)": {
        "details": "Grants `role` to `account`. If `account` had not been already granted `role`, emits a {RoleGranted} event. Requirements: - the caller must have ``role``'s admin role."
      },
      "hasRole(bytes32,address)": {
        "details": "Returns `true` if `account` has been granted `role`."
      },
      "isApprovedForAll(address,address)": {
        "details": "See {IERC721-isApprovedForAll}."
      },
      "name()": {
        "details": "See {IERC721Metadata-name}."
      },
      "ownerOf(uint256)": {
        "details": "See {IERC721-ownerOf}."
      },
      "paused()": {
        "details": "Returns true if the contract is paused, and false otherwise."
      },
      "renounceRole(bytes32,address)": {
        "details": "Revokes `role` from the calling account. Roles are often managed via {grantRole} and {revokeRole}: this function's purpose is to provide a mechanism for accounts to lose their privileges if they are compromised (such as when a trusted device is misplaced). If the calling account had been revoked `role`, emits a {RoleRevoked} event. Requirements: - the caller must be `account`."
      },
      "revokeRole(bytes32,address)": {
        "details": "Revokes `role` from `account`. If `account` had been granted `role`, emits a {RoleRevoked} event. Requirements: - the caller must have ``role``'s admin role."
      },
      "safeTransferFrom(address,address,uint256)": {
        "details": "See {IERC721-safeTransferFrom}."
      },
      "safeTransferFrom(address,address,uint256,bytes)": {
        "details": "See {IERC721-safeTransferFrom}."
      },
      "setApprovalForAll(address,bool)": {
        "details": "See {IERC721-setApprovalForAll}."
      },
      "symbol()": {
        "details": "See {IERC721Metadata-symbol}."
      },
      "tokenURI(uint256)": {
        "details": "See {IERC721Metadata-tokenURI}."
      },
      "transferFrom(address,address,uint256)": {
        "details": "See {IERC721-transferFrom}."
      }
    },
    "version": 1
  },
  "userdoc": {
    "kind": "user",
    "methods": {},
    "version": 1
  }
}