{
  "contractName": "Artist",
  "abi": [
    {
      "inputs": [],
      "stateMutability": "nonpayable",
      "type": "constructor"
    },
    {
      "anonymous": false,
      "inputs": [
        {
          "indexed": true,
          "internalType": "address",
          "name": "owner",
          "type": "address"
        },
        {
          "indexed": true,
          "internalType": "address",
          "name": "approved",
          "type": "address"
        },
        {
          "indexed": true,
          "internalType": "uint256",
          "name": "tokenId",
          "type": "uint256"
        }
      ],
      "name": "Approval",
      "type": "event"
    },
    {
      "anonymous": false,
      "inputs": [
        {
          "indexed": true,
          "internalType": "address",
          "name": "owner",
          "type": "address"
        },
        {
          "indexed": true,
          "internalType": "address",
          "name": "operator",
          "type": "address"
        },
        {
          "indexed": false,
          "internalType": "bool",
          "name": "approved",
          "type": "bool"
        }
      ],
      "name": "ApprovalForAll",
      "type": "event"
    },
    {
      "anonymous": false,
      "inputs": [
        {
          "indexed": false,
          "internalType": "address",
          "name": "account",
          "type": "address"
        }
      ],
      "name": "Paused",
      "type": "event"
    },
    {
      "anonymous": false,
      "inputs": [
        {
          "indexed": true,
          "internalType": "bytes32",
          "name": "role",
          "type": "bytes32"
        },
        {
          "indexed": true,
          "internalType": "bytes32",
          "name": "previousAdminRole",
          "type": "bytes32"
        },
        {
          "indexed": true,
          "internalType": "bytes32",
          "name": "newAdminRole",
          "type": "bytes32"
        }
      ],
      "name": "RoleAdminChanged",
      "type": "event"
    },
    {
      "anonymous": false,
      "inputs": [
        {
          "indexed": true,
          "internalType": "bytes32",
          "name": "role",
          "type": "bytes32"
        },
        {
          "indexed": true,
          "internalType": "address",
          "name": "account",
          "type": "address"
        },
        {
          "indexed": true,
          "internalType": "address",
          "name": "sender",
          "type": "address"
        }
      ],
      "name": "RoleGranted",
      "type": "event"
    },
    {
      "anonymous": false,
      "inputs": [
        {
          "indexed": true,
          "internalType": "bytes32",
          "name": "role",
          "type": "bytes32"
        },
        {
          "indexed": true,
          "internalType": "address",
          "name": "account",
          "type": "address"
        },
        {
          "indexed": true,
          "internalType": "address",
          "name": "sender",
          "type": "address"
        }
      ],
      "name": "RoleRevoked",
      "type": "event"
    },
    {
      "anonymous": false,
      "inputs": [
        {
          "indexed": true,
          "internalType": "address",
          "name": "from",
          "type": "address"
        },
        {
          "indexed": true,
          "internalType": "address",
          "name": "to",
          "type": "address"
        },
        {
          "indexed": true,
          "internalType": "uint256",
          "name": "tokenId",
          "type": "uint256"
        }
      ],
      "name": "Transfer",
      "type": "event"
    },
    {
      "anonymous": false,
      "inputs": [
        {
          "indexed": false,
          "internalType": "address",
          "name": "account",
          "type": "address"
        }
      ],
      "name": "Unpaused",
      "type": "event"
    },
    {
      "inputs": [],
      "name": "DEFAULT_ADMIN_ROLE",
      "outputs": [
        {
          "internalType": "bytes32",
          "name": "",
          "type": "bytes32"
        }
      ],
      "stateMutability": "view",
      "type": "function"
    },
    {
      "inputs": [],
      "name": "MANAGE_MINTER_ROLE",
      "outputs": [
        {
          "internalType": "bytes32",
          "name": "",
          "type": "bytes32"
        }
      ],
      "stateMutability": "view",
      "type": "function"
    },
    {
      "inputs": [],
      "name": "MAX_TOKENS",
      "outputs": [
        {
          "internalType": "uint256",
          "name": "",
          "type": "uint256"
        }
      ],
      "stateMutability": "view",
      "type": "function"
    },
    {
      "inputs": [],
      "name": "PAUSER_ROLE",
      "outputs": [
        {
          "internalType": "bytes32",
          "name": "",
          "type": "bytes32"
        }
      ],
      "stateMutability": "view",
      "type": "function"
    },
    {
      "inputs": [
        {
          "internalType": "uint256",
          "name": "",
          "type": "uint256"
        },
        {
          "internalType": "uint256",
          "name": "",
          "type": "uint256"
        }
      ],
      "name": "allowedCombinations",
      "outputs": [
        {
          "internalType": "uint8",
          "name": "",
          "type": "uint8"
        }
      ],
      "stateMutability": "view",
      "type": "function"
    },
    {
      "inputs": [
        {
          "internalType": "address",
          "name": "to",
          "type": "address"
        },
        {
          "internalType": "uint256",
          "name": "tokenId",
          "type": "uint256"
        }
      ],
      "name": "approve",
      "outputs": [],
      "stateMutability": "nonpayable",
      "type": "function"
    },
    {
      "inputs": [
        {
          "internalType": "address",
          "name": "owner",
          "type": "address"
        }
      ],
      "name": "balanceOf",
      "outputs": [
        {
          "internalType": "uint256",
          "name": "",
          "type": "uint256"
        }
      ],
      "stateMutability": "view",
      "type": "function"
    },
    {
      "inputs": [
        {
          "internalType": "uint256",
          "name": "",
          "type": "uint256"
        }
      ],
      "name": "existingCombinations",
      "outputs": [
        {
          "internalType": "uint256",
          "name": "",
          "type": "uint256"
        }
      ],
      "stateMutability": "view",
      "type": "function"
    },
    {
      "inputs": [
        {
          "internalType": "uint256",
          "name": "tokenId",
          "type": "uint256"
        }
      ],
      "name": "getApproved",
      "outputs": [
        {
          "internalType": "address",
          "name": "",
          "type": "address"
        }
      ],
      "stateMutability": "view",
      "type": "function"
    },
    {
      "inputs": [
        {
          "internalType": "bytes32",
          "name": "role",
          "type": "bytes32"
        }
      ],
      "name": "getRoleAdmin",
      "outputs": [
        {
          "internalType": "bytes32",
          "name": "",
          "type": "bytes32"
        }
      ],
      "stateMutability": "view",
      "type": "function"
    },
    {
      "inputs": [
        {
          "internalType": "bytes32",
          "name": "role",
          "type": "bytes32"
        },
        {
          "internalType": "address",
          "name": "account",
          "type": "address"
        }
      ],
      "name": "grantRole",
      "outputs": [],
      "stateMutability": "nonpayable",
      "type": "function"
    },
    {
      "inputs": [
        {
          "internalType": "bytes32",
          "name": "role",
          "type": "bytes32"
        },
        {
          "internalType": "address",
          "name": "account",
          "type": "address"
        }
      ],
      "name": "hasRole",
      "outputs": [
        {
          "internalType": "bool",
          "name": "",
          "type": "bool"
        }
      ],
      "stateMutability": "view",
      "type": "function"
    },
    {
      "inputs": [
        {
          "internalType": "address",
          "name": "owner",
          "type": "address"
        },
        {
          "internalType": "address",
          "name": "operator",
          "type": "address"
        }
      ],
      "name": "isApprovedForAll",
      "outputs": [
        {
          "internalType": "bool",
          "name": "",
          "type": "bool"
        }
      ],
      "stateMutability": "view",
      "type": "function"
    },
    {
      "inputs": [],
      "name": "maxMintPerAddress",
      "outputs": [
        {
          "internalType": "uint256",
          "name": "",
          "type": "uint256"
        }
      ],
      "stateMutability": "view",
      "type": "function"
    },
    {
      "inputs": [],
      "name": "mintPrice",
      "outputs": [
        {
          "internalType": "uint256",
          "name": "",
          "type": "uint256"
        }
      ],
      "stateMutability": "view",
      "type": "function"
    },
    {
      "inputs": [],
      "name": "minted",
      "outputs": [
        {
          "internalType": "uint16",
          "name": "",
          "type": "uint16"
        }
      ],
      "stateMutability": "view",
      "type": "function"
    },
    {
      "inputs": [
        {
          "internalType": "address",
          "name": "",
          "type": "address"
        }
      ],
      "name": "minters",
      "outputs": [
        {
          "internalType": "bool",
          "name": "",
          "type": "bool"
        }
      ],
      "stateMutability": "view",
      "type": "function"
    },
    {
      "inputs": [],
      "name": "name",
      "outputs": [
        {
          "internalType": "string",
          "name": "",
          "type": "string"
        }
      ],
      "stateMutability": "view",
      "type": "function"
    },
    {
      "inputs": [
        {
          "internalType": "uint256",
          "name": "tokenId",
          "type": "uint256"
        }
      ],
      "name": "ownerOf",
      "outputs": [
        {
          "internalType": "address",
          "name": "",
          "type": "address"
        }
      ],
      "stateMutability": "view",
      "type": "function"
    },
    {
      "inputs": [],
      "name": "paused",
      "outputs": [
        {
          "internalType": "bool",
          "name": "",
          "type": "bool"
        }
      ],
      "stateMutability": "view",
      "type": "function"
    },
    {
      "inputs": [
        {
          "internalType": "bytes32",
          "name": "role",
          "type": "bytes32"
        },
        {
          "internalType": "address",
          "name": "account",
          "type": "address"
        }
      ],
      "name": "renounceRole",
      "outputs": [],
      "stateMutability": "nonpayable",
      "type": "function"
    },
    {
      "inputs": [
        {
          "internalType": "bytes32",
          "name": "role",
          "type": "bytes32"
        },
        {
          "internalType": "address",
          "name": "account",
          "type": "address"
        }
      ],
      "name": "revokeRole",
      "outputs": [],
      "stateMutability": "nonpayable",
      "type": "function"
    },
    {
      "inputs": [
        {
          "internalType": "address",
          "name": "from",
          "type": "address"
        },
        {
          "internalType": "address",
          "name": "to",
          "type": "address"
        },
        {
          "internalType": "uint256",
          "name": "tokenId",
          "type": "uint256"
        }
      ],
      "name": "safeTransferFrom",
      "outputs": [],
      "stateMutability": "nonpayable",
      "type": "function"
    },
    {
      "inputs": [
        {
          "internalType": "address",
          "name": "from",
          "type": "address"
        },
        {
          "internalType": "address",
          "name": "to",
          "type": "address"
        },
        {
          "internalType": "uint256",
          "name": "tokenId",
          "type": "uint256"
        },
        {
          "internalType": "bytes",
          "name": "_data",
          "type": "bytes"
        }
      ],
      "name": "safeTransferFrom",
      "outputs": [],
      "stateMutability": "nonpayable",
      "type": "function"
    },
    {
      "inputs": [
        {
          "internalType": "address",
          "name": "operator",
          "type": "address"
        },
        {
          "internalType": "bool",
          "name": "approved",
          "type": "bool"
        }
      ],
      "name": "setApprovalForAll",
      "outputs": [],
      "stateMutability": "nonpayable",
      "type": "function"
    },
    {
      "inputs": [],
      "name": "symbol",
      "outputs": [
        {
          "internalType": "string",
          "name": "",
          "type": "string"
        }
      ],
      "stateMutability": "view",
      "type": "function"
    },
    {
      "inputs": [
        {
          "internalType": "uint256",
          "name": "",
          "type": "uint256"
        }
      ],
      "name": "tokenTraits",
      "outputs": [
        {
          "internalType": "uint8",
          "name": "background",
          "type": "uint8"
        },
        {
          "internalType": "uint8",
          "name": "body",
          "type": "uint8"
        },
        {
          "internalType": "uint8",
          "name": "eyes",
          "type": "uint8"
        },
        {
          "internalType": "uint8",
          "name": "teeth",
          "type": "uint8"
        },
        {
          "internalType": "uint8",
          "name": "garment",
          "type": "uint8"
        },
        {
          "internalType": "uint8",
          "name": "chain",
          "type": "uint8"
        },
        {
          "internalType": "uint8",
          "name": "face",
          "type": "uint8"
        },
        {
          "internalType": "uint8",
          "name": "ear",
          "type": "uint8"
        },
        {
          "internalType": "uint8",
          "name": "head",
          "type": "uint8"
        }
      ],
      "stateMutability": "view",
      "type": "function"
    },
    {
      "inputs": [
        {
          "internalType": "uint256",
          "name": "tokenId",
          "type": "uint256"
        }
      ],
      "name": "tokenURI",
      "outputs": [
        {
          "internalType": "string",
          "name": "",
          "type": "string"
        }
      ],
      "stateMutability": "view",
      "type": "function"
    },
    {
      "inputs": [
        {
          "internalType": "address",
          "name": "",
          "type": "address"
        }
      ],
      "name": "tokensOwned",
      "outputs": [
        {
          "internalType": "uint256",
          "name": "",
          "type": "uint256"
        }
      ],
      "stateMutability": "view",
      "type": "function"
    },
    {
      "inputs": [
        {
          "internalType": "address",
          "name": "from",
          "type": "address"
        },
        {
          "internalType": "address",
          "name": "to",
          "type": "address"
        },
        {
          "internalType": "uint256",
          "name": "tokenId",
          "type": "uint256"
        }
      ],
      "name": "transferFrom",
      "outputs": [],
      "stateMutability": "nonpayable",
      "type": "function"
    },
    {
      "inputs": [
        {
          "internalType": "address[]",
          "name": "_minters",
          "type": "address[]"
        }
      ],
      "name": "addMinter",
      "outputs": [],
      "stateMutability": "nonpayable",
      "type": "function"
    },
    {
      "inputs": [
        {
          "internalType": "uint8",
          "name": "amount",
          "type": "uint8"
        }
      ],
      "name": "mint",
      "outputs": [],
      "stateMutability": "payable",
      "type": "function"
    },
    {
      "inputs": [],
      "name": "pause",
      "outputs": [],
      "stateMutability": "nonpayable",
      "type": "function"
    },
    {
      "inputs": [
        {
          "internalType": "address[]",
          "name": "_minters",
          "type": "address[]"
        }
      ],
      "name": "removeMinter",
      "outputs": [],
      "stateMutability": "nonpayable",
      "type": "function"
    },
    {
      "inputs": [
        {
          "internalType": "uint256",
          "name": "max",
          "type": "uint256"
        }
      ],
      "name": "setMaxMintPerAddress",
      "outputs": [],
      "stateMutability": "nonpayable",
      "type": "function"
    },
    {
      "inputs": [
        {
          "internalType": "uint256",
          "name": "_mintPrice",
          "type": "uint256"
        }
      ],
      "name": "setMintPrice",
      "outputs": [],
      "stateMutability": "nonpayable",
      "type": "function"
    },
    {
      "inputs": [],
      "name": "unpause",
      "outputs": [],
      "stateMutability": "nonpayable",
      "type": "function"
    },
    {
      "inputs": [
        {
          "internalType": "address",
          "name": "to",
          "type": "address"
        },
        {
          "internalType": "uint256",
          "name": "tokenId",
          "type": "uint256"
        }
      ],
      "name": "safeMint",
      "outputs": [],
      "stateMutability": "nonpayable",
      "type": "function"
    },
    {
      "inputs": [
        {
          "internalType": "uint256",
          "name": "tokenId",
          "type": "uint256"
        }
      ],
      "name": "getTokenTraits",
      "outputs": [
        {
          "components": [
            {
              "internalType": "uint8",
              "name": "background",
              "type": "uint8"
            },
            {
              "internalType": "uint8",
              "name": "body",
              "type": "uint8"
            },
            {
              "internalType": "uint8",
              "name": "eyes",
              "type": "uint8"
            },
            {
              "internalType": "uint8",
              "name": "teeth",
              "type": "uint8"
            },
            {
              "internalType": "uint8",
              "name": "garment",
              "type": "uint8"
            },
            {
              "internalType": "uint8",
              "name": "chain",
              "type": "uint8"
            },
            {
              "internalType": "uint8",
              "name": "face",
              "type": "uint8"
            },
            {
              "internalType": "uint8",
              "name": "ear",
              "type": "uint8"
            },
            {
              "internalType": "uint8",
              "name": "head",
              "type": "uint8"
            }
          ],
          "internalType": "struct IArtist.Person",
          "name": "",
          "type": "tuple"
        }
      ],
      "stateMutability": "view",
      "type": "function"
    },
    {
      "inputs": [
        {
          "internalType": "bytes4",
          "name": "interfaceId",
          "type": "bytes4"
        }
      ],
      "name": "supportsInterface",
      "outputs": [
        {
          "internalType": "bool",
          "name": "",
          "type": "bool"
        }
      ],
      "stateMutability": "view",
      "type": "function"
    }
  ],
  "bytecode": "0x60806040523480156200001157600080fd5b506040518060400160405280600681526020017f41727469737400000000000000000000000000000000000000000000000000008152506040518060400160405280600381526020017f4342410000000000000000000000000000000000000000000000000000000000815250816000908051906020019062000096929190620004ed565b508060019080519060200190620000af929190620004ed565b5050506000600660006101000a81548160ff021916908315150217905550620000e26000801b336200038860201b60201c565b620001147f65d7a28e3265b37a6474929f336521b332c1681b933f6cb9f3376673440d862a336200038860201b60201c565b620001467f9f2df0fed2c77648de5860a4cc508cd0818c85b8b8a1ab4ceeef8d981c8956a6336200038860201b60201c565b670429d069189e0000600a8190555060026008819055506040518060200160405280600060ff16815250600b6000600981106200018857620001876200064b565b5b01906001620001999291906200057e565b506040518060200160405280600060ff16815250600b600160098110620001c557620001c46200064b565b5b01906001620001d69291906200057e565b506040518060200160405280600060ff16815250600b6002600981106200020257620002016200064b565b5b01906001620002139291906200057e565b506040518060200160405280600060ff16815250600b6003600981106200023f576200023e6200064b565b5b01906001620002509291906200057e565b506040518060200160405280600060ff16815250600b6004600981106200027c576200027b6200064b565b5b019060016200028d9291906200057e565b506040518060200160405280600060ff16815250600b600560098110620002b957620002b86200064b565b5b01906001620002ca9291906200057e565b506040518060200160405280600060ff16815250600b600660098110620002f657620002f56200064b565b5b01906001620003079291906200057e565b506040518060200160405280600060ff16815250600b6007600981106200033357620003326200064b565b5b01906001620003449291906200057e565b506040518060200160405280600060ff16815250600b60086009811062000370576200036f6200064b565b5b01906001620003819291906200057e565b50620006df565b6200039a82826200047a60201b60201c565b620004765760016007600084815260200190815260200160002060000160008373ffffffffffffffffffffffffffffffffffffffff1673ffffffffffffffffffffffffffffffffffffffff16815260200190815260200160002060006101000a81548160ff0219169083151502179055506200041b620004e560201b60201c565b73ffffffffffffffffffffffffffffffffffffffff168173ffffffffffffffffffffffffffffffffffffffff16837f2f8788117e7eff1d82e926ec794901d17c78024a50270940304540a733656f0d60405160405180910390a45b5050565b60006007600084815260200190815260200160002060000160008373ffffffffffffffffffffffffffffffffffffffff1673ffffffffffffffffffffffffffffffffffffffff16815260200190815260200160002060009054906101000a900460ff16905092915050565b600033905090565b828054620004fb90620006a9565b90600052602060002090601f0160209004810192826200051f57600085556200056b565b82601f106200053a57805160ff19168380011785556200056b565b828001600101855582156200056b579182015b828111156200056a5782518255916020019190600101906200054d565b5b5090506200057a91906200062c565b5090565b82805482825590600052602060002090601f01602090048101928215620006195791602002820160005b83821115620005e857835183826101000a81548160ff021916908360ff1602179055509260200192600101602081600001049283019260010302620005a8565b8015620006175782816101000a81549060ff0219169055600101602081600001049283019260010302620005e8565b505b5090506200062891906200062c565b5090565b5b80821115620006475760008160009055506001016200062d565b5090565b7f4e487b7100000000000000000000000000000000000000000000000000000000600052603260045260246000fd5b7f4e487b7100000000000000000000000000000000000000000000000000000000600052602260045260246000fd5b60006002820490506001821680620006c257607f821691505b60208210811415620006d957620006d86200067a565b5b50919050565b614fd080620006ef6000396000f3fe60806040526004361061023b5760003560e01c80638456cb591161012e578063b88d4fde116100ab578063e985e9c51161006f578063e985e9c5146108b4578063f18e33e1146108f1578063f46eccc41461091a578063f47c84c514610957578063f4a0a528146109825761023b565b8063b88d4fde146107b5578063c87b56dd146107de578063d547741f1461081b578063e05c57bf14610844578063e63ab1e9146108895761023b565b8063a1b8f374116100f2578063a1b8f374146106d0578063a20c90c71461070d578063a217fddf14610738578063a22cb46514610763578063a81b42e81461078c5761023b565b80638456cb59146105eb57806391d148541461060257806394e568471461063f57806395d89b411461067c578063a1448194146106a75761023b565b806336fb5ff2116101bc5780635c975abb116101805780635c975abb146104ff5780636352211e1461052a5780636817c76c146105675780636ecd23061461059257806370a08231146105ae5761023b565b806336fb5ff21461042c5780633f4ba83a1461046957806342842e0e146104805780634f02c420146104a9578063572849c4146104d45761023b565b806321cda7901161020357806321cda7901461033757806323b872dd14610374578063248a9ca31461039d5780632f2ff15d146103da57806336568abe146104035761023b565b806301ffc9a71461024057806306fdde031461027d578063081812fc146102a8578063095ea7b3146102e55780631e14d44b1461030e575b600080fd5b34801561024c57600080fd5b50610267600480360381019061026291906132d2565b6109ab565b604051610274919061331a565b60405180910390f35b34801561028957600080fd5b506102926109bd565b60405161029f91906133ce565b60405180910390f35b3480156102b457600080fd5b506102cf60048036038101906102ca9190613426565b610a4f565b6040516102dc9190613494565b60405180910390f35b3480156102f157600080fd5b5061030c600480360381019061030791906134db565b610ad4565b005b34801561031a57600080fd5b5061033560048036038101906103309190613426565b610bec565b005b34801561034357600080fd5b5061035e6004803603810190610359919061351b565b610c0c565b60405161036b9190613557565b60405180910390f35b34801561038057600080fd5b5061039b60048036038101906103969190613572565b610c24565b005b3480156103a957600080fd5b506103c460048036038101906103bf91906135fb565b610c84565b6040516103d19190613637565b60405180910390f35b3480156103e657600080fd5b5061040160048036038101906103fc9190613652565b610ca4565b005b34801561040f57600080fd5b5061042a60048036038101906104259190613652565b610ccd565b005b34801561043857600080fd5b50610453600480360381019061044e9190613692565b610d50565b60405161046091906136ee565b60405180910390f35b34801561047557600080fd5b5061047e610d96565b005b34801561048c57600080fd5b506104a760048036038101906104a29190613572565b610dd3565b005b3480156104b557600080fd5b506104be610df3565b6040516104cb9190613726565b60405180910390f35b3480156104e057600080fd5b506104e9610e07565b6040516104f69190613557565b60405180910390f35b34801561050b57600080fd5b50610514610e0d565b604051610521919061331a565b60405180910390f35b34801561053657600080fd5b50610551600480360381019061054c9190613426565b610e24565b60405161055e9190613494565b60405180910390f35b34801561057357600080fd5b5061057c610ed6565b6040516105899190613557565b60405180910390f35b6105ac60048036038101906105a7919061376d565b610edc565b005b3480156105ba57600080fd5b506105d560048036038101906105d0919061351b565b61116b565b6040516105e29190613557565b60405180910390f35b3480156105f757600080fd5b50610600611223565b005b34801561060e57600080fd5b5061062960048036038101906106249190613652565b611260565b604051610636919061331a565b60405180910390f35b34801561064b57600080fd5b5061066660048036038101906106619190613426565b6112cb565b6040516106739190613860565b60405180910390f35b34801561068857600080fd5b506106916113fe565b60405161069e91906133ce565b60405180910390f35b3480156106b357600080fd5b506106ce60048036038101906106c991906134db565b611490565b005b3480156106dc57600080fd5b506106f760048036038101906106f29190613426565b6114d1565b6040516107049190613557565b60405180910390f35b34801561071957600080fd5b506107226114e9565b60405161072f9190613637565b60405180910390f35b34801561074457600080fd5b5061074d61150d565b60405161075a9190613637565b60405180910390f35b34801561076f57600080fd5b5061078a600480360381019061078591906138a8565b611514565b005b34801561079857600080fd5b506107b360048036038101906107ae9190613a30565b61152a565b005b3480156107c157600080fd5b506107dc60048036038101906107d79190613b2e565b6115f2565b005b3480156107ea57600080fd5b5061080560048036038101906108009190613426565b611654565b60405161081291906133ce565b60405180910390f35b34801561082757600080fd5b50610842600480360381019061083d9190613652565b6116fb565b005b34801561085057600080fd5b5061086b60048036038101906108669190613426565b611724565b60405161088099989796959493929190613bb1565b60405180910390f35b34801561089557600080fd5b5061089e6117e7565b6040516108ab9190613637565b60405180910390f35b3480156108c057600080fd5b506108db60048036038101906108d69190613c3e565b61180b565b6040516108e8919061331a565b60405180910390f35b3480156108fd57600080fd5b5061091860048036038101906109139190613a30565b61189f565b005b34801561092657600080fd5b50610941600480360381019061093c919061351b565b611967565b60405161094e919061331a565b60405180910390f35b34801561096357600080fd5b5061096c611987565b6040516109799190613557565b60405180910390f35b34801561098e57600080fd5b506109a960048036038101906109a49190613426565b61198d565b005b60006109b6826119ad565b9050919050565b6060600080546109cc90613cad565b80601f01602080910402602001604051908101604052809291908181526020018280546109f890613cad565b8015610a455780601f10610a1a57610100808354040283529160200191610a45565b820191906000526020600020905b815481529060010190602001808311610a2857829003601f168201915b5050505050905090565b6000610a5a82611a27565b610a99576040517f08c379a0000000000000000000000000000000000000000000000000000000008152600401610a9090613d51565b60405180910390fd5b6004600083815260200190815260200160002060009054906101000a900473ffffffffffffffffffffffffffffffffffffffff169050919050565b6000610adf82610e24565b90508073ffffffffffffffffffffffffffffffffffffffff168373ffffffffffffffffffffffffffffffffffffffff161415610b50576040517f08c379a0000000000000000000000000000000000000000000000000000000008152600401610b4790613de3565b60405180910390fd5b8073ffffffffffffffffffffffffffffffffffffffff16610b6f611a93565b73ffffffffffffffffffffffffffffffffffffffff161480610b9e5750610b9d81610b98611a93565b61180b565b5b610bdd576040517f08c379a0000000000000000000000000000000000000000000000000000000008152600401610bd490613e75565b60405180910390fd5b610be78383611a9b565b505050565b6000801b610c0181610bfc611a93565b611b54565b816008819055505050565b60166020528060005260406000206000915090505481565b610c35610c2f611a93565b82611bf1565b610c74576040517f08c379a0000000000000000000000000000000000000000000000000000000008152600401610c6b90613f07565b60405180910390fd5b610c7f838383611ccf565b505050565b600060076000838152602001908152602001600020600101549050919050565b610cad82610c84565b610cbe81610cb9611a93565b611b54565b610cc88383611f2b565b505050565b610cd5611a93565b73ffffffffffffffffffffffffffffffffffffffff168173ffffffffffffffffffffffffffffffffffffffff1614610d42576040517f08c379a0000000000000000000000000000000000000000000000000000000008152600401610d3990613f99565b60405180910390fd5b610d4c828261200c565b5050565b600b8260098110610d6057600080fd5b018181548110610d6f57600080fd5b9060005260206000209060209182820401919006915091509054906101000a900460ff1681565b7f65d7a28e3265b37a6474929f336521b332c1681b933f6cb9f3376673440d862a610dc881610dc3611a93565b611b54565b610dd06120ee565b50565b610dee838383604051806020016040528060008152506115f2565b505050565b600960009054906101000a900461ffff1681565b60085481565b6000600660009054906101000a900460ff16905090565b6000806002600084815260200190815260200160002060009054906101000a900473ffffffffffffffffffffffffffffffffffffffff169050600073ffffffffffffffffffffffffffffffffffffffff168173ffffffffffffffffffffffffffffffffffffffff161415610ecd576040517f08c379a0000000000000000000000000000000000000000000000000000000008152600401610ec49061402b565b60405180910390fd5b80915050919050565b600a5481565b600a54341015610f21576040517f08c379a0000000000000000000000000000000000000000000000000000000008152600401610f18906140bd565b60405180910390fd5b601560003373ffffffffffffffffffffffffffffffffffffffff1673ffffffffffffffffffffffffffffffffffffffff16815260200190815260200160002060009054906101000a900460ff16610fad576040517f08c379a0000000000000000000000000000000000000000000000000000000008152600401610fa49061414f565b60405180910390fd5b600854601660003373ffffffffffffffffffffffffffffffffffffffff1673ffffffffffffffffffffffffffffffffffffffff1681526020019081526020016000205410611030576040517f08c379a0000000000000000000000000000000000000000000000000000000008152600401611027906141e1565b60405180910390fd5b6122b88160ff16600960009054906101000a900461ffff166110529190614230565b61ffff161115611097576040517f08c379a000000000000000000000000000000000000000000000000000000000815260040161108e906142b4565b60405180910390fd5b6009600081819054906101000a900461ffff16809291906110b7906142d4565b91906101000a81548161ffff021916908361ffff1602179055505060006110f1600960009054906101000a900461ffff1661ffff16612190565b9050611111600960009054906101000a900461ffff1661ffff16826121d6565b50601660003373ffffffffffffffffffffffffffffffffffffffff1673ffffffffffffffffffffffffffffffffffffffff1681526020019081526020016000206000815480929190611162906142ff565b91905055505050565b60008073ffffffffffffffffffffffffffffffffffffffff168273ffffffffffffffffffffffffffffffffffffffff1614156111dc576040517f08c379a00000000000000000000000000000000000000000000000000000000081526004016111d3906143ba565b60405180910390fd5b600360008373ffffffffffffffffffffffffffffffffffffffff1673ffffffffffffffffffffffffffffffffffffffff168152602001908152602001600020549050919050565b7f65d7a28e3265b37a6474929f336521b332c1681b933f6cb9f3376673440d862a61125581611250611a93565b611b54565b61125d61238e565b50565b60006007600084815260200190815260200160002060000160008373ffffffffffffffffffffffffffffffffffffffff1673ffffffffffffffffffffffffffffffffffffffff16815260200190815260200160002060009054906101000a900460ff16905092915050565b6112d36131ff565b60176000838152602001908152602001600020604051806101200160405290816000820160009054906101000a900460ff1660ff1660ff1681526020016000820160019054906101000a900460ff1660ff1660ff1681526020016000820160029054906101000a900460ff1660ff1660ff1681526020016000820160039054906101000a900460ff1660ff1660ff1681526020016000820160049054906101000a900460ff1660ff1660ff1681526020016000820160059054906101000a900460ff1660ff1660ff1681526020016000820160069054906101000a900460ff1660ff1660ff1681526020016000820160079054906101000a900460ff1660ff1660ff1681526020016000820160089054906101000a900460ff1660ff1660ff16815250509050919050565b60606001805461140d90613cad565b80601f016020809104026020016040519081016040528092919081815260200182805461143990613cad565b80156114865780601f1061145b57610100808354040283529160200191611486565b820191906000526020600020905b81548152906001019060200180831161146957829003601f168201915b5050505050905090565b7f9f2df0fed2c77648de5860a4cc508cd0818c85b8b8a1ab4ceeef8d981c8956a66114c2816114bd611a93565b611b54565b6114cc8383612431565b505050565b60146020528060005260406000206000915090505481565b7f9f2df0fed2c77648de5860a4cc508cd0818c85b8b8a1ab4ceeef8d981c8956a681565b6000801b81565b61152661151f611a93565b838361244f565b5050565b7f9f2df0fed2c77648de5860a4cc508cd0818c85b8b8a1ab4ceeef8d981c8956a661155c81611557611a93565b611b54565b60005b82518110156115ed57600060156000858481518110611581576115806143da565b5b602002602001015173ffffffffffffffffffffffffffffffffffffffff1673ffffffffffffffffffffffffffffffffffffffff16815260200190815260200160002060006101000a81548160ff02191690831515021790555080806115e5906142ff565b91505061155f565b505050565b6116036115fd611a93565b83611bf1565b611642576040517f08c379a000000000000000000000000000000000000000000000000000000000815260040161163990613f07565b60405180910390fd5b61164e848484846125bc565b50505050565b606061165f82611a27565b61169e576040517f08c379a00000000000000000000000000000000000000000000000000000000081526004016116959061447b565b60405180910390fd5b60006116a8612618565b905060008151116116c857604051806020016040528060008152506116f3565b806116d28461262f565b6040516020016116e39291906144d7565b6040516020818303038152906040525b915050919050565b61170482610c84565b61171581611710611a93565b611b54565b61171f838361200c565b505050565b60176020528060005260406000206000915090508060000160009054906101000a900460ff16908060000160019054906101000a900460ff16908060000160029054906101000a900460ff16908060000160039054906101000a900460ff16908060000160049054906101000a900460ff16908060000160059054906101000a900460ff16908060000160069054906101000a900460ff16908060000160079054906101000a900460ff16908060000160089054906101000a900460ff16905089565b7f65d7a28e3265b37a6474929f336521b332c1681b933f6cb9f3376673440d862a81565b6000600560008473ffffffffffffffffffffffffffffffffffffffff1673ffffffffffffffffffffffffffffffffffffffff16815260200190815260200160002060008373ffffffffffffffffffffffffffffffffffffffff1673ffffffffffffffffffffffffffffffffffffffff16815260200190815260200160002060009054906101000a900460ff16905092915050565b7f9f2df0fed2c77648de5860a4cc508cd0818c85b8b8a1ab4ceeef8d981c8956a66118d1816118cc611a93565b611b54565b60005b8251811015611962576001601560008584815181106118f6576118f56143da565b5b602002602001015173ffffffffffffffffffffffffffffffffffffffff1673ffffffffffffffffffffffffffffffffffffffff16815260200190815260200160002060006101000a81548160ff021916908315150217905550808061195a906142ff565b9150506118d4565b505050565b60156020528060005260406000206000915054906101000a900460ff1681565b6122b881565b6000801b6119a28161199d611a93565b611b54565b81600a819055505050565b60007f7965db0b000000000000000000000000000000000000000000000000000000007bffffffffffffffffffffffffffffffffffffffffffffffffffffffff1916827bffffffffffffffffffffffffffffffffffffffffffffffffffffffff19161480611a205750611a1f82612790565b5b9050919050565b60008073ffffffffffffffffffffffffffffffffffffffff166002600084815260200190815260200160002060009054906101000a900473ffffffffffffffffffffffffffffffffffffffff1673ffffffffffffffffffffffffffffffffffffffff1614159050919050565b600033905090565b816004600083815260200190815260200160002060006101000a81548173ffffffffffffffffffffffffffffffffffffffff021916908373ffffffffffffffffffffffffffffffffffffffff160217905550808273ffffffffffffffffffffffffffffffffffffffff16611b0e83610e24565b73ffffffffffffffffffffffffffffffffffffffff167f8c5be1e5ebec7d5bd14f71427d1e84f3dd0314c0f7b2291e5b200ac8c7c3b92560405160405180910390a45050565b611b5e8282611260565b611bed57611b838173ffffffffffffffffffffffffffffffffffffffff166014612872565b611b918360001c6020612872565b604051602001611ba2929190614593565b6040516020818303038152906040526040517f08c379a0000000000000000000000000000000000000000000000000000000008152600401611be491906133ce565b60405180910390fd5b5050565b6000611bfc82611a27565b611c3b576040517f08c379a0000000000000000000000000000000000000000000000000000000008152600401611c329061463f565b60405180910390fd5b6000611c4683610e24565b90508073ffffffffffffffffffffffffffffffffffffffff168473ffffffffffffffffffffffffffffffffffffffff161480611cb557508373ffffffffffffffffffffffffffffffffffffffff16611c9d84610a4f565b73ffffffffffffffffffffffffffffffffffffffff16145b80611cc65750611cc5818561180b565b5b91505092915050565b8273ffffffffffffffffffffffffffffffffffffffff16611cef82610e24565b73ffffffffffffffffffffffffffffffffffffffff1614611d45576040517f08c379a0000000000000000000000000000000000000000000000000000000008152600401611d3c906146d1565b60405180910390fd5b600073ffffffffffffffffffffffffffffffffffffffff168273ffffffffffffffffffffffffffffffffffffffff161415611db5576040517f08c379a0000000000000000000000000000000000000000000000000000000008152600401611dac90614763565b60405180910390fd5b611dc0838383612aae565b611dcb600082611a9b565b6001600360008573ffffffffffffffffffffffffffffffffffffffff1673ffffffffffffffffffffffffffffffffffffffff1681526020019081526020016000206000828254611e1b9190614783565b925050819055506001600360008473ffffffffffffffffffffffffffffffffffffffff1673ffffffffffffffffffffffffffffffffffffffff1681526020019081526020016000206000828254611e7291906147b7565b92505081905550816002600083815260200190815260200160002060006101000a81548173ffffffffffffffffffffffffffffffffffffffff021916908373ffffffffffffffffffffffffffffffffffffffff160217905550808273ffffffffffffffffffffffffffffffffffffffff168473ffffffffffffffffffffffffffffffffffffffff167fddf252ad1be2c89b69c2b068fc378daa952ba7f163c4a11628f55a4df523b3ef60405160405180910390a4505050565b611f358282611260565b6120085760016007600084815260200190815260200160002060000160008373ffffffffffffffffffffffffffffffffffffffff1673ffffffffffffffffffffffffffffffffffffffff16815260200190815260200160002060006101000a81548160ff021916908315150217905550611fad611a93565b73ffffffffffffffffffffffffffffffffffffffff168173ffffffffffffffffffffffffffffffffffffffff16837f2f8788117e7eff1d82e926ec794901d17c78024a50270940304540a733656f0d60405160405180910390a45b5050565b6120168282611260565b156120ea5760006007600084815260200190815260200160002060000160008373ffffffffffffffffffffffffffffffffffffffff1673ffffffffffffffffffffffffffffffffffffffff16815260200190815260200160002060006101000a81548160ff02191690831515021790555061208f611a93565b73ffffffffffffffffffffffffffffffffffffffff168173ffffffffffffffffffffffffffffffffffffffff16837ff6391f5c32d9c69d2a47ea670b442974b53935d1edc7fd64eb21e047a839171b60405160405180910390a45b5050565b6120f6610e0d565b612135576040517f08c379a000000000000000000000000000000000000000000000000000000000815260040161212c90614859565b60405180910390fd5b6000600660006101000a81548160ff0219169083151502179055507f5db9ee0a495bf2e6ff9c91a7834c1ba4fdd244a5e8aa4e537bd38aeae4b073aa612179611a93565b6040516121869190613494565b60405180910390a1565b6000326001436121a09190614783565b4042846040516020016121b69493929190614903565b6040516020818303038152906040528051906020012060001c9050919050565b6121de6131ff565b6121e782612b06565b90506000601460006121f884612c73565b815260200190815260200160002054141561237357806017600085815260200190815260200160002060008201518160000160006101000a81548160ff021916908360ff16021790555060208201518160000160016101000a81548160ff021916908360ff16021790555060408201518160000160026101000a81548160ff021916908360ff16021790555060608201518160000160036101000a81548160ff021916908360ff16021790555060808201518160000160046101000a81548160ff021916908360ff16021790555060a08201518160000160056101000a81548160ff021916908360ff16021790555060c08201518160000160066101000a81548160ff021916908360ff16021790555060e08201518160000160076101000a81548160ff021916908360ff1602179055506101008201518160000160086101000a81548160ff021916908360ff160217905550905050826014600061235c84612c73565b815260200190815260200160002081905550612388565b6123858361238084612190565b6121d6565b90505b92915050565b612396610e0d565b156123d6576040517f08c379a00000000000000000000000000000000000000000000000000000000081526004016123cd9061499d565b60405180910390fd5b6001600660006101000a81548160ff0219169083151502179055507f62e78cea01bee320cd4e420270b5ea74000d11b0c9f74754ebdbfc544b05a25861241a611a93565b6040516124279190613494565b60405180910390a1565b61244b828260405180602001604052806000815250612cdd565b5050565b8173ffffffffffffffffffffffffffffffffffffffff168373ffffffffffffffffffffffffffffffffffffffff1614156124be576040517f08c379a00000000000000000000000000000000000000000000000000000000081526004016124b590614a09565b60405180910390fd5b80600560008573ffffffffffffffffffffffffffffffffffffffff1673ffffffffffffffffffffffffffffffffffffffff16815260200190815260200160002060008473ffffffffffffffffffffffffffffffffffffffff1673ffffffffffffffffffffffffffffffffffffffff16815260200190815260200160002060006101000a81548160ff0219169083151502179055508173ffffffffffffffffffffffffffffffffffffffff168373ffffffffffffffffffffffffffffffffffffffff167f17307eab39ab6107e8899845ad3d59bd9653f200f220920489ca2b5937696c31836040516125af919061331a565b60405180910390a3505050565b6125c7848484611ccf565b6125d384848484612d38565b612612576040517f08c379a000000000000000000000000000000000000000000000000000000000815260040161260990614a9b565b60405180910390fd5b50505050565b606060405180602001604052806000815250905090565b60606000821415612677576040518060400160405280600181526020017f3000000000000000000000000000000000000000000000000000000000000000815250905061278b565b600082905060005b600082146126a9578080612692906142ff565b915050600a826126a29190614aea565b915061267f565b60008167ffffffffffffffff8111156126c5576126c46138ed565b5b6040519080825280601f01601f1916602001820160405280156126f75781602001600182028036833780820191505090505b5090505b60008514612784576001826127109190614783565b9150600a8561271f9190614b1b565b603061272b91906147b7565b60f81b818381518110612741576127406143da565b5b60200101907effffffffffffffffffffffffffffffffffffffffffffffffffffffffffffff1916908160001a905350600a8561277d9190614aea565b94506126fb565b8093505050505b919050565b60007f80ac58cd000000000000000000000000000000000000000000000000000000007bffffffffffffffffffffffffffffffffffffffffffffffffffffffff1916827bffffffffffffffffffffffffffffffffffffffffffffffffffffffff1916148061285b57507f5b5e139f000000000000000000000000000000000000000000000000000000007bffffffffffffffffffffffffffffffffffffffffffffffffffffffff1916827bffffffffffffffffffffffffffffffffffffffffffffffffffffffff1916145b8061286b575061286a82612ec0565b5b9050919050565b6060600060028360026128859190614b4c565b61288f91906147b7565b67ffffffffffffffff8111156128a8576128a76138ed565b5b6040519080825280601f01601f1916602001820160405280156128da5781602001600182028036833780820191505090505b5090507f300000000000000000000000000000000000000000000000000000000000000081600081518110612912576129116143da565b5b60200101907effffffffffffffffffffffffffffffffffffffffffffffffffffffffffffff1916908160001a9053507f780000000000000000000000000000000000000000000000000000000000000081600181518110612976576129756143da565b5b60200101907effffffffffffffffffffffffffffffffffffffffffffffffffffffffffffff1916908160001a905350600060018460026129b69190614b4c565b6129c091906147b7565b90505b6001811115612a60577f3031323334353637383961626364656600000000000000000000000000000000600f861660108110612a0257612a016143da565b5b1a60f81b828281518110612a1957612a186143da565b5b60200101907effffffffffffffffffffffffffffffffffffffffffffffffffffffffffffff1916908160001a905350600485901c945080612a5990614ba6565b90506129c3565b5060008414612aa4576040517f08c379a0000000000000000000000000000000000000000000000000000000008152600401612a9b90614c1c565b60405180910390fd5b8091505092915050565b612ab6610e0d565b15612af6576040517f08c379a0000000000000000000000000000000000000000000000000000000008152600401612aed9061499d565b60405180910390fd5b612b01838383612f2a565b505050565b612b0e6131ff565b600982901c9150612b2461ffff83166000612f2f565b816000019060ff16908160ff1681525050600982901c9150612b4b61ffff83166001612f2f565b816020019060ff16908160ff1681525050600982901c9150612b7261ffff83166002612f2f565b816040019060ff16908160ff1681525050600982901c9150612b9961ffff83166003612f2f565b816060019060ff16908160ff1681525050600982901c9150612bc061ffff83166004612f2f565b816080019060ff16908160ff1681525050600982901c9150612be761ffff83166005612f2f565b8160a0019060ff16908160ff1681525050600982901c9150612c0e61ffff83166006612f2f565b8160c0019060ff16908160ff1681525050600982901c9150612c3561ffff83166007612f2f565b8160e0019060ff16908160ff1681525050600982901c9150612c5c61ffff83166008612f2f565b81610100019060ff16908160ff1681525050919050565b6000816000015182602001518360400151846060015185608001518660a001518760c001518860e00151896101000151604051602001612cbb99989796959493929190614c72565b604051602081830303815290604052612cd390614d52565b60001c9050919050565b612ce7838361301e565b612cf46000848484612d38565b612d33576040517f08c379a0000000000000000000000000000000000000000000000000000000008152600401612d2a90614a9b565b60405180910390fd5b505050565b6000612d598473ffffffffffffffffffffffffffffffffffffffff166131ec565b15612eb3578373ffffffffffffffffffffffffffffffffffffffff1663150b7a02612d82611a93565b8786866040518563ffffffff1660e01b8152600401612da49493929190614e03565b6020604051808303816000875af1925050508015612de057506040513d601f19601f82011682018060405250810190612ddd9190614e64565b60015b612e63573d8060008114612e10576040519150601f19603f3d011682016040523d82523d6000602084013e612e15565b606091505b50600081511415612e5b576040517f08c379a0000000000000000000000000000000000000000000000000000000008152600401612e5290614a9b565b60405180910390fd5b805181602001fd5b63150b7a0260e01b7bffffffffffffffffffffffffffffffffffffffffffffffffffffffff1916817bffffffffffffffffffffffffffffffffffffffffffffffffffffffff191614915050612eb8565b600190505b949350505050565b60007f01ffc9a7000000000000000000000000000000000000000000000000000000007bffffffffffffffffffffffffffffffffffffffffffffffffffffffff1916827bffffffffffffffffffffffffffffffffffffffffffffffffffffffff1916149050919050565b505050565b600080600b8360ff1660098110612f4957612f486143da565b5b018054905084612f599190614e91565b9050600b8360ff1660098110612f7257612f716143da565b5b018160ff1681548110612f8857612f876143da565b5b90600052602060002090602091828204019190069054906101000a900460ff1660ff1660098561ffff16901c61ffff161015612fc75780915050613018565b600b8360ff1660098110612fde57612fdd6143da565b5b018160ff1681548110612ff457612ff36143da565b5b90600052602060002090602091828204019190069054906101000a900460ff169150505b92915050565b600073ffffffffffffffffffffffffffffffffffffffff168273ffffffffffffffffffffffffffffffffffffffff16141561308e576040517f08c379a000000000000000000000000000000000000000000000000000000000815260040161308590614f0e565b60405180910390fd5b61309781611a27565b156130d7576040517f08c379a00000000000000000000000000000000000000000000000000000000081526004016130ce90614f7a565b60405180910390fd5b6130e360008383612aae565b6001600360008473ffffffffffffffffffffffffffffffffffffffff1673ffffffffffffffffffffffffffffffffffffffff168152602001908152602001600020600082825461313391906147b7565b92505081905550816002600083815260200190815260200160002060006101000a81548173ffffffffffffffffffffffffffffffffffffffff021916908373ffffffffffffffffffffffffffffffffffffffff160217905550808273ffffffffffffffffffffffffffffffffffffffff16600073ffffffffffffffffffffffffffffffffffffffff167fddf252ad1be2c89b69c2b068fc378daa952ba7f163c4a11628f55a4df523b3ef60405160405180910390a45050565b600080823b905060008111915050919050565b604051806101200160405280600060ff168152602001600060ff168152602001600060ff168152602001600060ff168152602001600060ff168152602001600060ff168152602001600060ff168152602001600060ff168152602001600060ff1681525090565b6000604051905090565b600080fd5b600080fd5b60007fffffffff0000000000000000000000000000000000000000000000000000000082169050919050565b6132af8161327a565b81146132ba57600080fd5b50565b6000813590506132cc816132a6565b92915050565b6000602082840312156132e8576132e7613270565b5b60006132f6848285016132bd565b91505092915050565b60008115159050919050565b613314816132ff565b82525050565b600060208201905061332f600083018461330b565b92915050565b600081519050919050565b600082825260208201905092915050565b60005b8381101561336f578082015181840152602081019050613354565b8381111561337e576000848401525b50505050565b6000601f19601f8301169050919050565b60006133a082613335565b6133aa8185613340565b93506133ba818560208601613351565b6133c381613384565b840191505092915050565b600060208201905081810360008301526133e88184613395565b905092915050565b6000819050919050565b613403816133f0565b811461340e57600080fd5b50565b600081359050613420816133fa565b92915050565b60006020828403121561343c5761343b613270565b5b600061344a84828501613411565b91505092915050565b600073ffffffffffffffffffffffffffffffffffffffff82169050919050565b600061347e82613453565b9050919050565b61348e81613473565b82525050565b60006020820190506134a96000830184613485565b92915050565b6134b881613473565b81146134c357600080fd5b50565b6000813590506134d5816134af565b92915050565b600080604083850312156134f2576134f1613270565b5b6000613500858286016134c6565b925050602061351185828601613411565b9150509250929050565b60006020828403121561353157613530613270565b5b600061353f848285016134c6565b91505092915050565b613551816133f0565b82525050565b600060208201905061356c6000830184613548565b92915050565b60008060006060848603121561358b5761358a613270565b5b6000613599868287016134c6565b93505060206135aa868287016134c6565b92505060406135bb86828701613411565b9150509250925092565b6000819050919050565b6135d8816135c5565b81146135e357600080fd5b50565b6000813590506135f5816135cf565b92915050565b60006020828403121561361157613610613270565b5b600061361f848285016135e6565b91505092915050565b613631816135c5565b82525050565b600060208201905061364c6000830184613628565b92915050565b6000806040838503121561366957613668613270565b5b6000613677858286016135e6565b9250506020613688858286016134c6565b9150509250929050565b600080604083850312156136a9576136a8613270565b5b60006136b785828601613411565b92505060206136c885828601613411565b9150509250929050565b600060ff82169050919050565b6136e8816136d2565b82525050565b600060208201905061370360008301846136df565b92915050565b600061ffff82169050919050565b61372081613709565b82525050565b600060208201905061373b6000830184613717565b92915050565b61374a816136d2565b811461375557600080fd5b50565b60008135905061376781613741565b92915050565b60006020828403121561378357613782613270565b5b600061379184828501613758565b91505092915050565b6137a3816136d2565b82525050565b610120820160008201516137c0600085018261379a565b5060208201516137d3602085018261379a565b5060408201516137e6604085018261379a565b5060608201516137f9606085018261379a565b50608082015161380c608085018261379a565b5060a082015161381f60a085018261379a565b5060c082015161383260c085018261379a565b5060e082015161384560e085018261379a565b5061010082015161385a61010085018261379a565b50505050565b60006101208201905061387660008301846137a9565b92915050565b613885816132ff565b811461389057600080fd5b50565b6000813590506138a28161387c565b92915050565b600080604083850312156138bf576138be613270565b5b60006138cd858286016134c6565b92505060206138de85828601613893565b9150509250929050565b600080fd5b7f4e487b7100000000000000000000000000000000000000000000000000000000600052604160045260246000fd5b61392582613384565b810181811067ffffffffffffffff82111715613944576139436138ed565b5b80604052505050565b6000613957613266565b9050613963828261391c565b919050565b600067ffffffffffffffff821115613983576139826138ed565b5b602082029050602081019050919050565b600080fd5b60006139ac6139a784613968565b61394d565b905080838252602082019050602084028301858111156139cf576139ce613994565b5b835b818110156139f857806139e488826134c6565b8452602084019350506020810190506139d1565b5050509392505050565b600082601f830112613a1757613a166138e8565b5b8135613a27848260208601613999565b91505092915050565b600060208284031215613a4657613a45613270565b5b600082013567ffffffffffffffff811115613a6457613a63613275565b5b613a7084828501613a02565b91505092915050565b600080fd5b600067ffffffffffffffff821115613a9957613a986138ed565b5b613aa282613384565b9050602081019050919050565b82818337600083830152505050565b6000613ad1613acc84613a7e565b61394d565b905082815260208101848484011115613aed57613aec613a79565b5b613af8848285613aaf565b509392505050565b600082601f830112613b1557613b146138e8565b5b8135613b25848260208601613abe565b91505092915050565b60008060008060808587031215613b4857613b47613270565b5b6000613b56878288016134c6565b9450506020613b67878288016134c6565b9350506040613b7887828801613411565b925050606085013567ffffffffffffffff811115613b9957613b98613275565b5b613ba587828801613b00565b91505092959194509250565b600061012082019050613bc7600083018c6136df565b613bd4602083018b6136df565b613be1604083018a6136df565b613bee60608301896136df565b613bfb60808301886136df565b613c0860a08301876136df565b613c1560c08301866136df565b613c2260e08301856136df565b613c306101008301846136df565b9a9950505050505050505050565b60008060408385031215613c5557613c54613270565b5b6000613c63858286016134c6565b9250506020613c74858286016134c6565b9150509250929050565b7f4e487b7100000000000000000000000000000000000000000000000000000000600052602260045260246000fd5b60006002820490506001821680613cc557607f821691505b60208210811415613cd957613cd8613c7e565b5b50919050565b7f4552433732313a20617070726f76656420717565727920666f72206e6f6e657860008201527f697374656e7420746f6b656e0000000000000000000000000000000000000000602082015250565b6000613d3b602c83613340565b9150613d4682613cdf565b604082019050919050565b60006020820190508181036000830152613d6a81613d2e565b9050919050565b7f4552433732313a20617070726f76616c20746f2063757272656e74206f776e6560008201527f7200000000000000000000000000000000000000000000000000000000000000602082015250565b6000613dcd602183613340565b9150613dd882613d71565b604082019050919050565b60006020820190508181036000830152613dfc81613dc0565b9050919050565b7f4552433732313a20617070726f76652063616c6c6572206973206e6f74206f7760008201527f6e6572206e6f7220617070726f76656420666f7220616c6c0000000000000000602082015250565b6000613e5f603883613340565b9150613e6a82613e03565b604082019050919050565b60006020820190508181036000830152613e8e81613e52565b9050919050565b7f4552433732313a207472616e736665722063616c6c6572206973206e6f74206f60008201527f776e6572206e6f7220617070726f766564000000000000000000000000000000602082015250565b6000613ef1603183613340565b9150613efc82613e95565b604082019050919050565b60006020820190508181036000830152613f2081613ee4565b9050919050565b7f416363657373436f6e74726f6c3a2063616e206f6e6c792072656e6f756e636560008201527f20726f6c657320666f722073656c660000000000000000000000000000000000602082015250565b6000613f83602f83613340565b9150613f8e82613f27565b604082019050919050565b60006020820190508181036000830152613fb281613f76565b9050919050565b7f4552433732313a206f776e657220717565727920666f72206e6f6e657869737460008201527f656e7420746f6b656e0000000000000000000000000000000000000000000000602082015250565b6000614015602983613340565b915061402082613fb9565b604082019050919050565b6000602082019050818103600083015261404481614008565b9050919050565b7f54686520616d6f756e742073706563696669656420646f6573206e6f74206d6160008201527f74636820746865206d696e696d756d206d696e74207072696365000000000000602082015250565b60006140a7603a83613340565b91506140b28261404b565b604082019050919050565b600060208201905081810360008301526140d68161409a565b9050919050565b7f596f7520617265206e6f742061206d656d626572206f6620746865206d696e7460008201527f696e672077686974656c69737400000000000000000000000000000000000000602082015250565b6000614139602d83613340565b9150614144826140dd565b604082019050919050565b600060208201905081810360008301526141688161412c565b9050919050565b7f596f75206d6179206e6f74206d696e7420616e79206d6f726520746f6b656e7360008201527f2077697468207468697320616464726573730000000000000000000000000000602082015250565b60006141cb603283613340565b91506141d68261416f565b604082019050919050565b600060208201905081810360008301526141fa816141be565b9050919050565b7f4e487b7100000000000000000000000000000000000000000000000000000000600052601160045260246000fd5b600061423b82613709565b915061424683613709565b92508261ffff0382111561425d5761425c614201565b5b828201905092915050565b7f416c6c20746f6b656e732068617665206265656e206d696e7465640000000000600082015250565b600061429e601b83613340565b91506142a982614268565b602082019050919050565b600060208201905081810360008301526142cd81614291565b9050919050565b60006142df82613709565b915061ffff8214156142f4576142f3614201565b5b600182019050919050565b600061430a826133f0565b91507fffffffffffffffffffffffffffffffffffffffffffffffffffffffffffffffff82141561433d5761433c614201565b5b600182019050919050565b7f4552433732313a2062616c616e636520717565727920666f7220746865207a6560008201527f726f206164647265737300000000000000000000000000000000000000000000602082015250565b60006143a4602a83613340565b91506143af82614348565b604082019050919050565b600060208201905081810360008301526143d381614397565b9050919050565b7f4e487b7100000000000000000000000000000000000000000000000000000000600052603260045260246000fd5b7f4552433732314d657461646174613a2055524920717565727920666f72206e6f60008201527f6e6578697374656e7420746f6b656e0000000000000000000000000000000000602082015250565b6000614465602f83613340565b915061447082614409565b604082019050919050565b6000602082019050818103600083015261449481614458565b9050919050565b600081905092915050565b60006144b182613335565b6144bb818561449b565b93506144cb818560208601613351565b80840191505092915050565b60006144e382856144a6565b91506144ef82846144a6565b91508190509392505050565b7f416363657373436f6e74726f6c3a206163636f756e7420000000000000000000600082015250565b600061453160178361449b565b915061453c826144fb565b601782019050919050565b7f206973206d697373696e6720726f6c6520000000000000000000000000000000600082015250565b600061457d60118361449b565b915061458882614547565b601182019050919050565b600061459e82614524565b91506145aa82856144a6565b91506145b582614570565b91506145c182846144a6565b91508190509392505050565b7f4552433732313a206f70657261746f7220717565727920666f72206e6f6e657860008201527f697374656e7420746f6b656e0000000000000000000000000000000000000000602082015250565b6000614629602c83613340565b9150614634826145cd565b604082019050919050565b600060208201905081810360008301526146588161461c565b9050919050565b7f4552433732313a207472616e73666572206f6620746f6b656e2074686174206960008201527f73206e6f74206f776e0000000000000000000000000000000000000000000000602082015250565b60006146bb602983613340565b91506146c68261465f565b604082019050919050565b600060208201905081810360008301526146ea816146ae565b9050919050565b7f4552433732313a207472616e7366657220746f20746865207a65726f2061646460008201527f7265737300000000000000000000000000000000000000000000000000000000602082015250565b600061474d602483613340565b9150614758826146f1565b604082019050919050565b6000602082019050818103600083015261477c81614740565b9050919050565b600061478e826133f0565b9150614799836133f0565b9250828210156147ac576147ab614201565b5b828203905092915050565b60006147c2826133f0565b91506147cd836133f0565b9250827fffffffffffffffffffffffffffffffffffffffffffffffffffffffffffffffff0382111561480257614801614201565b5b828201905092915050565b7f5061757361626c653a206e6f7420706175736564000000000000000000000000600082015250565b6000614843601483613340565b915061484e8261480d565b602082019050919050565b6000602082019050818103600083015261487281614836565b9050919050565b60008160601b9050919050565b600061489182614879565b9050919050565b60006148a382614886565b9050919050565b6148bb6148b682613473565b614898565b82525050565b6000819050919050565b6148dc6148d7826135c5565b6148c1565b82525050565b6000819050919050565b6148fd6148f8826133f0565b6148e2565b82525050565b600061490f82876148aa565b60148201915061491f82866148cb565b60208201915061492f82856148ec565b60208201915061493f82846148ec565b60208201915081905095945050505050565b7f5061757361626c653a2070617573656400000000000000000000000000000000600082015250565b6000614987601083613340565b915061499282614951565b602082019050919050565b600060208201905081810360008301526149b68161497a565b9050919050565b7f4552433732313a20617070726f766520746f2063616c6c657200000000000000600082015250565b60006149f3601983613340565b91506149fe826149bd565b602082019050919050565b60006020820190508181036000830152614a22816149e6565b9050919050565b7f4552433732313a207472616e7366657220746f206e6f6e20455243373231526560008201527f63656976657220696d706c656d656e7465720000000000000000000000000000602082015250565b6000614a85603283613340565b9150614a9082614a29565b604082019050919050565b60006020820190508181036000830152614ab481614a78565b9050919050565b7f4e487b7100000000000000000000000000000000000000000000000000000000600052601260045260246000fd5b6000614af5826133f0565b9150614b00836133f0565b925082614b1057614b0f614abb565b5b828204905092915050565b6000614b26826133f0565b9150614b31836133f0565b925082614b4157614b40614abb565b5b828206905092915050565b6000614b57826133f0565b9150614b62836133f0565b9250817fffffffffffffffffffffffffffffffffffffffffffffffffffffffffffffffff0483118215151615614b9b57614b9a614201565b5b828202905092915050565b6000614bb1826133f0565b91506000821415614bc557614bc4614201565b5b600182039050919050565b7f537472696e67733a20686578206c656e67746820696e73756666696369656e74600082015250565b6000614c06602083613340565b9150614c1182614bd0565b602082019050919050565b60006020820190508181036000830152614c3581614bf9565b9050919050565b60008160f81b9050919050565b6000614c5482614c3c565b9050919050565b614c6c614c67826136d2565b614c49565b82525050565b6000614c7e828c614c5b565b600182019150614c8e828b614c5b565b600182019150614c9e828a614c5b565b600182019150614cae8289614c5b565b600182019150614cbe8288614c5b565b600182019150614cce8287614c5b565b600182019150614cde8286614c5b565b600182019150614cee8285614c5b565b600182019150614cfe8284614c5b565b6001820191508190509a9950505050505050505050565b600081519050919050565b6000819050602082019050919050565b6000614d3c82516135c5565b80915050919050565b600082821b905092915050565b6000614d5d82614d15565b82614d6784614d20565b9050614d7281614d30565b92506020821015614db257614dad7fffffffffffffffffffffffffffffffffffffffffffffffffffffffffffffffff83602003600802614d45565b831692505b5050919050565b600082825260208201905092915050565b6000614dd582614d15565b614ddf8185614db9565b9350614def818560208601613351565b614df881613384565b840191505092915050565b6000608082019050614e186000830187613485565b614e256020830186613485565b614e326040830185613548565b8181036060830152614e448184614dca565b905095945050505050565b600081519050614e5e816132a6565b92915050565b600060208284031215614e7a57614e79613270565b5b6000614e8884828501614e4f565b91505092915050565b6000614e9c826136d2565b9150614ea7836136d2565b925082614eb757614eb6614abb565b5b828206905092915050565b7f4552433732313a206d696e7420746f20746865207a65726f2061646472657373600082015250565b6000614ef8602083613340565b9150614f0382614ec2565b602082019050919050565b60006020820190508181036000830152614f2781614eeb565b9050919050565b7f4552433732313a20746f6b656e20616c7265616479206d696e74656400000000600082015250565b6000614f64601c83613340565b9150614f6f82614f2e565b602082019050919050565b60006020820190508181036000830152614f9381614f57565b905091905056fea264697066735822122028734236db3d58ed531200d4127dc422e8a218e01e364692919979f4804c71f064736f6c634300080a0033",
  "immutableReferences": {},
  "source": "// SPDX-License-Identifier: MIT\npragma solidity ^0.8.2;\n\n\nimport \"@openzeppelin/contracts/token/ERC721/ERC721.sol\";\nimport \"@openzeppelin/contracts/security/Pausable.sol\";\nimport \"@openzeppelin/contracts/access/AccessControl.sol\";\nimport \"./IArtist.sol\";\n\ncontract Artist is IArtist, ERC721, Pausable, AccessControl {\n    bytes32 public constant PAUSER_ROLE = keccak256(\"PAUSER_ROLE\");\n    bytes32 public constant MANAGE_MINTER_ROLE = keccak256(\"MINTER_ROLE\");\n    uint public constant MAX_TOKENS = 8888;\n\n    uint public maxMintPerAddress;\n    uint16 public minted;\n    uint public mintPrice;\n\n    //for level 'n' this defines the allowed combinations for 'n+1'\n    uint8[][9] public allowedCombinations;\n\n    mapping(uint => uint) public existingCombinations;\n    mapping(address => bool) public minters;\n    mapping(address => uint) public tokensOwned;\n\n    //mapping from tokenId to struct containing traits\n    mapping (uint256 => Person) public tokenTraits;\n\n    constructor() ERC721(\"Artist\", \"CBA\") {\n        _grantRole(DEFAULT_ADMIN_ROLE, msg.sender);\n        _grantRole(PAUSER_ROLE, msg.sender);\n        _grantRole(MANAGE_MINTER_ROLE, msg.sender);\n\n        mintPrice = 0.3 ether;\n        maxMintPerAddress = 2;\n\n        //background\n        allowedCombinations[0] = [0];\n\n        //body\n        allowedCombinations[1] = [0];\n        \n        //eyes\n        allowedCombinations[2] = [0];\n        \n        //teeth\n        allowedCombinations[3] = [0];\n        \n        //garment\n        allowedCombinations[4] = [0];\n        \n        //chain\n        allowedCombinations[5] = [0];\n        \n        //face\n        allowedCombinations[6] = [0];\n\n        //ear\n        allowedCombinations[7] = [0];\n        \n        //head\n        allowedCombinations[8] = [0];\n    }\n    \n    function addMinter(address[] memory _minters) external onlyRole(MANAGE_MINTER_ROLE) {\n        for (uint x = 0; x < _minters.length; x++) {\n            minters[_minters[x]] = true;\n        }\n    }\n\n    function generate(uint256 tokenId, uint256 seed) internal returns (Person memory t) {\n        t = selectTraits(seed);\n        if (existingCombinations[structToHash(t)] == 0) {\n            tokenTraits[tokenId] = t;\n            existingCombinations[structToHash(t)] = tokenId;\n            return t;\n        }\n        return generate(tokenId, random(seed));\n    }\n\n    function mint(uint8 amount) public payable {\n        require(msg.value >= mintPrice, \"The amount specified does not match the minimum mint price\");\n        require(minters[msg.sender], \"You are not a member of the minting whitelist\");\n        require(tokensOwned[msg.sender] < maxMintPerAddress, \"You may not mint any more tokens with this address\");\n        require(minted + amount <= MAX_TOKENS, \"All tokens have been minted\");\n        \n        minted++;\n        uint seed = random(minted);\n        generate(minted, seed);\n\n        tokensOwned[msg.sender]++;\n    }\n\n    function pause() public onlyRole(PAUSER_ROLE) {\n        _pause();\n    }\n\n    function removeMinter(address[] memory _minters) external onlyRole(MANAGE_MINTER_ROLE) {\n        for (uint x = 0; x < _minters.length; x++) {\n            minters[_minters[x]] = false;\n        }\n    }\n\n    function setMaxMintPerAddress(uint max) external onlyRole(DEFAULT_ADMIN_ROLE) {\n        maxMintPerAddress = max;\n    }\n\n    function setMintPrice(uint _mintPrice) external onlyRole(DEFAULT_ADMIN_ROLE) {\n        mintPrice = _mintPrice;\n    }\n\n    function structToHash(Person memory s) internal pure returns (uint256) {\n        return uint256(bytes32(\n        abi.encodePacked(\n            s.background,\n            s.body,\n            s.eyes,\n            s.teeth,\n            s.garment,\n            s.chain,\n            s.face,\n            s.ear,\n            s.head\n        )));\n    }\n\n    function unpause() public onlyRole(PAUSER_ROLE) {\n        _unpause();\n    }\n\n    function random(uint256 seed) internal view returns (uint256) {\n        return uint256(keccak256(abi.encodePacked(\n        tx.origin,\n        blockhash(block.number - 1),\n        block.timestamp,\n        seed\n        )));\n    }\n\n    function safeMint(address to, uint256 tokenId) public onlyRole(MANAGE_MINTER_ROLE) {\n        _safeMint(to, tokenId);\n    }\n\n    function selectTrait(uint16 seed, uint8 traitType) internal view returns (uint8) {\n        uint8 trait = uint8(seed) % uint8(allowedCombinations[traitType].length);\n        if (seed >> 9 < allowedCombinations[traitType][trait]) return trait;\n        return allowedCombinations[traitType][trait];\n    }\n\n    function selectTraits(uint256 seed) internal view returns (Person memory t) {    \n        seed >>= 9;\n        t.background = selectTrait(uint16(seed & 0xFFFF), 0);\n        seed >>= 9;\n        t.body = selectTrait(uint16(seed & 0xFFFF), 1);\n        seed >>= 9;\n        t.eyes = selectTrait(uint16(seed & 0xFFFF), 2);\n        seed >>= 9;\n        t.teeth = selectTrait(uint16(seed & 0xFFFF), 3);\n        seed >>= 9;\n        t.garment = selectTrait(uint16(seed & 0xFFFF), 4);\n        seed >>= 9;\n        t.chain = selectTrait(uint16(seed & 0xFFFF), 5);\n        seed >>= 9;\n        t.face = selectTrait(uint16(seed & 0xFFFF), 6);\n        seed >>= 9;\n        t.ear = selectTrait(uint16(seed & 0xFFFF), 7);\n        seed >>= 9;\n        t.head = selectTrait(uint16(seed & 0xFFFF), 8);\n    }\n\n    function _beforeTokenTransfer(address from, address to, uint256 tokenId)\n        internal\n        whenNotPaused\n        override\n    {\n        super._beforeTokenTransfer(from, to, tokenId);\n    }\n\n    function getTokenTraits(uint256 tokenId) external view override returns (Person memory) {\n        return tokenTraits[tokenId];\n    }\n\n    // The following functions are overrides required by Solidity.\n\n    function supportsInterface(bytes4 interfaceId)\n        public\n        view\n        override(ERC721, AccessControl)\n        returns (bool)\n    {\n        return super.supportsInterface(interfaceId);\n    }\n}",
  "sourcePath": "/Users/warrenschwartz/Projects/ColdBehaviour/contracts/contracts/Artist.sol",
  "compiler": {
    "name": "solc",
    "version": "0.8.10+commit.fc410830.Emscripten.clang"
  },
  "schemaVersion": "3.4.3",
  "updatedAt": "2022-01-26T08:10:52.292Z",
  "devdoc": {
    "kind": "dev",
    "methods": {
      "approve(address,uint256)": {
        "details": "See {IERC721-approve}."
      },
      "balanceOf(address)": {
        "details": "See {IERC721-balanceOf}."
      },
      "getApproved(uint256)": {
        "details": "See {IERC721-getApproved}."
      },
      "getRoleAdmin(bytes32)": {
        "details": "Returns the admin role that controls `role`. See {grantRole} and {revokeRole}. To change a role's admin, use {_setRoleAdmin}."
      },
      "grantRole(bytes32,address)": {
        "details": "Grants `role` to `account`. If `account` had not been already granted `role`, emits a {RoleGranted} event. Requirements: - the caller must have ``role``'s admin role."
      },
      "hasRole(bytes32,address)": {
        "details": "Returns `true` if `account` has been granted `role`."
      },
      "isApprovedForAll(address,address)": {
        "details": "See {IERC721-isApprovedForAll}."
      },
      "name()": {
        "details": "See {IERC721Metadata-name}."
      },
      "ownerOf(uint256)": {
        "details": "See {IERC721-ownerOf}."
      },
      "paused()": {
        "details": "Returns true if the contract is paused, and false otherwise."
      },
      "renounceRole(bytes32,address)": {
        "details": "Revokes `role` from the calling account. Roles are often managed via {grantRole} and {revokeRole}: this function's purpose is to provide a mechanism for accounts to lose their privileges if they are compromised (such as when a trusted device is misplaced). If the calling account had been revoked `role`, emits a {RoleRevoked} event. Requirements: - the caller must be `account`."
      },
      "revokeRole(bytes32,address)": {
        "details": "Revokes `role` from `account`. If `account` had been granted `role`, emits a {RoleRevoked} event. Requirements: - the caller must have ``role``'s admin role."
      },
      "safeTransferFrom(address,address,uint256)": {
        "details": "See {IERC721-safeTransferFrom}."
      },
      "safeTransferFrom(address,address,uint256,bytes)": {
        "details": "See {IERC721-safeTransferFrom}."
      },
      "setApprovalForAll(address,bool)": {
        "details": "See {IERC721-setApprovalForAll}."
      },
      "symbol()": {
        "details": "See {IERC721Metadata-symbol}."
      },
      "tokenURI(uint256)": {
        "details": "See {IERC721Metadata-tokenURI}."
      },
      "transferFrom(address,address,uint256)": {
        "details": "See {IERC721-transferFrom}."
      }
    },
    "version": 1
  },
  "userdoc": {
    "kind": "user",
    "methods": {},
    "version": 1
  }
}