{
  "contractName": "ColdBehaviorNFT",
  "abi": [
    {
      "inputs": [
        {
          "internalType": "address",
          "name": "_teamAddress",
          "type": "address"
        }
      ],
      "stateMutability": "nonpayable",
      "type": "constructor"
    },
    {
      "inputs": [],
      "name": "ApprovalCallerNotOwnerNorApproved",
      "type": "error"
    },
    {
      "inputs": [],
      "name": "ApprovalQueryForNonexistentToken",
      "type": "error"
    },
    {
      "inputs": [],
      "name": "ApprovalToCurrentOwner",
      "type": "error"
    },
    {
      "inputs": [],
      "name": "ApproveToCaller",
      "type": "error"
    },
    {
      "inputs": [],
      "name": "BalanceQueryForZeroAddress",
      "type": "error"
    },
    {
      "inputs": [],
      "name": "MintToZeroAddress",
      "type": "error"
    },
    {
      "inputs": [],
      "name": "MintZeroQuantity",
      "type": "error"
    },
    {
      "inputs": [],
      "name": "OwnerQueryForNonexistentToken",
      "type": "error"
    },
    {
      "inputs": [],
      "name": "TransferCallerNotOwnerNorApproved",
      "type": "error"
    },
    {
      "inputs": [],
      "name": "TransferFromIncorrectOwner",
      "type": "error"
    },
    {
      "inputs": [],
      "name": "TransferToNonERC721ReceiverImplementer",
      "type": "error"
    },
    {
      "inputs": [],
      "name": "TransferToZeroAddress",
      "type": "error"
    },
    {
      "anonymous": false,
      "inputs": [
        {
          "indexed": true,
          "internalType": "address",
          "name": "owner",
          "type": "address"
        },
        {
          "indexed": true,
          "internalType": "address",
          "name": "approved",
          "type": "address"
        },
        {
          "indexed": true,
          "internalType": "uint256",
          "name": "tokenId",
          "type": "uint256"
        }
      ],
      "name": "Approval",
      "type": "event"
    },
    {
      "anonymous": false,
      "inputs": [
        {
          "indexed": true,
          "internalType": "address",
          "name": "owner",
          "type": "address"
        },
        {
          "indexed": true,
          "internalType": "address",
          "name": "operator",
          "type": "address"
        },
        {
          "indexed": false,
          "internalType": "bool",
          "name": "approved",
          "type": "bool"
        }
      ],
      "name": "ApprovalForAll",
      "type": "event"
    },
    {
      "anonymous": false,
      "inputs": [
        {
          "indexed": true,
          "internalType": "bytes32",
          "name": "role",
          "type": "bytes32"
        },
        {
          "indexed": true,
          "internalType": "bytes32",
          "name": "previousAdminRole",
          "type": "bytes32"
        },
        {
          "indexed": true,
          "internalType": "bytes32",
          "name": "newAdminRole",
          "type": "bytes32"
        }
      ],
      "name": "RoleAdminChanged",
      "type": "event"
    },
    {
      "anonymous": false,
      "inputs": [
        {
          "indexed": true,
          "internalType": "bytes32",
          "name": "role",
          "type": "bytes32"
        },
        {
          "indexed": true,
          "internalType": "address",
          "name": "account",
          "type": "address"
        },
        {
          "indexed": true,
          "internalType": "address",
          "name": "sender",
          "type": "address"
        }
      ],
      "name": "RoleGranted",
      "type": "event"
    },
    {
      "anonymous": false,
      "inputs": [
        {
          "indexed": true,
          "internalType": "bytes32",
          "name": "role",
          "type": "bytes32"
        },
        {
          "indexed": true,
          "internalType": "address",
          "name": "account",
          "type": "address"
        },
        {
          "indexed": true,
          "internalType": "address",
          "name": "sender",
          "type": "address"
        }
      ],
      "name": "RoleRevoked",
      "type": "event"
    },
    {
      "anonymous": false,
      "inputs": [
        {
          "indexed": true,
          "internalType": "address",
          "name": "from",
          "type": "address"
        },
        {
          "indexed": true,
          "internalType": "address",
          "name": "to",
          "type": "address"
        },
        {
          "indexed": true,
          "internalType": "uint256",
          "name": "tokenId",
          "type": "uint256"
        }
      ],
      "name": "Transfer",
      "type": "event"
    },
    {
      "inputs": [],
      "name": "DEFAULT_ADMIN_ROLE",
      "outputs": [
        {
          "internalType": "bytes32",
          "name": "",
          "type": "bytes32"
        }
      ],
      "stateMutability": "view",
      "type": "function"
    },
    {
      "inputs": [],
      "name": "WHITELIST_ROLE",
      "outputs": [
        {
          "internalType": "bytes32",
          "name": "",
          "type": "bytes32"
        }
      ],
      "stateMutability": "view",
      "type": "function"
    },
    {
      "inputs": [],
      "name": "WITHDRAWAL_ROLE",
      "outputs": [
        {
          "internalType": "bytes32",
          "name": "",
          "type": "bytes32"
        }
      ],
      "stateMutability": "view",
      "type": "function"
    },
    {
      "inputs": [],
      "name": "activeMint",
      "outputs": [
        {
          "internalType": "bool",
          "name": "",
          "type": "bool"
        }
      ],
      "stateMutability": "view",
      "type": "function"
    },
    {
      "inputs": [],
      "name": "activePresale",
      "outputs": [
        {
          "internalType": "bool",
          "name": "",
          "type": "bool"
        }
      ],
      "stateMutability": "view",
      "type": "function"
    },
    {
      "inputs": [
        {
          "internalType": "address",
          "name": "to",
          "type": "address"
        },
        {
          "internalType": "uint256",
          "name": "tokenId",
          "type": "uint256"
        }
      ],
      "name": "approve",
      "outputs": [],
      "stateMutability": "nonpayable",
      "type": "function"
    },
    {
      "inputs": [
        {
          "internalType": "address",
          "name": "owner",
          "type": "address"
        }
      ],
      "name": "balanceOf",
      "outputs": [
        {
          "internalType": "uint256",
          "name": "",
          "type": "uint256"
        }
      ],
      "stateMutability": "view",
      "type": "function"
    },
    {
      "inputs": [],
      "name": "baseUri",
      "outputs": [
        {
          "internalType": "string",
          "name": "",
          "type": "string"
        }
      ],
      "stateMutability": "view",
      "type": "function"
    },
    {
      "inputs": [
        {
          "internalType": "uint256",
          "name": "tokenId",
          "type": "uint256"
        }
      ],
      "name": "getApproved",
      "outputs": [
        {
          "internalType": "address",
          "name": "",
          "type": "address"
        }
      ],
      "stateMutability": "view",
      "type": "function"
    },
    {
      "inputs": [
        {
          "internalType": "bytes32",
          "name": "role",
          "type": "bytes32"
        }
      ],
      "name": "getRoleAdmin",
      "outputs": [
        {
          "internalType": "bytes32",
          "name": "",
          "type": "bytes32"
        }
      ],
      "stateMutability": "view",
      "type": "function"
    },
    {
      "inputs": [
        {
          "internalType": "bytes32",
          "name": "role",
          "type": "bytes32"
        },
        {
          "internalType": "address",
          "name": "account",
          "type": "address"
        }
      ],
      "name": "grantRole",
      "outputs": [],
      "stateMutability": "nonpayable",
      "type": "function"
    },
    {
      "inputs": [
        {
          "internalType": "bytes32",
          "name": "role",
          "type": "bytes32"
        },
        {
          "internalType": "address",
          "name": "account",
          "type": "address"
        }
      ],
      "name": "hasRole",
      "outputs": [
        {
          "internalType": "bool",
          "name": "",
          "type": "bool"
        }
      ],
      "stateMutability": "view",
      "type": "function"
    },
    {
      "inputs": [
        {
          "internalType": "address",
          "name": "owner",
          "type": "address"
        },
        {
          "internalType": "address",
          "name": "operator",
          "type": "address"
        }
      ],
      "name": "isApprovedForAll",
      "outputs": [
        {
          "internalType": "bool",
          "name": "",
          "type": "bool"
        }
      ],
      "stateMutability": "view",
      "type": "function"
    },
    {
      "inputs": [],
      "name": "maxTokens",
      "outputs": [
        {
          "internalType": "uint256",
          "name": "",
          "type": "uint256"
        }
      ],
      "stateMutability": "view",
      "type": "function"
    },
    {
      "inputs": [],
      "name": "mintCost",
      "outputs": [
        {
          "internalType": "uint256",
          "name": "",
          "type": "uint256"
        }
      ],
      "stateMutability": "view",
      "type": "function"
    },
    {
      "inputs": [],
      "name": "mintPerAddress",
      "outputs": [
        {
          "internalType": "uint256",
          "name": "",
          "type": "uint256"
        }
      ],
      "stateMutability": "view",
      "type": "function"
    },
    {
      "inputs": [],
      "name": "name",
      "outputs": [
        {
          "internalType": "string",
          "name": "",
          "type": "string"
        }
      ],
      "stateMutability": "view",
      "type": "function"
    },
    {
      "inputs": [
        {
          "internalType": "uint256",
          "name": "tokenId",
          "type": "uint256"
        }
      ],
      "name": "ownerOf",
      "outputs": [
        {
          "internalType": "address",
          "name": "",
          "type": "address"
        }
      ],
      "stateMutability": "view",
      "type": "function"
    },
    {
      "inputs": [],
      "name": "presaleCost",
      "outputs": [
        {
          "internalType": "uint256",
          "name": "",
          "type": "uint256"
        }
      ],
      "stateMutability": "view",
      "type": "function"
    },
    {
      "inputs": [
        {
          "internalType": "bytes32",
          "name": "role",
          "type": "bytes32"
        },
        {
          "internalType": "address",
          "name": "account",
          "type": "address"
        }
      ],
      "name": "renounceRole",
      "outputs": [],
      "stateMutability": "nonpayable",
      "type": "function"
    },
    {
      "inputs": [
        {
          "internalType": "bytes32",
          "name": "role",
          "type": "bytes32"
        },
        {
          "internalType": "address",
          "name": "account",
          "type": "address"
        }
      ],
      "name": "revokeRole",
      "outputs": [],
      "stateMutability": "nonpayable",
      "type": "function"
    },
    {
      "inputs": [
        {
          "internalType": "address",
          "name": "from",
          "type": "address"
        },
        {
          "internalType": "address",
          "name": "to",
          "type": "address"
        },
        {
          "internalType": "uint256",
          "name": "tokenId",
          "type": "uint256"
        }
      ],
      "name": "safeTransferFrom",
      "outputs": [],
      "stateMutability": "nonpayable",
      "type": "function"
    },
    {
      "inputs": [
        {
          "internalType": "address",
          "name": "from",
          "type": "address"
        },
        {
          "internalType": "address",
          "name": "to",
          "type": "address"
        },
        {
          "internalType": "uint256",
          "name": "tokenId",
          "type": "uint256"
        },
        {
          "internalType": "bytes",
          "name": "_data",
          "type": "bytes"
        }
      ],
      "name": "safeTransferFrom",
      "outputs": [],
      "stateMutability": "nonpayable",
      "type": "function"
    },
    {
      "inputs": [
        {
          "internalType": "address",
          "name": "operator",
          "type": "address"
        },
        {
          "internalType": "bool",
          "name": "approved",
          "type": "bool"
        }
      ],
      "name": "setApprovalForAll",
      "outputs": [],
      "stateMutability": "nonpayable",
      "type": "function"
    },
    {
      "inputs": [],
      "name": "symbol",
      "outputs": [
        {
          "internalType": "string",
          "name": "",
          "type": "string"
        }
      ],
      "stateMutability": "view",
      "type": "function"
    },
    {
      "inputs": [],
      "name": "teamAddress",
      "outputs": [
        {
          "internalType": "address",
          "name": "",
          "type": "address"
        }
      ],
      "stateMutability": "view",
      "type": "function"
    },
    {
      "inputs": [],
      "name": "totalSupply",
      "outputs": [
        {
          "internalType": "uint256",
          "name": "",
          "type": "uint256"
        }
      ],
      "stateMutability": "view",
      "type": "function"
    },
    {
      "inputs": [
        {
          "internalType": "address",
          "name": "from",
          "type": "address"
        },
        {
          "internalType": "address",
          "name": "to",
          "type": "address"
        },
        {
          "internalType": "uint256",
          "name": "tokenId",
          "type": "uint256"
        }
      ],
      "name": "transferFrom",
      "outputs": [],
      "stateMutability": "nonpayable",
      "type": "function"
    },
    {
      "inputs": [
        {
          "internalType": "address[]",
          "name": "members",
          "type": "address[]"
        }
      ],
      "name": "addWhitelist",
      "outputs": [],
      "stateMutability": "nonpayable",
      "type": "function"
    },
    {
      "inputs": [
        {
          "internalType": "address",
          "name": "recipient",
          "type": "address"
        },
        {
          "internalType": "uint256",
          "name": "amount",
          "type": "uint256"
        }
      ],
      "name": "devClaim",
      "outputs": [],
      "stateMutability": "nonpayable",
      "type": "function"
    },
    {
      "inputs": [
        {
          "internalType": "uint256",
          "name": "amount",
          "type": "uint256"
        }
      ],
      "name": "mint",
      "outputs": [],
      "stateMutability": "payable",
      "type": "function"
    },
    {
      "inputs": [
        {
          "internalType": "uint256",
          "name": "amount",
          "type": "uint256"
        }
      ],
      "name": "presaleMint",
      "outputs": [],
      "stateMutability": "payable",
      "type": "function"
    },
    {
      "inputs": [
        {
          "internalType": "string",
          "name": "_baseUri",
          "type": "string"
        }
      ],
      "name": "setBaseUri",
      "outputs": [],
      "stateMutability": "nonpayable",
      "type": "function"
    },
    {
      "inputs": [
        {
          "internalType": "uint256",
          "name": "max",
          "type": "uint256"
        }
      ],
      "name": "setMaxTokens",
      "outputs": [],
      "stateMutability": "nonpayable",
      "type": "function"
    },
    {
      "inputs": [
        {
          "internalType": "address",
          "name": "_owner",
          "type": "address"
        }
      ],
      "name": "tokensOfOwner",
      "outputs": [
        {
          "internalType": "uint256[]",
          "name": "",
          "type": "uint256[]"
        }
      ],
      "stateMutability": "view",
      "type": "function"
    },
    {
      "inputs": [
        {
          "internalType": "uint256",
          "name": "tokenId",
          "type": "uint256"
        }
      ],
      "name": "tokenURI",
      "outputs": [
        {
          "internalType": "string",
          "name": "",
          "type": "string"
        }
      ],
      "stateMutability": "view",
      "type": "function"
    },
    {
      "inputs": [],
      "name": "toggleMint",
      "outputs": [],
      "stateMutability": "nonpayable",
      "type": "function"
    },
    {
      "inputs": [],
      "name": "togglePresale",
      "outputs": [],
      "stateMutability": "nonpayable",
      "type": "function"
    },
    {
      "inputs": [],
      "name": "withdraw",
      "outputs": [],
      "stateMutability": "payable",
      "type": "function"
    },
    {
      "inputs": [
        {
          "internalType": "bytes4",
          "name": "interfaceId",
          "type": "bytes4"
        }
      ],
      "name": "supportsInterface",
      "outputs": [
        {
          "internalType": "bool",
          "name": "",
          "type": "bool"
        }
      ],
      "stateMutability": "view",
      "type": "function"
    }
  ],
  "bytecode": "0x60806040526000600960006101000a81548160ff0219169083151502179055506000600960016101000a81548160ff0219169083151502179055506003600a556115b3600f553480156200005257600080fd5b506040516200496838038062004968833981810160405281019062000078919062000511565b6040518060400160405280601181526020017f436f6c64204265686176696f72204e46540000000000000000000000000000008152506040518060400160405280600381526020017f43424e00000000000000000000000000000000000000000000000000000000008152508160029080519060200190620000fc929190620003f7565b50806003908051906020019062000115929190620003f7565b50620001266200028d60201b60201c565b6000819055505050620001436000801b336200029260201b60201c565b6040518060400160405280601e81526020017f68747470733a2f2f697066732e636f6c646265686176696f722e636f6d2f0000815250600e908051906020019062000190929190620003f7565b5080600d60006101000a81548173ffffffffffffffffffffffffffffffffffffffff021916908373ffffffffffffffffffffffffffffffffffffffff16021790555060014614620001e857655af3107a4000620001f2565b67025bf6196bd100005b67ffffffffffffffff16600b81905550600146146200021857655af3107a400062000222565b670214e8348c4f00005b67ffffffffffffffff16600c81905550620002867f0744af9828f5bfd2e0f842fd62674fe7c160a394d457c33e1a56eeae3a44a9ef600d60009054906101000a900473ffffffffffffffffffffffffffffffffffffffff166200029260201b60201c565b50620005a8565b600090565b620002a482826200038460201b60201c565b620003805760016008600084815260200190815260200160002060000160008373ffffffffffffffffffffffffffffffffffffffff1673ffffffffffffffffffffffffffffffffffffffff16815260200190815260200160002060006101000a81548160ff02191690831515021790555062000325620003ef60201b60201c565b73ffffffffffffffffffffffffffffffffffffffff168173ffffffffffffffffffffffffffffffffffffffff16837f2f8788117e7eff1d82e926ec794901d17c78024a50270940304540a733656f0d60405160405180910390a45b5050565b60006008600084815260200190815260200160002060000160008373ffffffffffffffffffffffffffffffffffffffff1673ffffffffffffffffffffffffffffffffffffffff16815260200190815260200160002060009054906101000a900460ff16905092915050565b600033905090565b828054620004059062000572565b90600052602060002090601f01602090048101928262000429576000855562000475565b82601f106200044457805160ff191683800117855562000475565b8280016001018555821562000475579182015b828111156200047457825182559160200191906001019062000457565b5b50905062000484919062000488565b5090565b5b80821115620004a357600081600090555060010162000489565b5090565b600080fd5b600073ffffffffffffffffffffffffffffffffffffffff82169050919050565b6000620004d982620004ac565b9050919050565b620004eb81620004cc565b8114620004f757600080fd5b50565b6000815190506200050b81620004e0565b92915050565b6000602082840312156200052a5762000529620004a7565b5b60006200053a84828501620004fa565b91505092915050565b7f4e487b7100000000000000000000000000000000000000000000000000000000600052602260045260246000fd5b600060028204905060018216806200058b57607f821691505b60208210811415620005a257620005a162000543565b5b50919050565b6143b080620005b86000396000f3fe60806040526004361061023b5760003560e01c806391d148541161012e578063bdb4b848116100ab578063d89859df1161006f578063d89859df14610836578063e83157421461085f578063e985e9c51461088a578063edac985b146108c7578063f47a269c146108f05761023b565b8063bdb4b84814610772578063c87b56dd1461079d578063c9b298f1146107da578063d3dd5fe0146107f6578063d547741f1461080d5761023b565b8063a217fddf116100f2578063a217fddf1461069f578063a22cb465146106ca578063b1eb4582146106f3578063b3e47ba31461071e578063b88d4fde146107495761023b565b806391d14854146105c757806395d89b41146106045780639abc83201461062f578063a0712d681461065a578063a0bcfc7f146106765761023b565b80632f2ff15d116101bc5780636352211e116101805780636352211e146104ba57806367db90c2146104f757806370a08231146105225780637a997ab71461055f5780638462151c1461058a5761023b565b80632f2ff15d1461041e578063343937431461044757806336568abe1461045e5780633ccfd60b1461048757806342842e0e146104915761023b565b806318160ddd1161020357806318160ddd146103375780631c75f0851461036257806323b872dd1461038d578063248a9ca3146103b65780632a23d07d146103f35761023b565b806301ffc9a71461024057806306fdde031461027d578063081812fc146102a8578063095ea7b3146102e557806311e776fe1461030e575b600080fd5b34801561024c57600080fd5b50610267600480360381019061026291906131b0565b61091b565b60405161027491906131f8565b60405180910390f35b34801561028957600080fd5b5061029261092d565b60405161029f91906132ac565b60405180910390f35b3480156102b457600080fd5b506102cf60048036038101906102ca9190613304565b6109bf565b6040516102dc9190613372565b60405180910390f35b3480156102f157600080fd5b5061030c600480360381019061030791906133b9565b610a3b565b005b34801561031a57600080fd5b5061033560048036038101906103309190613304565b610b46565b005b34801561034357600080fd5b5061034c610baf565b6040516103599190613408565b60405180910390f35b34801561036e57600080fd5b50610377610bc6565b6040516103849190613372565b60405180910390f35b34801561039957600080fd5b506103b460048036038101906103af9190613423565b610bec565b005b3480156103c257600080fd5b506103dd60048036038101906103d891906134ac565b610bfc565b6040516103ea91906134e8565b60405180910390f35b3480156103ff57600080fd5b50610408610c1c565b6040516104159190613408565b60405180910390f35b34801561042a57600080fd5b5061044560048036038101906104409190613503565b610c22565b005b34801561045357600080fd5b5061045c610c4b565b005b34801561046a57600080fd5b5061048560048036038101906104809190613503565b610c95565b005b61048f610d18565b005b34801561049d57600080fd5b506104b860048036038101906104b39190613423565b610d94565b005b3480156104c657600080fd5b506104e160048036038101906104dc9190613304565b610db4565b6040516104ee9190613372565b60405180910390f35b34801561050357600080fd5b5061050c610dca565b60405161051991906134e8565b60405180910390f35b34801561052e57600080fd5b5061054960048036038101906105449190613543565b610dee565b6040516105569190613408565b60405180910390f35b34801561056b57600080fd5b50610574610ebe565b60405161058191906134e8565b60405180910390f35b34801561059657600080fd5b506105b160048036038101906105ac9190613543565b610ee2565b6040516105be919061362e565b60405180910390f35b3480156105d357600080fd5b506105ee60048036038101906105e99190613503565b611037565b6040516105fb91906131f8565b60405180910390f35b34801561061057600080fd5b506106196110a2565b60405161062691906132ac565b60405180910390f35b34801561063b57600080fd5b50610644611134565b60405161065191906132ac565b60405180910390f35b610674600480360381019061066f9190613304565b6111c2565b005b34801561068257600080fd5b5061069d60048036038101906106989190613785565b6112cb565b005b3480156106ab57600080fd5b506106b46112fb565b6040516106c191906134e8565b60405180910390f35b3480156106d657600080fd5b506106f160048036038101906106ec91906137fa565b611302565b005b3480156106ff57600080fd5b5061070861147a565b60405161071591906131f8565b60405180910390f35b34801561072a57600080fd5b5061073361148d565b60405161074091906131f8565b60405180910390f35b34801561075557600080fd5b50610770600480360381019061076b91906138db565b6114a0565b005b34801561077e57600080fd5b5061078761151c565b6040516107949190613408565b60405180910390f35b3480156107a957600080fd5b506107c460048036038101906107bf9190613304565b611522565b6040516107d191906132ac565b60405180910390f35b6107f460048036038101906107ef9190613304565b611695565b005b34801561080257600080fd5b5061080b6117d1565b005b34801561081957600080fd5b50610834600480360381019061082f9190613503565b61181b565b005b34801561084257600080fd5b5061085d600480360381019061085891906133b9565b611844565b005b34801561086b57600080fd5b506108746118c6565b6040516108819190613408565b60405180910390f35b34801561089657600080fd5b506108b160048036038101906108ac919061395e565b6118cc565b6040516108be91906131f8565b60405180910390f35b3480156108d357600080fd5b506108ee60048036038101906108e991906139fe565b611960565b005b3480156108fc57600080fd5b50610905611a43565b6040516109129190613408565b60405180910390f35b600061092682611a49565b9050919050565b60606002805461093c90613a7a565b80601f016020809104026020016040519081016040528092919081815260200182805461096890613a7a565b80156109b55780601f1061098a576101008083540402835291602001916109b5565b820191906000526020600020905b81548152906001019060200180831161099857829003601f168201915b5050505050905090565b60006109ca82611ac3565b610a00576040517fcf4700e400000000000000000000000000000000000000000000000000000000815260040160405180910390fd5b6006600083815260200190815260200160002060009054906101000a900473ffffffffffffffffffffffffffffffffffffffff169050919050565b6000610a4682610db4565b90508073ffffffffffffffffffffffffffffffffffffffff168373ffffffffffffffffffffffffffffffffffffffff161415610aae576040517f943f7b8c00000000000000000000000000000000000000000000000000000000815260040160405180910390fd5b8073ffffffffffffffffffffffffffffffffffffffff16610acd611b11565b73ffffffffffffffffffffffffffffffffffffffff1614158015610aff5750610afd81610af8611b11565b6118cc565b155b15610b36576040517fcfb3b94200000000000000000000000000000000000000000000000000000000815260040160405180910390fd5b610b41838383611b19565b505050565b6000801b610b5b81610b56611b11565b611bcb565b610b63610baf565b8211610ba4576040517f08c379a0000000000000000000000000000000000000000000000000000000008152600401610b9b90613b1e565b60405180910390fd5b81600f819055505050565b6000610bb9611c68565b6001546000540303905090565b600d60009054906101000a900473ffffffffffffffffffffffffffffffffffffffff1681565b610bf7838383611c6d565b505050565b600060086000838152602001908152602001600020600101549050919050565b600c5481565b610c2b82610bfc565b610c3c81610c37611b11565b611bcb565b610c468383612123565b505050565b6000801b610c6081610c5b611b11565b611bcb565b600960019054906101000a900460ff1615600960016101000a81548160ff0219169083151502179055506003600a8190555050565b610c9d611b11565b73ffffffffffffffffffffffffffffffffffffffff168173ffffffffffffffffffffffffffffffffffffffff1614610d0a576040517f08c379a0000000000000000000000000000000000000000000000000000000008152600401610d0190613bb0565b60405180910390fd5b610d148282612204565b5050565b7f0744af9828f5bfd2e0f842fd62674fe7c160a394d457c33e1a56eeae3a44a9ef610d4a81610d45611b11565b611bcb565b3373ffffffffffffffffffffffffffffffffffffffff166108fc479081150290604051600060405180830381858888f19350505050158015610d90573d6000803e3d6000fd5b5050565b610daf838383604051806020016040528060008152506114a0565b505050565b6000610dbf826122e6565b600001519050919050565b7f0744af9828f5bfd2e0f842fd62674fe7c160a394d457c33e1a56eeae3a44a9ef81565b60008073ffffffffffffffffffffffffffffffffffffffff168273ffffffffffffffffffffffffffffffffffffffff161415610e56576040517f8f4eb60400000000000000000000000000000000000000000000000000000000815260040160405180910390fd5b600560008373ffffffffffffffffffffffffffffffffffffffff1673ffffffffffffffffffffffffffffffffffffffff16815260200190815260200160002060000160009054906101000a900467ffffffffffffffff1667ffffffffffffffff169050919050565b7fdc72ed553f2544c34465af23b847953efeb813428162d767f9ba5f4013be676081565b60606000610eee610baf565b90506000811415610f4b57600067ffffffffffffffff811115610f1457610f1361365a565b5b604051908082528060200260200182016040528015610f425781602001602082028036833780820191505090505b50915050611032565b60008167ffffffffffffffff811115610f6757610f6661365a565b5b604051908082528060200260200182016040528015610f955781602001602082028036833780820191505090505b50905060008060009050600091505b8382101561102a578573ffffffffffffffffffffffffffffffffffffffff16610fcc83610db4565b73ffffffffffffffffffffffffffffffffffffffff1614156110175781838281518110610ffc57610ffb613bd0565b5b602002602001018181525050808061101390613c2e565b9150505b818061102290613c2e565b925050610fa4565b829450505050505b919050565b60006008600084815260200190815260200160002060000160008373ffffffffffffffffffffffffffffffffffffffff1673ffffffffffffffffffffffffffffffffffffffff16815260200190815260200160002060009054906101000a900460ff16905092915050565b6060600380546110b190613a7a565b80601f01602080910402602001604051908101604052809291908181526020018280546110dd90613a7a565b801561112a5780601f106110ff5761010080835404028352916020019161112a565b820191906000526020600020905b81548152906001019060200180831161110d57829003601f168201915b5050505050905090565b600e805461114190613a7a565b80601f016020809104026020016040519081016040528092919081815260200182805461116d90613a7a565b80156111ba5780601f1061118f576101008083540402835291602001916111ba565b820191906000526020600020905b81548152906001019060200180831161119d57829003601f168201915b505050505081565b600960009054906101000a900460ff16611211576040517f08c379a000000000000000000000000000000000000000000000000000000000815260040161120890613cc3565b60405180910390fd5b600b548161121f9190613ce3565b3414611260576040517f08c379a000000000000000000000000000000000000000000000000000000000815260040161125790613daf565b60405180910390fd5b600061126b33610dee565b9050600a54818361127c9190613dcf565b11156112bd576040517f08c379a00000000000000000000000000000000000000000000000000000000081526004016112b490613e71565b60405180910390fd5b6112c73383612575565b5050565b6000801b6112e0816112db611b11565b611bcb565b81600e90805190602001906112f692919061305e565b505050565b6000801b81565b61130a611b11565b73ffffffffffffffffffffffffffffffffffffffff168273ffffffffffffffffffffffffffffffffffffffff16141561136f576040517fb06307db00000000000000000000000000000000000000000000000000000000815260040160405180910390fd5b806007600061137c611b11565b73ffffffffffffffffffffffffffffffffffffffff1673ffffffffffffffffffffffffffffffffffffffff16815260200190815260200160002060008473ffffffffffffffffffffffffffffffffffffffff1673ffffffffffffffffffffffffffffffffffffffff16815260200190815260200160002060006101000a81548160ff0219169083151502179055508173ffffffffffffffffffffffffffffffffffffffff16611429611b11565b73ffffffffffffffffffffffffffffffffffffffff167f17307eab39ab6107e8899845ad3d59bd9653f200f220920489ca2b5937696c318360405161146e91906131f8565b60405180910390a35050565b600960009054906101000a900460ff1681565b600960019054906101000a900460ff1681565b6114ab848484611c6d565b6114ca8373ffffffffffffffffffffffffffffffffffffffff16612593565b80156114df57506114dd848484846125a6565b155b15611516576040517fd1a57ed600000000000000000000000000000000000000000000000000000000815260040160405180910390fd5b50505050565b600b5481565b606061152d82611ac3565b61156c576040517f08c379a000000000000000000000000000000000000000000000000000000000815260040161156390613f03565b60405180910390fd5b600060106000848152602001908152602001600020805461158c90613a7a565b80601f01602080910402602001604051908101604052809291908181526020018280546115b890613a7a565b80156116055780601f106115da57610100808354040283529160200191611605565b820191906000526020600020905b8154815290600101906020018083116115e857829003601f168201915b5050505050905060006116166126f7565b905060008151141561162c578192505050611690565b600082511115611661578082604051602001611649929190613f5f565b60405160208183030381529060405292505050611690565b8061166b85612789565b60405160200161167c929190613fcf565b604051602081830303815290604052925050505b919050565b7fdc72ed553f2544c34465af23b847953efeb813428162d767f9ba5f4013be67606116c7816116c2611b11565b611bcb565b600960019054906101000a900460ff16611716576040517f08c379a000000000000000000000000000000000000000000000000000000000815260040161170d9061404a565b60405180910390fd5b600c54826117249190613ce3565b3414611765576040517f08c379a000000000000000000000000000000000000000000000000000000000815260040161175c90613daf565b60405180910390fd5b600061177033610dee565b9050600a5481846117819190613dcf565b11156117c2576040517f08c379a00000000000000000000000000000000000000000000000000000000081526004016117b990613e71565b60405180910390fd5b6117cc3384612575565b505050565b6000801b6117e6816117e1611b11565b611bcb565b600960009054906101000a900460ff1615600960006101000a81548160ff0219169083151502179055506005600a8190555050565b61182482610bfc565b61183581611830611b11565b611bcb565b61183f8383612204565b505050565b6000801b61185981611854611b11565b611bcb565b600061186433610dee565b9050600a5481846118759190613dcf565b11156118b6576040517f08c379a00000000000000000000000000000000000000000000000000000000081526004016118ad90613e71565b60405180910390fd5b6118c08484612575565b50505050565b600f5481565b6000600760008473ffffffffffffffffffffffffffffffffffffffff1673ffffffffffffffffffffffffffffffffffffffff16815260200190815260200160002060008373ffffffffffffffffffffffffffffffffffffffff1673ffffffffffffffffffffffffffffffffffffffff16815260200190815260200160002060009054906101000a900460ff16905092915050565b6000801b61197581611970611b11565b611bcb565b60005b83839050811015611a3d576119d47fdc72ed553f2544c34465af23b847953efeb813428162d767f9ba5f4013be67608585848181106119ba576119b9613bd0565b5b90506020020160208101906119cf9190613543565b611037565b611a2a57611a297fdc72ed553f2544c34465af23b847953efeb813428162d767f9ba5f4013be6760858584818110611a0f57611a0e613bd0565b5b9050602002016020810190611a249190613543565b612123565b5b8080611a3590613c2e565b915050611978565b50505050565b600a5481565b60007f7965db0b000000000000000000000000000000000000000000000000000000007bffffffffffffffffffffffffffffffffffffffffffffffffffffffff1916827bffffffffffffffffffffffffffffffffffffffffffffffffffffffff19161480611abc5750611abb826128ea565b5b9050919050565b600081611ace611c68565b11158015611add575060005482105b8015611b0a575060046000838152602001908152602001600020600001601c9054906101000a900460ff16155b9050919050565b600033905090565b826006600084815260200190815260200160002060006101000a81548173ffffffffffffffffffffffffffffffffffffffff021916908373ffffffffffffffffffffffffffffffffffffffff160217905550818373ffffffffffffffffffffffffffffffffffffffff168273ffffffffffffffffffffffffffffffffffffffff167f8c5be1e5ebec7d5bd14f71427d1e84f3dd0314c0f7b2291e5b200ac8c7c3b92560405160405180910390a4505050565b611bd58282611037565b611c6457611bfa8173ffffffffffffffffffffffffffffffffffffffff1660146129cc565b611c088360001c60206129cc565b604051602001611c19929190614102565b6040516020818303038152906040526040517f08c379a0000000000000000000000000000000000000000000000000000000008152600401611c5b91906132ac565b60405180910390fd5b5050565b600090565b6000611c78826122e6565b90508373ffffffffffffffffffffffffffffffffffffffff16816000015173ffffffffffffffffffffffffffffffffffffffff1614611ce3576040517fa114810000000000000000000000000000000000000000000000000000000000815260040160405180910390fd5b60008473ffffffffffffffffffffffffffffffffffffffff16611d04611b11565b73ffffffffffffffffffffffffffffffffffffffff161480611d335750611d3285611d2d611b11565b6118cc565b5b80611d785750611d41611b11565b73ffffffffffffffffffffffffffffffffffffffff16611d60846109bf565b73ffffffffffffffffffffffffffffffffffffffff16145b905080611db1576040517f59c896be00000000000000000000000000000000000000000000000000000000815260040160405180910390fd5b600073ffffffffffffffffffffffffffffffffffffffff168473ffffffffffffffffffffffffffffffffffffffff161415611e18576040517fea553b3400000000000000000000000000000000000000000000000000000000815260040160405180910390fd5b611e258585856001612c08565b611e3160008487611b19565b6001600560008773ffffffffffffffffffffffffffffffffffffffff1673ffffffffffffffffffffffffffffffffffffffff16815260200190815260200160002060000160008282829054906101000a900467ffffffffffffffff160392506101000a81548167ffffffffffffffff021916908367ffffffffffffffff1602179055506001600560008673ffffffffffffffffffffffffffffffffffffffff1673ffffffffffffffffffffffffffffffffffffffff16815260200190815260200160002060000160008282829054906101000a900467ffffffffffffffff160192506101000a81548167ffffffffffffffff021916908367ffffffffffffffff1602179055506000600460008581526020019081526020016000209050848160000160006101000a81548173ffffffffffffffffffffffffffffffffffffffff021916908373ffffffffffffffffffffffffffffffffffffffff160217905550428160000160146101000a81548167ffffffffffffffff021916908367ffffffffffffffff16021790555060006001850190506000600460008381526020019081526020016000209050600073ffffffffffffffffffffffffffffffffffffffff168160000160009054906101000a900473ffffffffffffffffffffffffffffffffffffffff1673ffffffffffffffffffffffffffffffffffffffff1614156120b15760005482146120b057878160000160006101000a81548173ffffffffffffffffffffffffffffffffffffffff021916908373ffffffffffffffffffffffffffffffffffffffff16021790555084602001518160000160146101000a81548167ffffffffffffffff021916908367ffffffffffffffff1602179055505b5b505050828473ffffffffffffffffffffffffffffffffffffffff168673ffffffffffffffffffffffffffffffffffffffff167fddf252ad1be2c89b69c2b068fc378daa952ba7f163c4a11628f55a4df523b3ef60405160405180910390a461211c8585856001612c0e565b5050505050565b61212d8282611037565b6122005760016008600084815260200190815260200160002060000160008373ffffffffffffffffffffffffffffffffffffffff1673ffffffffffffffffffffffffffffffffffffffff16815260200190815260200160002060006101000a81548160ff0219169083151502179055506121a5611b11565b73ffffffffffffffffffffffffffffffffffffffff168173ffffffffffffffffffffffffffffffffffffffff16837f2f8788117e7eff1d82e926ec794901d17c78024a50270940304540a733656f0d60405160405180910390a45b5050565b61220e8282611037565b156122e25760006008600084815260200190815260200160002060000160008373ffffffffffffffffffffffffffffffffffffffff1673ffffffffffffffffffffffffffffffffffffffff16815260200190815260200160002060006101000a81548160ff021916908315150217905550612287611b11565b73ffffffffffffffffffffffffffffffffffffffff168173ffffffffffffffffffffffffffffffffffffffff16837ff6391f5c32d9c69d2a47ea670b442974b53935d1edc7fd64eb21e047a839171b60405160405180910390a45b5050565b6122ee6130e4565b6000829050806122fc611c68565b1115801561230b575060005481105b1561253e576000600460008381526020019081526020016000206040518060600160405290816000820160009054906101000a900473ffffffffffffffffffffffffffffffffffffffff1673ffffffffffffffffffffffffffffffffffffffff1673ffffffffffffffffffffffffffffffffffffffff1681526020016000820160149054906101000a900467ffffffffffffffff1667ffffffffffffffff1667ffffffffffffffff16815260200160008201601c9054906101000a900460ff1615151515815250509050806040015161253c57600073ffffffffffffffffffffffffffffffffffffffff16816000015173ffffffffffffffffffffffffffffffffffffffff1614612420578092505050612570565b5b60011561253b57818060019003925050600460008381526020019081526020016000206040518060600160405290816000820160009054906101000a900473ffffffffffffffffffffffffffffffffffffffff1673ffffffffffffffffffffffffffffffffffffffff1673ffffffffffffffffffffffffffffffffffffffff1681526020016000820160149054906101000a900467ffffffffffffffff1667ffffffffffffffff1667ffffffffffffffff16815260200160008201601c9054906101000a900460ff1615151515815250509050600073ffffffffffffffffffffffffffffffffffffffff16816000015173ffffffffffffffffffffffffffffffffffffffff1614612536578092505050612570565b612421565b5b505b6040517fdf2d9b4200000000000000000000000000000000000000000000000000000000815260040160405180910390fd5b919050565b61258f828260405180602001604052806000815250612c14565b5050565b600080823b905060008111915050919050565b60008373ffffffffffffffffffffffffffffffffffffffff1663150b7a026125cc611b11565b8786866040518563ffffffff1660e01b81526004016125ee9493929190614191565b6020604051808303816000875af192505050801561262a57506040513d601f19601f8201168201806040525081019061262791906141f2565b60015b6126a4573d806000811461265a576040519150601f19603f3d011682016040523d82523d6000602084013e61265f565b606091505b5060008151141561269c576040517fd1a57ed600000000000000000000000000000000000000000000000000000000815260040160405180910390fd5b805181602001fd5b63150b7a0260e01b7bffffffffffffffffffffffffffffffffffffffffffffffffffffffff1916817bffffffffffffffffffffffffffffffffffffffffffffffffffffffff191614915050949350505050565b6060600e805461270690613a7a565b80601f016020809104026020016040519081016040528092919081815260200182805461273290613a7a565b801561277f5780601f106127545761010080835404028352916020019161277f565b820191906000526020600020905b81548152906001019060200180831161276257829003601f168201915b5050505050905090565b606060008214156127d1576040518060400160405280600181526020017f300000000000000000000000000000000000000000000000000000000000000081525090506128e5565b600082905060005b600082146128035780806127ec90613c2e565b915050600a826127fc919061424e565b91506127d9565b60008167ffffffffffffffff81111561281f5761281e61365a565b5b6040519080825280601f01601f1916602001820160405280156128515781602001600182028036833780820191505090505b5090505b600085146128de5760018261286a919061427f565b9150600a8561287991906142b3565b60306128859190613dcf565b60f81b81838151811061289b5761289a613bd0565b5b60200101907effffffffffffffffffffffffffffffffffffffffffffffffffffffffffffff1916908160001a905350600a856128d7919061424e565b9450612855565b8093505050505b919050565b60007f80ac58cd000000000000000000000000000000000000000000000000000000007bffffffffffffffffffffffffffffffffffffffffffffffffffffffff1916827bffffffffffffffffffffffffffffffffffffffffffffffffffffffff191614806129b557507f5b5e139f000000000000000000000000000000000000000000000000000000007bffffffffffffffffffffffffffffffffffffffffffffffffffffffff1916827bffffffffffffffffffffffffffffffffffffffffffffffffffffffff1916145b806129c557506129c482612c26565b5b9050919050565b6060600060028360026129df9190613ce3565b6129e99190613dcf565b67ffffffffffffffff811115612a0257612a0161365a565b5b6040519080825280601f01601f191660200182016040528015612a345781602001600182028036833780820191505090505b5090507f300000000000000000000000000000000000000000000000000000000000000081600081518110612a6c57612a6b613bd0565b5b60200101907effffffffffffffffffffffffffffffffffffffffffffffffffffffffffffff1916908160001a9053507f780000000000000000000000000000000000000000000000000000000000000081600181518110612ad057612acf613bd0565b5b60200101907effffffffffffffffffffffffffffffffffffffffffffffffffffffffffffff1916908160001a90535060006001846002612b109190613ce3565b612b1a9190613dcf565b90505b6001811115612bba577f3031323334353637383961626364656600000000000000000000000000000000600f861660108110612b5c57612b5b613bd0565b5b1a60f81b828281518110612b7357612b72613bd0565b5b60200101907effffffffffffffffffffffffffffffffffffffffffffffffffffffffffffff1916908160001a905350600485901c945080612bb3906142e4565b9050612b1d565b5060008414612bfe576040517f08c379a0000000000000000000000000000000000000000000000000000000008152600401612bf59061435a565b60405180910390fd5b8091505092915050565b50505050565b50505050565b612c218383836001612c90565b505050565b60007f01ffc9a7000000000000000000000000000000000000000000000000000000007bffffffffffffffffffffffffffffffffffffffffffffffffffffffff1916827bffffffffffffffffffffffffffffffffffffffffffffffffffffffff1916149050919050565b600080549050600073ffffffffffffffffffffffffffffffffffffffff168573ffffffffffffffffffffffffffffffffffffffff161415612cfd576040517f2e07630000000000000000000000000000000000000000000000000000000000815260040160405180910390fd5b6000841415612d38576040517fb562e8dd00000000000000000000000000000000000000000000000000000000815260040160405180910390fd5b612d456000868387612c08565b83600560008773ffffffffffffffffffffffffffffffffffffffff1673ffffffffffffffffffffffffffffffffffffffff16815260200190815260200160002060000160008282829054906101000a900467ffffffffffffffff160192506101000a81548167ffffffffffffffff021916908367ffffffffffffffff16021790555083600560008773ffffffffffffffffffffffffffffffffffffffff1673ffffffffffffffffffffffffffffffffffffffff16815260200190815260200160002060000160088282829054906101000a900467ffffffffffffffff160192506101000a81548167ffffffffffffffff021916908367ffffffffffffffff160217905550846004600083815260200190815260200160002060000160006101000a81548173ffffffffffffffffffffffffffffffffffffffff021916908373ffffffffffffffffffffffffffffffffffffffff160217905550426004600083815260200190815260200160002060000160146101000a81548167ffffffffffffffff021916908367ffffffffffffffff160217905550600081905060008582019050838015612f0f5750612f0e8773ffffffffffffffffffffffffffffffffffffffff16612593565b5b15612fd5575b818773ffffffffffffffffffffffffffffffffffffffff16600073ffffffffffffffffffffffffffffffffffffffff167fddf252ad1be2c89b69c2b068fc378daa952ba7f163c4a11628f55a4df523b3ef60405160405180910390a4612f8460008884806001019550886125a6565b612fba576040517fd1a57ed600000000000000000000000000000000000000000000000000000000815260040160405180910390fd5b80821415612f15578260005414612fd057600080fd5b613041565b5b818060010192508773ffffffffffffffffffffffffffffffffffffffff16600073ffffffffffffffffffffffffffffffffffffffff167fddf252ad1be2c89b69c2b068fc378daa952ba7f163c4a11628f55a4df523b3ef60405160405180910390a480821415612fd6575b8160008190555050506130576000868387612c0e565b5050505050565b82805461306a90613a7a565b90600052602060002090601f01602090048101928261308c57600085556130d3565b82601f106130a557805160ff19168380011785556130d3565b828001600101855582156130d3579182015b828111156130d25782518255916020019190600101906130b7565b5b5090506130e09190613127565b5090565b6040518060600160405280600073ffffffffffffffffffffffffffffffffffffffff168152602001600067ffffffffffffffff1681526020016000151581525090565b5b80821115613140576000816000905550600101613128565b5090565b6000604051905090565b600080fd5b600080fd5b60007fffffffff0000000000000000000000000000000000000000000000000000000082169050919050565b61318d81613158565b811461319857600080fd5b50565b6000813590506131aa81613184565b92915050565b6000602082840312156131c6576131c561314e565b5b60006131d48482850161319b565b91505092915050565b60008115159050919050565b6131f2816131dd565b82525050565b600060208201905061320d60008301846131e9565b92915050565b600081519050919050565b600082825260208201905092915050565b60005b8381101561324d578082015181840152602081019050613232565b8381111561325c576000848401525b50505050565b6000601f19601f8301169050919050565b600061327e82613213565b613288818561321e565b935061329881856020860161322f565b6132a181613262565b840191505092915050565b600060208201905081810360008301526132c68184613273565b905092915050565b6000819050919050565b6132e1816132ce565b81146132ec57600080fd5b50565b6000813590506132fe816132d8565b92915050565b60006020828403121561331a5761331961314e565b5b6000613328848285016132ef565b91505092915050565b600073ffffffffffffffffffffffffffffffffffffffff82169050919050565b600061335c82613331565b9050919050565b61336c81613351565b82525050565b60006020820190506133876000830184613363565b92915050565b61339681613351565b81146133a157600080fd5b50565b6000813590506133b38161338d565b92915050565b600080604083850312156133d0576133cf61314e565b5b60006133de858286016133a4565b92505060206133ef858286016132ef565b9150509250929050565b613402816132ce565b82525050565b600060208201905061341d60008301846133f9565b92915050565b60008060006060848603121561343c5761343b61314e565b5b600061344a868287016133a4565b935050602061345b868287016133a4565b925050604061346c868287016132ef565b9150509250925092565b6000819050919050565b61348981613476565b811461349457600080fd5b50565b6000813590506134a681613480565b92915050565b6000602082840312156134c2576134c161314e565b5b60006134d084828501613497565b91505092915050565b6134e281613476565b82525050565b60006020820190506134fd60008301846134d9565b92915050565b6000806040838503121561351a5761351961314e565b5b600061352885828601613497565b9250506020613539858286016133a4565b9150509250929050565b6000602082840312156135595761355861314e565b5b6000613567848285016133a4565b91505092915050565b600081519050919050565b600082825260208201905092915050565b6000819050602082019050919050565b6135a5816132ce565b82525050565b60006135b7838361359c565b60208301905092915050565b6000602082019050919050565b60006135db82613570565b6135e5818561357b565b93506135f08361358c565b8060005b8381101561362157815161360888826135ab565b9750613613836135c3565b9250506001810190506135f4565b5085935050505092915050565b6000602082019050818103600083015261364881846135d0565b905092915050565b600080fd5b600080fd5b7f4e487b7100000000000000000000000000000000000000000000000000000000600052604160045260246000fd5b61369282613262565b810181811067ffffffffffffffff821117156136b1576136b061365a565b5b80604052505050565b60006136c4613144565b90506136d08282613689565b919050565b600067ffffffffffffffff8211156136f0576136ef61365a565b5b6136f982613262565b9050602081019050919050565b82818337600083830152505050565b6000613728613723846136d5565b6136ba565b90508281526020810184848401111561374457613743613655565b5b61374f848285613706565b509392505050565b600082601f83011261376c5761376b613650565b5b813561377c848260208601613715565b91505092915050565b60006020828403121561379b5761379a61314e565b5b600082013567ffffffffffffffff8111156137b9576137b8613153565b5b6137c584828501613757565b91505092915050565b6137d7816131dd565b81146137e257600080fd5b50565b6000813590506137f4816137ce565b92915050565b600080604083850312156138115761381061314e565b5b600061381f858286016133a4565b9250506020613830858286016137e5565b9150509250929050565b600067ffffffffffffffff8211156138555761385461365a565b5b61385e82613262565b9050602081019050919050565b600061387e6138798461383a565b6136ba565b90508281526020810184848401111561389a57613899613655565b5b6138a5848285613706565b509392505050565b600082601f8301126138c2576138c1613650565b5b81356138d284826020860161386b565b91505092915050565b600080600080608085870312156138f5576138f461314e565b5b6000613903878288016133a4565b9450506020613914878288016133a4565b9350506040613925878288016132ef565b925050606085013567ffffffffffffffff81111561394657613945613153565b5b613952878288016138ad565b91505092959194509250565b600080604083850312156139755761397461314e565b5b6000613983858286016133a4565b9250506020613994858286016133a4565b9150509250929050565b600080fd5b600080fd5b60008083601f8401126139be576139bd613650565b5b8235905067ffffffffffffffff8111156139db576139da61399e565b5b6020830191508360208202830111156139f7576139f66139a3565b5b9250929050565b60008060208385031215613a1557613a1461314e565b5b600083013567ffffffffffffffff811115613a3357613a32613153565b5b613a3f858286016139a8565b92509250509250929050565b7f4e487b7100000000000000000000000000000000000000000000000000000000600052602260045260246000fd5b60006002820490506001821680613a9257607f821691505b60208210811415613aa657613aa5613a4b565b5b50919050565b7f4e6577206d61782063616e6e6f7420657863656564206578697374696e67207360008201527f7570706c79000000000000000000000000000000000000000000000000000000602082015250565b6000613b0860258361321e565b9150613b1382613aac565b604082019050919050565b60006020820190508181036000830152613b3781613afb565b9050919050565b7f416363657373436f6e74726f6c3a2063616e206f6e6c792072656e6f756e636560008201527f20726f6c657320666f722073656c660000000000000000000000000000000000602082015250565b6000613b9a602f8361321e565b9150613ba582613b3e565b604082019050919050565b60006020820190508181036000830152613bc981613b8d565b9050919050565b7f4e487b7100000000000000000000000000000000000000000000000000000000600052603260045260246000fd5b7f4e487b7100000000000000000000000000000000000000000000000000000000600052601160045260246000fd5b6000613c39826132ce565b91507fffffffffffffffffffffffffffffffffffffffffffffffffffffffffffffffff821415613c6c57613c6b613bff565b5b600182019050919050565b7f5075626c6963206d696e7420686173206e6f7420737461727465640000000000600082015250565b6000613cad601b8361321e565b9150613cb882613c77565b602082019050919050565b60006020820190508181036000830152613cdc81613ca0565b9050919050565b6000613cee826132ce565b9150613cf9836132ce565b9250817fffffffffffffffffffffffffffffffffffffffffffffffffffffffffffffffff0483118215151615613d3257613d31613bff565b5b828202905092915050565b7f5472616e73616374696f6e2076616c756520646f6573206e6f74206d6174636860008201527f20746865206d696e7420636f7374000000000000000000000000000000000000602082015250565b6000613d99602e8361321e565b9150613da482613d3d565b604082019050919050565b60006020820190508181036000830152613dc881613d8c565b9050919050565b6000613dda826132ce565b9150613de5836132ce565b9250827fffffffffffffffffffffffffffffffffffffffffffffffffffffffffffffffff03821115613e1a57613e19613bff565b5b828201905092915050565b7f4578636565646564206d696e74696e67206c696d697400000000000000000000600082015250565b6000613e5b60168361321e565b9150613e6682613e25565b602082019050919050565b60006020820190508181036000830152613e8a81613e4e565b9050919050565b7f4552433732314d657461646174613a2055524920717565727920666f72206e6f60008201527f6e6578697374656e7420746f6b656e0000000000000000000000000000000000602082015250565b6000613eed602f8361321e565b9150613ef882613e91565b604082019050919050565b60006020820190508181036000830152613f1c81613ee0565b9050919050565b600081905092915050565b6000613f3982613213565b613f438185613f23565b9350613f5381856020860161322f565b80840191505092915050565b6000613f6b8285613f2e565b9150613f778284613f2e565b91508190509392505050565b7f2e6a736f6e000000000000000000000000000000000000000000000000000000600082015250565b6000613fb9600583613f23565b9150613fc482613f83565b600582019050919050565b6000613fdb8285613f2e565b9150613fe78284613f2e565b9150613ff282613fac565b91508190509392505050565b7f50726573616c65206d696e7420686173206e6f74207374617274656400000000600082015250565b6000614034601c8361321e565b915061403f82613ffe565b602082019050919050565b6000602082019050818103600083015261406381614027565b9050919050565b7f416363657373436f6e74726f6c3a206163636f756e7420000000000000000000600082015250565b60006140a0601783613f23565b91506140ab8261406a565b601782019050919050565b7f206973206d697373696e6720726f6c6520000000000000000000000000000000600082015250565b60006140ec601183613f23565b91506140f7826140b6565b601182019050919050565b600061410d82614093565b91506141198285613f2e565b9150614124826140df565b91506141308284613f2e565b91508190509392505050565b600081519050919050565b600082825260208201905092915050565b60006141638261413c565b61416d8185614147565b935061417d81856020860161322f565b61418681613262565b840191505092915050565b60006080820190506141a66000830187613363565b6141b36020830186613363565b6141c060408301856133f9565b81810360608301526141d28184614158565b905095945050505050565b6000815190506141ec81613184565b92915050565b6000602082840312156142085761420761314e565b5b6000614216848285016141dd565b91505092915050565b7f4e487b7100000000000000000000000000000000000000000000000000000000600052601260045260246000fd5b6000614259826132ce565b9150614264836132ce565b9250826142745761427361421f565b5b828204905092915050565b600061428a826132ce565b9150614295836132ce565b9250828210156142a8576142a7613bff565b5b828203905092915050565b60006142be826132ce565b91506142c9836132ce565b9250826142d9576142d861421f565b5b828206905092915050565b60006142ef826132ce565b9150600082141561430357614302613bff565b5b600182039050919050565b7f537472696e67733a20686578206c656e67746820696e73756666696369656e74600082015250565b600061434460208361321e565b915061434f8261430e565b602082019050919050565b6000602082019050818103600083015261437381614337565b905091905056fea264697066735822122058cad9d6f7549df0ddebe206e84ddb0e83f6a88959fa82c2f9b472fc72661d6364736f6c634300080a0033",
  "immutableReferences": {},
  "source": "// SPDX-License-Identifier: MIT\npragma solidity ^0.8.4;\n\nimport \"erc721a/contracts/erc721a.sol\";\nimport \"@openzeppelin/contracts/access/AccessControl.sol\";\n\ncontract ColdBehaviorNFT is ERC721A, AccessControl {\n    using Strings for uint256;\n\n    bool public activeMint = false;\n    bool public activePresale = false;\n    uint256 public mintPerAddress = 3;\n    uint256 public mintCost;\n    uint256 public presaleCost;\n    bytes32 public constant WHITELIST_ROLE = keccak256(\"WHITELIST_ROLE\");\n    bytes32 public constant WITHDRAWAL_ROLE = keccak256(\"WITHDRAWAL_ROLE\");\n    address public teamAddress;\n\n    string public baseUri;\n    uint256 public maxTokens = 5555;\n\n    // Optional mapping for token URIs\n    mapping(uint256 => string) private _tokenURIs;\n\n    constructor(address _teamAddress) ERC721A(\"Cold Behavior NFT\", \"CBN\") {\n        _grantRole(DEFAULT_ADMIN_ROLE, msg.sender);\n\n        baseUri = \"https://ipfs.coldbehavior.com/\";\n        teamAddress = _teamAddress;\n\n        mintCost = block.chainid == 1 ? 0.17 ether : 0.0001 ether;\n        presaleCost = block.chainid == 1 ? 0.15 ether : 0.0001 ether;\n\n        _grantRole(WITHDRAWAL_ROLE, teamAddress);\n    }\n\n    function _baseURI() internal view override returns (string memory) {\n        return baseUri;\n    }\n\n    function addWhitelist(address[] calldata members)\n        external\n        onlyRole(DEFAULT_ADMIN_ROLE)\n    {\n        for (uint256 x = 0; x < members.length; x++) {\n            if (!hasRole(WHITELIST_ROLE, members[x])) {\n                _grantRole(WHITELIST_ROLE, members[x]);\n            }\n        }\n    }\n\n    function devClaim(address recipient, uint256 amount)\n        external\n        onlyRole(DEFAULT_ADMIN_ROLE)\n    {\n        uint256 ownedTokens = balanceOf(msg.sender);\n        require(\n            amount + ownedTokens <= mintPerAddress,\n            \"Exceeded minting limit\"\n        );\n        _safeMint(recipient, amount);\n    }\n\n    function mint(uint256 amount) public payable {\n        require(activeMint, \"Public mint has not started\");\n        require(\n            msg.value == amount * mintCost,\n            \"Transaction value does not match the mint cost\"\n        );\n        uint256 ownedTokens = balanceOf(msg.sender);\n        require(\n            amount + ownedTokens <= mintPerAddress,\n            \"Exceeded minting limit\"\n        );\n\n        _safeMint(msg.sender, amount);\n    }\n\n    function presaleMint(uint256 amount)\n        public\n        payable\n        onlyRole(WHITELIST_ROLE)\n    {\n        require(activePresale, \"Presale mint has not started\");\n        require(\n            msg.value == amount * presaleCost,\n            \"Transaction value does not match the mint cost\"\n        );\n        uint256 ownedTokens = balanceOf(msg.sender);\n        require(\n            amount + ownedTokens <= mintPerAddress,\n            \"Exceeded minting limit\"\n        );\n\n        _safeMint(msg.sender, amount);\n    }\n\n    function setBaseUri(string memory _baseUri)\n        external\n        onlyRole(DEFAULT_ADMIN_ROLE)\n    {\n        baseUri = _baseUri;\n    }\n\n    function setMaxTokens(uint256 max) external onlyRole(DEFAULT_ADMIN_ROLE) {\n        require(max > totalSupply(), \"New max cannot exceed existing supply\");\n        maxTokens = max;\n    }\n\n    function tokensOfOwner(address _owner)\n        external\n        view\n        returns (uint256[] memory)\n    {\n        uint256 tokenCount = totalSupply();\n        if (tokenCount == 0) {\n            // Return an empty array\n            return new uint256[](0);\n        } else {\n            uint256[] memory result = new uint256[](tokenCount);\n            uint256 index;\n            uint i = 0;\n            for (index = 0; index < tokenCount; index++) {\n                if (ownerOf(index) == _owner) {\n                    result[i] = index;\n                    i++;\n                }\n            }\n            return result;\n        }\n    }\n\n    function tokenURI(uint256 tokenId)\n        public\n        view\n        virtual\n        override\n        returns (string memory)\n    {\n        require(\n            _exists(tokenId),\n            \"ERC721Metadata: URI query for nonexistent token\"\n        );\n\n        string memory _tokenURI = _tokenURIs[tokenId];\n        string memory base = _baseURI();\n\n        // If there is no base URI, return the token URI.\n        if (bytes(base).length == 0) {\n            return _tokenURI;\n        }\n        // If both are set, concatenate the baseURI and tokenURI (via abi.encodePacked).\n        if (bytes(_tokenURI).length > 0) {\n            return string(abi.encodePacked(base, _tokenURI));\n        }\n        // If there is a baseURI but no tokenURI, concatenate the tokenID to the baseURI.\n        return string(abi.encodePacked(base, tokenId.toString(), \".json\"));\n    }\n\n    function toggleMint() external onlyRole(DEFAULT_ADMIN_ROLE) {\n        activeMint = !activeMint;\n        mintPerAddress = 5;\n    }\n\n    function togglePresale() external onlyRole(DEFAULT_ADMIN_ROLE) {\n        activePresale = !activePresale;\n        mintPerAddress = 3;\n    }\n\n    function withdraw() external payable onlyRole(WITHDRAWAL_ROLE) {\n        payable(msg.sender).transfer(address(this).balance);\n    }\n\n    // The following functions are overrides required by Solidity.\n    function supportsInterface(bytes4 interfaceId)\n        public\n        view\n        override(ERC721A, AccessControl)\n        returns (bool)\n    {\n        return super.supportsInterface(interfaceId);\n    }\n}\n",
  "sourcePath": "/Users/warrenschwartz/Projects/ColdBehaviour/contracts/contracts/ColdBehaviorNft.sol",
  "compiler": {
    "name": "solc",
    "version": "0.8.10+commit.fc410830.Emscripten.clang"
  },
  "schemaVersion": "3.4.3",
  "updatedAt": "2022-03-17T03:07:53.526Z",
  "devdoc": {
    "kind": "dev",
    "methods": {
      "approve(address,uint256)": {
        "details": "See {IERC721-approve}."
      },
      "balanceOf(address)": {
        "details": "See {IERC721-balanceOf}."
      },
      "getApproved(uint256)": {
        "details": "See {IERC721-getApproved}."
      },
      "getRoleAdmin(bytes32)": {
        "details": "Returns the admin role that controls `role`. See {grantRole} and {revokeRole}. To change a role's admin, use {_setRoleAdmin}."
      },
      "grantRole(bytes32,address)": {
        "details": "Grants `role` to `account`. If `account` had not been already granted `role`, emits a {RoleGranted} event. Requirements: - the caller must have ``role``'s admin role."
      },
      "hasRole(bytes32,address)": {
        "details": "Returns `true` if `account` has been granted `role`."
      },
      "isApprovedForAll(address,address)": {
        "details": "See {IERC721-isApprovedForAll}."
      },
      "name()": {
        "details": "See {IERC721Metadata-name}."
      },
      "ownerOf(uint256)": {
        "details": "See {IERC721-ownerOf}."
      },
      "renounceRole(bytes32,address)": {
        "details": "Revokes `role` from the calling account. Roles are often managed via {grantRole} and {revokeRole}: this function's purpose is to provide a mechanism for accounts to lose their privileges if they are compromised (such as when a trusted device is misplaced). If the calling account had been revoked `role`, emits a {RoleRevoked} event. Requirements: - the caller must be `account`."
      },
      "revokeRole(bytes32,address)": {
        "details": "Revokes `role` from `account`. If `account` had been granted `role`, emits a {RoleRevoked} event. Requirements: - the caller must have ``role``'s admin role."
      },
      "safeTransferFrom(address,address,uint256)": {
        "details": "See {IERC721-safeTransferFrom}."
      },
      "safeTransferFrom(address,address,uint256,bytes)": {
        "details": "See {IERC721-safeTransferFrom}."
      },
      "setApprovalForAll(address,bool)": {
        "details": "See {IERC721-setApprovalForAll}."
      },
      "symbol()": {
        "details": "See {IERC721Metadata-symbol}."
      },
      "tokenURI(uint256)": {
        "details": "See {IERC721Metadata-tokenURI}."
      },
      "totalSupply()": {
        "details": "Burned tokens are calculated here, use _totalMinted() if you want to count just minted tokens."
      },
      "transferFrom(address,address,uint256)": {
        "details": "See {IERC721-transferFrom}."
      }
    },
    "version": 1
  },
  "userdoc": {
    "kind": "user",
    "methods": {},
    "version": 1
  }
}