{
  "contractName": "ColdBehaviorNFT",
  "abi": [
    {
      "inputs": [],
      "stateMutability": "nonpayable",
      "type": "constructor"
    },
    {
      "anonymous": false,
      "inputs": [
        {
          "indexed": true,
          "internalType": "address",
          "name": "owner",
          "type": "address"
        },
        {
          "indexed": true,
          "internalType": "address",
          "name": "approved",
          "type": "address"
        },
        {
          "indexed": true,
          "internalType": "uint256",
          "name": "tokenId",
          "type": "uint256"
        }
      ],
      "name": "Approval",
      "type": "event"
    },
    {
      "anonymous": false,
      "inputs": [
        {
          "indexed": true,
          "internalType": "address",
          "name": "owner",
          "type": "address"
        },
        {
          "indexed": true,
          "internalType": "address",
          "name": "operator",
          "type": "address"
        },
        {
          "indexed": false,
          "internalType": "bool",
          "name": "approved",
          "type": "bool"
        }
      ],
      "name": "ApprovalForAll",
      "type": "event"
    },
    {
      "anonymous": false,
      "inputs": [
        {
          "indexed": true,
          "internalType": "bytes32",
          "name": "role",
          "type": "bytes32"
        },
        {
          "indexed": true,
          "internalType": "bytes32",
          "name": "previousAdminRole",
          "type": "bytes32"
        },
        {
          "indexed": true,
          "internalType": "bytes32",
          "name": "newAdminRole",
          "type": "bytes32"
        }
      ],
      "name": "RoleAdminChanged",
      "type": "event"
    },
    {
      "anonymous": false,
      "inputs": [
        {
          "indexed": true,
          "internalType": "bytes32",
          "name": "role",
          "type": "bytes32"
        },
        {
          "indexed": true,
          "internalType": "address",
          "name": "account",
          "type": "address"
        },
        {
          "indexed": true,
          "internalType": "address",
          "name": "sender",
          "type": "address"
        }
      ],
      "name": "RoleGranted",
      "type": "event"
    },
    {
      "anonymous": false,
      "inputs": [
        {
          "indexed": true,
          "internalType": "bytes32",
          "name": "role",
          "type": "bytes32"
        },
        {
          "indexed": true,
          "internalType": "address",
          "name": "account",
          "type": "address"
        },
        {
          "indexed": true,
          "internalType": "address",
          "name": "sender",
          "type": "address"
        }
      ],
      "name": "RoleRevoked",
      "type": "event"
    },
    {
      "anonymous": false,
      "inputs": [
        {
          "indexed": true,
          "internalType": "address",
          "name": "from",
          "type": "address"
        },
        {
          "indexed": true,
          "internalType": "address",
          "name": "to",
          "type": "address"
        },
        {
          "indexed": true,
          "internalType": "uint256",
          "name": "tokenId",
          "type": "uint256"
        }
      ],
      "name": "Transfer",
      "type": "event"
    },
    {
      "inputs": [],
      "name": "DEFAULT_ADMIN_ROLE",
      "outputs": [
        {
          "internalType": "bytes32",
          "name": "",
          "type": "bytes32"
        }
      ],
      "stateMutability": "view",
      "type": "function"
    },
    {
      "inputs": [],
      "name": "MAX_TOKENS",
      "outputs": [
        {
          "internalType": "uint256",
          "name": "",
          "type": "uint256"
        }
      ],
      "stateMutability": "view",
      "type": "function"
    },
    {
      "inputs": [],
      "name": "MINTER_ROLE",
      "outputs": [
        {
          "internalType": "bytes32",
          "name": "",
          "type": "bytes32"
        }
      ],
      "stateMutability": "view",
      "type": "function"
    },
    {
      "inputs": [
        {
          "internalType": "address",
          "name": "to",
          "type": "address"
        },
        {
          "internalType": "uint256",
          "name": "tokenId",
          "type": "uint256"
        }
      ],
      "name": "approve",
      "outputs": [],
      "stateMutability": "nonpayable",
      "type": "function"
    },
    {
      "inputs": [
        {
          "internalType": "address",
          "name": "owner",
          "type": "address"
        }
      ],
      "name": "balanceOf",
      "outputs": [
        {
          "internalType": "uint256",
          "name": "",
          "type": "uint256"
        }
      ],
      "stateMutability": "view",
      "type": "function"
    },
    {
      "inputs": [],
      "name": "baseUri",
      "outputs": [
        {
          "internalType": "string",
          "name": "",
          "type": "string"
        }
      ],
      "stateMutability": "view",
      "type": "function"
    },
    {
      "inputs": [
        {
          "internalType": "uint256",
          "name": "tokenId",
          "type": "uint256"
        }
      ],
      "name": "getApproved",
      "outputs": [
        {
          "internalType": "address",
          "name": "",
          "type": "address"
        }
      ],
      "stateMutability": "view",
      "type": "function"
    },
    {
      "inputs": [
        {
          "internalType": "bytes32",
          "name": "role",
          "type": "bytes32"
        }
      ],
      "name": "getRoleAdmin",
      "outputs": [
        {
          "internalType": "bytes32",
          "name": "",
          "type": "bytes32"
        }
      ],
      "stateMutability": "view",
      "type": "function"
    },
    {
      "inputs": [
        {
          "internalType": "bytes32",
          "name": "role",
          "type": "bytes32"
        },
        {
          "internalType": "address",
          "name": "account",
          "type": "address"
        }
      ],
      "name": "grantRole",
      "outputs": [],
      "stateMutability": "nonpayable",
      "type": "function"
    },
    {
      "inputs": [
        {
          "internalType": "bytes32",
          "name": "role",
          "type": "bytes32"
        },
        {
          "internalType": "address",
          "name": "account",
          "type": "address"
        }
      ],
      "name": "hasRole",
      "outputs": [
        {
          "internalType": "bool",
          "name": "",
          "type": "bool"
        }
      ],
      "stateMutability": "view",
      "type": "function"
    },
    {
      "inputs": [
        {
          "internalType": "address",
          "name": "owner",
          "type": "address"
        },
        {
          "internalType": "address",
          "name": "operator",
          "type": "address"
        }
      ],
      "name": "isApprovedForAll",
      "outputs": [
        {
          "internalType": "bool",
          "name": "",
          "type": "bool"
        }
      ],
      "stateMutability": "view",
      "type": "function"
    },
    {
      "inputs": [],
      "name": "name",
      "outputs": [
        {
          "internalType": "string",
          "name": "",
          "type": "string"
        }
      ],
      "stateMutability": "view",
      "type": "function"
    },
    {
      "inputs": [
        {
          "internalType": "uint256",
          "name": "tokenId",
          "type": "uint256"
        }
      ],
      "name": "ownerOf",
      "outputs": [
        {
          "internalType": "address",
          "name": "",
          "type": "address"
        }
      ],
      "stateMutability": "view",
      "type": "function"
    },
    {
      "inputs": [
        {
          "internalType": "bytes32",
          "name": "role",
          "type": "bytes32"
        },
        {
          "internalType": "address",
          "name": "account",
          "type": "address"
        }
      ],
      "name": "renounceRole",
      "outputs": [],
      "stateMutability": "nonpayable",
      "type": "function"
    },
    {
      "inputs": [
        {
          "internalType": "bytes32",
          "name": "role",
          "type": "bytes32"
        },
        {
          "internalType": "address",
          "name": "account",
          "type": "address"
        }
      ],
      "name": "revokeRole",
      "outputs": [],
      "stateMutability": "nonpayable",
      "type": "function"
    },
    {
      "inputs": [
        {
          "internalType": "address",
          "name": "from",
          "type": "address"
        },
        {
          "internalType": "address",
          "name": "to",
          "type": "address"
        },
        {
          "internalType": "uint256",
          "name": "tokenId",
          "type": "uint256"
        }
      ],
      "name": "safeTransferFrom",
      "outputs": [],
      "stateMutability": "nonpayable",
      "type": "function"
    },
    {
      "inputs": [
        {
          "internalType": "address",
          "name": "from",
          "type": "address"
        },
        {
          "internalType": "address",
          "name": "to",
          "type": "address"
        },
        {
          "internalType": "uint256",
          "name": "tokenId",
          "type": "uint256"
        },
        {
          "internalType": "bytes",
          "name": "_data",
          "type": "bytes"
        }
      ],
      "name": "safeTransferFrom",
      "outputs": [],
      "stateMutability": "nonpayable",
      "type": "function"
    },
    {
      "inputs": [
        {
          "internalType": "address",
          "name": "operator",
          "type": "address"
        },
        {
          "internalType": "bool",
          "name": "approved",
          "type": "bool"
        }
      ],
      "name": "setApprovalForAll",
      "outputs": [],
      "stateMutability": "nonpayable",
      "type": "function"
    },
    {
      "inputs": [],
      "name": "symbol",
      "outputs": [
        {
          "internalType": "string",
          "name": "",
          "type": "string"
        }
      ],
      "stateMutability": "view",
      "type": "function"
    },
    {
      "inputs": [
        {
          "internalType": "uint256",
          "name": "tokenId",
          "type": "uint256"
        }
      ],
      "name": "tokenURI",
      "outputs": [
        {
          "internalType": "string",
          "name": "",
          "type": "string"
        }
      ],
      "stateMutability": "view",
      "type": "function"
    },
    {
      "inputs": [
        {
          "internalType": "address",
          "name": "from",
          "type": "address"
        },
        {
          "internalType": "address",
          "name": "to",
          "type": "address"
        },
        {
          "internalType": "uint256",
          "name": "tokenId",
          "type": "uint256"
        }
      ],
      "name": "transferFrom",
      "outputs": [],
      "stateMutability": "nonpayable",
      "type": "function"
    },
    {
      "inputs": [],
      "name": "currentTokenId",
      "outputs": [
        {
          "internalType": "uint256",
          "name": "",
          "type": "uint256"
        }
      ],
      "stateMutability": "view",
      "type": "function"
    },
    {
      "inputs": [
        {
          "internalType": "address",
          "name": "to",
          "type": "address"
        }
      ],
      "name": "safeMint",
      "outputs": [],
      "stateMutability": "nonpayable",
      "type": "function"
    },
    {
      "inputs": [
        {
          "internalType": "string",
          "name": "_baseUri",
          "type": "string"
        }
      ],
      "name": "setBaseUri",
      "outputs": [],
      "stateMutability": "nonpayable",
      "type": "function"
    },
    {
      "inputs": [
        {
          "internalType": "bytes4",
          "name": "interfaceId",
          "type": "bytes4"
        }
      ],
      "name": "supportsInterface",
      "outputs": [
        {
          "internalType": "bool",
          "name": "",
          "type": "bool"
        }
      ],
      "stateMutability": "view",
      "type": "function"
    }
  ],
  "bytecode": "0x60806040523480156200001157600080fd5b506040518060400160405280601181526020017f436f6c64204265686176696f72204e46540000000000000000000000000000008152506040518060400160405280600381526020017f43424e0000000000000000000000000000000000000000000000000000000000815250816000908051906020019062000096929190620002b2565b508060019080519060200190620000af929190620002b2565b505050620000c76000801b336200014d60201b60201c565b620000f97f9f2df0fed2c77648de5860a4cc508cd0818c85b8b8a1ab4ceeef8d981c8956a6336200014d60201b60201c565b6040518060400160405280601e81526020017f68747470733a2f2f697066732e636f6c646265686176696f722e636f6d2f00008152506008908051906020019062000146929190620002b2565b50620003c7565b6200015f82826200023f60201b60201c565b6200023b5760016006600084815260200190815260200160002060000160008373ffffffffffffffffffffffffffffffffffffffff1673ffffffffffffffffffffffffffffffffffffffff16815260200190815260200160002060006101000a81548160ff021916908315150217905550620001e0620002aa60201b60201c565b73ffffffffffffffffffffffffffffffffffffffff168173ffffffffffffffffffffffffffffffffffffffff16837f2f8788117e7eff1d82e926ec794901d17c78024a50270940304540a733656f0d60405160405180910390a45b5050565b60006006600084815260200190815260200160002060000160008373ffffffffffffffffffffffffffffffffffffffff1673ffffffffffffffffffffffffffffffffffffffff16815260200190815260200160002060009054906101000a900460ff16905092915050565b600033905090565b828054620002c09062000391565b90600052602060002090601f016020900481019282620002e4576000855562000330565b82601f10620002ff57805160ff191683800117855562000330565b8280016001018555821562000330579182015b828111156200032f57825182559160200191906001019062000312565b5b5090506200033f919062000343565b5090565b5b808211156200035e57600081600090555060010162000344565b5090565b7f4e487b7100000000000000000000000000000000000000000000000000000000600052602260045260246000fd5b60006002820490506001821680620003aa57607f821691505b60208210811415620003c157620003c062000362565b5b50919050565b61371380620003d76000396000f3fe608060405234801561001057600080fd5b50600436106101725760003560e01c806370a08231116100de578063a22cb46511610097578063d539139311610071578063d539139314610459578063d547741f14610477578063e985e9c514610493578063f47c84c5146104c357610172565b8063a22cb465146103f1578063b88d4fde1461040d578063c87b56dd1461042957610172565b806370a082311461031b57806391d148541461034b57806395d89b411461037b5780639abc832014610399578063a0bcfc7f146103b7578063a217fddf146103d357610172565b8063248a9ca311610130578063248a9ca31461024b5780632f2ff15d1461027b57806336568abe1461029757806340d097c3146102b357806342842e0e146102cf5780636352211e146102eb57610172565b80629a9b7b1461017757806301ffc9a71461019557806306fdde03146101c5578063081812fc146101e3578063095ea7b31461021357806323b872dd1461022f575b600080fd5b61017f6104e1565b60405161018c91906121a6565b60405180910390f35b6101af60048036038101906101aa919061222d565b6104fe565b6040516101bc9190612275565b60405180910390f35b6101cd610510565b6040516101da9190612329565b60405180910390f35b6101fd60048036038101906101f89190612377565b6105a2565b60405161020a91906123e5565b60405180910390f35b61022d6004803603810190610228919061242c565b610627565b005b6102496004803603810190610244919061246c565b61073f565b005b610265600480360381019061026091906124f5565b61079f565b6040516102729190612531565b60405180910390f35b6102956004803603810190610290919061254c565b6107bf565b005b6102b160048036038101906102ac919061254c565b6107e8565b005b6102cd60048036038101906102c8919061258c565b61086b565b005b6102e960048036038101906102e4919061246c565b610908565b005b61030560048036038101906103009190612377565b610928565b60405161031291906123e5565b60405180910390f35b6103356004803603810190610330919061258c565b6109da565b60405161034291906121a6565b60405180910390f35b6103656004803603810190610360919061254c565b610a92565b6040516103729190612275565b60405180910390f35b610383610afd565b6040516103909190612329565b60405180910390f35b6103a1610b8f565b6040516103ae9190612329565b60405180910390f35b6103d160048036038101906103cc91906126ee565b610c1d565b005b6103db610c4d565b6040516103e89190612531565b60405180910390f35b61040b60048036038101906104069190612763565b610c54565b005b61042760048036038101906104229190612844565b610c6a565b005b610443600480360381019061043e9190612377565b610ccc565b6040516104509190612329565b60405180910390f35b610461610d73565b60405161046e9190612531565b60405180910390f35b610491600480360381019061048c919061254c565b610d97565b005b6104ad60048036038101906104a891906128c7565b610dc0565b6040516104ba9190612275565b60405180910390f35b6104cb610e54565b6040516104d891906121a6565b60405180910390f35b600060016104ef6007610e5a565b6104f99190612936565b905090565b600061050982610e68565b9050919050565b60606000805461051f906129bb565b80601f016020809104026020016040519081016040528092919081815260200182805461054b906129bb565b80156105985780601f1061056d57610100808354040283529160200191610598565b820191906000526020600020905b81548152906001019060200180831161057b57829003601f168201915b5050505050905090565b60006105ad82610ee2565b6105ec576040517f08c379a00000000000000000000000000000000000000000000000000000000081526004016105e390612a5f565b60405180910390fd5b6004600083815260200190815260200160002060009054906101000a900473ffffffffffffffffffffffffffffffffffffffff169050919050565b600061063282610928565b90508073ffffffffffffffffffffffffffffffffffffffff168373ffffffffffffffffffffffffffffffffffffffff1614156106a3576040517f08c379a000000000000000000000000000000000000000000000000000000000815260040161069a90612af1565b60405180910390fd5b8073ffffffffffffffffffffffffffffffffffffffff166106c2610f4e565b73ffffffffffffffffffffffffffffffffffffffff1614806106f157506106f0816106eb610f4e565b610dc0565b5b610730576040517f08c379a000000000000000000000000000000000000000000000000000000000815260040161072790612b83565b60405180910390fd5b61073a8383610f56565b505050565b61075061074a610f4e565b8261100f565b61078f576040517f08c379a000000000000000000000000000000000000000000000000000000000815260040161078690612c15565b60405180910390fd5b61079a8383836110ed565b505050565b600060066000838152602001908152602001600020600101549050919050565b6107c88261079f565b6107d9816107d4610f4e565b611349565b6107e383836113e6565b505050565b6107f0610f4e565b73ffffffffffffffffffffffffffffffffffffffff168173ffffffffffffffffffffffffffffffffffffffff161461085d576040517f08c379a000000000000000000000000000000000000000000000000000000000815260040161085490612ca7565b60405180910390fd5b61086782826114c7565b5050565b7f9f2df0fed2c77648de5860a4cc508cd0818c85b8b8a1ab4ceeef8d981c8956a661089d81610898610f4e565b611349565b60006108a96007610e5a565b90506122b881106108ef576040517f08c379a00000000000000000000000000000000000000000000000000000000081526004016108e690612d39565b60405180910390fd5b6108f960076115a9565b61090383826115bf565b505050565b61092383838360405180602001604052806000815250610c6a565b505050565b6000806002600084815260200190815260200160002060009054906101000a900473ffffffffffffffffffffffffffffffffffffffff169050600073ffffffffffffffffffffffffffffffffffffffff168173ffffffffffffffffffffffffffffffffffffffff1614156109d1576040517f08c379a00000000000000000000000000000000000000000000000000000000081526004016109c890612dcb565b60405180910390fd5b80915050919050565b60008073ffffffffffffffffffffffffffffffffffffffff168273ffffffffffffffffffffffffffffffffffffffff161415610a4b576040517f08c379a0000000000000000000000000000000000000000000000000000000008152600401610a4290612e5d565b60405180910390fd5b600360008373ffffffffffffffffffffffffffffffffffffffff1673ffffffffffffffffffffffffffffffffffffffff168152602001908152602001600020549050919050565b60006006600084815260200190815260200160002060000160008373ffffffffffffffffffffffffffffffffffffffff1673ffffffffffffffffffffffffffffffffffffffff16815260200190815260200160002060009054906101000a900460ff16905092915050565b606060018054610b0c906129bb565b80601f0160208091040260200160405190810160405280929190818152602001828054610b38906129bb565b8015610b855780601f10610b5a57610100808354040283529160200191610b85565b820191906000526020600020905b815481529060010190602001808311610b6857829003601f168201915b5050505050905090565b60088054610b9c906129bb565b80601f0160208091040260200160405190810160405280929190818152602001828054610bc8906129bb565b8015610c155780601f10610bea57610100808354040283529160200191610c15565b820191906000526020600020905b815481529060010190602001808311610bf857829003601f168201915b505050505081565b6000801b610c3281610c2d610f4e565b611349565b8160089080519060200190610c489291906120ea565b505050565b6000801b81565b610c66610c5f610f4e565b83836115dd565b5050565b610c7b610c75610f4e565b8361100f565b610cba576040517f08c379a0000000000000000000000000000000000000000000000000000000008152600401610cb190612c15565b60405180910390fd5b610cc68484848461174a565b50505050565b6060610cd782610ee2565b610d16576040517f08c379a0000000000000000000000000000000000000000000000000000000008152600401610d0d90612eef565b60405180910390fd5b6000610d206117a6565b90506000815111610d405760405180602001604052806000815250610d6b565b80610d4a84611838565b604051602001610d5b929190612f4b565b6040516020818303038152906040525b915050919050565b7f9f2df0fed2c77648de5860a4cc508cd0818c85b8b8a1ab4ceeef8d981c8956a681565b610da08261079f565b610db181610dac610f4e565b611349565b610dbb83836114c7565b505050565b6000600560008473ffffffffffffffffffffffffffffffffffffffff1673ffffffffffffffffffffffffffffffffffffffff16815260200190815260200160002060008373ffffffffffffffffffffffffffffffffffffffff1673ffffffffffffffffffffffffffffffffffffffff16815260200190815260200160002060009054906101000a900460ff16905092915050565b6122b881565b600081600001549050919050565b60007f7965db0b000000000000000000000000000000000000000000000000000000007bffffffffffffffffffffffffffffffffffffffffffffffffffffffff1916827bffffffffffffffffffffffffffffffffffffffffffffffffffffffff19161480610edb5750610eda82611999565b5b9050919050565b60008073ffffffffffffffffffffffffffffffffffffffff166002600084815260200190815260200160002060009054906101000a900473ffffffffffffffffffffffffffffffffffffffff1673ffffffffffffffffffffffffffffffffffffffff1614159050919050565b600033905090565b816004600083815260200190815260200160002060006101000a81548173ffffffffffffffffffffffffffffffffffffffff021916908373ffffffffffffffffffffffffffffffffffffffff160217905550808273ffffffffffffffffffffffffffffffffffffffff16610fc983610928565b73ffffffffffffffffffffffffffffffffffffffff167f8c5be1e5ebec7d5bd14f71427d1e84f3dd0314c0f7b2291e5b200ac8c7c3b92560405160405180910390a45050565b600061101a82610ee2565b611059576040517f08c379a000000000000000000000000000000000000000000000000000000000815260040161105090612fe1565b60405180910390fd5b600061106483610928565b90508073ffffffffffffffffffffffffffffffffffffffff168473ffffffffffffffffffffffffffffffffffffffff1614806110d357508373ffffffffffffffffffffffffffffffffffffffff166110bb846105a2565b73ffffffffffffffffffffffffffffffffffffffff16145b806110e457506110e38185610dc0565b5b91505092915050565b8273ffffffffffffffffffffffffffffffffffffffff1661110d82610928565b73ffffffffffffffffffffffffffffffffffffffff1614611163576040517f08c379a000000000000000000000000000000000000000000000000000000000815260040161115a90613073565b60405180910390fd5b600073ffffffffffffffffffffffffffffffffffffffff168273ffffffffffffffffffffffffffffffffffffffff1614156111d3576040517f08c379a00000000000000000000000000000000000000000000000000000000081526004016111ca90613105565b60405180910390fd5b6111de838383611a7b565b6111e9600082610f56565b6001600360008573ffffffffffffffffffffffffffffffffffffffff1673ffffffffffffffffffffffffffffffffffffffff16815260200190815260200160002060008282546112399190613125565b925050819055506001600360008473ffffffffffffffffffffffffffffffffffffffff1673ffffffffffffffffffffffffffffffffffffffff16815260200190815260200160002060008282546112909190612936565b92505081905550816002600083815260200190815260200160002060006101000a81548173ffffffffffffffffffffffffffffffffffffffff021916908373ffffffffffffffffffffffffffffffffffffffff160217905550808273ffffffffffffffffffffffffffffffffffffffff168473ffffffffffffffffffffffffffffffffffffffff167fddf252ad1be2c89b69c2b068fc378daa952ba7f163c4a11628f55a4df523b3ef60405160405180910390a4505050565b6113538282610a92565b6113e2576113788173ffffffffffffffffffffffffffffffffffffffff166014611a80565b6113868360001c6020611a80565b6040516020016113979291906131f1565b6040516020818303038152906040526040517f08c379a00000000000000000000000000000000000000000000000000000000081526004016113d99190612329565b60405180910390fd5b5050565b6113f08282610a92565b6114c35760016006600084815260200190815260200160002060000160008373ffffffffffffffffffffffffffffffffffffffff1673ffffffffffffffffffffffffffffffffffffffff16815260200190815260200160002060006101000a81548160ff021916908315150217905550611468610f4e565b73ffffffffffffffffffffffffffffffffffffffff168173ffffffffffffffffffffffffffffffffffffffff16837f2f8788117e7eff1d82e926ec794901d17c78024a50270940304540a733656f0d60405160405180910390a45b5050565b6114d18282610a92565b156115a55760006006600084815260200190815260200160002060000160008373ffffffffffffffffffffffffffffffffffffffff1673ffffffffffffffffffffffffffffffffffffffff16815260200190815260200160002060006101000a81548160ff02191690831515021790555061154a610f4e565b73ffffffffffffffffffffffffffffffffffffffff168173ffffffffffffffffffffffffffffffffffffffff16837ff6391f5c32d9c69d2a47ea670b442974b53935d1edc7fd64eb21e047a839171b60405160405180910390a45b5050565b6001816000016000828254019250508190555050565b6115d9828260405180602001604052806000815250611cbc565b5050565b8173ffffffffffffffffffffffffffffffffffffffff168373ffffffffffffffffffffffffffffffffffffffff16141561164c576040517f08c379a000000000000000000000000000000000000000000000000000000000815260040161164390613277565b60405180910390fd5b80600560008573ffffffffffffffffffffffffffffffffffffffff1673ffffffffffffffffffffffffffffffffffffffff16815260200190815260200160002060008473ffffffffffffffffffffffffffffffffffffffff1673ffffffffffffffffffffffffffffffffffffffff16815260200190815260200160002060006101000a81548160ff0219169083151502179055508173ffffffffffffffffffffffffffffffffffffffff168373ffffffffffffffffffffffffffffffffffffffff167f17307eab39ab6107e8899845ad3d59bd9653f200f220920489ca2b5937696c318360405161173d9190612275565b60405180910390a3505050565b6117558484846110ed565b61176184848484611d17565b6117a0576040517f08c379a000000000000000000000000000000000000000000000000000000000815260040161179790613309565b60405180910390fd5b50505050565b6060600880546117b5906129bb565b80601f01602080910402602001604051908101604052809291908181526020018280546117e1906129bb565b801561182e5780601f106118035761010080835404028352916020019161182e565b820191906000526020600020905b81548152906001019060200180831161181157829003601f168201915b5050505050905090565b60606000821415611880576040518060400160405280600181526020017f30000000000000000000000000000000000000000000000000000000000000008152509050611994565b600082905060005b600082146118b257808061189b90613329565b915050600a826118ab91906133a1565b9150611888565b60008167ffffffffffffffff8111156118ce576118cd6125c3565b5b6040519080825280601f01601f1916602001820160405280156119005781602001600182028036833780820191505090505b5090505b6000851461198d576001826119199190613125565b9150600a8561192891906133d2565b60306119349190612936565b60f81b81838151811061194a57611949613403565b5b60200101907effffffffffffffffffffffffffffffffffffffffffffffffffffffffffffff1916908160001a905350600a8561198691906133a1565b9450611904565b8093505050505b919050565b60007f80ac58cd000000000000000000000000000000000000000000000000000000007bffffffffffffffffffffffffffffffffffffffffffffffffffffffff1916827bffffffffffffffffffffffffffffffffffffffffffffffffffffffff19161480611a6457507f5b5e139f000000000000000000000000000000000000000000000000000000007bffffffffffffffffffffffffffffffffffffffffffffffffffffffff1916827bffffffffffffffffffffffffffffffffffffffffffffffffffffffff1916145b80611a745750611a7382611e9f565b5b9050919050565b505050565b606060006002836002611a939190613432565b611a9d9190612936565b67ffffffffffffffff811115611ab657611ab56125c3565b5b6040519080825280601f01601f191660200182016040528015611ae85781602001600182028036833780820191505090505b5090507f300000000000000000000000000000000000000000000000000000000000000081600081518110611b2057611b1f613403565b5b60200101907effffffffffffffffffffffffffffffffffffffffffffffffffffffffffffff1916908160001a9053507f780000000000000000000000000000000000000000000000000000000000000081600181518110611b8457611b83613403565b5b60200101907effffffffffffffffffffffffffffffffffffffffffffffffffffffffffffff1916908160001a90535060006001846002611bc49190613432565b611bce9190612936565b90505b6001811115611c6e577f3031323334353637383961626364656600000000000000000000000000000000600f861660108110611c1057611c0f613403565b5b1a60f81b828281518110611c2757611c26613403565b5b60200101907effffffffffffffffffffffffffffffffffffffffffffffffffffffffffffff1916908160001a905350600485901c945080611c679061348c565b9050611bd1565b5060008414611cb2576040517f08c379a0000000000000000000000000000000000000000000000000000000008152600401611ca990613502565b60405180910390fd5b8091505092915050565b611cc68383611f09565b611cd36000848484611d17565b611d12576040517f08c379a0000000000000000000000000000000000000000000000000000000008152600401611d0990613309565b60405180910390fd5b505050565b6000611d388473ffffffffffffffffffffffffffffffffffffffff166120d7565b15611e92578373ffffffffffffffffffffffffffffffffffffffff1663150b7a02611d61610f4e565b8786866040518563ffffffff1660e01b8152600401611d839493929190613577565b6020604051808303816000875af1925050508015611dbf57506040513d601f19601f82011682018060405250810190611dbc91906135d8565b60015b611e42573d8060008114611def576040519150601f19603f3d011682016040523d82523d6000602084013e611df4565b606091505b50600081511415611e3a576040517f08c379a0000000000000000000000000000000000000000000000000000000008152600401611e3190613309565b60405180910390fd5b805181602001fd5b63150b7a0260e01b7bffffffffffffffffffffffffffffffffffffffffffffffffffffffff1916817bffffffffffffffffffffffffffffffffffffffffffffffffffffffff191614915050611e97565b600190505b949350505050565b60007f01ffc9a7000000000000000000000000000000000000000000000000000000007bffffffffffffffffffffffffffffffffffffffffffffffffffffffff1916827bffffffffffffffffffffffffffffffffffffffffffffffffffffffff1916149050919050565b600073ffffffffffffffffffffffffffffffffffffffff168273ffffffffffffffffffffffffffffffffffffffff161415611f79576040517f08c379a0000000000000000000000000000000000000000000000000000000008152600401611f7090613651565b60405180910390fd5b611f8281610ee2565b15611fc2576040517f08c379a0000000000000000000000000000000000000000000000000000000008152600401611fb9906136bd565b60405180910390fd5b611fce60008383611a7b565b6001600360008473ffffffffffffffffffffffffffffffffffffffff1673ffffffffffffffffffffffffffffffffffffffff168152602001908152602001600020600082825461201e9190612936565b92505081905550816002600083815260200190815260200160002060006101000a81548173ffffffffffffffffffffffffffffffffffffffff021916908373ffffffffffffffffffffffffffffffffffffffff160217905550808273ffffffffffffffffffffffffffffffffffffffff16600073ffffffffffffffffffffffffffffffffffffffff167fddf252ad1be2c89b69c2b068fc378daa952ba7f163c4a11628f55a4df523b3ef60405160405180910390a45050565b600080823b905060008111915050919050565b8280546120f6906129bb565b90600052602060002090601f016020900481019282612118576000855561215f565b82601f1061213157805160ff191683800117855561215f565b8280016001018555821561215f579182015b8281111561215e578251825591602001919060010190612143565b5b50905061216c9190612170565b5090565b5b80821115612189576000816000905550600101612171565b5090565b6000819050919050565b6121a08161218d565b82525050565b60006020820190506121bb6000830184612197565b92915050565b6000604051905090565b600080fd5b600080fd5b60007fffffffff0000000000000000000000000000000000000000000000000000000082169050919050565b61220a816121d5565b811461221557600080fd5b50565b60008135905061222781612201565b92915050565b600060208284031215612243576122426121cb565b5b600061225184828501612218565b91505092915050565b60008115159050919050565b61226f8161225a565b82525050565b600060208201905061228a6000830184612266565b92915050565b600081519050919050565b600082825260208201905092915050565b60005b838110156122ca5780820151818401526020810190506122af565b838111156122d9576000848401525b50505050565b6000601f19601f8301169050919050565b60006122fb82612290565b612305818561229b565b93506123158185602086016122ac565b61231e816122df565b840191505092915050565b6000602082019050818103600083015261234381846122f0565b905092915050565b6123548161218d565b811461235f57600080fd5b50565b6000813590506123718161234b565b92915050565b60006020828403121561238d5761238c6121cb565b5b600061239b84828501612362565b91505092915050565b600073ffffffffffffffffffffffffffffffffffffffff82169050919050565b60006123cf826123a4565b9050919050565b6123df816123c4565b82525050565b60006020820190506123fa60008301846123d6565b92915050565b612409816123c4565b811461241457600080fd5b50565b60008135905061242681612400565b92915050565b60008060408385031215612443576124426121cb565b5b600061245185828601612417565b925050602061246285828601612362565b9150509250929050565b600080600060608486031215612485576124846121cb565b5b600061249386828701612417565b93505060206124a486828701612417565b92505060406124b586828701612362565b9150509250925092565b6000819050919050565b6124d2816124bf565b81146124dd57600080fd5b50565b6000813590506124ef816124c9565b92915050565b60006020828403121561250b5761250a6121cb565b5b6000612519848285016124e0565b91505092915050565b61252b816124bf565b82525050565b60006020820190506125466000830184612522565b92915050565b60008060408385031215612563576125626121cb565b5b6000612571858286016124e0565b925050602061258285828601612417565b9150509250929050565b6000602082840312156125a2576125a16121cb565b5b60006125b084828501612417565b91505092915050565b600080fd5b600080fd5b7f4e487b7100000000000000000000000000000000000000000000000000000000600052604160045260246000fd5b6125fb826122df565b810181811067ffffffffffffffff8211171561261a576126196125c3565b5b80604052505050565b600061262d6121c1565b905061263982826125f2565b919050565b600067ffffffffffffffff821115612659576126586125c3565b5b612662826122df565b9050602081019050919050565b82818337600083830152505050565b600061269161268c8461263e565b612623565b9050828152602081018484840111156126ad576126ac6125be565b5b6126b884828561266f565b509392505050565b600082601f8301126126d5576126d46125b9565b5b81356126e584826020860161267e565b91505092915050565b600060208284031215612704576127036121cb565b5b600082013567ffffffffffffffff811115612722576127216121d0565b5b61272e848285016126c0565b91505092915050565b6127408161225a565b811461274b57600080fd5b50565b60008135905061275d81612737565b92915050565b6000806040838503121561277a576127796121cb565b5b600061278885828601612417565b92505060206127998582860161274e565b9150509250929050565b600067ffffffffffffffff8211156127be576127bd6125c3565b5b6127c7826122df565b9050602081019050919050565b60006127e76127e2846127a3565b612623565b905082815260208101848484011115612803576128026125be565b5b61280e84828561266f565b509392505050565b600082601f83011261282b5761282a6125b9565b5b813561283b8482602086016127d4565b91505092915050565b6000806000806080858703121561285e5761285d6121cb565b5b600061286c87828801612417565b945050602061287d87828801612417565b935050604061288e87828801612362565b925050606085013567ffffffffffffffff8111156128af576128ae6121d0565b5b6128bb87828801612816565b91505092959194509250565b600080604083850312156128de576128dd6121cb565b5b60006128ec85828601612417565b92505060206128fd85828601612417565b9150509250929050565b7f4e487b7100000000000000000000000000000000000000000000000000000000600052601160045260246000fd5b60006129418261218d565b915061294c8361218d565b9250827fffffffffffffffffffffffffffffffffffffffffffffffffffffffffffffffff0382111561298157612980612907565b5b828201905092915050565b7f4e487b7100000000000000000000000000000000000000000000000000000000600052602260045260246000fd5b600060028204905060018216806129d357607f821691505b602082108114156129e7576129e661298c565b5b50919050565b7f4552433732313a20617070726f76656420717565727920666f72206e6f6e657860008201527f697374656e7420746f6b656e0000000000000000000000000000000000000000602082015250565b6000612a49602c8361229b565b9150612a54826129ed565b604082019050919050565b60006020820190508181036000830152612a7881612a3c565b9050919050565b7f4552433732313a20617070726f76616c20746f2063757272656e74206f776e6560008201527f7200000000000000000000000000000000000000000000000000000000000000602082015250565b6000612adb60218361229b565b9150612ae682612a7f565b604082019050919050565b60006020820190508181036000830152612b0a81612ace565b9050919050565b7f4552433732313a20617070726f76652063616c6c6572206973206e6f74206f7760008201527f6e6572206e6f7220617070726f76656420666f7220616c6c0000000000000000602082015250565b6000612b6d60388361229b565b9150612b7882612b11565b604082019050919050565b60006020820190508181036000830152612b9c81612b60565b9050919050565b7f4552433732313a207472616e736665722063616c6c6572206973206e6f74206f60008201527f776e6572206e6f7220617070726f766564000000000000000000000000000000602082015250565b6000612bff60318361229b565b9150612c0a82612ba3565b604082019050919050565b60006020820190508181036000830152612c2e81612bf2565b9050919050565b7f416363657373436f6e74726f6c3a2063616e206f6e6c792072656e6f756e636560008201527f20726f6c657320666f722073656c660000000000000000000000000000000000602082015250565b6000612c91602f8361229b565b9150612c9c82612c35565b604082019050919050565b60006020820190508181036000830152612cc081612c84565b9050919050565b7f4e6f206d6f726520746f6b656e732061726520617661696c61626c6520746f2060008201527f6d696e7400000000000000000000000000000000000000000000000000000000602082015250565b6000612d2360248361229b565b9150612d2e82612cc7565b604082019050919050565b60006020820190508181036000830152612d5281612d16565b9050919050565b7f4552433732313a206f776e657220717565727920666f72206e6f6e657869737460008201527f656e7420746f6b656e0000000000000000000000000000000000000000000000602082015250565b6000612db560298361229b565b9150612dc082612d59565b604082019050919050565b60006020820190508181036000830152612de481612da8565b9050919050565b7f4552433732313a2062616c616e636520717565727920666f7220746865207a6560008201527f726f206164647265737300000000000000000000000000000000000000000000602082015250565b6000612e47602a8361229b565b9150612e5282612deb565b604082019050919050565b60006020820190508181036000830152612e7681612e3a565b9050919050565b7f4552433732314d657461646174613a2055524920717565727920666f72206e6f60008201527f6e6578697374656e7420746f6b656e0000000000000000000000000000000000602082015250565b6000612ed9602f8361229b565b9150612ee482612e7d565b604082019050919050565b60006020820190508181036000830152612f0881612ecc565b9050919050565b600081905092915050565b6000612f2582612290565b612f2f8185612f0f565b9350612f3f8185602086016122ac565b80840191505092915050565b6000612f578285612f1a565b9150612f638284612f1a565b91508190509392505050565b7f4552433732313a206f70657261746f7220717565727920666f72206e6f6e657860008201527f697374656e7420746f6b656e0000000000000000000000000000000000000000602082015250565b6000612fcb602c8361229b565b9150612fd682612f6f565b604082019050919050565b60006020820190508181036000830152612ffa81612fbe565b9050919050565b7f4552433732313a207472616e73666572206f6620746f6b656e2074686174206960008201527f73206e6f74206f776e0000000000000000000000000000000000000000000000602082015250565b600061305d60298361229b565b915061306882613001565b604082019050919050565b6000602082019050818103600083015261308c81613050565b9050919050565b7f4552433732313a207472616e7366657220746f20746865207a65726f2061646460008201527f7265737300000000000000000000000000000000000000000000000000000000602082015250565b60006130ef60248361229b565b91506130fa82613093565b604082019050919050565b6000602082019050818103600083015261311e816130e2565b9050919050565b60006131308261218d565b915061313b8361218d565b92508282101561314e5761314d612907565b5b828203905092915050565b7f416363657373436f6e74726f6c3a206163636f756e7420000000000000000000600082015250565b600061318f601783612f0f565b915061319a82613159565b601782019050919050565b7f206973206d697373696e6720726f6c6520000000000000000000000000000000600082015250565b60006131db601183612f0f565b91506131e6826131a5565b601182019050919050565b60006131fc82613182565b91506132088285612f1a565b9150613213826131ce565b915061321f8284612f1a565b91508190509392505050565b7f4552433732313a20617070726f766520746f2063616c6c657200000000000000600082015250565b600061326160198361229b565b915061326c8261322b565b602082019050919050565b6000602082019050818103600083015261329081613254565b9050919050565b7f4552433732313a207472616e7366657220746f206e6f6e20455243373231526560008201527f63656976657220696d706c656d656e7465720000000000000000000000000000602082015250565b60006132f360328361229b565b91506132fe82613297565b604082019050919050565b60006020820190508181036000830152613322816132e6565b9050919050565b60006133348261218d565b91507fffffffffffffffffffffffffffffffffffffffffffffffffffffffffffffffff82141561336757613366612907565b5b600182019050919050565b7f4e487b7100000000000000000000000000000000000000000000000000000000600052601260045260246000fd5b60006133ac8261218d565b91506133b78361218d565b9250826133c7576133c6613372565b5b828204905092915050565b60006133dd8261218d565b91506133e88361218d565b9250826133f8576133f7613372565b5b828206905092915050565b7f4e487b7100000000000000000000000000000000000000000000000000000000600052603260045260246000fd5b600061343d8261218d565b91506134488361218d565b9250817fffffffffffffffffffffffffffffffffffffffffffffffffffffffffffffffff048311821515161561348157613480612907565b5b828202905092915050565b60006134978261218d565b915060008214156134ab576134aa612907565b5b600182039050919050565b7f537472696e67733a20686578206c656e67746820696e73756666696369656e74600082015250565b60006134ec60208361229b565b91506134f7826134b6565b602082019050919050565b6000602082019050818103600083015261351b816134df565b9050919050565b600081519050919050565b600082825260208201905092915050565b600061354982613522565b613553818561352d565b93506135638185602086016122ac565b61356c816122df565b840191505092915050565b600060808201905061358c60008301876123d6565b61359960208301866123d6565b6135a66040830185612197565b81810360608301526135b8818461353e565b905095945050505050565b6000815190506135d281612201565b92915050565b6000602082840312156135ee576135ed6121cb565b5b60006135fc848285016135c3565b91505092915050565b7f4552433732313a206d696e7420746f20746865207a65726f2061646472657373600082015250565b600061363b60208361229b565b915061364682613605565b602082019050919050565b6000602082019050818103600083015261366a8161362e565b9050919050565b7f4552433732313a20746f6b656e20616c7265616479206d696e74656400000000600082015250565b60006136a7601c8361229b565b91506136b282613671565b602082019050919050565b600060208201905081810360008301526136d68161369a565b905091905056fea26469706673582212204fab5d502a03e3070f04d25de3a9e553ec7df3124fd53cf6853aa868a137fd8a64736f6c634300080a0033",
  "immutableReferences": {},
  "source": "// SPDX-License-Identifier: MIT\npragma solidity ^0.8.4;\n\nimport \"@openzeppelin/contracts/token/ERC721/ERC721.sol\";\nimport \"@openzeppelin/contracts/access/AccessControl.sol\";\nimport \"@openzeppelin/contracts/utils/Counters.sol\";\n\ncontract ColdBehaviorNFT is ERC721, AccessControl {\n    using Counters for Counters.Counter;\n\n    uint public constant MAX_TOKENS = 8888;\n    bytes32 public constant MINTER_ROLE = keccak256(\"MINTER_ROLE\");\n    Counters.Counter private _tokenIdCounter;\n    string public baseUri;\n\n    constructor() ERC721(\"Cold Behavior NFT\", \"CBN\") {\n        _grantRole(DEFAULT_ADMIN_ROLE, msg.sender);\n        _grantRole(MINTER_ROLE, msg.sender);\n\n        baseUri = \"https://ipfs.coldbehavior.com/\";\n    }\n\n    function _baseURI() internal view override returns (string memory) {\n        return baseUri;\n    }\n\n    function currentTokenId() external view returns (uint) {\n        return _tokenIdCounter.current() + 1;\n    }\n\n    function safeMint(address to) public onlyRole(MINTER_ROLE) {\n        uint256 tokenId = _tokenIdCounter.current();\n        require(tokenId < MAX_TOKENS, \"No more tokens are available to mint\");\n\n        _tokenIdCounter.increment();\n        _safeMint(to, tokenId);\n    }\n\n    function setBaseUri(string memory _baseUri) external onlyRole(DEFAULT_ADMIN_ROLE) {\n      baseUri = _baseUri;\n    }\n\n    // The following functions are overrides required by Solidity.\n\n    function supportsInterface(bytes4 interfaceId)\n        public\n        view\n        override(ERC721, AccessControl)\n        returns (bool)\n    {\n        return super.supportsInterface(interfaceId);\n    }\n}",
  "sourcePath": "/Users/warrenschwartz/Projects/ColdBehaviour/contracts/contracts/ColdBehaviorNft.sol",
  "compiler": {
    "name": "solc",
    "version": "0.8.10+commit.fc410830.Emscripten.clang"
  },
  "schemaVersion": "3.4.3",
  "updatedAt": "2022-02-23T14:19:21.937Z",
  "devdoc": {
    "kind": "dev",
    "methods": {
      "approve(address,uint256)": {
        "details": "See {IERC721-approve}."
      },
      "balanceOf(address)": {
        "details": "See {IERC721-balanceOf}."
      },
      "getApproved(uint256)": {
        "details": "See {IERC721-getApproved}."
      },
      "getRoleAdmin(bytes32)": {
        "details": "Returns the admin role that controls `role`. See {grantRole} and {revokeRole}. To change a role's admin, use {_setRoleAdmin}."
      },
      "grantRole(bytes32,address)": {
        "details": "Grants `role` to `account`. If `account` had not been already granted `role`, emits a {RoleGranted} event. Requirements: - the caller must have ``role``'s admin role."
      },
      "hasRole(bytes32,address)": {
        "details": "Returns `true` if `account` has been granted `role`."
      },
      "isApprovedForAll(address,address)": {
        "details": "See {IERC721-isApprovedForAll}."
      },
      "name()": {
        "details": "See {IERC721Metadata-name}."
      },
      "ownerOf(uint256)": {
        "details": "See {IERC721-ownerOf}."
      },
      "renounceRole(bytes32,address)": {
        "details": "Revokes `role` from the calling account. Roles are often managed via {grantRole} and {revokeRole}: this function's purpose is to provide a mechanism for accounts to lose their privileges if they are compromised (such as when a trusted device is misplaced). If the calling account had been revoked `role`, emits a {RoleRevoked} event. Requirements: - the caller must be `account`."
      },
      "revokeRole(bytes32,address)": {
        "details": "Revokes `role` from `account`. If `account` had been granted `role`, emits a {RoleRevoked} event. Requirements: - the caller must have ``role``'s admin role."
      },
      "safeTransferFrom(address,address,uint256)": {
        "details": "See {IERC721-safeTransferFrom}."
      },
      "safeTransferFrom(address,address,uint256,bytes)": {
        "details": "See {IERC721-safeTransferFrom}."
      },
      "setApprovalForAll(address,bool)": {
        "details": "See {IERC721-setApprovalForAll}."
      },
      "symbol()": {
        "details": "See {IERC721Metadata-symbol}."
      },
      "tokenURI(uint256)": {
        "details": "See {IERC721Metadata-tokenURI}."
      },
      "transferFrom(address,address,uint256)": {
        "details": "See {IERC721-transferFrom}."
      }
    },
    "version": 1
  },
  "userdoc": {
    "kind": "user",
    "methods": {},
    "version": 1
  }
}