{
  "contractName": "ColdBehaviorNFT",
  "abi": [
    {
      "inputs": [],
      "stateMutability": "nonpayable",
      "type": "constructor"
    },
    {
      "anonymous": false,
      "inputs": [
        {
          "indexed": true,
          "internalType": "address",
          "name": "owner",
          "type": "address"
        },
        {
          "indexed": true,
          "internalType": "address",
          "name": "approved",
          "type": "address"
        },
        {
          "indexed": true,
          "internalType": "uint256",
          "name": "tokenId",
          "type": "uint256"
        }
      ],
      "name": "Approval",
      "type": "event"
    },
    {
      "anonymous": false,
      "inputs": [
        {
          "indexed": true,
          "internalType": "address",
          "name": "owner",
          "type": "address"
        },
        {
          "indexed": true,
          "internalType": "address",
          "name": "operator",
          "type": "address"
        },
        {
          "indexed": false,
          "internalType": "bool",
          "name": "approved",
          "type": "bool"
        }
      ],
      "name": "ApprovalForAll",
      "type": "event"
    },
    {
      "anonymous": false,
      "inputs": [
        {
          "indexed": false,
          "internalType": "address",
          "name": "account",
          "type": "address"
        }
      ],
      "name": "Paused",
      "type": "event"
    },
    {
      "anonymous": false,
      "inputs": [
        {
          "indexed": true,
          "internalType": "bytes32",
          "name": "role",
          "type": "bytes32"
        },
        {
          "indexed": true,
          "internalType": "bytes32",
          "name": "previousAdminRole",
          "type": "bytes32"
        },
        {
          "indexed": true,
          "internalType": "bytes32",
          "name": "newAdminRole",
          "type": "bytes32"
        }
      ],
      "name": "RoleAdminChanged",
      "type": "event"
    },
    {
      "anonymous": false,
      "inputs": [
        {
          "indexed": true,
          "internalType": "bytes32",
          "name": "role",
          "type": "bytes32"
        },
        {
          "indexed": true,
          "internalType": "address",
          "name": "account",
          "type": "address"
        },
        {
          "indexed": true,
          "internalType": "address",
          "name": "sender",
          "type": "address"
        }
      ],
      "name": "RoleGranted",
      "type": "event"
    },
    {
      "anonymous": false,
      "inputs": [
        {
          "indexed": true,
          "internalType": "bytes32",
          "name": "role",
          "type": "bytes32"
        },
        {
          "indexed": true,
          "internalType": "address",
          "name": "account",
          "type": "address"
        },
        {
          "indexed": true,
          "internalType": "address",
          "name": "sender",
          "type": "address"
        }
      ],
      "name": "RoleRevoked",
      "type": "event"
    },
    {
      "anonymous": false,
      "inputs": [
        {
          "indexed": true,
          "internalType": "address",
          "name": "from",
          "type": "address"
        },
        {
          "indexed": true,
          "internalType": "address",
          "name": "to",
          "type": "address"
        },
        {
          "indexed": true,
          "internalType": "uint256",
          "name": "tokenId",
          "type": "uint256"
        }
      ],
      "name": "Transfer",
      "type": "event"
    },
    {
      "anonymous": false,
      "inputs": [
        {
          "indexed": false,
          "internalType": "address",
          "name": "account",
          "type": "address"
        }
      ],
      "name": "Unpaused",
      "type": "event"
    },
    {
      "inputs": [],
      "name": "DEFAULT_ADMIN_ROLE",
      "outputs": [
        {
          "internalType": "bytes32",
          "name": "",
          "type": "bytes32"
        }
      ],
      "stateMutability": "view",
      "type": "function"
    },
    {
      "inputs": [],
      "name": "MAX_MINT_PER_ADDRESS",
      "outputs": [
        {
          "internalType": "uint256",
          "name": "",
          "type": "uint256"
        }
      ],
      "stateMutability": "view",
      "type": "function"
    },
    {
      "inputs": [],
      "name": "MAX_TOKENS",
      "outputs": [
        {
          "internalType": "uint256",
          "name": "",
          "type": "uint256"
        }
      ],
      "stateMutability": "view",
      "type": "function"
    },
    {
      "inputs": [],
      "name": "MINTER_ROLE",
      "outputs": [
        {
          "internalType": "bytes32",
          "name": "",
          "type": "bytes32"
        }
      ],
      "stateMutability": "view",
      "type": "function"
    },
    {
      "inputs": [],
      "name": "MINT_COST",
      "outputs": [
        {
          "internalType": "uint256",
          "name": "",
          "type": "uint256"
        }
      ],
      "stateMutability": "view",
      "type": "function"
    },
    {
      "inputs": [],
      "name": "PAUSER_ROLE",
      "outputs": [
        {
          "internalType": "bytes32",
          "name": "",
          "type": "bytes32"
        }
      ],
      "stateMutability": "view",
      "type": "function"
    },
    {
      "inputs": [
        {
          "internalType": "address",
          "name": "to",
          "type": "address"
        },
        {
          "internalType": "uint256",
          "name": "tokenId",
          "type": "uint256"
        }
      ],
      "name": "approve",
      "outputs": [],
      "stateMutability": "nonpayable",
      "type": "function"
    },
    {
      "inputs": [
        {
          "internalType": "address",
          "name": "owner",
          "type": "address"
        }
      ],
      "name": "balanceOf",
      "outputs": [
        {
          "internalType": "uint256",
          "name": "",
          "type": "uint256"
        }
      ],
      "stateMutability": "view",
      "type": "function"
    },
    {
      "inputs": [],
      "name": "baseUri",
      "outputs": [
        {
          "internalType": "string",
          "name": "",
          "type": "string"
        }
      ],
      "stateMutability": "view",
      "type": "function"
    },
    {
      "inputs": [
        {
          "internalType": "uint256",
          "name": "tokenId",
          "type": "uint256"
        }
      ],
      "name": "getApproved",
      "outputs": [
        {
          "internalType": "address",
          "name": "",
          "type": "address"
        }
      ],
      "stateMutability": "view",
      "type": "function"
    },
    {
      "inputs": [
        {
          "internalType": "bytes32",
          "name": "role",
          "type": "bytes32"
        }
      ],
      "name": "getRoleAdmin",
      "outputs": [
        {
          "internalType": "bytes32",
          "name": "",
          "type": "bytes32"
        }
      ],
      "stateMutability": "view",
      "type": "function"
    },
    {
      "inputs": [
        {
          "internalType": "bytes32",
          "name": "role",
          "type": "bytes32"
        },
        {
          "internalType": "address",
          "name": "account",
          "type": "address"
        }
      ],
      "name": "grantRole",
      "outputs": [],
      "stateMutability": "nonpayable",
      "type": "function"
    },
    {
      "inputs": [
        {
          "internalType": "bytes32",
          "name": "role",
          "type": "bytes32"
        },
        {
          "internalType": "address",
          "name": "account",
          "type": "address"
        }
      ],
      "name": "hasRole",
      "outputs": [
        {
          "internalType": "bool",
          "name": "",
          "type": "bool"
        }
      ],
      "stateMutability": "view",
      "type": "function"
    },
    {
      "inputs": [
        {
          "internalType": "address",
          "name": "owner",
          "type": "address"
        },
        {
          "internalType": "address",
          "name": "operator",
          "type": "address"
        }
      ],
      "name": "isApprovedForAll",
      "outputs": [
        {
          "internalType": "bool",
          "name": "",
          "type": "bool"
        }
      ],
      "stateMutability": "view",
      "type": "function"
    },
    {
      "inputs": [],
      "name": "name",
      "outputs": [
        {
          "internalType": "string",
          "name": "",
          "type": "string"
        }
      ],
      "stateMutability": "view",
      "type": "function"
    },
    {
      "inputs": [
        {
          "internalType": "uint256",
          "name": "tokenId",
          "type": "uint256"
        }
      ],
      "name": "ownerOf",
      "outputs": [
        {
          "internalType": "address",
          "name": "",
          "type": "address"
        }
      ],
      "stateMutability": "view",
      "type": "function"
    },
    {
      "inputs": [],
      "name": "paused",
      "outputs": [
        {
          "internalType": "bool",
          "name": "",
          "type": "bool"
        }
      ],
      "stateMutability": "view",
      "type": "function"
    },
    {
      "inputs": [
        {
          "internalType": "bytes32",
          "name": "role",
          "type": "bytes32"
        },
        {
          "internalType": "address",
          "name": "account",
          "type": "address"
        }
      ],
      "name": "renounceRole",
      "outputs": [],
      "stateMutability": "nonpayable",
      "type": "function"
    },
    {
      "inputs": [
        {
          "internalType": "bytes32",
          "name": "role",
          "type": "bytes32"
        },
        {
          "internalType": "address",
          "name": "account",
          "type": "address"
        }
      ],
      "name": "revokeRole",
      "outputs": [],
      "stateMutability": "nonpayable",
      "type": "function"
    },
    {
      "inputs": [
        {
          "internalType": "address",
          "name": "from",
          "type": "address"
        },
        {
          "internalType": "address",
          "name": "to",
          "type": "address"
        },
        {
          "internalType": "uint256",
          "name": "tokenId",
          "type": "uint256"
        }
      ],
      "name": "safeTransferFrom",
      "outputs": [],
      "stateMutability": "nonpayable",
      "type": "function"
    },
    {
      "inputs": [
        {
          "internalType": "address",
          "name": "from",
          "type": "address"
        },
        {
          "internalType": "address",
          "name": "to",
          "type": "address"
        },
        {
          "internalType": "uint256",
          "name": "tokenId",
          "type": "uint256"
        },
        {
          "internalType": "bytes",
          "name": "_data",
          "type": "bytes"
        }
      ],
      "name": "safeTransferFrom",
      "outputs": [],
      "stateMutability": "nonpayable",
      "type": "function"
    },
    {
      "inputs": [
        {
          "internalType": "address",
          "name": "operator",
          "type": "address"
        },
        {
          "internalType": "bool",
          "name": "approved",
          "type": "bool"
        }
      ],
      "name": "setApprovalForAll",
      "outputs": [],
      "stateMutability": "nonpayable",
      "type": "function"
    },
    {
      "inputs": [],
      "name": "symbol",
      "outputs": [
        {
          "internalType": "string",
          "name": "",
          "type": "string"
        }
      ],
      "stateMutability": "view",
      "type": "function"
    },
    {
      "inputs": [
        {
          "internalType": "uint256",
          "name": "index",
          "type": "uint256"
        }
      ],
      "name": "tokenByIndex",
      "outputs": [
        {
          "internalType": "uint256",
          "name": "",
          "type": "uint256"
        }
      ],
      "stateMutability": "view",
      "type": "function"
    },
    {
      "inputs": [
        {
          "internalType": "address",
          "name": "owner",
          "type": "address"
        },
        {
          "internalType": "uint256",
          "name": "index",
          "type": "uint256"
        }
      ],
      "name": "tokenOfOwnerByIndex",
      "outputs": [
        {
          "internalType": "uint256",
          "name": "",
          "type": "uint256"
        }
      ],
      "stateMutability": "view",
      "type": "function"
    },
    {
      "inputs": [
        {
          "internalType": "uint256",
          "name": "tokenId",
          "type": "uint256"
        }
      ],
      "name": "tokenURI",
      "outputs": [
        {
          "internalType": "string",
          "name": "",
          "type": "string"
        }
      ],
      "stateMutability": "view",
      "type": "function"
    },
    {
      "inputs": [],
      "name": "totalSupply",
      "outputs": [
        {
          "internalType": "uint256",
          "name": "",
          "type": "uint256"
        }
      ],
      "stateMutability": "view",
      "type": "function"
    },
    {
      "inputs": [
        {
          "internalType": "address",
          "name": "from",
          "type": "address"
        },
        {
          "internalType": "address",
          "name": "to",
          "type": "address"
        },
        {
          "internalType": "uint256",
          "name": "tokenId",
          "type": "uint256"
        }
      ],
      "name": "transferFrom",
      "outputs": [],
      "stateMutability": "nonpayable",
      "type": "function"
    },
    {
      "inputs": [],
      "name": "nextTokenId",
      "outputs": [
        {
          "internalType": "uint256",
          "name": "",
          "type": "uint256"
        }
      ],
      "stateMutability": "view",
      "type": "function"
    },
    {
      "inputs": [
        {
          "internalType": "uint256",
          "name": "amount",
          "type": "uint256"
        }
      ],
      "name": "mint",
      "outputs": [],
      "stateMutability": "payable",
      "type": "function"
    },
    {
      "inputs": [],
      "name": "pause",
      "outputs": [],
      "stateMutability": "nonpayable",
      "type": "function"
    },
    {
      "inputs": [
        {
          "internalType": "string",
          "name": "_baseUri",
          "type": "string"
        }
      ],
      "name": "setBaseUri",
      "outputs": [],
      "stateMutability": "nonpayable",
      "type": "function"
    },
    {
      "inputs": [
        {
          "internalType": "address",
          "name": "_owner",
          "type": "address"
        }
      ],
      "name": "tokensOfOwner",
      "outputs": [
        {
          "internalType": "uint256[]",
          "name": "",
          "type": "uint256[]"
        }
      ],
      "stateMutability": "view",
      "type": "function"
    },
    {
      "inputs": [],
      "name": "unpause",
      "outputs": [],
      "stateMutability": "nonpayable",
      "type": "function"
    },
    {
      "inputs": [
        {
          "internalType": "bytes4",
          "name": "interfaceId",
          "type": "bytes4"
        }
      ],
      "name": "supportsInterface",
      "outputs": [
        {
          "internalType": "bool",
          "name": "",
          "type": "bool"
        }
      ],
      "stateMutability": "view",
      "type": "function"
    }
  ],
  "bytecode": "0x60806040523480156200001157600080fd5b506040518060400160405280601181526020017f436f6c64204265686176696f72204e46540000000000000000000000000000008152506040518060400160405280600381526020017f43424e0000000000000000000000000000000000000000000000000000000000815250816000908051906020019062000096929190620002ff565b508060019080519060200190620000af929190620002ff565b5050506000600b60006101000a81548160ff021916908315150217905550620000e26000801b336200019a60201b60201c565b620001147f9f2df0fed2c77648de5860a4cc508cd0818c85b8b8a1ab4ceeef8d981c8956a6336200019a60201b60201c565b620001467f9f2df0fed2c77648de5860a4cc508cd0818c85b8b8a1ab4ceeef8d981c8956a6336200019a60201b60201c565b6040518060400160405280601e81526020017f68747470733a2f2f697066732e636f6c646265686176696f722e636f6d2f0000815250600d908051906020019062000193929190620002ff565b5062000414565b620001ac82826200028c60201b60201c565b62000288576001600a600084815260200190815260200160002060000160008373ffffffffffffffffffffffffffffffffffffffff1673ffffffffffffffffffffffffffffffffffffffff16815260200190815260200160002060006101000a81548160ff0219169083151502179055506200022d620002f760201b60201c565b73ffffffffffffffffffffffffffffffffffffffff168173ffffffffffffffffffffffffffffffffffffffff16837f2f8788117e7eff1d82e926ec794901d17c78024a50270940304540a733656f0d60405160405180910390a45b5050565b6000600a600084815260200190815260200160002060000160008373ffffffffffffffffffffffffffffffffffffffff1673ffffffffffffffffffffffffffffffffffffffff16815260200190815260200160002060009054906101000a900460ff16905092915050565b600033905090565b8280546200030d90620003de565b90600052602060002090601f0160209004810192826200033157600085556200037d565b82601f106200034c57805160ff19168380011785556200037d565b828001600101855582156200037d579182015b828111156200037c5782518255916020019190600101906200035f565b5b5090506200038c919062000390565b5090565b5b80821115620003ab57600081600090555060010162000391565b5090565b7f4e487b7100000000000000000000000000000000000000000000000000000000600052602260045260246000fd5b60006002820490506001821680620003f757607f821691505b602082108114156200040e576200040d620003af565b5b50919050565b61488980620004246000396000f3fe6080604052600436106102045760003560e01c806375794a3c11610118578063a22cb465116100a0578063d53913931161006f578063d539139314610780578063d547741f146107ab578063e63ab1e9146107d4578063e985e9c5146107ff578063f47c84c51461083c57610204565b8063a22cb465146106c6578063b88d4fde146106ef578063c662e48114610718578063c87b56dd1461074357610204565b806395d89b41116100e757806395d89b41146106005780639abc83201461062b578063a0712d6814610656578063a0bcfc7f14610672578063a217fddf1461069b57610204565b806375794a3c146105445780638456cb591461056f5780638462151c1461058657806391d14854146105c357610204565b80632f745c591161019b57806342842e0e1161016a57806342842e0e146104395780634f6ccce7146104625780635c975abb1461049f5780636352211e146104ca57806370a082311461050757610204565b80632f745c591461039157806336568abe146103ce5780633acd6cb2146103f75780633f4ba83a1461042257610204565b806318160ddd116101d757806318160ddd146102d757806323b872dd14610302578063248a9ca31461032b5780632f2ff15d1461036857610204565b806301ffc9a71461020957806306fdde0314610246578063081812fc14610271578063095ea7b3146102ae575b600080fd5b34801561021557600080fd5b50610230600480360381019061022b9190612f66565b610867565b60405161023d9190612fae565b60405180910390f35b34801561025257600080fd5b5061025b610879565b6040516102689190613062565b60405180910390f35b34801561027d57600080fd5b50610298600480360381019061029391906130ba565b61090b565b6040516102a59190613128565b60405180910390f35b3480156102ba57600080fd5b506102d560048036038101906102d0919061316f565b610990565b005b3480156102e357600080fd5b506102ec610aa8565b6040516102f991906131be565b60405180910390f35b34801561030e57600080fd5b50610329600480360381019061032491906131d9565b610ab5565b005b34801561033757600080fd5b50610352600480360381019061034d9190613262565b610b15565b60405161035f919061329e565b60405180910390f35b34801561037457600080fd5b5061038f600480360381019061038a91906132b9565b610b35565b005b34801561039d57600080fd5b506103b860048036038101906103b3919061316f565b610b5e565b6040516103c591906131be565b60405180910390f35b3480156103da57600080fd5b506103f560048036038101906103f091906132b9565b610c03565b005b34801561040357600080fd5b5061040c610c86565b60405161041991906131be565b60405180910390f35b34801561042e57600080fd5b50610437610c8b565b005b34801561044557600080fd5b50610460600480360381019061045b91906131d9565b610cc8565b005b34801561046e57600080fd5b50610489600480360381019061048491906130ba565b610ce8565b60405161049691906131be565b60405180910390f35b3480156104ab57600080fd5b506104b4610d59565b6040516104c19190612fae565b60405180910390f35b3480156104d657600080fd5b506104f160048036038101906104ec91906130ba565b610d70565b6040516104fe9190613128565b60405180910390f35b34801561051357600080fd5b5061052e600480360381019061052991906132f9565b610e22565b60405161053b91906131be565b60405180910390f35b34801561055057600080fd5b50610559610eda565b60405161056691906131be565b60405180910390f35b34801561057b57600080fd5b50610584610eeb565b005b34801561059257600080fd5b506105ad60048036038101906105a891906132f9565b610f28565b6040516105ba91906133e4565b60405180910390f35b3480156105cf57600080fd5b506105ea60048036038101906105e591906132b9565b611032565b6040516105f79190612fae565b60405180910390f35b34801561060c57600080fd5b5061061561109d565b6040516106229190613062565b60405180910390f35b34801561063757600080fd5b5061064061112f565b60405161064d9190613062565b60405180910390f35b610670600480360381019061066b91906130ba565b6111bd565b005b34801561067e57600080fd5b506106996004803603810190610694919061353b565b611372565b005b3480156106a757600080fd5b506106b06113a2565b6040516106bd919061329e565b60405180910390f35b3480156106d257600080fd5b506106ed60048036038101906106e891906135b0565b6113a9565b005b3480156106fb57600080fd5b5061071660048036038101906107119190613691565b6113bf565b005b34801561072457600080fd5b5061072d611421565b60405161073a91906131be565b60405180910390f35b34801561074f57600080fd5b5061076a600480360381019061076591906130ba565b61142c565b6040516107779190613062565b60405180910390f35b34801561078c57600080fd5b506107956114d3565b6040516107a2919061329e565b60405180910390f35b3480156107b757600080fd5b506107d260048036038101906107cd91906132b9565b6114f7565b005b3480156107e057600080fd5b506107e9611520565b6040516107f6919061329e565b60405180910390f35b34801561080b57600080fd5b5061082660048036038101906108219190613714565b611544565b6040516108339190612fae565b60405180910390f35b34801561084857600080fd5b506108516115d8565b60405161085e91906131be565b60405180910390f35b6000610872826115de565b9050919050565b60606000805461088890613783565b80601f01602080910402602001604051908101604052809291908181526020018280546108b490613783565b80156109015780601f106108d657610100808354040283529160200191610901565b820191906000526020600020905b8154815290600101906020018083116108e457829003601f168201915b5050505050905090565b600061091682611658565b610955576040517f08c379a000000000000000000000000000000000000000000000000000000000815260040161094c90613827565b60405180910390fd5b6004600083815260200190815260200160002060009054906101000a900473ffffffffffffffffffffffffffffffffffffffff169050919050565b600061099b82610d70565b90508073ffffffffffffffffffffffffffffffffffffffff168373ffffffffffffffffffffffffffffffffffffffff161415610a0c576040517f08c379a0000000000000000000000000000000000000000000000000000000008152600401610a03906138b9565b60405180910390fd5b8073ffffffffffffffffffffffffffffffffffffffff16610a2b6116c4565b73ffffffffffffffffffffffffffffffffffffffff161480610a5a5750610a5981610a546116c4565b611544565b5b610a99576040517f08c379a0000000000000000000000000000000000000000000000000000000008152600401610a909061394b565b60405180910390fd5b610aa383836116cc565b505050565b6000600880549050905090565b610ac6610ac06116c4565b82611785565b610b05576040517f08c379a0000000000000000000000000000000000000000000000000000000008152600401610afc906139dd565b60405180910390fd5b610b10838383611863565b505050565b6000600a6000838152602001908152602001600020600101549050919050565b610b3e82610b15565b610b4f81610b4a6116c4565b611abf565b610b598383611b5c565b505050565b6000610b6983610e22565b8210610baa576040517f08c379a0000000000000000000000000000000000000000000000000000000008152600401610ba190613a6f565b60405180910390fd5b600660008473ffffffffffffffffffffffffffffffffffffffff1673ffffffffffffffffffffffffffffffffffffffff168152602001908152602001600020600083815260200190815260200160002054905092915050565b610c0b6116c4565b73ffffffffffffffffffffffffffffffffffffffff168173ffffffffffffffffffffffffffffffffffffffff1614610c78576040517f08c379a0000000000000000000000000000000000000000000000000000000008152600401610c6f90613b01565b60405180910390fd5b610c828282611c3d565b5050565b600281565b7f65d7a28e3265b37a6474929f336521b332c1681b933f6cb9f3376673440d862a610cbd81610cb86116c4565b611abf565b610cc5611d1f565b50565b610ce3838383604051806020016040528060008152506113bf565b505050565b6000610cf2610aa8565b8210610d33576040517f08c379a0000000000000000000000000000000000000000000000000000000008152600401610d2a90613b93565b60405180910390fd5b60088281548110610d4757610d46613bb3565b5b90600052602060002001549050919050565b6000600b60009054906101000a900460ff16905090565b6000806002600084815260200190815260200160002060009054906101000a900473ffffffffffffffffffffffffffffffffffffffff169050600073ffffffffffffffffffffffffffffffffffffffff168173ffffffffffffffffffffffffffffffffffffffff161415610e19576040517f08c379a0000000000000000000000000000000000000000000000000000000008152600401610e1090613c54565b60405180910390fd5b80915050919050565b60008073ffffffffffffffffffffffffffffffffffffffff168273ffffffffffffffffffffffffffffffffffffffff161415610e93576040517f08c379a0000000000000000000000000000000000000000000000000000000008152600401610e8a90613ce6565b60405180910390fd5b600360008373ffffffffffffffffffffffffffffffffffffffff1673ffffffffffffffffffffffffffffffffffffffff168152602001908152602001600020549050919050565b6000610ee6600c611dc1565b905090565b7f65d7a28e3265b37a6474929f336521b332c1681b933f6cb9f3376673440d862a610f1d81610f186116c4565b611abf565b610f25611dcf565b50565b60606000610f3583610e22565b90506000811415610f9257600067ffffffffffffffff811115610f5b57610f5a613410565b5b604051908082528060200260200182016040528015610f895781602001602082028036833780820191505090505b5091505061102d565b60008167ffffffffffffffff811115610fae57610fad613410565b5b604051908082528060200260200182016040528015610fdc5781602001602082028036833780820191505090505b50905060005b8281101561102657610ff48582610b5e565b82828151811061100757611006613bb3565b5b602002602001018181525050808061101e90613d35565b915050610fe2565b8193505050505b919050565b6000600a600084815260200190815260200160002060000160008373ffffffffffffffffffffffffffffffffffffffff1673ffffffffffffffffffffffffffffffffffffffff16815260200190815260200160002060009054906101000a900460ff16905092915050565b6060600180546110ac90613783565b80601f01602080910402602001604051908101604052809291908181526020018280546110d890613783565b80156111255780601f106110fa57610100808354040283529160200191611125565b820191906000526020600020905b81548152906001019060200180831161110857829003601f168201915b5050505050905090565b600d805461113c90613783565b80601f016020809104026020016040519081016040528092919081815260200182805461116890613783565b80156111b55780601f1061118a576101008083540402835291602001916111b5565b820191906000526020600020905b81548152906001019060200180831161119857829003601f168201915b505050505081565b6111c5610d59565b15611205576040517f08c379a00000000000000000000000000000000000000000000000000000000081526004016111fc90613dca565b60405180910390fd5b7f9f2df0fed2c77648de5860a4cc508cd0818c85b8b8a1ab4ceeef8d981c8956a6611237816112326116c4565b611abf565b662386f26fc100008261124a9190613dea565b341461128b576040517f08c379a000000000000000000000000000000000000000000000000000000000815260040161128290613eb6565b60405180910390fd5b600061129633610e22565b9050600281846112a69190613ed6565b11156112e7576040517f08c379a00000000000000000000000000000000000000000000000000000000081526004016112de90613f78565b60405180910390fd5b60005b8381101561136c5760006112fe600c611dc1565b90506122b88110611344576040517f08c379a000000000000000000000000000000000000000000000000000000000815260040161133b9061400a565b60405180910390fd5b61134e600c611e72565b6113583382611e88565b50808061136490613d35565b9150506112ea565b50505050565b6000801b611387816113826116c4565b611abf565b81600d908051906020019061139d929190612e57565b505050565b6000801b81565b6113bb6113b46116c4565b8383611ea6565b5050565b6113d06113ca6116c4565b83611785565b61140f576040517f08c379a0000000000000000000000000000000000000000000000000000000008152600401611406906139dd565b60405180910390fd5b61141b84848484612013565b50505050565b662386f26fc1000081565b606061143782611658565b611476576040517f08c379a000000000000000000000000000000000000000000000000000000000815260040161146d9061409c565b60405180910390fd5b600061148061206f565b905060008151116114a057604051806020016040528060008152506114cb565b806114aa84612101565b6040516020016114bb9291906140f8565b6040516020818303038152906040525b915050919050565b7f9f2df0fed2c77648de5860a4cc508cd0818c85b8b8a1ab4ceeef8d981c8956a681565b61150082610b15565b6115118161150c6116c4565b611abf565b61151b8383611c3d565b505050565b7f65d7a28e3265b37a6474929f336521b332c1681b933f6cb9f3376673440d862a81565b6000600560008473ffffffffffffffffffffffffffffffffffffffff1673ffffffffffffffffffffffffffffffffffffffff16815260200190815260200160002060008373ffffffffffffffffffffffffffffffffffffffff1673ffffffffffffffffffffffffffffffffffffffff16815260200190815260200160002060009054906101000a900460ff16905092915050565b6122b881565b60007f7965db0b000000000000000000000000000000000000000000000000000000007bffffffffffffffffffffffffffffffffffffffffffffffffffffffff1916827bffffffffffffffffffffffffffffffffffffffffffffffffffffffff19161480611651575061165082612262565b5b9050919050565b60008073ffffffffffffffffffffffffffffffffffffffff166002600084815260200190815260200160002060009054906101000a900473ffffffffffffffffffffffffffffffffffffffff1673ffffffffffffffffffffffffffffffffffffffff1614159050919050565b600033905090565b816004600083815260200190815260200160002060006101000a81548173ffffffffffffffffffffffffffffffffffffffff021916908373ffffffffffffffffffffffffffffffffffffffff160217905550808273ffffffffffffffffffffffffffffffffffffffff1661173f83610d70565b73ffffffffffffffffffffffffffffffffffffffff167f8c5be1e5ebec7d5bd14f71427d1e84f3dd0314c0f7b2291e5b200ac8c7c3b92560405160405180910390a45050565b600061179082611658565b6117cf576040517f08c379a00000000000000000000000000000000000000000000000000000000081526004016117c69061418e565b60405180910390fd5b60006117da83610d70565b90508073ffffffffffffffffffffffffffffffffffffffff168473ffffffffffffffffffffffffffffffffffffffff16148061184957508373ffffffffffffffffffffffffffffffffffffffff166118318461090b565b73ffffffffffffffffffffffffffffffffffffffff16145b8061185a57506118598185611544565b5b91505092915050565b8273ffffffffffffffffffffffffffffffffffffffff1661188382610d70565b73ffffffffffffffffffffffffffffffffffffffff16146118d9576040517f08c379a00000000000000000000000000000000000000000000000000000000081526004016118d090614220565b60405180910390fd5b600073ffffffffffffffffffffffffffffffffffffffff168273ffffffffffffffffffffffffffffffffffffffff161415611949576040517f08c379a0000000000000000000000000000000000000000000000000000000008152600401611940906142b2565b60405180910390fd5b6119548383836122dc565b61195f6000826116cc565b6001600360008573ffffffffffffffffffffffffffffffffffffffff1673ffffffffffffffffffffffffffffffffffffffff16815260200190815260200160002060008282546119af91906142d2565b925050819055506001600360008473ffffffffffffffffffffffffffffffffffffffff1673ffffffffffffffffffffffffffffffffffffffff1681526020019081526020016000206000828254611a069190613ed6565b92505081905550816002600083815260200190815260200160002060006101000a81548173ffffffffffffffffffffffffffffffffffffffff021916908373ffffffffffffffffffffffffffffffffffffffff160217905550808273ffffffffffffffffffffffffffffffffffffffff168473ffffffffffffffffffffffffffffffffffffffff167fddf252ad1be2c89b69c2b068fc378daa952ba7f163c4a11628f55a4df523b3ef60405160405180910390a4505050565b611ac98282611032565b611b5857611aee8173ffffffffffffffffffffffffffffffffffffffff1660146122ec565b611afc8360001c60206122ec565b604051602001611b0d92919061439e565b6040516020818303038152906040526040517f08c379a0000000000000000000000000000000000000000000000000000000008152600401611b4f9190613062565b60405180910390fd5b5050565b611b668282611032565b611c39576001600a600084815260200190815260200160002060000160008373ffffffffffffffffffffffffffffffffffffffff1673ffffffffffffffffffffffffffffffffffffffff16815260200190815260200160002060006101000a81548160ff021916908315150217905550611bde6116c4565b73ffffffffffffffffffffffffffffffffffffffff168173ffffffffffffffffffffffffffffffffffffffff16837f2f8788117e7eff1d82e926ec794901d17c78024a50270940304540a733656f0d60405160405180910390a45b5050565b611c478282611032565b15611d1b576000600a600084815260200190815260200160002060000160008373ffffffffffffffffffffffffffffffffffffffff1673ffffffffffffffffffffffffffffffffffffffff16815260200190815260200160002060006101000a81548160ff021916908315150217905550611cc06116c4565b73ffffffffffffffffffffffffffffffffffffffff168173ffffffffffffffffffffffffffffffffffffffff16837ff6391f5c32d9c69d2a47ea670b442974b53935d1edc7fd64eb21e047a839171b60405160405180910390a45b5050565b611d27610d59565b611d66576040517f08c379a0000000000000000000000000000000000000000000000000000000008152600401611d5d90614424565b60405180910390fd5b6000600b60006101000a81548160ff0219169083151502179055507f5db9ee0a495bf2e6ff9c91a7834c1ba4fdd244a5e8aa4e537bd38aeae4b073aa611daa6116c4565b604051611db79190613128565b60405180910390a1565b600081600001549050919050565b611dd7610d59565b15611e17576040517f08c379a0000000000000000000000000000000000000000000000000000000008152600401611e0e90613dca565b60405180910390fd5b6001600b60006101000a81548160ff0219169083151502179055507f62e78cea01bee320cd4e420270b5ea74000d11b0c9f74754ebdbfc544b05a258611e5b6116c4565b604051611e689190613128565b60405180910390a1565b6001816000016000828254019250508190555050565b611ea2828260405180602001604052806000815250612528565b5050565b8173ffffffffffffffffffffffffffffffffffffffff168373ffffffffffffffffffffffffffffffffffffffff161415611f15576040517f08c379a0000000000000000000000000000000000000000000000000000000008152600401611f0c90614490565b60405180910390fd5b80600560008573ffffffffffffffffffffffffffffffffffffffff1673ffffffffffffffffffffffffffffffffffffffff16815260200190815260200160002060008473ffffffffffffffffffffffffffffffffffffffff1673ffffffffffffffffffffffffffffffffffffffff16815260200190815260200160002060006101000a81548160ff0219169083151502179055508173ffffffffffffffffffffffffffffffffffffffff168373ffffffffffffffffffffffffffffffffffffffff167f17307eab39ab6107e8899845ad3d59bd9653f200f220920489ca2b5937696c31836040516120069190612fae565b60405180910390a3505050565b61201e848484611863565b61202a84848484612583565b612069576040517f08c379a000000000000000000000000000000000000000000000000000000000815260040161206090614522565b60405180910390fd5b50505050565b6060600d805461207e90613783565b80601f01602080910402602001604051908101604052809291908181526020018280546120aa90613783565b80156120f75780601f106120cc576101008083540402835291602001916120f7565b820191906000526020600020905b8154815290600101906020018083116120da57829003601f168201915b5050505050905090565b60606000821415612149576040518060400160405280600181526020017f3000000000000000000000000000000000000000000000000000000000000000815250905061225d565b600082905060005b6000821461217b57808061216490613d35565b915050600a826121749190614571565b9150612151565b60008167ffffffffffffffff81111561219757612196613410565b5b6040519080825280601f01601f1916602001820160405280156121c95781602001600182028036833780820191505090505b5090505b60008514612256576001826121e291906142d2565b9150600a856121f191906145a2565b60306121fd9190613ed6565b60f81b81838151811061221357612212613bb3565b5b60200101907effffffffffffffffffffffffffffffffffffffffffffffffffffffffffffff1916908160001a905350600a8561224f9190614571565b94506121cd565b8093505050505b919050565b60007f780e9d63000000000000000000000000000000000000000000000000000000007bffffffffffffffffffffffffffffffffffffffffffffffffffffffff1916827bffffffffffffffffffffffffffffffffffffffffffffffffffffffff191614806122d557506122d48261270b565b5b9050919050565b6122e78383836127ed565b505050565b6060600060028360026122ff9190613dea565b6123099190613ed6565b67ffffffffffffffff81111561232257612321613410565b5b6040519080825280601f01601f1916602001820160405280156123545781602001600182028036833780820191505090505b5090507f30000000000000000000000000000000000000000000000000000000000000008160008151811061238c5761238b613bb3565b5b60200101907effffffffffffffffffffffffffffffffffffffffffffffffffffffffffffff1916908160001a9053507f7800000000000000000000000000000000000000000000000000000000000000816001815181106123f0576123ef613bb3565b5b60200101907effffffffffffffffffffffffffffffffffffffffffffffffffffffffffffff1916908160001a905350600060018460026124309190613dea565b61243a9190613ed6565b90505b60018111156124da577f3031323334353637383961626364656600000000000000000000000000000000600f86166010811061247c5761247b613bb3565b5b1a60f81b82828151811061249357612492613bb3565b5b60200101907effffffffffffffffffffffffffffffffffffffffffffffffffffffffffffff1916908160001a905350600485901c9450806124d3906145d3565b905061243d565b506000841461251e576040517f08c379a000000000000000000000000000000000000000000000000000000000815260040161251590614649565b60405180910390fd5b8091505092915050565b6125328383612901565b61253f6000848484612583565b61257e576040517f08c379a000000000000000000000000000000000000000000000000000000000815260040161257590614522565b60405180910390fd5b505050565b60006125a48473ffffffffffffffffffffffffffffffffffffffff16612acf565b156126fe578373ffffffffffffffffffffffffffffffffffffffff1663150b7a026125cd6116c4565b8786866040518563ffffffff1660e01b81526004016125ef94939291906146be565b6020604051808303816000875af192505050801561262b57506040513d601f19601f82011682018060405250810190612628919061471f565b60015b6126ae573d806000811461265b576040519150601f19603f3d011682016040523d82523d6000602084013e612660565b606091505b506000815114156126a6576040517f08c379a000000000000000000000000000000000000000000000000000000000815260040161269d90614522565b60405180910390fd5b805181602001fd5b63150b7a0260e01b7bffffffffffffffffffffffffffffffffffffffffffffffffffffffff1916817bffffffffffffffffffffffffffffffffffffffffffffffffffffffff191614915050612703565b600190505b949350505050565b60007f80ac58cd000000000000000000000000000000000000000000000000000000007bffffffffffffffffffffffffffffffffffffffffffffffffffffffff1916827bffffffffffffffffffffffffffffffffffffffffffffffffffffffff191614806127d657507f5b5e139f000000000000000000000000000000000000000000000000000000007bffffffffffffffffffffffffffffffffffffffffffffffffffffffff1916827bffffffffffffffffffffffffffffffffffffffffffffffffffffffff1916145b806127e657506127e582612ae2565b5b9050919050565b6127f8838383612b4c565b600073ffffffffffffffffffffffffffffffffffffffff168373ffffffffffffffffffffffffffffffffffffffff16141561283b5761283681612b51565b61287a565b8173ffffffffffffffffffffffffffffffffffffffff168373ffffffffffffffffffffffffffffffffffffffff1614612879576128788382612b9a565b5b5b600073ffffffffffffffffffffffffffffffffffffffff168273ffffffffffffffffffffffffffffffffffffffff1614156128bd576128b881612d07565b6128fc565b8273ffffffffffffffffffffffffffffffffffffffff168273ffffffffffffffffffffffffffffffffffffffff16146128fb576128fa8282612dd8565b5b5b505050565b600073ffffffffffffffffffffffffffffffffffffffff168273ffffffffffffffffffffffffffffffffffffffff161415612971576040517f08c379a000000000000000000000000000000000000000000000000000000000815260040161296890614798565b60405180910390fd5b61297a81611658565b156129ba576040517f08c379a00000000000000000000000000000000000000000000000000000000081526004016129b190614804565b60405180910390fd5b6129c6600083836122dc565b6001600360008473ffffffffffffffffffffffffffffffffffffffff1673ffffffffffffffffffffffffffffffffffffffff1681526020019081526020016000206000828254612a169190613ed6565b92505081905550816002600083815260200190815260200160002060006101000a81548173ffffffffffffffffffffffffffffffffffffffff021916908373ffffffffffffffffffffffffffffffffffffffff160217905550808273ffffffffffffffffffffffffffffffffffffffff16600073ffffffffffffffffffffffffffffffffffffffff167fddf252ad1be2c89b69c2b068fc378daa952ba7f163c4a11628f55a4df523b3ef60405160405180910390a45050565b600080823b905060008111915050919050565b60007f01ffc9a7000000000000000000000000000000000000000000000000000000007bffffffffffffffffffffffffffffffffffffffffffffffffffffffff1916827bffffffffffffffffffffffffffffffffffffffffffffffffffffffff1916149050919050565b505050565b6008805490506009600083815260200190815260200160002081905550600881908060018154018082558091505060019003906000526020600020016000909190919091505550565b60006001612ba784610e22565b612bb191906142d2565b9050600060076000848152602001908152602001600020549050818114612c96576000600660008673ffffffffffffffffffffffffffffffffffffffff1673ffffffffffffffffffffffffffffffffffffffff168152602001908152602001600020600084815260200190815260200160002054905080600660008773ffffffffffffffffffffffffffffffffffffffff1673ffffffffffffffffffffffffffffffffffffffff168152602001908152602001600020600084815260200190815260200160002081905550816007600083815260200190815260200160002081905550505b6007600084815260200190815260200160002060009055600660008573ffffffffffffffffffffffffffffffffffffffff1673ffffffffffffffffffffffffffffffffffffffff16815260200190815260200160002060008381526020019081526020016000206000905550505050565b60006001600880549050612d1b91906142d2565b9050600060096000848152602001908152602001600020549050600060088381548110612d4b57612d4a613bb3565b5b906000526020600020015490508060088381548110612d6d57612d6c613bb3565b5b906000526020600020018190555081600960008381526020019081526020016000208190555060096000858152602001908152602001600020600090556008805480612dbc57612dbb614824565b5b6001900381819060005260206000200160009055905550505050565b6000612de383610e22565b905081600660008573ffffffffffffffffffffffffffffffffffffffff1673ffffffffffffffffffffffffffffffffffffffff168152602001908152602001600020600083815260200190815260200160002081905550806007600084815260200190815260200160002081905550505050565b828054612e6390613783565b90600052602060002090601f016020900481019282612e855760008555612ecc565b82601f10612e9e57805160ff1916838001178555612ecc565b82800160010185558215612ecc579182015b82811115612ecb578251825591602001919060010190612eb0565b5b509050612ed99190612edd565b5090565b5b80821115612ef6576000816000905550600101612ede565b5090565b6000604051905090565b600080fd5b600080fd5b60007fffffffff0000000000000000000000000000000000000000000000000000000082169050919050565b612f4381612f0e565b8114612f4e57600080fd5b50565b600081359050612f6081612f3a565b92915050565b600060208284031215612f7c57612f7b612f04565b5b6000612f8a84828501612f51565b91505092915050565b60008115159050919050565b612fa881612f93565b82525050565b6000602082019050612fc36000830184612f9f565b92915050565b600081519050919050565b600082825260208201905092915050565b60005b83811015613003578082015181840152602081019050612fe8565b83811115613012576000848401525b50505050565b6000601f19601f8301169050919050565b600061303482612fc9565b61303e8185612fd4565b935061304e818560208601612fe5565b61305781613018565b840191505092915050565b6000602082019050818103600083015261307c8184613029565b905092915050565b6000819050919050565b61309781613084565b81146130a257600080fd5b50565b6000813590506130b48161308e565b92915050565b6000602082840312156130d0576130cf612f04565b5b60006130de848285016130a5565b91505092915050565b600073ffffffffffffffffffffffffffffffffffffffff82169050919050565b6000613112826130e7565b9050919050565b61312281613107565b82525050565b600060208201905061313d6000830184613119565b92915050565b61314c81613107565b811461315757600080fd5b50565b60008135905061316981613143565b92915050565b6000806040838503121561318657613185612f04565b5b60006131948582860161315a565b92505060206131a5858286016130a5565b9150509250929050565b6131b881613084565b82525050565b60006020820190506131d360008301846131af565b92915050565b6000806000606084860312156131f2576131f1612f04565b5b60006132008682870161315a565b93505060206132118682870161315a565b9250506040613222868287016130a5565b9150509250925092565b6000819050919050565b61323f8161322c565b811461324a57600080fd5b50565b60008135905061325c81613236565b92915050565b60006020828403121561327857613277612f04565b5b60006132868482850161324d565b91505092915050565b6132988161322c565b82525050565b60006020820190506132b3600083018461328f565b92915050565b600080604083850312156132d0576132cf612f04565b5b60006132de8582860161324d565b92505060206132ef8582860161315a565b9150509250929050565b60006020828403121561330f5761330e612f04565b5b600061331d8482850161315a565b91505092915050565b600081519050919050565b600082825260208201905092915050565b6000819050602082019050919050565b61335b81613084565b82525050565b600061336d8383613352565b60208301905092915050565b6000602082019050919050565b600061339182613326565b61339b8185613331565b93506133a683613342565b8060005b838110156133d75781516133be8882613361565b97506133c983613379565b9250506001810190506133aa565b5085935050505092915050565b600060208201905081810360008301526133fe8184613386565b905092915050565b600080fd5b600080fd5b7f4e487b7100000000000000000000000000000000000000000000000000000000600052604160045260246000fd5b61344882613018565b810181811067ffffffffffffffff8211171561346757613466613410565b5b80604052505050565b600061347a612efa565b9050613486828261343f565b919050565b600067ffffffffffffffff8211156134a6576134a5613410565b5b6134af82613018565b9050602081019050919050565b82818337600083830152505050565b60006134de6134d98461348b565b613470565b9050828152602081018484840111156134fa576134f961340b565b5b6135058482856134bc565b509392505050565b600082601f83011261352257613521613406565b5b81356135328482602086016134cb565b91505092915050565b60006020828403121561355157613550612f04565b5b600082013567ffffffffffffffff81111561356f5761356e612f09565b5b61357b8482850161350d565b91505092915050565b61358d81612f93565b811461359857600080fd5b50565b6000813590506135aa81613584565b92915050565b600080604083850312156135c7576135c6612f04565b5b60006135d58582860161315a565b92505060206135e68582860161359b565b9150509250929050565b600067ffffffffffffffff82111561360b5761360a613410565b5b61361482613018565b9050602081019050919050565b600061363461362f846135f0565b613470565b9050828152602081018484840111156136505761364f61340b565b5b61365b8482856134bc565b509392505050565b600082601f83011261367857613677613406565b5b8135613688848260208601613621565b91505092915050565b600080600080608085870312156136ab576136aa612f04565b5b60006136b98782880161315a565b94505060206136ca8782880161315a565b93505060406136db878288016130a5565b925050606085013567ffffffffffffffff8111156136fc576136fb612f09565b5b61370887828801613663565b91505092959194509250565b6000806040838503121561372b5761372a612f04565b5b60006137398582860161315a565b925050602061374a8582860161315a565b9150509250929050565b7f4e487b7100000000000000000000000000000000000000000000000000000000600052602260045260246000fd5b6000600282049050600182168061379b57607f821691505b602082108114156137af576137ae613754565b5b50919050565b7f4552433732313a20617070726f76656420717565727920666f72206e6f6e657860008201527f697374656e7420746f6b656e0000000000000000000000000000000000000000602082015250565b6000613811602c83612fd4565b915061381c826137b5565b604082019050919050565b6000602082019050818103600083015261384081613804565b9050919050565b7f4552433732313a20617070726f76616c20746f2063757272656e74206f776e6560008201527f7200000000000000000000000000000000000000000000000000000000000000602082015250565b60006138a3602183612fd4565b91506138ae82613847565b604082019050919050565b600060208201905081810360008301526138d281613896565b9050919050565b7f4552433732313a20617070726f76652063616c6c6572206973206e6f74206f7760008201527f6e6572206e6f7220617070726f76656420666f7220616c6c0000000000000000602082015250565b6000613935603883612fd4565b9150613940826138d9565b604082019050919050565b6000602082019050818103600083015261396481613928565b9050919050565b7f4552433732313a207472616e736665722063616c6c6572206973206e6f74206f60008201527f776e6572206e6f7220617070726f766564000000000000000000000000000000602082015250565b60006139c7603183612fd4565b91506139d28261396b565b604082019050919050565b600060208201905081810360008301526139f6816139ba565b9050919050565b7f455243373231456e756d657261626c653a206f776e657220696e646578206f7560008201527f74206f6620626f756e6473000000000000000000000000000000000000000000602082015250565b6000613a59602b83612fd4565b9150613a64826139fd565b604082019050919050565b60006020820190508181036000830152613a8881613a4c565b9050919050565b7f416363657373436f6e74726f6c3a2063616e206f6e6c792072656e6f756e636560008201527f20726f6c657320666f722073656c660000000000000000000000000000000000602082015250565b6000613aeb602f83612fd4565b9150613af682613a8f565b604082019050919050565b60006020820190508181036000830152613b1a81613ade565b9050919050565b7f455243373231456e756d657261626c653a20676c6f62616c20696e646578206f60008201527f7574206f6620626f756e64730000000000000000000000000000000000000000602082015250565b6000613b7d602c83612fd4565b9150613b8882613b21565b604082019050919050565b60006020820190508181036000830152613bac81613b70565b9050919050565b7f4e487b7100000000000000000000000000000000000000000000000000000000600052603260045260246000fd5b7f4552433732313a206f776e657220717565727920666f72206e6f6e657869737460008201527f656e7420746f6b656e0000000000000000000000000000000000000000000000602082015250565b6000613c3e602983612fd4565b9150613c4982613be2565b604082019050919050565b60006020820190508181036000830152613c6d81613c31565b9050919050565b7f4552433732313a2062616c616e636520717565727920666f7220746865207a6560008201527f726f206164647265737300000000000000000000000000000000000000000000602082015250565b6000613cd0602a83612fd4565b9150613cdb82613c74565b604082019050919050565b60006020820190508181036000830152613cff81613cc3565b9050919050565b7f4e487b7100000000000000000000000000000000000000000000000000000000600052601160045260246000fd5b6000613d4082613084565b91507fffffffffffffffffffffffffffffffffffffffffffffffffffffffffffffffff821415613d7357613d72613d06565b5b600182019050919050565b7f5061757361626c653a2070617573656400000000000000000000000000000000600082015250565b6000613db4601083612fd4565b9150613dbf82613d7e565b602082019050919050565b60006020820190508181036000830152613de381613da7565b9050919050565b6000613df582613084565b9150613e0083613084565b9250817fffffffffffffffffffffffffffffffffffffffffffffffffffffffffffffffff0483118215151615613e3957613e38613d06565b5b828202905092915050565b7f5472616e73616374696f6e2076616c756520646f6573206e6f74206d6174636860008201527f20746865206d696e7420636f7374000000000000000000000000000000000000602082015250565b6000613ea0602e83612fd4565b9150613eab82613e44565b604082019050919050565b60006020820190508181036000830152613ecf81613e93565b9050919050565b6000613ee182613084565b9150613eec83613084565b9250827fffffffffffffffffffffffffffffffffffffffffffffffffffffffffffffffff03821115613f2157613f20613d06565b5b828201905092915050565b7f4578636565646564206d696e74696e67206c696d697400000000000000000000600082015250565b6000613f62601683612fd4565b9150613f6d82613f2c565b602082019050919050565b60006020820190508181036000830152613f9181613f55565b9050919050565b7f4e6f206d6f726520746f6b656e732061726520617661696c61626c6520746f2060008201527f6d696e7400000000000000000000000000000000000000000000000000000000602082015250565b6000613ff4602483612fd4565b9150613fff82613f98565b604082019050919050565b6000602082019050818103600083015261402381613fe7565b9050919050565b7f4552433732314d657461646174613a2055524920717565727920666f72206e6f60008201527f6e6578697374656e7420746f6b656e0000000000000000000000000000000000602082015250565b6000614086602f83612fd4565b91506140918261402a565b604082019050919050565b600060208201905081810360008301526140b581614079565b9050919050565b600081905092915050565b60006140d282612fc9565b6140dc81856140bc565b93506140ec818560208601612fe5565b80840191505092915050565b600061410482856140c7565b915061411082846140c7565b91508190509392505050565b7f4552433732313a206f70657261746f7220717565727920666f72206e6f6e657860008201527f697374656e7420746f6b656e0000000000000000000000000000000000000000602082015250565b6000614178602c83612fd4565b91506141838261411c565b604082019050919050565b600060208201905081810360008301526141a78161416b565b9050919050565b7f4552433732313a207472616e73666572206f6620746f6b656e2074686174206960008201527f73206e6f74206f776e0000000000000000000000000000000000000000000000602082015250565b600061420a602983612fd4565b9150614215826141ae565b604082019050919050565b60006020820190508181036000830152614239816141fd565b9050919050565b7f4552433732313a207472616e7366657220746f20746865207a65726f2061646460008201527f7265737300000000000000000000000000000000000000000000000000000000602082015250565b600061429c602483612fd4565b91506142a782614240565b604082019050919050565b600060208201905081810360008301526142cb8161428f565b9050919050565b60006142dd82613084565b91506142e883613084565b9250828210156142fb576142fa613d06565b5b828203905092915050565b7f416363657373436f6e74726f6c3a206163636f756e7420000000000000000000600082015250565b600061433c6017836140bc565b915061434782614306565b601782019050919050565b7f206973206d697373696e6720726f6c6520000000000000000000000000000000600082015250565b60006143886011836140bc565b915061439382614352565b601182019050919050565b60006143a98261432f565b91506143b582856140c7565b91506143c08261437b565b91506143cc82846140c7565b91508190509392505050565b7f5061757361626c653a206e6f7420706175736564000000000000000000000000600082015250565b600061440e601483612fd4565b9150614419826143d8565b602082019050919050565b6000602082019050818103600083015261443d81614401565b9050919050565b7f4552433732313a20617070726f766520746f2063616c6c657200000000000000600082015250565b600061447a601983612fd4565b915061448582614444565b602082019050919050565b600060208201905081810360008301526144a98161446d565b9050919050565b7f4552433732313a207472616e7366657220746f206e6f6e20455243373231526560008201527f63656976657220696d706c656d656e7465720000000000000000000000000000602082015250565b600061450c603283612fd4565b9150614517826144b0565b604082019050919050565b6000602082019050818103600083015261453b816144ff565b9050919050565b7f4e487b7100000000000000000000000000000000000000000000000000000000600052601260045260246000fd5b600061457c82613084565b915061458783613084565b92508261459757614596614542565b5b828204905092915050565b60006145ad82613084565b91506145b883613084565b9250826145c8576145c7614542565b5b828206905092915050565b60006145de82613084565b915060008214156145f2576145f1613d06565b5b600182039050919050565b7f537472696e67733a20686578206c656e67746820696e73756666696369656e74600082015250565b6000614633602083612fd4565b915061463e826145fd565b602082019050919050565b6000602082019050818103600083015261466281614626565b9050919050565b600081519050919050565b600082825260208201905092915050565b600061469082614669565b61469a8185614674565b93506146aa818560208601612fe5565b6146b381613018565b840191505092915050565b60006080820190506146d36000830187613119565b6146e06020830186613119565b6146ed60408301856131af565b81810360608301526146ff8184614685565b905095945050505050565b60008151905061471981612f3a565b92915050565b60006020828403121561473557614734612f04565b5b60006147438482850161470a565b91505092915050565b7f4552433732313a206d696e7420746f20746865207a65726f2061646472657373600082015250565b6000614782602083612fd4565b915061478d8261474c565b602082019050919050565b600060208201905081810360008301526147b181614775565b9050919050565b7f4552433732313a20746f6b656e20616c7265616479206d696e74656400000000600082015250565b60006147ee601c83612fd4565b91506147f9826147b8565b602082019050919050565b6000602082019050818103600083015261481d816147e1565b9050919050565b7f4e487b7100000000000000000000000000000000000000000000000000000000600052603160045260246000fdfea26469706673582212206eeb543442b518b2b0f836743c8342df31df62ee1b64ac9248f5d66d06a1dd5e64736f6c634300080a0033",
  "immutableReferences": {},
  "source": "// SPDX-License-Identifier: MIT\npragma solidity ^0.8.4;\n\nimport \"@openzeppelin/contracts/token/ERC721/ERC721.sol\";\nimport \"@openzeppelin/contracts/access/AccessControl.sol\";\nimport \"@openzeppelin/contracts/utils/Counters.sol\";\nimport \"@openzeppelin/contracts/security/Pausable.sol\";\nimport \"@openzeppelin/contracts/token/ERC721/extensions/ERC721Enumerable.sol\";\n\ncontract ColdBehaviorNFT is ERC721, ERC721Enumerable, AccessControl, Pausable {\n    using Counters for Counters.Counter;\n\n    uint256 public constant MAX_MINT_PER_ADDRESS = 2;\n    uint256 public constant MAX_TOKENS = 8888;\n    uint256 public constant MINT_COST = 0.01 ether; //this is just for test purposes - needs to be increased when deployed to mainnet\n    bytes32 public constant MINTER_ROLE = keccak256(\"MINTER_ROLE\");\n    bytes32 public constant PAUSER_ROLE = keccak256(\"PAUSER_ROLE\");\n    Counters.Counter private _tokenIdCounter;\n    string public baseUri;\n\n    constructor() ERC721(\"Cold Behavior NFT\", \"CBN\") {\n        _grantRole(DEFAULT_ADMIN_ROLE, msg.sender);\n        _grantRole(MINTER_ROLE, msg.sender);\n        _grantRole(MINTER_ROLE, msg.sender);\n\n        baseUri = \"https://ipfs.coldbehavior.com/\";\n    }\n\n    function _baseURI() internal view override returns (string memory) {\n        return baseUri;\n    }\n\n    function nextTokenId() external view returns (uint256) {\n        return _tokenIdCounter.current();\n    }\n\n    function mint(uint256 amount)\n        public\n        payable\n        whenNotPaused\n        onlyRole(MINTER_ROLE)\n    {\n        require(\n            msg.value == amount * MINT_COST,\n            \"Transaction value does not match the mint cost\"\n        );\n        uint256 ownedTokens = balanceOf(msg.sender);\n        require(\n            amount + ownedTokens <= MAX_MINT_PER_ADDRESS,\n            \"Exceeded minting limit\"\n        );\n\n        for (uint256 i = 0; i < amount; i++) {\n            uint256 tokenId = _tokenIdCounter.current();\n            require(\n                tokenId < MAX_TOKENS,\n                \"No more tokens are available to mint\"\n            );\n\n            _tokenIdCounter.increment();\n            _safeMint(msg.sender, tokenId);\n        }\n    }\n\n    function pause() public onlyRole(PAUSER_ROLE) {\n        _pause();\n    }\n\n    function setBaseUri(string memory _baseUri)\n        external\n        onlyRole(DEFAULT_ADMIN_ROLE)\n    {\n        baseUri = _baseUri;\n    }\n\n    function tokensOfOwner(address _owner)\n        external\n        view\n        returns (uint256[] memory)\n    {\n        uint256 tokenCount = balanceOf(_owner);\n        if (tokenCount == 0) {\n            // Return an empty array\n            return new uint256[](0);\n        } else {\n            uint256[] memory result = new uint256[](tokenCount);\n            uint256 index;\n            for (index = 0; index < tokenCount; index++) {\n                result[index] = tokenOfOwnerByIndex(_owner, index);\n            }\n            return result;\n        }\n    }\n\n    function unpause() public onlyRole(PAUSER_ROLE) {\n        _unpause();\n    }\n\n    // The following functions are overrides required by Solidity.\n    function _beforeTokenTransfer(address from, address to, uint256 tokenId)\n        internal\n        override(ERC721, ERC721Enumerable)\n    {\n        super._beforeTokenTransfer(from, to, tokenId);\n    }\n\n    function supportsInterface(bytes4 interfaceId)\n        public\n        view\n        override(ERC721, ERC721Enumerable, AccessControl)\n        returns (bool)\n    {\n        return super.supportsInterface(interfaceId);\n    }\n}\n",
  "sourcePath": "/Users/warrenschwartz/Projects/ColdBehaviour/contracts/contracts/ColdBehaviorNft.sol",
  "compiler": {
    "name": "solc",
    "version": "0.8.10+commit.fc410830.Emscripten.clang"
  },
  "schemaVersion": "3.4.3",
  "updatedAt": "2022-02-24T13:41:16.359Z",
  "devdoc": {
    "kind": "dev",
    "methods": {
      "approve(address,uint256)": {
        "details": "See {IERC721-approve}."
      },
      "balanceOf(address)": {
        "details": "See {IERC721-balanceOf}."
      },
      "getApproved(uint256)": {
        "details": "See {IERC721-getApproved}."
      },
      "getRoleAdmin(bytes32)": {
        "details": "Returns the admin role that controls `role`. See {grantRole} and {revokeRole}. To change a role's admin, use {_setRoleAdmin}."
      },
      "grantRole(bytes32,address)": {
        "details": "Grants `role` to `account`. If `account` had not been already granted `role`, emits a {RoleGranted} event. Requirements: - the caller must have ``role``'s admin role."
      },
      "hasRole(bytes32,address)": {
        "details": "Returns `true` if `account` has been granted `role`."
      },
      "isApprovedForAll(address,address)": {
        "details": "See {IERC721-isApprovedForAll}."
      },
      "name()": {
        "details": "See {IERC721Metadata-name}."
      },
      "ownerOf(uint256)": {
        "details": "See {IERC721-ownerOf}."
      },
      "paused()": {
        "details": "Returns true if the contract is paused, and false otherwise."
      },
      "renounceRole(bytes32,address)": {
        "details": "Revokes `role` from the calling account. Roles are often managed via {grantRole} and {revokeRole}: this function's purpose is to provide a mechanism for accounts to lose their privileges if they are compromised (such as when a trusted device is misplaced). If the calling account had been revoked `role`, emits a {RoleRevoked} event. Requirements: - the caller must be `account`."
      },
      "revokeRole(bytes32,address)": {
        "details": "Revokes `role` from `account`. If `account` had been granted `role`, emits a {RoleRevoked} event. Requirements: - the caller must have ``role``'s admin role."
      },
      "safeTransferFrom(address,address,uint256)": {
        "details": "See {IERC721-safeTransferFrom}."
      },
      "safeTransferFrom(address,address,uint256,bytes)": {
        "details": "See {IERC721-safeTransferFrom}."
      },
      "setApprovalForAll(address,bool)": {
        "details": "See {IERC721-setApprovalForAll}."
      },
      "symbol()": {
        "details": "See {IERC721Metadata-symbol}."
      },
      "tokenByIndex(uint256)": {
        "details": "See {IERC721Enumerable-tokenByIndex}."
      },
      "tokenOfOwnerByIndex(address,uint256)": {
        "details": "See {IERC721Enumerable-tokenOfOwnerByIndex}."
      },
      "tokenURI(uint256)": {
        "details": "See {IERC721Metadata-tokenURI}."
      },
      "totalSupply()": {
        "details": "See {IERC721Enumerable-totalSupply}."
      },
      "transferFrom(address,address,uint256)": {
        "details": "See {IERC721-transferFrom}."
      }
    },
    "version": 1
  },
  "userdoc": {
    "kind": "user",
    "methods": {},
    "version": 1
  }
}