{
  "contractName": "ColdBehaviorNFT",
  "abi": [
    {
      "inputs": [
        {
          "internalType": "address",
          "name": "_teamAddress",
          "type": "address"
        }
      ],
      "stateMutability": "nonpayable",
      "type": "constructor"
    },
    {
      "inputs": [],
      "name": "ApprovalCallerNotOwnerNorApproved",
      "type": "error"
    },
    {
      "inputs": [],
      "name": "ApprovalQueryForNonexistentToken",
      "type": "error"
    },
    {
      "inputs": [],
      "name": "ApprovalToCurrentOwner",
      "type": "error"
    },
    {
      "inputs": [],
      "name": "ApproveToCaller",
      "type": "error"
    },
    {
      "inputs": [],
      "name": "BalanceQueryForZeroAddress",
      "type": "error"
    },
    {
      "inputs": [],
      "name": "MintToZeroAddress",
      "type": "error"
    },
    {
      "inputs": [],
      "name": "MintZeroQuantity",
      "type": "error"
    },
    {
      "inputs": [],
      "name": "OwnerQueryForNonexistentToken",
      "type": "error"
    },
    {
      "inputs": [],
      "name": "TransferCallerNotOwnerNorApproved",
      "type": "error"
    },
    {
      "inputs": [],
      "name": "TransferFromIncorrectOwner",
      "type": "error"
    },
    {
      "inputs": [],
      "name": "TransferToNonERC721ReceiverImplementer",
      "type": "error"
    },
    {
      "inputs": [],
      "name": "TransferToZeroAddress",
      "type": "error"
    },
    {
      "anonymous": false,
      "inputs": [
        {
          "indexed": true,
          "internalType": "address",
          "name": "owner",
          "type": "address"
        },
        {
          "indexed": true,
          "internalType": "address",
          "name": "approved",
          "type": "address"
        },
        {
          "indexed": true,
          "internalType": "uint256",
          "name": "tokenId",
          "type": "uint256"
        }
      ],
      "name": "Approval",
      "type": "event"
    },
    {
      "anonymous": false,
      "inputs": [
        {
          "indexed": true,
          "internalType": "address",
          "name": "owner",
          "type": "address"
        },
        {
          "indexed": true,
          "internalType": "address",
          "name": "operator",
          "type": "address"
        },
        {
          "indexed": false,
          "internalType": "bool",
          "name": "approved",
          "type": "bool"
        }
      ],
      "name": "ApprovalForAll",
      "type": "event"
    },
    {
      "anonymous": false,
      "inputs": [
        {
          "indexed": true,
          "internalType": "bytes32",
          "name": "role",
          "type": "bytes32"
        },
        {
          "indexed": true,
          "internalType": "bytes32",
          "name": "previousAdminRole",
          "type": "bytes32"
        },
        {
          "indexed": true,
          "internalType": "bytes32",
          "name": "newAdminRole",
          "type": "bytes32"
        }
      ],
      "name": "RoleAdminChanged",
      "type": "event"
    },
    {
      "anonymous": false,
      "inputs": [
        {
          "indexed": true,
          "internalType": "bytes32",
          "name": "role",
          "type": "bytes32"
        },
        {
          "indexed": true,
          "internalType": "address",
          "name": "account",
          "type": "address"
        },
        {
          "indexed": true,
          "internalType": "address",
          "name": "sender",
          "type": "address"
        }
      ],
      "name": "RoleGranted",
      "type": "event"
    },
    {
      "anonymous": false,
      "inputs": [
        {
          "indexed": true,
          "internalType": "bytes32",
          "name": "role",
          "type": "bytes32"
        },
        {
          "indexed": true,
          "internalType": "address",
          "name": "account",
          "type": "address"
        },
        {
          "indexed": true,
          "internalType": "address",
          "name": "sender",
          "type": "address"
        }
      ],
      "name": "RoleRevoked",
      "type": "event"
    },
    {
      "anonymous": false,
      "inputs": [
        {
          "indexed": true,
          "internalType": "address",
          "name": "from",
          "type": "address"
        },
        {
          "indexed": true,
          "internalType": "address",
          "name": "to",
          "type": "address"
        },
        {
          "indexed": true,
          "internalType": "uint256",
          "name": "tokenId",
          "type": "uint256"
        }
      ],
      "name": "Transfer",
      "type": "event"
    },
    {
      "inputs": [],
      "name": "DEFAULT_ADMIN_ROLE",
      "outputs": [
        {
          "internalType": "bytes32",
          "name": "",
          "type": "bytes32"
        }
      ],
      "stateMutability": "view",
      "type": "function"
    },
    {
      "inputs": [],
      "name": "WHITELIST_ROLE",
      "outputs": [
        {
          "internalType": "bytes32",
          "name": "",
          "type": "bytes32"
        }
      ],
      "stateMutability": "view",
      "type": "function"
    },
    {
      "inputs": [],
      "name": "activeMint",
      "outputs": [
        {
          "internalType": "bool",
          "name": "",
          "type": "bool"
        }
      ],
      "stateMutability": "view",
      "type": "function"
    },
    {
      "inputs": [],
      "name": "activePresale",
      "outputs": [
        {
          "internalType": "bool",
          "name": "",
          "type": "bool"
        }
      ],
      "stateMutability": "view",
      "type": "function"
    },
    {
      "inputs": [
        {
          "internalType": "address",
          "name": "to",
          "type": "address"
        },
        {
          "internalType": "uint256",
          "name": "tokenId",
          "type": "uint256"
        }
      ],
      "name": "approve",
      "outputs": [],
      "stateMutability": "nonpayable",
      "type": "function"
    },
    {
      "inputs": [
        {
          "internalType": "address",
          "name": "owner",
          "type": "address"
        }
      ],
      "name": "balanceOf",
      "outputs": [
        {
          "internalType": "uint256",
          "name": "",
          "type": "uint256"
        }
      ],
      "stateMutability": "view",
      "type": "function"
    },
    {
      "inputs": [],
      "name": "baseUri",
      "outputs": [
        {
          "internalType": "string",
          "name": "",
          "type": "string"
        }
      ],
      "stateMutability": "view",
      "type": "function"
    },
    {
      "inputs": [
        {
          "internalType": "uint256",
          "name": "tokenId",
          "type": "uint256"
        }
      ],
      "name": "getApproved",
      "outputs": [
        {
          "internalType": "address",
          "name": "",
          "type": "address"
        }
      ],
      "stateMutability": "view",
      "type": "function"
    },
    {
      "inputs": [
        {
          "internalType": "bytes32",
          "name": "role",
          "type": "bytes32"
        }
      ],
      "name": "getRoleAdmin",
      "outputs": [
        {
          "internalType": "bytes32",
          "name": "",
          "type": "bytes32"
        }
      ],
      "stateMutability": "view",
      "type": "function"
    },
    {
      "inputs": [
        {
          "internalType": "bytes32",
          "name": "role",
          "type": "bytes32"
        },
        {
          "internalType": "address",
          "name": "account",
          "type": "address"
        }
      ],
      "name": "grantRole",
      "outputs": [],
      "stateMutability": "nonpayable",
      "type": "function"
    },
    {
      "inputs": [
        {
          "internalType": "bytes32",
          "name": "role",
          "type": "bytes32"
        },
        {
          "internalType": "address",
          "name": "account",
          "type": "address"
        }
      ],
      "name": "hasRole",
      "outputs": [
        {
          "internalType": "bool",
          "name": "",
          "type": "bool"
        }
      ],
      "stateMutability": "view",
      "type": "function"
    },
    {
      "inputs": [
        {
          "internalType": "address",
          "name": "owner",
          "type": "address"
        },
        {
          "internalType": "address",
          "name": "operator",
          "type": "address"
        }
      ],
      "name": "isApprovedForAll",
      "outputs": [
        {
          "internalType": "bool",
          "name": "",
          "type": "bool"
        }
      ],
      "stateMutability": "view",
      "type": "function"
    },
    {
      "inputs": [],
      "name": "maxTokens",
      "outputs": [
        {
          "internalType": "uint256",
          "name": "",
          "type": "uint256"
        }
      ],
      "stateMutability": "view",
      "type": "function"
    },
    {
      "inputs": [],
      "name": "mintCost",
      "outputs": [
        {
          "internalType": "uint256",
          "name": "",
          "type": "uint256"
        }
      ],
      "stateMutability": "view",
      "type": "function"
    },
    {
      "inputs": [],
      "name": "mintPerAddress",
      "outputs": [
        {
          "internalType": "uint256",
          "name": "",
          "type": "uint256"
        }
      ],
      "stateMutability": "view",
      "type": "function"
    },
    {
      "inputs": [],
      "name": "name",
      "outputs": [
        {
          "internalType": "string",
          "name": "",
          "type": "string"
        }
      ],
      "stateMutability": "view",
      "type": "function"
    },
    {
      "inputs": [
        {
          "internalType": "uint256",
          "name": "tokenId",
          "type": "uint256"
        }
      ],
      "name": "ownerOf",
      "outputs": [
        {
          "internalType": "address",
          "name": "",
          "type": "address"
        }
      ],
      "stateMutability": "view",
      "type": "function"
    },
    {
      "inputs": [],
      "name": "presaleCost",
      "outputs": [
        {
          "internalType": "uint256",
          "name": "",
          "type": "uint256"
        }
      ],
      "stateMutability": "view",
      "type": "function"
    },
    {
      "inputs": [
        {
          "internalType": "bytes32",
          "name": "role",
          "type": "bytes32"
        },
        {
          "internalType": "address",
          "name": "account",
          "type": "address"
        }
      ],
      "name": "renounceRole",
      "outputs": [],
      "stateMutability": "nonpayable",
      "type": "function"
    },
    {
      "inputs": [
        {
          "internalType": "bytes32",
          "name": "role",
          "type": "bytes32"
        },
        {
          "internalType": "address",
          "name": "account",
          "type": "address"
        }
      ],
      "name": "revokeRole",
      "outputs": [],
      "stateMutability": "nonpayable",
      "type": "function"
    },
    {
      "inputs": [
        {
          "internalType": "address",
          "name": "from",
          "type": "address"
        },
        {
          "internalType": "address",
          "name": "to",
          "type": "address"
        },
        {
          "internalType": "uint256",
          "name": "tokenId",
          "type": "uint256"
        }
      ],
      "name": "safeTransferFrom",
      "outputs": [],
      "stateMutability": "nonpayable",
      "type": "function"
    },
    {
      "inputs": [
        {
          "internalType": "address",
          "name": "from",
          "type": "address"
        },
        {
          "internalType": "address",
          "name": "to",
          "type": "address"
        },
        {
          "internalType": "uint256",
          "name": "tokenId",
          "type": "uint256"
        },
        {
          "internalType": "bytes",
          "name": "_data",
          "type": "bytes"
        }
      ],
      "name": "safeTransferFrom",
      "outputs": [],
      "stateMutability": "nonpayable",
      "type": "function"
    },
    {
      "inputs": [
        {
          "internalType": "address",
          "name": "operator",
          "type": "address"
        },
        {
          "internalType": "bool",
          "name": "approved",
          "type": "bool"
        }
      ],
      "name": "setApprovalForAll",
      "outputs": [],
      "stateMutability": "nonpayable",
      "type": "function"
    },
    {
      "inputs": [],
      "name": "symbol",
      "outputs": [
        {
          "internalType": "string",
          "name": "",
          "type": "string"
        }
      ],
      "stateMutability": "view",
      "type": "function"
    },
    {
      "inputs": [],
      "name": "teamAddress",
      "outputs": [
        {
          "internalType": "address",
          "name": "",
          "type": "address"
        }
      ],
      "stateMutability": "view",
      "type": "function"
    },
    {
      "inputs": [],
      "name": "totalSupply",
      "outputs": [
        {
          "internalType": "uint256",
          "name": "",
          "type": "uint256"
        }
      ],
      "stateMutability": "view",
      "type": "function"
    },
    {
      "inputs": [
        {
          "internalType": "address",
          "name": "from",
          "type": "address"
        },
        {
          "internalType": "address",
          "name": "to",
          "type": "address"
        },
        {
          "internalType": "uint256",
          "name": "tokenId",
          "type": "uint256"
        }
      ],
      "name": "transferFrom",
      "outputs": [],
      "stateMutability": "nonpayable",
      "type": "function"
    },
    {
      "inputs": [
        {
          "internalType": "address[]",
          "name": "members",
          "type": "address[]"
        }
      ],
      "name": "addWhitelist",
      "outputs": [],
      "stateMutability": "nonpayable",
      "type": "function"
    },
    {
      "inputs": [
        {
          "internalType": "address",
          "name": "recipient",
          "type": "address"
        },
        {
          "internalType": "uint256",
          "name": "amount",
          "type": "uint256"
        }
      ],
      "name": "devClaim",
      "outputs": [],
      "stateMutability": "nonpayable",
      "type": "function"
    },
    {
      "inputs": [
        {
          "internalType": "uint256",
          "name": "amount",
          "type": "uint256"
        }
      ],
      "name": "mint",
      "outputs": [],
      "stateMutability": "payable",
      "type": "function"
    },
    {
      "inputs": [
        {
          "internalType": "uint256",
          "name": "amount",
          "type": "uint256"
        }
      ],
      "name": "presaleMint",
      "outputs": [],
      "stateMutability": "payable",
      "type": "function"
    },
    {
      "inputs": [
        {
          "internalType": "string",
          "name": "_baseUri",
          "type": "string"
        }
      ],
      "name": "setBaseUri",
      "outputs": [],
      "stateMutability": "nonpayable",
      "type": "function"
    },
    {
      "inputs": [
        {
          "internalType": "uint256",
          "name": "max",
          "type": "uint256"
        }
      ],
      "name": "setMaxTokens",
      "outputs": [],
      "stateMutability": "nonpayable",
      "type": "function"
    },
    {
      "inputs": [
        {
          "internalType": "address",
          "name": "_owner",
          "type": "address"
        }
      ],
      "name": "tokensOfOwner",
      "outputs": [
        {
          "internalType": "uint256[]",
          "name": "",
          "type": "uint256[]"
        }
      ],
      "stateMutability": "view",
      "type": "function"
    },
    {
      "inputs": [
        {
          "internalType": "uint256",
          "name": "tokenId",
          "type": "uint256"
        }
      ],
      "name": "tokenURI",
      "outputs": [
        {
          "internalType": "string",
          "name": "",
          "type": "string"
        }
      ],
      "stateMutability": "view",
      "type": "function"
    },
    {
      "inputs": [],
      "name": "toggleMint",
      "outputs": [],
      "stateMutability": "nonpayable",
      "type": "function"
    },
    {
      "inputs": [],
      "name": "togglePresale",
      "outputs": [],
      "stateMutability": "nonpayable",
      "type": "function"
    },
    {
      "inputs": [],
      "name": "withdraw",
      "outputs": [],
      "stateMutability": "payable",
      "type": "function"
    },
    {
      "inputs": [
        {
          "internalType": "bytes4",
          "name": "interfaceId",
          "type": "bytes4"
        }
      ],
      "name": "supportsInterface",
      "outputs": [
        {
          "internalType": "bool",
          "name": "",
          "type": "bool"
        }
      ],
      "stateMutability": "view",
      "type": "function"
    }
  ],
  "bytecode": "0x60806040526000600960006101000a81548160ff0219169083151502179055506000600960016101000a81548160ff0219169083151502179055506003600a556115b3600f553480156200005257600080fd5b50604051620048a9380380620048a98339818101604052810190620000789190620004bd565b6040518060400160405280601181526020017f436f6c64204265686176696f72204e46540000000000000000000000000000008152506040518060400160405280600381526020017f43424e00000000000000000000000000000000000000000000000000000000008152508160029080519060200190620000fc929190620003a3565b50806003908051906020019062000115929190620003a3565b50620001266200023960201b60201c565b6000819055505050620001436000801b336200023e60201b60201c565b6040518060400160405280601e81526020017f68747470733a2f2f697066732e636f6c646265686176696f722e636f6d2f0000815250600e908051906020019062000190929190620003a3565b5080600d60006101000a81548173ffffffffffffffffffffffffffffffffffffffff021916908373ffffffffffffffffffffffffffffffffffffffff16021790555060014614620001e857655af3107a4000620001f2565b67025bf6196bd100005b67ffffffffffffffff16600b81905550600146146200021857655af3107a400062000222565b670214e8348c4f00005b67ffffffffffffffff16600c819055505062000554565b600090565b6200025082826200033060201b60201c565b6200032c5760016008600084815260200190815260200160002060000160008373ffffffffffffffffffffffffffffffffffffffff1673ffffffffffffffffffffffffffffffffffffffff16815260200190815260200160002060006101000a81548160ff021916908315150217905550620002d16200039b60201b60201c565b73ffffffffffffffffffffffffffffffffffffffff168173ffffffffffffffffffffffffffffffffffffffff16837f2f8788117e7eff1d82e926ec794901d17c78024a50270940304540a733656f0d60405160405180910390a45b5050565b60006008600084815260200190815260200160002060000160008373ffffffffffffffffffffffffffffffffffffffff1673ffffffffffffffffffffffffffffffffffffffff16815260200190815260200160002060009054906101000a900460ff16905092915050565b600033905090565b828054620003b1906200051e565b90600052602060002090601f016020900481019282620003d5576000855562000421565b82601f10620003f057805160ff191683800117855562000421565b8280016001018555821562000421579182015b828111156200042057825182559160200191906001019062000403565b5b50905062000430919062000434565b5090565b5b808211156200044f57600081600090555060010162000435565b5090565b600080fd5b600073ffffffffffffffffffffffffffffffffffffffff82169050919050565b6000620004858262000458565b9050919050565b620004978162000478565b8114620004a357600080fd5b50565b600081519050620004b7816200048c565b92915050565b600060208284031215620004d657620004d562000453565b5b6000620004e684828501620004a6565b91505092915050565b7f4e487b7100000000000000000000000000000000000000000000000000000000600052602260045260246000fd5b600060028204905060018216806200053757607f821691505b602082108114156200054e576200054d620004ef565b5b50919050565b61434580620005646000396000f3fe6080604052600436106102305760003560e01c806391d148541161012e578063bdb4b848116100ab578063d89859df1161006f578063d89859df14610800578063e831574214610829578063e985e9c514610854578063edac985b14610891578063f47a269c146108ba57610230565b8063bdb4b8481461073c578063c87b56dd14610767578063c9b298f1146107a4578063d3dd5fe0146107c0578063d547741f146107d757610230565b8063a217fddf116100f2578063a217fddf14610669578063a22cb46514610694578063b1eb4582146106bd578063b3e47ba3146106e8578063b88d4fde1461071357610230565b806391d148541461059157806395d89b41146105ce5780639abc8320146105f9578063a0712d6814610624578063a0bcfc7f1461064057610230565b80632a23d07d116101bc57806342842e0e1161018057806342842e0e146104865780636352211e146104af57806370a08231146104ec5780637a997ab7146105295780638462151c1461055457610230565b80632a23d07d146103e85780632f2ff15d14610413578063343937431461043c57806336568abe146104535780633ccfd60b1461047c57610230565b806311e776fe1161020357806311e776fe1461030357806318160ddd1461032c5780631c75f0851461035757806323b872dd14610382578063248a9ca3146103ab57610230565b806301ffc9a71461023557806306fdde0314610272578063081812fc1461029d578063095ea7b3146102da575b600080fd5b34801561024157600080fd5b5061025c60048036038101906102579190613145565b6108e5565b604051610269919061318d565b60405180910390f35b34801561027e57600080fd5b506102876108f7565b6040516102949190613241565b60405180910390f35b3480156102a957600080fd5b506102c460048036038101906102bf9190613299565b610989565b6040516102d19190613307565b60405180910390f35b3480156102e657600080fd5b5061030160048036038101906102fc919061334e565b610a05565b005b34801561030f57600080fd5b5061032a60048036038101906103259190613299565b610b10565b005b34801561033857600080fd5b50610341610b79565b60405161034e919061339d565b60405180910390f35b34801561036357600080fd5b5061036c610b90565b6040516103799190613307565b60405180910390f35b34801561038e57600080fd5b506103a960048036038101906103a491906133b8565b610bb6565b005b3480156103b757600080fd5b506103d260048036038101906103cd9190613441565b610bc6565b6040516103df919061347d565b60405180910390f35b3480156103f457600080fd5b506103fd610be6565b60405161040a919061339d565b60405180910390f35b34801561041f57600080fd5b5061043a60048036038101906104359190613498565b610bec565b005b34801561044857600080fd5b50610451610c15565b005b34801561045f57600080fd5b5061047a60048036038101906104759190613498565b610c5f565b005b610484610ce2565b005b34801561049257600080fd5b506104ad60048036038101906104a891906133b8565b610d4d565b005b3480156104bb57600080fd5b506104d660048036038101906104d19190613299565b610d6d565b6040516104e39190613307565b60405180910390f35b3480156104f857600080fd5b50610513600480360381019061050e91906134d8565b610d83565b604051610520919061339d565b60405180910390f35b34801561053557600080fd5b5061053e610e53565b60405161054b919061347d565b60405180910390f35b34801561056057600080fd5b5061057b600480360381019061057691906134d8565b610e77565b60405161058891906135c3565b60405180910390f35b34801561059d57600080fd5b506105b860048036038101906105b39190613498565b610fcc565b6040516105c5919061318d565b60405180910390f35b3480156105da57600080fd5b506105e3611037565b6040516105f09190613241565b60405180910390f35b34801561060557600080fd5b5061060e6110c9565b60405161061b9190613241565b60405180910390f35b61063e60048036038101906106399190613299565b611157565b005b34801561064c57600080fd5b506106676004803603810190610662919061371a565b611260565b005b34801561067557600080fd5b5061067e611290565b60405161068b919061347d565b60405180910390f35b3480156106a057600080fd5b506106bb60048036038101906106b6919061378f565b611297565b005b3480156106c957600080fd5b506106d261140f565b6040516106df919061318d565b60405180910390f35b3480156106f457600080fd5b506106fd611422565b60405161070a919061318d565b60405180910390f35b34801561071f57600080fd5b5061073a60048036038101906107359190613870565b611435565b005b34801561074857600080fd5b506107516114b1565b60405161075e919061339d565b60405180910390f35b34801561077357600080fd5b5061078e60048036038101906107899190613299565b6114b7565b60405161079b9190613241565b60405180910390f35b6107be60048036038101906107b99190613299565b61162a565b005b3480156107cc57600080fd5b506107d5611766565b005b3480156107e357600080fd5b506107fe60048036038101906107f99190613498565b6117b0565b005b34801561080c57600080fd5b506108276004803603810190610822919061334e565b6117d9565b005b34801561083557600080fd5b5061083e61185b565b60405161084b919061339d565b60405180910390f35b34801561086057600080fd5b5061087b600480360381019061087691906138f3565b611861565b604051610888919061318d565b60405180910390f35b34801561089d57600080fd5b506108b860048036038101906108b39190613993565b6118f5565b005b3480156108c657600080fd5b506108cf6119d8565b6040516108dc919061339d565b60405180910390f35b60006108f0826119de565b9050919050565b60606002805461090690613a0f565b80601f016020809104026020016040519081016040528092919081815260200182805461093290613a0f565b801561097f5780601f106109545761010080835404028352916020019161097f565b820191906000526020600020905b81548152906001019060200180831161096257829003601f168201915b5050505050905090565b600061099482611a58565b6109ca576040517fcf4700e400000000000000000000000000000000000000000000000000000000815260040160405180910390fd5b6006600083815260200190815260200160002060009054906101000a900473ffffffffffffffffffffffffffffffffffffffff169050919050565b6000610a1082610d6d565b90508073ffffffffffffffffffffffffffffffffffffffff168373ffffffffffffffffffffffffffffffffffffffff161415610a78576040517f943f7b8c00000000000000000000000000000000000000000000000000000000815260040160405180910390fd5b8073ffffffffffffffffffffffffffffffffffffffff16610a97611aa6565b73ffffffffffffffffffffffffffffffffffffffff1614158015610ac95750610ac781610ac2611aa6565b611861565b155b15610b00576040517fcfb3b94200000000000000000000000000000000000000000000000000000000815260040160405180910390fd5b610b0b838383611aae565b505050565b6000801b610b2581610b20611aa6565b611b60565b610b2d610b79565b8211610b6e576040517f08c379a0000000000000000000000000000000000000000000000000000000008152600401610b6590613ab3565b60405180910390fd5b81600f819055505050565b6000610b83611bfd565b6001546000540303905090565b600d60009054906101000a900473ffffffffffffffffffffffffffffffffffffffff1681565b610bc1838383611c02565b505050565b600060086000838152602001908152602001600020600101549050919050565b600c5481565b610bf582610bc6565b610c0681610c01611aa6565b611b60565b610c1083836120b8565b505050565b6000801b610c2a81610c25611aa6565b611b60565b600960019054906101000a900460ff1615600960016101000a81548160ff0219169083151502179055506003600a8190555050565b610c67611aa6565b73ffffffffffffffffffffffffffffffffffffffff168173ffffffffffffffffffffffffffffffffffffffff1614610cd4576040517f08c379a0000000000000000000000000000000000000000000000000000000008152600401610ccb90613b45565b60405180910390fd5b610cde8282612199565b5050565b600d60009054906101000a900473ffffffffffffffffffffffffffffffffffffffff1673ffffffffffffffffffffffffffffffffffffffff166108fc479081150290604051600060405180830381858888f19350505050158015610d4a573d6000803e3d6000fd5b50565b610d6883838360405180602001604052806000815250611435565b505050565b6000610d788261227b565b600001519050919050565b60008073ffffffffffffffffffffffffffffffffffffffff168273ffffffffffffffffffffffffffffffffffffffff161415610deb576040517f8f4eb60400000000000000000000000000000000000000000000000000000000815260040160405180910390fd5b600560008373ffffffffffffffffffffffffffffffffffffffff1673ffffffffffffffffffffffffffffffffffffffff16815260200190815260200160002060000160009054906101000a900467ffffffffffffffff1667ffffffffffffffff169050919050565b7fdc72ed553f2544c34465af23b847953efeb813428162d767f9ba5f4013be676081565b60606000610e83610b79565b90506000811415610ee057600067ffffffffffffffff811115610ea957610ea86135ef565b5b604051908082528060200260200182016040528015610ed75781602001602082028036833780820191505090505b50915050610fc7565b60008167ffffffffffffffff811115610efc57610efb6135ef565b5b604051908082528060200260200182016040528015610f2a5781602001602082028036833780820191505090505b50905060008060009050600091505b83821015610fbf578573ffffffffffffffffffffffffffffffffffffffff16610f6183610d6d565b73ffffffffffffffffffffffffffffffffffffffff161415610fac5781838281518110610f9157610f90613b65565b5b6020026020010181815250508080610fa890613bc3565b9150505b8180610fb790613bc3565b925050610f39565b829450505050505b919050565b60006008600084815260200190815260200160002060000160008373ffffffffffffffffffffffffffffffffffffffff1673ffffffffffffffffffffffffffffffffffffffff16815260200190815260200160002060009054906101000a900460ff16905092915050565b60606003805461104690613a0f565b80601f016020809104026020016040519081016040528092919081815260200182805461107290613a0f565b80156110bf5780601f10611094576101008083540402835291602001916110bf565b820191906000526020600020905b8154815290600101906020018083116110a257829003601f168201915b5050505050905090565b600e80546110d690613a0f565b80601f016020809104026020016040519081016040528092919081815260200182805461110290613a0f565b801561114f5780601f106111245761010080835404028352916020019161114f565b820191906000526020600020905b81548152906001019060200180831161113257829003601f168201915b505050505081565b600960009054906101000a900460ff166111a6576040517f08c379a000000000000000000000000000000000000000000000000000000000815260040161119d90613c58565b60405180910390fd5b600b54816111b49190613c78565b34146111f5576040517f08c379a00000000000000000000000000000000000000000000000000000000081526004016111ec90613d44565b60405180910390fd5b600061120033610d83565b9050600a5481836112119190613d64565b1115611252576040517f08c379a000000000000000000000000000000000000000000000000000000000815260040161124990613e06565b60405180910390fd5b61125c338361250a565b5050565b6000801b61127581611270611aa6565b611b60565b81600e908051906020019061128b929190612ff3565b505050565b6000801b81565b61129f611aa6565b73ffffffffffffffffffffffffffffffffffffffff168273ffffffffffffffffffffffffffffffffffffffff161415611304576040517fb06307db00000000000000000000000000000000000000000000000000000000815260040160405180910390fd5b8060076000611311611aa6565b73ffffffffffffffffffffffffffffffffffffffff1673ffffffffffffffffffffffffffffffffffffffff16815260200190815260200160002060008473ffffffffffffffffffffffffffffffffffffffff1673ffffffffffffffffffffffffffffffffffffffff16815260200190815260200160002060006101000a81548160ff0219169083151502179055508173ffffffffffffffffffffffffffffffffffffffff166113be611aa6565b73ffffffffffffffffffffffffffffffffffffffff167f17307eab39ab6107e8899845ad3d59bd9653f200f220920489ca2b5937696c3183604051611403919061318d565b60405180910390a35050565b600960009054906101000a900460ff1681565b600960019054906101000a900460ff1681565b611440848484611c02565b61145f8373ffffffffffffffffffffffffffffffffffffffff16612528565b801561147457506114728484848461253b565b155b156114ab576040517fd1a57ed600000000000000000000000000000000000000000000000000000000815260040160405180910390fd5b50505050565b600b5481565b60606114c282611a58565b611501576040517f08c379a00000000000000000000000000000000000000000000000000000000081526004016114f890613e98565b60405180910390fd5b600060106000848152602001908152602001600020805461152190613a0f565b80601f016020809104026020016040519081016040528092919081815260200182805461154d90613a0f565b801561159a5780601f1061156f5761010080835404028352916020019161159a565b820191906000526020600020905b81548152906001019060200180831161157d57829003601f168201915b5050505050905060006115ab61268c565b90506000815114156115c1578192505050611625565b6000825111156115f65780826040516020016115de929190613ef4565b60405160208183030381529060405292505050611625565b806116008561271e565b604051602001611611929190613f64565b604051602081830303815290604052925050505b919050565b7fdc72ed553f2544c34465af23b847953efeb813428162d767f9ba5f4013be676061165c81611657611aa6565b611b60565b600960019054906101000a900460ff166116ab576040517f08c379a00000000000000000000000000000000000000000000000000000000081526004016116a290613fdf565b60405180910390fd5b600c54826116b99190613c78565b34146116fa576040517f08c379a00000000000000000000000000000000000000000000000000000000081526004016116f190613d44565b60405180910390fd5b600061170533610d83565b9050600a5481846117169190613d64565b1115611757576040517f08c379a000000000000000000000000000000000000000000000000000000000815260040161174e90613e06565b60405180910390fd5b611761338461250a565b505050565b6000801b61177b81611776611aa6565b611b60565b600960009054906101000a900460ff1615600960006101000a81548160ff0219169083151502179055506005600a8190555050565b6117b982610bc6565b6117ca816117c5611aa6565b611b60565b6117d48383612199565b505050565b6000801b6117ee816117e9611aa6565b611b60565b60006117f933610d83565b9050600a54818461180a9190613d64565b111561184b576040517f08c379a000000000000000000000000000000000000000000000000000000000815260040161184290613e06565b60405180910390fd5b611855848461250a565b50505050565b600f5481565b6000600760008473ffffffffffffffffffffffffffffffffffffffff1673ffffffffffffffffffffffffffffffffffffffff16815260200190815260200160002060008373ffffffffffffffffffffffffffffffffffffffff1673ffffffffffffffffffffffffffffffffffffffff16815260200190815260200160002060009054906101000a900460ff16905092915050565b6000801b61190a81611905611aa6565b611b60565b60005b838390508110156119d2576119697fdc72ed553f2544c34465af23b847953efeb813428162d767f9ba5f4013be676085858481811061194f5761194e613b65565b5b905060200201602081019061196491906134d8565b610fcc565b6119bf576119be7fdc72ed553f2544c34465af23b847953efeb813428162d767f9ba5f4013be67608585848181106119a4576119a3613b65565b5b90506020020160208101906119b991906134d8565b6120b8565b5b80806119ca90613bc3565b91505061190d565b50505050565b600a5481565b60007f7965db0b000000000000000000000000000000000000000000000000000000007bffffffffffffffffffffffffffffffffffffffffffffffffffffffff1916827bffffffffffffffffffffffffffffffffffffffffffffffffffffffff19161480611a515750611a508261287f565b5b9050919050565b600081611a63611bfd565b11158015611a72575060005482105b8015611a9f575060046000838152602001908152602001600020600001601c9054906101000a900460ff16155b9050919050565b600033905090565b826006600084815260200190815260200160002060006101000a81548173ffffffffffffffffffffffffffffffffffffffff021916908373ffffffffffffffffffffffffffffffffffffffff160217905550818373ffffffffffffffffffffffffffffffffffffffff168273ffffffffffffffffffffffffffffffffffffffff167f8c5be1e5ebec7d5bd14f71427d1e84f3dd0314c0f7b2291e5b200ac8c7c3b92560405160405180910390a4505050565b611b6a8282610fcc565b611bf957611b8f8173ffffffffffffffffffffffffffffffffffffffff166014612961565b611b9d8360001c6020612961565b604051602001611bae929190614097565b6040516020818303038152906040526040517f08c379a0000000000000000000000000000000000000000000000000000000008152600401611bf09190613241565b60405180910390fd5b5050565b600090565b6000611c0d8261227b565b90508373ffffffffffffffffffffffffffffffffffffffff16816000015173ffffffffffffffffffffffffffffffffffffffff1614611c78576040517fa114810000000000000000000000000000000000000000000000000000000000815260040160405180910390fd5b60008473ffffffffffffffffffffffffffffffffffffffff16611c99611aa6565b73ffffffffffffffffffffffffffffffffffffffff161480611cc85750611cc785611cc2611aa6565b611861565b5b80611d0d5750611cd6611aa6565b73ffffffffffffffffffffffffffffffffffffffff16611cf584610989565b73ffffffffffffffffffffffffffffffffffffffff16145b905080611d46576040517f59c896be00000000000000000000000000000000000000000000000000000000815260040160405180910390fd5b600073ffffffffffffffffffffffffffffffffffffffff168473ffffffffffffffffffffffffffffffffffffffff161415611dad576040517fea553b3400000000000000000000000000000000000000000000000000000000815260040160405180910390fd5b611dba8585856001612b9d565b611dc660008487611aae565b6001600560008773ffffffffffffffffffffffffffffffffffffffff1673ffffffffffffffffffffffffffffffffffffffff16815260200190815260200160002060000160008282829054906101000a900467ffffffffffffffff160392506101000a81548167ffffffffffffffff021916908367ffffffffffffffff1602179055506001600560008673ffffffffffffffffffffffffffffffffffffffff1673ffffffffffffffffffffffffffffffffffffffff16815260200190815260200160002060000160008282829054906101000a900467ffffffffffffffff160192506101000a81548167ffffffffffffffff021916908367ffffffffffffffff1602179055506000600460008581526020019081526020016000209050848160000160006101000a81548173ffffffffffffffffffffffffffffffffffffffff021916908373ffffffffffffffffffffffffffffffffffffffff160217905550428160000160146101000a81548167ffffffffffffffff021916908367ffffffffffffffff16021790555060006001850190506000600460008381526020019081526020016000209050600073ffffffffffffffffffffffffffffffffffffffff168160000160009054906101000a900473ffffffffffffffffffffffffffffffffffffffff1673ffffffffffffffffffffffffffffffffffffffff16141561204657600054821461204557878160000160006101000a81548173ffffffffffffffffffffffffffffffffffffffff021916908373ffffffffffffffffffffffffffffffffffffffff16021790555084602001518160000160146101000a81548167ffffffffffffffff021916908367ffffffffffffffff1602179055505b5b505050828473ffffffffffffffffffffffffffffffffffffffff168673ffffffffffffffffffffffffffffffffffffffff167fddf252ad1be2c89b69c2b068fc378daa952ba7f163c4a11628f55a4df523b3ef60405160405180910390a46120b18585856001612ba3565b5050505050565b6120c28282610fcc565b6121955760016008600084815260200190815260200160002060000160008373ffffffffffffffffffffffffffffffffffffffff1673ffffffffffffffffffffffffffffffffffffffff16815260200190815260200160002060006101000a81548160ff02191690831515021790555061213a611aa6565b73ffffffffffffffffffffffffffffffffffffffff168173ffffffffffffffffffffffffffffffffffffffff16837f2f8788117e7eff1d82e926ec794901d17c78024a50270940304540a733656f0d60405160405180910390a45b5050565b6121a38282610fcc565b156122775760006008600084815260200190815260200160002060000160008373ffffffffffffffffffffffffffffffffffffffff1673ffffffffffffffffffffffffffffffffffffffff16815260200190815260200160002060006101000a81548160ff02191690831515021790555061221c611aa6565b73ffffffffffffffffffffffffffffffffffffffff168173ffffffffffffffffffffffffffffffffffffffff16837ff6391f5c32d9c69d2a47ea670b442974b53935d1edc7fd64eb21e047a839171b60405160405180910390a45b5050565b612283613079565b600082905080612291611bfd565b111580156122a0575060005481105b156124d3576000600460008381526020019081526020016000206040518060600160405290816000820160009054906101000a900473ffffffffffffffffffffffffffffffffffffffff1673ffffffffffffffffffffffffffffffffffffffff1673ffffffffffffffffffffffffffffffffffffffff1681526020016000820160149054906101000a900467ffffffffffffffff1667ffffffffffffffff1667ffffffffffffffff16815260200160008201601c9054906101000a900460ff161515151581525050905080604001516124d157600073ffffffffffffffffffffffffffffffffffffffff16816000015173ffffffffffffffffffffffffffffffffffffffff16146123b5578092505050612505565b5b6001156124d057818060019003925050600460008381526020019081526020016000206040518060600160405290816000820160009054906101000a900473ffffffffffffffffffffffffffffffffffffffff1673ffffffffffffffffffffffffffffffffffffffff1673ffffffffffffffffffffffffffffffffffffffff1681526020016000820160149054906101000a900467ffffffffffffffff1667ffffffffffffffff1667ffffffffffffffff16815260200160008201601c9054906101000a900460ff1615151515815250509050600073ffffffffffffffffffffffffffffffffffffffff16816000015173ffffffffffffffffffffffffffffffffffffffff16146124cb578092505050612505565b6123b6565b5b505b6040517fdf2d9b4200000000000000000000000000000000000000000000000000000000815260040160405180910390fd5b919050565b612524828260405180602001604052806000815250612ba9565b5050565b600080823b905060008111915050919050565b60008373ffffffffffffffffffffffffffffffffffffffff1663150b7a02612561611aa6565b8786866040518563ffffffff1660e01b81526004016125839493929190614126565b6020604051808303816000875af19250505080156125bf57506040513d601f19601f820116820180604052508101906125bc9190614187565b60015b612639573d80600081146125ef576040519150601f19603f3d011682016040523d82523d6000602084013e6125f4565b606091505b50600081511415612631576040517fd1a57ed600000000000000000000000000000000000000000000000000000000815260040160405180910390fd5b805181602001fd5b63150b7a0260e01b7bffffffffffffffffffffffffffffffffffffffffffffffffffffffff1916817bffffffffffffffffffffffffffffffffffffffffffffffffffffffff191614915050949350505050565b6060600e805461269b90613a0f565b80601f01602080910402602001604051908101604052809291908181526020018280546126c790613a0f565b80156127145780601f106126e957610100808354040283529160200191612714565b820191906000526020600020905b8154815290600101906020018083116126f757829003601f168201915b5050505050905090565b60606000821415612766576040518060400160405280600181526020017f3000000000000000000000000000000000000000000000000000000000000000815250905061287a565b600082905060005b6000821461279857808061278190613bc3565b915050600a8261279191906141e3565b915061276e565b60008167ffffffffffffffff8111156127b4576127b36135ef565b5b6040519080825280601f01601f1916602001820160405280156127e65781602001600182028036833780820191505090505b5090505b60008514612873576001826127ff9190614214565b9150600a8561280e9190614248565b603061281a9190613d64565b60f81b8183815181106128305761282f613b65565b5b60200101907effffffffffffffffffffffffffffffffffffffffffffffffffffffffffffff1916908160001a905350600a8561286c91906141e3565b94506127ea565b8093505050505b919050565b60007f80ac58cd000000000000000000000000000000000000000000000000000000007bffffffffffffffffffffffffffffffffffffffffffffffffffffffff1916827bffffffffffffffffffffffffffffffffffffffffffffffffffffffff1916148061294a57507f5b5e139f000000000000000000000000000000000000000000000000000000007bffffffffffffffffffffffffffffffffffffffffffffffffffffffff1916827bffffffffffffffffffffffffffffffffffffffffffffffffffffffff1916145b8061295a575061295982612bbb565b5b9050919050565b6060600060028360026129749190613c78565b61297e9190613d64565b67ffffffffffffffff811115612997576129966135ef565b5b6040519080825280601f01601f1916602001820160405280156129c95781602001600182028036833780820191505090505b5090507f300000000000000000000000000000000000000000000000000000000000000081600081518110612a0157612a00613b65565b5b60200101907effffffffffffffffffffffffffffffffffffffffffffffffffffffffffffff1916908160001a9053507f780000000000000000000000000000000000000000000000000000000000000081600181518110612a6557612a64613b65565b5b60200101907effffffffffffffffffffffffffffffffffffffffffffffffffffffffffffff1916908160001a90535060006001846002612aa59190613c78565b612aaf9190613d64565b90505b6001811115612b4f577f3031323334353637383961626364656600000000000000000000000000000000600f861660108110612af157612af0613b65565b5b1a60f81b828281518110612b0857612b07613b65565b5b60200101907effffffffffffffffffffffffffffffffffffffffffffffffffffffffffffff1916908160001a905350600485901c945080612b4890614279565b9050612ab2565b5060008414612b93576040517f08c379a0000000000000000000000000000000000000000000000000000000008152600401612b8a906142ef565b60405180910390fd5b8091505092915050565b50505050565b50505050565b612bb68383836001612c25565b505050565b60007f01ffc9a7000000000000000000000000000000000000000000000000000000007bffffffffffffffffffffffffffffffffffffffffffffffffffffffff1916827bffffffffffffffffffffffffffffffffffffffffffffffffffffffff1916149050919050565b600080549050600073ffffffffffffffffffffffffffffffffffffffff168573ffffffffffffffffffffffffffffffffffffffff161415612c92576040517f2e07630000000000000000000000000000000000000000000000000000000000815260040160405180910390fd5b6000841415612ccd576040517fb562e8dd00000000000000000000000000000000000000000000000000000000815260040160405180910390fd5b612cda6000868387612b9d565b83600560008773ffffffffffffffffffffffffffffffffffffffff1673ffffffffffffffffffffffffffffffffffffffff16815260200190815260200160002060000160008282829054906101000a900467ffffffffffffffff160192506101000a81548167ffffffffffffffff021916908367ffffffffffffffff16021790555083600560008773ffffffffffffffffffffffffffffffffffffffff1673ffffffffffffffffffffffffffffffffffffffff16815260200190815260200160002060000160088282829054906101000a900467ffffffffffffffff160192506101000a81548167ffffffffffffffff021916908367ffffffffffffffff160217905550846004600083815260200190815260200160002060000160006101000a81548173ffffffffffffffffffffffffffffffffffffffff021916908373ffffffffffffffffffffffffffffffffffffffff160217905550426004600083815260200190815260200160002060000160146101000a81548167ffffffffffffffff021916908367ffffffffffffffff160217905550600081905060008582019050838015612ea45750612ea38773ffffffffffffffffffffffffffffffffffffffff16612528565b5b15612f6a575b818773ffffffffffffffffffffffffffffffffffffffff16600073ffffffffffffffffffffffffffffffffffffffff167fddf252ad1be2c89b69c2b068fc378daa952ba7f163c4a11628f55a4df523b3ef60405160405180910390a4612f19600088848060010195508861253b565b612f4f576040517fd1a57ed600000000000000000000000000000000000000000000000000000000815260040160405180910390fd5b80821415612eaa578260005414612f6557600080fd5b612fd6565b5b818060010192508773ffffffffffffffffffffffffffffffffffffffff16600073ffffffffffffffffffffffffffffffffffffffff167fddf252ad1be2c89b69c2b068fc378daa952ba7f163c4a11628f55a4df523b3ef60405160405180910390a480821415612f6b575b816000819055505050612fec6000868387612ba3565b5050505050565b828054612fff90613a0f565b90600052602060002090601f0160209004810192826130215760008555613068565b82601f1061303a57805160ff1916838001178555613068565b82800160010185558215613068579182015b8281111561306757825182559160200191906001019061304c565b5b50905061307591906130bc565b5090565b6040518060600160405280600073ffffffffffffffffffffffffffffffffffffffff168152602001600067ffffffffffffffff1681526020016000151581525090565b5b808211156130d55760008160009055506001016130bd565b5090565b6000604051905090565b600080fd5b600080fd5b60007fffffffff0000000000000000000000000000000000000000000000000000000082169050919050565b613122816130ed565b811461312d57600080fd5b50565b60008135905061313f81613119565b92915050565b60006020828403121561315b5761315a6130e3565b5b600061316984828501613130565b91505092915050565b60008115159050919050565b61318781613172565b82525050565b60006020820190506131a2600083018461317e565b92915050565b600081519050919050565b600082825260208201905092915050565b60005b838110156131e25780820151818401526020810190506131c7565b838111156131f1576000848401525b50505050565b6000601f19601f8301169050919050565b6000613213826131a8565b61321d81856131b3565b935061322d8185602086016131c4565b613236816131f7565b840191505092915050565b6000602082019050818103600083015261325b8184613208565b905092915050565b6000819050919050565b61327681613263565b811461328157600080fd5b50565b6000813590506132938161326d565b92915050565b6000602082840312156132af576132ae6130e3565b5b60006132bd84828501613284565b91505092915050565b600073ffffffffffffffffffffffffffffffffffffffff82169050919050565b60006132f1826132c6565b9050919050565b613301816132e6565b82525050565b600060208201905061331c60008301846132f8565b92915050565b61332b816132e6565b811461333657600080fd5b50565b60008135905061334881613322565b92915050565b60008060408385031215613365576133646130e3565b5b600061337385828601613339565b925050602061338485828601613284565b9150509250929050565b61339781613263565b82525050565b60006020820190506133b2600083018461338e565b92915050565b6000806000606084860312156133d1576133d06130e3565b5b60006133df86828701613339565b93505060206133f086828701613339565b925050604061340186828701613284565b9150509250925092565b6000819050919050565b61341e8161340b565b811461342957600080fd5b50565b60008135905061343b81613415565b92915050565b600060208284031215613457576134566130e3565b5b60006134658482850161342c565b91505092915050565b6134778161340b565b82525050565b6000602082019050613492600083018461346e565b92915050565b600080604083850312156134af576134ae6130e3565b5b60006134bd8582860161342c565b92505060206134ce85828601613339565b9150509250929050565b6000602082840312156134ee576134ed6130e3565b5b60006134fc84828501613339565b91505092915050565b600081519050919050565b600082825260208201905092915050565b6000819050602082019050919050565b61353a81613263565b82525050565b600061354c8383613531565b60208301905092915050565b6000602082019050919050565b600061357082613505565b61357a8185613510565b935061358583613521565b8060005b838110156135b657815161359d8882613540565b97506135a883613558565b925050600181019050613589565b5085935050505092915050565b600060208201905081810360008301526135dd8184613565565b905092915050565b600080fd5b600080fd5b7f4e487b7100000000000000000000000000000000000000000000000000000000600052604160045260246000fd5b613627826131f7565b810181811067ffffffffffffffff82111715613646576136456135ef565b5b80604052505050565b60006136596130d9565b9050613665828261361e565b919050565b600067ffffffffffffffff821115613685576136846135ef565b5b61368e826131f7565b9050602081019050919050565b82818337600083830152505050565b60006136bd6136b88461366a565b61364f565b9050828152602081018484840111156136d9576136d86135ea565b5b6136e484828561369b565b509392505050565b600082601f830112613701576137006135e5565b5b81356137118482602086016136aa565b91505092915050565b6000602082840312156137305761372f6130e3565b5b600082013567ffffffffffffffff81111561374e5761374d6130e8565b5b61375a848285016136ec565b91505092915050565b61376c81613172565b811461377757600080fd5b50565b60008135905061378981613763565b92915050565b600080604083850312156137a6576137a56130e3565b5b60006137b485828601613339565b92505060206137c58582860161377a565b9150509250929050565b600067ffffffffffffffff8211156137ea576137e96135ef565b5b6137f3826131f7565b9050602081019050919050565b600061381361380e846137cf565b61364f565b90508281526020810184848401111561382f5761382e6135ea565b5b61383a84828561369b565b509392505050565b600082601f830112613857576138566135e5565b5b8135613867848260208601613800565b91505092915050565b6000806000806080858703121561388a576138896130e3565b5b600061389887828801613339565b94505060206138a987828801613339565b93505060406138ba87828801613284565b925050606085013567ffffffffffffffff8111156138db576138da6130e8565b5b6138e787828801613842565b91505092959194509250565b6000806040838503121561390a576139096130e3565b5b600061391885828601613339565b925050602061392985828601613339565b9150509250929050565b600080fd5b600080fd5b60008083601f840112613953576139526135e5565b5b8235905067ffffffffffffffff8111156139705761396f613933565b5b60208301915083602082028301111561398c5761398b613938565b5b9250929050565b600080602083850312156139aa576139a96130e3565b5b600083013567ffffffffffffffff8111156139c8576139c76130e8565b5b6139d48582860161393d565b92509250509250929050565b7f4e487b7100000000000000000000000000000000000000000000000000000000600052602260045260246000fd5b60006002820490506001821680613a2757607f821691505b60208210811415613a3b57613a3a6139e0565b5b50919050565b7f4e6577206d61782063616e6e6f7420657863656564206578697374696e67207360008201527f7570706c79000000000000000000000000000000000000000000000000000000602082015250565b6000613a9d6025836131b3565b9150613aa882613a41565b604082019050919050565b60006020820190508181036000830152613acc81613a90565b9050919050565b7f416363657373436f6e74726f6c3a2063616e206f6e6c792072656e6f756e636560008201527f20726f6c657320666f722073656c660000000000000000000000000000000000602082015250565b6000613b2f602f836131b3565b9150613b3a82613ad3565b604082019050919050565b60006020820190508181036000830152613b5e81613b22565b9050919050565b7f4e487b7100000000000000000000000000000000000000000000000000000000600052603260045260246000fd5b7f4e487b7100000000000000000000000000000000000000000000000000000000600052601160045260246000fd5b6000613bce82613263565b91507fffffffffffffffffffffffffffffffffffffffffffffffffffffffffffffffff821415613c0157613c00613b94565b5b600182019050919050565b7f5075626c6963206d696e7420686173206e6f7420737461727465640000000000600082015250565b6000613c42601b836131b3565b9150613c4d82613c0c565b602082019050919050565b60006020820190508181036000830152613c7181613c35565b9050919050565b6000613c8382613263565b9150613c8e83613263565b9250817fffffffffffffffffffffffffffffffffffffffffffffffffffffffffffffffff0483118215151615613cc757613cc6613b94565b5b828202905092915050565b7f5472616e73616374696f6e2076616c756520646f6573206e6f74206d6174636860008201527f20746865206d696e7420636f7374000000000000000000000000000000000000602082015250565b6000613d2e602e836131b3565b9150613d3982613cd2565b604082019050919050565b60006020820190508181036000830152613d5d81613d21565b9050919050565b6000613d6f82613263565b9150613d7a83613263565b9250827fffffffffffffffffffffffffffffffffffffffffffffffffffffffffffffffff03821115613daf57613dae613b94565b5b828201905092915050565b7f4578636565646564206d696e74696e67206c696d697400000000000000000000600082015250565b6000613df06016836131b3565b9150613dfb82613dba565b602082019050919050565b60006020820190508181036000830152613e1f81613de3565b9050919050565b7f4552433732314d657461646174613a2055524920717565727920666f72206e6f60008201527f6e6578697374656e7420746f6b656e0000000000000000000000000000000000602082015250565b6000613e82602f836131b3565b9150613e8d82613e26565b604082019050919050565b60006020820190508181036000830152613eb181613e75565b9050919050565b600081905092915050565b6000613ece826131a8565b613ed88185613eb8565b9350613ee88185602086016131c4565b80840191505092915050565b6000613f008285613ec3565b9150613f0c8284613ec3565b91508190509392505050565b7f2e6a736f6e000000000000000000000000000000000000000000000000000000600082015250565b6000613f4e600583613eb8565b9150613f5982613f18565b600582019050919050565b6000613f708285613ec3565b9150613f7c8284613ec3565b9150613f8782613f41565b91508190509392505050565b7f50726573616c65206d696e7420686173206e6f74207374617274656400000000600082015250565b6000613fc9601c836131b3565b9150613fd482613f93565b602082019050919050565b60006020820190508181036000830152613ff881613fbc565b9050919050565b7f416363657373436f6e74726f6c3a206163636f756e7420000000000000000000600082015250565b6000614035601783613eb8565b915061404082613fff565b601782019050919050565b7f206973206d697373696e6720726f6c6520000000000000000000000000000000600082015250565b6000614081601183613eb8565b915061408c8261404b565b601182019050919050565b60006140a282614028565b91506140ae8285613ec3565b91506140b982614074565b91506140c58284613ec3565b91508190509392505050565b600081519050919050565b600082825260208201905092915050565b60006140f8826140d1565b61410281856140dc565b93506141128185602086016131c4565b61411b816131f7565b840191505092915050565b600060808201905061413b60008301876132f8565b61414860208301866132f8565b614155604083018561338e565b818103606083015261416781846140ed565b905095945050505050565b60008151905061418181613119565b92915050565b60006020828403121561419d5761419c6130e3565b5b60006141ab84828501614172565b91505092915050565b7f4e487b7100000000000000000000000000000000000000000000000000000000600052601260045260246000fd5b60006141ee82613263565b91506141f983613263565b925082614209576142086141b4565b5b828204905092915050565b600061421f82613263565b915061422a83613263565b92508282101561423d5761423c613b94565b5b828203905092915050565b600061425382613263565b915061425e83613263565b92508261426e5761426d6141b4565b5b828206905092915050565b600061428482613263565b9150600082141561429857614297613b94565b5b600182039050919050565b7f537472696e67733a20686578206c656e67746820696e73756666696369656e74600082015250565b60006142d96020836131b3565b91506142e4826142a3565b602082019050919050565b60006020820190508181036000830152614308816142cc565b905091905056fea264697066735822122052be37e80a09f79d76eac73fb2e71ae5ba64eda507b4c4f087a6ae6d2d1db7f664736f6c634300080a0033",
  "immutableReferences": {},
  "source": "// SPDX-License-Identifier: MIT\npragma solidity ^0.8.4;\n\nimport \"erc721a/contracts/erc721a.sol\";\nimport \"@openzeppelin/contracts/access/AccessControl.sol\";\n\ncontract ColdBehaviorNFT is ERC721A, AccessControl {\n    using Strings for uint256;\n\n    bool public activeMint = false;\n    bool public activePresale = false;\n    uint256 public mintPerAddress = 3;\n    uint256 public mintCost;\n    uint256 public presaleCost;\n    bytes32 public constant WHITELIST_ROLE = keccak256(\"WHITELIST_ROLE\");\n    address public teamAddress;\n\n    string public baseUri;\n    uint256 public maxTokens = 5555;\n\n    // Optional mapping for token URIs\n    mapping(uint256 => string) private _tokenURIs;\n\n    constructor(address _teamAddress) ERC721A(\"Cold Behavior NFT\", \"CBN\") {\n        _grantRole(DEFAULT_ADMIN_ROLE, msg.sender);\n\n        baseUri = \"https://ipfs.coldbehavior.com/\";\n        teamAddress = _teamAddress;\n\n        mintCost = block.chainid == 1 ? 0.17 ether : 0.0001 ether;\n        presaleCost = block.chainid == 1 ? 0.15 ether : 0.0001 ether;\n    }\n\n    function _baseURI() internal view override returns (string memory) {\n        return baseUri;\n    }\n\n    function addWhitelist(address[] calldata members)\n        external\n        onlyRole(DEFAULT_ADMIN_ROLE)\n    {\n        for (uint256 x = 0; x < members.length; x++) {\n            if (!hasRole(WHITELIST_ROLE, members[x])) {\n                _grantRole(WHITELIST_ROLE, members[x]);\n            }\n        }\n    }\n\n    function devClaim(address recipient, uint256 amount)\n        external\n        onlyRole(DEFAULT_ADMIN_ROLE)\n    {\n        uint256 ownedTokens = balanceOf(msg.sender);\n        require(\n            amount + ownedTokens <= mintPerAddress,\n            \"Exceeded minting limit\"\n        );\n        _safeMint(recipient, amount);\n    }\n\n    function mint(uint256 amount) public payable {\n        require(activeMint, \"Public mint has not started\");\n        require(\n            msg.value == amount * mintCost,\n            \"Transaction value does not match the mint cost\"\n        );\n        uint256 ownedTokens = balanceOf(msg.sender);\n        require(\n            amount + ownedTokens <= mintPerAddress,\n            \"Exceeded minting limit\"\n        );\n\n        _safeMint(msg.sender, amount);\n    }\n\n    function presaleMint(uint256 amount)\n        public\n        payable\n        onlyRole(WHITELIST_ROLE)\n    {\n        require(activePresale, \"Presale mint has not started\");\n        require(\n            msg.value == amount * presaleCost,\n            \"Transaction value does not match the mint cost\"\n        );\n        uint256 ownedTokens = balanceOf(msg.sender);\n        require(\n            amount + ownedTokens <= mintPerAddress,\n            \"Exceeded minting limit\"\n        );\n\n        _safeMint(msg.sender, amount);\n    }\n\n    function setBaseUri(string memory _baseUri)\n        external\n        onlyRole(DEFAULT_ADMIN_ROLE)\n    {\n        baseUri = _baseUri;\n    }\n\n    function setMaxTokens(uint256 max) external onlyRole(DEFAULT_ADMIN_ROLE) {\n        require(max > totalSupply(), \"New max cannot exceed existing supply\");\n        maxTokens = max;\n    }\n\n    function tokensOfOwner(address _owner)\n        external\n        view\n        returns (uint256[] memory)\n    {\n        uint256 tokenCount = totalSupply();\n        if (tokenCount == 0) {\n            // Return an empty array\n            return new uint256[](0);\n        } else {\n            uint256[] memory result = new uint256[](tokenCount);\n            uint256 index;\n            uint i = 0;\n            for (index = 0; index < tokenCount; index++) {\n                if (ownerOf(index) == _owner) {\n                    result[i] = index;\n                    i++;\n                }\n            }\n            return result;\n        }\n    }\n\n    function tokenURI(uint256 tokenId)\n        public\n        view\n        virtual\n        override\n        returns (string memory)\n    {\n        require(\n            _exists(tokenId),\n            \"ERC721Metadata: URI query for nonexistent token\"\n        );\n\n        string memory _tokenURI = _tokenURIs[tokenId];\n        string memory base = _baseURI();\n\n        // If there is no base URI, return the token URI.\n        if (bytes(base).length == 0) {\n            return _tokenURI;\n        }\n        // If both are set, concatenate the baseURI and tokenURI (via abi.encodePacked).\n        if (bytes(_tokenURI).length > 0) {\n            return string(abi.encodePacked(base, _tokenURI));\n        }\n        // If there is a baseURI but no tokenURI, concatenate the tokenID to the baseURI.\n        return string(abi.encodePacked(base, tokenId.toString(), \".json\"));\n    }\n\n    function toggleMint() external onlyRole(DEFAULT_ADMIN_ROLE) {\n        activeMint = !activeMint;\n        mintPerAddress = 5;\n    }\n\n    function togglePresale() external onlyRole(DEFAULT_ADMIN_ROLE) {\n        activePresale = !activePresale;\n        mintPerAddress = 3;\n    }\n\n    function withdraw() external payable {\n        payable(teamAddress).transfer(address(this).balance);\n    }\n\n    // The following functions are overrides required by Solidity.\n    function supportsInterface(bytes4 interfaceId)\n        public\n        view\n        override(ERC721A, AccessControl)\n        returns (bool)\n    {\n        return super.supportsInterface(interfaceId);\n    }\n}\n",
  "sourcePath": "/Users/warrenschwartz/Projects/ColdBehaviour/contracts/contracts/ColdBehaviorNft.sol",
  "compiler": {
    "name": "solc",
    "version": "0.8.10+commit.fc410830.Emscripten.clang"
  },
  "schemaVersion": "3.4.3",
  "updatedAt": "2022-03-20T04:49:53.372Z",
  "devdoc": {
    "kind": "dev",
    "methods": {
      "approve(address,uint256)": {
        "details": "See {IERC721-approve}."
      },
      "balanceOf(address)": {
        "details": "See {IERC721-balanceOf}."
      },
      "getApproved(uint256)": {
        "details": "See {IERC721-getApproved}."
      },
      "getRoleAdmin(bytes32)": {
        "details": "Returns the admin role that controls `role`. See {grantRole} and {revokeRole}. To change a role's admin, use {_setRoleAdmin}."
      },
      "grantRole(bytes32,address)": {
        "details": "Grants `role` to `account`. If `account` had not been already granted `role`, emits a {RoleGranted} event. Requirements: - the caller must have ``role``'s admin role."
      },
      "hasRole(bytes32,address)": {
        "details": "Returns `true` if `account` has been granted `role`."
      },
      "isApprovedForAll(address,address)": {
        "details": "See {IERC721-isApprovedForAll}."
      },
      "name()": {
        "details": "See {IERC721Metadata-name}."
      },
      "ownerOf(uint256)": {
        "details": "See {IERC721-ownerOf}."
      },
      "renounceRole(bytes32,address)": {
        "details": "Revokes `role` from the calling account. Roles are often managed via {grantRole} and {revokeRole}: this function's purpose is to provide a mechanism for accounts to lose their privileges if they are compromised (such as when a trusted device is misplaced). If the calling account had been revoked `role`, emits a {RoleRevoked} event. Requirements: - the caller must be `account`."
      },
      "revokeRole(bytes32,address)": {
        "details": "Revokes `role` from `account`. If `account` had been granted `role`, emits a {RoleRevoked} event. Requirements: - the caller must have ``role``'s admin role."
      },
      "safeTransferFrom(address,address,uint256)": {
        "details": "See {IERC721-safeTransferFrom}."
      },
      "safeTransferFrom(address,address,uint256,bytes)": {
        "details": "See {IERC721-safeTransferFrom}."
      },
      "setApprovalForAll(address,bool)": {
        "details": "See {IERC721-setApprovalForAll}."
      },
      "symbol()": {
        "details": "See {IERC721Metadata-symbol}."
      },
      "tokenURI(uint256)": {
        "details": "See {IERC721Metadata-tokenURI}."
      },
      "totalSupply()": {
        "details": "Burned tokens are calculated here, use _totalMinted() if you want to count just minted tokens."
      },
      "transferFrom(address,address,uint256)": {
        "details": "See {IERC721-transferFrom}."
      }
    },
    "version": 1
  },
  "userdoc": {
    "kind": "user",
    "methods": {},
    "version": 1
  }
}