{
  "contractName": "ColdBehaviorNFT",
  "abi": [
    {
      "inputs": [
        {
          "internalType": "address",
          "name": "_teamAddress",
          "type": "address"
        }
      ],
      "stateMutability": "nonpayable",
      "type": "constructor"
    },
    {
      "anonymous": false,
      "inputs": [
        {
          "indexed": true,
          "internalType": "address",
          "name": "owner",
          "type": "address"
        },
        {
          "indexed": true,
          "internalType": "address",
          "name": "approved",
          "type": "address"
        },
        {
          "indexed": true,
          "internalType": "uint256",
          "name": "tokenId",
          "type": "uint256"
        }
      ],
      "name": "Approval",
      "type": "event"
    },
    {
      "anonymous": false,
      "inputs": [
        {
          "indexed": true,
          "internalType": "address",
          "name": "owner",
          "type": "address"
        },
        {
          "indexed": true,
          "internalType": "address",
          "name": "operator",
          "type": "address"
        },
        {
          "indexed": false,
          "internalType": "bool",
          "name": "approved",
          "type": "bool"
        }
      ],
      "name": "ApprovalForAll",
      "type": "event"
    },
    {
      "anonymous": false,
      "inputs": [
        {
          "indexed": true,
          "internalType": "bytes32",
          "name": "role",
          "type": "bytes32"
        },
        {
          "indexed": true,
          "internalType": "bytes32",
          "name": "previousAdminRole",
          "type": "bytes32"
        },
        {
          "indexed": true,
          "internalType": "bytes32",
          "name": "newAdminRole",
          "type": "bytes32"
        }
      ],
      "name": "RoleAdminChanged",
      "type": "event"
    },
    {
      "anonymous": false,
      "inputs": [
        {
          "indexed": true,
          "internalType": "bytes32",
          "name": "role",
          "type": "bytes32"
        },
        {
          "indexed": true,
          "internalType": "address",
          "name": "account",
          "type": "address"
        },
        {
          "indexed": true,
          "internalType": "address",
          "name": "sender",
          "type": "address"
        }
      ],
      "name": "RoleGranted",
      "type": "event"
    },
    {
      "anonymous": false,
      "inputs": [
        {
          "indexed": true,
          "internalType": "bytes32",
          "name": "role",
          "type": "bytes32"
        },
        {
          "indexed": true,
          "internalType": "address",
          "name": "account",
          "type": "address"
        },
        {
          "indexed": true,
          "internalType": "address",
          "name": "sender",
          "type": "address"
        }
      ],
      "name": "RoleRevoked",
      "type": "event"
    },
    {
      "anonymous": false,
      "inputs": [
        {
          "indexed": true,
          "internalType": "address",
          "name": "from",
          "type": "address"
        },
        {
          "indexed": true,
          "internalType": "address",
          "name": "to",
          "type": "address"
        },
        {
          "indexed": true,
          "internalType": "uint256",
          "name": "tokenId",
          "type": "uint256"
        }
      ],
      "name": "Transfer",
      "type": "event"
    },
    {
      "inputs": [],
      "name": "DEFAULT_ADMIN_ROLE",
      "outputs": [
        {
          "internalType": "bytes32",
          "name": "",
          "type": "bytes32"
        }
      ],
      "stateMutability": "view",
      "type": "function"
    },
    {
      "inputs": [],
      "name": "WHITELIST_ROLE",
      "outputs": [
        {
          "internalType": "bytes32",
          "name": "",
          "type": "bytes32"
        }
      ],
      "stateMutability": "view",
      "type": "function"
    },
    {
      "inputs": [],
      "name": "WITHDRAWAL_ROLE",
      "outputs": [
        {
          "internalType": "bytes32",
          "name": "",
          "type": "bytes32"
        }
      ],
      "stateMutability": "view",
      "type": "function"
    },
    {
      "inputs": [],
      "name": "activeMint",
      "outputs": [
        {
          "internalType": "bool",
          "name": "",
          "type": "bool"
        }
      ],
      "stateMutability": "view",
      "type": "function"
    },
    {
      "inputs": [],
      "name": "activePresale",
      "outputs": [
        {
          "internalType": "bool",
          "name": "",
          "type": "bool"
        }
      ],
      "stateMutability": "view",
      "type": "function"
    },
    {
      "inputs": [
        {
          "internalType": "address",
          "name": "to",
          "type": "address"
        },
        {
          "internalType": "uint256",
          "name": "tokenId",
          "type": "uint256"
        }
      ],
      "name": "approve",
      "outputs": [],
      "stateMutability": "nonpayable",
      "type": "function"
    },
    {
      "inputs": [
        {
          "internalType": "address",
          "name": "owner",
          "type": "address"
        }
      ],
      "name": "balanceOf",
      "outputs": [
        {
          "internalType": "uint256",
          "name": "",
          "type": "uint256"
        }
      ],
      "stateMutability": "view",
      "type": "function"
    },
    {
      "inputs": [],
      "name": "baseUri",
      "outputs": [
        {
          "internalType": "string",
          "name": "",
          "type": "string"
        }
      ],
      "stateMutability": "view",
      "type": "function"
    },
    {
      "inputs": [
        {
          "internalType": "uint256",
          "name": "tokenId",
          "type": "uint256"
        }
      ],
      "name": "getApproved",
      "outputs": [
        {
          "internalType": "address",
          "name": "",
          "type": "address"
        }
      ],
      "stateMutability": "view",
      "type": "function"
    },
    {
      "inputs": [
        {
          "internalType": "bytes32",
          "name": "role",
          "type": "bytes32"
        }
      ],
      "name": "getRoleAdmin",
      "outputs": [
        {
          "internalType": "bytes32",
          "name": "",
          "type": "bytes32"
        }
      ],
      "stateMutability": "view",
      "type": "function"
    },
    {
      "inputs": [
        {
          "internalType": "bytes32",
          "name": "role",
          "type": "bytes32"
        },
        {
          "internalType": "address",
          "name": "account",
          "type": "address"
        }
      ],
      "name": "grantRole",
      "outputs": [],
      "stateMutability": "nonpayable",
      "type": "function"
    },
    {
      "inputs": [
        {
          "internalType": "bytes32",
          "name": "role",
          "type": "bytes32"
        },
        {
          "internalType": "address",
          "name": "account",
          "type": "address"
        }
      ],
      "name": "hasRole",
      "outputs": [
        {
          "internalType": "bool",
          "name": "",
          "type": "bool"
        }
      ],
      "stateMutability": "view",
      "type": "function"
    },
    {
      "inputs": [
        {
          "internalType": "address",
          "name": "owner",
          "type": "address"
        },
        {
          "internalType": "address",
          "name": "operator",
          "type": "address"
        }
      ],
      "name": "isApprovedForAll",
      "outputs": [
        {
          "internalType": "bool",
          "name": "",
          "type": "bool"
        }
      ],
      "stateMutability": "view",
      "type": "function"
    },
    {
      "inputs": [],
      "name": "maxTokens",
      "outputs": [
        {
          "internalType": "uint256",
          "name": "",
          "type": "uint256"
        }
      ],
      "stateMutability": "view",
      "type": "function"
    },
    {
      "inputs": [],
      "name": "mintCost",
      "outputs": [
        {
          "internalType": "uint256",
          "name": "",
          "type": "uint256"
        }
      ],
      "stateMutability": "view",
      "type": "function"
    },
    {
      "inputs": [],
      "name": "mintPerAddress",
      "outputs": [
        {
          "internalType": "uint256",
          "name": "",
          "type": "uint256"
        }
      ],
      "stateMutability": "view",
      "type": "function"
    },
    {
      "inputs": [],
      "name": "name",
      "outputs": [
        {
          "internalType": "string",
          "name": "",
          "type": "string"
        }
      ],
      "stateMutability": "view",
      "type": "function"
    },
    {
      "inputs": [
        {
          "internalType": "uint256",
          "name": "tokenId",
          "type": "uint256"
        }
      ],
      "name": "ownerOf",
      "outputs": [
        {
          "internalType": "address",
          "name": "",
          "type": "address"
        }
      ],
      "stateMutability": "view",
      "type": "function"
    },
    {
      "inputs": [],
      "name": "presaleCost",
      "outputs": [
        {
          "internalType": "uint256",
          "name": "",
          "type": "uint256"
        }
      ],
      "stateMutability": "view",
      "type": "function"
    },
    {
      "inputs": [
        {
          "internalType": "bytes32",
          "name": "role",
          "type": "bytes32"
        },
        {
          "internalType": "address",
          "name": "account",
          "type": "address"
        }
      ],
      "name": "renounceRole",
      "outputs": [],
      "stateMutability": "nonpayable",
      "type": "function"
    },
    {
      "inputs": [
        {
          "internalType": "bytes32",
          "name": "role",
          "type": "bytes32"
        },
        {
          "internalType": "address",
          "name": "account",
          "type": "address"
        }
      ],
      "name": "revokeRole",
      "outputs": [],
      "stateMutability": "nonpayable",
      "type": "function"
    },
    {
      "inputs": [
        {
          "internalType": "address",
          "name": "from",
          "type": "address"
        },
        {
          "internalType": "address",
          "name": "to",
          "type": "address"
        },
        {
          "internalType": "uint256",
          "name": "tokenId",
          "type": "uint256"
        }
      ],
      "name": "safeTransferFrom",
      "outputs": [],
      "stateMutability": "nonpayable",
      "type": "function"
    },
    {
      "inputs": [
        {
          "internalType": "address",
          "name": "from",
          "type": "address"
        },
        {
          "internalType": "address",
          "name": "to",
          "type": "address"
        },
        {
          "internalType": "uint256",
          "name": "tokenId",
          "type": "uint256"
        },
        {
          "internalType": "bytes",
          "name": "_data",
          "type": "bytes"
        }
      ],
      "name": "safeTransferFrom",
      "outputs": [],
      "stateMutability": "nonpayable",
      "type": "function"
    },
    {
      "inputs": [
        {
          "internalType": "address",
          "name": "operator",
          "type": "address"
        },
        {
          "internalType": "bool",
          "name": "approved",
          "type": "bool"
        }
      ],
      "name": "setApprovalForAll",
      "outputs": [],
      "stateMutability": "nonpayable",
      "type": "function"
    },
    {
      "inputs": [],
      "name": "symbol",
      "outputs": [
        {
          "internalType": "string",
          "name": "",
          "type": "string"
        }
      ],
      "stateMutability": "view",
      "type": "function"
    },
    {
      "inputs": [],
      "name": "teamAddress",
      "outputs": [
        {
          "internalType": "address",
          "name": "",
          "type": "address"
        }
      ],
      "stateMutability": "view",
      "type": "function"
    },
    {
      "inputs": [
        {
          "internalType": "uint256",
          "name": "index",
          "type": "uint256"
        }
      ],
      "name": "tokenByIndex",
      "outputs": [
        {
          "internalType": "uint256",
          "name": "",
          "type": "uint256"
        }
      ],
      "stateMutability": "view",
      "type": "function"
    },
    {
      "inputs": [
        {
          "internalType": "address",
          "name": "owner",
          "type": "address"
        },
        {
          "internalType": "uint256",
          "name": "index",
          "type": "uint256"
        }
      ],
      "name": "tokenOfOwnerByIndex",
      "outputs": [
        {
          "internalType": "uint256",
          "name": "",
          "type": "uint256"
        }
      ],
      "stateMutability": "view",
      "type": "function"
    },
    {
      "inputs": [],
      "name": "totalSupply",
      "outputs": [
        {
          "internalType": "uint256",
          "name": "",
          "type": "uint256"
        }
      ],
      "stateMutability": "view",
      "type": "function"
    },
    {
      "inputs": [
        {
          "internalType": "address",
          "name": "from",
          "type": "address"
        },
        {
          "internalType": "address",
          "name": "to",
          "type": "address"
        },
        {
          "internalType": "uint256",
          "name": "tokenId",
          "type": "uint256"
        }
      ],
      "name": "transferFrom",
      "outputs": [],
      "stateMutability": "nonpayable",
      "type": "function"
    },
    {
      "inputs": [
        {
          "internalType": "address[]",
          "name": "members",
          "type": "address[]"
        }
      ],
      "name": "addWhitelist",
      "outputs": [],
      "stateMutability": "nonpayable",
      "type": "function"
    },
    {
      "inputs": [
        {
          "internalType": "address",
          "name": "recipient",
          "type": "address"
        },
        {
          "internalType": "uint256",
          "name": "quantity",
          "type": "uint256"
        }
      ],
      "name": "devClaim",
      "outputs": [],
      "stateMutability": "nonpayable",
      "type": "function"
    },
    {
      "inputs": [
        {
          "internalType": "uint256",
          "name": "amount",
          "type": "uint256"
        }
      ],
      "name": "mint",
      "outputs": [],
      "stateMutability": "payable",
      "type": "function"
    },
    {
      "inputs": [
        {
          "internalType": "uint256",
          "name": "amount",
          "type": "uint256"
        }
      ],
      "name": "presaleMint",
      "outputs": [],
      "stateMutability": "payable",
      "type": "function"
    },
    {
      "inputs": [],
      "name": "nextTokenId",
      "outputs": [
        {
          "internalType": "uint256",
          "name": "",
          "type": "uint256"
        }
      ],
      "stateMutability": "view",
      "type": "function"
    },
    {
      "inputs": [
        {
          "internalType": "string",
          "name": "_baseUri",
          "type": "string"
        }
      ],
      "name": "setBaseUri",
      "outputs": [],
      "stateMutability": "nonpayable",
      "type": "function"
    },
    {
      "inputs": [
        {
          "internalType": "uint256",
          "name": "max",
          "type": "uint256"
        }
      ],
      "name": "setMaxTokens",
      "outputs": [],
      "stateMutability": "nonpayable",
      "type": "function"
    },
    {
      "inputs": [
        {
          "internalType": "address",
          "name": "_owner",
          "type": "address"
        }
      ],
      "name": "tokensOfOwner",
      "outputs": [
        {
          "internalType": "uint256[]",
          "name": "",
          "type": "uint256[]"
        }
      ],
      "stateMutability": "view",
      "type": "function"
    },
    {
      "inputs": [
        {
          "internalType": "uint256",
          "name": "tokenId",
          "type": "uint256"
        }
      ],
      "name": "tokenURI",
      "outputs": [
        {
          "internalType": "string",
          "name": "",
          "type": "string"
        }
      ],
      "stateMutability": "view",
      "type": "function"
    },
    {
      "inputs": [],
      "name": "toggleMint",
      "outputs": [],
      "stateMutability": "nonpayable",
      "type": "function"
    },
    {
      "inputs": [],
      "name": "togglePresale",
      "outputs": [],
      "stateMutability": "nonpayable",
      "type": "function"
    },
    {
      "inputs": [],
      "name": "withdraw",
      "outputs": [],
      "stateMutability": "payable",
      "type": "function"
    },
    {
      "inputs": [
        {
          "internalType": "bytes4",
          "name": "interfaceId",
          "type": "bytes4"
        }
      ],
      "name": "supportsInterface",
      "outputs": [
        {
          "internalType": "bool",
          "name": "",
          "type": "bool"
        }
      ],
      "stateMutability": "view",
      "type": "function"
    }
  ],
  "bytecode": "0x60806040526000600b60006101000a81548160ff0219169083151502179055506000600b60016101000a81548160ff0219169083151502179055506003600c556115b36012553480156200005257600080fd5b5060405162005522380380620055228339818101604052810190620000789190620004f6565b6040518060400160405280601181526020017f436f6c64204265686176696f72204e46540000000000000000000000000000008152506040518060400160405280600381526020017f43424e00000000000000000000000000000000000000000000000000000000008152508160009080519060200190620000fc929190620003dc565b50806001908051906020019062000115929190620003dc565b5050506200012d6000801b336200027760201b60201c565b6040518060400160405280601e81526020017f68747470733a2f2f697066732e636f6c646265686176696f722e636f6d2f0000815250601190805190602001906200017a929190620003dc565b5080600f60006101000a81548173ffffffffffffffffffffffffffffffffffffffff021916908373ffffffffffffffffffffffffffffffffffffffff16021790555060014614620001d257655af3107a4000620001dc565b67025bf6196bd100005b67ffffffffffffffff16600d81905550600146146200020257655af3107a40006200020c565b670214e8348c4f00005b67ffffffffffffffff16600e81905550620002707f0744af9828f5bfd2e0f842fd62674fe7c160a394d457c33e1a56eeae3a44a9ef600f60009054906101000a900473ffffffffffffffffffffffffffffffffffffffff166200027760201b60201c565b506200058d565b6200028982826200036960201b60201c565b62000365576001600a600084815260200190815260200160002060000160008373ffffffffffffffffffffffffffffffffffffffff1673ffffffffffffffffffffffffffffffffffffffff16815260200190815260200160002060006101000a81548160ff0219169083151502179055506200030a620003d460201b60201c565b73ffffffffffffffffffffffffffffffffffffffff168173ffffffffffffffffffffffffffffffffffffffff16837f2f8788117e7eff1d82e926ec794901d17c78024a50270940304540a733656f0d60405160405180910390a45b5050565b6000600a600084815260200190815260200160002060000160008373ffffffffffffffffffffffffffffffffffffffff1673ffffffffffffffffffffffffffffffffffffffff16815260200190815260200160002060009054906101000a900460ff16905092915050565b600033905090565b828054620003ea9062000557565b90600052602060002090601f0160209004810192826200040e57600085556200045a565b82601f106200042957805160ff19168380011785556200045a565b828001600101855582156200045a579182015b82811115620004595782518255916020019190600101906200043c565b5b5090506200046991906200046d565b5090565b5b80821115620004885760008160009055506001016200046e565b5090565b600080fd5b600073ffffffffffffffffffffffffffffffffffffffff82169050919050565b6000620004be8262000491565b9050919050565b620004d081620004b1565b8114620004dc57600080fd5b50565b600081519050620004f081620004c5565b92915050565b6000602082840312156200050f576200050e6200048c565b5b60006200051f84828501620004df565b91505092915050565b7f4e487b7100000000000000000000000000000000000000000000000000000000600052602260045260246000fd5b600060028204905060018216806200057057607f821691505b6020821081141562000587576200058662000528565b5b50919050565b614f85806200059d6000396000f3fe60806040526004361061025c5760003560e01c80637a997ab711610144578063b88d4fde116100b6578063d547741f1161007a578063d547741f146108d3578063d89859df146108fc578063e831574214610925578063e985e9c514610950578063edac985b1461098d578063f47a269c146109b65761025c565b8063b88d4fde1461080f578063bdb4b84814610838578063c87b56dd14610863578063c9b298f1146108a0578063d3dd5fe0146108bc5761025c565b8063a0712d6811610108578063a0712d6814610720578063a0bcfc7f1461073c578063a217fddf14610765578063a22cb46514610790578063b1eb4582146107b9578063b3e47ba3146107e45761025c565b80637a997ab7146106255780638462151c1461065057806391d148541461068d57806395d89b41146106ca5780639abc8320146106f55761025c565b80632f2ff15d116101dd57806342842e0e116101a157806342842e0e146104ef5780634f6ccce7146105185780636352211e1461055557806367db90c21461059257806370a08231146105bd57806375794a3c146105fa5761025c565b80632f2ff15d1461043f5780632f745c591461046857806334393743146104a557806336568abe146104bc5780633ccfd60b146104e55761025c565b806318160ddd1161022457806318160ddd146103585780631c75f0851461038357806323b872dd146103ae578063248a9ca3146103d75780632a23d07d146104145761025c565b806301ffc9a71461026157806306fdde031461029e578063081812fc146102c9578063095ea7b31461030657806311e776fe1461032f575b600080fd5b34801561026d57600080fd5b50610288600480360381019061028391906134a8565b6109e1565b60405161029591906134f0565b60405180910390f35b3480156102aa57600080fd5b506102b36109f3565b6040516102c091906135a4565b60405180910390f35b3480156102d557600080fd5b506102f060048036038101906102eb91906135fc565b610a85565b6040516102fd919061366a565b60405180910390f35b34801561031257600080fd5b5061032d600480360381019061032891906136b1565b610b0a565b005b34801561033b57600080fd5b50610356600480360381019061035191906135fc565b610c22565b005b34801561036457600080fd5b5061036d610c8b565b60405161037a9190613700565b60405180910390f35b34801561038f57600080fd5b50610398610c98565b6040516103a5919061366a565b60405180910390f35b3480156103ba57600080fd5b506103d560048036038101906103d0919061371b565b610cbe565b005b3480156103e357600080fd5b506103fe60048036038101906103f991906137a4565b610d1e565b60405161040b91906137e0565b60405180910390f35b34801561042057600080fd5b50610429610d3e565b6040516104369190613700565b60405180910390f35b34801561044b57600080fd5b50610466600480360381019061046191906137fb565b610d44565b005b34801561047457600080fd5b5061048f600480360381019061048a91906136b1565b610d6d565b60405161049c9190613700565b60405180910390f35b3480156104b157600080fd5b506104ba610e12565b005b3480156104c857600080fd5b506104e360048036038101906104de91906137fb565b610e5c565b005b6104ed610edf565b005b3480156104fb57600080fd5b506105166004803603810190610511919061371b565b610f5b565b005b34801561052457600080fd5b5061053f600480360381019061053a91906135fc565b610f7b565b60405161054c9190613700565b60405180910390f35b34801561056157600080fd5b5061057c600480360381019061057791906135fc565b610fec565b604051610589919061366a565b60405180910390f35b34801561059e57600080fd5b506105a761109e565b6040516105b491906137e0565b60405180910390f35b3480156105c957600080fd5b506105e460048036038101906105df919061383b565b6110c2565b6040516105f19190613700565b60405180910390f35b34801561060657600080fd5b5061060f61117a565b60405161061c9190613700565b60405180910390f35b34801561063157600080fd5b5061063a61118b565b60405161064791906137e0565b60405180910390f35b34801561065c57600080fd5b506106776004803603810190610672919061383b565b6111af565b6040516106849190613926565b60405180910390f35b34801561069957600080fd5b506106b460048036038101906106af91906137fb565b6112b9565b6040516106c191906134f0565b60405180910390f35b3480156106d657600080fd5b506106df611324565b6040516106ec91906135a4565b60405180910390f35b34801561070157600080fd5b5061070a6113b6565b60405161071791906135a4565b60405180910390f35b61073a600480360381019061073591906135fc565b611444565b005b34801561074857600080fd5b50610763600480360381019061075e9190613a7d565b6115c9565b005b34801561077157600080fd5b5061077a6115f9565b60405161078791906137e0565b60405180910390f35b34801561079c57600080fd5b506107b760048036038101906107b29190613af2565b611600565b005b3480156107c557600080fd5b506107ce611616565b6040516107db91906134f0565b60405180910390f35b3480156107f057600080fd5b506107f9611629565b60405161080691906134f0565b60405180910390f35b34801561081b57600080fd5b5061083660048036038101906108319190613bd3565b61163c565b005b34801561084457600080fd5b5061084d61169e565b60405161085a9190613700565b60405180910390f35b34801561086f57600080fd5b5061088a600480360381019061088591906135fc565b6116a4565b60405161089791906135a4565b60405180910390f35b6108ba60048036038101906108b591906135fc565b611817565b005b3480156108c857600080fd5b506108d16119cf565b005b3480156108df57600080fd5b506108fa60048036038101906108f591906137fb565b611a19565b005b34801561090857600080fd5b50610923600480360381019061091e91906136b1565b611a42565b005b34801561093157600080fd5b5061093a611ae2565b6040516109479190613700565b60405180910390f35b34801561095c57600080fd5b5061097760048036038101906109729190613c56565b611ae8565b60405161098491906134f0565b60405180910390f35b34801561099957600080fd5b506109b460048036038101906109af9190613cf6565b611b7c565b005b3480156109c257600080fd5b506109cb611c5f565b6040516109d89190613700565b60405180910390f35b60006109ec82611c65565b9050919050565b606060008054610a0290613d72565b80601f0160208091040260200160405190810160405280929190818152602001828054610a2e90613d72565b8015610a7b5780601f10610a5057610100808354040283529160200191610a7b565b820191906000526020600020905b815481529060010190602001808311610a5e57829003601f168201915b5050505050905090565b6000610a9082611cdf565b610acf576040517f08c379a0000000000000000000000000000000000000000000000000000000008152600401610ac690613e16565b60405180910390fd5b6004600083815260200190815260200160002060009054906101000a900473ffffffffffffffffffffffffffffffffffffffff169050919050565b6000610b1582610fec565b90508073ffffffffffffffffffffffffffffffffffffffff168373ffffffffffffffffffffffffffffffffffffffff161415610b86576040517f08c379a0000000000000000000000000000000000000000000000000000000008152600401610b7d90613ea8565b60405180910390fd5b8073ffffffffffffffffffffffffffffffffffffffff16610ba5611d4b565b73ffffffffffffffffffffffffffffffffffffffff161480610bd45750610bd381610bce611d4b565b611ae8565b5b610c13576040517f08c379a0000000000000000000000000000000000000000000000000000000008152600401610c0a90613f3a565b60405180910390fd5b610c1d8383611d53565b505050565b6000801b610c3781610c32611d4b565b611e0c565b610c3f610c8b565b8211610c80576040517f08c379a0000000000000000000000000000000000000000000000000000000008152600401610c7790613fcc565b60405180910390fd5b816012819055505050565b6000600880549050905090565b600f60009054906101000a900473ffffffffffffffffffffffffffffffffffffffff1681565b610ccf610cc9611d4b565b82611ea9565b610d0e576040517f08c379a0000000000000000000000000000000000000000000000000000000008152600401610d059061405e565b60405180910390fd5b610d19838383611f87565b505050565b6000600a6000838152602001908152602001600020600101549050919050565b600e5481565b610d4d82610d1e565b610d5e81610d59611d4b565b611e0c565b610d6883836121e3565b505050565b6000610d78836110c2565b8210610db9576040517f08c379a0000000000000000000000000000000000000000000000000000000008152600401610db0906140f0565b60405180910390fd5b600660008473ffffffffffffffffffffffffffffffffffffffff1673ffffffffffffffffffffffffffffffffffffffff168152602001908152602001600020600083815260200190815260200160002054905092915050565b6000801b610e2781610e22611d4b565b611e0c565b600b60019054906101000a900460ff1615600b60016101000a81548160ff0219169083151502179055506003600c8190555050565b610e64611d4b565b73ffffffffffffffffffffffffffffffffffffffff168173ffffffffffffffffffffffffffffffffffffffff1614610ed1576040517f08c379a0000000000000000000000000000000000000000000000000000000008152600401610ec890614182565b60405180910390fd5b610edb82826122c4565b5050565b7f0744af9828f5bfd2e0f842fd62674fe7c160a394d457c33e1a56eeae3a44a9ef610f1181610f0c611d4b565b611e0c565b3373ffffffffffffffffffffffffffffffffffffffff166108fc479081150290604051600060405180830381858888f19350505050158015610f57573d6000803e3d6000fd5b5050565b610f768383836040518060200160405280600081525061163c565b505050565b6000610f85610c8b565b8210610fc6576040517f08c379a0000000000000000000000000000000000000000000000000000000008152600401610fbd90614214565b60405180910390fd5b60088281548110610fda57610fd9614234565b5b90600052602060002001549050919050565b6000806002600084815260200190815260200160002060009054906101000a900473ffffffffffffffffffffffffffffffffffffffff169050600073ffffffffffffffffffffffffffffffffffffffff168173ffffffffffffffffffffffffffffffffffffffff161415611095576040517f08c379a000000000000000000000000000000000000000000000000000000000815260040161108c906142d5565b60405180910390fd5b80915050919050565b7f0744af9828f5bfd2e0f842fd62674fe7c160a394d457c33e1a56eeae3a44a9ef81565b60008073ffffffffffffffffffffffffffffffffffffffff168273ffffffffffffffffffffffffffffffffffffffff161415611133576040517f08c379a000000000000000000000000000000000000000000000000000000000815260040161112a90614367565b60405180910390fd5b600360008373ffffffffffffffffffffffffffffffffffffffff1673ffffffffffffffffffffffffffffffffffffffff168152602001908152602001600020549050919050565b600061118660106123a6565b905090565b7fdc72ed553f2544c34465af23b847953efeb813428162d767f9ba5f4013be676081565b606060006111bc836110c2565b9050600081141561121957600067ffffffffffffffff8111156111e2576111e1613952565b5b6040519080825280602002602001820160405280156112105781602001602082028036833780820191505090505b509150506112b4565b60008167ffffffffffffffff81111561123557611234613952565b5b6040519080825280602002602001820160405280156112635781602001602082028036833780820191505090505b50905060005b828110156112ad5761127b8582610d6d565b82828151811061128e5761128d614234565b5b60200260200101818152505080806112a5906143b6565b915050611269565b8193505050505b919050565b6000600a600084815260200190815260200160002060000160008373ffffffffffffffffffffffffffffffffffffffff1673ffffffffffffffffffffffffffffffffffffffff16815260200190815260200160002060009054906101000a900460ff16905092915050565b60606001805461133390613d72565b80601f016020809104026020016040519081016040528092919081815260200182805461135f90613d72565b80156113ac5780601f10611381576101008083540402835291602001916113ac565b820191906000526020600020905b81548152906001019060200180831161138f57829003601f168201915b5050505050905090565b601180546113c390613d72565b80601f01602080910402602001604051908101604052809291908181526020018280546113ef90613d72565b801561143c5780601f106114115761010080835404028352916020019161143c565b820191906000526020600020905b81548152906001019060200180831161141f57829003601f168201915b505050505081565b600b60009054906101000a900460ff16611493576040517f08c379a000000000000000000000000000000000000000000000000000000000815260040161148a9061444b565b60405180910390fd5b600d54816114a1919061446b565b34146114e2576040517f08c379a00000000000000000000000000000000000000000000000000000000081526004016114d990614537565b60405180910390fd5b60006114ed336110c2565b9050600c5481836114fe9190614557565b111561153f576040517f08c379a0000000000000000000000000000000000000000000000000000000008152600401611536906145f9565b60405180910390fd5b60005b828110156115c457600061155660106123a6565b9050601254811061159c576040517f08c379a00000000000000000000000000000000000000000000000000000000081526004016115939061468b565b60405180910390fd5b6115a660106123b4565b6115b033826123ca565b5080806115bc906143b6565b915050611542565b505050565b6000801b6115de816115d9611d4b565b611e0c565b81601190805190602001906115f4929190613399565b505050565b6000801b81565b61161261160b611d4b565b83836123e8565b5050565b600b60009054906101000a900460ff1681565b600b60019054906101000a900460ff1681565b61164d611647611d4b565b83611ea9565b61168c576040517f08c379a00000000000000000000000000000000000000000000000000000000081526004016116839061405e565b60405180910390fd5b61169884848484612555565b50505050565b600d5481565b60606116af82611cdf565b6116ee576040517f08c379a00000000000000000000000000000000000000000000000000000000081526004016116e59061471d565b60405180910390fd5b600060136000848152602001908152602001600020805461170e90613d72565b80601f016020809104026020016040519081016040528092919081815260200182805461173a90613d72565b80156117875780601f1061175c57610100808354040283529160200191611787565b820191906000526020600020905b81548152906001019060200180831161176a57829003601f168201915b5050505050905060006117986125b1565b90506000815114156117ae578192505050611812565b6000825111156117e35780826040516020016117cb929190614779565b60405160208183030381529060405292505050611812565b806117ed85612643565b6040516020016117fe9291906147e9565b604051602081830303815290604052925050505b919050565b7fdc72ed553f2544c34465af23b847953efeb813428162d767f9ba5f4013be676061184981611844611d4b565b611e0c565b600b60019054906101000a900460ff16611898576040517f08c379a000000000000000000000000000000000000000000000000000000000815260040161188f90614864565b60405180910390fd5b600e54826118a6919061446b565b34146118e7576040517f08c379a00000000000000000000000000000000000000000000000000000000081526004016118de90614537565b60405180910390fd5b60006118f2336110c2565b9050600c5481846119039190614557565b1115611944576040517f08c379a000000000000000000000000000000000000000000000000000000000815260040161193b906145f9565b60405180910390fd5b60005b838110156119c957600061195b60106123a6565b905060125481106119a1576040517f08c379a00000000000000000000000000000000000000000000000000000000081526004016119989061468b565b60405180910390fd5b6119ab60106123b4565b6119b533826123ca565b5080806119c1906143b6565b915050611947565b50505050565b6000801b6119e4816119df611d4b565b611e0c565b600b60009054906101000a900460ff1615600b60006101000a81548160ff0219169083151502179055506005600c8190555050565b611a2282610d1e565b611a3381611a2e611d4b565b611e0c565b611a3d83836122c4565b505050565b6000801b611a5781611a52611d4b565b611e0c565b6000611a6360106123a6565b90506012548110611aa9576040517f08c379a0000000000000000000000000000000000000000000000000000000008152600401611aa09061468b565b60405180910390fd5b60005b83811015611adb57611abe60106123b4565b611ac885836123ca565b8080611ad3906143b6565b915050611aac565b5050505050565b60125481565b6000600560008473ffffffffffffffffffffffffffffffffffffffff1673ffffffffffffffffffffffffffffffffffffffff16815260200190815260200160002060008373ffffffffffffffffffffffffffffffffffffffff1673ffffffffffffffffffffffffffffffffffffffff16815260200190815260200160002060009054906101000a900460ff16905092915050565b6000801b611b9181611b8c611d4b565b611e0c565b60005b83839050811015611c5957611bf07fdc72ed553f2544c34465af23b847953efeb813428162d767f9ba5f4013be6760858584818110611bd657611bd5614234565b5b9050602002016020810190611beb919061383b565b6112b9565b611c4657611c457fdc72ed553f2544c34465af23b847953efeb813428162d767f9ba5f4013be6760858584818110611c2b57611c2a614234565b5b9050602002016020810190611c40919061383b565b6121e3565b5b8080611c51906143b6565b915050611b94565b50505050565b600c5481565b60007f7965db0b000000000000000000000000000000000000000000000000000000007bffffffffffffffffffffffffffffffffffffffffffffffffffffffff1916827bffffffffffffffffffffffffffffffffffffffffffffffffffffffff19161480611cd85750611cd7826127a4565b5b9050919050565b60008073ffffffffffffffffffffffffffffffffffffffff166002600084815260200190815260200160002060009054906101000a900473ffffffffffffffffffffffffffffffffffffffff1673ffffffffffffffffffffffffffffffffffffffff1614159050919050565b600033905090565b816004600083815260200190815260200160002060006101000a81548173ffffffffffffffffffffffffffffffffffffffff021916908373ffffffffffffffffffffffffffffffffffffffff160217905550808273ffffffffffffffffffffffffffffffffffffffff16611dc683610fec565b73ffffffffffffffffffffffffffffffffffffffff167f8c5be1e5ebec7d5bd14f71427d1e84f3dd0314c0f7b2291e5b200ac8c7c3b92560405160405180910390a45050565b611e1682826112b9565b611ea557611e3b8173ffffffffffffffffffffffffffffffffffffffff16601461281e565b611e498360001c602061281e565b604051602001611e5a92919061491c565b6040516020818303038152906040526040517f08c379a0000000000000000000000000000000000000000000000000000000008152600401611e9c91906135a4565b60405180910390fd5b5050565b6000611eb482611cdf565b611ef3576040517f08c379a0000000000000000000000000000000000000000000000000000000008152600401611eea906149c8565b60405180910390fd5b6000611efe83610fec565b90508073ffffffffffffffffffffffffffffffffffffffff168473ffffffffffffffffffffffffffffffffffffffff161480611f6d57508373ffffffffffffffffffffffffffffffffffffffff16611f5584610a85565b73ffffffffffffffffffffffffffffffffffffffff16145b80611f7e5750611f7d8185611ae8565b5b91505092915050565b8273ffffffffffffffffffffffffffffffffffffffff16611fa782610fec565b73ffffffffffffffffffffffffffffffffffffffff1614611ffd576040517f08c379a0000000000000000000000000000000000000000000000000000000008152600401611ff490614a5a565b60405180910390fd5b600073ffffffffffffffffffffffffffffffffffffffff168273ffffffffffffffffffffffffffffffffffffffff16141561206d576040517f08c379a000000000000000000000000000000000000000000000000000000000815260040161206490614aec565b60405180910390fd5b612078838383612a5a565b612083600082611d53565b6001600360008573ffffffffffffffffffffffffffffffffffffffff1673ffffffffffffffffffffffffffffffffffffffff16815260200190815260200160002060008282546120d39190614b0c565b925050819055506001600360008473ffffffffffffffffffffffffffffffffffffffff1673ffffffffffffffffffffffffffffffffffffffff168152602001908152602001600020600082825461212a9190614557565b92505081905550816002600083815260200190815260200160002060006101000a81548173ffffffffffffffffffffffffffffffffffffffff021916908373ffffffffffffffffffffffffffffffffffffffff160217905550808273ffffffffffffffffffffffffffffffffffffffff168473ffffffffffffffffffffffffffffffffffffffff167fddf252ad1be2c89b69c2b068fc378daa952ba7f163c4a11628f55a4df523b3ef60405160405180910390a4505050565b6121ed82826112b9565b6122c0576001600a600084815260200190815260200160002060000160008373ffffffffffffffffffffffffffffffffffffffff1673ffffffffffffffffffffffffffffffffffffffff16815260200190815260200160002060006101000a81548160ff021916908315150217905550612265611d4b565b73ffffffffffffffffffffffffffffffffffffffff168173ffffffffffffffffffffffffffffffffffffffff16837f2f8788117e7eff1d82e926ec794901d17c78024a50270940304540a733656f0d60405160405180910390a45b5050565b6122ce82826112b9565b156123a2576000600a600084815260200190815260200160002060000160008373ffffffffffffffffffffffffffffffffffffffff1673ffffffffffffffffffffffffffffffffffffffff16815260200190815260200160002060006101000a81548160ff021916908315150217905550612347611d4b565b73ffffffffffffffffffffffffffffffffffffffff168173ffffffffffffffffffffffffffffffffffffffff16837ff6391f5c32d9c69d2a47ea670b442974b53935d1edc7fd64eb21e047a839171b60405160405180910390a45b5050565b600081600001549050919050565b6001816000016000828254019250508190555050565b6123e4828260405180602001604052806000815250612a6a565b5050565b8173ffffffffffffffffffffffffffffffffffffffff168373ffffffffffffffffffffffffffffffffffffffff161415612457576040517f08c379a000000000000000000000000000000000000000000000000000000000815260040161244e90614b8c565b60405180910390fd5b80600560008573ffffffffffffffffffffffffffffffffffffffff1673ffffffffffffffffffffffffffffffffffffffff16815260200190815260200160002060008473ffffffffffffffffffffffffffffffffffffffff1673ffffffffffffffffffffffffffffffffffffffff16815260200190815260200160002060006101000a81548160ff0219169083151502179055508173ffffffffffffffffffffffffffffffffffffffff168373ffffffffffffffffffffffffffffffffffffffff167f17307eab39ab6107e8899845ad3d59bd9653f200f220920489ca2b5937696c318360405161254891906134f0565b60405180910390a3505050565b612560848484611f87565b61256c84848484612ac5565b6125ab576040517f08c379a00000000000000000000000000000000000000000000000000000000081526004016125a290614c1e565b60405180910390fd5b50505050565b6060601180546125c090613d72565b80601f01602080910402602001604051908101604052809291908181526020018280546125ec90613d72565b80156126395780601f1061260e57610100808354040283529160200191612639565b820191906000526020600020905b81548152906001019060200180831161261c57829003601f168201915b5050505050905090565b6060600082141561268b576040518060400160405280600181526020017f3000000000000000000000000000000000000000000000000000000000000000815250905061279f565b600082905060005b600082146126bd5780806126a6906143b6565b915050600a826126b69190614c6d565b9150612693565b60008167ffffffffffffffff8111156126d9576126d8613952565b5b6040519080825280601f01601f19166020018201604052801561270b5781602001600182028036833780820191505090505b5090505b60008514612798576001826127249190614b0c565b9150600a856127339190614c9e565b603061273f9190614557565b60f81b81838151811061275557612754614234565b5b60200101907effffffffffffffffffffffffffffffffffffffffffffffffffffffffffffff1916908160001a905350600a856127919190614c6d565b945061270f565b8093505050505b919050565b60007f780e9d63000000000000000000000000000000000000000000000000000000007bffffffffffffffffffffffffffffffffffffffffffffffffffffffff1916827bffffffffffffffffffffffffffffffffffffffffffffffffffffffff19161480612817575061281682612c4d565b5b9050919050565b606060006002836002612831919061446b565b61283b9190614557565b67ffffffffffffffff81111561285457612853613952565b5b6040519080825280601f01601f1916602001820160405280156128865781602001600182028036833780820191505090505b5090507f3000000000000000000000000000000000000000000000000000000000000000816000815181106128be576128bd614234565b5b60200101907effffffffffffffffffffffffffffffffffffffffffffffffffffffffffffff1916908160001a9053507f78000000000000000000000000000000000000000000000000000000000000008160018151811061292257612921614234565b5b60200101907effffffffffffffffffffffffffffffffffffffffffffffffffffffffffffff1916908160001a90535060006001846002612962919061446b565b61296c9190614557565b90505b6001811115612a0c577f3031323334353637383961626364656600000000000000000000000000000000600f8616601081106129ae576129ad614234565b5b1a60f81b8282815181106129c5576129c4614234565b5b60200101907effffffffffffffffffffffffffffffffffffffffffffffffffffffffffffff1916908160001a905350600485901c945080612a0590614ccf565b905061296f565b5060008414612a50576040517f08c379a0000000000000000000000000000000000000000000000000000000008152600401612a4790614d45565b60405180910390fd5b8091505092915050565b612a65838383612d2f565b505050565b612a748383612e43565b612a816000848484612ac5565b612ac0576040517f08c379a0000000000000000000000000000000000000000000000000000000008152600401612ab790614c1e565b60405180910390fd5b505050565b6000612ae68473ffffffffffffffffffffffffffffffffffffffff16613011565b15612c40578373ffffffffffffffffffffffffffffffffffffffff1663150b7a02612b0f611d4b565b8786866040518563ffffffff1660e01b8152600401612b319493929190614dba565b6020604051808303816000875af1925050508015612b6d57506040513d601f19601f82011682018060405250810190612b6a9190614e1b565b60015b612bf0573d8060008114612b9d576040519150601f19603f3d011682016040523d82523d6000602084013e612ba2565b606091505b50600081511415612be8576040517f08c379a0000000000000000000000000000000000000000000000000000000008152600401612bdf90614c1e565b60405180910390fd5b805181602001fd5b63150b7a0260e01b7bffffffffffffffffffffffffffffffffffffffffffffffffffffffff1916817bffffffffffffffffffffffffffffffffffffffffffffffffffffffff191614915050612c45565b600190505b949350505050565b60007f80ac58cd000000000000000000000000000000000000000000000000000000007bffffffffffffffffffffffffffffffffffffffffffffffffffffffff1916827bffffffffffffffffffffffffffffffffffffffffffffffffffffffff19161480612d1857507f5b5e139f000000000000000000000000000000000000000000000000000000007bffffffffffffffffffffffffffffffffffffffffffffffffffffffff1916827bffffffffffffffffffffffffffffffffffffffffffffffffffffffff1916145b80612d285750612d2782613024565b5b9050919050565b612d3a83838361308e565b600073ffffffffffffffffffffffffffffffffffffffff168373ffffffffffffffffffffffffffffffffffffffff161415612d7d57612d7881613093565b612dbc565b8173ffffffffffffffffffffffffffffffffffffffff168373ffffffffffffffffffffffffffffffffffffffff1614612dbb57612dba83826130dc565b5b5b600073ffffffffffffffffffffffffffffffffffffffff168273ffffffffffffffffffffffffffffffffffffffff161415612dff57612dfa81613249565b612e3e565b8273ffffffffffffffffffffffffffffffffffffffff168273ffffffffffffffffffffffffffffffffffffffff1614612e3d57612e3c828261331a565b5b5b505050565b600073ffffffffffffffffffffffffffffffffffffffff168273ffffffffffffffffffffffffffffffffffffffff161415612eb3576040517f08c379a0000000000000000000000000000000000000000000000000000000008152600401612eaa90614e94565b60405180910390fd5b612ebc81611cdf565b15612efc576040517f08c379a0000000000000000000000000000000000000000000000000000000008152600401612ef390614f00565b60405180910390fd5b612f0860008383612a5a565b6001600360008473ffffffffffffffffffffffffffffffffffffffff1673ffffffffffffffffffffffffffffffffffffffff1681526020019081526020016000206000828254612f589190614557565b92505081905550816002600083815260200190815260200160002060006101000a81548173ffffffffffffffffffffffffffffffffffffffff021916908373ffffffffffffffffffffffffffffffffffffffff160217905550808273ffffffffffffffffffffffffffffffffffffffff16600073ffffffffffffffffffffffffffffffffffffffff167fddf252ad1be2c89b69c2b068fc378daa952ba7f163c4a11628f55a4df523b3ef60405160405180910390a45050565b600080823b905060008111915050919050565b60007f01ffc9a7000000000000000000000000000000000000000000000000000000007bffffffffffffffffffffffffffffffffffffffffffffffffffffffff1916827bffffffffffffffffffffffffffffffffffffffffffffffffffffffff1916149050919050565b505050565b6008805490506009600083815260200190815260200160002081905550600881908060018154018082558091505060019003906000526020600020016000909190919091505550565b600060016130e9846110c2565b6130f39190614b0c565b90506000600760008481526020019081526020016000205490508181146131d8576000600660008673ffffffffffffffffffffffffffffffffffffffff1673ffffffffffffffffffffffffffffffffffffffff168152602001908152602001600020600084815260200190815260200160002054905080600660008773ffffffffffffffffffffffffffffffffffffffff1673ffffffffffffffffffffffffffffffffffffffff168152602001908152602001600020600084815260200190815260200160002081905550816007600083815260200190815260200160002081905550505b6007600084815260200190815260200160002060009055600660008573ffffffffffffffffffffffffffffffffffffffff1673ffffffffffffffffffffffffffffffffffffffff16815260200190815260200160002060008381526020019081526020016000206000905550505050565b6000600160088054905061325d9190614b0c565b905060006009600084815260200190815260200160002054905060006008838154811061328d5761328c614234565b5b9060005260206000200154905080600883815481106132af576132ae614234565b5b9060005260206000200181905550816009600083815260200190815260200160002081905550600960008581526020019081526020016000206000905560088054806132fe576132fd614f20565b5b6001900381819060005260206000200160009055905550505050565b6000613325836110c2565b905081600660008573ffffffffffffffffffffffffffffffffffffffff1673ffffffffffffffffffffffffffffffffffffffff168152602001908152602001600020600083815260200190815260200160002081905550806007600084815260200190815260200160002081905550505050565b8280546133a590613d72565b90600052602060002090601f0160209004810192826133c7576000855561340e565b82601f106133e057805160ff191683800117855561340e565b8280016001018555821561340e579182015b8281111561340d5782518255916020019190600101906133f2565b5b50905061341b919061341f565b5090565b5b80821115613438576000816000905550600101613420565b5090565b6000604051905090565b600080fd5b600080fd5b60007fffffffff0000000000000000000000000000000000000000000000000000000082169050919050565b61348581613450565b811461349057600080fd5b50565b6000813590506134a28161347c565b92915050565b6000602082840312156134be576134bd613446565b5b60006134cc84828501613493565b91505092915050565b60008115159050919050565b6134ea816134d5565b82525050565b600060208201905061350560008301846134e1565b92915050565b600081519050919050565b600082825260208201905092915050565b60005b8381101561354557808201518184015260208101905061352a565b83811115613554576000848401525b50505050565b6000601f19601f8301169050919050565b60006135768261350b565b6135808185613516565b9350613590818560208601613527565b6135998161355a565b840191505092915050565b600060208201905081810360008301526135be818461356b565b905092915050565b6000819050919050565b6135d9816135c6565b81146135e457600080fd5b50565b6000813590506135f6816135d0565b92915050565b60006020828403121561361257613611613446565b5b6000613620848285016135e7565b91505092915050565b600073ffffffffffffffffffffffffffffffffffffffff82169050919050565b600061365482613629565b9050919050565b61366481613649565b82525050565b600060208201905061367f600083018461365b565b92915050565b61368e81613649565b811461369957600080fd5b50565b6000813590506136ab81613685565b92915050565b600080604083850312156136c8576136c7613446565b5b60006136d68582860161369c565b92505060206136e7858286016135e7565b9150509250929050565b6136fa816135c6565b82525050565b600060208201905061371560008301846136f1565b92915050565b60008060006060848603121561373457613733613446565b5b60006137428682870161369c565b93505060206137538682870161369c565b9250506040613764868287016135e7565b9150509250925092565b6000819050919050565b6137818161376e565b811461378c57600080fd5b50565b60008135905061379e81613778565b92915050565b6000602082840312156137ba576137b9613446565b5b60006137c88482850161378f565b91505092915050565b6137da8161376e565b82525050565b60006020820190506137f560008301846137d1565b92915050565b6000806040838503121561381257613811613446565b5b60006138208582860161378f565b92505060206138318582860161369c565b9150509250929050565b60006020828403121561385157613850613446565b5b600061385f8482850161369c565b91505092915050565b600081519050919050565b600082825260208201905092915050565b6000819050602082019050919050565b61389d816135c6565b82525050565b60006138af8383613894565b60208301905092915050565b6000602082019050919050565b60006138d382613868565b6138dd8185613873565b93506138e883613884565b8060005b8381101561391957815161390088826138a3565b975061390b836138bb565b9250506001810190506138ec565b5085935050505092915050565b6000602082019050818103600083015261394081846138c8565b905092915050565b600080fd5b600080fd5b7f4e487b7100000000000000000000000000000000000000000000000000000000600052604160045260246000fd5b61398a8261355a565b810181811067ffffffffffffffff821117156139a9576139a8613952565b5b80604052505050565b60006139bc61343c565b90506139c88282613981565b919050565b600067ffffffffffffffff8211156139e8576139e7613952565b5b6139f18261355a565b9050602081019050919050565b82818337600083830152505050565b6000613a20613a1b846139cd565b6139b2565b905082815260208101848484011115613a3c57613a3b61394d565b5b613a478482856139fe565b509392505050565b600082601f830112613a6457613a63613948565b5b8135613a74848260208601613a0d565b91505092915050565b600060208284031215613a9357613a92613446565b5b600082013567ffffffffffffffff811115613ab157613ab061344b565b5b613abd84828501613a4f565b91505092915050565b613acf816134d5565b8114613ada57600080fd5b50565b600081359050613aec81613ac6565b92915050565b60008060408385031215613b0957613b08613446565b5b6000613b178582860161369c565b9250506020613b2885828601613add565b9150509250929050565b600067ffffffffffffffff821115613b4d57613b4c613952565b5b613b568261355a565b9050602081019050919050565b6000613b76613b7184613b32565b6139b2565b905082815260208101848484011115613b9257613b9161394d565b5b613b9d8482856139fe565b509392505050565b600082601f830112613bba57613bb9613948565b5b8135613bca848260208601613b63565b91505092915050565b60008060008060808587031215613bed57613bec613446565b5b6000613bfb8782880161369c565b9450506020613c0c8782880161369c565b9350506040613c1d878288016135e7565b925050606085013567ffffffffffffffff811115613c3e57613c3d61344b565b5b613c4a87828801613ba5565b91505092959194509250565b60008060408385031215613c6d57613c6c613446565b5b6000613c7b8582860161369c565b9250506020613c8c8582860161369c565b9150509250929050565b600080fd5b600080fd5b60008083601f840112613cb657613cb5613948565b5b8235905067ffffffffffffffff811115613cd357613cd2613c96565b5b602083019150836020820283011115613cef57613cee613c9b565b5b9250929050565b60008060208385031215613d0d57613d0c613446565b5b600083013567ffffffffffffffff811115613d2b57613d2a61344b565b5b613d3785828601613ca0565b92509250509250929050565b7f4e487b7100000000000000000000000000000000000000000000000000000000600052602260045260246000fd5b60006002820490506001821680613d8a57607f821691505b60208210811415613d9e57613d9d613d43565b5b50919050565b7f4552433732313a20617070726f76656420717565727920666f72206e6f6e657860008201527f697374656e7420746f6b656e0000000000000000000000000000000000000000602082015250565b6000613e00602c83613516565b9150613e0b82613da4565b604082019050919050565b60006020820190508181036000830152613e2f81613df3565b9050919050565b7f4552433732313a20617070726f76616c20746f2063757272656e74206f776e6560008201527f7200000000000000000000000000000000000000000000000000000000000000602082015250565b6000613e92602183613516565b9150613e9d82613e36565b604082019050919050565b60006020820190508181036000830152613ec181613e85565b9050919050565b7f4552433732313a20617070726f76652063616c6c6572206973206e6f74206f7760008201527f6e6572206e6f7220617070726f76656420666f7220616c6c0000000000000000602082015250565b6000613f24603883613516565b9150613f2f82613ec8565b604082019050919050565b60006020820190508181036000830152613f5381613f17565b9050919050565b7f4e6577206d61782063616e6e6f7420657863656564206578697374696e67207360008201527f7570706c79000000000000000000000000000000000000000000000000000000602082015250565b6000613fb6602583613516565b9150613fc182613f5a565b604082019050919050565b60006020820190508181036000830152613fe581613fa9565b9050919050565b7f4552433732313a207472616e736665722063616c6c6572206973206e6f74206f60008201527f776e6572206e6f7220617070726f766564000000000000000000000000000000602082015250565b6000614048603183613516565b915061405382613fec565b604082019050919050565b600060208201905081810360008301526140778161403b565b9050919050565b7f455243373231456e756d657261626c653a206f776e657220696e646578206f7560008201527f74206f6620626f756e6473000000000000000000000000000000000000000000602082015250565b60006140da602b83613516565b91506140e58261407e565b604082019050919050565b60006020820190508181036000830152614109816140cd565b9050919050565b7f416363657373436f6e74726f6c3a2063616e206f6e6c792072656e6f756e636560008201527f20726f6c657320666f722073656c660000000000000000000000000000000000602082015250565b600061416c602f83613516565b915061417782614110565b604082019050919050565b6000602082019050818103600083015261419b8161415f565b9050919050565b7f455243373231456e756d657261626c653a20676c6f62616c20696e646578206f60008201527f7574206f6620626f756e64730000000000000000000000000000000000000000602082015250565b60006141fe602c83613516565b9150614209826141a2565b604082019050919050565b6000602082019050818103600083015261422d816141f1565b9050919050565b7f4e487b7100000000000000000000000000000000000000000000000000000000600052603260045260246000fd5b7f4552433732313a206f776e657220717565727920666f72206e6f6e657869737460008201527f656e7420746f6b656e0000000000000000000000000000000000000000000000602082015250565b60006142bf602983613516565b91506142ca82614263565b604082019050919050565b600060208201905081810360008301526142ee816142b2565b9050919050565b7f4552433732313a2062616c616e636520717565727920666f7220746865207a6560008201527f726f206164647265737300000000000000000000000000000000000000000000602082015250565b6000614351602a83613516565b915061435c826142f5565b604082019050919050565b6000602082019050818103600083015261438081614344565b9050919050565b7f4e487b7100000000000000000000000000000000000000000000000000000000600052601160045260246000fd5b60006143c1826135c6565b91507fffffffffffffffffffffffffffffffffffffffffffffffffffffffffffffffff8214156143f4576143f3614387565b5b600182019050919050565b7f5075626c6963206d696e7420686173206e6f7420737461727465640000000000600082015250565b6000614435601b83613516565b9150614440826143ff565b602082019050919050565b6000602082019050818103600083015261446481614428565b9050919050565b6000614476826135c6565b9150614481836135c6565b9250817fffffffffffffffffffffffffffffffffffffffffffffffffffffffffffffffff04831182151516156144ba576144b9614387565b5b828202905092915050565b7f5472616e73616374696f6e2076616c756520646f6573206e6f74206d6174636860008201527f20746865206d696e7420636f7374000000000000000000000000000000000000602082015250565b6000614521602e83613516565b915061452c826144c5565b604082019050919050565b6000602082019050818103600083015261455081614514565b9050919050565b6000614562826135c6565b915061456d836135c6565b9250827fffffffffffffffffffffffffffffffffffffffffffffffffffffffffffffffff038211156145a2576145a1614387565b5b828201905092915050565b7f4578636565646564206d696e74696e67206c696d697400000000000000000000600082015250565b60006145e3601683613516565b91506145ee826145ad565b602082019050919050565b60006020820190508181036000830152614612816145d6565b9050919050565b7f4e6f206d6f726520746f6b656e732061726520617661696c61626c6520746f2060008201527f6d696e7400000000000000000000000000000000000000000000000000000000602082015250565b6000614675602483613516565b915061468082614619565b604082019050919050565b600060208201905081810360008301526146a481614668565b9050919050565b7f4552433732314d657461646174613a2055524920717565727920666f72206e6f60008201527f6e6578697374656e7420746f6b656e0000000000000000000000000000000000602082015250565b6000614707602f83613516565b9150614712826146ab565b604082019050919050565b60006020820190508181036000830152614736816146fa565b9050919050565b600081905092915050565b60006147538261350b565b61475d818561473d565b935061476d818560208601613527565b80840191505092915050565b60006147858285614748565b91506147918284614748565b91508190509392505050565b7f2e6a736f6e000000000000000000000000000000000000000000000000000000600082015250565b60006147d360058361473d565b91506147de8261479d565b600582019050919050565b60006147f58285614748565b91506148018284614748565b915061480c826147c6565b91508190509392505050565b7f50726573616c65206d696e7420686173206e6f74207374617274656400000000600082015250565b600061484e601c83613516565b915061485982614818565b602082019050919050565b6000602082019050818103600083015261487d81614841565b9050919050565b7f416363657373436f6e74726f6c3a206163636f756e7420000000000000000000600082015250565b60006148ba60178361473d565b91506148c582614884565b601782019050919050565b7f206973206d697373696e6720726f6c6520000000000000000000000000000000600082015250565b600061490660118361473d565b9150614911826148d0565b601182019050919050565b6000614927826148ad565b91506149338285614748565b915061493e826148f9565b915061494a8284614748565b91508190509392505050565b7f4552433732313a206f70657261746f7220717565727920666f72206e6f6e657860008201527f697374656e7420746f6b656e0000000000000000000000000000000000000000602082015250565b60006149b2602c83613516565b91506149bd82614956565b604082019050919050565b600060208201905081810360008301526149e1816149a5565b9050919050565b7f4552433732313a207472616e73666572206f6620746f6b656e2074686174206960008201527f73206e6f74206f776e0000000000000000000000000000000000000000000000602082015250565b6000614a44602983613516565b9150614a4f826149e8565b604082019050919050565b60006020820190508181036000830152614a7381614a37565b9050919050565b7f4552433732313a207472616e7366657220746f20746865207a65726f2061646460008201527f7265737300000000000000000000000000000000000000000000000000000000602082015250565b6000614ad6602483613516565b9150614ae182614a7a565b604082019050919050565b60006020820190508181036000830152614b0581614ac9565b9050919050565b6000614b17826135c6565b9150614b22836135c6565b925082821015614b3557614b34614387565b5b828203905092915050565b7f4552433732313a20617070726f766520746f2063616c6c657200000000000000600082015250565b6000614b76601983613516565b9150614b8182614b40565b602082019050919050565b60006020820190508181036000830152614ba581614b69565b9050919050565b7f4552433732313a207472616e7366657220746f206e6f6e20455243373231526560008201527f63656976657220696d706c656d656e7465720000000000000000000000000000602082015250565b6000614c08603283613516565b9150614c1382614bac565b604082019050919050565b60006020820190508181036000830152614c3781614bfb565b9050919050565b7f4e487b7100000000000000000000000000000000000000000000000000000000600052601260045260246000fd5b6000614c78826135c6565b9150614c83836135c6565b925082614c9357614c92614c3e565b5b828204905092915050565b6000614ca9826135c6565b9150614cb4836135c6565b925082614cc457614cc3614c3e565b5b828206905092915050565b6000614cda826135c6565b91506000821415614cee57614ced614387565b5b600182039050919050565b7f537472696e67733a20686578206c656e67746820696e73756666696369656e74600082015250565b6000614d2f602083613516565b9150614d3a82614cf9565b602082019050919050565b60006020820190508181036000830152614d5e81614d22565b9050919050565b600081519050919050565b600082825260208201905092915050565b6000614d8c82614d65565b614d968185614d70565b9350614da6818560208601613527565b614daf8161355a565b840191505092915050565b6000608082019050614dcf600083018761365b565b614ddc602083018661365b565b614de960408301856136f1565b8181036060830152614dfb8184614d81565b905095945050505050565b600081519050614e158161347c565b92915050565b600060208284031215614e3157614e30613446565b5b6000614e3f84828501614e06565b91505092915050565b7f4552433732313a206d696e7420746f20746865207a65726f2061646472657373600082015250565b6000614e7e602083613516565b9150614e8982614e48565b602082019050919050565b60006020820190508181036000830152614ead81614e71565b9050919050565b7f4552433732313a20746f6b656e20616c7265616479206d696e74656400000000600082015250565b6000614eea601c83613516565b9150614ef582614eb4565b602082019050919050565b60006020820190508181036000830152614f1981614edd565b9050919050565b7f4e487b7100000000000000000000000000000000000000000000000000000000600052603160045260246000fdfea26469706673582212204502c8bd5636bb64464f803c2b86a138fde73e143a1031e1131ebde9df2ecfef64736f6c634300080a0033",
  "immutableReferences": {},
  "source": "// SPDX-License-Identifier: MIT\npragma solidity ^0.8.4;\n\nimport \"@openzeppelin/contracts/token/ERC721/ERC721.sol\";\nimport \"@openzeppelin/contracts/access/AccessControl.sol\";\nimport \"@openzeppelin/contracts/utils/Counters.sol\";\nimport \"@openzeppelin/contracts/token/ERC721/extensions/ERC721Enumerable.sol\";\nimport \"@openzeppelin/contracts/token/ERC721/extensions/IERC721Metadata.sol\";\nimport \"@openzeppelin/contracts/utils/Strings.sol\";\n\ncontract ColdBehaviorNFT is ERC721, ERC721Enumerable, AccessControl {\n    using Counters for Counters.Counter;\n    using Strings for uint256;\n\n    bool public activeMint = false;\n    bool public activePresale = false;\n    uint256 public mintPerAddress = 3;\n    uint256 public mintCost;\n    uint256 public presaleCost;\n    bytes32 public constant WHITELIST_ROLE = keccak256(\"WHITELIST_ROLE\");\n    bytes32 public constant WITHDRAWAL_ROLE = keccak256(\"WITHDRAWAL_ROLE\");\n    address public teamAddress;\n\n    Counters.Counter private _tokenIdCounter;\n    string public baseUri;\n    uint256 public maxTokens = 5555;\n\n    // Optional mapping for token URIs\n    mapping(uint256 => string) private _tokenURIs;\n\n    constructor(address _teamAddress) ERC721(\"Cold Behavior NFT\", \"CBN\") {\n        _grantRole(DEFAULT_ADMIN_ROLE, msg.sender);\n\n        baseUri = \"https://ipfs.coldbehavior.com/\";\n        teamAddress = _teamAddress;\n\n        mintCost = block.chainid == 1 ? 0.17 ether : 0.0001 ether;\n        presaleCost = block.chainid == 1 ? 0.15 ether : 0.0001 ether;\n\n        _grantRole(WITHDRAWAL_ROLE, teamAddress);\n    }\n\n    function _baseURI() internal view override returns (string memory) {\n        return baseUri;\n    }\n\n    function addWhitelist(address[] calldata members)\n        external\n        onlyRole(DEFAULT_ADMIN_ROLE)\n    {\n        for (uint256 x = 0; x < members.length; x++) {\n            if (!hasRole(WHITELIST_ROLE, members[x])) {\n                _grantRole(WHITELIST_ROLE, members[x]);\n            }\n        }\n    }\n\n    function devClaim(address recipient, uint256 quantity)\n        external\n        onlyRole(DEFAULT_ADMIN_ROLE)\n    {\n        uint256 tokenId = _tokenIdCounter.current();\n        require(tokenId < maxTokens, \"No more tokens are available to mint\");\n\n        for (uint x = 0; x < quantity; x++) {\n            _tokenIdCounter.increment();\n            _safeMint(recipient, tokenId);\n        }\n    }\n\n    function mint(uint256 amount) public payable {\n        require(activeMint, \"Public mint has not started\");\n        require(\n            msg.value == amount * mintCost,\n            \"Transaction value does not match the mint cost\"\n        );\n        uint256 ownedTokens = balanceOf(msg.sender);\n        require(\n            amount + ownedTokens <= mintPerAddress,\n            \"Exceeded minting limit\"\n        );\n\n        for (uint256 i = 0; i < amount; i++) {\n            uint256 tokenId = _tokenIdCounter.current();\n            require(\n                tokenId < maxTokens,\n                \"No more tokens are available to mint\"\n            );\n\n            _tokenIdCounter.increment();\n            _safeMint(msg.sender, tokenId);\n        }\n    }\n\n    function presaleMint(uint256 amount)\n        public\n        payable\n        onlyRole(WHITELIST_ROLE)\n    {\n        require(activePresale, \"Presale mint has not started\");\n        require(\n            msg.value == amount * presaleCost,\n            \"Transaction value does not match the mint cost\"\n        );\n        uint256 ownedTokens = balanceOf(msg.sender);\n        require(\n            amount + ownedTokens <= mintPerAddress,\n            \"Exceeded minting limit\"\n        );\n\n        for (uint256 i = 0; i < amount; i++) {\n            uint256 tokenId = _tokenIdCounter.current();\n            require(\n                tokenId < maxTokens,\n                \"No more tokens are available to mint\"\n            );\n\n            _tokenIdCounter.increment();\n            _safeMint(msg.sender, tokenId);\n        }\n    }\n\n    function nextTokenId() external view returns (uint256) {\n        return _tokenIdCounter.current();\n    }\n\n    function setBaseUri(string memory _baseUri)\n        external\n        onlyRole(DEFAULT_ADMIN_ROLE)\n    {\n        baseUri = _baseUri;\n    }\n\n    function setMaxTokens(uint256 max) external onlyRole(DEFAULT_ADMIN_ROLE) {\n        require(max > totalSupply(), \"New max cannot exceed existing supply\");\n        maxTokens = max;\n    }\n\n    function tokensOfOwner(address _owner)\n        external\n        view\n        returns (uint256[] memory)\n    {\n        uint256 tokenCount = balanceOf(_owner);\n        if (tokenCount == 0) {\n            // Return an empty array\n            return new uint256[](0);\n        } else {\n            uint256[] memory result = new uint256[](tokenCount);\n            uint256 index;\n            for (index = 0; index < tokenCount; index++) {\n                result[index] = tokenOfOwnerByIndex(_owner, index);\n            }\n            return result;\n        }\n    }\n\n    function tokenURI(uint256 tokenId)\n        public\n        view\n        virtual\n        override\n        returns (string memory)\n    {\n        require(\n            _exists(tokenId),\n            \"ERC721Metadata: URI query for nonexistent token\"\n        );\n\n        string memory _tokenURI = _tokenURIs[tokenId];\n        string memory base = _baseURI();\n\n        // If there is no base URI, return the token URI.\n        if (bytes(base).length == 0) {\n            return _tokenURI;\n        }\n        // If both are set, concatenate the baseURI and tokenURI (via abi.encodePacked).\n        if (bytes(_tokenURI).length > 0) {\n            return string(abi.encodePacked(base, _tokenURI));\n        }\n        // If there is a baseURI but no tokenURI, concatenate the tokenID to the baseURI.\n        return string(abi.encodePacked(base, tokenId.toString(), \".json\"));\n    }\n\n    function toggleMint() external onlyRole(DEFAULT_ADMIN_ROLE) {\n        activeMint = !activeMint;\n        mintPerAddress = 5;\n    }\n\n    function togglePresale() external onlyRole(DEFAULT_ADMIN_ROLE) {\n        activePresale = !activePresale;\n        mintPerAddress = 3;\n    }\n\n    function withdraw() external payable onlyRole(WITHDRAWAL_ROLE) {\n        payable(msg.sender).transfer(address(this).balance);\n    }\n\n    // The following functions are overrides required by Solidity.\n    function _beforeTokenTransfer(\n        address from,\n        address to,\n        uint256 tokenId\n    ) internal override(ERC721, ERC721Enumerable) {\n        super._beforeTokenTransfer(from, to, tokenId);\n    }\n\n    function supportsInterface(bytes4 interfaceId)\n        public\n        view\n        override(ERC721, ERC721Enumerable, AccessControl)\n        returns (bool)\n    {\n        return super.supportsInterface(interfaceId);\n    }\n}\n",
  "sourcePath": "/Users/warrenschwartz/Projects/ColdBehaviour/contracts/contracts/ColdBehaviorNft.sol",
  "compiler": {
    "name": "solc",
    "version": "0.8.10+commit.fc410830.Emscripten.clang"
  },
  "schemaVersion": "3.4.3",
  "updatedAt": "2022-03-16T17:37:12.279Z",
  "devdoc": {
    "kind": "dev",
    "methods": {
      "approve(address,uint256)": {
        "details": "See {IERC721-approve}."
      },
      "balanceOf(address)": {
        "details": "See {IERC721-balanceOf}."
      },
      "getApproved(uint256)": {
        "details": "See {IERC721-getApproved}."
      },
      "getRoleAdmin(bytes32)": {
        "details": "Returns the admin role that controls `role`. See {grantRole} and {revokeRole}. To change a role's admin, use {_setRoleAdmin}."
      },
      "grantRole(bytes32,address)": {
        "details": "Grants `role` to `account`. If `account` had not been already granted `role`, emits a {RoleGranted} event. Requirements: - the caller must have ``role``'s admin role."
      },
      "hasRole(bytes32,address)": {
        "details": "Returns `true` if `account` has been granted `role`."
      },
      "isApprovedForAll(address,address)": {
        "details": "See {IERC721-isApprovedForAll}."
      },
      "name()": {
        "details": "See {IERC721Metadata-name}."
      },
      "ownerOf(uint256)": {
        "details": "See {IERC721-ownerOf}."
      },
      "renounceRole(bytes32,address)": {
        "details": "Revokes `role` from the calling account. Roles are often managed via {grantRole} and {revokeRole}: this function's purpose is to provide a mechanism for accounts to lose their privileges if they are compromised (such as when a trusted device is misplaced). If the calling account had been revoked `role`, emits a {RoleRevoked} event. Requirements: - the caller must be `account`."
      },
      "revokeRole(bytes32,address)": {
        "details": "Revokes `role` from `account`. If `account` had been granted `role`, emits a {RoleRevoked} event. Requirements: - the caller must have ``role``'s admin role."
      },
      "safeTransferFrom(address,address,uint256)": {
        "details": "See {IERC721-safeTransferFrom}."
      },
      "safeTransferFrom(address,address,uint256,bytes)": {
        "details": "See {IERC721-safeTransferFrom}."
      },
      "setApprovalForAll(address,bool)": {
        "details": "See {IERC721-setApprovalForAll}."
      },
      "symbol()": {
        "details": "See {IERC721Metadata-symbol}."
      },
      "tokenByIndex(uint256)": {
        "details": "See {IERC721Enumerable-tokenByIndex}."
      },
      "tokenOfOwnerByIndex(address,uint256)": {
        "details": "See {IERC721Enumerable-tokenOfOwnerByIndex}."
      },
      "tokenURI(uint256)": {
        "details": "See {IERC721Metadata-tokenURI}."
      },
      "totalSupply()": {
        "details": "See {IERC721Enumerable-totalSupply}."
      },
      "transferFrom(address,address,uint256)": {
        "details": "See {IERC721-transferFrom}."
      }
    },
    "version": 1
  },
  "userdoc": {
    "kind": "user",
    "methods": {},
    "version": 1
  }
}