{
  "contractName": "ColdBehaviorNft",
  "abi": [
    {
      "inputs": [
        {
          "internalType": "address",
          "name": "_team",
          "type": "address"
        },
        {
          "internalType": "address",
          "name": "_layersContract",
          "type": "address"
        }
      ],
      "stateMutability": "nonpayable",
      "type": "constructor"
    },
    {
      "anonymous": false,
      "inputs": [
        {
          "indexed": true,
          "internalType": "address",
          "name": "owner",
          "type": "address"
        },
        {
          "indexed": true,
          "internalType": "address",
          "name": "approved",
          "type": "address"
        },
        {
          "indexed": true,
          "internalType": "uint256",
          "name": "tokenId",
          "type": "uint256"
        }
      ],
      "name": "Approval",
      "type": "event"
    },
    {
      "anonymous": false,
      "inputs": [
        {
          "indexed": true,
          "internalType": "address",
          "name": "owner",
          "type": "address"
        },
        {
          "indexed": true,
          "internalType": "address",
          "name": "operator",
          "type": "address"
        },
        {
          "indexed": false,
          "internalType": "bool",
          "name": "approved",
          "type": "bool"
        }
      ],
      "name": "ApprovalForAll",
      "type": "event"
    },
    {
      "anonymous": false,
      "inputs": [
        {
          "indexed": true,
          "internalType": "bytes32",
          "name": "role",
          "type": "bytes32"
        },
        {
          "indexed": true,
          "internalType": "bytes32",
          "name": "previousAdminRole",
          "type": "bytes32"
        },
        {
          "indexed": true,
          "internalType": "bytes32",
          "name": "newAdminRole",
          "type": "bytes32"
        }
      ],
      "name": "RoleAdminChanged",
      "type": "event"
    },
    {
      "anonymous": false,
      "inputs": [
        {
          "indexed": true,
          "internalType": "bytes32",
          "name": "role",
          "type": "bytes32"
        },
        {
          "indexed": true,
          "internalType": "address",
          "name": "account",
          "type": "address"
        },
        {
          "indexed": true,
          "internalType": "address",
          "name": "sender",
          "type": "address"
        }
      ],
      "name": "RoleGranted",
      "type": "event"
    },
    {
      "anonymous": false,
      "inputs": [
        {
          "indexed": true,
          "internalType": "bytes32",
          "name": "role",
          "type": "bytes32"
        },
        {
          "indexed": true,
          "internalType": "address",
          "name": "account",
          "type": "address"
        },
        {
          "indexed": true,
          "internalType": "address",
          "name": "sender",
          "type": "address"
        }
      ],
      "name": "RoleRevoked",
      "type": "event"
    },
    {
      "anonymous": false,
      "inputs": [
        {
          "indexed": true,
          "internalType": "address",
          "name": "from",
          "type": "address"
        },
        {
          "indexed": true,
          "internalType": "address",
          "name": "to",
          "type": "address"
        },
        {
          "indexed": true,
          "internalType": "uint256",
          "name": "tokenId",
          "type": "uint256"
        }
      ],
      "name": "Transfer",
      "type": "event"
    },
    {
      "inputs": [],
      "name": "DEFAULT_ADMIN_ROLE",
      "outputs": [
        {
          "internalType": "bytes32",
          "name": "",
          "type": "bytes32"
        }
      ],
      "stateMutability": "view",
      "type": "function"
    },
    {
      "inputs": [],
      "name": "MAX_TOKENS",
      "outputs": [
        {
          "internalType": "uint256",
          "name": "",
          "type": "uint256"
        }
      ],
      "stateMutability": "view",
      "type": "function"
    },
    {
      "inputs": [],
      "name": "MINTER_ROLE",
      "outputs": [
        {
          "internalType": "bytes32",
          "name": "",
          "type": "bytes32"
        }
      ],
      "stateMutability": "view",
      "type": "function"
    },
    {
      "inputs": [],
      "name": "WHITELIST_ROLE",
      "outputs": [
        {
          "internalType": "bytes32",
          "name": "",
          "type": "bytes32"
        }
      ],
      "stateMutability": "view",
      "type": "function"
    },
    {
      "inputs": [
        {
          "internalType": "uint256",
          "name": "",
          "type": "uint256"
        },
        {
          "internalType": "uint256",
          "name": "",
          "type": "uint256"
        },
        {
          "internalType": "uint256",
          "name": "",
          "type": "uint256"
        }
      ],
      "name": "allowedCombinations",
      "outputs": [
        {
          "internalType": "uint8",
          "name": "",
          "type": "uint8"
        }
      ],
      "stateMutability": "view",
      "type": "function"
    },
    {
      "inputs": [
        {
          "internalType": "address",
          "name": "to",
          "type": "address"
        },
        {
          "internalType": "uint256",
          "name": "tokenId",
          "type": "uint256"
        }
      ],
      "name": "approve",
      "outputs": [],
      "stateMutability": "nonpayable",
      "type": "function"
    },
    {
      "inputs": [
        {
          "internalType": "address",
          "name": "owner",
          "type": "address"
        }
      ],
      "name": "balanceOf",
      "outputs": [
        {
          "internalType": "uint256",
          "name": "",
          "type": "uint256"
        }
      ],
      "stateMutability": "view",
      "type": "function"
    },
    {
      "inputs": [
        {
          "internalType": "uint256",
          "name": "tokenId",
          "type": "uint256"
        }
      ],
      "name": "getApproved",
      "outputs": [
        {
          "internalType": "address",
          "name": "",
          "type": "address"
        }
      ],
      "stateMutability": "view",
      "type": "function"
    },
    {
      "inputs": [
        {
          "internalType": "bytes32",
          "name": "role",
          "type": "bytes32"
        }
      ],
      "name": "getRoleAdmin",
      "outputs": [
        {
          "internalType": "bytes32",
          "name": "",
          "type": "bytes32"
        }
      ],
      "stateMutability": "view",
      "type": "function"
    },
    {
      "inputs": [
        {
          "internalType": "bytes32",
          "name": "role",
          "type": "bytes32"
        },
        {
          "internalType": "address",
          "name": "account",
          "type": "address"
        }
      ],
      "name": "grantRole",
      "outputs": [],
      "stateMutability": "nonpayable",
      "type": "function"
    },
    {
      "inputs": [
        {
          "internalType": "bytes32",
          "name": "role",
          "type": "bytes32"
        },
        {
          "internalType": "address",
          "name": "account",
          "type": "address"
        }
      ],
      "name": "hasRole",
      "outputs": [
        {
          "internalType": "bool",
          "name": "",
          "type": "bool"
        }
      ],
      "stateMutability": "view",
      "type": "function"
    },
    {
      "inputs": [
        {
          "internalType": "address",
          "name": "owner",
          "type": "address"
        },
        {
          "internalType": "address",
          "name": "operator",
          "type": "address"
        }
      ],
      "name": "isApprovedForAll",
      "outputs": [
        {
          "internalType": "bool",
          "name": "",
          "type": "bool"
        }
      ],
      "stateMutability": "view",
      "type": "function"
    },
    {
      "inputs": [],
      "name": "mintPrice",
      "outputs": [
        {
          "internalType": "uint256",
          "name": "",
          "type": "uint256"
        }
      ],
      "stateMutability": "view",
      "type": "function"
    },
    {
      "inputs": [],
      "name": "name",
      "outputs": [
        {
          "internalType": "string",
          "name": "",
          "type": "string"
        }
      ],
      "stateMutability": "view",
      "type": "function"
    },
    {
      "inputs": [
        {
          "internalType": "uint256",
          "name": "tokenId",
          "type": "uint256"
        }
      ],
      "name": "ownerOf",
      "outputs": [
        {
          "internalType": "address",
          "name": "",
          "type": "address"
        }
      ],
      "stateMutability": "view",
      "type": "function"
    },
    {
      "inputs": [
        {
          "internalType": "bytes32",
          "name": "role",
          "type": "bytes32"
        },
        {
          "internalType": "address",
          "name": "account",
          "type": "address"
        }
      ],
      "name": "renounceRole",
      "outputs": [],
      "stateMutability": "nonpayable",
      "type": "function"
    },
    {
      "inputs": [
        {
          "internalType": "bytes32",
          "name": "role",
          "type": "bytes32"
        },
        {
          "internalType": "address",
          "name": "account",
          "type": "address"
        }
      ],
      "name": "revokeRole",
      "outputs": [],
      "stateMutability": "nonpayable",
      "type": "function"
    },
    {
      "inputs": [
        {
          "internalType": "address",
          "name": "from",
          "type": "address"
        },
        {
          "internalType": "address",
          "name": "to",
          "type": "address"
        },
        {
          "internalType": "uint256",
          "name": "tokenId",
          "type": "uint256"
        }
      ],
      "name": "safeTransferFrom",
      "outputs": [],
      "stateMutability": "nonpayable",
      "type": "function"
    },
    {
      "inputs": [
        {
          "internalType": "address",
          "name": "from",
          "type": "address"
        },
        {
          "internalType": "address",
          "name": "to",
          "type": "address"
        },
        {
          "internalType": "uint256",
          "name": "tokenId",
          "type": "uint256"
        },
        {
          "internalType": "bytes",
          "name": "_data",
          "type": "bytes"
        }
      ],
      "name": "safeTransferFrom",
      "outputs": [],
      "stateMutability": "nonpayable",
      "type": "function"
    },
    {
      "inputs": [
        {
          "internalType": "address",
          "name": "operator",
          "type": "address"
        },
        {
          "internalType": "bool",
          "name": "approved",
          "type": "bool"
        }
      ],
      "name": "setApprovalForAll",
      "outputs": [],
      "stateMutability": "nonpayable",
      "type": "function"
    },
    {
      "inputs": [],
      "name": "symbol",
      "outputs": [
        {
          "internalType": "string",
          "name": "",
          "type": "string"
        }
      ],
      "stateMutability": "view",
      "type": "function"
    },
    {
      "inputs": [],
      "name": "teamAddress",
      "outputs": [
        {
          "internalType": "address",
          "name": "",
          "type": "address"
        }
      ],
      "stateMutability": "view",
      "type": "function"
    },
    {
      "inputs": [
        {
          "internalType": "uint256",
          "name": "",
          "type": "uint256"
        }
      ],
      "name": "tokenData",
      "outputs": [
        {
          "internalType": "uint8",
          "name": "background",
          "type": "uint8"
        },
        {
          "internalType": "uint8",
          "name": "body",
          "type": "uint8"
        },
        {
          "internalType": "uint8",
          "name": "eyes",
          "type": "uint8"
        },
        {
          "internalType": "uint8",
          "name": "teeth",
          "type": "uint8"
        },
        {
          "internalType": "uint8",
          "name": "garment",
          "type": "uint8"
        },
        {
          "internalType": "uint8",
          "name": "chain",
          "type": "uint8"
        },
        {
          "internalType": "uint8",
          "name": "face",
          "type": "uint8"
        },
        {
          "internalType": "uint8",
          "name": "ear",
          "type": "uint8"
        },
        {
          "internalType": "uint8",
          "name": "head",
          "type": "uint8"
        }
      ],
      "stateMutability": "view",
      "type": "function"
    },
    {
      "inputs": [
        {
          "internalType": "address",
          "name": "from",
          "type": "address"
        },
        {
          "internalType": "address",
          "name": "to",
          "type": "address"
        },
        {
          "internalType": "uint256",
          "name": "tokenId",
          "type": "uint256"
        }
      ],
      "name": "transferFrom",
      "outputs": [],
      "stateMutability": "nonpayable",
      "type": "function"
    },
    {
      "inputs": [
        {
          "internalType": "address[]",
          "name": "_minters",
          "type": "address[]"
        }
      ],
      "name": "addMinter",
      "outputs": [],
      "stateMutability": "nonpayable",
      "type": "function"
    },
    {
      "inputs": [
        {
          "internalType": "uint256",
          "name": "tokenId",
          "type": "uint256"
        }
      ],
      "name": "getTokenData",
      "outputs": [
        {
          "components": [
            {
              "internalType": "uint8",
              "name": "background",
              "type": "uint8"
            },
            {
              "internalType": "uint8",
              "name": "body",
              "type": "uint8"
            },
            {
              "internalType": "uint8",
              "name": "eyes",
              "type": "uint8"
            },
            {
              "internalType": "uint8",
              "name": "teeth",
              "type": "uint8"
            },
            {
              "internalType": "uint8",
              "name": "garment",
              "type": "uint8"
            },
            {
              "internalType": "uint8",
              "name": "chain",
              "type": "uint8"
            },
            {
              "internalType": "uint8",
              "name": "face",
              "type": "uint8"
            },
            {
              "internalType": "uint8",
              "name": "ear",
              "type": "uint8"
            },
            {
              "internalType": "uint8",
              "name": "head",
              "type": "uint8"
            }
          ],
          "internalType": "struct INft.Person",
          "name": "",
          "type": "tuple"
        }
      ],
      "stateMutability": "view",
      "type": "function"
    },
    {
      "inputs": [
        {
          "internalType": "uint8",
          "name": "amount",
          "type": "uint8"
        }
      ],
      "name": "mint",
      "outputs": [],
      "stateMutability": "payable",
      "type": "function"
    },
    {
      "inputs": [],
      "name": "mintToggle",
      "outputs": [],
      "stateMutability": "nonpayable",
      "type": "function"
    },
    {
      "inputs": [
        {
          "internalType": "uint256",
          "name": "tokenId",
          "type": "uint256"
        }
      ],
      "name": "tokenURI",
      "outputs": [
        {
          "internalType": "string",
          "name": "",
          "type": "string"
        }
      ],
      "stateMutability": "view",
      "type": "function"
    },
    {
      "inputs": [
        {
          "internalType": "uint8",
          "name": "layer",
          "type": "uint8"
        },
        {
          "internalType": "uint8",
          "name": "option",
          "type": "uint8"
        },
        {
          "internalType": "uint8[]",
          "name": "allowedPathsToNextLevel",
          "type": "uint8[]"
        }
      ],
      "name": "uploadAllowedPaths",
      "outputs": [],
      "stateMutability": "nonpayable",
      "type": "function"
    },
    {
      "inputs": [
        {
          "internalType": "bytes4",
          "name": "interfaceId",
          "type": "bytes4"
        }
      ],
      "name": "supportsInterface",
      "outputs": [
        {
          "internalType": "bool",
          "name": "",
          "type": "bool"
        }
      ],
      "stateMutability": "view",
      "type": "function"
    }
  ],
  "bytecode": "0x608060405260006009553480156200001657600080fd5b50604051620050963803806200509683398181016040528101906200003c9190620004a4565b6040518060400160405280600681526020017f41727469737400000000000000000000000000000000000000000000000000008152506040518060400160405280600381526020017f43424100000000000000000000000000000000000000000000000000000000008152508160009080519060200190620000c09291906200038a565b508060019080519060200190620000d99291906200038a565b505050620000f16000801b336200022560201b60201c565b620001237f9f2df0fed2c77648de5860a4cc508cd0818c85b8b8a1ab4ceeef8d981c8956a6336200022560201b60201c565b620001557fdc72ed553f2544c34465af23b847953efeb813428162d767f9ba5f4013be6760336200022560201b60201c565b80600860006101000a81548173ffffffffffffffffffffffffffffffffffffffff021916908373ffffffffffffffffffffffffffffffffffffffff160217905550670429d069189e0000600b819055506002600860146101000a81548160ff021916908360ff1602179055506000600a60006101000a81548160ff02191690831515021790555081600c60006101000a81548173ffffffffffffffffffffffffffffffffffffffff021916908373ffffffffffffffffffffffffffffffffffffffff160217905550505062000550565b6200023782826200031760201b60201c565b620003135760016006600084815260200190815260200160002060000160008373ffffffffffffffffffffffffffffffffffffffff1673ffffffffffffffffffffffffffffffffffffffff16815260200190815260200160002060006101000a81548160ff021916908315150217905550620002b86200038260201b60201c565b73ffffffffffffffffffffffffffffffffffffffff168173ffffffffffffffffffffffffffffffffffffffff16837f2f8788117e7eff1d82e926ec794901d17c78024a50270940304540a733656f0d60405160405180910390a45b5050565b60006006600084815260200190815260200160002060000160008373ffffffffffffffffffffffffffffffffffffffff1673ffffffffffffffffffffffffffffffffffffffff16815260200190815260200160002060009054906101000a900460ff16905092915050565b600033905090565b82805462000398906200051a565b90600052602060002090601f016020900481019282620003bc576000855562000408565b82601f10620003d757805160ff191683800117855562000408565b8280016001018555821562000408579182015b8281111562000407578251825591602001919060010190620003ea565b5b5090506200041791906200041b565b5090565b5b80821115620004365760008160009055506001016200041c565b5090565b600080fd5b600073ffffffffffffffffffffffffffffffffffffffff82169050919050565b60006200046c826200043f565b9050919050565b6200047e816200045f565b81146200048a57600080fd5b50565b6000815190506200049e8162000473565b92915050565b60008060408385031215620004be57620004bd6200043a565b5b6000620004ce858286016200048d565b9250506020620004e1858286016200048d565b9150509250929050565b7f4e487b7100000000000000000000000000000000000000000000000000000000600052602260045260246000fd5b600060028204905060018216806200053357607f821691505b602082108114156200054a5762000549620004eb565b5b50919050565b614b3680620005606000396000f3fe6080604052600436106101d85760003560e01c8063785253f111610102578063b7df20fe11610095578063d547741f11610064578063d547741f146106ef578063e985e9c514610718578063f18e33e114610755578063f47c84c51461077e576101d8565b8063b7df20fe14610635578063b88d4fde1461065e578063c87b56dd14610687578063d5391393146106c4576101d8565b8063a217fddf116100d1578063a217fddf1461055f578063a22cb4651461058a578063b09afec1146105b3578063b4b5b48f146105f0576101d8565b8063785253f1146104b55780637a997ab7146104cc57806391d14854146104f757806395d89b4114610534576101d8565b80632f2ff15d1161017a5780636817c76c116101495780636817c76c146103f45780636ecd23061461041f57806370a082311461043b578063742c8be714610478576101d8565b80632f2ff15d1461033c57806336568abe1461036557806342842e0e1461038e5780636352211e146103b7576101d8565b8063095ea7b3116101b6578063095ea7b3146102825780631c75f085146102ab57806323b872dd146102d6578063248a9ca3146102ff576101d8565b806301ffc9a7146101dd57806306fdde031461021a578063081812fc14610245575b600080fd5b3480156101e957600080fd5b5061020460048036038101906101ff9190612e0d565b6107a9565b6040516102119190612e55565b60405180910390f35b34801561022657600080fd5b5061022f6107bb565b60405161023c9190612f09565b60405180910390f35b34801561025157600080fd5b5061026c60048036038101906102679190612f61565b61084d565b6040516102799190612fcf565b60405180910390f35b34801561028e57600080fd5b506102a960048036038101906102a49190613016565b6108d2565b005b3480156102b757600080fd5b506102c06109ea565b6040516102cd9190612fcf565b60405180910390f35b3480156102e257600080fd5b506102fd60048036038101906102f89190613056565b610a10565b005b34801561030b57600080fd5b50610326600480360381019061032191906130df565b610a70565b604051610333919061311b565b60405180910390f35b34801561034857600080fd5b50610363600480360381019061035e9190613136565b610a90565b005b34801561037157600080fd5b5061038c60048036038101906103879190613136565b610ab9565b005b34801561039a57600080fd5b506103b560048036038101906103b09190613056565b610b3c565b005b3480156103c357600080fd5b506103de60048036038101906103d99190612f61565b610b5c565b6040516103eb9190612fcf565b60405180910390f35b34801561040057600080fd5b50610409610c0e565b6040516104169190613185565b60405180910390f35b610439600480360381019061043491906131d9565b610c14565b005b34801561044757600080fd5b50610462600480360381019061045d9190613206565b610ee2565b60405161046f9190613185565b60405180910390f35b34801561048457600080fd5b5061049f600480360381019061049a9190613233565b610f9a565b6040516104ac9190613295565b60405180910390f35b3480156104c157600080fd5b506104ca611002565b005b3480156104d857600080fd5b506104e1611044565b6040516104ee919061311b565b60405180910390f35b34801561050357600080fd5b5061051e60048036038101906105199190613136565b611068565b60405161052b9190612e55565b60405180910390f35b34801561054057600080fd5b506105496110d3565b6040516105569190612f09565b60405180910390f35b34801561056b57600080fd5b50610574611165565b604051610581919061311b565b60405180910390f35b34801561059657600080fd5b506105b160048036038101906105ac91906132dc565b61116c565b005b3480156105bf57600080fd5b506105da60048036038101906105d59190612f61565b611182565b6040516105e791906133e2565b60405180910390f35b3480156105fc57600080fd5b5061061760048036038101906106129190612f61565b6112b5565b60405161062c999897969594939291906133fe565b60405180910390f35b34801561064157600080fd5b5061065c600480360381019061065791906134f0565b611378565b005b34801561066a57600080fd5b5061068560048036038101906106809190613694565b611466565b005b34801561069357600080fd5b506106ae60048036038101906106a99190612f61565b6114c8565b6040516106bb9190612f09565b60405180910390f35b3480156106d057600080fd5b506106d9611572565b6040516106e6919061311b565b60405180910390f35b3480156106fb57600080fd5b5061071660048036038101906107119190613136565b611596565b005b34801561072457600080fd5b5061073f600480360381019061073a9190613717565b6115bf565b60405161074c9190612e55565b60405180910390f35b34801561076157600080fd5b5061077c6004803603810190610777919061381a565b611653565b005b34801561078a57600080fd5b506107936116ed565b6040516107a09190613185565b60405180910390f35b60006107b4826116f3565b9050919050565b6060600080546107ca90613892565b80601f01602080910402602001604051908101604052809291908181526020018280546107f690613892565b80156108435780601f1061081857610100808354040283529160200191610843565b820191906000526020600020905b81548152906001019060200180831161082657829003601f168201915b5050505050905090565b60006108588261176d565b610897576040517f08c379a000000000000000000000000000000000000000000000000000000000815260040161088e90613936565b60405180910390fd5b6004600083815260200190815260200160002060009054906101000a900473ffffffffffffffffffffffffffffffffffffffff169050919050565b60006108dd82610b5c565b90508073ffffffffffffffffffffffffffffffffffffffff168373ffffffffffffffffffffffffffffffffffffffff16141561094e576040517f08c379a0000000000000000000000000000000000000000000000000000000008152600401610945906139c8565b60405180910390fd5b8073ffffffffffffffffffffffffffffffffffffffff1661096d6117d9565b73ffffffffffffffffffffffffffffffffffffffff16148061099c575061099b816109966117d9565b6115bf565b5b6109db576040517f08c379a00000000000000000000000000000000000000000000000000000000081526004016109d290613a5a565b60405180910390fd5b6109e583836117e1565b505050565b600c60009054906101000a900473ffffffffffffffffffffffffffffffffffffffff1681565b610a21610a1b6117d9565b8261189a565b610a60576040517f08c379a0000000000000000000000000000000000000000000000000000000008152600401610a5790613aec565b60405180910390fd5b610a6b838383611978565b505050565b600060066000838152602001908152602001600020600101549050919050565b610a9982610a70565b610aaa81610aa56117d9565b611bd4565b610ab48383611c71565b505050565b610ac16117d9565b73ffffffffffffffffffffffffffffffffffffffff168173ffffffffffffffffffffffffffffffffffffffff1614610b2e576040517f08c379a0000000000000000000000000000000000000000000000000000000008152600401610b2590613b7e565b60405180910390fd5b610b388282611d52565b5050565b610b5783838360405180602001604052806000815250611466565b505050565b6000806002600084815260200190815260200160002060009054906101000a900473ffffffffffffffffffffffffffffffffffffffff169050600073ffffffffffffffffffffffffffffffffffffffff168173ffffffffffffffffffffffffffffffffffffffff161415610c05576040517f08c379a0000000000000000000000000000000000000000000000000000000008152600401610bfc90613c10565b60405180910390fd5b80915050919050565b600b5481565b7f9f2df0fed2c77648de5860a4cc508cd0818c85b8b8a1ab4ceeef8d981c8956a6610c4681610c416117d9565b611bd4565b600a60009054906101000a900460ff16610c95576040517f08c379a0000000000000000000000000000000000000000000000000000000008152600401610c8c90613c7c565b60405180910390fd5b8160ff16600b54610ca69190613ccb565b341015610ce8576040517f08c379a0000000000000000000000000000000000000000000000000000000008152600401610cdf90613d97565b60405180910390fd5b600860149054906101000a900460ff1660ff16610d0433610ee2565b10610d44576040517f08c379a0000000000000000000000000000000000000000000000000000000008152600401610d3b90613e29565b60405180910390fd5b6122b88260ff16600954610d589190613e49565b1115610d99576040517f08c379a0000000000000000000000000000000000000000000000000000000008152600401610d9090613eeb565b60405180910390fd5b6000600c60009054906101000a900473ffffffffffffffffffffffffffffffffffffffff1673ffffffffffffffffffffffffffffffffffffffff168360ff16600b54610de59190613ccb565b604051610df190613f3c565b60006040518083038185875af1925050503d8060008114610e2e576040519150601f19603f3d011682016040523d82523d6000602084013e610e33565b606091505b5050905080610e77576040517f08c379a0000000000000000000000000000000000000000000000000000000008152600401610e6e90613f9d565b60405180910390fd5b60005b8360ff168160ff161015610edc5760096000815480929190610e9b90613fbd565b91905055506000610ead600954611e34565b9050610ebb60095482611e7a565b50610ec833600954612159565b508080610ed490614006565b915050610e7a565b50505050565b60008073ffffffffffffffffffffffffffffffffffffffff168273ffffffffffffffffffffffffffffffffffffffff161415610f53576040517f08c379a0000000000000000000000000000000000000000000000000000000008152600401610f4a906140a2565b60405180910390fd5b600360008373ffffffffffffffffffffffffffffffffffffffff1673ffffffffffffffffffffffffffffffffffffffff168152602001908152602001600020549050919050565b60078381548110610faa57600080fd5b906000526020600020018281548110610fc257600080fd5b906000526020600020018181548110610fda57600080fd5b906000526020600020906020918282040191900692509250509054906101000a900460ff1681565b6000801b611017816110126117d9565b611bd4565b600a60009054906101000a900460ff1615600a60006101000a81548160ff02191690831515021790555050565b7fdc72ed553f2544c34465af23b847953efeb813428162d767f9ba5f4013be676081565b60006006600084815260200190815260200160002060000160008373ffffffffffffffffffffffffffffffffffffffff1673ffffffffffffffffffffffffffffffffffffffff16815260200190815260200160002060009054906101000a900460ff16905092915050565b6060600180546110e290613892565b80601f016020809104026020016040519081016040528092919081815260200182805461110e90613892565b801561115b5780601f106111305761010080835404028352916020019161115b565b820191906000526020600020905b81548152906001019060200180831161113e57829003601f168201915b5050505050905090565b6000801b81565b61117e6111776117d9565b8383612177565b5050565b61118a612d3a565b600d6000838152602001908152602001600020604051806101200160405290816000820160009054906101000a900460ff1660ff1660ff1681526020016000820160019054906101000a900460ff1660ff1660ff1681526020016000820160029054906101000a900460ff1660ff1660ff1681526020016000820160039054906101000a900460ff1660ff1660ff1681526020016000820160049054906101000a900460ff1660ff1660ff1681526020016000820160059054906101000a900460ff1660ff1660ff1681526020016000820160069054906101000a900460ff1660ff1660ff1681526020016000820160079054906101000a900460ff1660ff1660ff1681526020016000820160089054906101000a900460ff1660ff1660ff16815250509050919050565b600d6020528060005260406000206000915090508060000160009054906101000a900460ff16908060000160019054906101000a900460ff16908060000160029054906101000a900460ff16908060000160039054906101000a900460ff16908060000160049054906101000a900460ff16908060000160059054906101000a900460ff16908060000160069054906101000a900460ff16908060000160079054906101000a900460ff16908060000160089054906101000a900460ff16905089565b6000801b61138d816113886117d9565b611bd4565b60005b838390508160ff16101561145e5760078660ff16815481106113b5576113b46140c2565b5b906000526020600020018560ff16815481106113d4576113d36140c2565b5b9060005260206000200184848360ff168181106113f4576113f36140c2565b5b905060200201602081019061140991906131d9565b90806001815401808255809150506001900390600052602060002090602091828204019190069091909190916101000a81548160ff021916908360ff160217905550808061145690614006565b915050611390565b505050505050565b6114776114716117d9565b8361189a565b6114b6576040517f08c379a00000000000000000000000000000000000000000000000000000000081526004016114ad90613aec565b60405180910390fd5b6114c2848484846122e4565b50505050565b6060600860009054906101000a900473ffffffffffffffffffffffffffffffffffffffff1673ffffffffffffffffffffffffffffffffffffffff16638ad91345836040518263ffffffff1660e01b81526004016115259190613185565b600060405180830381865afa158015611542573d6000803e3d6000fd5b505050506040513d6000823e3d601f19601f8201168201806040525081019061156b9190614192565b9050919050565b7f9f2df0fed2c77648de5860a4cc508cd0818c85b8b8a1ab4ceeef8d981c8956a681565b61159f82610a70565b6115b0816115ab6117d9565b611bd4565b6115ba8383611d52565b505050565b6000600560008473ffffffffffffffffffffffffffffffffffffffff1673ffffffffffffffffffffffffffffffffffffffff16815260200190815260200160002060008373ffffffffffffffffffffffffffffffffffffffff1673ffffffffffffffffffffffffffffffffffffffff16815260200190815260200160002060009054906101000a900460ff16905092915050565b7fdc72ed553f2544c34465af23b847953efeb813428162d767f9ba5f4013be6760611685816116806117d9565b611bd4565b60005b82518110156116e8576116d57f9f2df0fed2c77648de5860a4cc508cd0818c85b8b8a1ab4ceeef8d981c8956a68483815181106116c8576116c76140c2565b5b6020026020010151611c71565b80806116e090613fbd565b915050611688565b505050565b6122b881565b60007f7965db0b000000000000000000000000000000000000000000000000000000007bffffffffffffffffffffffffffffffffffffffffffffffffffffffff1916827bffffffffffffffffffffffffffffffffffffffffffffffffffffffff19161480611766575061176582612340565b5b9050919050565b60008073ffffffffffffffffffffffffffffffffffffffff166002600084815260200190815260200160002060009054906101000a900473ffffffffffffffffffffffffffffffffffffffff1673ffffffffffffffffffffffffffffffffffffffff1614159050919050565b600033905090565b816004600083815260200190815260200160002060006101000a81548173ffffffffffffffffffffffffffffffffffffffff021916908373ffffffffffffffffffffffffffffffffffffffff160217905550808273ffffffffffffffffffffffffffffffffffffffff1661185483610b5c565b73ffffffffffffffffffffffffffffffffffffffff167f8c5be1e5ebec7d5bd14f71427d1e84f3dd0314c0f7b2291e5b200ac8c7c3b92560405160405180910390a45050565b60006118a58261176d565b6118e4576040517f08c379a00000000000000000000000000000000000000000000000000000000081526004016118db9061424d565b60405180910390fd5b60006118ef83610b5c565b90508073ffffffffffffffffffffffffffffffffffffffff168473ffffffffffffffffffffffffffffffffffffffff16148061195e57508373ffffffffffffffffffffffffffffffffffffffff166119468461084d565b73ffffffffffffffffffffffffffffffffffffffff16145b8061196f575061196e81856115bf565b5b91505092915050565b8273ffffffffffffffffffffffffffffffffffffffff1661199882610b5c565b73ffffffffffffffffffffffffffffffffffffffff16146119ee576040517f08c379a00000000000000000000000000000000000000000000000000000000081526004016119e5906142df565b60405180910390fd5b600073ffffffffffffffffffffffffffffffffffffffff168273ffffffffffffffffffffffffffffffffffffffff161415611a5e576040517f08c379a0000000000000000000000000000000000000000000000000000000008152600401611a5590614371565b60405180910390fd5b611a69838383612422565b611a746000826117e1565b6001600360008573ffffffffffffffffffffffffffffffffffffffff1673ffffffffffffffffffffffffffffffffffffffff1681526020019081526020016000206000828254611ac49190614391565b925050819055506001600360008473ffffffffffffffffffffffffffffffffffffffff1673ffffffffffffffffffffffffffffffffffffffff1681526020019081526020016000206000828254611b1b9190613e49565b92505081905550816002600083815260200190815260200160002060006101000a81548173ffffffffffffffffffffffffffffffffffffffff021916908373ffffffffffffffffffffffffffffffffffffffff160217905550808273ffffffffffffffffffffffffffffffffffffffff168473ffffffffffffffffffffffffffffffffffffffff167fddf252ad1be2c89b69c2b068fc378daa952ba7f163c4a11628f55a4df523b3ef60405160405180910390a4505050565b611bde8282611068565b611c6d57611c038173ffffffffffffffffffffffffffffffffffffffff166014612427565b611c118360001c6020612427565b604051602001611c22929190614499565b6040516020818303038152906040526040517f08c379a0000000000000000000000000000000000000000000000000000000008152600401611c649190612f09565b60405180910390fd5b5050565b611c7b8282611068565b611d4e5760016006600084815260200190815260200160002060000160008373ffffffffffffffffffffffffffffffffffffffff1673ffffffffffffffffffffffffffffffffffffffff16815260200190815260200160002060006101000a81548160ff021916908315150217905550611cf36117d9565b73ffffffffffffffffffffffffffffffffffffffff168173ffffffffffffffffffffffffffffffffffffffff16837f2f8788117e7eff1d82e926ec794901d17c78024a50270940304540a733656f0d60405160405180910390a45b5050565b611d5c8282611068565b15611e305760006006600084815260200190815260200160002060000160008373ffffffffffffffffffffffffffffffffffffffff1673ffffffffffffffffffffffffffffffffffffffff16815260200190815260200160002060006101000a81548160ff021916908315150217905550611dd56117d9565b73ffffffffffffffffffffffffffffffffffffffff168173ffffffffffffffffffffffffffffffffffffffff16837ff6391f5c32d9c69d2a47ea670b442974b53935d1edc7fd64eb21e047a839171b60405160405180910390a45b5050565b600032600143611e449190614391565b404284604051602001611e5a949392919061455d565b6040516020818303038152906040528051906020012060001c9050919050565b611e82612d3a565b611e8b82612663565b90506000805b84811015611ff057611ea2836127f9565b611fce600d6000848152602001908152602001600020604051806101200160405290816000820160009054906101000a900460ff1660ff1660ff1681526020016000820160019054906101000a900460ff1660ff1660ff1681526020016000820160029054906101000a900460ff1660ff1660ff1681526020016000820160039054906101000a900460ff1660ff1660ff1681526020016000820160049054906101000a900460ff1660ff1660ff1681526020016000820160059054906101000a900460ff1660ff1660ff1681526020016000820160069054906101000a900460ff1660ff1660ff1681526020016000820160079054906101000a900460ff1660ff1660ff1681526020016000820160089054906101000a900460ff1660ff1660ff16815250506127f9565b1415611fdd5760019150611ff0565b8080611fe890613fbd565b915050611e91565b508061213d5781600d600086815260200190815260200160002060008201518160000160006101000a81548160ff021916908360ff16021790555060208201518160000160016101000a81548160ff021916908360ff16021790555060408201518160000160026101000a81548160ff021916908360ff16021790555060608201518160000160036101000a81548160ff021916908360ff16021790555060808201518160000160046101000a81548160ff021916908360ff16021790555060a08201518160000160056101000a81548160ff021916908360ff16021790555060c08201518160000160066101000a81548160ff021916908360ff16021790555060e08201518160000160076101000a81548160ff021916908360ff1602179055506101008201518160000160086101000a81548160ff021916908360ff16021790555090505050612153565b61214f8461214a85611e34565b611e7a565b9150505b92915050565b612173828260405180602001604052806000815250612863565b5050565b8173ffffffffffffffffffffffffffffffffffffffff168373ffffffffffffffffffffffffffffffffffffffff1614156121e6576040517f08c379a00000000000000000000000000000000000000000000000000000000081526004016121dd906145f7565b60405180910390fd5b80600560008573ffffffffffffffffffffffffffffffffffffffff1673ffffffffffffffffffffffffffffffffffffffff16815260200190815260200160002060008473ffffffffffffffffffffffffffffffffffffffff1673ffffffffffffffffffffffffffffffffffffffff16815260200190815260200160002060006101000a81548160ff0219169083151502179055508173ffffffffffffffffffffffffffffffffffffffff168373ffffffffffffffffffffffffffffffffffffffff167f17307eab39ab6107e8899845ad3d59bd9653f200f220920489ca2b5937696c31836040516122d79190612e55565b60405180910390a3505050565b6122ef848484611978565b6122fb848484846128be565b61233a576040517f08c379a000000000000000000000000000000000000000000000000000000000815260040161233190614689565b60405180910390fd5b50505050565b60007f80ac58cd000000000000000000000000000000000000000000000000000000007bffffffffffffffffffffffffffffffffffffffffffffffffffffffff1916827bffffffffffffffffffffffffffffffffffffffffffffffffffffffff1916148061240b57507f5b5e139f000000000000000000000000000000000000000000000000000000007bffffffffffffffffffffffffffffffffffffffffffffffffffffffff1916827bffffffffffffffffffffffffffffffffffffffffffffffffffffffff1916145b8061241b575061241a82612a46565b5b9050919050565b505050565b60606000600283600261243a9190613ccb565b6124449190613e49565b67ffffffffffffffff81111561245d5761245c613569565b5b6040519080825280601f01601f19166020018201604052801561248f5781602001600182028036833780820191505090505b5090507f3000000000000000000000000000000000000000000000000000000000000000816000815181106124c7576124c66140c2565b5b60200101907effffffffffffffffffffffffffffffffffffffffffffffffffffffffffffff1916908160001a9053507f78000000000000000000000000000000000000000000000000000000000000008160018151811061252b5761252a6140c2565b5b60200101907effffffffffffffffffffffffffffffffffffffffffffffffffffffffffffff1916908160001a9053506000600184600261256b9190613ccb565b6125759190613e49565b90505b6001811115612615577f3031323334353637383961626364656600000000000000000000000000000000600f8616601081106125b7576125b66140c2565b5b1a60f81b8282815181106125ce576125cd6140c2565b5b60200101907effffffffffffffffffffffffffffffffffffffffffffffffffffffffffffff1916908160001a905350600485901c94508061260e906146a9565b9050612578565b5060008414612659576040517f08c379a00000000000000000000000000000000000000000000000000000000081526004016126509061471f565b60405180910390fd5b8091505092915050565b61266b612d3a565b601082901c915061268261ffff8316600080612ab0565b816000019060ff16908160ff1681525050601082901c91506126ae61ffff831660018360000151612ab0565b816020019060ff16908160ff1681525050601082901c91506126da61ffff831660028360200151612ab0565b816040019060ff16908160ff1681525050601082901c915061270661ffff831660038360400151612ab0565b816060019060ff16908160ff1681525050601082901c915061273261ffff831660048360600151612ab0565b816080019060ff16908160ff1681525050601082901c915061275e61ffff831660058360800151612ab0565b8160a0019060ff16908160ff1681525050601082901c915061278a61ffff831660068360a00151612ab0565b8160c0019060ff16908160ff1681525050601082901c91506127b661ffff831660078360c00151612ab0565b8160e0019060ff16908160ff1681525050601082901c91506127e261ffff831660088360e00151612ab0565b81610100019060ff16908160ff1681525050919050565b6000816000015182602001518360400151846060015185608001518660a001518760c001518860e0015189610100015160405160200161284199989796959493929190614775565b60405160208183030381529060405261285990614855565b60001c9050919050565b61286d8383612b59565b61287a60008484846128be565b6128b9576040517f08c379a00000000000000000000000000000000000000000000000000000000081526004016128b090614689565b60405180910390fd5b505050565b60006128df8473ffffffffffffffffffffffffffffffffffffffff16612d27565b15612a39578373ffffffffffffffffffffffffffffffffffffffff1663150b7a026129086117d9565b8786866040518563ffffffff1660e01b815260040161292a9493929190614906565b6020604051808303816000875af192505050801561296657506040513d601f19601f820116820180604052508101906129639190614967565b60015b6129e9573d8060008114612996576040519150601f19603f3d011682016040523d82523d6000602084013e61299b565b606091505b506000815114156129e1576040517f08c379a00000000000000000000000000000000000000000000000000000000081526004016129d890614689565b60405180910390fd5b805181602001fd5b63150b7a0260e01b7bffffffffffffffffffffffffffffffffffffffffffffffffffffffff1916817bffffffffffffffffffffffffffffffffffffffffffffffffffffffff191614915050612a3e565b600190505b949350505050565b60007f01ffc9a7000000000000000000000000000000000000000000000000000000007bffffffffffffffffffffffffffffffffffffffffffffffffffffffff1916827bffffffffffffffffffffffffffffffffffffffffffffffffffffffff1916149050919050565b6000808360ff161415612af45760078360ff1681548110612ad457612ad36140c2565b5b906000526020600020018054905084612aed91906149c3565b9050612b52565b6007600184612b0391906149f4565b60ff1681548110612b1757612b166140c2565b5b906000526020600020018260ff1681548110612b3657612b356140c2565b5b906000526020600020018054905084612b4f91906149c3565b90505b9392505050565b600073ffffffffffffffffffffffffffffffffffffffff168273ffffffffffffffffffffffffffffffffffffffff161415612bc9576040517f08c379a0000000000000000000000000000000000000000000000000000000008152600401612bc090614a74565b60405180910390fd5b612bd28161176d565b15612c12576040517f08c379a0000000000000000000000000000000000000000000000000000000008152600401612c0990614ae0565b60405180910390fd5b612c1e60008383612422565b6001600360008473ffffffffffffffffffffffffffffffffffffffff1673ffffffffffffffffffffffffffffffffffffffff1681526020019081526020016000206000828254612c6e9190613e49565b92505081905550816002600083815260200190815260200160002060006101000a81548173ffffffffffffffffffffffffffffffffffffffff021916908373ffffffffffffffffffffffffffffffffffffffff160217905550808273ffffffffffffffffffffffffffffffffffffffff16600073ffffffffffffffffffffffffffffffffffffffff167fddf252ad1be2c89b69c2b068fc378daa952ba7f163c4a11628f55a4df523b3ef60405160405180910390a45050565b600080823b905060008111915050919050565b604051806101200160405280600060ff168152602001600060ff168152602001600060ff168152602001600060ff168152602001600060ff168152602001600060ff168152602001600060ff168152602001600060ff168152602001600060ff1681525090565b6000604051905090565b600080fd5b600080fd5b60007fffffffff0000000000000000000000000000000000000000000000000000000082169050919050565b612dea81612db5565b8114612df557600080fd5b50565b600081359050612e0781612de1565b92915050565b600060208284031215612e2357612e22612dab565b5b6000612e3184828501612df8565b91505092915050565b60008115159050919050565b612e4f81612e3a565b82525050565b6000602082019050612e6a6000830184612e46565b92915050565b600081519050919050565b600082825260208201905092915050565b60005b83811015612eaa578082015181840152602081019050612e8f565b83811115612eb9576000848401525b50505050565b6000601f19601f8301169050919050565b6000612edb82612e70565b612ee58185612e7b565b9350612ef5818560208601612e8c565b612efe81612ebf565b840191505092915050565b60006020820190508181036000830152612f238184612ed0565b905092915050565b6000819050919050565b612f3e81612f2b565b8114612f4957600080fd5b50565b600081359050612f5b81612f35565b92915050565b600060208284031215612f7757612f76612dab565b5b6000612f8584828501612f4c565b91505092915050565b600073ffffffffffffffffffffffffffffffffffffffff82169050919050565b6000612fb982612f8e565b9050919050565b612fc981612fae565b82525050565b6000602082019050612fe46000830184612fc0565b92915050565b612ff381612fae565b8114612ffe57600080fd5b50565b60008135905061301081612fea565b92915050565b6000806040838503121561302d5761302c612dab565b5b600061303b85828601613001565b925050602061304c85828601612f4c565b9150509250929050565b60008060006060848603121561306f5761306e612dab565b5b600061307d86828701613001565b935050602061308e86828701613001565b925050604061309f86828701612f4c565b9150509250925092565b6000819050919050565b6130bc816130a9565b81146130c757600080fd5b50565b6000813590506130d9816130b3565b92915050565b6000602082840312156130f5576130f4612dab565b5b6000613103848285016130ca565b91505092915050565b613115816130a9565b82525050565b6000602082019050613130600083018461310c565b92915050565b6000806040838503121561314d5761314c612dab565b5b600061315b858286016130ca565b925050602061316c85828601613001565b9150509250929050565b61317f81612f2b565b82525050565b600060208201905061319a6000830184613176565b92915050565b600060ff82169050919050565b6131b6816131a0565b81146131c157600080fd5b50565b6000813590506131d3816131ad565b92915050565b6000602082840312156131ef576131ee612dab565b5b60006131fd848285016131c4565b91505092915050565b60006020828403121561321c5761321b612dab565b5b600061322a84828501613001565b91505092915050565b60008060006060848603121561324c5761324b612dab565b5b600061325a86828701612f4c565b935050602061326b86828701612f4c565b925050604061327c86828701612f4c565b9150509250925092565b61328f816131a0565b82525050565b60006020820190506132aa6000830184613286565b92915050565b6132b981612e3a565b81146132c457600080fd5b50565b6000813590506132d6816132b0565b92915050565b600080604083850312156132f3576132f2612dab565b5b600061330185828601613001565b9250506020613312858286016132c7565b9150509250929050565b613325816131a0565b82525050565b61012082016000820151613342600085018261331c565b506020820151613355602085018261331c565b506040820151613368604085018261331c565b50606082015161337b606085018261331c565b50608082015161338e608085018261331c565b5060a08201516133a160a085018261331c565b5060c08201516133b460c085018261331c565b5060e08201516133c760e085018261331c565b506101008201516133dc61010085018261331c565b50505050565b6000610120820190506133f8600083018461332b565b92915050565b600061012082019050613414600083018c613286565b613421602083018b613286565b61342e604083018a613286565b61343b6060830189613286565b6134486080830188613286565b61345560a0830187613286565b61346260c0830186613286565b61346f60e0830185613286565b61347d610100830184613286565b9a9950505050505050505050565b600080fd5b600080fd5b600080fd5b60008083601f8401126134b0576134af61348b565b5b8235905067ffffffffffffffff8111156134cd576134cc613490565b5b6020830191508360208202830111156134e9576134e8613495565b5b9250929050565b6000806000806060858703121561350a57613509612dab565b5b6000613518878288016131c4565b9450506020613529878288016131c4565b935050604085013567ffffffffffffffff81111561354a57613549612db0565b5b6135568782880161349a565b925092505092959194509250565b600080fd5b7f4e487b7100000000000000000000000000000000000000000000000000000000600052604160045260246000fd5b6135a182612ebf565b810181811067ffffffffffffffff821117156135c0576135bf613569565b5b80604052505050565b60006135d3612da1565b90506135df8282613598565b919050565b600067ffffffffffffffff8211156135ff576135fe613569565b5b61360882612ebf565b9050602081019050919050565b82818337600083830152505050565b6000613637613632846135e4565b6135c9565b90508281526020810184848401111561365357613652613564565b5b61365e848285613615565b509392505050565b600082601f83011261367b5761367a61348b565b5b813561368b848260208601613624565b91505092915050565b600080600080608085870312156136ae576136ad612dab565b5b60006136bc87828801613001565b94505060206136cd87828801613001565b93505060406136de87828801612f4c565b925050606085013567ffffffffffffffff8111156136ff576136fe612db0565b5b61370b87828801613666565b91505092959194509250565b6000806040838503121561372e5761372d612dab565b5b600061373c85828601613001565b925050602061374d85828601613001565b9150509250929050565b600067ffffffffffffffff82111561377257613771613569565b5b602082029050602081019050919050565b600061379661379184613757565b6135c9565b905080838252602082019050602084028301858111156137b9576137b8613495565b5b835b818110156137e257806137ce8882613001565b8452602084019350506020810190506137bb565b5050509392505050565b600082601f8301126138015761380061348b565b5b8135613811848260208601613783565b91505092915050565b6000602082840312156138305761382f612dab565b5b600082013567ffffffffffffffff81111561384e5761384d612db0565b5b61385a848285016137ec565b91505092915050565b7f4e487b7100000000000000000000000000000000000000000000000000000000600052602260045260246000fd5b600060028204905060018216806138aa57607f821691505b602082108114156138be576138bd613863565b5b50919050565b7f4552433732313a20617070726f76656420717565727920666f72206e6f6e657860008201527f697374656e7420746f6b656e0000000000000000000000000000000000000000602082015250565b6000613920602c83612e7b565b915061392b826138c4565b604082019050919050565b6000602082019050818103600083015261394f81613913565b9050919050565b7f4552433732313a20617070726f76616c20746f2063757272656e74206f776e6560008201527f7200000000000000000000000000000000000000000000000000000000000000602082015250565b60006139b2602183612e7b565b91506139bd82613956565b604082019050919050565b600060208201905081810360008301526139e1816139a5565b9050919050565b7f4552433732313a20617070726f76652063616c6c6572206973206e6f74206f7760008201527f6e6572206e6f7220617070726f76656420666f7220616c6c0000000000000000602082015250565b6000613a44603883612e7b565b9150613a4f826139e8565b604082019050919050565b60006020820190508181036000830152613a7381613a37565b9050919050565b7f4552433732313a207472616e736665722063616c6c6572206973206e6f74206f60008201527f776e6572206e6f7220617070726f766564000000000000000000000000000000602082015250565b6000613ad6603183612e7b565b9150613ae182613a7a565b604082019050919050565b60006020820190508181036000830152613b0581613ac9565b9050919050565b7f416363657373436f6e74726f6c3a2063616e206f6e6c792072656e6f756e636560008201527f20726f6c657320666f722073656c660000000000000000000000000000000000602082015250565b6000613b68602f83612e7b565b9150613b7382613b0c565b604082019050919050565b60006020820190508181036000830152613b9781613b5b565b9050919050565b7f4552433732313a206f776e657220717565727920666f72206e6f6e657869737460008201527f656e7420746f6b656e0000000000000000000000000000000000000000000000602082015250565b6000613bfa602983612e7b565b9150613c0582613b9e565b604082019050919050565b60006020820190508181036000830152613c2981613bed565b9050919050565b7f4d696e74696e6720686173206e6f742079657420737461727465640000000000600082015250565b6000613c66601b83612e7b565b9150613c7182613c30565b602082019050919050565b60006020820190508181036000830152613c9581613c59565b9050919050565b7f4e487b7100000000000000000000000000000000000000000000000000000000600052601160045260246000fd5b6000613cd682612f2b565b9150613ce183612f2b565b9250817fffffffffffffffffffffffffffffffffffffffffffffffffffffffffffffffff0483118215151615613d1a57613d19613c9c565b5b828202905092915050565b7f54686520616d6f756e742073706563696669656420646f6573206e6f74206d6160008201527f74636820746865206d696e696d756d206d696e74207072696365000000000000602082015250565b6000613d81603a83612e7b565b9150613d8c82613d25565b604082019050919050565b60006020820190508181036000830152613db081613d74565b9050919050565b7f596f75206d6179206e6f74206d696e7420616e79206d6f726520746f6b656e7360008201527f2077697468207468697320616464726573730000000000000000000000000000602082015250565b6000613e13603283612e7b565b9150613e1e82613db7565b604082019050919050565b60006020820190508181036000830152613e4281613e06565b9050919050565b6000613e5482612f2b565b9150613e5f83612f2b565b9250827fffffffffffffffffffffffffffffffffffffffffffffffffffffffffffffffff03821115613e9457613e93613c9c565b5b828201905092915050565b7f416c6c20746f6b656e732068617665206265656e206d696e7465640000000000600082015250565b6000613ed5601b83612e7b565b9150613ee082613e9f565b602082019050919050565b60006020820190508181036000830152613f0481613ec8565b9050919050565b600081905092915050565b50565b6000613f26600083613f0b565b9150613f3182613f16565b600082019050919050565b6000613f4782613f19565b9150819050919050565b7f436f6e747261637420657865637574696f6e204661696c656400000000000000600082015250565b6000613f87601983612e7b565b9150613f9282613f51565b602082019050919050565b60006020820190508181036000830152613fb681613f7a565b9050919050565b6000613fc882612f2b565b91507fffffffffffffffffffffffffffffffffffffffffffffffffffffffffffffffff821415613ffb57613ffa613c9c565b5b600182019050919050565b6000614011826131a0565b915060ff82141561402557614024613c9c565b5b600182019050919050565b7f4552433732313a2062616c616e636520717565727920666f7220746865207a6560008201527f726f206164647265737300000000000000000000000000000000000000000000602082015250565b600061408c602a83612e7b565b915061409782614030565b604082019050919050565b600060208201905081810360008301526140bb8161407f565b9050919050565b7f4e487b7100000000000000000000000000000000000000000000000000000000600052603260045260246000fd5b600067ffffffffffffffff82111561410c5761410b613569565b5b61411582612ebf565b9050602081019050919050565b6000614135614130846140f1565b6135c9565b90508281526020810184848401111561415157614150613564565b5b61415c848285612e8c565b509392505050565b600082601f8301126141795761417861348b565b5b8151614189848260208601614122565b91505092915050565b6000602082840312156141a8576141a7612dab565b5b600082015167ffffffffffffffff8111156141c6576141c5612db0565b5b6141d284828501614164565b91505092915050565b7f4552433732313a206f70657261746f7220717565727920666f72206e6f6e657860008201527f697374656e7420746f6b656e0000000000000000000000000000000000000000602082015250565b6000614237602c83612e7b565b9150614242826141db565b604082019050919050565b600060208201905081810360008301526142668161422a565b9050919050565b7f4552433732313a207472616e73666572206f6620746f6b656e2074686174206960008201527f73206e6f74206f776e0000000000000000000000000000000000000000000000602082015250565b60006142c9602983612e7b565b91506142d48261426d565b604082019050919050565b600060208201905081810360008301526142f8816142bc565b9050919050565b7f4552433732313a207472616e7366657220746f20746865207a65726f2061646460008201527f7265737300000000000000000000000000000000000000000000000000000000602082015250565b600061435b602483612e7b565b9150614366826142ff565b604082019050919050565b6000602082019050818103600083015261438a8161434e565b9050919050565b600061439c82612f2b565b91506143a783612f2b565b9250828210156143ba576143b9613c9c565b5b828203905092915050565b600081905092915050565b7f416363657373436f6e74726f6c3a206163636f756e7420000000000000000000600082015250565b60006144066017836143c5565b9150614411826143d0565b601782019050919050565b600061442782612e70565b61443181856143c5565b9350614441818560208601612e8c565b80840191505092915050565b7f206973206d697373696e6720726f6c6520000000000000000000000000000000600082015250565b60006144836011836143c5565b915061448e8261444d565b601182019050919050565b60006144a4826143f9565b91506144b0828561441c565b91506144bb82614476565b91506144c7828461441c565b91508190509392505050565b60008160601b9050919050565b60006144eb826144d3565b9050919050565b60006144fd826144e0565b9050919050565b61451561451082612fae565b6144f2565b82525050565b6000819050919050565b614536614531826130a9565b61451b565b82525050565b6000819050919050565b61455761455282612f2b565b61453c565b82525050565b60006145698287614504565b6014820191506145798286614525565b6020820191506145898285614546565b6020820191506145998284614546565b60208201915081905095945050505050565b7f4552433732313a20617070726f766520746f2063616c6c657200000000000000600082015250565b60006145e1601983612e7b565b91506145ec826145ab565b602082019050919050565b60006020820190508181036000830152614610816145d4565b9050919050565b7f4552433732313a207472616e7366657220746f206e6f6e20455243373231526560008201527f63656976657220696d706c656d656e7465720000000000000000000000000000602082015250565b6000614673603283612e7b565b915061467e82614617565b604082019050919050565b600060208201905081810360008301526146a281614666565b9050919050565b60006146b482612f2b565b915060008214156146c8576146c7613c9c565b5b600182039050919050565b7f537472696e67733a20686578206c656e67746820696e73756666696369656e74600082015250565b6000614709602083612e7b565b9150614714826146d3565b602082019050919050565b60006020820190508181036000830152614738816146fc565b9050919050565b60008160f81b9050919050565b60006147578261473f565b9050919050565b61476f61476a826131a0565b61474c565b82525050565b6000614781828c61475e565b600182019150614791828b61475e565b6001820191506147a1828a61475e565b6001820191506147b1828961475e565b6001820191506147c1828861475e565b6001820191506147d1828761475e565b6001820191506147e1828661475e565b6001820191506147f1828561475e565b600182019150614801828461475e565b6001820191508190509a9950505050505050505050565b600081519050919050565b6000819050602082019050919050565b600061483f82516130a9565b80915050919050565b600082821b905092915050565b600061486082614818565b8261486a84614823565b905061487581614833565b925060208210156148b5576148b07fffffffffffffffffffffffffffffffffffffffffffffffffffffffffffffffff83602003600802614848565b831692505b5050919050565b600082825260208201905092915050565b60006148d882614818565b6148e281856148bc565b93506148f2818560208601612e8c565b6148fb81612ebf565b840191505092915050565b600060808201905061491b6000830187612fc0565b6149286020830186612fc0565b6149356040830185613176565b818103606083015261494781846148cd565b905095945050505050565b60008151905061496181612de1565b92915050565b60006020828403121561497d5761497c612dab565b5b600061498b84828501614952565b91505092915050565b7f4e487b7100000000000000000000000000000000000000000000000000000000600052601260045260246000fd5b60006149ce826131a0565b91506149d9836131a0565b9250826149e9576149e8614994565b5b828206905092915050565b60006149ff826131a0565b9150614a0a836131a0565b925082821015614a1d57614a1c613c9c565b5b828203905092915050565b7f4552433732313a206d696e7420746f20746865207a65726f2061646472657373600082015250565b6000614a5e602083612e7b565b9150614a6982614a28565b602082019050919050565b60006020820190508181036000830152614a8d81614a51565b9050919050565b7f4552433732313a20746f6b656e20616c7265616479206d696e74656400000000600082015250565b6000614aca601c83612e7b565b9150614ad582614a94565b602082019050919050565b60006020820190508181036000830152614af981614abd565b905091905056fea264697066735822122069553d334ebfc6ea44c2afc7c15557ead134714a6a96ae25350515cc5ab3d3a664736f6c634300080a0033",
  "immutableReferences": {},
  "source": "// SPDX-License-Identifier: MIT\npragma solidity ^0.8.2;\n\nimport \"@openzeppelin/contracts/access/AccessControl.sol\";\nimport \"@openzeppelin/contracts/token/ERC721/ERC721.sol\";\nimport \"./INft.sol\";\nimport \"./ILayers.sol\";\n\ncontract ColdBehaviorNft is INft, ERC721, AccessControl {\n  //Constants\n  uint public constant MAX_TOKENS = 8888;\n  bytes32 public constant MINTER_ROLE = keccak256(\"MINTER_ROLE\");\n  bytes32 public constant WHITELIST_ROLE = keccak256(\"WHITELIST_ROLE\");\n\n  //State Variables\n  uint8[][][] public allowedCombinations;  //uint8[layer][option][path_to_item_indexes_in_next_level]\n  \n  ILayers layersContract;\n  uint8 maxMintPerAddress;\n  uint minted = 0;\n  bool mintingStarted;\n  uint public mintPrice;\n  address public teamAddress;\n\n  //State Mappings\n  mapping (uint256 => INft.Person) public tokenData; // token Id => Person\n  \n  //Events\n\n  //Constructor\n  constructor(address _team, address _layersContract) ERC721(\"Artist\", \"CBA\") {\n    _grantRole(DEFAULT_ADMIN_ROLE, msg.sender);\n    _grantRole(MINTER_ROLE, msg.sender);\n    _grantRole(WHITELIST_ROLE, msg.sender);\n\n    layersContract = ILayers(_layersContract);\n    mintPrice = 0.3 ether;\n    maxMintPerAddress = 2;\n    mintingStarted = false;\n\n    teamAddress = _team;\n  }\n\n  //Functions\n  function addMinter(address[] memory _minters) external onlyRole(WHITELIST_ROLE) {\n    for (uint x = 0; x < _minters.length; x++) {\n      _grantRole(MINTER_ROLE, _minters[x]);\n    }\n  }\n\n  function generate(uint256 tokenId, uint256 rand) internal returns (Person memory t) {\n    t = selectOptions(rand);\n    bool exists = false;\n    for (uint x = 0; x < tokenId; x++) {\n      if (structToHash(tokenData[x]) == structToHash(t)) {\n        exists = true;\n        break;\n      }\n    }\n\n    if (!exists) {\n      tokenData[tokenId] = t;\n      return t;\n    }\n\n    return generate(tokenId, random(rand));\n  }\n\n  function getTokenData(uint256 tokenId) external override view returns (Person memory) {\n    return tokenData[tokenId];\n  }\n\n  function mint(uint8 amount) external payable onlyRole(MINTER_ROLE) {\n    require(mintingStarted, \"Minting has not yet started\");\n    require(msg.value >= (mintPrice * amount), \"The amount specified does not match the minimum mint price\");\n    require(balanceOf(msg.sender) < maxMintPerAddress, \"You may not mint any more tokens with this address\");\n    require(minted + amount <= MAX_TOKENS, \"All tokens have been minted\");\n    \n    (bool success, ) = teamAddress.call{value: (mintPrice * amount)}(\"\");\n    require(success, \"Contract execution Failed\");\n\n    for (uint8 i = 0; i < amount; i++) {\n      minted++;\n      uint rand = random(minted);\n      generate(minted, rand);\n      _safeMint(msg.sender, minted);\n    }\n  }\n\n  function mintToggle() external onlyRole(DEFAULT_ADMIN_ROLE) {\n    mintingStarted = !mintingStarted;\n  }\n\n  function random(uint256 seed) internal view returns (uint256) {\n    return uint256(keccak256(abi.encodePacked(\n    tx.origin,\n    blockhash(block.number - 1),\n    block.timestamp,\n    seed\n    )));\n  }\n\n  function selectOption(uint8 rand, uint8 layer, uint8 previousLevelIndex) internal view returns (uint8 option) {\n    if (layer == 0) {\n      option = uint8(rand) % uint8(allowedCombinations[layer].length);\n    } else {\n      option = uint8(rand) % uint8(allowedCombinations[layer - 1][previousLevelIndex].length);\n    }\n    \n    return option;\n  }\n\n  function selectOptions(uint256 rand) internal view returns (Person memory t) {\n    rand >>= 16;\n    t.background = selectOption(uint8(rand & 0xFFFF), 0, 0);  \n    rand >>= 16;\n    t.body = selectOption(uint8(rand & 0xFFFF), 1, t.background);\n    rand >>= 16;\n    t.eyes = selectOption(uint8(rand & 0xFFFF), 2, t.body);\n    rand >>= 16;\n    t.teeth = selectOption(uint8(rand & 0xFFFF), 3, t.eyes);\n    rand >>= 16;\n    t.garment = selectOption(uint8(rand & 0xFFFF), 4, t.teeth);\n    rand >>= 16;\n    t.chain = selectOption(uint8(rand & 0xFFFF), 5, t.garment);\n    rand >>= 16;\n    t.face = selectOption(uint8(rand & 0xFFFF), 6, t.chain);\n    rand >>= 16;\n    t.ear = selectOption(uint8(rand & 0xFFFF), 7, t.face);\n    rand >>= 16;\n    t.head = selectOption(uint8(rand & 0xFFFF), 8, t.ear);\n  }\n\n  function structToHash(Person memory s) internal pure returns (uint256) {\n    return uint256(bytes32(\n    abi.encodePacked(\n        s.background,\n        s.body,\n        s.eyes,\n        s.teeth,\n        s.garment,\n        s.chain,\n        s.face,\n        s.ear,\n        s.head\n    )));\n  }\n\n  function tokenURI(uint256 tokenId) public override view returns (string memory) {\n    return layersContract.getTokenUri(tokenId);\n  }\n\n  function uploadAllowedPaths(uint8 layer, uint8 option, uint8[] calldata allowedPathsToNextLevel) external onlyRole(DEFAULT_ADMIN_ROLE) {\n    for (uint8 x = 0; x < allowedPathsToNextLevel.length; x++) {\n      allowedCombinations[layer][option].push(allowedPathsToNextLevel[x]);\n    }\n  }\n\n  \n\n  //overrides\n  function supportsInterface(bytes4 interfaceId)\n      public\n      view\n      override(ERC721, AccessControl)\n      returns (bool)\n  {\n      return super.supportsInterface(interfaceId);\n  }\n}\n",
  "sourcePath": "/Users/warrenschwartz/Projects/ColdBehaviour/contracts/contracts/ColdBehaviorNft.sol",
  "compiler": {
    "name": "solc",
    "version": "0.8.10+commit.fc410830.Emscripten.clang"
  },
  "schemaVersion": "3.4.3",
  "updatedAt": "2022-01-31T12:49:46.793Z",
  "devdoc": {
    "kind": "dev",
    "methods": {
      "approve(address,uint256)": {
        "details": "See {IERC721-approve}."
      },
      "balanceOf(address)": {
        "details": "See {IERC721-balanceOf}."
      },
      "getApproved(uint256)": {
        "details": "See {IERC721-getApproved}."
      },
      "getRoleAdmin(bytes32)": {
        "details": "Returns the admin role that controls `role`. See {grantRole} and {revokeRole}. To change a role's admin, use {_setRoleAdmin}."
      },
      "grantRole(bytes32,address)": {
        "details": "Grants `role` to `account`. If `account` had not been already granted `role`, emits a {RoleGranted} event. Requirements: - the caller must have ``role``'s admin role."
      },
      "hasRole(bytes32,address)": {
        "details": "Returns `true` if `account` has been granted `role`."
      },
      "isApprovedForAll(address,address)": {
        "details": "See {IERC721-isApprovedForAll}."
      },
      "name()": {
        "details": "See {IERC721Metadata-name}."
      },
      "ownerOf(uint256)": {
        "details": "See {IERC721-ownerOf}."
      },
      "renounceRole(bytes32,address)": {
        "details": "Revokes `role` from the calling account. Roles are often managed via {grantRole} and {revokeRole}: this function's purpose is to provide a mechanism for accounts to lose their privileges if they are compromised (such as when a trusted device is misplaced). If the calling account had been revoked `role`, emits a {RoleRevoked} event. Requirements: - the caller must be `account`."
      },
      "revokeRole(bytes32,address)": {
        "details": "Revokes `role` from `account`. If `account` had been granted `role`, emits a {RoleRevoked} event. Requirements: - the caller must have ``role``'s admin role."
      },
      "safeTransferFrom(address,address,uint256)": {
        "details": "See {IERC721-safeTransferFrom}."
      },
      "safeTransferFrom(address,address,uint256,bytes)": {
        "details": "See {IERC721-safeTransferFrom}."
      },
      "setApprovalForAll(address,bool)": {
        "details": "See {IERC721-setApprovalForAll}."
      },
      "symbol()": {
        "details": "See {IERC721Metadata-symbol}."
      },
      "tokenURI(uint256)": {
        "details": "See {IERC721Metadata-tokenURI}."
      },
      "transferFrom(address,address,uint256)": {
        "details": "See {IERC721-transferFrom}."
      }
    },
    "version": 1
  },
  "userdoc": {
    "kind": "user",
    "methods": {},
    "version": 1
  }
}