{
  "contractName": "ColdBehaviorNFT",
  "abi": [
    {
      "inputs": [],
      "stateMutability": "nonpayable",
      "type": "constructor"
    },
    {
      "anonymous": false,
      "inputs": [
        {
          "indexed": true,
          "internalType": "address",
          "name": "owner",
          "type": "address"
        },
        {
          "indexed": true,
          "internalType": "address",
          "name": "approved",
          "type": "address"
        },
        {
          "indexed": true,
          "internalType": "uint256",
          "name": "tokenId",
          "type": "uint256"
        }
      ],
      "name": "Approval",
      "type": "event"
    },
    {
      "anonymous": false,
      "inputs": [
        {
          "indexed": true,
          "internalType": "address",
          "name": "owner",
          "type": "address"
        },
        {
          "indexed": true,
          "internalType": "address",
          "name": "operator",
          "type": "address"
        },
        {
          "indexed": false,
          "internalType": "bool",
          "name": "approved",
          "type": "bool"
        }
      ],
      "name": "ApprovalForAll",
      "type": "event"
    },
    {
      "anonymous": false,
      "inputs": [
        {
          "indexed": true,
          "internalType": "bytes32",
          "name": "role",
          "type": "bytes32"
        },
        {
          "indexed": true,
          "internalType": "bytes32",
          "name": "previousAdminRole",
          "type": "bytes32"
        },
        {
          "indexed": true,
          "internalType": "bytes32",
          "name": "newAdminRole",
          "type": "bytes32"
        }
      ],
      "name": "RoleAdminChanged",
      "type": "event"
    },
    {
      "anonymous": false,
      "inputs": [
        {
          "indexed": true,
          "internalType": "bytes32",
          "name": "role",
          "type": "bytes32"
        },
        {
          "indexed": true,
          "internalType": "address",
          "name": "account",
          "type": "address"
        },
        {
          "indexed": true,
          "internalType": "address",
          "name": "sender",
          "type": "address"
        }
      ],
      "name": "RoleGranted",
      "type": "event"
    },
    {
      "anonymous": false,
      "inputs": [
        {
          "indexed": true,
          "internalType": "bytes32",
          "name": "role",
          "type": "bytes32"
        },
        {
          "indexed": true,
          "internalType": "address",
          "name": "account",
          "type": "address"
        },
        {
          "indexed": true,
          "internalType": "address",
          "name": "sender",
          "type": "address"
        }
      ],
      "name": "RoleRevoked",
      "type": "event"
    },
    {
      "anonymous": false,
      "inputs": [
        {
          "indexed": true,
          "internalType": "address",
          "name": "from",
          "type": "address"
        },
        {
          "indexed": true,
          "internalType": "address",
          "name": "to",
          "type": "address"
        },
        {
          "indexed": true,
          "internalType": "uint256",
          "name": "tokenId",
          "type": "uint256"
        }
      ],
      "name": "Transfer",
      "type": "event"
    },
    {
      "inputs": [],
      "name": "DEFAULT_ADMIN_ROLE",
      "outputs": [
        {
          "internalType": "bytes32",
          "name": "",
          "type": "bytes32"
        }
      ],
      "stateMutability": "view",
      "type": "function"
    },
    {
      "inputs": [],
      "name": "MAX_TOKENS",
      "outputs": [
        {
          "internalType": "uint256",
          "name": "",
          "type": "uint256"
        }
      ],
      "stateMutability": "view",
      "type": "function"
    },
    {
      "inputs": [],
      "name": "MINTER_ROLE",
      "outputs": [
        {
          "internalType": "bytes32",
          "name": "",
          "type": "bytes32"
        }
      ],
      "stateMutability": "view",
      "type": "function"
    },
    {
      "inputs": [
        {
          "internalType": "address",
          "name": "to",
          "type": "address"
        },
        {
          "internalType": "uint256",
          "name": "tokenId",
          "type": "uint256"
        }
      ],
      "name": "approve",
      "outputs": [],
      "stateMutability": "nonpayable",
      "type": "function"
    },
    {
      "inputs": [
        {
          "internalType": "address",
          "name": "owner",
          "type": "address"
        }
      ],
      "name": "balanceOf",
      "outputs": [
        {
          "internalType": "uint256",
          "name": "",
          "type": "uint256"
        }
      ],
      "stateMutability": "view",
      "type": "function"
    },
    {
      "inputs": [],
      "name": "baseUri",
      "outputs": [
        {
          "internalType": "string",
          "name": "",
          "type": "string"
        }
      ],
      "stateMutability": "view",
      "type": "function"
    },
    {
      "inputs": [
        {
          "internalType": "uint256",
          "name": "tokenId",
          "type": "uint256"
        }
      ],
      "name": "getApproved",
      "outputs": [
        {
          "internalType": "address",
          "name": "",
          "type": "address"
        }
      ],
      "stateMutability": "view",
      "type": "function"
    },
    {
      "inputs": [
        {
          "internalType": "bytes32",
          "name": "role",
          "type": "bytes32"
        }
      ],
      "name": "getRoleAdmin",
      "outputs": [
        {
          "internalType": "bytes32",
          "name": "",
          "type": "bytes32"
        }
      ],
      "stateMutability": "view",
      "type": "function"
    },
    {
      "inputs": [
        {
          "internalType": "bytes32",
          "name": "role",
          "type": "bytes32"
        },
        {
          "internalType": "address",
          "name": "account",
          "type": "address"
        }
      ],
      "name": "grantRole",
      "outputs": [],
      "stateMutability": "nonpayable",
      "type": "function"
    },
    {
      "inputs": [
        {
          "internalType": "bytes32",
          "name": "role",
          "type": "bytes32"
        },
        {
          "internalType": "address",
          "name": "account",
          "type": "address"
        }
      ],
      "name": "hasRole",
      "outputs": [
        {
          "internalType": "bool",
          "name": "",
          "type": "bool"
        }
      ],
      "stateMutability": "view",
      "type": "function"
    },
    {
      "inputs": [
        {
          "internalType": "address",
          "name": "owner",
          "type": "address"
        },
        {
          "internalType": "address",
          "name": "operator",
          "type": "address"
        }
      ],
      "name": "isApprovedForAll",
      "outputs": [
        {
          "internalType": "bool",
          "name": "",
          "type": "bool"
        }
      ],
      "stateMutability": "view",
      "type": "function"
    },
    {
      "inputs": [],
      "name": "name",
      "outputs": [
        {
          "internalType": "string",
          "name": "",
          "type": "string"
        }
      ],
      "stateMutability": "view",
      "type": "function"
    },
    {
      "inputs": [
        {
          "internalType": "uint256",
          "name": "tokenId",
          "type": "uint256"
        }
      ],
      "name": "ownerOf",
      "outputs": [
        {
          "internalType": "address",
          "name": "",
          "type": "address"
        }
      ],
      "stateMutability": "view",
      "type": "function"
    },
    {
      "inputs": [
        {
          "internalType": "bytes32",
          "name": "role",
          "type": "bytes32"
        },
        {
          "internalType": "address",
          "name": "account",
          "type": "address"
        }
      ],
      "name": "renounceRole",
      "outputs": [],
      "stateMutability": "nonpayable",
      "type": "function"
    },
    {
      "inputs": [
        {
          "internalType": "bytes32",
          "name": "role",
          "type": "bytes32"
        },
        {
          "internalType": "address",
          "name": "account",
          "type": "address"
        }
      ],
      "name": "revokeRole",
      "outputs": [],
      "stateMutability": "nonpayable",
      "type": "function"
    },
    {
      "inputs": [
        {
          "internalType": "address",
          "name": "from",
          "type": "address"
        },
        {
          "internalType": "address",
          "name": "to",
          "type": "address"
        },
        {
          "internalType": "uint256",
          "name": "tokenId",
          "type": "uint256"
        }
      ],
      "name": "safeTransferFrom",
      "outputs": [],
      "stateMutability": "nonpayable",
      "type": "function"
    },
    {
      "inputs": [
        {
          "internalType": "address",
          "name": "from",
          "type": "address"
        },
        {
          "internalType": "address",
          "name": "to",
          "type": "address"
        },
        {
          "internalType": "uint256",
          "name": "tokenId",
          "type": "uint256"
        },
        {
          "internalType": "bytes",
          "name": "_data",
          "type": "bytes"
        }
      ],
      "name": "safeTransferFrom",
      "outputs": [],
      "stateMutability": "nonpayable",
      "type": "function"
    },
    {
      "inputs": [
        {
          "internalType": "address",
          "name": "operator",
          "type": "address"
        },
        {
          "internalType": "bool",
          "name": "approved",
          "type": "bool"
        }
      ],
      "name": "setApprovalForAll",
      "outputs": [],
      "stateMutability": "nonpayable",
      "type": "function"
    },
    {
      "inputs": [],
      "name": "symbol",
      "outputs": [
        {
          "internalType": "string",
          "name": "",
          "type": "string"
        }
      ],
      "stateMutability": "view",
      "type": "function"
    },
    {
      "inputs": [
        {
          "internalType": "uint256",
          "name": "tokenId",
          "type": "uint256"
        }
      ],
      "name": "tokenURI",
      "outputs": [
        {
          "internalType": "string",
          "name": "",
          "type": "string"
        }
      ],
      "stateMutability": "view",
      "type": "function"
    },
    {
      "inputs": [
        {
          "internalType": "address",
          "name": "from",
          "type": "address"
        },
        {
          "internalType": "address",
          "name": "to",
          "type": "address"
        },
        {
          "internalType": "uint256",
          "name": "tokenId",
          "type": "uint256"
        }
      ],
      "name": "transferFrom",
      "outputs": [],
      "stateMutability": "nonpayable",
      "type": "function"
    },
    {
      "inputs": [
        {
          "internalType": "address",
          "name": "to",
          "type": "address"
        }
      ],
      "name": "safeMint",
      "outputs": [],
      "stateMutability": "nonpayable",
      "type": "function"
    },
    {
      "inputs": [
        {
          "internalType": "string",
          "name": "_baseUri",
          "type": "string"
        }
      ],
      "name": "setBaseUri",
      "outputs": [],
      "stateMutability": "nonpayable",
      "type": "function"
    },
    {
      "inputs": [
        {
          "internalType": "bytes4",
          "name": "interfaceId",
          "type": "bytes4"
        }
      ],
      "name": "supportsInterface",
      "outputs": [
        {
          "internalType": "bool",
          "name": "",
          "type": "bool"
        }
      ],
      "stateMutability": "view",
      "type": "function"
    }
  ],
  "bytecode": "0x60806040523480156200001157600080fd5b506040518060400160405280601181526020017f436f6c64204265686176696f72204e46540000000000000000000000000000008152506040518060400160405280600381526020017f43424e0000000000000000000000000000000000000000000000000000000000815250816000908051906020019062000096929190620002b2565b508060019080519060200190620000af929190620002b2565b505050620000c76000801b336200014d60201b60201c565b620000f97f9f2df0fed2c77648de5860a4cc508cd0818c85b8b8a1ab4ceeef8d981c8956a6336200014d60201b60201c565b6040518060400160405280601e81526020017f68747470733a2f2f697066732e636f6c646265686176696f722e636f6d2f00008152506008908051906020019062000146929190620002b2565b50620003c7565b6200015f82826200023f60201b60201c565b6200023b5760016006600084815260200190815260200160002060000160008373ffffffffffffffffffffffffffffffffffffffff1673ffffffffffffffffffffffffffffffffffffffff16815260200190815260200160002060006101000a81548160ff021916908315150217905550620001e0620002aa60201b60201c565b73ffffffffffffffffffffffffffffffffffffffff168173ffffffffffffffffffffffffffffffffffffffff16837f2f8788117e7eff1d82e926ec794901d17c78024a50270940304540a733656f0d60405160405180910390a45b5050565b60006006600084815260200190815260200160002060000160008373ffffffffffffffffffffffffffffffffffffffff1673ffffffffffffffffffffffffffffffffffffffff16815260200190815260200160002060009054906101000a900460ff16905092915050565b600033905090565b828054620002c09062000391565b90600052602060002090601f016020900481019282620002e4576000855562000330565b82601f10620002ff57805160ff191683800117855562000330565b8280016001018555821562000330579182015b828111156200032f57825182559160200191906001019062000312565b5b5090506200033f919062000343565b5090565b5b808211156200035e57600081600090555060010162000344565b5090565b7f4e487b7100000000000000000000000000000000000000000000000000000000600052602260045260246000fd5b60006002820490506001821680620003aa57607f821691505b60208210811415620003c157620003c062000362565b5b50919050565b6136be80620003d76000396000f3fe608060405234801561001057600080fd5b50600436106101585760003560e01c806391d14854116100c3578063b88d4fde1161007c578063b88d4fde146103d5578063c87b56dd146103f1578063d539139314610421578063d547741f1461043f578063e985e9c51461045b578063f47c84c51461048b57610158565b806391d148541461031357806395d89b41146103435780639abc832014610361578063a0bcfc7f1461037f578063a217fddf1461039b578063a22cb465146103b957610158565b80632f2ff15d116101155780632f2ff15d1461024357806336568abe1461025f57806340d097c31461027b57806342842e0e146102975780636352211e146102b357806370a08231146102e357610158565b806301ffc9a71461015d57806306fdde031461018d578063081812fc146101ab578063095ea7b3146101db57806323b872dd146101f7578063248a9ca314610213575b600080fd5b610177600480360381019061017291906121a4565b6104a9565b60405161018491906121ec565b60405180910390f35b6101956104bb565b6040516101a291906122a0565b60405180910390f35b6101c560048036038101906101c091906122f8565b61054d565b6040516101d29190612366565b60405180910390f35b6101f560048036038101906101f091906123ad565b6105d2565b005b610211600480360381019061020c91906123ed565b6106ea565b005b61022d60048036038101906102289190612476565b61074a565b60405161023a91906124b2565b60405180910390f35b61025d600480360381019061025891906124cd565b61076a565b005b610279600480360381019061027491906124cd565b610793565b005b6102956004803603810190610290919061250d565b610816565b005b6102b160048036038101906102ac91906123ed565b6108b3565b005b6102cd60048036038101906102c891906122f8565b6108d3565b6040516102da9190612366565b60405180910390f35b6102fd60048036038101906102f8919061250d565b610985565b60405161030a9190612549565b60405180910390f35b61032d600480360381019061032891906124cd565b610a3d565b60405161033a91906121ec565b60405180910390f35b61034b610aa8565b60405161035891906122a0565b60405180910390f35b610369610b3a565b60405161037691906122a0565b60405180910390f35b61039960048036038101906103949190612699565b610bc8565b005b6103a3610bf8565b6040516103b091906124b2565b60405180910390f35b6103d360048036038101906103ce919061270e565b610bff565b005b6103ef60048036038101906103ea91906127ef565b610c15565b005b61040b600480360381019061040691906122f8565b610c77565b60405161041891906122a0565b60405180910390f35b610429610d1e565b60405161043691906124b2565b60405180910390f35b610459600480360381019061045491906124cd565b610d42565b005b61047560048036038101906104709190612872565b610d6b565b60405161048291906121ec565b60405180910390f35b610493610dff565b6040516104a09190612549565b60405180910390f35b60006104b482610e05565b9050919050565b6060600080546104ca906128e1565b80601f01602080910402602001604051908101604052809291908181526020018280546104f6906128e1565b80156105435780601f1061051857610100808354040283529160200191610543565b820191906000526020600020905b81548152906001019060200180831161052657829003601f168201915b5050505050905090565b600061055882610e7f565b610597576040517f08c379a000000000000000000000000000000000000000000000000000000000815260040161058e90612985565b60405180910390fd5b6004600083815260200190815260200160002060009054906101000a900473ffffffffffffffffffffffffffffffffffffffff169050919050565b60006105dd826108d3565b90508073ffffffffffffffffffffffffffffffffffffffff168373ffffffffffffffffffffffffffffffffffffffff16141561064e576040517f08c379a000000000000000000000000000000000000000000000000000000000815260040161064590612a17565b60405180910390fd5b8073ffffffffffffffffffffffffffffffffffffffff1661066d610eeb565b73ffffffffffffffffffffffffffffffffffffffff16148061069c575061069b81610696610eeb565b610d6b565b5b6106db576040517f08c379a00000000000000000000000000000000000000000000000000000000081526004016106d290612aa9565b60405180910390fd5b6106e58383610ef3565b505050565b6106fb6106f5610eeb565b82610fac565b61073a576040517f08c379a000000000000000000000000000000000000000000000000000000000815260040161073190612b3b565b60405180910390fd5b61074583838361108a565b505050565b600060066000838152602001908152602001600020600101549050919050565b6107738261074a565b6107848161077f610eeb565b6112e6565b61078e8383611383565b505050565b61079b610eeb565b73ffffffffffffffffffffffffffffffffffffffff168173ffffffffffffffffffffffffffffffffffffffff1614610808576040517f08c379a00000000000000000000000000000000000000000000000000000000081526004016107ff90612bcd565b60405180910390fd5b6108128282611464565b5050565b7f9f2df0fed2c77648de5860a4cc508cd0818c85b8b8a1ab4ceeef8d981c8956a661084881610843610eeb565b6112e6565b60006108546007611546565b90506122b8811061089a576040517f08c379a000000000000000000000000000000000000000000000000000000000815260040161089190612c5f565b60405180910390fd5b6108a46007611554565b6108ae838261156a565b505050565b6108ce83838360405180602001604052806000815250610c15565b505050565b6000806002600084815260200190815260200160002060009054906101000a900473ffffffffffffffffffffffffffffffffffffffff169050600073ffffffffffffffffffffffffffffffffffffffff168173ffffffffffffffffffffffffffffffffffffffff16141561097c576040517f08c379a000000000000000000000000000000000000000000000000000000000815260040161097390612cf1565b60405180910390fd5b80915050919050565b60008073ffffffffffffffffffffffffffffffffffffffff168273ffffffffffffffffffffffffffffffffffffffff1614156109f6576040517f08c379a00000000000000000000000000000000000000000000000000000000081526004016109ed90612d83565b60405180910390fd5b600360008373ffffffffffffffffffffffffffffffffffffffff1673ffffffffffffffffffffffffffffffffffffffff168152602001908152602001600020549050919050565b60006006600084815260200190815260200160002060000160008373ffffffffffffffffffffffffffffffffffffffff1673ffffffffffffffffffffffffffffffffffffffff16815260200190815260200160002060009054906101000a900460ff16905092915050565b606060018054610ab7906128e1565b80601f0160208091040260200160405190810160405280929190818152602001828054610ae3906128e1565b8015610b305780601f10610b0557610100808354040283529160200191610b30565b820191906000526020600020905b815481529060010190602001808311610b1357829003601f168201915b5050505050905090565b60088054610b47906128e1565b80601f0160208091040260200160405190810160405280929190818152602001828054610b73906128e1565b8015610bc05780601f10610b9557610100808354040283529160200191610bc0565b820191906000526020600020905b815481529060010190602001808311610ba357829003601f168201915b505050505081565b6000801b610bdd81610bd8610eeb565b6112e6565b8160089080519060200190610bf3929190612095565b505050565b6000801b81565b610c11610c0a610eeb565b8383611588565b5050565b610c26610c20610eeb565b83610fac565b610c65576040517f08c379a0000000000000000000000000000000000000000000000000000000008152600401610c5c90612b3b565b60405180910390fd5b610c71848484846116f5565b50505050565b6060610c8282610e7f565b610cc1576040517f08c379a0000000000000000000000000000000000000000000000000000000008152600401610cb890612e15565b60405180910390fd5b6000610ccb611751565b90506000815111610ceb5760405180602001604052806000815250610d16565b80610cf5846117e3565b604051602001610d06929190612e71565b6040516020818303038152906040525b915050919050565b7f9f2df0fed2c77648de5860a4cc508cd0818c85b8b8a1ab4ceeef8d981c8956a681565b610d4b8261074a565b610d5c81610d57610eeb565b6112e6565b610d668383611464565b505050565b6000600560008473ffffffffffffffffffffffffffffffffffffffff1673ffffffffffffffffffffffffffffffffffffffff16815260200190815260200160002060008373ffffffffffffffffffffffffffffffffffffffff1673ffffffffffffffffffffffffffffffffffffffff16815260200190815260200160002060009054906101000a900460ff16905092915050565b6122b881565b60007f7965db0b000000000000000000000000000000000000000000000000000000007bffffffffffffffffffffffffffffffffffffffffffffffffffffffff1916827bffffffffffffffffffffffffffffffffffffffffffffffffffffffff19161480610e785750610e7782611944565b5b9050919050565b60008073ffffffffffffffffffffffffffffffffffffffff166002600084815260200190815260200160002060009054906101000a900473ffffffffffffffffffffffffffffffffffffffff1673ffffffffffffffffffffffffffffffffffffffff1614159050919050565b600033905090565b816004600083815260200190815260200160002060006101000a81548173ffffffffffffffffffffffffffffffffffffffff021916908373ffffffffffffffffffffffffffffffffffffffff160217905550808273ffffffffffffffffffffffffffffffffffffffff16610f66836108d3565b73ffffffffffffffffffffffffffffffffffffffff167f8c5be1e5ebec7d5bd14f71427d1e84f3dd0314c0f7b2291e5b200ac8c7c3b92560405160405180910390a45050565b6000610fb782610e7f565b610ff6576040517f08c379a0000000000000000000000000000000000000000000000000000000008152600401610fed90612f07565b60405180910390fd5b6000611001836108d3565b90508073ffffffffffffffffffffffffffffffffffffffff168473ffffffffffffffffffffffffffffffffffffffff16148061107057508373ffffffffffffffffffffffffffffffffffffffff166110588461054d565b73ffffffffffffffffffffffffffffffffffffffff16145b8061108157506110808185610d6b565b5b91505092915050565b8273ffffffffffffffffffffffffffffffffffffffff166110aa826108d3565b73ffffffffffffffffffffffffffffffffffffffff1614611100576040517f08c379a00000000000000000000000000000000000000000000000000000000081526004016110f790612f99565b60405180910390fd5b600073ffffffffffffffffffffffffffffffffffffffff168273ffffffffffffffffffffffffffffffffffffffff161415611170576040517f08c379a00000000000000000000000000000000000000000000000000000000081526004016111679061302b565b60405180910390fd5b61117b838383611a26565b611186600082610ef3565b6001600360008573ffffffffffffffffffffffffffffffffffffffff1673ffffffffffffffffffffffffffffffffffffffff16815260200190815260200160002060008282546111d6919061307a565b925050819055506001600360008473ffffffffffffffffffffffffffffffffffffffff1673ffffffffffffffffffffffffffffffffffffffff168152602001908152602001600020600082825461122d91906130ae565b92505081905550816002600083815260200190815260200160002060006101000a81548173ffffffffffffffffffffffffffffffffffffffff021916908373ffffffffffffffffffffffffffffffffffffffff160217905550808273ffffffffffffffffffffffffffffffffffffffff168473ffffffffffffffffffffffffffffffffffffffff167fddf252ad1be2c89b69c2b068fc378daa952ba7f163c4a11628f55a4df523b3ef60405160405180910390a4505050565b6112f08282610a3d565b61137f576113158173ffffffffffffffffffffffffffffffffffffffff166014611a2b565b6113238360001c6020611a2b565b60405160200161133492919061319c565b6040516020818303038152906040526040517f08c379a000000000000000000000000000000000000000000000000000000000815260040161137691906122a0565b60405180910390fd5b5050565b61138d8282610a3d565b6114605760016006600084815260200190815260200160002060000160008373ffffffffffffffffffffffffffffffffffffffff1673ffffffffffffffffffffffffffffffffffffffff16815260200190815260200160002060006101000a81548160ff021916908315150217905550611405610eeb565b73ffffffffffffffffffffffffffffffffffffffff168173ffffffffffffffffffffffffffffffffffffffff16837f2f8788117e7eff1d82e926ec794901d17c78024a50270940304540a733656f0d60405160405180910390a45b5050565b61146e8282610a3d565b156115425760006006600084815260200190815260200160002060000160008373ffffffffffffffffffffffffffffffffffffffff1673ffffffffffffffffffffffffffffffffffffffff16815260200190815260200160002060006101000a81548160ff0219169083151502179055506114e7610eeb565b73ffffffffffffffffffffffffffffffffffffffff168173ffffffffffffffffffffffffffffffffffffffff16837ff6391f5c32d9c69d2a47ea670b442974b53935d1edc7fd64eb21e047a839171b60405160405180910390a45b5050565b600081600001549050919050565b6001816000016000828254019250508190555050565b611584828260405180602001604052806000815250611c67565b5050565b8173ffffffffffffffffffffffffffffffffffffffff168373ffffffffffffffffffffffffffffffffffffffff1614156115f7576040517f08c379a00000000000000000000000000000000000000000000000000000000081526004016115ee90613222565b60405180910390fd5b80600560008573ffffffffffffffffffffffffffffffffffffffff1673ffffffffffffffffffffffffffffffffffffffff16815260200190815260200160002060008473ffffffffffffffffffffffffffffffffffffffff1673ffffffffffffffffffffffffffffffffffffffff16815260200190815260200160002060006101000a81548160ff0219169083151502179055508173ffffffffffffffffffffffffffffffffffffffff168373ffffffffffffffffffffffffffffffffffffffff167f17307eab39ab6107e8899845ad3d59bd9653f200f220920489ca2b5937696c31836040516116e891906121ec565b60405180910390a3505050565b61170084848461108a565b61170c84848484611cc2565b61174b576040517f08c379a0000000000000000000000000000000000000000000000000000000008152600401611742906132b4565b60405180910390fd5b50505050565b606060088054611760906128e1565b80601f016020809104026020016040519081016040528092919081815260200182805461178c906128e1565b80156117d95780601f106117ae576101008083540402835291602001916117d9565b820191906000526020600020905b8154815290600101906020018083116117bc57829003601f168201915b5050505050905090565b6060600082141561182b576040518060400160405280600181526020017f3000000000000000000000000000000000000000000000000000000000000000815250905061193f565b600082905060005b6000821461185d578080611846906132d4565b915050600a82611856919061334c565b9150611833565b60008167ffffffffffffffff8111156118795761187861256e565b5b6040519080825280601f01601f1916602001820160405280156118ab5781602001600182028036833780820191505090505b5090505b60008514611938576001826118c4919061307a565b9150600a856118d3919061337d565b60306118df91906130ae565b60f81b8183815181106118f5576118f46133ae565b5b60200101907effffffffffffffffffffffffffffffffffffffffffffffffffffffffffffff1916908160001a905350600a85611931919061334c565b94506118af565b8093505050505b919050565b60007f80ac58cd000000000000000000000000000000000000000000000000000000007bffffffffffffffffffffffffffffffffffffffffffffffffffffffff1916827bffffffffffffffffffffffffffffffffffffffffffffffffffffffff19161480611a0f57507f5b5e139f000000000000000000000000000000000000000000000000000000007bffffffffffffffffffffffffffffffffffffffffffffffffffffffff1916827bffffffffffffffffffffffffffffffffffffffffffffffffffffffff1916145b80611a1f5750611a1e82611e4a565b5b9050919050565b505050565b606060006002836002611a3e91906133dd565b611a4891906130ae565b67ffffffffffffffff811115611a6157611a6061256e565b5b6040519080825280601f01601f191660200182016040528015611a935781602001600182028036833780820191505090505b5090507f300000000000000000000000000000000000000000000000000000000000000081600081518110611acb57611aca6133ae565b5b60200101907effffffffffffffffffffffffffffffffffffffffffffffffffffffffffffff1916908160001a9053507f780000000000000000000000000000000000000000000000000000000000000081600181518110611b2f57611b2e6133ae565b5b60200101907effffffffffffffffffffffffffffffffffffffffffffffffffffffffffffff1916908160001a90535060006001846002611b6f91906133dd565b611b7991906130ae565b90505b6001811115611c19577f3031323334353637383961626364656600000000000000000000000000000000600f861660108110611bbb57611bba6133ae565b5b1a60f81b828281518110611bd257611bd16133ae565b5b60200101907effffffffffffffffffffffffffffffffffffffffffffffffffffffffffffff1916908160001a905350600485901c945080611c1290613437565b9050611b7c565b5060008414611c5d576040517f08c379a0000000000000000000000000000000000000000000000000000000008152600401611c54906134ad565b60405180910390fd5b8091505092915050565b611c718383611eb4565b611c7e6000848484611cc2565b611cbd576040517f08c379a0000000000000000000000000000000000000000000000000000000008152600401611cb4906132b4565b60405180910390fd5b505050565b6000611ce38473ffffffffffffffffffffffffffffffffffffffff16612082565b15611e3d578373ffffffffffffffffffffffffffffffffffffffff1663150b7a02611d0c610eeb565b8786866040518563ffffffff1660e01b8152600401611d2e9493929190613522565b6020604051808303816000875af1925050508015611d6a57506040513d601f19601f82011682018060405250810190611d679190613583565b60015b611ded573d8060008114611d9a576040519150601f19603f3d011682016040523d82523d6000602084013e611d9f565b606091505b50600081511415611de5576040517f08c379a0000000000000000000000000000000000000000000000000000000008152600401611ddc906132b4565b60405180910390fd5b805181602001fd5b63150b7a0260e01b7bffffffffffffffffffffffffffffffffffffffffffffffffffffffff1916817bffffffffffffffffffffffffffffffffffffffffffffffffffffffff191614915050611e42565b600190505b949350505050565b60007f01ffc9a7000000000000000000000000000000000000000000000000000000007bffffffffffffffffffffffffffffffffffffffffffffffffffffffff1916827bffffffffffffffffffffffffffffffffffffffffffffffffffffffff1916149050919050565b600073ffffffffffffffffffffffffffffffffffffffff168273ffffffffffffffffffffffffffffffffffffffff161415611f24576040517f08c379a0000000000000000000000000000000000000000000000000000000008152600401611f1b906135fc565b60405180910390fd5b611f2d81610e7f565b15611f6d576040517f08c379a0000000000000000000000000000000000000000000000000000000008152600401611f6490613668565b60405180910390fd5b611f7960008383611a26565b6001600360008473ffffffffffffffffffffffffffffffffffffffff1673ffffffffffffffffffffffffffffffffffffffff1681526020019081526020016000206000828254611fc991906130ae565b92505081905550816002600083815260200190815260200160002060006101000a81548173ffffffffffffffffffffffffffffffffffffffff021916908373ffffffffffffffffffffffffffffffffffffffff160217905550808273ffffffffffffffffffffffffffffffffffffffff16600073ffffffffffffffffffffffffffffffffffffffff167fddf252ad1be2c89b69c2b068fc378daa952ba7f163c4a11628f55a4df523b3ef60405160405180910390a45050565b600080823b905060008111915050919050565b8280546120a1906128e1565b90600052602060002090601f0160209004810192826120c3576000855561210a565b82601f106120dc57805160ff191683800117855561210a565b8280016001018555821561210a579182015b828111156121095782518255916020019190600101906120ee565b5b509050612117919061211b565b5090565b5b8082111561213457600081600090555060010161211c565b5090565b6000604051905090565b600080fd5b600080fd5b60007fffffffff0000000000000000000000000000000000000000000000000000000082169050919050565b6121818161214c565b811461218c57600080fd5b50565b60008135905061219e81612178565b92915050565b6000602082840312156121ba576121b9612142565b5b60006121c88482850161218f565b91505092915050565b60008115159050919050565b6121e6816121d1565b82525050565b600060208201905061220160008301846121dd565b92915050565b600081519050919050565b600082825260208201905092915050565b60005b83811015612241578082015181840152602081019050612226565b83811115612250576000848401525b50505050565b6000601f19601f8301169050919050565b600061227282612207565b61227c8185612212565b935061228c818560208601612223565b61229581612256565b840191505092915050565b600060208201905081810360008301526122ba8184612267565b905092915050565b6000819050919050565b6122d5816122c2565b81146122e057600080fd5b50565b6000813590506122f2816122cc565b92915050565b60006020828403121561230e5761230d612142565b5b600061231c848285016122e3565b91505092915050565b600073ffffffffffffffffffffffffffffffffffffffff82169050919050565b600061235082612325565b9050919050565b61236081612345565b82525050565b600060208201905061237b6000830184612357565b92915050565b61238a81612345565b811461239557600080fd5b50565b6000813590506123a781612381565b92915050565b600080604083850312156123c4576123c3612142565b5b60006123d285828601612398565b92505060206123e3858286016122e3565b9150509250929050565b60008060006060848603121561240657612405612142565b5b600061241486828701612398565b935050602061242586828701612398565b9250506040612436868287016122e3565b9150509250925092565b6000819050919050565b61245381612440565b811461245e57600080fd5b50565b6000813590506124708161244a565b92915050565b60006020828403121561248c5761248b612142565b5b600061249a84828501612461565b91505092915050565b6124ac81612440565b82525050565b60006020820190506124c760008301846124a3565b92915050565b600080604083850312156124e4576124e3612142565b5b60006124f285828601612461565b925050602061250385828601612398565b9150509250929050565b60006020828403121561252357612522612142565b5b600061253184828501612398565b91505092915050565b612543816122c2565b82525050565b600060208201905061255e600083018461253a565b92915050565b600080fd5b600080fd5b7f4e487b7100000000000000000000000000000000000000000000000000000000600052604160045260246000fd5b6125a682612256565b810181811067ffffffffffffffff821117156125c5576125c461256e565b5b80604052505050565b60006125d8612138565b90506125e4828261259d565b919050565b600067ffffffffffffffff8211156126045761260361256e565b5b61260d82612256565b9050602081019050919050565b82818337600083830152505050565b600061263c612637846125e9565b6125ce565b90508281526020810184848401111561265857612657612569565b5b61266384828561261a565b509392505050565b600082601f8301126126805761267f612564565b5b8135612690848260208601612629565b91505092915050565b6000602082840312156126af576126ae612142565b5b600082013567ffffffffffffffff8111156126cd576126cc612147565b5b6126d98482850161266b565b91505092915050565b6126eb816121d1565b81146126f657600080fd5b50565b600081359050612708816126e2565b92915050565b6000806040838503121561272557612724612142565b5b600061273385828601612398565b9250506020612744858286016126f9565b9150509250929050565b600067ffffffffffffffff8211156127695761276861256e565b5b61277282612256565b9050602081019050919050565b600061279261278d8461274e565b6125ce565b9050828152602081018484840111156127ae576127ad612569565b5b6127b984828561261a565b509392505050565b600082601f8301126127d6576127d5612564565b5b81356127e684826020860161277f565b91505092915050565b6000806000806080858703121561280957612808612142565b5b600061281787828801612398565b945050602061282887828801612398565b9350506040612839878288016122e3565b925050606085013567ffffffffffffffff81111561285a57612859612147565b5b612866878288016127c1565b91505092959194509250565b6000806040838503121561288957612888612142565b5b600061289785828601612398565b92505060206128a885828601612398565b9150509250929050565b7f4e487b7100000000000000000000000000000000000000000000000000000000600052602260045260246000fd5b600060028204905060018216806128f957607f821691505b6020821081141561290d5761290c6128b2565b5b50919050565b7f4552433732313a20617070726f76656420717565727920666f72206e6f6e657860008201527f697374656e7420746f6b656e0000000000000000000000000000000000000000602082015250565b600061296f602c83612212565b915061297a82612913565b604082019050919050565b6000602082019050818103600083015261299e81612962565b9050919050565b7f4552433732313a20617070726f76616c20746f2063757272656e74206f776e6560008201527f7200000000000000000000000000000000000000000000000000000000000000602082015250565b6000612a01602183612212565b9150612a0c826129a5565b604082019050919050565b60006020820190508181036000830152612a30816129f4565b9050919050565b7f4552433732313a20617070726f76652063616c6c6572206973206e6f74206f7760008201527f6e6572206e6f7220617070726f76656420666f7220616c6c0000000000000000602082015250565b6000612a93603883612212565b9150612a9e82612a37565b604082019050919050565b60006020820190508181036000830152612ac281612a86565b9050919050565b7f4552433732313a207472616e736665722063616c6c6572206973206e6f74206f60008201527f776e6572206e6f7220617070726f766564000000000000000000000000000000602082015250565b6000612b25603183612212565b9150612b3082612ac9565b604082019050919050565b60006020820190508181036000830152612b5481612b18565b9050919050565b7f416363657373436f6e74726f6c3a2063616e206f6e6c792072656e6f756e636560008201527f20726f6c657320666f722073656c660000000000000000000000000000000000602082015250565b6000612bb7602f83612212565b9150612bc282612b5b565b604082019050919050565b60006020820190508181036000830152612be681612baa565b9050919050565b7f4e6f206d6f726520746f6b656e732061726520617661696c61626c6520746f2060008201527f6d696e7400000000000000000000000000000000000000000000000000000000602082015250565b6000612c49602483612212565b9150612c5482612bed565b604082019050919050565b60006020820190508181036000830152612c7881612c3c565b9050919050565b7f4552433732313a206f776e657220717565727920666f72206e6f6e657869737460008201527f656e7420746f6b656e0000000000000000000000000000000000000000000000602082015250565b6000612cdb602983612212565b9150612ce682612c7f565b604082019050919050565b60006020820190508181036000830152612d0a81612cce565b9050919050565b7f4552433732313a2062616c616e636520717565727920666f7220746865207a6560008201527f726f206164647265737300000000000000000000000000000000000000000000602082015250565b6000612d6d602a83612212565b9150612d7882612d11565b604082019050919050565b60006020820190508181036000830152612d9c81612d60565b9050919050565b7f4552433732314d657461646174613a2055524920717565727920666f72206e6f60008201527f6e6578697374656e7420746f6b656e0000000000000000000000000000000000602082015250565b6000612dff602f83612212565b9150612e0a82612da3565b604082019050919050565b60006020820190508181036000830152612e2e81612df2565b9050919050565b600081905092915050565b6000612e4b82612207565b612e558185612e35565b9350612e65818560208601612223565b80840191505092915050565b6000612e7d8285612e40565b9150612e898284612e40565b91508190509392505050565b7f4552433732313a206f70657261746f7220717565727920666f72206e6f6e657860008201527f697374656e7420746f6b656e0000000000000000000000000000000000000000602082015250565b6000612ef1602c83612212565b9150612efc82612e95565b604082019050919050565b60006020820190508181036000830152612f2081612ee4565b9050919050565b7f4552433732313a207472616e73666572206f6620746f6b656e2074686174206960008201527f73206e6f74206f776e0000000000000000000000000000000000000000000000602082015250565b6000612f83602983612212565b9150612f8e82612f27565b604082019050919050565b60006020820190508181036000830152612fb281612f76565b9050919050565b7f4552433732313a207472616e7366657220746f20746865207a65726f2061646460008201527f7265737300000000000000000000000000000000000000000000000000000000602082015250565b6000613015602483612212565b915061302082612fb9565b604082019050919050565b6000602082019050818103600083015261304481613008565b9050919050565b7f4e487b7100000000000000000000000000000000000000000000000000000000600052601160045260246000fd5b6000613085826122c2565b9150613090836122c2565b9250828210156130a3576130a261304b565b5b828203905092915050565b60006130b9826122c2565b91506130c4836122c2565b9250827fffffffffffffffffffffffffffffffffffffffffffffffffffffffffffffffff038211156130f9576130f861304b565b5b828201905092915050565b7f416363657373436f6e74726f6c3a206163636f756e7420000000000000000000600082015250565b600061313a601783612e35565b915061314582613104565b601782019050919050565b7f206973206d697373696e6720726f6c6520000000000000000000000000000000600082015250565b6000613186601183612e35565b915061319182613150565b601182019050919050565b60006131a78261312d565b91506131b38285612e40565b91506131be82613179565b91506131ca8284612e40565b91508190509392505050565b7f4552433732313a20617070726f766520746f2063616c6c657200000000000000600082015250565b600061320c601983612212565b9150613217826131d6565b602082019050919050565b6000602082019050818103600083015261323b816131ff565b9050919050565b7f4552433732313a207472616e7366657220746f206e6f6e20455243373231526560008201527f63656976657220696d706c656d656e7465720000000000000000000000000000602082015250565b600061329e603283612212565b91506132a982613242565b604082019050919050565b600060208201905081810360008301526132cd81613291565b9050919050565b60006132df826122c2565b91507fffffffffffffffffffffffffffffffffffffffffffffffffffffffffffffffff8214156133125761331161304b565b5b600182019050919050565b7f4e487b7100000000000000000000000000000000000000000000000000000000600052601260045260246000fd5b6000613357826122c2565b9150613362836122c2565b9250826133725761337161331d565b5b828204905092915050565b6000613388826122c2565b9150613393836122c2565b9250826133a3576133a261331d565b5b828206905092915050565b7f4e487b7100000000000000000000000000000000000000000000000000000000600052603260045260246000fd5b60006133e8826122c2565b91506133f3836122c2565b9250817fffffffffffffffffffffffffffffffffffffffffffffffffffffffffffffffff048311821515161561342c5761342b61304b565b5b828202905092915050565b6000613442826122c2565b915060008214156134565761345561304b565b5b600182039050919050565b7f537472696e67733a20686578206c656e67746820696e73756666696369656e74600082015250565b6000613497602083612212565b91506134a282613461565b602082019050919050565b600060208201905081810360008301526134c68161348a565b9050919050565b600081519050919050565b600082825260208201905092915050565b60006134f4826134cd565b6134fe81856134d8565b935061350e818560208601612223565b61351781612256565b840191505092915050565b60006080820190506135376000830187612357565b6135446020830186612357565b613551604083018561253a565b818103606083015261356381846134e9565b905095945050505050565b60008151905061357d81612178565b92915050565b60006020828403121561359957613598612142565b5b60006135a78482850161356e565b91505092915050565b7f4552433732313a206d696e7420746f20746865207a65726f2061646472657373600082015250565b60006135e6602083612212565b91506135f1826135b0565b602082019050919050565b60006020820190508181036000830152613615816135d9565b9050919050565b7f4552433732313a20746f6b656e20616c7265616479206d696e74656400000000600082015250565b6000613652601c83612212565b915061365d8261361c565b602082019050919050565b6000602082019050818103600083015261368181613645565b905091905056fea2646970667358221220cf515d0d63a61caf2a43ea2b59eec654608fe6497b672548d03cd8fca57d9fab64736f6c634300080a0033",
  "immutableReferences": {},
  "source": "// SPDX-License-Identifier: MIT\npragma solidity ^0.8.4;\n\nimport \"@openzeppelin/contracts/token/ERC721/ERC721.sol\";\nimport \"@openzeppelin/contracts/access/AccessControl.sol\";\nimport \"@openzeppelin/contracts/utils/Counters.sol\";\n\ncontract ColdBehaviorNFT is ERC721, AccessControl {\n    using Counters for Counters.Counter;\n\n    uint public constant MAX_TOKENS = 8888;\n    bytes32 public constant MINTER_ROLE = keccak256(\"MINTER_ROLE\");\n    Counters.Counter private _tokenIdCounter;\n    string public baseUri;\n\n    constructor() ERC721(\"Cold Behavior NFT\", \"CBN\") {\n        _grantRole(DEFAULT_ADMIN_ROLE, msg.sender);\n        _grantRole(MINTER_ROLE, msg.sender);\n\n        baseUri = \"https://ipfs.coldbehavior.com/\";\n    }\n\n    function _baseURI() internal view override returns (string memory) {\n        return baseUri;\n    }\n\n    function safeMint(address to) public onlyRole(MINTER_ROLE) {\n        uint256 tokenId = _tokenIdCounter.current();\n        require(tokenId < MAX_TOKENS, \"No more tokens are available to mint\");\n\n        _tokenIdCounter.increment();\n        _safeMint(to, tokenId);\n    }\n\n    function setBaseUri(string memory _baseUri) external onlyRole(DEFAULT_ADMIN_ROLE) {\n      baseUri = _baseUri;\n    }\n\n    // The following functions are overrides required by Solidity.\n\n    function supportsInterface(bytes4 interfaceId)\n        public\n        view\n        override(ERC721, AccessControl)\n        returns (bool)\n    {\n        return super.supportsInterface(interfaceId);\n    }\n}",
  "sourcePath": "/Users/warrenschwartz/Projects/ColdBehaviour/contracts/contracts/ColdBehaviorNft.sol",
  "compiler": {
    "name": "solc",
    "version": "0.8.10+commit.fc410830.Emscripten.clang"
  },
  "schemaVersion": "3.4.3",
  "updatedAt": "2022-02-23T13:49:13.130Z",
  "devdoc": {
    "kind": "dev",
    "methods": {
      "approve(address,uint256)": {
        "details": "See {IERC721-approve}."
      },
      "balanceOf(address)": {
        "details": "See {IERC721-balanceOf}."
      },
      "getApproved(uint256)": {
        "details": "See {IERC721-getApproved}."
      },
      "getRoleAdmin(bytes32)": {
        "details": "Returns the admin role that controls `role`. See {grantRole} and {revokeRole}. To change a role's admin, use {_setRoleAdmin}."
      },
      "grantRole(bytes32,address)": {
        "details": "Grants `role` to `account`. If `account` had not been already granted `role`, emits a {RoleGranted} event. Requirements: - the caller must have ``role``'s admin role."
      },
      "hasRole(bytes32,address)": {
        "details": "Returns `true` if `account` has been granted `role`."
      },
      "isApprovedForAll(address,address)": {
        "details": "See {IERC721-isApprovedForAll}."
      },
      "name()": {
        "details": "See {IERC721Metadata-name}."
      },
      "ownerOf(uint256)": {
        "details": "See {IERC721-ownerOf}."
      },
      "renounceRole(bytes32,address)": {
        "details": "Revokes `role` from the calling account. Roles are often managed via {grantRole} and {revokeRole}: this function's purpose is to provide a mechanism for accounts to lose their privileges if they are compromised (such as when a trusted device is misplaced). If the calling account had been revoked `role`, emits a {RoleRevoked} event. Requirements: - the caller must be `account`."
      },
      "revokeRole(bytes32,address)": {
        "details": "Revokes `role` from `account`. If `account` had been granted `role`, emits a {RoleRevoked} event. Requirements: - the caller must have ``role``'s admin role."
      },
      "safeTransferFrom(address,address,uint256)": {
        "details": "See {IERC721-safeTransferFrom}."
      },
      "safeTransferFrom(address,address,uint256,bytes)": {
        "details": "See {IERC721-safeTransferFrom}."
      },
      "setApprovalForAll(address,bool)": {
        "details": "See {IERC721-setApprovalForAll}."
      },
      "symbol()": {
        "details": "See {IERC721Metadata-symbol}."
      },
      "tokenURI(uint256)": {
        "details": "See {IERC721Metadata-tokenURI}."
      },
      "transferFrom(address,address,uint256)": {
        "details": "See {IERC721-transferFrom}."
      }
    },
    "version": 1
  },
  "userdoc": {
    "kind": "user",
    "methods": {},
    "version": 1
  }
}