{
  "contractName": "ColdBehaviorNft",
  "abi": [
    {
      "inputs": [
        {
          "internalType": "address",
          "name": "_team",
          "type": "address"
        },
        {
          "internalType": "address",
          "name": "_layersContract",
          "type": "address"
        }
      ],
      "stateMutability": "nonpayable",
      "type": "constructor"
    },
    {
      "anonymous": false,
      "inputs": [
        {
          "indexed": true,
          "internalType": "address",
          "name": "owner",
          "type": "address"
        },
        {
          "indexed": true,
          "internalType": "address",
          "name": "approved",
          "type": "address"
        },
        {
          "indexed": true,
          "internalType": "uint256",
          "name": "tokenId",
          "type": "uint256"
        }
      ],
      "name": "Approval",
      "type": "event"
    },
    {
      "anonymous": false,
      "inputs": [
        {
          "indexed": true,
          "internalType": "address",
          "name": "owner",
          "type": "address"
        },
        {
          "indexed": true,
          "internalType": "address",
          "name": "operator",
          "type": "address"
        },
        {
          "indexed": false,
          "internalType": "bool",
          "name": "approved",
          "type": "bool"
        }
      ],
      "name": "ApprovalForAll",
      "type": "event"
    },
    {
      "anonymous": false,
      "inputs": [
        {
          "indexed": true,
          "internalType": "bytes32",
          "name": "role",
          "type": "bytes32"
        },
        {
          "indexed": true,
          "internalType": "bytes32",
          "name": "previousAdminRole",
          "type": "bytes32"
        },
        {
          "indexed": true,
          "internalType": "bytes32",
          "name": "newAdminRole",
          "type": "bytes32"
        }
      ],
      "name": "RoleAdminChanged",
      "type": "event"
    },
    {
      "anonymous": false,
      "inputs": [
        {
          "indexed": true,
          "internalType": "bytes32",
          "name": "role",
          "type": "bytes32"
        },
        {
          "indexed": true,
          "internalType": "address",
          "name": "account",
          "type": "address"
        },
        {
          "indexed": true,
          "internalType": "address",
          "name": "sender",
          "type": "address"
        }
      ],
      "name": "RoleGranted",
      "type": "event"
    },
    {
      "anonymous": false,
      "inputs": [
        {
          "indexed": true,
          "internalType": "bytes32",
          "name": "role",
          "type": "bytes32"
        },
        {
          "indexed": true,
          "internalType": "address",
          "name": "account",
          "type": "address"
        },
        {
          "indexed": true,
          "internalType": "address",
          "name": "sender",
          "type": "address"
        }
      ],
      "name": "RoleRevoked",
      "type": "event"
    },
    {
      "anonymous": false,
      "inputs": [
        {
          "indexed": true,
          "internalType": "address",
          "name": "from",
          "type": "address"
        },
        {
          "indexed": true,
          "internalType": "address",
          "name": "to",
          "type": "address"
        },
        {
          "indexed": true,
          "internalType": "uint256",
          "name": "tokenId",
          "type": "uint256"
        }
      ],
      "name": "Transfer",
      "type": "event"
    },
    {
      "inputs": [],
      "name": "DEFAULT_ADMIN_ROLE",
      "outputs": [
        {
          "internalType": "bytes32",
          "name": "",
          "type": "bytes32"
        }
      ],
      "stateMutability": "view",
      "type": "function"
    },
    {
      "inputs": [],
      "name": "MAX_TOKENS",
      "outputs": [
        {
          "internalType": "uint256",
          "name": "",
          "type": "uint256"
        }
      ],
      "stateMutability": "view",
      "type": "function"
    },
    {
      "inputs": [],
      "name": "MINTER_ROLE",
      "outputs": [
        {
          "internalType": "bytes32",
          "name": "",
          "type": "bytes32"
        }
      ],
      "stateMutability": "view",
      "type": "function"
    },
    {
      "inputs": [],
      "name": "WHITELIST_ROLE",
      "outputs": [
        {
          "internalType": "bytes32",
          "name": "",
          "type": "bytes32"
        }
      ],
      "stateMutability": "view",
      "type": "function"
    },
    {
      "inputs": [
        {
          "internalType": "address",
          "name": "to",
          "type": "address"
        },
        {
          "internalType": "uint256",
          "name": "tokenId",
          "type": "uint256"
        }
      ],
      "name": "approve",
      "outputs": [],
      "stateMutability": "nonpayable",
      "type": "function"
    },
    {
      "inputs": [
        {
          "internalType": "address",
          "name": "owner",
          "type": "address"
        }
      ],
      "name": "balanceOf",
      "outputs": [
        {
          "internalType": "uint256",
          "name": "",
          "type": "uint256"
        }
      ],
      "stateMutability": "view",
      "type": "function"
    },
    {
      "inputs": [],
      "name": "combinationCount",
      "outputs": [
        {
          "internalType": "uint256",
          "name": "",
          "type": "uint256"
        }
      ],
      "stateMutability": "view",
      "type": "function"
    },
    {
      "inputs": [
        {
          "internalType": "uint256",
          "name": "",
          "type": "uint256"
        },
        {
          "internalType": "uint256",
          "name": "",
          "type": "uint256"
        }
      ],
      "name": "combinations",
      "outputs": [
        {
          "internalType": "uint256",
          "name": "",
          "type": "uint256"
        }
      ],
      "stateMutability": "view",
      "type": "function"
    },
    {
      "inputs": [
        {
          "internalType": "uint256",
          "name": "",
          "type": "uint256"
        }
      ],
      "name": "comboToToken",
      "outputs": [
        {
          "internalType": "uint256",
          "name": "",
          "type": "uint256"
        }
      ],
      "stateMutability": "view",
      "type": "function"
    },
    {
      "inputs": [
        {
          "internalType": "uint256",
          "name": "tokenId",
          "type": "uint256"
        }
      ],
      "name": "getApproved",
      "outputs": [
        {
          "internalType": "address",
          "name": "",
          "type": "address"
        }
      ],
      "stateMutability": "view",
      "type": "function"
    },
    {
      "inputs": [
        {
          "internalType": "bytes32",
          "name": "role",
          "type": "bytes32"
        }
      ],
      "name": "getRoleAdmin",
      "outputs": [
        {
          "internalType": "bytes32",
          "name": "",
          "type": "bytes32"
        }
      ],
      "stateMutability": "view",
      "type": "function"
    },
    {
      "inputs": [
        {
          "internalType": "bytes32",
          "name": "role",
          "type": "bytes32"
        },
        {
          "internalType": "address",
          "name": "account",
          "type": "address"
        }
      ],
      "name": "grantRole",
      "outputs": [],
      "stateMutability": "nonpayable",
      "type": "function"
    },
    {
      "inputs": [
        {
          "internalType": "bytes32",
          "name": "role",
          "type": "bytes32"
        },
        {
          "internalType": "address",
          "name": "account",
          "type": "address"
        }
      ],
      "name": "hasRole",
      "outputs": [
        {
          "internalType": "bool",
          "name": "",
          "type": "bool"
        }
      ],
      "stateMutability": "view",
      "type": "function"
    },
    {
      "inputs": [
        {
          "internalType": "address",
          "name": "owner",
          "type": "address"
        },
        {
          "internalType": "address",
          "name": "operator",
          "type": "address"
        }
      ],
      "name": "isApprovedForAll",
      "outputs": [
        {
          "internalType": "bool",
          "name": "",
          "type": "bool"
        }
      ],
      "stateMutability": "view",
      "type": "function"
    },
    {
      "inputs": [],
      "name": "layersContract",
      "outputs": [
        {
          "internalType": "contract ILayers",
          "name": "",
          "type": "address"
        }
      ],
      "stateMutability": "view",
      "type": "function"
    },
    {
      "inputs": [],
      "name": "maxMintPerAddress",
      "outputs": [
        {
          "internalType": "uint8",
          "name": "",
          "type": "uint8"
        }
      ],
      "stateMutability": "view",
      "type": "function"
    },
    {
      "inputs": [],
      "name": "mintPrice",
      "outputs": [
        {
          "internalType": "uint256",
          "name": "",
          "type": "uint256"
        }
      ],
      "stateMutability": "view",
      "type": "function"
    },
    {
      "inputs": [],
      "name": "minted",
      "outputs": [
        {
          "internalType": "uint256",
          "name": "",
          "type": "uint256"
        }
      ],
      "stateMutability": "view",
      "type": "function"
    },
    {
      "inputs": [],
      "name": "mintingStarted",
      "outputs": [
        {
          "internalType": "bool",
          "name": "",
          "type": "bool"
        }
      ],
      "stateMutability": "view",
      "type": "function"
    },
    {
      "inputs": [],
      "name": "name",
      "outputs": [
        {
          "internalType": "string",
          "name": "",
          "type": "string"
        }
      ],
      "stateMutability": "view",
      "type": "function"
    },
    {
      "inputs": [
        {
          "internalType": "uint256",
          "name": "tokenId",
          "type": "uint256"
        }
      ],
      "name": "ownerOf",
      "outputs": [
        {
          "internalType": "address",
          "name": "",
          "type": "address"
        }
      ],
      "stateMutability": "view",
      "type": "function"
    },
    {
      "inputs": [
        {
          "internalType": "bytes32",
          "name": "role",
          "type": "bytes32"
        },
        {
          "internalType": "address",
          "name": "account",
          "type": "address"
        }
      ],
      "name": "renounceRole",
      "outputs": [],
      "stateMutability": "nonpayable",
      "type": "function"
    },
    {
      "inputs": [
        {
          "internalType": "bytes32",
          "name": "role",
          "type": "bytes32"
        },
        {
          "internalType": "address",
          "name": "account",
          "type": "address"
        }
      ],
      "name": "revokeRole",
      "outputs": [],
      "stateMutability": "nonpayable",
      "type": "function"
    },
    {
      "inputs": [
        {
          "internalType": "address",
          "name": "from",
          "type": "address"
        },
        {
          "internalType": "address",
          "name": "to",
          "type": "address"
        },
        {
          "internalType": "uint256",
          "name": "tokenId",
          "type": "uint256"
        }
      ],
      "name": "safeTransferFrom",
      "outputs": [],
      "stateMutability": "nonpayable",
      "type": "function"
    },
    {
      "inputs": [
        {
          "internalType": "address",
          "name": "from",
          "type": "address"
        },
        {
          "internalType": "address",
          "name": "to",
          "type": "address"
        },
        {
          "internalType": "uint256",
          "name": "tokenId",
          "type": "uint256"
        },
        {
          "internalType": "bytes",
          "name": "_data",
          "type": "bytes"
        }
      ],
      "name": "safeTransferFrom",
      "outputs": [],
      "stateMutability": "nonpayable",
      "type": "function"
    },
    {
      "inputs": [
        {
          "internalType": "address",
          "name": "operator",
          "type": "address"
        },
        {
          "internalType": "bool",
          "name": "approved",
          "type": "bool"
        }
      ],
      "name": "setApprovalForAll",
      "outputs": [],
      "stateMutability": "nonpayable",
      "type": "function"
    },
    {
      "inputs": [],
      "name": "symbol",
      "outputs": [
        {
          "internalType": "string",
          "name": "",
          "type": "string"
        }
      ],
      "stateMutability": "view",
      "type": "function"
    },
    {
      "inputs": [],
      "name": "teamAddress",
      "outputs": [
        {
          "internalType": "address",
          "name": "",
          "type": "address"
        }
      ],
      "stateMutability": "view",
      "type": "function"
    },
    {
      "inputs": [
        {
          "internalType": "uint256",
          "name": "",
          "type": "uint256"
        }
      ],
      "name": "tokenToCombo",
      "outputs": [
        {
          "internalType": "uint256",
          "name": "",
          "type": "uint256"
        }
      ],
      "stateMutability": "view",
      "type": "function"
    },
    {
      "inputs": [
        {
          "internalType": "address",
          "name": "from",
          "type": "address"
        },
        {
          "internalType": "address",
          "name": "to",
          "type": "address"
        },
        {
          "internalType": "uint256",
          "name": "tokenId",
          "type": "uint256"
        }
      ],
      "name": "transferFrom",
      "outputs": [],
      "stateMutability": "nonpayable",
      "type": "function"
    },
    {
      "inputs": [
        {
          "internalType": "address[]",
          "name": "_minters",
          "type": "address[]"
        }
      ],
      "name": "addMinter",
      "outputs": [],
      "stateMutability": "nonpayable",
      "type": "function"
    },
    {
      "inputs": [
        {
          "internalType": "uint256",
          "name": "tokenId",
          "type": "uint256"
        }
      ],
      "name": "getTokenData",
      "outputs": [
        {
          "internalType": "uint256[]",
          "name": "",
          "type": "uint256[]"
        }
      ],
      "stateMutability": "view",
      "type": "function"
    },
    {
      "inputs": [
        {
          "internalType": "uint8",
          "name": "amount",
          "type": "uint8"
        }
      ],
      "name": "mint",
      "outputs": [],
      "stateMutability": "payable",
      "type": "function"
    },
    {
      "inputs": [],
      "name": "mintToggle",
      "outputs": [],
      "stateMutability": "nonpayable",
      "type": "function"
    },
    {
      "inputs": [
        {
          "internalType": "uint256",
          "name": "tokenId",
          "type": "uint256"
        }
      ],
      "name": "tokenURI",
      "outputs": [
        {
          "internalType": "string",
          "name": "",
          "type": "string"
        }
      ],
      "stateMutability": "view",
      "type": "function"
    },
    {
      "inputs": [
        {
          "internalType": "uint256[][]",
          "name": "_combinations",
          "type": "uint256[][]"
        }
      ],
      "name": "uploadCombinations",
      "outputs": [],
      "stateMutability": "nonpayable",
      "type": "function"
    },
    {
      "inputs": [
        {
          "internalType": "bytes4",
          "name": "interfaceId",
          "type": "bytes4"
        }
      ],
      "name": "supportsInterface",
      "outputs": [
        {
          "internalType": "bool",
          "name": "",
          "type": "bool"
        }
      ],
      "stateMutability": "view",
      "type": "function"
    }
  ],
  "bytecode": "0x608060405260006009553480156200001657600080fd5b5060405162004a7738038062004a7783398181016040528101906200003c9190620004a3565b6040518060400160405280600681526020017f41727469737400000000000000000000000000000000000000000000000000008152506040518060400160405280600381526020017f43424100000000000000000000000000000000000000000000000000000000008152508160009080519060200190620000c092919062000389565b508060019080519060200190620000d992919062000389565b505050620000f16000801b336200022460201b60201c565b620001237f9f2df0fed2c77648de5860a4cc508cd0818c85b8b8a1ab4ceeef8d981c8956a6336200022460201b60201c565b620001557fdc72ed553f2544c34465af23b847953efeb813428162d767f9ba5f4013be6760336200022460201b60201c565b80600860006101000a81548173ffffffffffffffffffffffffffffffffffffffff021916908373ffffffffffffffffffffffffffffffffffffffff160217905550662386f26fc10000600b819055506002600860146101000a81548160ff021916908360ff1602179055506000600a60006101000a81548160ff02191690831515021790555081600c60006101000a81548173ffffffffffffffffffffffffffffffffffffffff021916908373ffffffffffffffffffffffffffffffffffffffff16021790555050506200054f565b6200023682826200031660201b60201c565b620003125760016006600084815260200190815260200160002060000160008373ffffffffffffffffffffffffffffffffffffffff1673ffffffffffffffffffffffffffffffffffffffff16815260200190815260200160002060006101000a81548160ff021916908315150217905550620002b76200038160201b60201c565b73ffffffffffffffffffffffffffffffffffffffff168173ffffffffffffffffffffffffffffffffffffffff16837f2f8788117e7eff1d82e926ec794901d17c78024a50270940304540a733656f0d60405160405180910390a45b5050565b60006006600084815260200190815260200160002060000160008373ffffffffffffffffffffffffffffffffffffffff1673ffffffffffffffffffffffffffffffffffffffff16815260200190815260200160002060009054906101000a900460ff16905092915050565b600033905090565b828054620003979062000519565b90600052602060002090601f016020900481019282620003bb576000855562000407565b82601f10620003d657805160ff191683800117855562000407565b8280016001018555821562000407579182015b8281111562000406578251825591602001919060010190620003e9565b5b5090506200041691906200041a565b5090565b5b80821115620004355760008160009055506001016200041b565b5090565b600080fd5b600073ffffffffffffffffffffffffffffffffffffffff82169050919050565b60006200046b826200043e565b9050919050565b6200047d816200045e565b81146200048957600080fd5b50565b6000815190506200049d8162000472565b92915050565b60008060408385031215620004bd57620004bc62000439565b5b6000620004cd858286016200048c565b9250506020620004e0858286016200048c565b9150509250929050565b7f4e487b7100000000000000000000000000000000000000000000000000000000600052602260045260246000fd5b600060028204905060018216806200053257607f821691505b60208210811415620005495762000548620004ea565b5b50919050565b614518806200055f6000396000f3fe60806040526004361061021a5760003560e01c80636f8608e411610123578063a22cb465116100ab578063d547741f1161006f578063d547741f14610800578063e985e9c514610829578063f18e33e114610866578063f47c84c51461088f578063fec8e7b2146108ba5761021a565b8063a22cb46514610709578063b09afec114610732578063b88d4fde1461076f578063c87b56dd14610798578063d5391393146107d55761021a565b80637a997ab7116100f25780637a997ab714610622578063911291261461064d57806391d148541461067657806395d89b41146106b3578063a217fddf146106de5761021a565b80636f8608e41461056657806370a0823114610591578063785253f1146105ce57806379b3f5cd146105e55761021a565b8063248a9ca3116101a65780634f02c420116101755780634f02c4201461048c578063572849c4146104b75780636352211e146104e25780636817c76c1461051f5780636ecd23061461054a5761021a565b8063248a9ca3146103d45780632f2ff15d1461041157806336568abe1461043a57806342842e0e146104635761021a565b8063081812fc116101ed578063081812fc146102ef578063095ea7b31461032c5780631c75f085146103555780631f5c3f6c1461038057806323b872dd146103ab5761021a565b806301ffc9a71461021f57806302f0f3cf1461025c578063052b3d771461028757806306fdde03146102c4575b600080fd5b34801561022b57600080fd5b5061024660048036038101906102419190612972565b6108f7565b60405161025391906129ba565b60405180910390f35b34801561026857600080fd5b50610271610909565b60405161027e9190612a54565b60405180910390f35b34801561029357600080fd5b506102ae60048036038101906102a99190612aa5565b61092f565b6040516102bb9190612af4565b60405180910390f35b3480156102d057600080fd5b506102d9610960565b6040516102e69190612ba8565b60405180910390f35b3480156102fb57600080fd5b5061031660048036038101906103119190612bca565b6109f2565b6040516103239190612c18565b60405180910390f35b34801561033857600080fd5b50610353600480360381019061034e9190612c5f565b610a77565b005b34801561036157600080fd5b5061036a610b8f565b6040516103779190612c18565b60405180910390f35b34801561038c57600080fd5b50610395610bb5565b6040516103a29190612af4565b60405180910390f35b3480156103b757600080fd5b506103d260048036038101906103cd9190612c9f565b610bbb565b005b3480156103e057600080fd5b506103fb60048036038101906103f69190612d28565b610c1b565b6040516104089190612d64565b60405180910390f35b34801561041d57600080fd5b5061043860048036038101906104339190612d7f565b610c3b565b005b34801561044657600080fd5b50610461600480360381019061045c9190612d7f565b610c64565b005b34801561046f57600080fd5b5061048a60048036038101906104859190612c9f565b610ce7565b005b34801561049857600080fd5b506104a1610d07565b6040516104ae9190612af4565b60405180910390f35b3480156104c357600080fd5b506104cc610d0d565b6040516104d99190612ddb565b60405180910390f35b3480156104ee57600080fd5b5061050960048036038101906105049190612bca565b610d20565b6040516105169190612c18565b60405180910390f35b34801561052b57600080fd5b50610534610dd2565b6040516105419190612af4565b60405180910390f35b610564600480360381019061055f9190612e22565b610dd8565b005b34801561057257600080fd5b5061057b6110a6565b60405161058891906129ba565b60405180910390f35b34801561059d57600080fd5b506105b860048036038101906105b39190612e4f565b6110b9565b6040516105c59190612af4565b60405180910390f35b3480156105da57600080fd5b506105e3611171565b005b3480156105f157600080fd5b5061060c60048036038101906106079190612bca565b6111b3565b6040516106199190612af4565b60405180910390f35b34801561062e57600080fd5b506106376111cb565b6040516106449190612d64565b60405180910390f35b34801561065957600080fd5b50610674600480360381019061066f9190612ee1565b6111ef565b005b34801561068257600080fd5b5061069d60048036038101906106989190612d7f565b61128b565b6040516106aa91906129ba565b60405180910390f35b3480156106bf57600080fd5b506106c86112f6565b6040516106d59190612ba8565b60405180910390f35b3480156106ea57600080fd5b506106f3611388565b6040516107009190612d64565b60405180910390f35b34801561071557600080fd5b50610730600480360381019061072b9190612f5a565b61138f565b005b34801561073e57600080fd5b5061075960048036038101906107549190612bca565b6113a5565b6040516107669190613058565b60405180910390f35b34801561077b57600080fd5b50610796600480360381019061079191906131aa565b611435565b005b3480156107a457600080fd5b506107bf60048036038101906107ba9190612bca565b611497565b6040516107cc9190612ba8565b60405180910390f35b3480156107e157600080fd5b506107ea611541565b6040516107f79190612d64565b60405180910390f35b34801561080c57600080fd5b5061082760048036038101906108229190612d7f565b611565565b005b34801561083557600080fd5b50610850600480360381019061084b919061322d565b61158e565b60405161085d91906129ba565b60405180910390f35b34801561087257600080fd5b5061088d60048036038101906108889190613330565b611622565b005b34801561089b57600080fd5b506108a46116bc565b6040516108b19190612af4565b60405180910390f35b3480156108c657600080fd5b506108e160048036038101906108dc9190612bca565b6116c2565b6040516108ee9190612af4565b60405180910390f35b6000610902826116da565b9050919050565b600860009054906101000a900473ffffffffffffffffffffffffffffffffffffffff1681565b600d602052816000526040600020818154811061094b57600080fd5b90600052602060002001600091509150505481565b60606000805461096f906133a8565b80601f016020809104026020016040519081016040528092919081815260200182805461099b906133a8565b80156109e85780601f106109bd576101008083540402835291602001916109e8565b820191906000526020600020905b8154815290600101906020018083116109cb57829003601f168201915b5050505050905090565b60006109fd82611754565b610a3c576040517f08c379a0000000000000000000000000000000000000000000000000000000008152600401610a339061344c565b60405180910390fd5b6004600083815260200190815260200160002060009054906101000a900473ffffffffffffffffffffffffffffffffffffffff169050919050565b6000610a8282610d20565b90508073ffffffffffffffffffffffffffffffffffffffff168373ffffffffffffffffffffffffffffffffffffffff161415610af3576040517f08c379a0000000000000000000000000000000000000000000000000000000008152600401610aea906134de565b60405180910390fd5b8073ffffffffffffffffffffffffffffffffffffffff16610b126117c0565b73ffffffffffffffffffffffffffffffffffffffff161480610b415750610b4081610b3b6117c0565b61158e565b5b610b80576040517f08c379a0000000000000000000000000000000000000000000000000000000008152600401610b7790613570565b60405180910390fd5b610b8a83836117c8565b505050565b600c60009054906101000a900473ffffffffffffffffffffffffffffffffffffffff1681565b60075481565b610bcc610bc66117c0565b82611881565b610c0b576040517f08c379a0000000000000000000000000000000000000000000000000000000008152600401610c0290613602565b60405180910390fd5b610c1683838361195f565b505050565b600060066000838152602001908152602001600020600101549050919050565b610c4482610c1b565b610c5581610c506117c0565b611bbb565b610c5f8383611c58565b505050565b610c6c6117c0565b73ffffffffffffffffffffffffffffffffffffffff168173ffffffffffffffffffffffffffffffffffffffff1614610cd9576040517f08c379a0000000000000000000000000000000000000000000000000000000008152600401610cd090613694565b60405180910390fd5b610ce38282611d39565b5050565b610d0283838360405180602001604052806000815250611435565b505050565b60095481565b600860149054906101000a900460ff1681565b6000806002600084815260200190815260200160002060009054906101000a900473ffffffffffffffffffffffffffffffffffffffff169050600073ffffffffffffffffffffffffffffffffffffffff168173ffffffffffffffffffffffffffffffffffffffff161415610dc9576040517f08c379a0000000000000000000000000000000000000000000000000000000008152600401610dc090613726565b60405180910390fd5b80915050919050565b600b5481565b7f9f2df0fed2c77648de5860a4cc508cd0818c85b8b8a1ab4ceeef8d981c8956a6610e0a81610e056117c0565b611bbb565b600a60009054906101000a900460ff16610e59576040517f08c379a0000000000000000000000000000000000000000000000000000000008152600401610e5090613792565b60405180910390fd5b8160ff16600b54610e6a91906137e1565b341015610eac576040517f08c379a0000000000000000000000000000000000000000000000000000000008152600401610ea3906138ad565b60405180910390fd5b600860149054906101000a900460ff1660ff16610ec8336110b9565b10610f08576040517f08c379a0000000000000000000000000000000000000000000000000000000008152600401610eff9061393f565b60405180910390fd5b6122b88260ff16600954610f1c919061395f565b1115610f5d576040517f08c379a0000000000000000000000000000000000000000000000000000000008152600401610f5490613a01565b60405180910390fd5b6000600c60009054906101000a900473ffffffffffffffffffffffffffffffffffffffff1673ffffffffffffffffffffffffffffffffffffffff168360ff16600b54610fa991906137e1565b604051610fb590613a52565b60006040518083038185875af1925050503d8060008114610ff2576040519150601f19603f3d011682016040523d82523d6000602084013e610ff7565b606091505b505090508061103b576040517f08c379a000000000000000000000000000000000000000000000000000000000815260040161103290613ab3565b60405180910390fd5b60005b8360ff168160ff1610156110a0576009600081548092919061105f90613ad3565b91905055506000611071600954611e1b565b905061107f60095482611e61565b5061108c33600954611f64565b50808061109890613b1c565b91505061103e565b50505050565b600a60009054906101000a900460ff1681565b60008073ffffffffffffffffffffffffffffffffffffffff168273ffffffffffffffffffffffffffffffffffffffff16141561112a576040517f08c379a000000000000000000000000000000000000000000000000000000000815260040161112190613bb8565b60405180910390fd5b600360008373ffffffffffffffffffffffffffffffffffffffff1673ffffffffffffffffffffffffffffffffffffffff168152602001908152602001600020549050919050565b6000801b611186816111816117c0565b611bbb565b600a60009054906101000a900460ff1615600a60006101000a81548160ff02191690831515021790555050565b600e6020528060005260406000206000915090505481565b7fdc72ed553f2544c34465af23b847953efeb813428162d767f9ba5f4013be676081565b6000801b611204816111ff6117c0565b611bbb565b60005b838390508110156112855783838281811061122557611224613bd8565b5b90506020028101906112379190613c16565b600d60006007548152602001908152602001600020919061125992919061289c565b506007600081548092919061126d90613ad3565b9190505550808061127d90613ad3565b915050611207565b50505050565b60006006600084815260200190815260200160002060000160008373ffffffffffffffffffffffffffffffffffffffff1673ffffffffffffffffffffffffffffffffffffffff16815260200190815260200160002060009054906101000a900460ff16905092915050565b606060018054611305906133a8565b80601f0160208091040260200160405190810160405280929190818152602001828054611331906133a8565b801561137e5780601f106113535761010080835404028352916020019161137e565b820191906000526020600020905b81548152906001019060200180831161136157829003601f168201915b5050505050905090565b6000801b81565b6113a161139a6117c0565b8383611f82565b5050565b60606000600f60006001856113ba919061395f565b8152602001908152602001600020549050600d600082815260200190815260200160002080548060200260200160405190810160405280929190818152602001828054801561142857602002820191906000526020600020905b815481526020019060010190808311611414575b5050505050915050919050565b6114466114406117c0565b83611881565b611485576040517f08c379a000000000000000000000000000000000000000000000000000000000815260040161147c90613602565b60405180910390fd5b611491848484846120ef565b50505050565b6060600860009054906101000a900473ffffffffffffffffffffffffffffffffffffffff1673ffffffffffffffffffffffffffffffffffffffff16638ad91345836040518263ffffffff1660e01b81526004016114f49190612af4565b600060405180830381865afa158015611511573d6000803e3d6000fd5b505050506040513d6000823e3d601f19601f8201168201806040525081019061153a9190613d1a565b9050919050565b7f9f2df0fed2c77648de5860a4cc508cd0818c85b8b8a1ab4ceeef8d981c8956a681565b61156e82610c1b565b61157f8161157a6117c0565b611bbb565b6115898383611d39565b505050565b6000600560008473ffffffffffffffffffffffffffffffffffffffff1673ffffffffffffffffffffffffffffffffffffffff16815260200190815260200160002060008373ffffffffffffffffffffffffffffffffffffffff1673ffffffffffffffffffffffffffffffffffffffff16815260200190815260200160002060009054906101000a900460ff16905092915050565b7fdc72ed553f2544c34465af23b847953efeb813428162d767f9ba5f4013be67606116548161164f6117c0565b611bbb565b60005b82518110156116b7576116a47f9f2df0fed2c77648de5860a4cc508cd0818c85b8b8a1ab4ceeef8d981c8956a684838151811061169757611696613bd8565b5b6020026020010151611c58565b80806116af90613ad3565b915050611657565b505050565b6122b881565b600f6020528060005260406000206000915090505481565b60007f7965db0b000000000000000000000000000000000000000000000000000000007bffffffffffffffffffffffffffffffffffffffffffffffffffffffff1916827bffffffffffffffffffffffffffffffffffffffffffffffffffffffff1916148061174d575061174c8261214b565b5b9050919050565b60008073ffffffffffffffffffffffffffffffffffffffff166002600084815260200190815260200160002060009054906101000a900473ffffffffffffffffffffffffffffffffffffffff1673ffffffffffffffffffffffffffffffffffffffff1614159050919050565b600033905090565b816004600083815260200190815260200160002060006101000a81548173ffffffffffffffffffffffffffffffffffffffff021916908373ffffffffffffffffffffffffffffffffffffffff160217905550808273ffffffffffffffffffffffffffffffffffffffff1661183b83610d20565b73ffffffffffffffffffffffffffffffffffffffff167f8c5be1e5ebec7d5bd14f71427d1e84f3dd0314c0f7b2291e5b200ac8c7c3b92560405160405180910390a45050565b600061188c82611754565b6118cb576040517f08c379a00000000000000000000000000000000000000000000000000000000081526004016118c290613dd5565b60405180910390fd5b60006118d683610d20565b90508073ffffffffffffffffffffffffffffffffffffffff168473ffffffffffffffffffffffffffffffffffffffff16148061194557508373ffffffffffffffffffffffffffffffffffffffff1661192d846109f2565b73ffffffffffffffffffffffffffffffffffffffff16145b806119565750611955818561158e565b5b91505092915050565b8273ffffffffffffffffffffffffffffffffffffffff1661197f82610d20565b73ffffffffffffffffffffffffffffffffffffffff16146119d5576040517f08c379a00000000000000000000000000000000000000000000000000000000081526004016119cc90613e67565b60405180910390fd5b600073ffffffffffffffffffffffffffffffffffffffff168273ffffffffffffffffffffffffffffffffffffffff161415611a45576040517f08c379a0000000000000000000000000000000000000000000000000000000008152600401611a3c90613ef9565b60405180910390fd5b611a5083838361222d565b611a5b6000826117c8565b6001600360008573ffffffffffffffffffffffffffffffffffffffff1673ffffffffffffffffffffffffffffffffffffffff1681526020019081526020016000206000828254611aab9190613f19565b925050819055506001600360008473ffffffffffffffffffffffffffffffffffffffff1673ffffffffffffffffffffffffffffffffffffffff1681526020019081526020016000206000828254611b02919061395f565b92505081905550816002600083815260200190815260200160002060006101000a81548173ffffffffffffffffffffffffffffffffffffffff021916908373ffffffffffffffffffffffffffffffffffffffff160217905550808273ffffffffffffffffffffffffffffffffffffffff168473ffffffffffffffffffffffffffffffffffffffff167fddf252ad1be2c89b69c2b068fc378daa952ba7f163c4a11628f55a4df523b3ef60405160405180910390a4505050565b611bc5828261128b565b611c5457611bea8173ffffffffffffffffffffffffffffffffffffffff166014612232565b611bf88360001c6020612232565b604051602001611c09929190614021565b6040516020818303038152906040526040517f08c379a0000000000000000000000000000000000000000000000000000000008152600401611c4b9190612ba8565b60405180910390fd5b5050565b611c62828261128b565b611d355760016006600084815260200190815260200160002060000160008373ffffffffffffffffffffffffffffffffffffffff1673ffffffffffffffffffffffffffffffffffffffff16815260200190815260200160002060006101000a81548160ff021916908315150217905550611cda6117c0565b73ffffffffffffffffffffffffffffffffffffffff168173ffffffffffffffffffffffffffffffffffffffff16837f2f8788117e7eff1d82e926ec794901d17c78024a50270940304540a733656f0d60405160405180910390a45b5050565b611d43828261128b565b15611e175760006006600084815260200190815260200160002060000160008373ffffffffffffffffffffffffffffffffffffffff1673ffffffffffffffffffffffffffffffffffffffff16815260200190815260200160002060006101000a81548160ff021916908315150217905550611dbc6117c0565b73ffffffffffffffffffffffffffffffffffffffff168173ffffffffffffffffffffffffffffffffffffffff16837ff6391f5c32d9c69d2a47ea670b442974b53935d1edc7fd64eb21e047a839171b60405160405180910390a45b5050565b600032600143611e2b9190613f19565b404284604051602001611e4194939291906140e5565b6040516020818303038152906040528051906020012060001c9050919050565b60606122b882611e719190614162565b91505b600260011015611eb2576000600e6000848152602001908152602001600020541415611e9f57611eb2565b8180611eaa90613ad3565b925050611e74565b600183611ebf919061395f565b600e60008481526020019081526020016000208190555081600f6000600186611ee8919061395f565b815260200190815260200160002081905550600d6000838152602001908152602001600020805480602002602001604051908101604052809291908181526020018280548015611f5757602002820191906000526020600020905b815481526020019060010190808311611f43575b5050505050905092915050565b611f7e82826040518060200160405280600081525061246e565b5050565b8173ffffffffffffffffffffffffffffffffffffffff168373ffffffffffffffffffffffffffffffffffffffff161415611ff1576040517f08c379a0000000000000000000000000000000000000000000000000000000008152600401611fe8906141df565b60405180910390fd5b80600560008573ffffffffffffffffffffffffffffffffffffffff1673ffffffffffffffffffffffffffffffffffffffff16815260200190815260200160002060008473ffffffffffffffffffffffffffffffffffffffff1673ffffffffffffffffffffffffffffffffffffffff16815260200190815260200160002060006101000a81548160ff0219169083151502179055508173ffffffffffffffffffffffffffffffffffffffff168373ffffffffffffffffffffffffffffffffffffffff167f17307eab39ab6107e8899845ad3d59bd9653f200f220920489ca2b5937696c31836040516120e291906129ba565b60405180910390a3505050565b6120fa84848461195f565b612106848484846124c9565b612145576040517f08c379a000000000000000000000000000000000000000000000000000000000815260040161213c90614271565b60405180910390fd5b50505050565b60007f80ac58cd000000000000000000000000000000000000000000000000000000007bffffffffffffffffffffffffffffffffffffffffffffffffffffffff1916827bffffffffffffffffffffffffffffffffffffffffffffffffffffffff1916148061221657507f5b5e139f000000000000000000000000000000000000000000000000000000007bffffffffffffffffffffffffffffffffffffffffffffffffffffffff1916827bffffffffffffffffffffffffffffffffffffffffffffffffffffffff1916145b80612226575061222582612651565b5b9050919050565b505050565b60606000600283600261224591906137e1565b61224f919061395f565b67ffffffffffffffff8111156122685761226761307f565b5b6040519080825280601f01601f19166020018201604052801561229a5781602001600182028036833780820191505090505b5090507f3000000000000000000000000000000000000000000000000000000000000000816000815181106122d2576122d1613bd8565b5b60200101907effffffffffffffffffffffffffffffffffffffffffffffffffffffffffffff1916908160001a9053507f78000000000000000000000000000000000000000000000000000000000000008160018151811061233657612335613bd8565b5b60200101907effffffffffffffffffffffffffffffffffffffffffffffffffffffffffffff1916908160001a9053506000600184600261237691906137e1565b612380919061395f565b90505b6001811115612420577f3031323334353637383961626364656600000000000000000000000000000000600f8616601081106123c2576123c1613bd8565b5b1a60f81b8282815181106123d9576123d8613bd8565b5b60200101907effffffffffffffffffffffffffffffffffffffffffffffffffffffffffffff1916908160001a905350600485901c94508061241990614291565b9050612383565b5060008414612464576040517f08c379a000000000000000000000000000000000000000000000000000000000815260040161245b90614307565b60405180910390fd5b8091505092915050565b61247883836126bb565b61248560008484846124c9565b6124c4576040517f08c379a00000000000000000000000000000000000000000000000000000000081526004016124bb90614271565b60405180910390fd5b505050565b60006124ea8473ffffffffffffffffffffffffffffffffffffffff16612889565b15612644578373ffffffffffffffffffffffffffffffffffffffff1663150b7a026125136117c0565b8786866040518563ffffffff1660e01b8152600401612535949392919061437c565b6020604051808303816000875af192505050801561257157506040513d601f19601f8201168201806040525081019061256e91906143dd565b60015b6125f4573d80600081146125a1576040519150601f19603f3d011682016040523d82523d6000602084013e6125a6565b606091505b506000815114156125ec576040517f08c379a00000000000000000000000000000000000000000000000000000000081526004016125e390614271565b60405180910390fd5b805181602001fd5b63150b7a0260e01b7bffffffffffffffffffffffffffffffffffffffffffffffffffffffff1916817bffffffffffffffffffffffffffffffffffffffffffffffffffffffff191614915050612649565b600190505b949350505050565b60007f01ffc9a7000000000000000000000000000000000000000000000000000000007bffffffffffffffffffffffffffffffffffffffffffffffffffffffff1916827bffffffffffffffffffffffffffffffffffffffffffffffffffffffff1916149050919050565b600073ffffffffffffffffffffffffffffffffffffffff168273ffffffffffffffffffffffffffffffffffffffff16141561272b576040517f08c379a000000000000000000000000000000000000000000000000000000000815260040161272290614456565b60405180910390fd5b61273481611754565b15612774576040517f08c379a000000000000000000000000000000000000000000000000000000000815260040161276b906144c2565b60405180910390fd5b6127806000838361222d565b6001600360008473ffffffffffffffffffffffffffffffffffffffff1673ffffffffffffffffffffffffffffffffffffffff16815260200190815260200160002060008282546127d0919061395f565b92505081905550816002600083815260200190815260200160002060006101000a81548173ffffffffffffffffffffffffffffffffffffffff021916908373ffffffffffffffffffffffffffffffffffffffff160217905550808273ffffffffffffffffffffffffffffffffffffffff16600073ffffffffffffffffffffffffffffffffffffffff167fddf252ad1be2c89b69c2b068fc378daa952ba7f163c4a11628f55a4df523b3ef60405160405180910390a45050565b600080823b905060008111915050919050565b8280548282559060005260206000209081019282156128d8579160200282015b828111156128d75782358255916020019190600101906128bc565b5b5090506128e591906128e9565b5090565b5b808211156129025760008160009055506001016128ea565b5090565b6000604051905090565b600080fd5b600080fd5b60007fffffffff0000000000000000000000000000000000000000000000000000000082169050919050565b61294f8161291a565b811461295a57600080fd5b50565b60008135905061296c81612946565b92915050565b60006020828403121561298857612987612910565b5b60006129968482850161295d565b91505092915050565b60008115159050919050565b6129b48161299f565b82525050565b60006020820190506129cf60008301846129ab565b92915050565b600073ffffffffffffffffffffffffffffffffffffffff82169050919050565b6000819050919050565b6000612a1a612a15612a10846129d5565b6129f5565b6129d5565b9050919050565b6000612a2c826129ff565b9050919050565b6000612a3e82612a21565b9050919050565b612a4e81612a33565b82525050565b6000602082019050612a696000830184612a45565b92915050565b6000819050919050565b612a8281612a6f565b8114612a8d57600080fd5b50565b600081359050612a9f81612a79565b92915050565b60008060408385031215612abc57612abb612910565b5b6000612aca85828601612a90565b9250506020612adb85828601612a90565b9150509250929050565b612aee81612a6f565b82525050565b6000602082019050612b096000830184612ae5565b92915050565b600081519050919050565b600082825260208201905092915050565b60005b83811015612b49578082015181840152602081019050612b2e565b83811115612b58576000848401525b50505050565b6000601f19601f8301169050919050565b6000612b7a82612b0f565b612b848185612b1a565b9350612b94818560208601612b2b565b612b9d81612b5e565b840191505092915050565b60006020820190508181036000830152612bc28184612b6f565b905092915050565b600060208284031215612be057612bdf612910565b5b6000612bee84828501612a90565b91505092915050565b6000612c02826129d5565b9050919050565b612c1281612bf7565b82525050565b6000602082019050612c2d6000830184612c09565b92915050565b612c3c81612bf7565b8114612c4757600080fd5b50565b600081359050612c5981612c33565b92915050565b60008060408385031215612c7657612c75612910565b5b6000612c8485828601612c4a565b9250506020612c9585828601612a90565b9150509250929050565b600080600060608486031215612cb857612cb7612910565b5b6000612cc686828701612c4a565b9350506020612cd786828701612c4a565b9250506040612ce886828701612a90565b9150509250925092565b6000819050919050565b612d0581612cf2565b8114612d1057600080fd5b50565b600081359050612d2281612cfc565b92915050565b600060208284031215612d3e57612d3d612910565b5b6000612d4c84828501612d13565b91505092915050565b612d5e81612cf2565b82525050565b6000602082019050612d796000830184612d55565b92915050565b60008060408385031215612d9657612d95612910565b5b6000612da485828601612d13565b9250506020612db585828601612c4a565b9150509250929050565b600060ff82169050919050565b612dd581612dbf565b82525050565b6000602082019050612df06000830184612dcc565b92915050565b612dff81612dbf565b8114612e0a57600080fd5b50565b600081359050612e1c81612df6565b92915050565b600060208284031215612e3857612e37612910565b5b6000612e4684828501612e0d565b91505092915050565b600060208284031215612e6557612e64612910565b5b6000612e7384828501612c4a565b91505092915050565b600080fd5b600080fd5b600080fd5b60008083601f840112612ea157612ea0612e7c565b5b8235905067ffffffffffffffff811115612ebe57612ebd612e81565b5b602083019150836020820283011115612eda57612ed9612e86565b5b9250929050565b60008060208385031215612ef857612ef7612910565b5b600083013567ffffffffffffffff811115612f1657612f15612915565b5b612f2285828601612e8b565b92509250509250929050565b612f378161299f565b8114612f4257600080fd5b50565b600081359050612f5481612f2e565b92915050565b60008060408385031215612f7157612f70612910565b5b6000612f7f85828601612c4a565b9250506020612f9085828601612f45565b9150509250929050565b600081519050919050565b600082825260208201905092915050565b6000819050602082019050919050565b612fcf81612a6f565b82525050565b6000612fe18383612fc6565b60208301905092915050565b6000602082019050919050565b600061300582612f9a565b61300f8185612fa5565b935061301a83612fb6565b8060005b8381101561304b5781516130328882612fd5565b975061303d83612fed565b92505060018101905061301e565b5085935050505092915050565b600060208201905081810360008301526130728184612ffa565b905092915050565b600080fd5b7f4e487b7100000000000000000000000000000000000000000000000000000000600052604160045260246000fd5b6130b782612b5e565b810181811067ffffffffffffffff821117156130d6576130d561307f565b5b80604052505050565b60006130e9612906565b90506130f582826130ae565b919050565b600067ffffffffffffffff8211156131155761311461307f565b5b61311e82612b5e565b9050602081019050919050565b82818337600083830152505050565b600061314d613148846130fa565b6130df565b9050828152602081018484840111156131695761316861307a565b5b61317484828561312b565b509392505050565b600082601f83011261319157613190612e7c565b5b81356131a184826020860161313a565b91505092915050565b600080600080608085870312156131c4576131c3612910565b5b60006131d287828801612c4a565b94505060206131e387828801612c4a565b93505060406131f487828801612a90565b925050606085013567ffffffffffffffff81111561321557613214612915565b5b6132218782880161317c565b91505092959194509250565b6000806040838503121561324457613243612910565b5b600061325285828601612c4a565b925050602061326385828601612c4a565b9150509250929050565b600067ffffffffffffffff8211156132885761328761307f565b5b602082029050602081019050919050565b60006132ac6132a78461326d565b6130df565b905080838252602082019050602084028301858111156132cf576132ce612e86565b5b835b818110156132f857806132e48882612c4a565b8452602084019350506020810190506132d1565b5050509392505050565b600082601f83011261331757613316612e7c565b5b8135613327848260208601613299565b91505092915050565b60006020828403121561334657613345612910565b5b600082013567ffffffffffffffff81111561336457613363612915565b5b61337084828501613302565b91505092915050565b7f4e487b7100000000000000000000000000000000000000000000000000000000600052602260045260246000fd5b600060028204905060018216806133c057607f821691505b602082108114156133d4576133d3613379565b5b50919050565b7f4552433732313a20617070726f76656420717565727920666f72206e6f6e657860008201527f697374656e7420746f6b656e0000000000000000000000000000000000000000602082015250565b6000613436602c83612b1a565b9150613441826133da565b604082019050919050565b6000602082019050818103600083015261346581613429565b9050919050565b7f4552433732313a20617070726f76616c20746f2063757272656e74206f776e6560008201527f7200000000000000000000000000000000000000000000000000000000000000602082015250565b60006134c8602183612b1a565b91506134d38261346c565b604082019050919050565b600060208201905081810360008301526134f7816134bb565b9050919050565b7f4552433732313a20617070726f76652063616c6c6572206973206e6f74206f7760008201527f6e6572206e6f7220617070726f76656420666f7220616c6c0000000000000000602082015250565b600061355a603883612b1a565b9150613565826134fe565b604082019050919050565b600060208201905081810360008301526135898161354d565b9050919050565b7f4552433732313a207472616e736665722063616c6c6572206973206e6f74206f60008201527f776e6572206e6f7220617070726f766564000000000000000000000000000000602082015250565b60006135ec603183612b1a565b91506135f782613590565b604082019050919050565b6000602082019050818103600083015261361b816135df565b9050919050565b7f416363657373436f6e74726f6c3a2063616e206f6e6c792072656e6f756e636560008201527f20726f6c657320666f722073656c660000000000000000000000000000000000602082015250565b600061367e602f83612b1a565b915061368982613622565b604082019050919050565b600060208201905081810360008301526136ad81613671565b9050919050565b7f4552433732313a206f776e657220717565727920666f72206e6f6e657869737460008201527f656e7420746f6b656e0000000000000000000000000000000000000000000000602082015250565b6000613710602983612b1a565b915061371b826136b4565b604082019050919050565b6000602082019050818103600083015261373f81613703565b9050919050565b7f4d696e74696e6720686173206e6f742079657420737461727465640000000000600082015250565b600061377c601b83612b1a565b915061378782613746565b602082019050919050565b600060208201905081810360008301526137ab8161376f565b9050919050565b7f4e487b7100000000000000000000000000000000000000000000000000000000600052601160045260246000fd5b60006137ec82612a6f565b91506137f783612a6f565b9250817fffffffffffffffffffffffffffffffffffffffffffffffffffffffffffffffff04831182151516156138305761382f6137b2565b5b828202905092915050565b7f54686520616d6f756e742073706563696669656420646f6573206e6f74206d6160008201527f74636820746865206d696e696d756d206d696e74207072696365000000000000602082015250565b6000613897603a83612b1a565b91506138a28261383b565b604082019050919050565b600060208201905081810360008301526138c68161388a565b9050919050565b7f596f75206d6179206e6f74206d696e7420616e79206d6f726520746f6b656e7360008201527f2077697468207468697320616464726573730000000000000000000000000000602082015250565b6000613929603283612b1a565b9150613934826138cd565b604082019050919050565b600060208201905081810360008301526139588161391c565b9050919050565b600061396a82612a6f565b915061397583612a6f565b9250827fffffffffffffffffffffffffffffffffffffffffffffffffffffffffffffffff038211156139aa576139a96137b2565b5b828201905092915050565b7f416c6c20746f6b656e732068617665206265656e206d696e7465640000000000600082015250565b60006139eb601b83612b1a565b91506139f6826139b5565b602082019050919050565b60006020820190508181036000830152613a1a816139de565b9050919050565b600081905092915050565b50565b6000613a3c600083613a21565b9150613a4782613a2c565b600082019050919050565b6000613a5d82613a2f565b9150819050919050565b7f436f6e747261637420657865637574696f6e204661696c656400000000000000600082015250565b6000613a9d601983612b1a565b9150613aa882613a67565b602082019050919050565b60006020820190508181036000830152613acc81613a90565b9050919050565b6000613ade82612a6f565b91507fffffffffffffffffffffffffffffffffffffffffffffffffffffffffffffffff821415613b1157613b106137b2565b5b600182019050919050565b6000613b2782612dbf565b915060ff821415613b3b57613b3a6137b2565b5b600182019050919050565b7f4552433732313a2062616c616e636520717565727920666f7220746865207a6560008201527f726f206164647265737300000000000000000000000000000000000000000000602082015250565b6000613ba2602a83612b1a565b9150613bad82613b46565b604082019050919050565b60006020820190508181036000830152613bd181613b95565b9050919050565b7f4e487b7100000000000000000000000000000000000000000000000000000000600052603260045260246000fd5b600080fd5b600080fd5b600080fd5b60008083356001602003843603038112613c3357613c32613c07565b5b80840192508235915067ffffffffffffffff821115613c5557613c54613c0c565b5b602083019250602082023603831315613c7157613c70613c11565b5b509250929050565b600067ffffffffffffffff821115613c9457613c9361307f565b5b613c9d82612b5e565b9050602081019050919050565b6000613cbd613cb884613c79565b6130df565b905082815260208101848484011115613cd957613cd861307a565b5b613ce4848285612b2b565b509392505050565b600082601f830112613d0157613d00612e7c565b5b8151613d11848260208601613caa565b91505092915050565b600060208284031215613d3057613d2f612910565b5b600082015167ffffffffffffffff811115613d4e57613d4d612915565b5b613d5a84828501613cec565b91505092915050565b7f4552433732313a206f70657261746f7220717565727920666f72206e6f6e657860008201527f697374656e7420746f6b656e0000000000000000000000000000000000000000602082015250565b6000613dbf602c83612b1a565b9150613dca82613d63565b604082019050919050565b60006020820190508181036000830152613dee81613db2565b9050919050565b7f4552433732313a207472616e73666572206f6620746f6b656e2074686174206960008201527f73206e6f74206f776e0000000000000000000000000000000000000000000000602082015250565b6000613e51602983612b1a565b9150613e5c82613df5565b604082019050919050565b60006020820190508181036000830152613e8081613e44565b9050919050565b7f4552433732313a207472616e7366657220746f20746865207a65726f2061646460008201527f7265737300000000000000000000000000000000000000000000000000000000602082015250565b6000613ee3602483612b1a565b9150613eee82613e87565b604082019050919050565b60006020820190508181036000830152613f1281613ed6565b9050919050565b6000613f2482612a6f565b9150613f2f83612a6f565b925082821015613f4257613f416137b2565b5b828203905092915050565b600081905092915050565b7f416363657373436f6e74726f6c3a206163636f756e7420000000000000000000600082015250565b6000613f8e601783613f4d565b9150613f9982613f58565b601782019050919050565b6000613faf82612b0f565b613fb98185613f4d565b9350613fc9818560208601612b2b565b80840191505092915050565b7f206973206d697373696e6720726f6c6520000000000000000000000000000000600082015250565b600061400b601183613f4d565b915061401682613fd5565b601182019050919050565b600061402c82613f81565b91506140388285613fa4565b915061404382613ffe565b915061404f8284613fa4565b91508190509392505050565b60008160601b9050919050565b60006140738261405b565b9050919050565b600061408582614068565b9050919050565b61409d61409882612bf7565b61407a565b82525050565b6000819050919050565b6140be6140b982612cf2565b6140a3565b82525050565b6000819050919050565b6140df6140da82612a6f565b6140c4565b82525050565b60006140f1828761408c565b60148201915061410182866140ad565b60208201915061411182856140ce565b60208201915061412182846140ce565b60208201915081905095945050505050565b7f4e487b7100000000000000000000000000000000000000000000000000000000600052601260045260246000fd5b600061416d82612a6f565b915061417883612a6f565b92508261418857614187614133565b5b828206905092915050565b7f4552433732313a20617070726f766520746f2063616c6c657200000000000000600082015250565b60006141c9601983612b1a565b91506141d482614193565b602082019050919050565b600060208201905081810360008301526141f8816141bc565b9050919050565b7f4552433732313a207472616e7366657220746f206e6f6e20455243373231526560008201527f63656976657220696d706c656d656e7465720000000000000000000000000000602082015250565b600061425b603283612b1a565b9150614266826141ff565b604082019050919050565b6000602082019050818103600083015261428a8161424e565b9050919050565b600061429c82612a6f565b915060008214156142b0576142af6137b2565b5b600182039050919050565b7f537472696e67733a20686578206c656e67746820696e73756666696369656e74600082015250565b60006142f1602083612b1a565b91506142fc826142bb565b602082019050919050565b60006020820190508181036000830152614320816142e4565b9050919050565b600081519050919050565b600082825260208201905092915050565b600061434e82614327565b6143588185614332565b9350614368818560208601612b2b565b61437181612b5e565b840191505092915050565b60006080820190506143916000830187612c09565b61439e6020830186612c09565b6143ab6040830185612ae5565b81810360608301526143bd8184614343565b905095945050505050565b6000815190506143d781612946565b92915050565b6000602082840312156143f3576143f2612910565b5b6000614401848285016143c8565b91505092915050565b7f4552433732313a206d696e7420746f20746865207a65726f2061646472657373600082015250565b6000614440602083612b1a565b915061444b8261440a565b602082019050919050565b6000602082019050818103600083015261446f81614433565b9050919050565b7f4552433732313a20746f6b656e20616c7265616479206d696e74656400000000600082015250565b60006144ac601c83612b1a565b91506144b782614476565b602082019050919050565b600060208201905081810360008301526144db8161449f565b905091905056fea2646970667358221220ab5832503e1d6c92ba3c922fbb96cdc48bd216a2c7454fd7bb0a86315141edac64736f6c634300080a0033",
  "immutableReferences": {},
  "source": "// SPDX-License-Identifier: MIT\npragma solidity ^0.8.2;\n\nimport \"@openzeppelin/contracts/access/AccessControl.sol\";\nimport \"@openzeppelin/contracts/token/ERC721/ERC721.sol\";\nimport \"./INft.sol\";\nimport \"./ILayers.sol\";\n\ncontract ColdBehaviorNft is INft, ERC721, AccessControl {\n  //Constants\n  uint public constant MAX_TOKENS = 8888;\n  bytes32 public constant MINTER_ROLE = keccak256(\"MINTER_ROLE\");\n  bytes32 public constant WHITELIST_ROLE = keccak256(\"WHITELIST_ROLE\");\n\n  uint public combinationCount;\n  ILayers public layersContract;\n  uint8 public maxMintPerAddress;\n  uint public minted = 0;\n  bool public mintingStarted;\n  uint public mintPrice;\n  address public teamAddress;\n\n  //State Mappings\n  mapping (uint => uint[]) public combinations; // combo Id => layer[]\n  mapping (uint => uint) public comboToToken; //combo Id => (token Id + 1) - to overcome initial state of 0 \n  mapping (uint => uint) public tokenToCombo; // token => combo Id\n\n  //Events\n\n  //Constructor\n  constructor(address _team, address _layersContract) ERC721(\"Artist\", \"CBA\") {\n    _grantRole(DEFAULT_ADMIN_ROLE, msg.sender);\n    _grantRole(MINTER_ROLE, msg.sender);\n    _grantRole(WHITELIST_ROLE, msg.sender);\n\n    layersContract = ILayers(_layersContract);\n    mintPrice = 0.01 ether; //for testing, change for production\n    maxMintPerAddress = 2;\n    mintingStarted = false;\n\n    teamAddress = _team;\n  }\n\n  //Functions\n  function addMinter(address[] memory _minters) external onlyRole(WHITELIST_ROLE) {\n    for (uint x = 0; x < _minters.length; x++) {\n      _grantRole(MINTER_ROLE, _minters[x]);\n    }\n  }\n\n  function generate(uint tokenId, uint rand) internal returns (uint[] memory t) {\n    rand = rand % MAX_TOKENS;\n    while (1 < 2) {\n      if (comboToToken[rand] == 0) {\n        break;\n      }\n      rand++;\n    }\n\n    comboToToken[rand] = tokenId + 1;\n    tokenToCombo[tokenId + 1] = rand;\n\n    return combinations[rand];\n  }\n\n  function getTokenData(uint256 tokenId) external override view returns (uint[] memory) {\n    uint comboId = tokenToCombo[tokenId + 1];\n    return combinations[comboId];\n  }\n\n  function mint(uint8 amount) external payable onlyRole(MINTER_ROLE) {\n    require(mintingStarted, \"Minting has not yet started\");\n    require(msg.value >= (mintPrice * amount), \"The amount specified does not match the minimum mint price\");\n    require(balanceOf(msg.sender) < maxMintPerAddress, \"You may not mint any more tokens with this address\");\n    require(minted + amount <= MAX_TOKENS, \"All tokens have been minted\");\n    \n    (bool success, ) = teamAddress.call{value: (mintPrice * amount)}(\"\");\n    require(success, \"Contract execution Failed\");\n\n    for (uint8 i = 0; i < amount; i++) {\n      minted++;\n      uint rand = random(minted);\n      generate(minted, rand);\n      _safeMint(msg.sender, minted);\n    }\n  }\n\n  function mintToggle() external onlyRole(DEFAULT_ADMIN_ROLE) {\n    mintingStarted = !mintingStarted;\n  }\n\n  function random(uint seed) internal view returns (uint) {\n    return uint(keccak256(abi.encodePacked(\n    tx.origin,\n    blockhash(block.number - 1),\n    block.timestamp,\n    seed\n    )));\n  }\n\n  function tokenURI(uint256 tokenId) public override view returns (string memory) {\n    return layersContract.getTokenUri(tokenId);\n  }\n\n  function uploadCombinations(uint[][] calldata _combinations) external onlyRole(DEFAULT_ADMIN_ROLE) {\n    for (uint combo = 0; combo < _combinations.length; combo++) {\n      combinations[combinationCount] = _combinations[combo];\n      combinationCount++;\n    }\n  }\n\n  //overrides\n  function supportsInterface(bytes4 interfaceId)\n      public\n      view\n      override(ERC721, AccessControl)\n      returns (bool)\n  {\n      return super.supportsInterface(interfaceId);\n  }\n}\n",
  "sourcePath": "/Users/warrenschwartz/Projects/ColdBehaviour/contracts/contracts/ColdBehaviorNft.sol",
  "compiler": {
    "name": "solc",
    "version": "0.8.10+commit.fc410830.Emscripten.clang"
  },
  "schemaVersion": "3.4.3",
  "updatedAt": "2022-02-09T10:23:47.188Z",
  "devdoc": {
    "kind": "dev",
    "methods": {
      "approve(address,uint256)": {
        "details": "See {IERC721-approve}."
      },
      "balanceOf(address)": {
        "details": "See {IERC721-balanceOf}."
      },
      "getApproved(uint256)": {
        "details": "See {IERC721-getApproved}."
      },
      "getRoleAdmin(bytes32)": {
        "details": "Returns the admin role that controls `role`. See {grantRole} and {revokeRole}. To change a role's admin, use {_setRoleAdmin}."
      },
      "grantRole(bytes32,address)": {
        "details": "Grants `role` to `account`. If `account` had not been already granted `role`, emits a {RoleGranted} event. Requirements: - the caller must have ``role``'s admin role."
      },
      "hasRole(bytes32,address)": {
        "details": "Returns `true` if `account` has been granted `role`."
      },
      "isApprovedForAll(address,address)": {
        "details": "See {IERC721-isApprovedForAll}."
      },
      "name()": {
        "details": "See {IERC721Metadata-name}."
      },
      "ownerOf(uint256)": {
        "details": "See {IERC721-ownerOf}."
      },
      "renounceRole(bytes32,address)": {
        "details": "Revokes `role` from the calling account. Roles are often managed via {grantRole} and {revokeRole}: this function's purpose is to provide a mechanism for accounts to lose their privileges if they are compromised (such as when a trusted device is misplaced). If the calling account had been revoked `role`, emits a {RoleRevoked} event. Requirements: - the caller must be `account`."
      },
      "revokeRole(bytes32,address)": {
        "details": "Revokes `role` from `account`. If `account` had been granted `role`, emits a {RoleRevoked} event. Requirements: - the caller must have ``role``'s admin role."
      },
      "safeTransferFrom(address,address,uint256)": {
        "details": "See {IERC721-safeTransferFrom}."
      },
      "safeTransferFrom(address,address,uint256,bytes)": {
        "details": "See {IERC721-safeTransferFrom}."
      },
      "setApprovalForAll(address,bool)": {
        "details": "See {IERC721-setApprovalForAll}."
      },
      "symbol()": {
        "details": "See {IERC721Metadata-symbol}."
      },
      "tokenURI(uint256)": {
        "details": "See {IERC721Metadata-tokenURI}."
      },
      "transferFrom(address,address,uint256)": {
        "details": "See {IERC721-transferFrom}."
      }
    },
    "version": 1
  },
  "userdoc": {
    "kind": "user",
    "methods": {},
    "version": 1
  }
}