{
  "contractName": "ColdBehaviorNFT",
  "abi": [
    {
      "inputs": [
        {
          "internalType": "address",
          "name": "_teamAddress",
          "type": "address"
        }
      ],
      "stateMutability": "nonpayable",
      "type": "constructor"
    },
    {
      "anonymous": false,
      "inputs": [
        {
          "indexed": true,
          "internalType": "address",
          "name": "owner",
          "type": "address"
        },
        {
          "indexed": true,
          "internalType": "address",
          "name": "approved",
          "type": "address"
        },
        {
          "indexed": true,
          "internalType": "uint256",
          "name": "tokenId",
          "type": "uint256"
        }
      ],
      "name": "Approval",
      "type": "event"
    },
    {
      "anonymous": false,
      "inputs": [
        {
          "indexed": true,
          "internalType": "address",
          "name": "owner",
          "type": "address"
        },
        {
          "indexed": true,
          "internalType": "address",
          "name": "operator",
          "type": "address"
        },
        {
          "indexed": false,
          "internalType": "bool",
          "name": "approved",
          "type": "bool"
        }
      ],
      "name": "ApprovalForAll",
      "type": "event"
    },
    {
      "anonymous": false,
      "inputs": [
        {
          "indexed": false,
          "internalType": "address",
          "name": "account",
          "type": "address"
        }
      ],
      "name": "Paused",
      "type": "event"
    },
    {
      "anonymous": false,
      "inputs": [
        {
          "indexed": true,
          "internalType": "bytes32",
          "name": "role",
          "type": "bytes32"
        },
        {
          "indexed": true,
          "internalType": "bytes32",
          "name": "previousAdminRole",
          "type": "bytes32"
        },
        {
          "indexed": true,
          "internalType": "bytes32",
          "name": "newAdminRole",
          "type": "bytes32"
        }
      ],
      "name": "RoleAdminChanged",
      "type": "event"
    },
    {
      "anonymous": false,
      "inputs": [
        {
          "indexed": true,
          "internalType": "bytes32",
          "name": "role",
          "type": "bytes32"
        },
        {
          "indexed": true,
          "internalType": "address",
          "name": "account",
          "type": "address"
        },
        {
          "indexed": true,
          "internalType": "address",
          "name": "sender",
          "type": "address"
        }
      ],
      "name": "RoleGranted",
      "type": "event"
    },
    {
      "anonymous": false,
      "inputs": [
        {
          "indexed": true,
          "internalType": "bytes32",
          "name": "role",
          "type": "bytes32"
        },
        {
          "indexed": true,
          "internalType": "address",
          "name": "account",
          "type": "address"
        },
        {
          "indexed": true,
          "internalType": "address",
          "name": "sender",
          "type": "address"
        }
      ],
      "name": "RoleRevoked",
      "type": "event"
    },
    {
      "anonymous": false,
      "inputs": [
        {
          "indexed": true,
          "internalType": "address",
          "name": "from",
          "type": "address"
        },
        {
          "indexed": true,
          "internalType": "address",
          "name": "to",
          "type": "address"
        },
        {
          "indexed": true,
          "internalType": "uint256",
          "name": "tokenId",
          "type": "uint256"
        }
      ],
      "name": "Transfer",
      "type": "event"
    },
    {
      "anonymous": false,
      "inputs": [
        {
          "indexed": false,
          "internalType": "address",
          "name": "account",
          "type": "address"
        }
      ],
      "name": "Unpaused",
      "type": "event"
    },
    {
      "inputs": [],
      "name": "DEFAULT_ADMIN_ROLE",
      "outputs": [
        {
          "internalType": "bytes32",
          "name": "",
          "type": "bytes32"
        }
      ],
      "stateMutability": "view",
      "type": "function"
    },
    {
      "inputs": [],
      "name": "MAX_MINT_PER_ADDRESS",
      "outputs": [
        {
          "internalType": "uint256",
          "name": "",
          "type": "uint256"
        }
      ],
      "stateMutability": "view",
      "type": "function"
    },
    {
      "inputs": [],
      "name": "MINTER_ROLE",
      "outputs": [
        {
          "internalType": "bytes32",
          "name": "",
          "type": "bytes32"
        }
      ],
      "stateMutability": "view",
      "type": "function"
    },
    {
      "inputs": [],
      "name": "PAUSER_ROLE",
      "outputs": [
        {
          "internalType": "bytes32",
          "name": "",
          "type": "bytes32"
        }
      ],
      "stateMutability": "view",
      "type": "function"
    },
    {
      "inputs": [],
      "name": "WITHDRAWAL_ROLE",
      "outputs": [
        {
          "internalType": "bytes32",
          "name": "",
          "type": "bytes32"
        }
      ],
      "stateMutability": "view",
      "type": "function"
    },
    {
      "inputs": [
        {
          "internalType": "address",
          "name": "to",
          "type": "address"
        },
        {
          "internalType": "uint256",
          "name": "tokenId",
          "type": "uint256"
        }
      ],
      "name": "approve",
      "outputs": [],
      "stateMutability": "nonpayable",
      "type": "function"
    },
    {
      "inputs": [
        {
          "internalType": "address",
          "name": "owner",
          "type": "address"
        }
      ],
      "name": "balanceOf",
      "outputs": [
        {
          "internalType": "uint256",
          "name": "",
          "type": "uint256"
        }
      ],
      "stateMutability": "view",
      "type": "function"
    },
    {
      "inputs": [],
      "name": "baseUri",
      "outputs": [
        {
          "internalType": "string",
          "name": "",
          "type": "string"
        }
      ],
      "stateMutability": "view",
      "type": "function"
    },
    {
      "inputs": [
        {
          "internalType": "uint256",
          "name": "tokenId",
          "type": "uint256"
        }
      ],
      "name": "getApproved",
      "outputs": [
        {
          "internalType": "address",
          "name": "",
          "type": "address"
        }
      ],
      "stateMutability": "view",
      "type": "function"
    },
    {
      "inputs": [
        {
          "internalType": "bytes32",
          "name": "role",
          "type": "bytes32"
        }
      ],
      "name": "getRoleAdmin",
      "outputs": [
        {
          "internalType": "bytes32",
          "name": "",
          "type": "bytes32"
        }
      ],
      "stateMutability": "view",
      "type": "function"
    },
    {
      "inputs": [
        {
          "internalType": "bytes32",
          "name": "role",
          "type": "bytes32"
        },
        {
          "internalType": "address",
          "name": "account",
          "type": "address"
        }
      ],
      "name": "grantRole",
      "outputs": [],
      "stateMutability": "nonpayable",
      "type": "function"
    },
    {
      "inputs": [
        {
          "internalType": "bytes32",
          "name": "role",
          "type": "bytes32"
        },
        {
          "internalType": "address",
          "name": "account",
          "type": "address"
        }
      ],
      "name": "hasRole",
      "outputs": [
        {
          "internalType": "bool",
          "name": "",
          "type": "bool"
        }
      ],
      "stateMutability": "view",
      "type": "function"
    },
    {
      "inputs": [
        {
          "internalType": "address",
          "name": "owner",
          "type": "address"
        },
        {
          "internalType": "address",
          "name": "operator",
          "type": "address"
        }
      ],
      "name": "isApprovedForAll",
      "outputs": [
        {
          "internalType": "bool",
          "name": "",
          "type": "bool"
        }
      ],
      "stateMutability": "view",
      "type": "function"
    },
    {
      "inputs": [],
      "name": "maxTokens",
      "outputs": [
        {
          "internalType": "uint256",
          "name": "",
          "type": "uint256"
        }
      ],
      "stateMutability": "view",
      "type": "function"
    },
    {
      "inputs": [],
      "name": "mintCost",
      "outputs": [
        {
          "internalType": "uint256",
          "name": "",
          "type": "uint256"
        }
      ],
      "stateMutability": "view",
      "type": "function"
    },
    {
      "inputs": [],
      "name": "name",
      "outputs": [
        {
          "internalType": "string",
          "name": "",
          "type": "string"
        }
      ],
      "stateMutability": "view",
      "type": "function"
    },
    {
      "inputs": [
        {
          "internalType": "uint256",
          "name": "tokenId",
          "type": "uint256"
        }
      ],
      "name": "ownerOf",
      "outputs": [
        {
          "internalType": "address",
          "name": "",
          "type": "address"
        }
      ],
      "stateMutability": "view",
      "type": "function"
    },
    {
      "inputs": [],
      "name": "paused",
      "outputs": [
        {
          "internalType": "bool",
          "name": "",
          "type": "bool"
        }
      ],
      "stateMutability": "view",
      "type": "function"
    },
    {
      "inputs": [
        {
          "internalType": "bytes32",
          "name": "role",
          "type": "bytes32"
        },
        {
          "internalType": "address",
          "name": "account",
          "type": "address"
        }
      ],
      "name": "renounceRole",
      "outputs": [],
      "stateMutability": "nonpayable",
      "type": "function"
    },
    {
      "inputs": [
        {
          "internalType": "bytes32",
          "name": "role",
          "type": "bytes32"
        },
        {
          "internalType": "address",
          "name": "account",
          "type": "address"
        }
      ],
      "name": "revokeRole",
      "outputs": [],
      "stateMutability": "nonpayable",
      "type": "function"
    },
    {
      "inputs": [
        {
          "internalType": "address",
          "name": "from",
          "type": "address"
        },
        {
          "internalType": "address",
          "name": "to",
          "type": "address"
        },
        {
          "internalType": "uint256",
          "name": "tokenId",
          "type": "uint256"
        }
      ],
      "name": "safeTransferFrom",
      "outputs": [],
      "stateMutability": "nonpayable",
      "type": "function"
    },
    {
      "inputs": [
        {
          "internalType": "address",
          "name": "from",
          "type": "address"
        },
        {
          "internalType": "address",
          "name": "to",
          "type": "address"
        },
        {
          "internalType": "uint256",
          "name": "tokenId",
          "type": "uint256"
        },
        {
          "internalType": "bytes",
          "name": "_data",
          "type": "bytes"
        }
      ],
      "name": "safeTransferFrom",
      "outputs": [],
      "stateMutability": "nonpayable",
      "type": "function"
    },
    {
      "inputs": [
        {
          "internalType": "address",
          "name": "operator",
          "type": "address"
        },
        {
          "internalType": "bool",
          "name": "approved",
          "type": "bool"
        }
      ],
      "name": "setApprovalForAll",
      "outputs": [],
      "stateMutability": "nonpayable",
      "type": "function"
    },
    {
      "inputs": [],
      "name": "symbol",
      "outputs": [
        {
          "internalType": "string",
          "name": "",
          "type": "string"
        }
      ],
      "stateMutability": "view",
      "type": "function"
    },
    {
      "inputs": [],
      "name": "teamAddress",
      "outputs": [
        {
          "internalType": "address",
          "name": "",
          "type": "address"
        }
      ],
      "stateMutability": "view",
      "type": "function"
    },
    {
      "inputs": [
        {
          "internalType": "uint256",
          "name": "index",
          "type": "uint256"
        }
      ],
      "name": "tokenByIndex",
      "outputs": [
        {
          "internalType": "uint256",
          "name": "",
          "type": "uint256"
        }
      ],
      "stateMutability": "view",
      "type": "function"
    },
    {
      "inputs": [
        {
          "internalType": "address",
          "name": "owner",
          "type": "address"
        },
        {
          "internalType": "uint256",
          "name": "index",
          "type": "uint256"
        }
      ],
      "name": "tokenOfOwnerByIndex",
      "outputs": [
        {
          "internalType": "uint256",
          "name": "",
          "type": "uint256"
        }
      ],
      "stateMutability": "view",
      "type": "function"
    },
    {
      "inputs": [],
      "name": "totalSupply",
      "outputs": [
        {
          "internalType": "uint256",
          "name": "",
          "type": "uint256"
        }
      ],
      "stateMutability": "view",
      "type": "function"
    },
    {
      "inputs": [
        {
          "internalType": "address",
          "name": "from",
          "type": "address"
        },
        {
          "internalType": "address",
          "name": "to",
          "type": "address"
        },
        {
          "internalType": "uint256",
          "name": "tokenId",
          "type": "uint256"
        }
      ],
      "name": "transferFrom",
      "outputs": [],
      "stateMutability": "nonpayable",
      "type": "function"
    },
    {
      "inputs": [],
      "name": "devClaim",
      "outputs": [],
      "stateMutability": "nonpayable",
      "type": "function"
    },
    {
      "inputs": [
        {
          "internalType": "uint256",
          "name": "amount",
          "type": "uint256"
        }
      ],
      "name": "mint",
      "outputs": [],
      "stateMutability": "payable",
      "type": "function"
    },
    {
      "inputs": [],
      "name": "nextTokenId",
      "outputs": [
        {
          "internalType": "uint256",
          "name": "",
          "type": "uint256"
        }
      ],
      "stateMutability": "view",
      "type": "function"
    },
    {
      "inputs": [],
      "name": "pause",
      "outputs": [],
      "stateMutability": "nonpayable",
      "type": "function"
    },
    {
      "inputs": [
        {
          "internalType": "string",
          "name": "_baseUri",
          "type": "string"
        }
      ],
      "name": "setBaseUri",
      "outputs": [],
      "stateMutability": "nonpayable",
      "type": "function"
    },
    {
      "inputs": [
        {
          "internalType": "uint256",
          "name": "max",
          "type": "uint256"
        }
      ],
      "name": "setMaxTokens",
      "outputs": [],
      "stateMutability": "nonpayable",
      "type": "function"
    },
    {
      "inputs": [
        {
          "internalType": "address",
          "name": "_owner",
          "type": "address"
        }
      ],
      "name": "tokensOfOwner",
      "outputs": [
        {
          "internalType": "uint256[]",
          "name": "",
          "type": "uint256[]"
        }
      ],
      "stateMutability": "view",
      "type": "function"
    },
    {
      "inputs": [
        {
          "internalType": "uint256",
          "name": "tokenId",
          "type": "uint256"
        }
      ],
      "name": "tokenURI",
      "outputs": [
        {
          "internalType": "string",
          "name": "",
          "type": "string"
        }
      ],
      "stateMutability": "view",
      "type": "function"
    },
    {
      "inputs": [],
      "name": "unpause",
      "outputs": [],
      "stateMutability": "nonpayable",
      "type": "function"
    },
    {
      "inputs": [],
      "name": "withdraw",
      "outputs": [],
      "stateMutability": "payable",
      "type": "function"
    },
    {
      "inputs": [
        {
          "internalType": "bytes4",
          "name": "interfaceId",
          "type": "bytes4"
        }
      ],
      "name": "supportsInterface",
      "outputs": [
        {
          "internalType": "bool",
          "name": "",
          "type": "bool"
        }
      ],
      "stateMutability": "view",
      "type": "function"
    }
  ],
  "bytecode": "0x60806040526122b86010553480156200001757600080fd5b506040516200528e3803806200528e83398181016040528101906200003d91906200050a565b6040518060400160405280601181526020017f436f6c64204265686176696f72204e46540000000000000000000000000000008152506040518060400160405280600381526020017f43424e00000000000000000000000000000000000000000000000000000000008152508160009080519060200190620000c1929190620003f0565b508060019080519060200190620000da929190620003f0565b5050506000600b60006101000a81548160ff0219169083151502179055506200010d6000801b336200028b60201b60201c565b6200013f7f9f2df0fed2c77648de5860a4cc508cd0818c85b8b8a1ab4ceeef8d981c8956a6336200028b60201b60201c565b620001717f65d7a28e3265b37a6474929f336521b332c1681b933f6cb9f3376673440d862a336200028b60201b60201c565b6040518060400160405280601e81526020017f68747470733a2f2f697066732e636f6c646265686176696f722e636f6d2f0000815250600f9080519060200190620001be929190620003f0565b5080600d60006101000a81548173ffffffffffffffffffffffffffffffffffffffff021916908373ffffffffffffffffffffffffffffffffffffffff160217905550600146146200021657655af3107a400062000220565b670429d069189e00005b67ffffffffffffffff16600c81905550620002847f0744af9828f5bfd2e0f842fd62674fe7c160a394d457c33e1a56eeae3a44a9ef600d60009054906101000a900473ffffffffffffffffffffffffffffffffffffffff166200028b60201b60201c565b50620005a1565b6200029d82826200037d60201b60201c565b62000379576001600a600084815260200190815260200160002060000160008373ffffffffffffffffffffffffffffffffffffffff1673ffffffffffffffffffffffffffffffffffffffff16815260200190815260200160002060006101000a81548160ff0219169083151502179055506200031e620003e860201b60201c565b73ffffffffffffffffffffffffffffffffffffffff168173ffffffffffffffffffffffffffffffffffffffff16837f2f8788117e7eff1d82e926ec794901d17c78024a50270940304540a733656f0d60405160405180910390a45b5050565b6000600a600084815260200190815260200160002060000160008373ffffffffffffffffffffffffffffffffffffffff1673ffffffffffffffffffffffffffffffffffffffff16815260200190815260200160002060009054906101000a900460ff16905092915050565b600033905090565b828054620003fe906200056b565b90600052602060002090601f0160209004810192826200042257600085556200046e565b82601f106200043d57805160ff19168380011785556200046e565b828001600101855582156200046e579182015b828111156200046d57825182559160200191906001019062000450565b5b5090506200047d919062000481565b5090565b5b808211156200049c57600081600090555060010162000482565b5090565b600080fd5b600073ffffffffffffffffffffffffffffffffffffffff82169050919050565b6000620004d282620004a5565b9050919050565b620004e481620004c5565b8114620004f057600080fd5b50565b6000815190506200050481620004d9565b92915050565b600060208284031215620005235762000522620004a0565b5b60006200053384828501620004f3565b91505092915050565b7f4e487b7100000000000000000000000000000000000000000000000000000000600052602260045260246000fd5b600060028204905060018216806200058457607f821691505b602082108114156200059b576200059a6200053c565b5b50919050565b614cdd80620005b16000396000f3fe60806040526004361061023b5760003560e01c806370a082311161012e578063a22cb465116100ab578063d53913931161006f578063d539139314610857578063d547741f14610882578063e63ab1e9146108ab578063e8315742146108d6578063e985e9c5146109015761023b565b8063a22cb46514610786578063ae979ae6146107af578063b88d4fde146107c6578063bdb4b848146107ef578063c87b56dd1461081a5761023b565b806395d89b41116100f257806395d89b41146106c05780639abc8320146106eb578063a0712d6814610716578063a0bcfc7f14610732578063a217fddf1461075b5761023b565b806370a08231146105c757806375794a3c146106045780638456cb591461062f5780638462151c1461064657806391d14854146106835761023b565b80632f745c59116101bc57806342842e0e1161018057806342842e0e146104ce5780634f6ccce7146104f75780635c975abb146105345780636352211e1461055f57806367db90c21461059c5761023b565b80632f745c591461041c57806336568abe146104595780633acd6cb2146104825780633ccfd60b146104ad5780633f4ba83a146104b75761023b565b806318160ddd1161020357806318160ddd146103375780631c75f0851461036257806323b872dd1461038d578063248a9ca3146103b65780632f2ff15d146103f35761023b565b806301ffc9a71461024057806306fdde031461027d578063081812fc146102a8578063095ea7b3146102e557806311e776fe1461030e575b600080fd5b34801561024c57600080fd5b50610267600480360381019061026291906132ad565b61093e565b60405161027491906132f5565b60405180910390f35b34801561028957600080fd5b50610292610950565b60405161029f91906133a9565b60405180910390f35b3480156102b457600080fd5b506102cf60048036038101906102ca9190613401565b6109e2565b6040516102dc919061346f565b60405180910390f35b3480156102f157600080fd5b5061030c600480360381019061030791906134b6565b610a67565b005b34801561031a57600080fd5b5061033560048036038101906103309190613401565b610b7f565b005b34801561034357600080fd5b5061034c610be8565b6040516103599190613505565b60405180910390f35b34801561036e57600080fd5b50610377610bf5565b604051610384919061346f565b60405180910390f35b34801561039957600080fd5b506103b460048036038101906103af9190613520565b610c1b565b005b3480156103c257600080fd5b506103dd60048036038101906103d891906135a9565b610c7b565b6040516103ea91906135e5565b60405180910390f35b3480156103ff57600080fd5b5061041a60048036038101906104159190613600565b610c9b565b005b34801561042857600080fd5b50610443600480360381019061043e91906134b6565b610cc4565b6040516104509190613505565b60405180910390f35b34801561046557600080fd5b50610480600480360381019061047b9190613600565b610d69565b005b34801561048e57600080fd5b50610497610dec565b6040516104a49190613505565b60405180910390f35b6104b5610df1565b005b3480156104c357600080fd5b506104cc610e6d565b005b3480156104da57600080fd5b506104f560048036038101906104f09190613520565b610eaa565b005b34801561050357600080fd5b5061051e60048036038101906105199190613401565b610eca565b60405161052b9190613505565b60405180910390f35b34801561054057600080fd5b50610549610f3b565b60405161055691906132f5565b60405180910390f35b34801561056b57600080fd5b5061058660048036038101906105819190613401565b610f52565b604051610593919061346f565b60405180910390f35b3480156105a857600080fd5b506105b1611004565b6040516105be91906135e5565b60405180910390f35b3480156105d357600080fd5b506105ee60048036038101906105e99190613640565b611028565b6040516105fb9190613505565b60405180910390f35b34801561061057600080fd5b506106196110e0565b6040516106269190613505565b60405180910390f35b34801561063b57600080fd5b506106446110f1565b005b34801561065257600080fd5b5061066d60048036038101906106689190613640565b61112e565b60405161067a919061372b565b60405180910390f35b34801561068f57600080fd5b506106aa60048036038101906106a59190613600565b611238565b6040516106b791906132f5565b60405180910390f35b3480156106cc57600080fd5b506106d56112a3565b6040516106e291906133a9565b60405180910390f35b3480156106f757600080fd5b50610700611335565b60405161070d91906133a9565b60405180910390f35b610730600480360381019061072b9190613401565b6113c3565b005b34801561073e57600080fd5b5061075960048036038101906107549190613882565b611573565b005b34801561076757600080fd5b506107706115a3565b60405161077d91906135e5565b60405180910390f35b34801561079257600080fd5b506107ad60048036038101906107a891906138f7565b6115aa565b005b3480156107bb57600080fd5b506107c46115c0565b005b3480156107d257600080fd5b506107ed60048036038101906107e891906139d8565b61163f565b005b3480156107fb57600080fd5b506108046116a1565b6040516108119190613505565b60405180910390f35b34801561082657600080fd5b50610841600480360381019061083c9190613401565b6116a7565b60405161084e91906133a9565b60405180910390f35b34801561086357600080fd5b5061086c61181a565b60405161087991906135e5565b60405180910390f35b34801561088e57600080fd5b506108a960048036038101906108a49190613600565b61183e565b005b3480156108b757600080fd5b506108c0611867565b6040516108cd91906135e5565b60405180910390f35b3480156108e257600080fd5b506108eb61188b565b6040516108f89190613505565b60405180910390f35b34801561090d57600080fd5b5061092860048036038101906109239190613a5b565b611891565b60405161093591906132f5565b60405180910390f35b600061094982611925565b9050919050565b60606000805461095f90613aca565b80601f016020809104026020016040519081016040528092919081815260200182805461098b90613aca565b80156109d85780601f106109ad576101008083540402835291602001916109d8565b820191906000526020600020905b8154815290600101906020018083116109bb57829003601f168201915b5050505050905090565b60006109ed8261199f565b610a2c576040517f08c379a0000000000000000000000000000000000000000000000000000000008152600401610a2390613b6e565b60405180910390fd5b6004600083815260200190815260200160002060009054906101000a900473ffffffffffffffffffffffffffffffffffffffff169050919050565b6000610a7282610f52565b90508073ffffffffffffffffffffffffffffffffffffffff168373ffffffffffffffffffffffffffffffffffffffff161415610ae3576040517f08c379a0000000000000000000000000000000000000000000000000000000008152600401610ada90613c00565b60405180910390fd5b8073ffffffffffffffffffffffffffffffffffffffff16610b02611a0b565b73ffffffffffffffffffffffffffffffffffffffff161480610b315750610b3081610b2b611a0b565b611891565b5b610b70576040517f08c379a0000000000000000000000000000000000000000000000000000000008152600401610b6790613c92565b60405180910390fd5b610b7a8383611a13565b505050565b6000801b610b9481610b8f611a0b565b611acc565b610b9c610be8565b8211610bdd576040517f08c379a0000000000000000000000000000000000000000000000000000000008152600401610bd490613d24565b60405180910390fd5b816010819055505050565b6000600880549050905090565b600d60009054906101000a900473ffffffffffffffffffffffffffffffffffffffff1681565b610c2c610c26611a0b565b82611b69565b610c6b576040517f08c379a0000000000000000000000000000000000000000000000000000000008152600401610c6290613db6565b60405180910390fd5b610c76838383611c47565b505050565b6000600a6000838152602001908152602001600020600101549050919050565b610ca482610c7b565b610cb581610cb0611a0b565b611acc565b610cbf8383611ea3565b505050565b6000610ccf83611028565b8210610d10576040517f08c379a0000000000000000000000000000000000000000000000000000000008152600401610d0790613e48565b60405180910390fd5b600660008473ffffffffffffffffffffffffffffffffffffffff1673ffffffffffffffffffffffffffffffffffffffff168152602001908152602001600020600083815260200190815260200160002054905092915050565b610d71611a0b565b73ffffffffffffffffffffffffffffffffffffffff168173ffffffffffffffffffffffffffffffffffffffff1614610dde576040517f08c379a0000000000000000000000000000000000000000000000000000000008152600401610dd590613eda565b60405180910390fd5b610de88282611f84565b5050565b600281565b7f0744af9828f5bfd2e0f842fd62674fe7c160a394d457c33e1a56eeae3a44a9ef610e2381610e1e611a0b565b611acc565b3373ffffffffffffffffffffffffffffffffffffffff166108fc479081150290604051600060405180830381858888f19350505050158015610e69573d6000803e3d6000fd5b5050565b7f65d7a28e3265b37a6474929f336521b332c1681b933f6cb9f3376673440d862a610e9f81610e9a611a0b565b611acc565b610ea7612066565b50565b610ec58383836040518060200160405280600081525061163f565b505050565b6000610ed4610be8565b8210610f15576040517f08c379a0000000000000000000000000000000000000000000000000000000008152600401610f0c90613f6c565b60405180910390fd5b60088281548110610f2957610f28613f8c565b5b90600052602060002001549050919050565b6000600b60009054906101000a900460ff16905090565b6000806002600084815260200190815260200160002060009054906101000a900473ffffffffffffffffffffffffffffffffffffffff169050600073ffffffffffffffffffffffffffffffffffffffff168173ffffffffffffffffffffffffffffffffffffffff161415610ffb576040517f08c379a0000000000000000000000000000000000000000000000000000000008152600401610ff29061402d565b60405180910390fd5b80915050919050565b7f0744af9828f5bfd2e0f842fd62674fe7c160a394d457c33e1a56eeae3a44a9ef81565b60008073ffffffffffffffffffffffffffffffffffffffff168273ffffffffffffffffffffffffffffffffffffffff161415611099576040517f08c379a0000000000000000000000000000000000000000000000000000000008152600401611090906140bf565b60405180910390fd5b600360008373ffffffffffffffffffffffffffffffffffffffff1673ffffffffffffffffffffffffffffffffffffffff168152602001908152602001600020549050919050565b60006110ec600e612108565b905090565b7f65d7a28e3265b37a6474929f336521b332c1681b933f6cb9f3376673440d862a6111238161111e611a0b565b611acc565b61112b612116565b50565b6060600061113b83611028565b9050600081141561119857600067ffffffffffffffff81111561116157611160613757565b5b60405190808252806020026020018201604052801561118f5781602001602082028036833780820191505090505b50915050611233565b60008167ffffffffffffffff8111156111b4576111b3613757565b5b6040519080825280602002602001820160405280156111e25781602001602082028036833780820191505090505b50905060005b8281101561122c576111fa8582610cc4565b82828151811061120d5761120c613f8c565b5b60200260200101818152505080806112249061410e565b9150506111e8565b8193505050505b919050565b6000600a600084815260200190815260200160002060000160008373ffffffffffffffffffffffffffffffffffffffff1673ffffffffffffffffffffffffffffffffffffffff16815260200190815260200160002060009054906101000a900460ff16905092915050565b6060600180546112b290613aca565b80601f01602080910402602001604051908101604052809291908181526020018280546112de90613aca565b801561132b5780601f106113005761010080835404028352916020019161132b565b820191906000526020600020905b81548152906001019060200180831161130e57829003601f168201915b5050505050905090565b600f805461134290613aca565b80601f016020809104026020016040519081016040528092919081815260200182805461136e90613aca565b80156113bb5780601f10611390576101008083540402835291602001916113bb565b820191906000526020600020905b81548152906001019060200180831161139e57829003601f168201915b505050505081565b6113cb610f3b565b1561140b576040517f08c379a0000000000000000000000000000000000000000000000000000000008152600401611402906141a3565b60405180910390fd5b7f9f2df0fed2c77648de5860a4cc508cd0818c85b8b8a1ab4ceeef8d981c8956a661143d81611438611a0b565b611acc565b600c548261144b91906141c3565b341461148c576040517f08c379a00000000000000000000000000000000000000000000000000000000081526004016114839061428f565b60405180910390fd5b600061149733611028565b9050600281846114a791906142af565b11156114e8576040517f08c379a00000000000000000000000000000000000000000000000000000000081526004016114df90614351565b60405180910390fd5b60005b8381101561156d5760006114ff600e612108565b90506010548110611545576040517f08c379a000000000000000000000000000000000000000000000000000000000815260040161153c906143e3565b60405180910390fd5b61154f600e6121b9565b61155933826121cf565b5080806115659061410e565b9150506114eb565b50505050565b6000801b61158881611583611a0b565b611acc565b81600f908051906020019061159e92919061319e565b505050565b6000801b81565b6115bc6115b5611a0b565b83836121ed565b5050565b6000801b6115d5816115d0611a0b565b611acc565b60006115e1600e612108565b90506010548110611627576040517f08c379a000000000000000000000000000000000000000000000000000000000815260040161161e906143e3565b60405180910390fd5b611631600e6121b9565b61163b33826121cf565b5050565b61165061164a611a0b565b83611b69565b61168f576040517f08c379a000000000000000000000000000000000000000000000000000000000815260040161168690613db6565b60405180910390fd5b61169b8484848461235a565b50505050565b600c5481565b60606116b28261199f565b6116f1576040517f08c379a00000000000000000000000000000000000000000000000000000000081526004016116e890614475565b60405180910390fd5b600060116000848152602001908152602001600020805461171190613aca565b80601f016020809104026020016040519081016040528092919081815260200182805461173d90613aca565b801561178a5780601f1061175f5761010080835404028352916020019161178a565b820191906000526020600020905b81548152906001019060200180831161176d57829003601f168201915b50505050509050600061179b6123b6565b90506000815114156117b1578192505050611815565b6000825111156117e65780826040516020016117ce9291906144d1565b60405160208183030381529060405292505050611815565b806117f085612448565b604051602001611801929190614541565b604051602081830303815290604052925050505b919050565b7f9f2df0fed2c77648de5860a4cc508cd0818c85b8b8a1ab4ceeef8d981c8956a681565b61184782610c7b565b61185881611853611a0b565b611acc565b6118628383611f84565b505050565b7f65d7a28e3265b37a6474929f336521b332c1681b933f6cb9f3376673440d862a81565b60105481565b6000600560008473ffffffffffffffffffffffffffffffffffffffff1673ffffffffffffffffffffffffffffffffffffffff16815260200190815260200160002060008373ffffffffffffffffffffffffffffffffffffffff1673ffffffffffffffffffffffffffffffffffffffff16815260200190815260200160002060009054906101000a900460ff16905092915050565b60007f7965db0b000000000000000000000000000000000000000000000000000000007bffffffffffffffffffffffffffffffffffffffffffffffffffffffff1916827bffffffffffffffffffffffffffffffffffffffffffffffffffffffff191614806119985750611997826125a9565b5b9050919050565b60008073ffffffffffffffffffffffffffffffffffffffff166002600084815260200190815260200160002060009054906101000a900473ffffffffffffffffffffffffffffffffffffffff1673ffffffffffffffffffffffffffffffffffffffff1614159050919050565b600033905090565b816004600083815260200190815260200160002060006101000a81548173ffffffffffffffffffffffffffffffffffffffff021916908373ffffffffffffffffffffffffffffffffffffffff160217905550808273ffffffffffffffffffffffffffffffffffffffff16611a8683610f52565b73ffffffffffffffffffffffffffffffffffffffff167f8c5be1e5ebec7d5bd14f71427d1e84f3dd0314c0f7b2291e5b200ac8c7c3b92560405160405180910390a45050565b611ad68282611238565b611b6557611afb8173ffffffffffffffffffffffffffffffffffffffff166014612623565b611b098360001c6020612623565b604051602001611b1a929190614608565b6040516020818303038152906040526040517f08c379a0000000000000000000000000000000000000000000000000000000008152600401611b5c91906133a9565b60405180910390fd5b5050565b6000611b748261199f565b611bb3576040517f08c379a0000000000000000000000000000000000000000000000000000000008152600401611baa906146b4565b60405180910390fd5b6000611bbe83610f52565b90508073ffffffffffffffffffffffffffffffffffffffff168473ffffffffffffffffffffffffffffffffffffffff161480611c2d57508373ffffffffffffffffffffffffffffffffffffffff16611c15846109e2565b73ffffffffffffffffffffffffffffffffffffffff16145b80611c3e5750611c3d8185611891565b5b91505092915050565b8273ffffffffffffffffffffffffffffffffffffffff16611c6782610f52565b73ffffffffffffffffffffffffffffffffffffffff1614611cbd576040517f08c379a0000000000000000000000000000000000000000000000000000000008152600401611cb490614746565b60405180910390fd5b600073ffffffffffffffffffffffffffffffffffffffff168273ffffffffffffffffffffffffffffffffffffffff161415611d2d576040517f08c379a0000000000000000000000000000000000000000000000000000000008152600401611d24906147d8565b60405180910390fd5b611d3883838361285f565b611d43600082611a13565b6001600360008573ffffffffffffffffffffffffffffffffffffffff1673ffffffffffffffffffffffffffffffffffffffff1681526020019081526020016000206000828254611d9391906147f8565b925050819055506001600360008473ffffffffffffffffffffffffffffffffffffffff1673ffffffffffffffffffffffffffffffffffffffff1681526020019081526020016000206000828254611dea91906142af565b92505081905550816002600083815260200190815260200160002060006101000a81548173ffffffffffffffffffffffffffffffffffffffff021916908373ffffffffffffffffffffffffffffffffffffffff160217905550808273ffffffffffffffffffffffffffffffffffffffff168473ffffffffffffffffffffffffffffffffffffffff167fddf252ad1be2c89b69c2b068fc378daa952ba7f163c4a11628f55a4df523b3ef60405160405180910390a4505050565b611ead8282611238565b611f80576001600a600084815260200190815260200160002060000160008373ffffffffffffffffffffffffffffffffffffffff1673ffffffffffffffffffffffffffffffffffffffff16815260200190815260200160002060006101000a81548160ff021916908315150217905550611f25611a0b565b73ffffffffffffffffffffffffffffffffffffffff168173ffffffffffffffffffffffffffffffffffffffff16837f2f8788117e7eff1d82e926ec794901d17c78024a50270940304540a733656f0d60405160405180910390a45b5050565b611f8e8282611238565b15612062576000600a600084815260200190815260200160002060000160008373ffffffffffffffffffffffffffffffffffffffff1673ffffffffffffffffffffffffffffffffffffffff16815260200190815260200160002060006101000a81548160ff021916908315150217905550612007611a0b565b73ffffffffffffffffffffffffffffffffffffffff168173ffffffffffffffffffffffffffffffffffffffff16837ff6391f5c32d9c69d2a47ea670b442974b53935d1edc7fd64eb21e047a839171b60405160405180910390a45b5050565b61206e610f3b565b6120ad576040517f08c379a00000000000000000000000000000000000000000000000000000000081526004016120a490614878565b60405180910390fd5b6000600b60006101000a81548160ff0219169083151502179055507f5db9ee0a495bf2e6ff9c91a7834c1ba4fdd244a5e8aa4e537bd38aeae4b073aa6120f1611a0b565b6040516120fe919061346f565b60405180910390a1565b600081600001549050919050565b61211e610f3b565b1561215e576040517f08c379a0000000000000000000000000000000000000000000000000000000008152600401612155906141a3565b60405180910390fd5b6001600b60006101000a81548160ff0219169083151502179055507f62e78cea01bee320cd4e420270b5ea74000d11b0c9f74754ebdbfc544b05a2586121a2611a0b565b6040516121af919061346f565b60405180910390a1565b6001816000016000828254019250508190555050565b6121e982826040518060200160405280600081525061286f565b5050565b8173ffffffffffffffffffffffffffffffffffffffff168373ffffffffffffffffffffffffffffffffffffffff16141561225c576040517f08c379a0000000000000000000000000000000000000000000000000000000008152600401612253906148e4565b60405180910390fd5b80600560008573ffffffffffffffffffffffffffffffffffffffff1673ffffffffffffffffffffffffffffffffffffffff16815260200190815260200160002060008473ffffffffffffffffffffffffffffffffffffffff1673ffffffffffffffffffffffffffffffffffffffff16815260200190815260200160002060006101000a81548160ff0219169083151502179055508173ffffffffffffffffffffffffffffffffffffffff168373ffffffffffffffffffffffffffffffffffffffff167f17307eab39ab6107e8899845ad3d59bd9653f200f220920489ca2b5937696c318360405161234d91906132f5565b60405180910390a3505050565b612365848484611c47565b612371848484846128ca565b6123b0576040517f08c379a00000000000000000000000000000000000000000000000000000000081526004016123a790614976565b60405180910390fd5b50505050565b6060600f80546123c590613aca565b80601f01602080910402602001604051908101604052809291908181526020018280546123f190613aca565b801561243e5780601f106124135761010080835404028352916020019161243e565b820191906000526020600020905b81548152906001019060200180831161242157829003601f168201915b5050505050905090565b60606000821415612490576040518060400160405280600181526020017f300000000000000000000000000000000000000000000000000000000000000081525090506125a4565b600082905060005b600082146124c25780806124ab9061410e565b915050600a826124bb91906149c5565b9150612498565b60008167ffffffffffffffff8111156124de576124dd613757565b5b6040519080825280601f01601f1916602001820160405280156125105781602001600182028036833780820191505090505b5090505b6000851461259d5760018261252991906147f8565b9150600a8561253891906149f6565b603061254491906142af565b60f81b81838151811061255a57612559613f8c565b5b60200101907effffffffffffffffffffffffffffffffffffffffffffffffffffffffffffff1916908160001a905350600a8561259691906149c5565b9450612514565b8093505050505b919050565b60007f780e9d63000000000000000000000000000000000000000000000000000000007bffffffffffffffffffffffffffffffffffffffffffffffffffffffff1916827bffffffffffffffffffffffffffffffffffffffffffffffffffffffff1916148061261c575061261b82612a52565b5b9050919050565b60606000600283600261263691906141c3565b61264091906142af565b67ffffffffffffffff81111561265957612658613757565b5b6040519080825280601f01601f19166020018201604052801561268b5781602001600182028036833780820191505090505b5090507f3000000000000000000000000000000000000000000000000000000000000000816000815181106126c3576126c2613f8c565b5b60200101907effffffffffffffffffffffffffffffffffffffffffffffffffffffffffffff1916908160001a9053507f78000000000000000000000000000000000000000000000000000000000000008160018151811061272757612726613f8c565b5b60200101907effffffffffffffffffffffffffffffffffffffffffffffffffffffffffffff1916908160001a9053506000600184600261276791906141c3565b61277191906142af565b90505b6001811115612811577f3031323334353637383961626364656600000000000000000000000000000000600f8616601081106127b3576127b2613f8c565b5b1a60f81b8282815181106127ca576127c9613f8c565b5b60200101907effffffffffffffffffffffffffffffffffffffffffffffffffffffffffffff1916908160001a905350600485901c94508061280a90614a27565b9050612774565b5060008414612855576040517f08c379a000000000000000000000000000000000000000000000000000000000815260040161284c90614a9d565b60405180910390fd5b8091505092915050565b61286a838383612b34565b505050565b6128798383612c48565b61288660008484846128ca565b6128c5576040517f08c379a00000000000000000000000000000000000000000000000000000000081526004016128bc90614976565b60405180910390fd5b505050565b60006128eb8473ffffffffffffffffffffffffffffffffffffffff16612e16565b15612a45578373ffffffffffffffffffffffffffffffffffffffff1663150b7a02612914611a0b565b8786866040518563ffffffff1660e01b81526004016129369493929190614b12565b6020604051808303816000875af192505050801561297257506040513d601f19601f8201168201806040525081019061296f9190614b73565b60015b6129f5573d80600081146129a2576040519150601f19603f3d011682016040523d82523d6000602084013e6129a7565b606091505b506000815114156129ed576040517f08c379a00000000000000000000000000000000000000000000000000000000081526004016129e490614976565b60405180910390fd5b805181602001fd5b63150b7a0260e01b7bffffffffffffffffffffffffffffffffffffffffffffffffffffffff1916817bffffffffffffffffffffffffffffffffffffffffffffffffffffffff191614915050612a4a565b600190505b949350505050565b60007f80ac58cd000000000000000000000000000000000000000000000000000000007bffffffffffffffffffffffffffffffffffffffffffffffffffffffff1916827bffffffffffffffffffffffffffffffffffffffffffffffffffffffff19161480612b1d57507f5b5e139f000000000000000000000000000000000000000000000000000000007bffffffffffffffffffffffffffffffffffffffffffffffffffffffff1916827bffffffffffffffffffffffffffffffffffffffffffffffffffffffff1916145b80612b2d5750612b2c82612e29565b5b9050919050565b612b3f838383612e93565b600073ffffffffffffffffffffffffffffffffffffffff168373ffffffffffffffffffffffffffffffffffffffff161415612b8257612b7d81612e98565b612bc1565b8173ffffffffffffffffffffffffffffffffffffffff168373ffffffffffffffffffffffffffffffffffffffff1614612bc057612bbf8382612ee1565b5b5b600073ffffffffffffffffffffffffffffffffffffffff168273ffffffffffffffffffffffffffffffffffffffff161415612c0457612bff8161304e565b612c43565b8273ffffffffffffffffffffffffffffffffffffffff168273ffffffffffffffffffffffffffffffffffffffff1614612c4257612c41828261311f565b5b5b505050565b600073ffffffffffffffffffffffffffffffffffffffff168273ffffffffffffffffffffffffffffffffffffffff161415612cb8576040517f08c379a0000000000000000000000000000000000000000000000000000000008152600401612caf90614bec565b60405180910390fd5b612cc18161199f565b15612d01576040517f08c379a0000000000000000000000000000000000000000000000000000000008152600401612cf890614c58565b60405180910390fd5b612d0d6000838361285f565b6001600360008473ffffffffffffffffffffffffffffffffffffffff1673ffffffffffffffffffffffffffffffffffffffff1681526020019081526020016000206000828254612d5d91906142af565b92505081905550816002600083815260200190815260200160002060006101000a81548173ffffffffffffffffffffffffffffffffffffffff021916908373ffffffffffffffffffffffffffffffffffffffff160217905550808273ffffffffffffffffffffffffffffffffffffffff16600073ffffffffffffffffffffffffffffffffffffffff167fddf252ad1be2c89b69c2b068fc378daa952ba7f163c4a11628f55a4df523b3ef60405160405180910390a45050565b600080823b905060008111915050919050565b60007f01ffc9a7000000000000000000000000000000000000000000000000000000007bffffffffffffffffffffffffffffffffffffffffffffffffffffffff1916827bffffffffffffffffffffffffffffffffffffffffffffffffffffffff1916149050919050565b505050565b6008805490506009600083815260200190815260200160002081905550600881908060018154018082558091505060019003906000526020600020016000909190919091505550565b60006001612eee84611028565b612ef891906147f8565b9050600060076000848152602001908152602001600020549050818114612fdd576000600660008673ffffffffffffffffffffffffffffffffffffffff1673ffffffffffffffffffffffffffffffffffffffff168152602001908152602001600020600084815260200190815260200160002054905080600660008773ffffffffffffffffffffffffffffffffffffffff1673ffffffffffffffffffffffffffffffffffffffff168152602001908152602001600020600084815260200190815260200160002081905550816007600083815260200190815260200160002081905550505b6007600084815260200190815260200160002060009055600660008573ffffffffffffffffffffffffffffffffffffffff1673ffffffffffffffffffffffffffffffffffffffff16815260200190815260200160002060008381526020019081526020016000206000905550505050565b6000600160088054905061306291906147f8565b905060006009600084815260200190815260200160002054905060006008838154811061309257613091613f8c565b5b9060005260206000200154905080600883815481106130b4576130b3613f8c565b5b90600052602060002001819055508160096000838152602001908152602001600020819055506009600085815260200190815260200160002060009055600880548061310357613102614c78565b5b6001900381819060005260206000200160009055905550505050565b600061312a83611028565b905081600660008573ffffffffffffffffffffffffffffffffffffffff1673ffffffffffffffffffffffffffffffffffffffff168152602001908152602001600020600083815260200190815260200160002081905550806007600084815260200190815260200160002081905550505050565b8280546131aa90613aca565b90600052602060002090601f0160209004810192826131cc5760008555613213565b82601f106131e557805160ff1916838001178555613213565b82800160010185558215613213579182015b828111156132125782518255916020019190600101906131f7565b5b5090506132209190613224565b5090565b5b8082111561323d576000816000905550600101613225565b5090565b6000604051905090565b600080fd5b600080fd5b60007fffffffff0000000000000000000000000000000000000000000000000000000082169050919050565b61328a81613255565b811461329557600080fd5b50565b6000813590506132a781613281565b92915050565b6000602082840312156132c3576132c261324b565b5b60006132d184828501613298565b91505092915050565b60008115159050919050565b6132ef816132da565b82525050565b600060208201905061330a60008301846132e6565b92915050565b600081519050919050565b600082825260208201905092915050565b60005b8381101561334a57808201518184015260208101905061332f565b83811115613359576000848401525b50505050565b6000601f19601f8301169050919050565b600061337b82613310565b613385818561331b565b935061339581856020860161332c565b61339e8161335f565b840191505092915050565b600060208201905081810360008301526133c38184613370565b905092915050565b6000819050919050565b6133de816133cb565b81146133e957600080fd5b50565b6000813590506133fb816133d5565b92915050565b6000602082840312156134175761341661324b565b5b6000613425848285016133ec565b91505092915050565b600073ffffffffffffffffffffffffffffffffffffffff82169050919050565b60006134598261342e565b9050919050565b6134698161344e565b82525050565b60006020820190506134846000830184613460565b92915050565b6134938161344e565b811461349e57600080fd5b50565b6000813590506134b08161348a565b92915050565b600080604083850312156134cd576134cc61324b565b5b60006134db858286016134a1565b92505060206134ec858286016133ec565b9150509250929050565b6134ff816133cb565b82525050565b600060208201905061351a60008301846134f6565b92915050565b6000806000606084860312156135395761353861324b565b5b6000613547868287016134a1565b9350506020613558868287016134a1565b9250506040613569868287016133ec565b9150509250925092565b6000819050919050565b61358681613573565b811461359157600080fd5b50565b6000813590506135a38161357d565b92915050565b6000602082840312156135bf576135be61324b565b5b60006135cd84828501613594565b91505092915050565b6135df81613573565b82525050565b60006020820190506135fa60008301846135d6565b92915050565b600080604083850312156136175761361661324b565b5b600061362585828601613594565b9250506020613636858286016134a1565b9150509250929050565b6000602082840312156136565761365561324b565b5b6000613664848285016134a1565b91505092915050565b600081519050919050565b600082825260208201905092915050565b6000819050602082019050919050565b6136a2816133cb565b82525050565b60006136b48383613699565b60208301905092915050565b6000602082019050919050565b60006136d88261366d565b6136e28185613678565b93506136ed83613689565b8060005b8381101561371e57815161370588826136a8565b9750613710836136c0565b9250506001810190506136f1565b5085935050505092915050565b6000602082019050818103600083015261374581846136cd565b905092915050565b600080fd5b600080fd5b7f4e487b7100000000000000000000000000000000000000000000000000000000600052604160045260246000fd5b61378f8261335f565b810181811067ffffffffffffffff821117156137ae576137ad613757565b5b80604052505050565b60006137c1613241565b90506137cd8282613786565b919050565b600067ffffffffffffffff8211156137ed576137ec613757565b5b6137f68261335f565b9050602081019050919050565b82818337600083830152505050565b6000613825613820846137d2565b6137b7565b90508281526020810184848401111561384157613840613752565b5b61384c848285613803565b509392505050565b600082601f8301126138695761386861374d565b5b8135613879848260208601613812565b91505092915050565b6000602082840312156138985761389761324b565b5b600082013567ffffffffffffffff8111156138b6576138b5613250565b5b6138c284828501613854565b91505092915050565b6138d4816132da565b81146138df57600080fd5b50565b6000813590506138f1816138cb565b92915050565b6000806040838503121561390e5761390d61324b565b5b600061391c858286016134a1565b925050602061392d858286016138e2565b9150509250929050565b600067ffffffffffffffff82111561395257613951613757565b5b61395b8261335f565b9050602081019050919050565b600061397b61397684613937565b6137b7565b90508281526020810184848401111561399757613996613752565b5b6139a2848285613803565b509392505050565b600082601f8301126139bf576139be61374d565b5b81356139cf848260208601613968565b91505092915050565b600080600080608085870312156139f2576139f161324b565b5b6000613a00878288016134a1565b9450506020613a11878288016134a1565b9350506040613a22878288016133ec565b925050606085013567ffffffffffffffff811115613a4357613a42613250565b5b613a4f878288016139aa565b91505092959194509250565b60008060408385031215613a7257613a7161324b565b5b6000613a80858286016134a1565b9250506020613a91858286016134a1565b9150509250929050565b7f4e487b7100000000000000000000000000000000000000000000000000000000600052602260045260246000fd5b60006002820490506001821680613ae257607f821691505b60208210811415613af657613af5613a9b565b5b50919050565b7f4552433732313a20617070726f76656420717565727920666f72206e6f6e657860008201527f697374656e7420746f6b656e0000000000000000000000000000000000000000602082015250565b6000613b58602c8361331b565b9150613b6382613afc565b604082019050919050565b60006020820190508181036000830152613b8781613b4b565b9050919050565b7f4552433732313a20617070726f76616c20746f2063757272656e74206f776e6560008201527f7200000000000000000000000000000000000000000000000000000000000000602082015250565b6000613bea60218361331b565b9150613bf582613b8e565b604082019050919050565b60006020820190508181036000830152613c1981613bdd565b9050919050565b7f4552433732313a20617070726f76652063616c6c6572206973206e6f74206f7760008201527f6e6572206e6f7220617070726f76656420666f7220616c6c0000000000000000602082015250565b6000613c7c60388361331b565b9150613c8782613c20565b604082019050919050565b60006020820190508181036000830152613cab81613c6f565b9050919050565b7f4e6577206d61782063616e6e6f7420657863656564206578697374696e67207360008201527f7570706c79000000000000000000000000000000000000000000000000000000602082015250565b6000613d0e60258361331b565b9150613d1982613cb2565b604082019050919050565b60006020820190508181036000830152613d3d81613d01565b9050919050565b7f4552433732313a207472616e736665722063616c6c6572206973206e6f74206f60008201527f776e6572206e6f7220617070726f766564000000000000000000000000000000602082015250565b6000613da060318361331b565b9150613dab82613d44565b604082019050919050565b60006020820190508181036000830152613dcf81613d93565b9050919050565b7f455243373231456e756d657261626c653a206f776e657220696e646578206f7560008201527f74206f6620626f756e6473000000000000000000000000000000000000000000602082015250565b6000613e32602b8361331b565b9150613e3d82613dd6565b604082019050919050565b60006020820190508181036000830152613e6181613e25565b9050919050565b7f416363657373436f6e74726f6c3a2063616e206f6e6c792072656e6f756e636560008201527f20726f6c657320666f722073656c660000000000000000000000000000000000602082015250565b6000613ec4602f8361331b565b9150613ecf82613e68565b604082019050919050565b60006020820190508181036000830152613ef381613eb7565b9050919050565b7f455243373231456e756d657261626c653a20676c6f62616c20696e646578206f60008201527f7574206f6620626f756e64730000000000000000000000000000000000000000602082015250565b6000613f56602c8361331b565b9150613f6182613efa565b604082019050919050565b60006020820190508181036000830152613f8581613f49565b9050919050565b7f4e487b7100000000000000000000000000000000000000000000000000000000600052603260045260246000fd5b7f4552433732313a206f776e657220717565727920666f72206e6f6e657869737460008201527f656e7420746f6b656e0000000000000000000000000000000000000000000000602082015250565b600061401760298361331b565b915061402282613fbb565b604082019050919050565b600060208201905081810360008301526140468161400a565b9050919050565b7f4552433732313a2062616c616e636520717565727920666f7220746865207a6560008201527f726f206164647265737300000000000000000000000000000000000000000000602082015250565b60006140a9602a8361331b565b91506140b48261404d565b604082019050919050565b600060208201905081810360008301526140d88161409c565b9050919050565b7f4e487b7100000000000000000000000000000000000000000000000000000000600052601160045260246000fd5b6000614119826133cb565b91507fffffffffffffffffffffffffffffffffffffffffffffffffffffffffffffffff82141561414c5761414b6140df565b5b600182019050919050565b7f5061757361626c653a2070617573656400000000000000000000000000000000600082015250565b600061418d60108361331b565b915061419882614157565b602082019050919050565b600060208201905081810360008301526141bc81614180565b9050919050565b60006141ce826133cb565b91506141d9836133cb565b9250817fffffffffffffffffffffffffffffffffffffffffffffffffffffffffffffffff0483118215151615614212576142116140df565b5b828202905092915050565b7f5472616e73616374696f6e2076616c756520646f6573206e6f74206d6174636860008201527f20746865206d696e7420636f7374000000000000000000000000000000000000602082015250565b6000614279602e8361331b565b91506142848261421d565b604082019050919050565b600060208201905081810360008301526142a88161426c565b9050919050565b60006142ba826133cb565b91506142c5836133cb565b9250827fffffffffffffffffffffffffffffffffffffffffffffffffffffffffffffffff038211156142fa576142f96140df565b5b828201905092915050565b7f4578636565646564206d696e74696e67206c696d697400000000000000000000600082015250565b600061433b60168361331b565b915061434682614305565b602082019050919050565b6000602082019050818103600083015261436a8161432e565b9050919050565b7f4e6f206d6f726520746f6b656e732061726520617661696c61626c6520746f2060008201527f6d696e7400000000000000000000000000000000000000000000000000000000602082015250565b60006143cd60248361331b565b91506143d882614371565b604082019050919050565b600060208201905081810360008301526143fc816143c0565b9050919050565b7f4552433732314d657461646174613a2055524920717565727920666f72206e6f60008201527f6e6578697374656e7420746f6b656e0000000000000000000000000000000000602082015250565b600061445f602f8361331b565b915061446a82614403565b604082019050919050565b6000602082019050818103600083015261448e81614452565b9050919050565b600081905092915050565b60006144ab82613310565b6144b58185614495565b93506144c581856020860161332c565b80840191505092915050565b60006144dd82856144a0565b91506144e982846144a0565b91508190509392505050565b7f2e6a736f6e000000000000000000000000000000000000000000000000000000600082015250565b600061452b600583614495565b9150614536826144f5565b600582019050919050565b600061454d82856144a0565b915061455982846144a0565b91506145648261451e565b91508190509392505050565b7f416363657373436f6e74726f6c3a206163636f756e7420000000000000000000600082015250565b60006145a6601783614495565b91506145b182614570565b601782019050919050565b7f206973206d697373696e6720726f6c6520000000000000000000000000000000600082015250565b60006145f2601183614495565b91506145fd826145bc565b601182019050919050565b600061461382614599565b915061461f82856144a0565b915061462a826145e5565b915061463682846144a0565b91508190509392505050565b7f4552433732313a206f70657261746f7220717565727920666f72206e6f6e657860008201527f697374656e7420746f6b656e0000000000000000000000000000000000000000602082015250565b600061469e602c8361331b565b91506146a982614642565b604082019050919050565b600060208201905081810360008301526146cd81614691565b9050919050565b7f4552433732313a207472616e73666572206f6620746f6b656e2074686174206960008201527f73206e6f74206f776e0000000000000000000000000000000000000000000000602082015250565b600061473060298361331b565b915061473b826146d4565b604082019050919050565b6000602082019050818103600083015261475f81614723565b9050919050565b7f4552433732313a207472616e7366657220746f20746865207a65726f2061646460008201527f7265737300000000000000000000000000000000000000000000000000000000602082015250565b60006147c260248361331b565b91506147cd82614766565b604082019050919050565b600060208201905081810360008301526147f1816147b5565b9050919050565b6000614803826133cb565b915061480e836133cb565b925082821015614821576148206140df565b5b828203905092915050565b7f5061757361626c653a206e6f7420706175736564000000000000000000000000600082015250565b600061486260148361331b565b915061486d8261482c565b602082019050919050565b6000602082019050818103600083015261489181614855565b9050919050565b7f4552433732313a20617070726f766520746f2063616c6c657200000000000000600082015250565b60006148ce60198361331b565b91506148d982614898565b602082019050919050565b600060208201905081810360008301526148fd816148c1565b9050919050565b7f4552433732313a207472616e7366657220746f206e6f6e20455243373231526560008201527f63656976657220696d706c656d656e7465720000000000000000000000000000602082015250565b600061496060328361331b565b915061496b82614904565b604082019050919050565b6000602082019050818103600083015261498f81614953565b9050919050565b7f4e487b7100000000000000000000000000000000000000000000000000000000600052601260045260246000fd5b60006149d0826133cb565b91506149db836133cb565b9250826149eb576149ea614996565b5b828204905092915050565b6000614a01826133cb565b9150614a0c836133cb565b925082614a1c57614a1b614996565b5b828206905092915050565b6000614a32826133cb565b91506000821415614a4657614a456140df565b5b600182039050919050565b7f537472696e67733a20686578206c656e67746820696e73756666696369656e74600082015250565b6000614a8760208361331b565b9150614a9282614a51565b602082019050919050565b60006020820190508181036000830152614ab681614a7a565b9050919050565b600081519050919050565b600082825260208201905092915050565b6000614ae482614abd565b614aee8185614ac8565b9350614afe81856020860161332c565b614b078161335f565b840191505092915050565b6000608082019050614b276000830187613460565b614b346020830186613460565b614b4160408301856134f6565b8181036060830152614b538184614ad9565b905095945050505050565b600081519050614b6d81613281565b92915050565b600060208284031215614b8957614b8861324b565b5b6000614b9784828501614b5e565b91505092915050565b7f4552433732313a206d696e7420746f20746865207a65726f2061646472657373600082015250565b6000614bd660208361331b565b9150614be182614ba0565b602082019050919050565b60006020820190508181036000830152614c0581614bc9565b9050919050565b7f4552433732313a20746f6b656e20616c7265616479206d696e74656400000000600082015250565b6000614c42601c8361331b565b9150614c4d82614c0c565b602082019050919050565b60006020820190508181036000830152614c7181614c35565b9050919050565b7f4e487b7100000000000000000000000000000000000000000000000000000000600052603160045260246000fdfea2646970667358221220cd2190ca6cd2a07db91e8c89418299eabee9f37f0b9eeb41032615925d936e5964736f6c634300080a0033",
  "immutableReferences": {},
  "source": "// SPDX-License-Identifier: MIT\npragma solidity ^0.8.4;\n\nimport \"@openzeppelin/contracts/token/ERC721/ERC721.sol\";\nimport \"@openzeppelin/contracts/access/AccessControl.sol\";\nimport \"@openzeppelin/contracts/utils/Counters.sol\";\nimport \"@openzeppelin/contracts/security/Pausable.sol\";\nimport \"@openzeppelin/contracts/token/ERC721/extensions/ERC721Enumerable.sol\";\nimport \"@openzeppelin/contracts/token/ERC721/extensions/IERC721Metadata.sol\";\nimport \"@openzeppelin/contracts/utils/Strings.sol\";\n\ncontract ColdBehaviorNFT is ERC721, ERC721Enumerable, AccessControl, Pausable {\n    using Counters for Counters.Counter;\n    using Strings for uint256;\n\n    uint256 public constant MAX_MINT_PER_ADDRESS = 2;\n    uint256 public mintCost;\n    bytes32 public constant MINTER_ROLE = keccak256(\"MINTER_ROLE\");\n    bytes32 public constant PAUSER_ROLE = keccak256(\"PAUSER_ROLE\");\n    bytes32 public constant WITHDRAWAL_ROLE = keccak256(\"WITHDRAWAL_ROLE\");\n    address public teamAddress;\n\n    Counters.Counter private _tokenIdCounter;\n    string public baseUri;\n    uint256 public maxTokens = 8888;\n    \n    // Optional mapping for token URIs\n    mapping(uint256 => string) private _tokenURIs;\n\n    constructor(address _teamAddress) ERC721(\"Cold Behavior NFT\", \"CBN\") {\n        _grantRole(DEFAULT_ADMIN_ROLE, msg.sender);\n        _grantRole(MINTER_ROLE, msg.sender);\n        _grantRole(PAUSER_ROLE, msg.sender);\n\n        baseUri = \"https://ipfs.coldbehavior.com/\";\n        teamAddress = _teamAddress;\n\n        mintCost = block.chainid == 1 ? 0.3 ether : 0.0001 ether;\n\n        _grantRole(WITHDRAWAL_ROLE, teamAddress);\n    }\n\n    function _baseURI() internal view override returns (string memory) {\n        return baseUri;\n    }\n\n    function devClaim() external onlyRole(DEFAULT_ADMIN_ROLE) {\n        uint256 tokenId = _tokenIdCounter.current();\n        require(tokenId < maxTokens, \"No more tokens are available to mint\");\n\n        _tokenIdCounter.increment();\n        _safeMint(msg.sender, tokenId);\n    }\n\n    function mint(uint256 amount)\n        public\n        payable\n        whenNotPaused\n        onlyRole(MINTER_ROLE)\n    {\n        require(\n            msg.value == amount * mintCost,\n            \"Transaction value does not match the mint cost\"\n        );\n        uint256 ownedTokens = balanceOf(msg.sender);\n        require(\n            amount + ownedTokens <= MAX_MINT_PER_ADDRESS,\n            \"Exceeded minting limit\"\n        );\n\n        for (uint256 i = 0; i < amount; i++) {\n            uint256 tokenId = _tokenIdCounter.current();\n            require(\n                tokenId < maxTokens,\n                \"No more tokens are available to mint\"\n            );\n\n            _tokenIdCounter.increment();\n            _safeMint(msg.sender, tokenId);\n        }\n    }\n\n    function nextTokenId() external view returns (uint256) {\n        return _tokenIdCounter.current();\n    }\n\n    function pause() public onlyRole(PAUSER_ROLE) {\n        _pause();\n    }\n\n    function setBaseUri(string memory _baseUri)\n        external\n        onlyRole(DEFAULT_ADMIN_ROLE)\n    {\n        baseUri = _baseUri;\n    }\n\n    function setMaxTokens(uint max) external onlyRole(DEFAULT_ADMIN_ROLE) {\n        require(max > totalSupply(), \"New max cannot exceed existing supply\");\n        maxTokens = max;\n    }\n\n    function tokensOfOwner(address _owner)\n        external\n        view\n        returns (uint256[] memory)\n    {\n        uint256 tokenCount = balanceOf(_owner);\n        if (tokenCount == 0) {\n            // Return an empty array\n            return new uint256[](0);\n        } else {\n            uint256[] memory result = new uint256[](tokenCount);\n            uint256 index;\n            for (index = 0; index < tokenCount; index++) {\n                result[index] = tokenOfOwnerByIndex(_owner, index);\n            }\n            return result;\n        }\n    }\n\n    function tokenURI(uint256 tokenId)\n        public\n        view\n        virtual\n        override\n        returns (string memory)\n    {\n        require(\n            _exists(tokenId),\n            \"ERC721Metadata: URI query for nonexistent token\"\n        );\n\n        string memory _tokenURI = _tokenURIs[tokenId];\n        string memory base = _baseURI();\n\n        // If there is no base URI, return the token URI.\n        if (bytes(base).length == 0) {\n            return _tokenURI;\n        }\n        // If both are set, concatenate the baseURI and tokenURI (via abi.encodePacked).\n        if (bytes(_tokenURI).length > 0) {\n            return string(abi.encodePacked(base, _tokenURI));\n        }\n        // If there is a baseURI but no tokenURI, concatenate the tokenID to the baseURI.\n        return string(abi.encodePacked(base, tokenId.toString(), \".json\"));\n    }\n\n    function unpause() public onlyRole(PAUSER_ROLE) {\n        _unpause();\n    }\n\n    function withdraw() external payable onlyRole(WITHDRAWAL_ROLE) {\n        payable(msg.sender).transfer(address(this).balance);\n    }\n\n    // The following functions are overrides required by Solidity.\n    function _beforeTokenTransfer(\n        address from,\n        address to,\n        uint256 tokenId\n    ) internal override(ERC721, ERC721Enumerable) {\n        super._beforeTokenTransfer(from, to, tokenId);\n    }\n\n    function supportsInterface(bytes4 interfaceId)\n        public\n        view\n        override(ERC721, ERC721Enumerable, AccessControl)\n        returns (bool)\n    {\n        return super.supportsInterface(interfaceId);\n    }\n}\n",
  "sourcePath": "/Users/warrenschwartz/Projects/ColdBehaviour/contracts/contracts/ColdBehaviorNft.sol",
  "compiler": {
    "name": "solc",
    "version": "0.8.10+commit.fc410830.Emscripten.clang"
  },
  "schemaVersion": "3.4.3",
  "updatedAt": "2022-03-01T07:56:28.369Z",
  "devdoc": {
    "kind": "dev",
    "methods": {
      "approve(address,uint256)": {
        "details": "See {IERC721-approve}."
      },
      "balanceOf(address)": {
        "details": "See {IERC721-balanceOf}."
      },
      "getApproved(uint256)": {
        "details": "See {IERC721-getApproved}."
      },
      "getRoleAdmin(bytes32)": {
        "details": "Returns the admin role that controls `role`. See {grantRole} and {revokeRole}. To change a role's admin, use {_setRoleAdmin}."
      },
      "grantRole(bytes32,address)": {
        "details": "Grants `role` to `account`. If `account` had not been already granted `role`, emits a {RoleGranted} event. Requirements: - the caller must have ``role``'s admin role."
      },
      "hasRole(bytes32,address)": {
        "details": "Returns `true` if `account` has been granted `role`."
      },
      "isApprovedForAll(address,address)": {
        "details": "See {IERC721-isApprovedForAll}."
      },
      "name()": {
        "details": "See {IERC721Metadata-name}."
      },
      "ownerOf(uint256)": {
        "details": "See {IERC721-ownerOf}."
      },
      "paused()": {
        "details": "Returns true if the contract is paused, and false otherwise."
      },
      "renounceRole(bytes32,address)": {
        "details": "Revokes `role` from the calling account. Roles are often managed via {grantRole} and {revokeRole}: this function's purpose is to provide a mechanism for accounts to lose their privileges if they are compromised (such as when a trusted device is misplaced). If the calling account had been revoked `role`, emits a {RoleRevoked} event. Requirements: - the caller must be `account`."
      },
      "revokeRole(bytes32,address)": {
        "details": "Revokes `role` from `account`. If `account` had been granted `role`, emits a {RoleRevoked} event. Requirements: - the caller must have ``role``'s admin role."
      },
      "safeTransferFrom(address,address,uint256)": {
        "details": "See {IERC721-safeTransferFrom}."
      },
      "safeTransferFrom(address,address,uint256,bytes)": {
        "details": "See {IERC721-safeTransferFrom}."
      },
      "setApprovalForAll(address,bool)": {
        "details": "See {IERC721-setApprovalForAll}."
      },
      "symbol()": {
        "details": "See {IERC721Metadata-symbol}."
      },
      "tokenByIndex(uint256)": {
        "details": "See {IERC721Enumerable-tokenByIndex}."
      },
      "tokenOfOwnerByIndex(address,uint256)": {
        "details": "See {IERC721Enumerable-tokenOfOwnerByIndex}."
      },
      "tokenURI(uint256)": {
        "details": "See {IERC721Metadata-tokenURI}."
      },
      "totalSupply()": {
        "details": "See {IERC721Enumerable-totalSupply}."
      },
      "transferFrom(address,address,uint256)": {
        "details": "See {IERC721-transferFrom}."
      }
    },
    "version": 1
  },
  "userdoc": {
    "kind": "user",
    "methods": {},
    "version": 1
  }
}