{
  "contractName": "Layers",
  "abi": [
    {
      "inputs": [],
      "stateMutability": "nonpayable",
      "type": "constructor"
    },
    {
      "anonymous": false,
      "inputs": [
        {
          "indexed": true,
          "internalType": "bytes32",
          "name": "role",
          "type": "bytes32"
        },
        {
          "indexed": true,
          "internalType": "bytes32",
          "name": "previousAdminRole",
          "type": "bytes32"
        },
        {
          "indexed": true,
          "internalType": "bytes32",
          "name": "newAdminRole",
          "type": "bytes32"
        }
      ],
      "name": "RoleAdminChanged",
      "type": "event"
    },
    {
      "anonymous": false,
      "inputs": [
        {
          "indexed": true,
          "internalType": "bytes32",
          "name": "role",
          "type": "bytes32"
        },
        {
          "indexed": true,
          "internalType": "address",
          "name": "account",
          "type": "address"
        },
        {
          "indexed": true,
          "internalType": "address",
          "name": "sender",
          "type": "address"
        }
      ],
      "name": "RoleGranted",
      "type": "event"
    },
    {
      "anonymous": false,
      "inputs": [
        {
          "indexed": true,
          "internalType": "bytes32",
          "name": "role",
          "type": "bytes32"
        },
        {
          "indexed": true,
          "internalType": "address",
          "name": "account",
          "type": "address"
        },
        {
          "indexed": true,
          "internalType": "address",
          "name": "sender",
          "type": "address"
        }
      ],
      "name": "RoleRevoked",
      "type": "event"
    },
    {
      "inputs": [],
      "name": "DEFAULT_ADMIN_ROLE",
      "outputs": [
        {
          "internalType": "bytes32",
          "name": "",
          "type": "bytes32"
        }
      ],
      "stateMutability": "view",
      "type": "function"
    },
    {
      "inputs": [],
      "name": "UPLOADER_ROLE",
      "outputs": [
        {
          "internalType": "bytes32",
          "name": "",
          "type": "bytes32"
        }
      ],
      "stateMutability": "view",
      "type": "function"
    },
    {
      "inputs": [
        {
          "internalType": "bytes32",
          "name": "role",
          "type": "bytes32"
        }
      ],
      "name": "getRoleAdmin",
      "outputs": [
        {
          "internalType": "bytes32",
          "name": "",
          "type": "bytes32"
        }
      ],
      "stateMutability": "view",
      "type": "function"
    },
    {
      "inputs": [
        {
          "internalType": "bytes32",
          "name": "role",
          "type": "bytes32"
        },
        {
          "internalType": "address",
          "name": "account",
          "type": "address"
        }
      ],
      "name": "grantRole",
      "outputs": [],
      "stateMutability": "nonpayable",
      "type": "function"
    },
    {
      "inputs": [
        {
          "internalType": "bytes32",
          "name": "role",
          "type": "bytes32"
        },
        {
          "internalType": "address",
          "name": "account",
          "type": "address"
        }
      ],
      "name": "hasRole",
      "outputs": [
        {
          "internalType": "bool",
          "name": "",
          "type": "bool"
        }
      ],
      "stateMutability": "view",
      "type": "function"
    },
    {
      "inputs": [
        {
          "internalType": "uint256",
          "name": "",
          "type": "uint256"
        }
      ],
      "name": "layerData",
      "outputs": [
        {
          "internalType": "string",
          "name": "cid",
          "type": "string"
        },
        {
          "internalType": "string",
          "name": "name",
          "type": "string"
        },
        {
          "internalType": "string",
          "name": "trait",
          "type": "string"
        }
      ],
      "stateMutability": "view",
      "type": "function"
    },
    {
      "inputs": [
        {
          "internalType": "bytes32",
          "name": "role",
          "type": "bytes32"
        },
        {
          "internalType": "address",
          "name": "account",
          "type": "address"
        }
      ],
      "name": "renounceRole",
      "outputs": [],
      "stateMutability": "nonpayable",
      "type": "function"
    },
    {
      "inputs": [
        {
          "internalType": "bytes32",
          "name": "role",
          "type": "bytes32"
        },
        {
          "internalType": "address",
          "name": "account",
          "type": "address"
        }
      ],
      "name": "revokeRole",
      "outputs": [],
      "stateMutability": "nonpayable",
      "type": "function"
    },
    {
      "inputs": [
        {
          "internalType": "bytes4",
          "name": "interfaceId",
          "type": "bytes4"
        }
      ],
      "name": "supportsInterface",
      "outputs": [
        {
          "internalType": "bool",
          "name": "",
          "type": "bool"
        }
      ],
      "stateMutability": "view",
      "type": "function"
    },
    {
      "inputs": [
        {
          "internalType": "uint256[]",
          "name": "person",
          "type": "uint256[]"
        }
      ],
      "name": "drawSVGTest",
      "outputs": [
        {
          "internalType": "string",
          "name": "svgString",
          "type": "string"
        }
      ],
      "stateMutability": "view",
      "type": "function"
    },
    {
      "inputs": [
        {
          "internalType": "uint256",
          "name": "tokenId",
          "type": "uint256"
        }
      ],
      "name": "getTokenUri",
      "outputs": [
        {
          "internalType": "string",
          "name": "",
          "type": "string"
        }
      ],
      "stateMutability": "view",
      "type": "function"
    },
    {
      "inputs": [
        {
          "internalType": "address",
          "name": "_nftContract",
          "type": "address"
        }
      ],
      "name": "initialize",
      "outputs": [],
      "stateMutability": "nonpayable",
      "type": "function"
    },
    {
      "inputs": [
        {
          "components": [
            {
              "internalType": "string",
              "name": "cid",
              "type": "string"
            },
            {
              "internalType": "string",
              "name": "name",
              "type": "string"
            },
            {
              "internalType": "string",
              "name": "trait",
              "type": "string"
            }
          ],
          "internalType": "struct Layers.Layer[]",
          "name": "_layers",
          "type": "tuple[]"
        }
      ],
      "name": "uploadLayers",
      "outputs": [],
      "stateMutability": "nonpayable",
      "type": "function"
    }
  ],
  "bytecode": "0x60806040523480156200001157600080fd5b50620000447f922390b27f65d828a1f7695b2eaae33fd0be87496792afddba1d25446a8fcb91336200004a60201b60201c565b620001ad565b6200005c82826200013b60201b60201c565b6200013757600160008084815260200190815260200160002060000160008373ffffffffffffffffffffffffffffffffffffffff1673ffffffffffffffffffffffffffffffffffffffff16815260200190815260200160002060006101000a81548160ff021916908315150217905550620000dc620001a560201b60201c565b73ffffffffffffffffffffffffffffffffffffffff168173ffffffffffffffffffffffffffffffffffffffff16837f2f8788117e7eff1d82e926ec794901d17c78024a50270940304540a733656f0d60405160405180910390a45b5050565b600080600084815260200190815260200160002060000160008373ffffffffffffffffffffffffffffffffffffffff1673ffffffffffffffffffffffffffffffffffffffff16815260200190815260200160002060009054906101000a900460ff16905092915050565b600033905090565b612d8880620001bd6000396000f3fe608060405234801561001057600080fd5b50600436106100cf5760003560e01c806363210efd1161008c578063983f0e2d11610066578063983f0e2d14610238578063a217fddf14610268578063c4d66de814610286578063d547741f146102a2576100cf565b806363210efd146101bc5780638ad91345146101d857806391d1485414610208576100cf565b806301ffc9a7146100d45780631e0903b414610104578063248a9ca3146101365780632f2ff15d1461016657806336568abe1461018257806361cc07661461019e575b600080fd5b6100ee60048036038101906100e99190611acf565b6102be565b6040516100fb9190611b17565b60405180910390f35b61011e60048036038101906101199190611b68565b610338565b60405161012d93929190611c2e565b60405180910390f35b610150600480360381019061014b9190611cb0565b6104fa565b60405161015d9190611cec565b60405180910390f35b610180600480360381019061017b9190611d65565b610519565b005b61019c60048036038101906101979190611d65565b610542565b005b6101a66105c5565b6040516101b39190611cec565b60405180910390f35b6101d660048036038101906101d19190611e0a565b6105e9565b005b6101f260048036038101906101ed9190611b68565b61083b565b6040516101ff9190611e57565b60405180910390f35b610222600480360381019061021d9190611d65565b6108b5565b60405161022f9190611b17565b60405180910390f35b610252600480360381019061024d9190611ecf565b61091f565b60405161025f9190611e57565b60405180910390f35b610270610b52565b60405161027d9190611cec565b60405180910390f35b6102a0600480360381019061029b9190611f1c565b610b59565b005b6102bc60048036038101906102b79190611d65565b610bb3565b005b60007f7965db0b000000000000000000000000000000000000000000000000000000007bffffffffffffffffffffffffffffffffffffffffffffffffffffffff1916827bffffffffffffffffffffffffffffffffffffffffffffffffffffffff19161480610331575061033082610bdc565b5b9050919050565b600260205280600052604060002060009150905080600001805461035b90611f78565b80601f016020809104026020016040519081016040528092919081815260200182805461038790611f78565b80156103d45780601f106103a9576101008083540402835291602001916103d4565b820191906000526020600020905b8154815290600101906020018083116103b757829003601f168201915b5050505050908060010180546103e990611f78565b80601f016020809104026020016040519081016040528092919081815260200182805461041590611f78565b80156104625780601f1061043757610100808354040283529160200191610462565b820191906000526020600020905b81548152906001019060200180831161044557829003601f168201915b50505050509080600201805461047790611f78565b80601f01602080910402602001604051908101604052809291908181526020018280546104a390611f78565b80156104f05780601f106104c5576101008083540402835291602001916104f0565b820191906000526020600020905b8154815290600101906020018083116104d357829003601f168201915b5050505050905083565b6000806000838152602001908152602001600020600101549050919050565b610522826104fa565b6105338161052e610c46565b610c4e565b61053d8383610ceb565b505050565b61054a610c46565b73ffffffffffffffffffffffffffffffffffffffff168173ffffffffffffffffffffffffffffffffffffffff16146105b7576040517f08c379a00000000000000000000000000000000000000000000000000000000081526004016105ae9061201c565b60405180910390fd5b6105c18282610dcb565b5050565b7f922390b27f65d828a1f7695b2eaae33fd0be87496792afddba1d25446a8fcb9181565b7f922390b27f65d828a1f7695b2eaae33fd0be87496792afddba1d25446a8fcb9161061b81610616610c46565b610c4e565b60005b838390508160ff16101561083557604051806060016040528085858460ff1681811061064d5761064c61203c565b5b905060200281019061065f919061207a565b806020019061066e91906120a2565b8080601f016020809104026020016040519081016040528093929190818152602001838380828437600081840152601f19601f82011690508083019250505050505050815260200185858460ff168181106106cc576106cb61203c565b5b90506020028101906106de919061207a565b80600001906106ed91906120a2565b8080601f016020809104026020016040519081016040528093929190818152602001838380828437600081840152601f19601f82011690508083019250505050505050815260200185858460ff1681811061074b5761074a61203c565b5b905060200281019061075d919061207a565b806040019061076c91906120a2565b8080601f016020809104026020016040519081016040528093929190818152602001838380828437600081840152601f19601f82011690508083019250505050505050815250600260008360ff16815260200190815260200160002060008201518160000190805190602001906107e49291906119c0565b5060208201518160010190805190602001906108019291906119c0565b50604082015181600201908051906020019061081e9291906119c0565b50905050808061082d90612141565b91505061061e565b50505050565b6060600061084883610eac565b6108596108548561100d565b6112e3565b61086285611468565b6040516020016108749392919061236f565b604051602081830303815290604052905061088e816112e3565b60405160200161089e9190612423565b604051602081830303815290604052915050919050565b600080600084815260200190815260200160002060000160008373ffffffffffffffffffffffffffffffffffffffff1673ffffffffffffffffffffffffffffffffffffffff16815260200190815260200160002060009054906101000a900460ff16905092915050565b606060005b83839050811015610b2957610b1482610b0f6002600085815260200190815260200160002060405180606001604052908160008201805461096490611f78565b80601f016020809104026020016040519081016040528092919081815260200182805461099090611f78565b80156109dd5780601f106109b2576101008083540402835291602001916109dd565b820191906000526020600020905b8154815290600101906020018083116109c057829003601f168201915b505050505081526020016001820180546109f690611f78565b80601f0160208091040260200160405190810160405280929190818152602001828054610a2290611f78565b8015610a6f5780601f10610a4457610100808354040283529160200191610a6f565b820191906000526020600020905b815481529060010190602001808311610a5257829003601f168201915b50505050508152602001600282018054610a8890611f78565b80601f0160208091040260200160405190810160405280929190818152602001828054610ab490611f78565b8015610b015780601f10610ad657610100808354040283529160200191610b01565b820191906000526020600020905b815481529060010190602001808311610ae457829003601f168201915b5050505050815250506116ff565b61172c565b91508080610b2190612445565b915050610924565b5080604051602001610b3b91906125be565b604051602081830303815290604052905092915050565b6000801b81565b6000801b610b6e81610b69610c46565b610c4e565b81600160006101000a81548173ffffffffffffffffffffffffffffffffffffffff021916908373ffffffffffffffffffffffffffffffffffffffff1602179055505050565b610bbc826104fa565b610bcd81610bc8610c46565b610c4e565b610bd78383610dcb565b505050565b60007f01ffc9a7000000000000000000000000000000000000000000000000000000007bffffffffffffffffffffffffffffffffffffffffffffffffffffffff1916827bffffffffffffffffffffffffffffffffffffffffffffffffffffffff1916149050919050565b600033905090565b610c5882826108b5565b610ce757610c7d8173ffffffffffffffffffffffffffffffffffffffff166014611758565b610c8b8360001c6020611758565b604051602001610c9c929190612683565b6040516020818303038152906040526040517f08c379a0000000000000000000000000000000000000000000000000000000008152600401610cde9190611e57565b60405180910390fd5b5050565b610cf582826108b5565b610dc757600160008084815260200190815260200160002060000160008373ffffffffffffffffffffffffffffffffffffffff1673ffffffffffffffffffffffffffffffffffffffff16815260200190815260200160002060006101000a81548160ff021916908315150217905550610d6c610c46565b73ffffffffffffffffffffffffffffffffffffffff168173ffffffffffffffffffffffffffffffffffffffff16837f2f8788117e7eff1d82e926ec794901d17c78024a50270940304540a733656f0d60405160405180910390a45b5050565b610dd582826108b5565b15610ea857600080600084815260200190815260200160002060000160008373ffffffffffffffffffffffffffffffffffffffff1673ffffffffffffffffffffffffffffffffffffffff16815260200190815260200160002060006101000a81548160ff021916908315150217905550610e4d610c46565b73ffffffffffffffffffffffffffffffffffffffff168173ffffffffffffffffffffffffffffffffffffffff16837ff6391f5c32d9c69d2a47ea670b442974b53935d1edc7fd64eb21e047a839171b60405160405180910390a45b5050565b60606000821415610ef4576040518060400160405280600181526020017f30000000000000000000000000000000000000000000000000000000000000008152509050611008565b600082905060005b60008214610f26578080610f0f90612445565b915050600a82610f1f91906126ec565b9150610efc565b60008167ffffffffffffffff811115610f4257610f4161271d565b5b6040519080825280601f01601f191660200182016040528015610f745781602001600182028036833780820191505090505b5090505b6000851461100157600182610f8d919061274c565b9150600a85610f9c9190612780565b6030610fa891906127b1565b60f81b818381518110610fbe57610fbd61203c565b5b60200101907effffffffffffffffffffffffffffffffffffffffffffffffffffffffffffff1916908160001a905350600a85610ffa91906126ec565b9450610f78565b8093505050505b919050565b60606000600160009054906101000a900473ffffffffffffffffffffffffffffffffffffffff1673ffffffffffffffffffffffffffffffffffffffff1663b09afec1846040518263ffffffff1660e01b815260040161106c9190612816565b600060405180830381865afa158015611089573d6000803e3d6000fd5b505050506040513d6000823e3d601f19601f820116820180604052508101906110b29190612955565b905060005b81518110156112ba576112a5836112a0600260008581526020019081526020016000206040518060600160405290816000820180546110f590611f78565b80601f016020809104026020016040519081016040528092919081815260200182805461112190611f78565b801561116e5780601f106111435761010080835404028352916020019161116e565b820191906000526020600020905b81548152906001019060200180831161115157829003601f168201915b5050505050815260200160018201805461118790611f78565b80601f01602080910402602001604051908101604052809291908181526020018280546111b390611f78565b80156112005780601f106111d557610100808354040283529160200191611200565b820191906000526020600020905b8154815290600101906020018083116111e357829003601f168201915b5050505050815260200160028201805461121990611f78565b80601f016020809104026020016040519081016040528092919081815260200182805461124590611f78565b80156112925780601f1061126757610100808354040283529160200191611292565b820191906000526020600020905b81548152906001019060200180831161127557829003601f168201915b5050505050815250506116ff565b61172c565b925080806112b290612445565b9150506110b7565b50816040516020016112cc91906125be565b604051602081830303815290604052915050919050565b606060008251141561130657604051806020016040528060008152509050611463565b6000604051806060016040528060408152602001612d13604091399050600060036002855161133591906127b1565b61133f91906126ec565b600461134b919061299e565b9050600060208261135c91906127b1565b67ffffffffffffffff8111156113755761137461271d565b5b6040519080825280601f01601f1916602001820160405280156113a75781602001600182028036833780820191505090505b509050818152600183018586518101602084015b81831015611422576003830192508251603f8160121c1685015160f81b8252600182019150603f81600c1c1685015160f81b8252600182019150603f8160061c1685015160f81b8252600182019150603f811685015160f81b8252600182019150506113bb565b60038951066001811461143c576002811461144c57611457565b613d3d60f01b6002830352611457565b603d60f81b60018303525b50505050508093505050505b919050565b60606000600160009054906101000a900473ffffffffffffffffffffffffffffffffffffffff1673ffffffffffffffffffffffffffffffffffffffff1663b09afec1846040518263ffffffff1660e01b81526004016114c79190612816565b600060405180830381865afa1580156114e4573d6000803e3d6000fd5b505050506040513d6000823e3d601f19601f8201168201806040525081019061150d9190612955565b90506040518060400160405280600181526020017f5b00000000000000000000000000000000000000000000000000000000000000815250915060005b81518110156116b7576116a28361169d60026000858152602001908152602001600020600201805461157b90611f78565b80601f01602080910402602001604051908101604052809291908181526020018280546115a790611f78565b80156115f45780601f106115c9576101008083540402835291602001916115f4565b820191906000526020600020905b8154815290600101906020018083116115d757829003601f168201915b505050505060026000868152602001908152602001600020600101805461161a90611f78565b80601f016020809104026020016040519081016040528092919081815260200182805461164690611f78565b80156116935780601f1061166857610100808354040283529160200191611693565b820191906000526020600020905b81548152906001019060200180831161167657829003601f168201915b5050505050611994565b61172c565b925080806116af90612445565b91505061154a565b506116f7826040518060400160405280600181526020017f5d0000000000000000000000000000000000000000000000000000000000000081525061172c565b915050919050565b606081600001516040516020016117169190612b02565b6040516020818303038152906040529050919050565b60608282604051602001611741929190612b2f565b604051602081830303815290604052905092915050565b60606000600283600261176b919061299e565b61177591906127b1565b67ffffffffffffffff81111561178e5761178d61271d565b5b6040519080825280601f01601f1916602001820160405280156117c05781602001600182028036833780820191505090505b5090507f3000000000000000000000000000000000000000000000000000000000000000816000815181106117f8576117f761203c565b5b60200101907effffffffffffffffffffffffffffffffffffffffffffffffffffffffffffff1916908160001a9053507f78000000000000000000000000000000000000000000000000000000000000008160018151811061185c5761185b61203c565b5b60200101907effffffffffffffffffffffffffffffffffffffffffffffffffffffffffffff1916908160001a9053506000600184600261189c919061299e565b6118a691906127b1565b90505b6001811115611946577f3031323334353637383961626364656600000000000000000000000000000000600f8616601081106118e8576118e761203c565b5b1a60f81b8282815181106118ff576118fe61203c565b5b60200101907effffffffffffffffffffffffffffffffffffffffffffffffffffffffffffff1916908160001a905350600485901c94508061193f90612b53565b90506118a9565b506000841461198a576040517f08c379a000000000000000000000000000000000000000000000000000000000815260040161198190612bc9565b60405180910390fd5b8091505092915050565b606082826040516020016119a9929190612ccd565b604051602081830303815290604052905092915050565b8280546119cc90611f78565b90600052602060002090601f0160209004810192826119ee5760008555611a35565b82601f10611a0757805160ff1916838001178555611a35565b82800160010185558215611a35579182015b82811115611a34578251825591602001919060010190611a19565b5b509050611a429190611a46565b5090565b5b80821115611a5f576000816000905550600101611a47565b5090565b6000604051905090565b600080fd5b600080fd5b60007fffffffff0000000000000000000000000000000000000000000000000000000082169050919050565b611aac81611a77565b8114611ab757600080fd5b50565b600081359050611ac981611aa3565b92915050565b600060208284031215611ae557611ae4611a6d565b5b6000611af384828501611aba565b91505092915050565b60008115159050919050565b611b1181611afc565b82525050565b6000602082019050611b2c6000830184611b08565b92915050565b6000819050919050565b611b4581611b32565b8114611b5057600080fd5b50565b600081359050611b6281611b3c565b92915050565b600060208284031215611b7e57611b7d611a6d565b5b6000611b8c84828501611b53565b91505092915050565b600081519050919050565b600082825260208201905092915050565b60005b83811015611bcf578082015181840152602081019050611bb4565b83811115611bde576000848401525b50505050565b6000601f19601f8301169050919050565b6000611c0082611b95565b611c0a8185611ba0565b9350611c1a818560208601611bb1565b611c2381611be4565b840191505092915050565b60006060820190508181036000830152611c488186611bf5565b90508181036020830152611c5c8185611bf5565b90508181036040830152611c708184611bf5565b9050949350505050565b6000819050919050565b611c8d81611c7a565b8114611c9857600080fd5b50565b600081359050611caa81611c84565b92915050565b600060208284031215611cc657611cc5611a6d565b5b6000611cd484828501611c9b565b91505092915050565b611ce681611c7a565b82525050565b6000602082019050611d016000830184611cdd565b92915050565b600073ffffffffffffffffffffffffffffffffffffffff82169050919050565b6000611d3282611d07565b9050919050565b611d4281611d27565b8114611d4d57600080fd5b50565b600081359050611d5f81611d39565b92915050565b60008060408385031215611d7c57611d7b611a6d565b5b6000611d8a85828601611c9b565b9250506020611d9b85828601611d50565b9150509250929050565b600080fd5b600080fd5b600080fd5b60008083601f840112611dca57611dc9611da5565b5b8235905067ffffffffffffffff811115611de757611de6611daa565b5b602083019150836020820283011115611e0357611e02611daf565b5b9250929050565b60008060208385031215611e2157611e20611a6d565b5b600083013567ffffffffffffffff811115611e3f57611e3e611a72565b5b611e4b85828601611db4565b92509250509250929050565b60006020820190508181036000830152611e718184611bf5565b905092915050565b60008083601f840112611e8f57611e8e611da5565b5b8235905067ffffffffffffffff811115611eac57611eab611daa565b5b602083019150836020820283011115611ec857611ec7611daf565b5b9250929050565b60008060208385031215611ee657611ee5611a6d565b5b600083013567ffffffffffffffff811115611f0457611f03611a72565b5b611f1085828601611e79565b92509250509250929050565b600060208284031215611f3257611f31611a6d565b5b6000611f4084828501611d50565b91505092915050565b7f4e487b7100000000000000000000000000000000000000000000000000000000600052602260045260246000fd5b60006002820490506001821680611f9057607f821691505b60208210811415611fa457611fa3611f49565b5b50919050565b7f416363657373436f6e74726f6c3a2063616e206f6e6c792072656e6f756e636560008201527f20726f6c657320666f722073656c660000000000000000000000000000000000602082015250565b6000612006602f83611ba0565b915061201182611faa565b604082019050919050565b6000602082019050818103600083015261203581611ff9565b9050919050565b7f4e487b7100000000000000000000000000000000000000000000000000000000600052603260045260246000fd5b600080fd5b600080fd5b600080fd5b6000823560016060038336030381126120965761209561206b565b5b80830191505092915050565b600080833560016020038436030381126120bf576120be61206b565b5b80840192508235915067ffffffffffffffff8211156120e1576120e0612070565b5b6020830192506001820236038313156120fd576120fc612075565b5b509250929050565b7f4e487b7100000000000000000000000000000000000000000000000000000000600052601160045260246000fd5b600060ff82169050919050565b600061214c82612134565b915060ff8214156121605761215f612105565b5b600182019050919050565b600081905092915050565b7f7b226e616d65223a202200000000000000000000000000000000000000000000600082015250565b60006121ac600a8361216b565b91506121b782612176565b600a82019050919050565b7f4172746973742023000000000000000000000000000000000000000000000000600082015250565b60006121f860088361216b565b9150612203826121c2565b600882019050919050565b600061221982611b95565b612223818561216b565b9350612233818560208601611bb1565b80840191505092915050565b7f222c20226465736372697074696f6e223a2022426c616820426c616820426c6160008201527f682e222c2022696d616765223a2022646174613a696d6167652f7376672b786d60208201527f6c3b6261736536342c0000000000000000000000000000000000000000000000604082015250565b60006122c160498361216b565b91506122cc8261223f565b604982019050919050565b7f222c202261747472696275746573223a00000000000000000000000000000000600082015250565b600061230d60108361216b565b9150612318826122d7565b601082019050919050565b7f7d00000000000000000000000000000000000000000000000000000000000000600082015250565b600061235960018361216b565b915061236482612323565b600182019050919050565b600061237a8261219f565b9150612385826121eb565b9150612391828661220e565b915061239c826122b4565b91506123a8828561220e565b91506123b382612300565b91506123bf828461220e565b91506123ca8261234c565b9150819050949350505050565b7f646174613a6170706c69636174696f6e2f6a736f6e3b6261736536342c000000600082015250565b600061240d601d8361216b565b9150612418826123d7565b601d82019050919050565b600061242e82612400565b915061243a828461220e565b915081905092915050565b600061245082611b32565b91507fffffffffffffffffffffffffffffffffffffffffffffffffffffffffffffffff82141561248357612482612105565b5b600182019050919050565b7f3c7376672069643d22617274697374222077696474683d22313030252220686560008201527f696768743d2231303025222076657273696f6e3d22312e31222076696577426f60208201527f783d22302030203130323420313032342220786d6c6e733d22687474703a2f2f60408201527f7777772e77332e6f72672f323030302f7376672220786d6c6e733a786c696e6b60608201527f3d22687474703a2f2f7777772e77332e6f72672f313939392f786c696e6b223e608082015250565b600061255c60a08361216b565b91506125678261248e565b60a082019050919050565b7f3c2f7376673e0000000000000000000000000000000000000000000000000000600082015250565b60006125a860068361216b565b91506125b382612572565b600682019050919050565b60006125c98261254f565b91506125d5828461220e565b91506125e08261259b565b915081905092915050565b7f416363657373436f6e74726f6c3a206163636f756e7420000000000000000000600082015250565b600061262160178361216b565b915061262c826125eb565b601782019050919050565b7f206973206d697373696e6720726f6c6520000000000000000000000000000000600082015250565b600061266d60118361216b565b915061267882612637565b601182019050919050565b600061268e82612614565b915061269a828561220e565b91506126a582612660565b91506126b1828461220e565b91508190509392505050565b7f4e487b7100000000000000000000000000000000000000000000000000000000600052601260045260246000fd5b60006126f782611b32565b915061270283611b32565b925082612712576127116126bd565b5b828204905092915050565b7f4e487b7100000000000000000000000000000000000000000000000000000000600052604160045260246000fd5b600061275782611b32565b915061276283611b32565b92508282101561277557612774612105565b5b828203905092915050565b600061278b82611b32565b915061279683611b32565b9250826127a6576127a56126bd565b5b828206905092915050565b60006127bc82611b32565b91506127c783611b32565b9250827fffffffffffffffffffffffffffffffffffffffffffffffffffffffffffffffff038211156127fc576127fb612105565b5b828201905092915050565b61281081611b32565b82525050565b600060208201905061282b6000830184612807565b92915050565b61283a82611be4565b810181811067ffffffffffffffff821117156128595761285861271d565b5b80604052505050565b600061286c611a63565b90506128788282612831565b919050565b600067ffffffffffffffff8211156128985761289761271d565b5b602082029050602081019050919050565b6000815190506128b881611b3c565b92915050565b60006128d16128cc8461287d565b612862565b905080838252602082019050602084028301858111156128f4576128f3611daf565b5b835b8181101561291d578061290988826128a9565b8452602084019350506020810190506128f6565b5050509392505050565b600082601f83011261293c5761293b611da5565b5b815161294c8482602086016128be565b91505092915050565b60006020828403121561296b5761296a611a6d565b5b600082015167ffffffffffffffff81111561298957612988611a72565b5b61299584828501612927565b91505092915050565b60006129a982611b32565b91506129b483611b32565b9250817fffffffffffffffffffffffffffffffffffffffffffffffffffffffffffffffff04831182151516156129ed576129ec612105565b5b828202905092915050565b7f3c696d61676520783d22302220793d2230222077696474683d2231303234222060008201527f6865696768743d22313032342220696d6167652d72656e646572696e673d227060208201527f6978656c617465642220786c696e6b3a687265663d2268747470733a2f2f697060408201527f66732e696f2f697066732f000000000000000000000000000000000000000000606082015250565b6000612aa0606b8361216b565b9150612aab826129f8565b606b82019050919050565b7f22202f3e00000000000000000000000000000000000000000000000000000000600082015250565b6000612aec60048361216b565b9150612af782612ab6565b600482019050919050565b6000612b0d82612a93565b9150612b19828461220e565b9150612b2482612adf565b915081905092915050565b6000612b3b828561220e565b9150612b47828461220e565b91508190509392505050565b6000612b5e82611b32565b91506000821415612b7257612b71612105565b5b600182039050919050565b7f537472696e67733a20686578206c656e67746820696e73756666696369656e74600082015250565b6000612bb3602083611ba0565b9150612bbe82612b7d565b602082019050919050565b60006020820190508181036000830152612be281612ba6565b9050919050565b7f7b2274726169745f74797065223a220000000000000000000000000000000000600082015250565b6000612c1f600f8361216b565b9150612c2a82612be9565b600f82019050919050565b7f222c2276616c7565223a22000000000000000000000000000000000000000000600082015250565b6000612c6b600b8361216b565b9150612c7682612c35565b600b82019050919050565b7f227d000000000000000000000000000000000000000000000000000000000000600082015250565b6000612cb760028361216b565b9150612cc282612c81565b600282019050919050565b6000612cd882612c12565b9150612ce4828561220e565b9150612cef82612c5e565b9150612cfb828461220e565b9150612d0682612caa565b9150819050939250505056fe4142434445464748494a4b4c4d4e4f505152535455565758595a6162636465666768696a6b6c6d6e6f707172737475767778797a303132333435363738392b2fa26469706673582212209e00c92f79b979667ef7571546660ec0ddf47205080d902272e43c8726d2859864736f6c634300080a0033",
  "immutableReferences": {},
  "source": "// SPDX-License-Identifier: MIT\npragma solidity ^0.8.2;\n\nimport \"@openzeppelin/contracts/access/AccessControl.sol\";\nimport \"@openzeppelin/contracts/utils/Strings.sol\";\nimport \"./INft.sol\";\nimport \"./Base64.sol\";\n\ncontract Layers is AccessControl {\n  //Usings\n  using Strings for uint256;\n\n  //Constants\n  bytes32 public constant UPLOADER_ROLE = keccak256(\"UPLOADER_ROLE\");\n\n  //Structs\n  struct Layer {\n    string cid;\n    string name;\n    string trait;\n  }\n\n  //State Variables\n  INft nftContract;\n\n  //State Mappings\n  mapping (uint => Layer) public layerData;  // layer => Name/CID/Trait\n\n  constructor() {\n    _grantRole(UPLOADER_ROLE, msg.sender);\n  }\n\n  //Functions\n  function attributeForTypeAndValue(string memory traitType, string memory value) internal pure returns (string memory) {\n    return string(abi.encodePacked(\n      '{\"trait_type\":\"',\n      traitType,\n      '\",\"value\":\"',\n      value,\n      '\"}'\n    ));\n  }\n  \n  function compileAttributes(uint256 tokenId) internal view returns (string memory traits) {\n    uint[] memory a = nftContract.getTokenData(tokenId);\n    traits = \"[\";\n    for (uint layer = 0; layer < a.length; layer++) {\n      traits = concat(traits, attributeForTypeAndValue(layerData[layer].trait, layerData[layer].name));\n    }\n\n    return concat(traits, \"]\");\n  }\n\n  function concat(string memory a, string memory b) internal pure returns (string memory) {\n\n    return string(abi.encodePacked(a, b));\n\n  }\n\n  function drawLayer(Layer memory layer) internal pure returns (string memory) {\n    return string(abi.encodePacked(\n      '<image x=\"0\" y=\"0\" width=\"1024\" height=\"1024\" image-rendering=\"pixelated\" xlink:href=\"https://ipfs.io/ipfs/', \n      layer.cid,\n      '\" />'  \n    ));\n  }\n\n  function drawSVG(uint tokenId) internal view returns (string memory svgString) {\n    uint[] memory a = nftContract.getTokenData(tokenId);\n    for (uint layer = 0; layer < a.length; layer++) {\n      svgString = concat(svgString, drawLayer(layerData[layer]));\n    }\n\n    return string(abi.encodePacked(\n      '<svg id=\"artist\" width=\"100%\" height=\"100%\" version=\"1.1\" viewBox=\"0 0 1024 1024\" xmlns=\"http://www.w3.org/2000/svg\" xmlns:xlink=\"http://www.w3.org/1999/xlink\">',\n      svgString,\n      \"</svg>\"\n    ));\n  }\n\n  function drawSVGTest(uint[] calldata person) external view returns (string memory svgString) {\n    for (uint layer = 0; layer < person.length; layer++) {\n      svgString = concat(svgString, drawLayer(layerData[layer]));\n    }\n\n    return string(abi.encodePacked(\n      '<svg id=\"artist\" width=\"100%\" height=\"100%\" version=\"1.1\" viewBox=\"0 0 1024 1024\" xmlns=\"http://www.w3.org/2000/svg\" xmlns:xlink=\"http://www.w3.org/1999/xlink\">',\n      svgString,\n      \"</svg>\"\n    ));\n  }\n\n  function getTokenUri(uint256 tokenId) public view returns (string memory) {\n    string memory metadata = string(abi.encodePacked(\n      '{\"name\": \"',\n      'Artist #',\n      tokenId.toString(),\n      '\", \"description\": \"Blah Blah Blah.\", \"image\": \"data:image/svg+xml;base64,',\n      Base64.base64(bytes(drawSVG(tokenId))),\n      '\", \"attributes\":',\n      compileAttributes(tokenId),\n      \"}\"\n    ));\n\n    return string(abi.encodePacked(\n      \"data:application/json;base64,\",\n      Base64.base64(bytes(metadata))\n    ));\n  }\n\n  function initialize(address _nftContract) external onlyRole(DEFAULT_ADMIN_ROLE) {\n    nftContract = INft(_nftContract);\n  }\n\n  function uploadLayers(Layer[] calldata _layers) external onlyRole(UPLOADER_ROLE) {\n    for (uint8 x = 0; x < _layers.length; x++) {\n      layerData[x] = Layer(\n        _layers[x].name,\n        _layers[x].cid,\n        _layers[x].trait\n      );\n    }\n  }\n}\n",
  "sourcePath": "/Users/warrenschwartz/Projects/ColdBehaviour/contracts/contracts/Layers.sol",
  "compiler": {
    "name": "solc",
    "version": "0.8.10+commit.fc410830.Emscripten.clang"
  },
  "schemaVersion": "3.4.3",
  "updatedAt": "2022-02-09T10:23:47.229Z",
  "devdoc": {
    "kind": "dev",
    "methods": {
      "getRoleAdmin(bytes32)": {
        "details": "Returns the admin role that controls `role`. See {grantRole} and {revokeRole}. To change a role's admin, use {_setRoleAdmin}."
      },
      "grantRole(bytes32,address)": {
        "details": "Grants `role` to `account`. If `account` had not been already granted `role`, emits a {RoleGranted} event. Requirements: - the caller must have ``role``'s admin role."
      },
      "hasRole(bytes32,address)": {
        "details": "Returns `true` if `account` has been granted `role`."
      },
      "renounceRole(bytes32,address)": {
        "details": "Revokes `role` from the calling account. Roles are often managed via {grantRole} and {revokeRole}: this function's purpose is to provide a mechanism for accounts to lose their privileges if they are compromised (such as when a trusted device is misplaced). If the calling account had been revoked `role`, emits a {RoleRevoked} event. Requirements: - the caller must be `account`."
      },
      "revokeRole(bytes32,address)": {
        "details": "Revokes `role` from `account`. If `account` had been granted `role`, emits a {RoleRevoked} event. Requirements: - the caller must have ``role``'s admin role."
      },
      "supportsInterface(bytes4)": {
        "details": "See {IERC165-supportsInterface}."
      }
    },
    "version": 1
  },
  "userdoc": {
    "kind": "user",
    "methods": {},
    "version": 1
  }
}