{
  "contractName": "Layers",
  "abi": [
    {
      "anonymous": false,
      "inputs": [
        {
          "indexed": true,
          "internalType": "bytes32",
          "name": "role",
          "type": "bytes32"
        },
        {
          "indexed": true,
          "internalType": "bytes32",
          "name": "previousAdminRole",
          "type": "bytes32"
        },
        {
          "indexed": true,
          "internalType": "bytes32",
          "name": "newAdminRole",
          "type": "bytes32"
        }
      ],
      "name": "RoleAdminChanged",
      "type": "event"
    },
    {
      "anonymous": false,
      "inputs": [
        {
          "indexed": true,
          "internalType": "bytes32",
          "name": "role",
          "type": "bytes32"
        },
        {
          "indexed": true,
          "internalType": "address",
          "name": "account",
          "type": "address"
        },
        {
          "indexed": true,
          "internalType": "address",
          "name": "sender",
          "type": "address"
        }
      ],
      "name": "RoleGranted",
      "type": "event"
    },
    {
      "anonymous": false,
      "inputs": [
        {
          "indexed": true,
          "internalType": "bytes32",
          "name": "role",
          "type": "bytes32"
        },
        {
          "indexed": true,
          "internalType": "address",
          "name": "account",
          "type": "address"
        },
        {
          "indexed": true,
          "internalType": "address",
          "name": "sender",
          "type": "address"
        }
      ],
      "name": "RoleRevoked",
      "type": "event"
    },
    {
      "inputs": [],
      "name": "DEFAULT_ADMIN_ROLE",
      "outputs": [
        {
          "internalType": "bytes32",
          "name": "",
          "type": "bytes32"
        }
      ],
      "stateMutability": "view",
      "type": "function"
    },
    {
      "inputs": [
        {
          "internalType": "bytes32",
          "name": "role",
          "type": "bytes32"
        }
      ],
      "name": "getRoleAdmin",
      "outputs": [
        {
          "internalType": "bytes32",
          "name": "",
          "type": "bytes32"
        }
      ],
      "stateMutability": "view",
      "type": "function"
    },
    {
      "inputs": [
        {
          "internalType": "bytes32",
          "name": "role",
          "type": "bytes32"
        },
        {
          "internalType": "address",
          "name": "account",
          "type": "address"
        }
      ],
      "name": "grantRole",
      "outputs": [],
      "stateMutability": "nonpayable",
      "type": "function"
    },
    {
      "inputs": [
        {
          "internalType": "bytes32",
          "name": "role",
          "type": "bytes32"
        },
        {
          "internalType": "address",
          "name": "account",
          "type": "address"
        }
      ],
      "name": "hasRole",
      "outputs": [
        {
          "internalType": "bool",
          "name": "",
          "type": "bool"
        }
      ],
      "stateMutability": "view",
      "type": "function"
    },
    {
      "inputs": [
        {
          "internalType": "uint8",
          "name": "",
          "type": "uint8"
        },
        {
          "internalType": "uint8",
          "name": "",
          "type": "uint8"
        }
      ],
      "name": "layerData",
      "outputs": [
        {
          "internalType": "string",
          "name": "cid",
          "type": "string"
        },
        {
          "internalType": "string",
          "name": "name",
          "type": "string"
        }
      ],
      "stateMutability": "view",
      "type": "function"
    },
    {
      "inputs": [
        {
          "internalType": "bytes32",
          "name": "role",
          "type": "bytes32"
        },
        {
          "internalType": "address",
          "name": "account",
          "type": "address"
        }
      ],
      "name": "renounceRole",
      "outputs": [],
      "stateMutability": "nonpayable",
      "type": "function"
    },
    {
      "inputs": [
        {
          "internalType": "bytes32",
          "name": "role",
          "type": "bytes32"
        },
        {
          "internalType": "address",
          "name": "account",
          "type": "address"
        }
      ],
      "name": "revokeRole",
      "outputs": [],
      "stateMutability": "nonpayable",
      "type": "function"
    },
    {
      "inputs": [
        {
          "internalType": "bytes4",
          "name": "interfaceId",
          "type": "bytes4"
        }
      ],
      "name": "supportsInterface",
      "outputs": [
        {
          "internalType": "bool",
          "name": "",
          "type": "bool"
        }
      ],
      "stateMutability": "view",
      "type": "function"
    },
    {
      "inputs": [
        {
          "internalType": "uint256",
          "name": "tokenId",
          "type": "uint256"
        }
      ],
      "name": "getTokenUri",
      "outputs": [
        {
          "internalType": "string",
          "name": "",
          "type": "string"
        }
      ],
      "stateMutability": "view",
      "type": "function"
    },
    {
      "inputs": [
        {
          "internalType": "address",
          "name": "_nftContract",
          "type": "address"
        }
      ],
      "name": "initialize",
      "outputs": [],
      "stateMutability": "nonpayable",
      "type": "function"
    },
    {
      "inputs": [
        {
          "internalType": "uint8",
          "name": "layer",
          "type": "uint8"
        },
        {
          "components": [
            {
              "internalType": "string",
              "name": "cid",
              "type": "string"
            },
            {
              "internalType": "string",
              "name": "name",
              "type": "string"
            }
          ],
          "internalType": "struct Layers.Layer[]",
          "name": "_layers",
          "type": "tuple[]"
        }
      ],
      "name": "uploadLayers",
      "outputs": [],
      "stateMutability": "nonpayable",
      "type": "function"
    }
  ],
  "bytecode": "0x60806040526040518061012001604052806040518060400160405280600a81526020017f6261636b67726f756e640000000000000000000000000000000000000000000081525081526020016040518060400160405280600481526020017f626f64790000000000000000000000000000000000000000000000000000000081525081526020016040518060400160405280600481526020017f657965730000000000000000000000000000000000000000000000000000000081525081526020016040518060400160405280600581526020017f746565746800000000000000000000000000000000000000000000000000000081525081526020016040518060400160405280600781526020017f6761726d656e740000000000000000000000000000000000000000000000000081525081526020016040518060400160405280600581526020017f636861696e00000000000000000000000000000000000000000000000000000081525081526020016040518060400160405280600481526020017f666163650000000000000000000000000000000000000000000000000000000081525081526020016040518060400160405280600381526020017f656172000000000000000000000000000000000000000000000000000000000081525081526020016040518060400160405280600481526020017f686561640000000000000000000000000000000000000000000000000000000081525081525060019060096200023392919062000248565b503480156200024157600080fd5b5062000425565b82600981019282156200028f579160200282015b828111156200028e5782518290805190602001906200027d929190620002a2565b50916020019190600101906200025c565b5b5090506200029e919062000333565b5090565b828054620002b090620003ef565b90600052602060002090601f016020900481019282620002d4576000855562000320565b82601f10620002ef57805160ff191683800117855562000320565b8280016001018555821562000320579182015b828111156200031f57825182559160200191906001019062000302565b5b5090506200032f91906200035b565b5090565b5b808211156200035757600081816200034d91906200037a565b5060010162000334565b5090565b5b80821115620003765760008160009055506001016200035c565b5090565b5080546200038890620003ef565b6000825580601f106200039c5750620003bd565b601f016020900490600052602060002090810190620003bc91906200035b565b5b50565b7f4e487b7100000000000000000000000000000000000000000000000000000000600052602260045260246000fd5b600060028204905060018216806200040857607f821691505b602082108114156200041f576200041e620003c0565b5b50919050565b6140b380620004356000396000f3fe608060405234801561001057600080fd5b50600436106100a95760003560e01c80638ad91345116100715780638ad913451461017757806391d14854146101a7578063a217fddf146101d7578063c4d66de8146101f5578063d547741f14610211578063fa6d5e9c1461022d576100a9565b806301ffc9a7146100ae578063248a9ca3146100de5780632f2ff15d1461010e5780633173e00d1461012a57806336568abe1461015b575b600080fd5b6100c860048036038101906100c39190612c57565b610249565b6040516100d59190612c9f565b60405180910390f35b6100f860048036038101906100f39190612cf0565b6102c3565b6040516101059190612d2c565b60405180910390f35b61012860048036038101906101239190612da5565b6102e2565b005b610144600480360381019061013f9190612e1e565b61030b565b604051610152929190612ef7565b60405180910390f35b61017560048036038101906101709190612da5565b61044c565b005b610191600480360381019061018c9190612f64565b6104cf565b60405161019e9190612f91565b60405180910390f35b6101c160048036038101906101bc9190612da5565b610549565b6040516101ce9190612c9f565b60405180910390f35b6101df6105b3565b6040516101ec9190612d2c565b60405180910390f35b61020f600480360381019061020a9190612fb3565b6105ba565b005b61022b60048036038101906102269190612da5565b610614565b005b61024760048036038101906102429190613045565b61063d565b005b60007f7965db0b000000000000000000000000000000000000000000000000000000007bffffffffffffffffffffffffffffffffffffffffffffffffffffffff1916827bffffffffffffffffffffffffffffffffffffffffffffffffffffffff191614806102bc57506102bb826107f1565b5b9050919050565b6000806000838152602001908152602001600020600101549050919050565b6102eb826102c3565b6102fc816102f761085b565b610863565b6103068383610900565b505050565b600b6020528160005260406000206020528060005260406000206000915091505080600001805461033b906130d4565b80601f0160208091040260200160405190810160405280929190818152602001828054610367906130d4565b80156103b45780601f10610389576101008083540402835291602001916103b4565b820191906000526020600020905b81548152906001019060200180831161039757829003601f168201915b5050505050908060010180546103c9906130d4565b80601f01602080910402602001604051908101604052809291908181526020018280546103f5906130d4565b80156104425780601f1061041757610100808354040283529160200191610442565b820191906000526020600020905b81548152906001019060200180831161042557829003601f168201915b5050505050905082565b61045461085b565b73ffffffffffffffffffffffffffffffffffffffff168173ffffffffffffffffffffffffffffffffffffffff16146104c1576040517f08c379a00000000000000000000000000000000000000000000000000000000081526004016104b890613178565b60405180910390fd5b6104cb82826109e0565b5050565b606060006104dc83610ac1565b6104ed6104e885610c22565b6119ca565b6104f685611b4f565b6040516020016105089392919061339c565b6040516020818303038152906040529050610522816119ca565b6040516020016105329190613450565b604051602081830303815290604052915050919050565b600080600084815260200190815260200160002060000160008373ffffffffffffffffffffffffffffffffffffffff1673ffffffffffffffffffffffffffffffffffffffff16815260200190815260200160002060009054906101000a900460ff16905092915050565b6000801b81565b6000801b6105cf816105ca61085b565b610863565b81600a60006101000a81548173ffffffffffffffffffffffffffffffffffffffff021916908373ffffffffffffffffffffffffffffffffffffffff1602179055505050565b61061d826102c3565b61062e8161062961085b565b610863565b61063883836109e0565b505050565b6000801b6106528161064d61085b565b610863565b60005b838390508160ff1610156107ea57604051806040016040528085858460ff1681811061068457610683613472565b5b905060200281019061069691906134b0565b80602001906106a591906134d8565b8080601f016020809104026020016040519081016040528093929190818152602001838380828437600081840152601f19601f82011690508083019250505050505050815260200185858460ff1681811061070357610702613472565b5b905060200281019061071591906134b0565b806000019061072491906134d8565b8080601f016020809104026020016040519081016040528093929190818152602001838380828437600081840152601f19601f82011690508083019250505050505050815250600b60008760ff1660ff16815260200190815260200160002060008360ff1660ff16815260200190815260200160002060008201518160000190805190602001906107b6929190612b48565b5060208201518160010190805190602001906107d3929190612b48565b5090505080806107e29061356a565b915050610655565b5050505050565b60007f01ffc9a7000000000000000000000000000000000000000000000000000000007bffffffffffffffffffffffffffffffffffffffffffffffffffffffff1916827bffffffffffffffffffffffffffffffffffffffffffffffffffffffff1916149050919050565b600033905090565b61086d8282610549565b6108fc576108928173ffffffffffffffffffffffffffffffffffffffff1660146128b3565b6108a08360001c60206128b3565b6040516020016108b192919061362c565b6040516020818303038152906040526040517f08c379a00000000000000000000000000000000000000000000000000000000081526004016108f39190612f91565b60405180910390fd5b5050565b61090a8282610549565b6109dc57600160008084815260200190815260200160002060000160008373ffffffffffffffffffffffffffffffffffffffff1673ffffffffffffffffffffffffffffffffffffffff16815260200190815260200160002060006101000a81548160ff02191690831515021790555061098161085b565b73ffffffffffffffffffffffffffffffffffffffff168173ffffffffffffffffffffffffffffffffffffffff16837f2f8788117e7eff1d82e926ec794901d17c78024a50270940304540a733656f0d60405160405180910390a45b5050565b6109ea8282610549565b15610abd57600080600084815260200190815260200160002060000160008373ffffffffffffffffffffffffffffffffffffffff1673ffffffffffffffffffffffffffffffffffffffff16815260200190815260200160002060006101000a81548160ff021916908315150217905550610a6261085b565b73ffffffffffffffffffffffffffffffffffffffff168173ffffffffffffffffffffffffffffffffffffffff16837ff6391f5c32d9c69d2a47ea670b442974b53935d1edc7fd64eb21e047a839171b60405160405180910390a45b5050565b60606000821415610b09576040518060400160405280600181526020017f30000000000000000000000000000000000000000000000000000000000000008152509050610c1d565b600082905060005b60008214610b3b578080610b2490613666565b915050600a82610b3491906136de565b9150610b11565b60008167ffffffffffffffff811115610b5757610b5661370f565b5b6040519080825280601f01601f191660200182016040528015610b895781602001600182028036833780820191505090505b5090505b60008514610c1657600182610ba2919061373e565b9150600a85610bb19190613772565b6030610bbd91906137a3565b60f81b818381518110610bd357610bd2613472565b5b60200101907effffffffffffffffffffffffffffffffffffffffffffffffffffffffffffff1916908160001a905350600a85610c0f91906136de565b9450610b8d565b8093505050505b919050565b60606000600a60009054906101000a900473ffffffffffffffffffffffffffffffffffffffff1673ffffffffffffffffffffffffffffffffffffffff1663b09afec1846040518263ffffffff1660e01b8152600401610c819190613808565b61012060405180830381865afa158015610c9f573d6000803e3d6000fd5b505050506040513d601f19601f82011682018060405250810190610cc39190613969565b90506000610e2f600b60008060ff1681526020019081526020016000206000846000015160ff1660ff168152602001908152602001600020604051806040016040529081600082018054610d16906130d4565b80601f0160208091040260200160405190810160405280929190818152602001828054610d42906130d4565b8015610d8f5780601f10610d6457610100808354040283529160200191610d8f565b820191906000526020600020905b815481529060010190602001808311610d7257829003601f168201915b50505050508152602001600182018054610da8906130d4565b80601f0160208091040260200160405190810160405280929190818152602001828054610dd4906130d4565b8015610e215780601f10610df657610100808354040283529160200191610e21565b820191906000526020600020905b815481529060010190602001808311610e0457829003601f168201915b505050505081525050612aef565b610f98600b6000600160ff1681526020019081526020016000206000856020015160ff1660ff168152602001908152602001600020604051806040016040529081600082018054610e7f906130d4565b80601f0160208091040260200160405190810160405280929190818152602001828054610eab906130d4565b8015610ef85780601f10610ecd57610100808354040283529160200191610ef8565b820191906000526020600020905b815481529060010190602001808311610edb57829003601f168201915b50505050508152602001600182018054610f11906130d4565b80601f0160208091040260200160405190810160405280929190818152602001828054610f3d906130d4565b8015610f8a5780601f10610f5f57610100808354040283529160200191610f8a565b820191906000526020600020905b815481529060010190602001808311610f6d57829003601f168201915b505050505081525050612aef565b611101600b6000600260ff1681526020019081526020016000206000866040015160ff1660ff168152602001908152602001600020604051806040016040529081600082018054610fe8906130d4565b80601f0160208091040260200160405190810160405280929190818152602001828054611014906130d4565b80156110615780601f1061103657610100808354040283529160200191611061565b820191906000526020600020905b81548152906001019060200180831161104457829003601f168201915b5050505050815260200160018201805461107a906130d4565b80601f01602080910402602001604051908101604052809291908181526020018280546110a6906130d4565b80156110f35780601f106110c8576101008083540402835291602001916110f3565b820191906000526020600020905b8154815290600101906020018083116110d657829003601f168201915b505050505081525050612aef565b61126a600b6000600360ff1681526020019081526020016000206000876060015160ff1660ff168152602001908152602001600020604051806040016040529081600082018054611151906130d4565b80601f016020809104026020016040519081016040528092919081815260200182805461117d906130d4565b80156111ca5780601f1061119f576101008083540402835291602001916111ca565b820191906000526020600020905b8154815290600101906020018083116111ad57829003601f168201915b505050505081526020016001820180546111e3906130d4565b80601f016020809104026020016040519081016040528092919081815260200182805461120f906130d4565b801561125c5780601f106112315761010080835404028352916020019161125c565b820191906000526020600020905b81548152906001019060200180831161123f57829003601f168201915b505050505081525050612aef565b6113d3600b6000600460ff1681526020019081526020016000206000886080015160ff1660ff1681526020019081526020016000206040518060400160405290816000820180546112ba906130d4565b80601f01602080910402602001604051908101604052809291908181526020018280546112e6906130d4565b80156113335780601f1061130857610100808354040283529160200191611333565b820191906000526020600020905b81548152906001019060200180831161131657829003601f168201915b5050505050815260200160018201805461134c906130d4565b80601f0160208091040260200160405190810160405280929190818152602001828054611378906130d4565b80156113c55780601f1061139a576101008083540402835291602001916113c5565b820191906000526020600020905b8154815290600101906020018083116113a857829003601f168201915b505050505081525050612aef565b61153c600b6000600560ff16815260200190815260200160002060008960a0015160ff1660ff168152602001908152602001600020604051806040016040529081600082018054611423906130d4565b80601f016020809104026020016040519081016040528092919081815260200182805461144f906130d4565b801561149c5780601f106114715761010080835404028352916020019161149c565b820191906000526020600020905b81548152906001019060200180831161147f57829003601f168201915b505050505081526020016001820180546114b5906130d4565b80601f01602080910402602001604051908101604052809291908181526020018280546114e1906130d4565b801561152e5780601f106115035761010080835404028352916020019161152e565b820191906000526020600020905b81548152906001019060200180831161151157829003601f168201915b505050505081525050612aef565b6116a5600b6000600660ff16815260200190815260200160002060008a60c0015160ff1660ff16815260200190815260200160002060405180604001604052908160008201805461158c906130d4565b80601f01602080910402602001604051908101604052809291908181526020018280546115b8906130d4565b80156116055780601f106115da57610100808354040283529160200191611605565b820191906000526020600020905b8154815290600101906020018083116115e857829003601f168201915b5050505050815260200160018201805461161e906130d4565b80601f016020809104026020016040519081016040528092919081815260200182805461164a906130d4565b80156116975780601f1061166c57610100808354040283529160200191611697565b820191906000526020600020905b81548152906001019060200180831161167a57829003601f168201915b505050505081525050612aef565b61180e600b6000600760ff16815260200190815260200160002060008b60e0015160ff1660ff1681526020019081526020016000206040518060400160405290816000820180546116f5906130d4565b80601f0160208091040260200160405190810160405280929190818152602001828054611721906130d4565b801561176e5780601f106117435761010080835404028352916020019161176e565b820191906000526020600020905b81548152906001019060200180831161175157829003601f168201915b50505050508152602001600182018054611787906130d4565b80601f01602080910402602001604051908101604052809291908181526020018280546117b3906130d4565b80156118005780601f106117d557610100808354040283529160200191611800565b820191906000526020600020905b8154815290600101906020018083116117e357829003601f168201915b505050505081525050612aef565b611978600b6000600860ff16815260200190815260200160002060008c610100015160ff1660ff16815260200190815260200160002060405180604001604052908160008201805461185f906130d4565b80601f016020809104026020016040519081016040528092919081815260200182805461188b906130d4565b80156118d85780601f106118ad576101008083540402835291602001916118d8565b820191906000526020600020905b8154815290600101906020018083116118bb57829003601f168201915b505050505081526020016001820180546118f1906130d4565b80601f016020809104026020016040519081016040528092919081815260200182805461191d906130d4565b801561196a5780601f1061193f5761010080835404028352916020019161196a565b820191906000526020600020905b81548152906001019060200180831161194d57829003601f168201915b505050505081525050612aef565b60405160200161199099989796959493929190613997565b6040516020818303038152906040529050806040516020016119b29190613b46565b60405160208183030381529060405292505050919050565b60606000825114156119ed57604051806020016040528060008152509050611b4a565b600060405180606001604052806040815260200161403e6040913990506000600360028551611a1c91906137a3565b611a2691906136de565b6004611a329190613b73565b90506000602082611a4391906137a3565b67ffffffffffffffff811115611a5c57611a5b61370f565b5b6040519080825280601f01601f191660200182016040528015611a8e5781602001600182028036833780820191505090505b509050818152600183018586518101602084015b81831015611b09576003830192508251603f8160121c1685015160f81b8252600182019150603f81600c1c1685015160f81b8252600182019150603f8160061c1685015160f81b8252600182019150603f811685015160f81b825260018201915050611aa2565b600389510660018114611b235760028114611b3357611b3e565b613d3d60f01b6002830352611b3e565b603d60f81b60018303525b50505050508093505050505b919050565b60606000600a60009054906101000a900473ffffffffffffffffffffffffffffffffffffffff1673ffffffffffffffffffffffffffffffffffffffff1663b09afec1846040518263ffffffff1660e01b8152600401611bae9190613808565b61012060405180830381865afa158015611bcc573d6000803e3d6000fd5b505050506040513d601f19601f82011682018060405250810190611bf09190613969565b90506000611d586001600060098110611c0c57611c0b613472565b5b018054611c18906130d4565b80601f0160208091040260200160405190810160405280929190818152602001828054611c44906130d4565b8015611c915780601f10611c6657610100808354040283529160200191611c91565b820191906000526020600020905b815481529060010190602001808311611c7457829003601f168201915b5050505050600b60008060ff1681526020019081526020016000206000856000015160ff1660ff1681526020019081526020016000206001018054611cd5906130d4565b80601f0160208091040260200160405190810160405280929190818152602001828054611d01906130d4565b8015611d4e5780601f10611d2357610100808354040283529160200191611d4e565b820191906000526020600020905b815481529060010190602001808311611d3157829003601f168201915b5050505050612b1c565b611ebc60018060098110611d6f57611d6e613472565b5b018054611d7b906130d4565b80601f0160208091040260200160405190810160405280929190818152602001828054611da7906130d4565b8015611df45780601f10611dc957610100808354040283529160200191611df4565b820191906000526020600020905b815481529060010190602001808311611dd757829003601f168201915b5050505050600b6000600160ff1681526020019081526020016000206000866020015160ff1660ff1681526020019081526020016000206001018054611e39906130d4565b80601f0160208091040260200160405190810160405280929190818152602001828054611e65906130d4565b8015611eb25780601f10611e8757610100808354040283529160200191611eb2565b820191906000526020600020905b815481529060010190602001808311611e9557829003601f168201915b5050505050612b1c565b6120216001600260098110611ed457611ed3613472565b5b018054611ee0906130d4565b80601f0160208091040260200160405190810160405280929190818152602001828054611f0c906130d4565b8015611f595780601f10611f2e57610100808354040283529160200191611f59565b820191906000526020600020905b815481529060010190602001808311611f3c57829003601f168201915b5050505050600b6000600260ff1681526020019081526020016000206000876040015160ff1660ff1681526020019081526020016000206001018054611f9e906130d4565b80601f0160208091040260200160405190810160405280929190818152602001828054611fca906130d4565b80156120175780601f10611fec57610100808354040283529160200191612017565b820191906000526020600020905b815481529060010190602001808311611ffa57829003601f168201915b5050505050612b1c565b612186600160036009811061203957612038613472565b5b018054612045906130d4565b80601f0160208091040260200160405190810160405280929190818152602001828054612071906130d4565b80156120be5780601f10612093576101008083540402835291602001916120be565b820191906000526020600020905b8154815290600101906020018083116120a157829003601f168201915b5050505050600b6000600360ff1681526020019081526020016000206000886060015160ff1660ff1681526020019081526020016000206001018054612103906130d4565b80601f016020809104026020016040519081016040528092919081815260200182805461212f906130d4565b801561217c5780601f106121515761010080835404028352916020019161217c565b820191906000526020600020905b81548152906001019060200180831161215f57829003601f168201915b5050505050612b1c565b6122eb600160046009811061219e5761219d613472565b5b0180546121aa906130d4565b80601f01602080910402602001604051908101604052809291908181526020018280546121d6906130d4565b80156122235780601f106121f857610100808354040283529160200191612223565b820191906000526020600020905b81548152906001019060200180831161220657829003601f168201915b5050505050600b6000600460ff1681526020019081526020016000206000896080015160ff1660ff1681526020019081526020016000206001018054612268906130d4565b80601f0160208091040260200160405190810160405280929190818152602001828054612294906130d4565b80156122e15780601f106122b6576101008083540402835291602001916122e1565b820191906000526020600020905b8154815290600101906020018083116122c457829003601f168201915b5050505050612b1c565b612450600160056009811061230357612302613472565b5b01805461230f906130d4565b80601f016020809104026020016040519081016040528092919081815260200182805461233b906130d4565b80156123885780601f1061235d57610100808354040283529160200191612388565b820191906000526020600020905b81548152906001019060200180831161236b57829003601f168201915b5050505050600b6000600560ff16815260200190815260200160002060008a60a0015160ff1660ff16815260200190815260200160002060010180546123cd906130d4565b80601f01602080910402602001604051908101604052809291908181526020018280546123f9906130d4565b80156124465780601f1061241b57610100808354040283529160200191612446565b820191906000526020600020905b81548152906001019060200180831161242957829003601f168201915b5050505050612b1c565b6125b5600160066009811061246857612467613472565b5b018054612474906130d4565b80601f01602080910402602001604051908101604052809291908181526020018280546124a0906130d4565b80156124ed5780601f106124c2576101008083540402835291602001916124ed565b820191906000526020600020905b8154815290600101906020018083116124d057829003601f168201915b5050505050600b6000600660ff16815260200190815260200160002060008b60c0015160ff1660ff1681526020019081526020016000206001018054612532906130d4565b80601f016020809104026020016040519081016040528092919081815260200182805461255e906130d4565b80156125ab5780601f10612580576101008083540402835291602001916125ab565b820191906000526020600020905b81548152906001019060200180831161258e57829003601f168201915b5050505050612b1c565b61271a60016007600981106125cd576125cc613472565b5b0180546125d9906130d4565b80601f0160208091040260200160405190810160405280929190818152602001828054612605906130d4565b80156126525780601f1061262757610100808354040283529160200191612652565b820191906000526020600020905b81548152906001019060200180831161263557829003601f168201915b5050505050600b6000600760ff16815260200190815260200160002060008c60e0015160ff1660ff1681526020019081526020016000206001018054612697906130d4565b80601f01602080910402602001604051908101604052809291908181526020018280546126c3906130d4565b80156127105780601f106126e557610100808354040283529160200191612710565b820191906000526020600020905b8154815290600101906020018083116126f357829003601f168201915b5050505050612b1c565b612880600160086009811061273257612731613472565b5b01805461273e906130d4565b80601f016020809104026020016040519081016040528092919081815260200182805461276a906130d4565b80156127b75780601f1061278c576101008083540402835291602001916127b7565b820191906000526020600020905b81548152906001019060200180831161279a57829003601f168201915b5050505050600b6000600860ff16815260200190815260200160002060008d610100015160ff1660ff16815260200190815260200160002060010180546127fd906130d4565b80601f0160208091040260200160405190810160405280929190818152602001828054612829906130d4565b80156128765780601f1061284b57610100808354040283529160200191612876565b820191906000526020600020905b81548152906001019060200180831161285957829003601f168201915b5050505050612b1c565b60405160200161289899989796959493929190613c65565b60405160208183030381529060405290508092505050919050565b6060600060028360026128c69190613b73565b6128d091906137a3565b67ffffffffffffffff8111156128e9576128e861370f565b5b6040519080825280601f01601f19166020018201604052801561291b5781602001600182028036833780820191505090505b5090507f30000000000000000000000000000000000000000000000000000000000000008160008151811061295357612952613472565b5b60200101907effffffffffffffffffffffffffffffffffffffffffffffffffffffffffffff1916908160001a9053507f7800000000000000000000000000000000000000000000000000000000000000816001815181106129b7576129b6613472565b5b60200101907effffffffffffffffffffffffffffffffffffffffffffffffffffffffffffff1916908160001a905350600060018460026129f79190613b73565b612a0191906137a3565b90505b6001811115612aa1577f3031323334353637383961626364656600000000000000000000000000000000600f861660108110612a4357612a42613472565b5b1a60f81b828281518110612a5a57612a59613472565b5b60200101907effffffffffffffffffffffffffffffffffffffffffffffffffffffffffffff1916908160001a905350600485901c945080612a9a90613d47565b9050612a04565b5060008414612ae5576040517f08c379a0000000000000000000000000000000000000000000000000000000008152600401612adc90613dbd565b60405180910390fd5b8091505092915050565b60608160000151604051602001612b069190613ee7565b6040516020818303038152906040529050919050565b60608282604051602001612b31929190613ff8565b604051602081830303815290604052905092915050565b828054612b54906130d4565b90600052602060002090601f016020900481019282612b765760008555612bbd565b82601f10612b8f57805160ff1916838001178555612bbd565b82800160010185558215612bbd579182015b82811115612bbc578251825591602001919060010190612ba1565b5b509050612bca9190612bce565b5090565b5b80821115612be7576000816000905550600101612bcf565b5090565b6000604051905090565b600080fd5b600080fd5b60007fffffffff0000000000000000000000000000000000000000000000000000000082169050919050565b612c3481612bff565b8114612c3f57600080fd5b50565b600081359050612c5181612c2b565b92915050565b600060208284031215612c6d57612c6c612bf5565b5b6000612c7b84828501612c42565b91505092915050565b60008115159050919050565b612c9981612c84565b82525050565b6000602082019050612cb46000830184612c90565b92915050565b6000819050919050565b612ccd81612cba565b8114612cd857600080fd5b50565b600081359050612cea81612cc4565b92915050565b600060208284031215612d0657612d05612bf5565b5b6000612d1484828501612cdb565b91505092915050565b612d2681612cba565b82525050565b6000602082019050612d416000830184612d1d565b92915050565b600073ffffffffffffffffffffffffffffffffffffffff82169050919050565b6000612d7282612d47565b9050919050565b612d8281612d67565b8114612d8d57600080fd5b50565b600081359050612d9f81612d79565b92915050565b60008060408385031215612dbc57612dbb612bf5565b5b6000612dca85828601612cdb565b9250506020612ddb85828601612d90565b9150509250929050565b600060ff82169050919050565b612dfb81612de5565b8114612e0657600080fd5b50565b600081359050612e1881612df2565b92915050565b60008060408385031215612e3557612e34612bf5565b5b6000612e4385828601612e09565b9250506020612e5485828601612e09565b9150509250929050565b600081519050919050565b600082825260208201905092915050565b60005b83811015612e98578082015181840152602081019050612e7d565b83811115612ea7576000848401525b50505050565b6000601f19601f8301169050919050565b6000612ec982612e5e565b612ed38185612e69565b9350612ee3818560208601612e7a565b612eec81612ead565b840191505092915050565b60006040820190508181036000830152612f118185612ebe565b90508181036020830152612f258184612ebe565b90509392505050565b6000819050919050565b612f4181612f2e565b8114612f4c57600080fd5b50565b600081359050612f5e81612f38565b92915050565b600060208284031215612f7a57612f79612bf5565b5b6000612f8884828501612f4f565b91505092915050565b60006020820190508181036000830152612fab8184612ebe565b905092915050565b600060208284031215612fc957612fc8612bf5565b5b6000612fd784828501612d90565b91505092915050565b600080fd5b600080fd5b600080fd5b60008083601f84011261300557613004612fe0565b5b8235905067ffffffffffffffff81111561302257613021612fe5565b5b60208301915083602082028301111561303e5761303d612fea565b5b9250929050565b60008060006040848603121561305e5761305d612bf5565b5b600061306c86828701612e09565b935050602084013567ffffffffffffffff81111561308d5761308c612bfa565b5b61309986828701612fef565b92509250509250925092565b7f4e487b7100000000000000000000000000000000000000000000000000000000600052602260045260246000fd5b600060028204905060018216806130ec57607f821691505b60208210811415613100576130ff6130a5565b5b50919050565b7f416363657373436f6e74726f6c3a2063616e206f6e6c792072656e6f756e636560008201527f20726f6c657320666f722073656c660000000000000000000000000000000000602082015250565b6000613162602f83612e69565b915061316d82613106565b604082019050919050565b6000602082019050818103600083015261319181613155565b9050919050565b600081905092915050565b7f7b226e616d65223a202200000000000000000000000000000000000000000000600082015250565b60006131d9600a83613198565b91506131e4826131a3565b600a82019050919050565b7f4172746973742023000000000000000000000000000000000000000000000000600082015250565b6000613225600883613198565b9150613230826131ef565b600882019050919050565b600061324682612e5e565b6132508185613198565b9350613260818560208601612e7a565b80840191505092915050565b7f222c20226465736372697074696f6e223a2022426c616820426c616820426c6160008201527f682e222c2022696d616765223a2022646174613a696d6167652f7376672b786d60208201527f6c3b6261736536342c0000000000000000000000000000000000000000000000604082015250565b60006132ee604983613198565b91506132f98261326c565b604982019050919050565b7f222c202261747472696275746573223a00000000000000000000000000000000600082015250565b600061333a601083613198565b915061334582613304565b601082019050919050565b7f7d00000000000000000000000000000000000000000000000000000000000000600082015250565b6000613386600183613198565b915061339182613350565b600182019050919050565b60006133a7826131cc565b91506133b282613218565b91506133be828661323b565b91506133c9826132e1565b91506133d5828561323b565b91506133e08261332d565b91506133ec828461323b565b91506133f782613379565b9150819050949350505050565b7f646174613a6170706c69636174696f6e2f6a736f6e3b6261736536342c000000600082015250565b600061343a601d83613198565b915061344582613404565b601d82019050919050565b600061345b8261342d565b9150613467828461323b565b915081905092915050565b7f4e487b7100000000000000000000000000000000000000000000000000000000600052603260045260246000fd5b600080fd5b600080fd5b600080fd5b6000823560016040038336030381126134cc576134cb6134a1565b5b80830191505092915050565b600080833560016020038436030381126134f5576134f46134a1565b5b80840192508235915067ffffffffffffffff821115613517576135166134a6565b5b602083019250600182023603831315613533576135326134ab565b5b509250929050565b7f4e487b7100000000000000000000000000000000000000000000000000000000600052601160045260246000fd5b600061357582612de5565b915060ff8214156135895761358861353b565b5b600182019050919050565b7f416363657373436f6e74726f6c3a206163636f756e7420000000000000000000600082015250565b60006135ca601783613198565b91506135d582613594565b601782019050919050565b7f206973206d697373696e6720726f6c6520000000000000000000000000000000600082015250565b6000613616601183613198565b9150613621826135e0565b601182019050919050565b6000613637826135bd565b9150613643828561323b565b915061364e82613609565b915061365a828461323b565b91508190509392505050565b600061367182612f2e565b91507fffffffffffffffffffffffffffffffffffffffffffffffffffffffffffffffff8214156136a4576136a361353b565b5b600182019050919050565b7f4e487b7100000000000000000000000000000000000000000000000000000000600052601260045260246000fd5b60006136e982612f2e565b91506136f483612f2e565b925082613704576137036136af565b5b828204905092915050565b7f4e487b7100000000000000000000000000000000000000000000000000000000600052604160045260246000fd5b600061374982612f2e565b915061375483612f2e565b9250828210156137675761376661353b565b5b828203905092915050565b600061377d82612f2e565b915061378883612f2e565b925082613798576137976136af565b5b828206905092915050565b60006137ae82612f2e565b91506137b983612f2e565b9250827fffffffffffffffffffffffffffffffffffffffffffffffffffffffffffffffff038211156137ee576137ed61353b565b5b828201905092915050565b61380281612f2e565b82525050565b600060208201905061381d60008301846137f9565b92915050565b600080fd5b61383182612ead565b810181811067ffffffffffffffff821117156138505761384f61370f565b5b80604052505050565b6000613863612beb565b905061386f8282613828565b919050565b60008151905061388381612df2565b92915050565b600061012082840312156138a05761389f613823565b5b6138ab610120613859565b905060006138bb84828501613874565b60008301525060206138cf84828501613874565b60208301525060406138e384828501613874565b60408301525060606138f784828501613874565b606083015250608061390b84828501613874565b60808301525060a061391f84828501613874565b60a08301525060c061393384828501613874565b60c08301525060e061394784828501613874565b60e08301525061010061395c84828501613874565b6101008301525092915050565b600061012082840312156139805761397f612bf5565b5b600061398e84828501613889565b91505092915050565b60006139a3828c61323b565b91506139af828b61323b565b91506139bb828a61323b565b91506139c7828961323b565b91506139d3828861323b565b91506139df828761323b565b91506139eb828661323b565b91506139f7828561323b565b9150613a03828461323b565b91508190509a9950505050505050505050565b7f3c7376672069643d22617274697374222077696474683d22313030252220686560008201527f696768743d2231303025222076657273696f6e3d22312e31222076696577426f60208201527f783d22302030203130323420313032342220786d6c6e733d22687474703a2f2f60408201527f7777772e77332e6f72672f323030302f7376672220786d6c6e733a786c696e6b60608201527f3d22687474703a2f2f7777772e77332e6f72672f313939392f786c696e6b223e608082015250565b6000613ae460a083613198565b9150613aef82613a16565b60a082019050919050565b7f3c2f7376673e0000000000000000000000000000000000000000000000000000600082015250565b6000613b30600683613198565b9150613b3b82613afa565b600682019050919050565b6000613b5182613ad7565b9150613b5d828461323b565b9150613b6882613b23565b915081905092915050565b6000613b7e82612f2e565b9150613b8983612f2e565b9250817fffffffffffffffffffffffffffffffffffffffffffffffffffffffffffffffff0483118215151615613bc257613bc161353b565b5b828202905092915050565b7f5b00000000000000000000000000000000000000000000000000000000000000600082015250565b6000613c03600183613198565b9150613c0e82613bcd565b600182019050919050565b7f2c00000000000000000000000000000000000000000000000000000000000000600082015250565b6000613c4f600183613198565b9150613c5a82613c19565b600182019050919050565b6000613c7082613bf6565b9150613c7c828c61323b565b9150613c88828b61323b565b9150613c9382613c42565b9150613c9f828a61323b565b9150613caa82613c42565b9150613cb6828961323b565b9150613cc182613c42565b9150613ccd828861323b565b9150613cd882613c42565b9150613ce4828761323b565b9150613cef82613c42565b9150613cfb828661323b565b9150613d0682613c42565b9150613d12828561323b565b9150613d1d82613c42565b9150613d29828461323b565b9150613d3482613c42565b91508190509a9950505050505050505050565b6000613d5282612f2e565b91506000821415613d6657613d6561353b565b5b600182039050919050565b7f537472696e67733a20686578206c656e67746820696e73756666696369656e74600082015250565b6000613da7602083612e69565b9150613db282613d71565b602082019050919050565b60006020820190508181036000830152613dd681613d9a565b9050919050565b7f3c696d61676520783d22302220793d2230222077696474683d2231303234222060008201527f6865696768743d22313032342220696d6167652d72656e646572696e673d227060208201527f6978656c617465642220786c696e6b3a687265663d2268747470733a2f2f697060408201527f66732e696f2f697066732f000000000000000000000000000000000000000000606082015250565b6000613e85606b83613198565b9150613e9082613ddd565b606b82019050919050565b7f22202f3e00000000000000000000000000000000000000000000000000000000600082015250565b6000613ed1600483613198565b9150613edc82613e9b565b600482019050919050565b6000613ef282613e78565b9150613efe828461323b565b9150613f0982613ec4565b915081905092915050565b7f7b2274726169745f74797065223a220000000000000000000000000000000000600082015250565b6000613f4a600f83613198565b9150613f5582613f14565b600f82019050919050565b7f222c2276616c7565223a22000000000000000000000000000000000000000000600082015250565b6000613f96600b83613198565b9150613fa182613f60565b600b82019050919050565b7f227d000000000000000000000000000000000000000000000000000000000000600082015250565b6000613fe2600283613198565b9150613fed82613fac565b600282019050919050565b600061400382613f3d565b915061400f828561323b565b915061401a82613f89565b9150614026828461323b565b915061403182613fd5565b9150819050939250505056fe4142434445464748494a4b4c4d4e4f505152535455565758595a6162636465666768696a6b6c6d6e6f707172737475767778797a303132333435363738392b2fa2646970667358221220adc895de62ca0a0b76e9311c65afd03dad693ffd91f3efdbca0c3cca9c80e82664736f6c634300080a0033",
  "immutableReferences": {},
  "source": "// SPDX-License-Identifier: MIT\npragma solidity ^0.8.2;\n\nimport \"@openzeppelin/contracts/access/AccessControl.sol\";\nimport \"@openzeppelin/contracts/utils/Strings.sol\";\nimport \"./INft.sol\";\nimport \"./Base64.sol\";\n\ncontract Layers is AccessControl {\n  //Usings\n  using Strings for uint256;\n\n  //Structs\n  struct Layer {\n    string cid;\n    string name;\n  }\n\n  //State Variables\n  string[9] layers = [\"background\",\"body\",\"eyes\",\"teeth\",\"garment\",\"chain\",\"face\",\"ear\",\"head\"];\n  INft nftContract;\n\n  //State Mappings\n  mapping (uint8 => mapping(uint8 => Layer)) public layerData;  // layer => option => Name/CID\n\n  //Functions\n  function attributeForTypeAndValue(string memory traitType, string memory value) internal pure returns (string memory) {\n    return string(abi.encodePacked(\n      '{\"trait_type\":\"',\n      traitType,\n      '\",\"value\":\"',\n      value,\n      '\"}'\n    ));\n  }\n  \n  function compileAttributes(uint256 tokenId) internal view returns (string memory) {\n    INft.Person memory a = nftContract.getTokenData(tokenId);\n    string memory traits = string(abi.encodePacked(\n      '[',\n      attributeForTypeAndValue(layers[0], layerData[0][a.background].name),\n      attributeForTypeAndValue(layers[1], layerData[1][a.body].name), ',',\n      attributeForTypeAndValue(layers[2], layerData[2][a.eyes].name), ',',\n      attributeForTypeAndValue(layers[3], layerData[3][a.teeth].name), ',',\n      attributeForTypeAndValue(layers[4], layerData[4][a.garment].name), ',',\n      attributeForTypeAndValue(layers[5], layerData[5][a.chain].name), ',',\n      attributeForTypeAndValue(layers[6], layerData[6][a.face].name), ',',\n      attributeForTypeAndValue(layers[7], layerData[7][a.ear].name), ',',\n      attributeForTypeAndValue(layers[8], layerData[8][a.head].name), ','\n    ));\n\n    return traits;\n  }\n\n  function drawLayer(Layer memory layer) internal pure returns (string memory) {\n    return string(abi.encodePacked(\n      '<image x=\"0\" y=\"0\" width=\"1024\" height=\"1024\" image-rendering=\"pixelated\" xlink:href=\"https://ipfs.io/ipfs/', \n      layer.cid,\n      '\" />'  \n    ));\n  }\n\n  function drawSVG(uint256 tokenId) internal view returns (string memory) {\n    INft.Person memory a = nftContract.getTokenData(tokenId);\n    string memory svgString = string(abi.encodePacked(\n      drawLayer(layerData[0][a.background]),\n      drawLayer(layerData[1][a.body]),\n      drawLayer(layerData[2][a.eyes]),\n      drawLayer(layerData[3][a.teeth]),\n      drawLayer(layerData[4][a.garment]),\n      drawLayer(layerData[5][a.chain]),\n      drawLayer(layerData[6][a.face]),\n      drawLayer(layerData[7][a.ear]),\n      drawLayer(layerData[8][a.head])\n    ));\n\n    return string(abi.encodePacked(\n      '<svg id=\"artist\" width=\"100%\" height=\"100%\" version=\"1.1\" viewBox=\"0 0 1024 1024\" xmlns=\"http://www.w3.org/2000/svg\" xmlns:xlink=\"http://www.w3.org/1999/xlink\">',\n      svgString,\n      \"</svg>\"\n    ));\n  }\n\n  function getTokenUri(uint256 tokenId) public view returns (string memory) {\n    string memory metadata = string(abi.encodePacked(\n      '{\"name\": \"',\n      'Artist #',\n      tokenId.toString(),\n      '\", \"description\": \"Blah Blah Blah.\", \"image\": \"data:image/svg+xml;base64,',\n      Base64.base64(bytes(drawSVG(tokenId))),\n      '\", \"attributes\":',\n      compileAttributes(tokenId),\n      \"}\"\n    ));\n\n    return string(abi.encodePacked(\n      \"data:application/json;base64,\",\n      Base64.base64(bytes(metadata))\n    ));\n  }\n\n  function initialize(address _nftContract) external onlyRole(DEFAULT_ADMIN_ROLE) {\n    nftContract = INft(_nftContract);\n  }\n\n  function uploadLayers(uint8 layer, Layer[] calldata _layers) external onlyRole(DEFAULT_ADMIN_ROLE) {\n    for (uint8 x = 0; x < _layers.length; x++) {\n      layerData[layer][x] = Layer(\n        _layers[x].name,\n        _layers[x].cid\n      );\n    }\n  }\n}\n",
  "sourcePath": "/Users/warrenschwartz/Projects/ColdBehaviour/contracts/contracts/Layers.sol",
  "compiler": {
    "name": "solc",
    "version": "0.8.10+commit.fc410830.Emscripten.clang"
  },
  "schemaVersion": "3.4.3",
  "updatedAt": "2022-01-31T12:05:25.757Z",
  "devdoc": {
    "kind": "dev",
    "methods": {
      "getRoleAdmin(bytes32)": {
        "details": "Returns the admin role that controls `role`. See {grantRole} and {revokeRole}. To change a role's admin, use {_setRoleAdmin}."
      },
      "grantRole(bytes32,address)": {
        "details": "Grants `role` to `account`. If `account` had not been already granted `role`, emits a {RoleGranted} event. Requirements: - the caller must have ``role``'s admin role."
      },
      "hasRole(bytes32,address)": {
        "details": "Returns `true` if `account` has been granted `role`."
      },
      "renounceRole(bytes32,address)": {
        "details": "Revokes `role` from the calling account. Roles are often managed via {grantRole} and {revokeRole}: this function's purpose is to provide a mechanism for accounts to lose their privileges if they are compromised (such as when a trusted device is misplaced). If the calling account had been revoked `role`, emits a {RoleRevoked} event. Requirements: - the caller must be `account`."
      },
      "revokeRole(bytes32,address)": {
        "details": "Revokes `role` from `account`. If `account` had been granted `role`, emits a {RoleRevoked} event. Requirements: - the caller must have ``role``'s admin role."
      },
      "supportsInterface(bytes4)": {
        "details": "See {IERC165-supportsInterface}."
      }
    },
    "version": 1
  },
  "userdoc": {
    "kind": "user",
    "methods": {},
    "version": 1
  }
}