{
  "contractName": "Layers",
  "abi": [
    {
      "inputs": [],
      "stateMutability": "nonpayable",
      "type": "constructor"
    },
    {
      "anonymous": false,
      "inputs": [
        {
          "indexed": true,
          "internalType": "bytes32",
          "name": "role",
          "type": "bytes32"
        },
        {
          "indexed": true,
          "internalType": "bytes32",
          "name": "previousAdminRole",
          "type": "bytes32"
        },
        {
          "indexed": true,
          "internalType": "bytes32",
          "name": "newAdminRole",
          "type": "bytes32"
        }
      ],
      "name": "RoleAdminChanged",
      "type": "event"
    },
    {
      "anonymous": false,
      "inputs": [
        {
          "indexed": true,
          "internalType": "bytes32",
          "name": "role",
          "type": "bytes32"
        },
        {
          "indexed": true,
          "internalType": "address",
          "name": "account",
          "type": "address"
        },
        {
          "indexed": true,
          "internalType": "address",
          "name": "sender",
          "type": "address"
        }
      ],
      "name": "RoleGranted",
      "type": "event"
    },
    {
      "anonymous": false,
      "inputs": [
        {
          "indexed": true,
          "internalType": "bytes32",
          "name": "role",
          "type": "bytes32"
        },
        {
          "indexed": true,
          "internalType": "address",
          "name": "account",
          "type": "address"
        },
        {
          "indexed": true,
          "internalType": "address",
          "name": "sender",
          "type": "address"
        }
      ],
      "name": "RoleRevoked",
      "type": "event"
    },
    {
      "inputs": [],
      "name": "DEFAULT_ADMIN_ROLE",
      "outputs": [
        {
          "internalType": "bytes32",
          "name": "",
          "type": "bytes32"
        }
      ],
      "stateMutability": "view",
      "type": "function"
    },
    {
      "inputs": [],
      "name": "UPLOADER_ROLE",
      "outputs": [
        {
          "internalType": "bytes32",
          "name": "",
          "type": "bytes32"
        }
      ],
      "stateMutability": "view",
      "type": "function"
    },
    {
      "inputs": [
        {
          "internalType": "bytes32",
          "name": "role",
          "type": "bytes32"
        }
      ],
      "name": "getRoleAdmin",
      "outputs": [
        {
          "internalType": "bytes32",
          "name": "",
          "type": "bytes32"
        }
      ],
      "stateMutability": "view",
      "type": "function"
    },
    {
      "inputs": [
        {
          "internalType": "bytes32",
          "name": "role",
          "type": "bytes32"
        },
        {
          "internalType": "address",
          "name": "account",
          "type": "address"
        }
      ],
      "name": "grantRole",
      "outputs": [],
      "stateMutability": "nonpayable",
      "type": "function"
    },
    {
      "inputs": [
        {
          "internalType": "bytes32",
          "name": "role",
          "type": "bytes32"
        },
        {
          "internalType": "address",
          "name": "account",
          "type": "address"
        }
      ],
      "name": "hasRole",
      "outputs": [
        {
          "internalType": "bool",
          "name": "",
          "type": "bool"
        }
      ],
      "stateMutability": "view",
      "type": "function"
    },
    {
      "inputs": [],
      "name": "layerCount",
      "outputs": [
        {
          "internalType": "uint256",
          "name": "",
          "type": "uint256"
        }
      ],
      "stateMutability": "view",
      "type": "function"
    },
    {
      "inputs": [
        {
          "internalType": "uint256",
          "name": "",
          "type": "uint256"
        }
      ],
      "name": "layerData",
      "outputs": [
        {
          "internalType": "string",
          "name": "cid",
          "type": "string"
        },
        {
          "internalType": "string",
          "name": "name",
          "type": "string"
        },
        {
          "internalType": "string",
          "name": "trait",
          "type": "string"
        }
      ],
      "stateMutability": "view",
      "type": "function"
    },
    {
      "inputs": [],
      "name": "nftContract",
      "outputs": [
        {
          "internalType": "contract INft",
          "name": "",
          "type": "address"
        }
      ],
      "stateMutability": "view",
      "type": "function"
    },
    {
      "inputs": [
        {
          "internalType": "bytes32",
          "name": "role",
          "type": "bytes32"
        },
        {
          "internalType": "address",
          "name": "account",
          "type": "address"
        }
      ],
      "name": "renounceRole",
      "outputs": [],
      "stateMutability": "nonpayable",
      "type": "function"
    },
    {
      "inputs": [
        {
          "internalType": "bytes32",
          "name": "role",
          "type": "bytes32"
        },
        {
          "internalType": "address",
          "name": "account",
          "type": "address"
        }
      ],
      "name": "revokeRole",
      "outputs": [],
      "stateMutability": "nonpayable",
      "type": "function"
    },
    {
      "inputs": [
        {
          "internalType": "bytes4",
          "name": "interfaceId",
          "type": "bytes4"
        }
      ],
      "name": "supportsInterface",
      "outputs": [
        {
          "internalType": "bool",
          "name": "",
          "type": "bool"
        }
      ],
      "stateMutability": "view",
      "type": "function"
    },
    {
      "inputs": [
        {
          "internalType": "uint256[]",
          "name": "person",
          "type": "uint256[]"
        }
      ],
      "name": "drawSVGTest",
      "outputs": [
        {
          "internalType": "string",
          "name": "svgString",
          "type": "string"
        }
      ],
      "stateMutability": "view",
      "type": "function"
    },
    {
      "inputs": [
        {
          "internalType": "uint256",
          "name": "tokenId",
          "type": "uint256"
        }
      ],
      "name": "getTokenUri",
      "outputs": [
        {
          "internalType": "string",
          "name": "",
          "type": "string"
        }
      ],
      "stateMutability": "view",
      "type": "function"
    },
    {
      "inputs": [
        {
          "internalType": "address",
          "name": "_nftContract",
          "type": "address"
        }
      ],
      "name": "initialize",
      "outputs": [],
      "stateMutability": "nonpayable",
      "type": "function"
    },
    {
      "inputs": [
        {
          "components": [
            {
              "internalType": "string",
              "name": "cid",
              "type": "string"
            },
            {
              "internalType": "string",
              "name": "name",
              "type": "string"
            },
            {
              "internalType": "string",
              "name": "trait",
              "type": "string"
            }
          ],
          "internalType": "struct Layers.Layer[]",
          "name": "_layers",
          "type": "tuple[]"
        }
      ],
      "name": "uploadLayers",
      "outputs": [],
      "stateMutability": "nonpayable",
      "type": "function"
    }
  ],
  "bytecode": "0x60806040523480156200001157600080fd5b50620000276000801b336200005f60201b60201c565b620000597f922390b27f65d828a1f7695b2eaae33fd0be87496792afddba1d25446a8fcb91336200005f60201b60201c565b620001c2565b6200007182826200015060201b60201c565b6200014c57600160008084815260200190815260200160002060000160008373ffffffffffffffffffffffffffffffffffffffff1673ffffffffffffffffffffffffffffffffffffffff16815260200190815260200160002060006101000a81548160ff021916908315150217905550620000f1620001ba60201b60201c565b73ffffffffffffffffffffffffffffffffffffffff168173ffffffffffffffffffffffffffffffffffffffff16837f2f8788117e7eff1d82e926ec794901d17c78024a50270940304540a733656f0d60405160405180910390a45b5050565b600080600084815260200190815260200160002060000160008373ffffffffffffffffffffffffffffffffffffffff1673ffffffffffffffffffffffffffffffffffffffff16815260200190815260200160002060009054906101000a900460ff16905092915050565b600033905090565b612ea780620001d26000396000f3fe608060405234801561001057600080fd5b50600436106100f55760003560e01c806363210efd11610097578063a217fddf11610066578063a217fddf146102ac578063c4d66de8146102ca578063d547741f146102e6578063d56d229d14610302576100f5565b806363210efd146102005780638ad913451461021c57806391d148541461024c578063983f0e2d1461027c576100f5565b80632f2ff15d116100d35780632f2ff15d1461018c57806336568abe146101a857806356e7f6c7146101c457806361cc0766146101e2576100f5565b806301ffc9a7146100fa5780631e0903b41461012a578063248a9ca31461015c575b600080fd5b610114600480360381019061010f9190611b74565b610320565b6040516101219190611bbc565b60405180910390f35b610144600480360381019061013f9190611c0d565b61039a565b60405161015393929190611cd3565b60405180910390f35b61017660048036038101906101719190611d55565b61055c565b6040516101839190611d91565b60405180910390f35b6101a660048036038101906101a19190611e0a565b61057b565b005b6101c260048036038101906101bd9190611e0a565b6105a4565b005b6101cc610627565b6040516101d99190611e59565b60405180910390f35b6101ea61062d565b6040516101f79190611d91565b60405180910390f35b61021a60048036038101906102159190611ed9565b610651565b005b61023660048036038101906102319190611c0d565b6108ba565b6040516102439190611f26565b60405180910390f35b61026660048036038101906102619190611e0a565b610934565b6040516102739190611bbc565b60405180910390f35b61029660048036038101906102919190611f9e565b61099e565b6040516102a39190611f26565b60405180910390f35b6102b4610bd1565b6040516102c19190611d91565b60405180910390f35b6102e460048036038101906102df9190611feb565b610bd8565b005b61030060048036038101906102fb9190611e0a565b610c32565b005b61030a610c5b565b6040516103179190612077565b60405180910390f35b60007f7965db0b000000000000000000000000000000000000000000000000000000007bffffffffffffffffffffffffffffffffffffffffffffffffffffffff1916827bffffffffffffffffffffffffffffffffffffffffffffffffffffffff19161480610393575061039282610c81565b5b9050919050565b60036020528060005260406000206000915090508060000180546103bd906120c1565b80601f01602080910402602001604051908101604052809291908181526020018280546103e9906120c1565b80156104365780601f1061040b57610100808354040283529160200191610436565b820191906000526020600020905b81548152906001019060200180831161041957829003601f168201915b50505050509080600101805461044b906120c1565b80601f0160208091040260200160405190810160405280929190818152602001828054610477906120c1565b80156104c45780601f10610499576101008083540402835291602001916104c4565b820191906000526020600020905b8154815290600101906020018083116104a757829003601f168201915b5050505050908060020180546104d9906120c1565b80601f0160208091040260200160405190810160405280929190818152602001828054610505906120c1565b80156105525780601f1061052757610100808354040283529160200191610552565b820191906000526020600020905b81548152906001019060200180831161053557829003601f168201915b5050505050905083565b6000806000838152602001908152602001600020600101549050919050565b6105848261055c565b61059581610590610ceb565b610cf3565b61059f8383610d90565b505050565b6105ac610ceb565b73ffffffffffffffffffffffffffffffffffffffff168173ffffffffffffffffffffffffffffffffffffffff1614610619576040517f08c379a000000000000000000000000000000000000000000000000000000000815260040161061090612165565b60405180910390fd5b6106238282610e70565b5050565b60025481565b7f922390b27f65d828a1f7695b2eaae33fd0be87496792afddba1d25446a8fcb9181565b7f922390b27f65d828a1f7695b2eaae33fd0be87496792afddba1d25446a8fcb916106838161067e610ceb565b610cf3565b60005b838390508160ff1610156108b457604051806060016040528085858460ff168181106106b5576106b4612185565b5b90506020028101906106c791906121c3565b80602001906106d691906121eb565b8080601f016020809104026020016040519081016040528093929190818152602001838380828437600081840152601f19601f82011690508083019250505050505050815260200185858460ff1681811061073457610733612185565b5b905060200281019061074691906121c3565b806000019061075591906121eb565b8080601f016020809104026020016040519081016040528093929190818152602001838380828437600081840152601f19601f82011690508083019250505050505050815260200185858460ff168181106107b3576107b2612185565b5b90506020028101906107c591906121c3565b80604001906107d491906121eb565b8080601f016020809104026020016040519081016040528093929190818152602001838380828437600081840152601f19601f82011690508083019250505050505050815250600360006002548152602001908152602001600020600082015181600001908051906020019061084b929190611a65565b506020820151816001019080519060200190610868929190611a65565b506040820151816002019080519060200190610885929190611a65565b509050506002600081548092919061089c9061227d565b919050555080806108ac906122d3565b915050610686565b50505050565b606060006108c783610f51565b6108d86108d3856110b2565b611388565b6108e18561150d565b6040516020016108f393929190612501565b604051602081830303815290604052905061090d81611388565b60405160200161091d91906125b5565b604051602081830303815290604052915050919050565b600080600084815260200190815260200160002060000160008373ffffffffffffffffffffffffffffffffffffffff1673ffffffffffffffffffffffffffffffffffffffff16815260200190815260200160002060009054906101000a900460ff16905092915050565b606060005b83839050811015610ba857610b9382610b8e600360008581526020019081526020016000206040518060600160405290816000820180546109e3906120c1565b80601f0160208091040260200160405190810160405280929190818152602001828054610a0f906120c1565b8015610a5c5780601f10610a3157610100808354040283529160200191610a5c565b820191906000526020600020905b815481529060010190602001808311610a3f57829003601f168201915b50505050508152602001600182018054610a75906120c1565b80601f0160208091040260200160405190810160405280929190818152602001828054610aa1906120c1565b8015610aee5780601f10610ac357610100808354040283529160200191610aee565b820191906000526020600020905b815481529060010190602001808311610ad157829003601f168201915b50505050508152602001600282018054610b07906120c1565b80601f0160208091040260200160405190810160405280929190818152602001828054610b33906120c1565b8015610b805780601f10610b5557610100808354040283529160200191610b80565b820191906000526020600020905b815481529060010190602001808311610b6357829003601f168201915b5050505050815250506117a4565b6117d1565b91508080610ba09061227d565b9150506109a3565b5080604051602001610bba9190612707565b604051602081830303815290604052905092915050565b6000801b81565b6000801b610bed81610be8610ceb565b610cf3565b81600160006101000a81548173ffffffffffffffffffffffffffffffffffffffff021916908373ffffffffffffffffffffffffffffffffffffffff1602179055505050565b610c3b8261055c565b610c4c81610c47610ceb565b610cf3565b610c568383610e70565b505050565b600160009054906101000a900473ffffffffffffffffffffffffffffffffffffffff1681565b60007f01ffc9a7000000000000000000000000000000000000000000000000000000007bffffffffffffffffffffffffffffffffffffffffffffffffffffffff1916827bffffffffffffffffffffffffffffffffffffffffffffffffffffffff1916149050919050565b600033905090565b610cfd8282610934565b610d8c57610d228173ffffffffffffffffffffffffffffffffffffffff1660146117fd565b610d308360001c60206117fd565b604051602001610d419291906127cc565b6040516020818303038152906040526040517f08c379a0000000000000000000000000000000000000000000000000000000008152600401610d839190611f26565b60405180910390fd5b5050565b610d9a8282610934565b610e6c57600160008084815260200190815260200160002060000160008373ffffffffffffffffffffffffffffffffffffffff1673ffffffffffffffffffffffffffffffffffffffff16815260200190815260200160002060006101000a81548160ff021916908315150217905550610e11610ceb565b73ffffffffffffffffffffffffffffffffffffffff168173ffffffffffffffffffffffffffffffffffffffff16837f2f8788117e7eff1d82e926ec794901d17c78024a50270940304540a733656f0d60405160405180910390a45b5050565b610e7a8282610934565b15610f4d57600080600084815260200190815260200160002060000160008373ffffffffffffffffffffffffffffffffffffffff1673ffffffffffffffffffffffffffffffffffffffff16815260200190815260200160002060006101000a81548160ff021916908315150217905550610ef2610ceb565b73ffffffffffffffffffffffffffffffffffffffff168173ffffffffffffffffffffffffffffffffffffffff16837ff6391f5c32d9c69d2a47ea670b442974b53935d1edc7fd64eb21e047a839171b60405160405180910390a45b5050565b60606000821415610f99576040518060400160405280600181526020017f300000000000000000000000000000000000000000000000000000000000000081525090506110ad565b600082905060005b60008214610fcb578080610fb49061227d565b915050600a82610fc49190612835565b9150610fa1565b60008167ffffffffffffffff811115610fe757610fe6612866565b5b6040519080825280601f01601f1916602001820160405280156110195781602001600182028036833780820191505090505b5090505b600085146110a6576001826110329190612895565b9150600a8561104191906128c9565b603061104d91906128fa565b60f81b81838151811061106357611062612185565b5b60200101907effffffffffffffffffffffffffffffffffffffffffffffffffffffffffffff1916908160001a905350600a8561109f9190612835565b945061101d565b8093505050505b919050565b60606000600160009054906101000a900473ffffffffffffffffffffffffffffffffffffffff1673ffffffffffffffffffffffffffffffffffffffff1663b09afec1846040518263ffffffff1660e01b81526004016111119190611e59565b600060405180830381865afa15801561112e573d6000803e3d6000fd5b505050506040513d6000823e3d601f19601f820116820180604052508101906111579190612a74565b905060005b815181101561135f5761134a836113456003600085815260200190815260200160002060405180606001604052908160008201805461119a906120c1565b80601f01602080910402602001604051908101604052809291908181526020018280546111c6906120c1565b80156112135780601f106111e857610100808354040283529160200191611213565b820191906000526020600020905b8154815290600101906020018083116111f657829003601f168201915b5050505050815260200160018201805461122c906120c1565b80601f0160208091040260200160405190810160405280929190818152602001828054611258906120c1565b80156112a55780601f1061127a576101008083540402835291602001916112a5565b820191906000526020600020905b81548152906001019060200180831161128857829003601f168201915b505050505081526020016002820180546112be906120c1565b80601f01602080910402602001604051908101604052809291908181526020018280546112ea906120c1565b80156113375780601f1061130c57610100808354040283529160200191611337565b820191906000526020600020905b81548152906001019060200180831161131a57829003601f168201915b5050505050815250506117a4565b6117d1565b925080806113579061227d565b91505061115c565b50816040516020016113719190612707565b604051602081830303815290604052915050919050565b60606000825114156113ab57604051806020016040528060008152509050611508565b6000604051806060016040528060408152602001612e3260409139905060006003600285516113da91906128fa565b6113e49190612835565b60046113f09190612abd565b9050600060208261140191906128fa565b67ffffffffffffffff81111561141a57611419612866565b5b6040519080825280601f01601f19166020018201604052801561144c5781602001600182028036833780820191505090505b509050818152600183018586518101602084015b818310156114c7576003830192508251603f8160121c1685015160f81b8252600182019150603f81600c1c1685015160f81b8252600182019150603f8160061c1685015160f81b8252600182019150603f811685015160f81b825260018201915050611460565b6003895106600181146114e157600281146114f1576114fc565b613d3d60f01b60028303526114fc565b603d60f81b60018303525b50505050508093505050505b919050565b60606000600160009054906101000a900473ffffffffffffffffffffffffffffffffffffffff1673ffffffffffffffffffffffffffffffffffffffff1663b09afec1846040518263ffffffff1660e01b815260040161156c9190611e59565b600060405180830381865afa158015611589573d6000803e3d6000fd5b505050506040513d6000823e3d601f19601f820116820180604052508101906115b29190612a74565b90506040518060400160405280600181526020017f5b00000000000000000000000000000000000000000000000000000000000000815250915060005b815181101561175c5761174783611742600360008581526020019081526020016000206002018054611620906120c1565b80601f016020809104026020016040519081016040528092919081815260200182805461164c906120c1565b80156116995780601f1061166e57610100808354040283529160200191611699565b820191906000526020600020905b81548152906001019060200180831161167c57829003601f168201915b50505050506003600086815260200190815260200160002060010180546116bf906120c1565b80601f01602080910402602001604051908101604052809291908181526020018280546116eb906120c1565b80156117385780601f1061170d57610100808354040283529160200191611738565b820191906000526020600020905b81548152906001019060200180831161171b57829003601f168201915b5050505050611a39565b6117d1565b925080806117549061227d565b9150506115ef565b5061179c826040518060400160405280600181526020017f5d000000000000000000000000000000000000000000000000000000000000008152506117d1565b915050919050565b606081600001516040516020016117bb9190612c21565b6040516020818303038152906040529050919050565b606082826040516020016117e6929190612c4e565b604051602081830303815290604052905092915050565b6060600060028360026118109190612abd565b61181a91906128fa565b67ffffffffffffffff81111561183357611832612866565b5b6040519080825280601f01601f1916602001820160405280156118655781602001600182028036833780820191505090505b5090507f30000000000000000000000000000000000000000000000000000000000000008160008151811061189d5761189c612185565b5b60200101907effffffffffffffffffffffffffffffffffffffffffffffffffffffffffffff1916908160001a9053507f78000000000000000000000000000000000000000000000000000000000000008160018151811061190157611900612185565b5b60200101907effffffffffffffffffffffffffffffffffffffffffffffffffffffffffffff1916908160001a905350600060018460026119419190612abd565b61194b91906128fa565b90505b60018111156119eb577f3031323334353637383961626364656600000000000000000000000000000000600f86166010811061198d5761198c612185565b5b1a60f81b8282815181106119a4576119a3612185565b5b60200101907effffffffffffffffffffffffffffffffffffffffffffffffffffffffffffff1916908160001a905350600485901c9450806119e490612c72565b905061194e565b5060008414611a2f576040517f08c379a0000000000000000000000000000000000000000000000000000000008152600401611a2690612ce8565b60405180910390fd5b8091505092915050565b60608282604051602001611a4e929190612dec565b604051602081830303815290604052905092915050565b828054611a71906120c1565b90600052602060002090601f016020900481019282611a935760008555611ada565b82601f10611aac57805160ff1916838001178555611ada565b82800160010185558215611ada579182015b82811115611ad9578251825591602001919060010190611abe565b5b509050611ae79190611aeb565b5090565b5b80821115611b04576000816000905550600101611aec565b5090565b6000604051905090565b600080fd5b600080fd5b60007fffffffff0000000000000000000000000000000000000000000000000000000082169050919050565b611b5181611b1c565b8114611b5c57600080fd5b50565b600081359050611b6e81611b48565b92915050565b600060208284031215611b8a57611b89611b12565b5b6000611b9884828501611b5f565b91505092915050565b60008115159050919050565b611bb681611ba1565b82525050565b6000602082019050611bd16000830184611bad565b92915050565b6000819050919050565b611bea81611bd7565b8114611bf557600080fd5b50565b600081359050611c0781611be1565b92915050565b600060208284031215611c2357611c22611b12565b5b6000611c3184828501611bf8565b91505092915050565b600081519050919050565b600082825260208201905092915050565b60005b83811015611c74578082015181840152602081019050611c59565b83811115611c83576000848401525b50505050565b6000601f19601f8301169050919050565b6000611ca582611c3a565b611caf8185611c45565b9350611cbf818560208601611c56565b611cc881611c89565b840191505092915050565b60006060820190508181036000830152611ced8186611c9a565b90508181036020830152611d018185611c9a565b90508181036040830152611d158184611c9a565b9050949350505050565b6000819050919050565b611d3281611d1f565b8114611d3d57600080fd5b50565b600081359050611d4f81611d29565b92915050565b600060208284031215611d6b57611d6a611b12565b5b6000611d7984828501611d40565b91505092915050565b611d8b81611d1f565b82525050565b6000602082019050611da66000830184611d82565b92915050565b600073ffffffffffffffffffffffffffffffffffffffff82169050919050565b6000611dd782611dac565b9050919050565b611de781611dcc565b8114611df257600080fd5b50565b600081359050611e0481611dde565b92915050565b60008060408385031215611e2157611e20611b12565b5b6000611e2f85828601611d40565b9250506020611e4085828601611df5565b9150509250929050565b611e5381611bd7565b82525050565b6000602082019050611e6e6000830184611e4a565b92915050565b600080fd5b600080fd5b600080fd5b60008083601f840112611e9957611e98611e74565b5b8235905067ffffffffffffffff811115611eb657611eb5611e79565b5b602083019150836020820283011115611ed257611ed1611e7e565b5b9250929050565b60008060208385031215611ef057611eef611b12565b5b600083013567ffffffffffffffff811115611f0e57611f0d611b17565b5b611f1a85828601611e83565b92509250509250929050565b60006020820190508181036000830152611f408184611c9a565b905092915050565b60008083601f840112611f5e57611f5d611e74565b5b8235905067ffffffffffffffff811115611f7b57611f7a611e79565b5b602083019150836020820283011115611f9757611f96611e7e565b5b9250929050565b60008060208385031215611fb557611fb4611b12565b5b600083013567ffffffffffffffff811115611fd357611fd2611b17565b5b611fdf85828601611f48565b92509250509250929050565b60006020828403121561200157612000611b12565b5b600061200f84828501611df5565b91505092915050565b6000819050919050565b600061203d61203861203384611dac565b612018565b611dac565b9050919050565b600061204f82612022565b9050919050565b600061206182612044565b9050919050565b61207181612056565b82525050565b600060208201905061208c6000830184612068565b92915050565b7f4e487b7100000000000000000000000000000000000000000000000000000000600052602260045260246000fd5b600060028204905060018216806120d957607f821691505b602082108114156120ed576120ec612092565b5b50919050565b7f416363657373436f6e74726f6c3a2063616e206f6e6c792072656e6f756e636560008201527f20726f6c657320666f722073656c660000000000000000000000000000000000602082015250565b600061214f602f83611c45565b915061215a826120f3565b604082019050919050565b6000602082019050818103600083015261217e81612142565b9050919050565b7f4e487b7100000000000000000000000000000000000000000000000000000000600052603260045260246000fd5b600080fd5b600080fd5b600080fd5b6000823560016060038336030381126121df576121de6121b4565b5b80830191505092915050565b60008083356001602003843603038112612208576122076121b4565b5b80840192508235915067ffffffffffffffff82111561222a576122296121b9565b5b602083019250600182023603831315612246576122456121be565b5b509250929050565b7f4e487b7100000000000000000000000000000000000000000000000000000000600052601160045260246000fd5b600061228882611bd7565b91507fffffffffffffffffffffffffffffffffffffffffffffffffffffffffffffffff8214156122bb576122ba61224e565b5b600182019050919050565b600060ff82169050919050565b60006122de826122c6565b915060ff8214156122f2576122f161224e565b5b600182019050919050565b600081905092915050565b7f7b226e616d65223a202200000000000000000000000000000000000000000000600082015250565b600061233e600a836122fd565b915061234982612308565b600a82019050919050565b7f4172746973742023000000000000000000000000000000000000000000000000600082015250565b600061238a6008836122fd565b915061239582612354565b600882019050919050565b60006123ab82611c3a565b6123b581856122fd565b93506123c5818560208601611c56565b80840191505092915050565b7f222c20226465736372697074696f6e223a2022426c616820426c616820426c6160008201527f682e222c2022696d616765223a2022646174613a696d6167652f7376672b786d60208201527f6c3b6261736536342c0000000000000000000000000000000000000000000000604082015250565b60006124536049836122fd565b915061245e826123d1565b604982019050919050565b7f222c202261747472696275746573223a00000000000000000000000000000000600082015250565b600061249f6010836122fd565b91506124aa82612469565b601082019050919050565b7f7d00000000000000000000000000000000000000000000000000000000000000600082015250565b60006124eb6001836122fd565b91506124f6826124b5565b600182019050919050565b600061250c82612331565b91506125178261237d565b915061252382866123a0565b915061252e82612446565b915061253a82856123a0565b915061254582612492565b915061255182846123a0565b915061255c826124de565b9150819050949350505050565b7f646174613a6170706c69636174696f6e2f6a736f6e3b6261736536342c000000600082015250565b600061259f601d836122fd565b91506125aa82612569565b601d82019050919050565b60006125c082612592565b91506125cc82846123a0565b915081905092915050565b7f3c7376672069643d22617274697374222077696474683d22313030252220686560008201527f696768743d2231303025222076657273696f6e3d22312e31222076696577426f60208201527f783d22302030203130323420313032342220786d6c6e733d22687474703a2f2f60408201527f7777772e77332e6f72672f323030302f7376672220786d6c6e733a786c696e6b60608201527f3d22687474703a2f2f7777772e77332e6f72672f313939392f786c696e6b223e608082015250565b60006126a560a0836122fd565b91506126b0826125d7565b60a082019050919050565b7f3c2f7376673e0000000000000000000000000000000000000000000000000000600082015250565b60006126f16006836122fd565b91506126fc826126bb565b600682019050919050565b600061271282612698565b915061271e82846123a0565b9150612729826126e4565b915081905092915050565b7f416363657373436f6e74726f6c3a206163636f756e7420000000000000000000600082015250565b600061276a6017836122fd565b915061277582612734565b601782019050919050565b7f206973206d697373696e6720726f6c6520000000000000000000000000000000600082015250565b60006127b66011836122fd565b91506127c182612780565b601182019050919050565b60006127d78261275d565b91506127e382856123a0565b91506127ee826127a9565b91506127fa82846123a0565b91508190509392505050565b7f4e487b7100000000000000000000000000000000000000000000000000000000600052601260045260246000fd5b600061284082611bd7565b915061284b83611bd7565b92508261285b5761285a612806565b5b828204905092915050565b7f4e487b7100000000000000000000000000000000000000000000000000000000600052604160045260246000fd5b60006128a082611bd7565b91506128ab83611bd7565b9250828210156128be576128bd61224e565b5b828203905092915050565b60006128d482611bd7565b91506128df83611bd7565b9250826128ef576128ee612806565b5b828206905092915050565b600061290582611bd7565b915061291083611bd7565b9250827fffffffffffffffffffffffffffffffffffffffffffffffffffffffffffffffff038211156129455761294461224e565b5b828201905092915050565b61295982611c89565b810181811067ffffffffffffffff8211171561297857612977612866565b5b80604052505050565b600061298b611b08565b90506129978282612950565b919050565b600067ffffffffffffffff8211156129b7576129b6612866565b5b602082029050602081019050919050565b6000815190506129d781611be1565b92915050565b60006129f06129eb8461299c565b612981565b90508083825260208201905060208402830185811115612a1357612a12611e7e565b5b835b81811015612a3c5780612a2888826129c8565b845260208401935050602081019050612a15565b5050509392505050565b600082601f830112612a5b57612a5a611e74565b5b8151612a6b8482602086016129dd565b91505092915050565b600060208284031215612a8a57612a89611b12565b5b600082015167ffffffffffffffff811115612aa857612aa7611b17565b5b612ab484828501612a46565b91505092915050565b6000612ac882611bd7565b9150612ad383611bd7565b9250817fffffffffffffffffffffffffffffffffffffffffffffffffffffffffffffffff0483118215151615612b0c57612b0b61224e565b5b828202905092915050565b7f3c696d61676520783d22302220793d2230222077696474683d2231303234222060008201527f6865696768743d22313032342220696d6167652d72656e646572696e673d227060208201527f6978656c617465642220786c696e6b3a687265663d2268747470733a2f2f697060408201527f66732e636f6c646265686176696f722e636f6d2f697066732f00000000000000606082015250565b6000612bbf6079836122fd565b9150612bca82612b17565b607982019050919050565b7f22202f3e00000000000000000000000000000000000000000000000000000000600082015250565b6000612c0b6004836122fd565b9150612c1682612bd5565b600482019050919050565b6000612c2c82612bb2565b9150612c3882846123a0565b9150612c4382612bfe565b915081905092915050565b6000612c5a82856123a0565b9150612c6682846123a0565b91508190509392505050565b6000612c7d82611bd7565b91506000821415612c9157612c9061224e565b5b600182039050919050565b7f537472696e67733a20686578206c656e67746820696e73756666696369656e74600082015250565b6000612cd2602083611c45565b9150612cdd82612c9c565b602082019050919050565b60006020820190508181036000830152612d0181612cc5565b9050919050565b7f7b2274726169745f74797065223a220000000000000000000000000000000000600082015250565b6000612d3e600f836122fd565b9150612d4982612d08565b600f82019050919050565b7f222c2276616c7565223a22000000000000000000000000000000000000000000600082015250565b6000612d8a600b836122fd565b9150612d9582612d54565b600b82019050919050565b7f227d000000000000000000000000000000000000000000000000000000000000600082015250565b6000612dd66002836122fd565b9150612de182612da0565b600282019050919050565b6000612df782612d31565b9150612e0382856123a0565b9150612e0e82612d7d565b9150612e1a82846123a0565b9150612e2582612dc9565b9150819050939250505056fe4142434445464748494a4b4c4d4e4f505152535455565758595a6162636465666768696a6b6c6d6e6f707172737475767778797a303132333435363738392b2fa264697066735822122094df452a0f1a3ac028eeeec4630eb1784dfcc353a78fcf98b199e0916a5dbd7864736f6c634300080a0033",
  "immutableReferences": {},
  "source": "// SPDX-License-Identifier: MIT\npragma solidity ^0.8.2;\n\nimport \"@openzeppelin/contracts/access/AccessControl.sol\";\nimport \"@openzeppelin/contracts/utils/Strings.sol\";\nimport \"./INft.sol\";\nimport \"./Base64.sol\";\n\ncontract Layers is AccessControl {\n  //Usings\n  using Strings for uint256;\n\n  //Constants\n  bytes32 public constant UPLOADER_ROLE = keccak256(\"UPLOADER_ROLE\");\n\n  //Structs\n  struct Layer {\n    string cid;\n    string name;\n    string trait;\n  }\n\n  //State Variables\n  INft public nftContract;\n  uint public layerCount;\n\n  //State Mappings\n  mapping (uint => Layer) public layerData;  // layer => Name/CID/Trait\n\n  constructor() {\n    _grantRole(DEFAULT_ADMIN_ROLE, msg.sender);\n    _grantRole(UPLOADER_ROLE, msg.sender);\n  }\n\n  //Functions\n  function attributeForTypeAndValue(string memory traitType, string memory value) internal pure returns (string memory) {\n    return string(abi.encodePacked(\n      '{\"trait_type\":\"',\n      traitType,\n      '\",\"value\":\"',\n      value,\n      '\"}'\n    ));\n  }\n  \n  function compileAttributes(uint256 tokenId) internal view returns (string memory traits) {\n    uint[] memory a = nftContract.getTokenData(tokenId);\n    traits = \"[\";\n    for (uint layer = 0; layer < a.length; layer++) {\n      traits = concat(traits, attributeForTypeAndValue(layerData[layer].trait, layerData[layer].name));\n    }\n\n    return concat(traits, \"]\");\n  }\n\n  function concat(string memory a, string memory b) internal pure returns (string memory) {\n\n    return string(abi.encodePacked(a, b));\n\n  }\n\n  function drawLayer(Layer memory layer) internal pure returns (string memory) {\n    return string(abi.encodePacked(\n      '<image x=\"0\" y=\"0\" width=\"1024\" height=\"1024\" image-rendering=\"pixelated\" xlink:href=\"https://ipfs.coldbehavior.com/ipfs/', \n      layer.cid,\n      '\" />'  \n    ));\n  }\n\n  function drawSVG(uint tokenId) internal view returns (string memory svgString) {\n    uint[] memory a = nftContract.getTokenData(tokenId);\n    for (uint layer = 0; layer < a.length; layer++) {\n      svgString = concat(svgString, drawLayer(layerData[layer]));\n    }\n\n    return string(abi.encodePacked(\n      '<svg id=\"artist\" width=\"100%\" height=\"100%\" version=\"1.1\" viewBox=\"0 0 1024 1024\" xmlns=\"http://www.w3.org/2000/svg\" xmlns:xlink=\"http://www.w3.org/1999/xlink\">',\n      svgString,\n      \"</svg>\"\n    ));\n  }\n\n  function drawSVGTest(uint[] calldata person) external view returns (string memory svgString) {\n    for (uint layer = 0; layer < person.length; layer++) {\n      svgString = concat(svgString, drawLayer(layerData[layer]));\n    }\n\n    return string(abi.encodePacked(\n      '<svg id=\"artist\" width=\"100%\" height=\"100%\" version=\"1.1\" viewBox=\"0 0 1024 1024\" xmlns=\"http://www.w3.org/2000/svg\" xmlns:xlink=\"http://www.w3.org/1999/xlink\">',\n      svgString,\n      \"</svg>\"\n    ));\n  }\n\n  function getTokenUri(uint256 tokenId) public view returns (string memory) {\n    string memory metadata = string(abi.encodePacked(\n      '{\"name\": \"',\n      'Artist #',\n      tokenId.toString(),\n      '\", \"description\": \"Blah Blah Blah.\", \"image\": \"data:image/svg+xml;base64,',\n      Base64.base64(bytes(drawSVG(tokenId))),\n      '\", \"attributes\":',\n      compileAttributes(tokenId),\n      \"}\"\n    ));\n\n    return string(abi.encodePacked(\n      \"data:application/json;base64,\",\n      Base64.base64(bytes(metadata))\n    ));\n  }\n\n  function initialize(address _nftContract) external onlyRole(DEFAULT_ADMIN_ROLE) {\n    nftContract = INft(_nftContract);\n  }\n\n  function uploadLayers(Layer[] calldata _layers) external onlyRole(UPLOADER_ROLE) {\n    for (uint8 x = 0; x < _layers.length; x++) {\n      layerData[layerCount] = Layer(\n        _layers[x].name,\n        _layers[x].cid,\n        _layers[x].trait\n      );\n      layerCount++;\n    }\n  }\n}\n",
  "sourcePath": "/Users/warrenschwartz/Projects/ColdBehaviour/contracts/contracts/Layers.sol",
  "compiler": {
    "name": "solc",
    "version": "0.8.10+commit.fc410830.Emscripten.clang"
  },
  "schemaVersion": "3.4.3",
  "updatedAt": "2022-02-23T13:49:13.145Z",
  "devdoc": {
    "kind": "dev",
    "methods": {
      "getRoleAdmin(bytes32)": {
        "details": "Returns the admin role that controls `role`. See {grantRole} and {revokeRole}. To change a role's admin, use {_setRoleAdmin}."
      },
      "grantRole(bytes32,address)": {
        "details": "Grants `role` to `account`. If `account` had not been already granted `role`, emits a {RoleGranted} event. Requirements: - the caller must have ``role``'s admin role."
      },
      "hasRole(bytes32,address)": {
        "details": "Returns `true` if `account` has been granted `role`."
      },
      "renounceRole(bytes32,address)": {
        "details": "Revokes `role` from the calling account. Roles are often managed via {grantRole} and {revokeRole}: this function's purpose is to provide a mechanism for accounts to lose their privileges if they are compromised (such as when a trusted device is misplaced). If the calling account had been revoked `role`, emits a {RoleRevoked} event. Requirements: - the caller must be `account`."
      },
      "revokeRole(bytes32,address)": {
        "details": "Revokes `role` from `account`. If `account` had been granted `role`, emits a {RoleRevoked} event. Requirements: - the caller must have ``role``'s admin role."
      },
      "supportsInterface(bytes4)": {
        "details": "See {IERC165-supportsInterface}."
      }
    },
    "version": 1
  },
  "userdoc": {
    "kind": "user",
    "methods": {},
    "version": 1
  }
}