{
  "contractName": "LazyNFT",
  "abi": [
    {
      "inputs": [
        {
          "internalType": "address payable",
          "name": "minter",
          "type": "address"
        }
      ],
      "stateMutability": "nonpayable",
      "type": "constructor"
    },
    {
      "anonymous": false,
      "inputs": [
        {
          "indexed": true,
          "internalType": "address",
          "name": "owner",
          "type": "address"
        },
        {
          "indexed": true,
          "internalType": "address",
          "name": "approved",
          "type": "address"
        },
        {
          "indexed": true,
          "internalType": "uint256",
          "name": "tokenId",
          "type": "uint256"
        }
      ],
      "name": "Approval",
      "type": "event"
    },
    {
      "anonymous": false,
      "inputs": [
        {
          "indexed": true,
          "internalType": "address",
          "name": "owner",
          "type": "address"
        },
        {
          "indexed": true,
          "internalType": "address",
          "name": "operator",
          "type": "address"
        },
        {
          "indexed": false,
          "internalType": "bool",
          "name": "approved",
          "type": "bool"
        }
      ],
      "name": "ApprovalForAll",
      "type": "event"
    },
    {
      "anonymous": false,
      "inputs": [
        {
          "indexed": true,
          "internalType": "bytes32",
          "name": "role",
          "type": "bytes32"
        },
        {
          "indexed": true,
          "internalType": "bytes32",
          "name": "previousAdminRole",
          "type": "bytes32"
        },
        {
          "indexed": true,
          "internalType": "bytes32",
          "name": "newAdminRole",
          "type": "bytes32"
        }
      ],
      "name": "RoleAdminChanged",
      "type": "event"
    },
    {
      "anonymous": false,
      "inputs": [
        {
          "indexed": true,
          "internalType": "bytes32",
          "name": "role",
          "type": "bytes32"
        },
        {
          "indexed": true,
          "internalType": "address",
          "name": "account",
          "type": "address"
        },
        {
          "indexed": true,
          "internalType": "address",
          "name": "sender",
          "type": "address"
        }
      ],
      "name": "RoleGranted",
      "type": "event"
    },
    {
      "anonymous": false,
      "inputs": [
        {
          "indexed": true,
          "internalType": "bytes32",
          "name": "role",
          "type": "bytes32"
        },
        {
          "indexed": true,
          "internalType": "address",
          "name": "account",
          "type": "address"
        },
        {
          "indexed": true,
          "internalType": "address",
          "name": "sender",
          "type": "address"
        }
      ],
      "name": "RoleRevoked",
      "type": "event"
    },
    {
      "anonymous": false,
      "inputs": [
        {
          "indexed": true,
          "internalType": "address",
          "name": "from",
          "type": "address"
        },
        {
          "indexed": true,
          "internalType": "address",
          "name": "to",
          "type": "address"
        },
        {
          "indexed": true,
          "internalType": "uint256",
          "name": "tokenId",
          "type": "uint256"
        }
      ],
      "name": "Transfer",
      "type": "event"
    },
    {
      "inputs": [],
      "name": "DEFAULT_ADMIN_ROLE",
      "outputs": [
        {
          "internalType": "bytes32",
          "name": "",
          "type": "bytes32"
        }
      ],
      "stateMutability": "view",
      "type": "function"
    },
    {
      "inputs": [],
      "name": "MINTER_ROLE",
      "outputs": [
        {
          "internalType": "bytes32",
          "name": "",
          "type": "bytes32"
        }
      ],
      "stateMutability": "view",
      "type": "function"
    },
    {
      "inputs": [
        {
          "internalType": "address",
          "name": "to",
          "type": "address"
        },
        {
          "internalType": "uint256",
          "name": "tokenId",
          "type": "uint256"
        }
      ],
      "name": "approve",
      "outputs": [],
      "stateMutability": "nonpayable",
      "type": "function"
    },
    {
      "inputs": [
        {
          "internalType": "address",
          "name": "owner",
          "type": "address"
        }
      ],
      "name": "balanceOf",
      "outputs": [
        {
          "internalType": "uint256",
          "name": "",
          "type": "uint256"
        }
      ],
      "stateMutability": "view",
      "type": "function"
    },
    {
      "inputs": [
        {
          "internalType": "uint256",
          "name": "tokenId",
          "type": "uint256"
        }
      ],
      "name": "getApproved",
      "outputs": [
        {
          "internalType": "address",
          "name": "",
          "type": "address"
        }
      ],
      "stateMutability": "view",
      "type": "function"
    },
    {
      "inputs": [
        {
          "internalType": "bytes32",
          "name": "role",
          "type": "bytes32"
        }
      ],
      "name": "getRoleAdmin",
      "outputs": [
        {
          "internalType": "bytes32",
          "name": "",
          "type": "bytes32"
        }
      ],
      "stateMutability": "view",
      "type": "function"
    },
    {
      "inputs": [
        {
          "internalType": "bytes32",
          "name": "role",
          "type": "bytes32"
        },
        {
          "internalType": "address",
          "name": "account",
          "type": "address"
        }
      ],
      "name": "grantRole",
      "outputs": [],
      "stateMutability": "nonpayable",
      "type": "function"
    },
    {
      "inputs": [
        {
          "internalType": "bytes32",
          "name": "role",
          "type": "bytes32"
        },
        {
          "internalType": "address",
          "name": "account",
          "type": "address"
        }
      ],
      "name": "hasRole",
      "outputs": [
        {
          "internalType": "bool",
          "name": "",
          "type": "bool"
        }
      ],
      "stateMutability": "view",
      "type": "function"
    },
    {
      "inputs": [
        {
          "internalType": "address",
          "name": "owner",
          "type": "address"
        },
        {
          "internalType": "address",
          "name": "operator",
          "type": "address"
        }
      ],
      "name": "isApprovedForAll",
      "outputs": [
        {
          "internalType": "bool",
          "name": "",
          "type": "bool"
        }
      ],
      "stateMutability": "view",
      "type": "function"
    },
    {
      "inputs": [],
      "name": "name",
      "outputs": [
        {
          "internalType": "string",
          "name": "",
          "type": "string"
        }
      ],
      "stateMutability": "view",
      "type": "function"
    },
    {
      "inputs": [
        {
          "internalType": "uint256",
          "name": "tokenId",
          "type": "uint256"
        }
      ],
      "name": "ownerOf",
      "outputs": [
        {
          "internalType": "address",
          "name": "",
          "type": "address"
        }
      ],
      "stateMutability": "view",
      "type": "function"
    },
    {
      "inputs": [
        {
          "internalType": "bytes32",
          "name": "role",
          "type": "bytes32"
        },
        {
          "internalType": "address",
          "name": "account",
          "type": "address"
        }
      ],
      "name": "renounceRole",
      "outputs": [],
      "stateMutability": "nonpayable",
      "type": "function"
    },
    {
      "inputs": [
        {
          "internalType": "bytes32",
          "name": "role",
          "type": "bytes32"
        },
        {
          "internalType": "address",
          "name": "account",
          "type": "address"
        }
      ],
      "name": "revokeRole",
      "outputs": [],
      "stateMutability": "nonpayable",
      "type": "function"
    },
    {
      "inputs": [
        {
          "internalType": "address",
          "name": "from",
          "type": "address"
        },
        {
          "internalType": "address",
          "name": "to",
          "type": "address"
        },
        {
          "internalType": "uint256",
          "name": "tokenId",
          "type": "uint256"
        }
      ],
      "name": "safeTransferFrom",
      "outputs": [],
      "stateMutability": "nonpayable",
      "type": "function"
    },
    {
      "inputs": [
        {
          "internalType": "address",
          "name": "from",
          "type": "address"
        },
        {
          "internalType": "address",
          "name": "to",
          "type": "address"
        },
        {
          "internalType": "uint256",
          "name": "tokenId",
          "type": "uint256"
        },
        {
          "internalType": "bytes",
          "name": "_data",
          "type": "bytes"
        }
      ],
      "name": "safeTransferFrom",
      "outputs": [],
      "stateMutability": "nonpayable",
      "type": "function"
    },
    {
      "inputs": [
        {
          "internalType": "address",
          "name": "operator",
          "type": "address"
        },
        {
          "internalType": "bool",
          "name": "approved",
          "type": "bool"
        }
      ],
      "name": "setApprovalForAll",
      "outputs": [],
      "stateMutability": "nonpayable",
      "type": "function"
    },
    {
      "inputs": [],
      "name": "symbol",
      "outputs": [
        {
          "internalType": "string",
          "name": "",
          "type": "string"
        }
      ],
      "stateMutability": "view",
      "type": "function"
    },
    {
      "inputs": [
        {
          "internalType": "uint256",
          "name": "tokenId",
          "type": "uint256"
        }
      ],
      "name": "tokenURI",
      "outputs": [
        {
          "internalType": "string",
          "name": "",
          "type": "string"
        }
      ],
      "stateMutability": "view",
      "type": "function"
    },
    {
      "inputs": [
        {
          "internalType": "address",
          "name": "from",
          "type": "address"
        },
        {
          "internalType": "address",
          "name": "to",
          "type": "address"
        },
        {
          "internalType": "uint256",
          "name": "tokenId",
          "type": "uint256"
        }
      ],
      "name": "transferFrom",
      "outputs": [],
      "stateMutability": "nonpayable",
      "type": "function"
    },
    {
      "inputs": [
        {
          "internalType": "address",
          "name": "redeemer",
          "type": "address"
        },
        {
          "components": [
            {
              "internalType": "uint256",
              "name": "tokenId",
              "type": "uint256"
            },
            {
              "internalType": "uint256",
              "name": "minPrice",
              "type": "uint256"
            },
            {
              "internalType": "string",
              "name": "uri",
              "type": "string"
            },
            {
              "internalType": "bytes",
              "name": "signature",
              "type": "bytes"
            }
          ],
          "internalType": "struct LazyNFT.NFTVoucher",
          "name": "voucher",
          "type": "tuple"
        }
      ],
      "name": "redeem",
      "outputs": [
        {
          "internalType": "uint256",
          "name": "",
          "type": "uint256"
        }
      ],
      "stateMutability": "payable",
      "type": "function"
    },
    {
      "inputs": [],
      "name": "withdraw",
      "outputs": [],
      "stateMutability": "nonpayable",
      "type": "function"
    },
    {
      "inputs": [],
      "name": "availableToWithdraw",
      "outputs": [
        {
          "internalType": "uint256",
          "name": "",
          "type": "uint256"
        }
      ],
      "stateMutability": "view",
      "type": "function"
    },
    {
      "inputs": [],
      "name": "getChainID",
      "outputs": [
        {
          "internalType": "uint256",
          "name": "",
          "type": "uint256"
        }
      ],
      "stateMutability": "view",
      "type": "function"
    },
    {
      "inputs": [
        {
          "internalType": "bytes4",
          "name": "interfaceId",
          "type": "bytes4"
        }
      ],
      "name": "supportsInterface",
      "outputs": [
        {
          "internalType": "bool",
          "name": "",
          "type": "bool"
        }
      ],
      "stateMutability": "view",
      "type": "function"
    }
  ],
  "bytecode": "0x6101406040523480156200001257600080fd5b5060405162004e2538038062004e25833981810160405281019062000038919062000500565b6040518060400160405280600f81526020017f4c617a794e46542d566f756368657200000000000000000000000000000000008152506040518060400160405280600181526020017f31000000000000000000000000000000000000000000000000000000000000008152506040518060400160405280601181526020017f436f6c64204265686176696f72204e46540000000000000000000000000000008152506040518060400160405280600381526020017f43424e0000000000000000000000000000000000000000000000000000000000815250816000908051906020019062000128929190620003e6565b50806001908051906020019062000141929190620003e6565b50505060008280519060200120905060008280519060200120905060007f8b73c3c69bb8fe3d512ecc4cf759cc79239f7b179b0ffacaa9a75d522b39400f90508260e081815250508161010081815250504660a08181525050620001ad8184846200022f60201b60201c565b608081815250503073ffffffffffffffffffffffffffffffffffffffff1660c08173ffffffffffffffffffffffffffffffffffffffff16815250508061012081815250505050505050620002287f9f2df0fed2c77648de5860a4cc508cd0818c85b8b8a1ab4ceeef8d981c8956a6826200026b60201b60201c565b506200064f565b600083838346306040516020016200024c9594939291906200058d565b6040516020818303038152906040528051906020012090509392505050565b6200027d82826200028160201b60201c565b5050565b6200029382826200037360201b60201c565b6200036f5760016007600084815260200190815260200160002060000160008373ffffffffffffffffffffffffffffffffffffffff1673ffffffffffffffffffffffffffffffffffffffff16815260200190815260200160002060006101000a81548160ff02191690831515021790555062000314620003de60201b60201c565b73ffffffffffffffffffffffffffffffffffffffff168173ffffffffffffffffffffffffffffffffffffffff16837f2f8788117e7eff1d82e926ec794901d17c78024a50270940304540a733656f0d60405160405180910390a45b5050565b60006007600084815260200190815260200160002060000160008373ffffffffffffffffffffffffffffffffffffffff1673ffffffffffffffffffffffffffffffffffffffff16815260200190815260200160002060009054906101000a900460ff16905092915050565b600033905090565b828054620003f49062000619565b90600052602060002090601f01602090048101928262000418576000855562000464565b82601f106200043357805160ff191683800117855562000464565b8280016001018555821562000464579182015b828111156200046357825182559160200191906001019062000446565b5b50905062000473919062000477565b5090565b5b808211156200049257600081600090555060010162000478565b5090565b600080fd5b600073ffffffffffffffffffffffffffffffffffffffff82169050919050565b6000620004c8826200049b565b9050919050565b620004da81620004bb565b8114620004e657600080fd5b50565b600081519050620004fa81620004cf565b92915050565b60006020828403121562000519576200051862000496565b5b60006200052984828501620004e9565b91505092915050565b6000819050919050565b620005478162000532565b82525050565b6000819050919050565b62000562816200054d565b82525050565b600062000575826200049b565b9050919050565b620005878162000568565b82525050565b600060a082019050620005a460008301886200053c565b620005b360208301876200053c565b620005c260408301866200053c565b620005d1606083018562000557565b620005e060808301846200057c565b9695505050505050565b7f4e487b7100000000000000000000000000000000000000000000000000000000600052602260045260246000fd5b600060028204905060018216806200063257607f821691505b60208210811415620006495762000648620005ea565b5b50919050565b60805160a05160c05160e05161010051610120516147866200069f600039600061288b015260006128cd015260006128ac015260006127e1015260006128370152600061286001526147866000f3fe60806040526004361061014b5760003560e01c80636352211e116100b6578063b88d4fde1161006f578063b88d4fde146104a7578063c87b56dd146104d0578063d53913931461050d578063d547741f14610538578063e322ad2b14610561578063e985e9c51461058c5761014b565b80636352211e1461037157806370a08231146103ae57806391d14854146103eb57806395d89b4114610428578063a217fddf14610453578063a22cb4651461047e5761014b565b8063248a9ca311610108578063248a9ca3146102775780632f2ff15d146102b457806336568abe146102dd5780633ccfd60b1461030657806342842e0e1461031d578063564b81ef146103465761014b565b806301ffc9a71461015057806306fdde031461018d578063081812fc146101b857806308708a78146101f5578063095ea7b31461022557806323b872dd1461024e575b600080fd5b34801561015c57600080fd5b5061017760048036038101906101729190612bce565b6105c9565b6040516101849190612c16565b60405180910390f35b34801561019957600080fd5b506101a26105eb565b6040516101af9190612cca565b60405180910390f35b3480156101c457600080fd5b506101df60048036038101906101da9190612d22565b61067d565b6040516101ec9190612d90565b60405180910390f35b61020f600480360381019061020a9190612dfb565b610702565b60405161021c9190612e66565b60405180910390f35b34801561023157600080fd5b5061024c60048036038101906102479190612e81565b6108a1565b005b34801561025a57600080fd5b5061027560048036038101906102709190612ec1565b6109b9565b005b34801561028357600080fd5b5061029e60048036038101906102999190612f4a565b610a19565b6040516102ab9190612f86565b60405180910390f35b3480156102c057600080fd5b506102db60048036038101906102d69190612fa1565b610a39565b005b3480156102e957600080fd5b5061030460048036038101906102ff9190612fa1565b610a62565b005b34801561031257600080fd5b5061031b610ae5565b005b34801561032957600080fd5b50610344600480360381019061033f9190612ec1565b610c27565b005b34801561035257600080fd5b5061035b610c47565b6040516103689190612e66565b60405180910390f35b34801561037d57600080fd5b5061039860048036038101906103939190612d22565b610c54565b6040516103a59190612d90565b60405180910390f35b3480156103ba57600080fd5b506103d560048036038101906103d09190612fe1565b610d06565b6040516103e29190612e66565b60405180910390f35b3480156103f757600080fd5b50610412600480360381019061040d9190612fa1565b610dbe565b60405161041f9190612c16565b60405180910390f35b34801561043457600080fd5b5061043d610e29565b60405161044a9190612cca565b60405180910390f35b34801561045f57600080fd5b50610468610ebb565b6040516104759190612f86565b60405180910390f35b34801561048a57600080fd5b506104a560048036038101906104a0919061303a565b610ec2565b005b3480156104b357600080fd5b506104ce60048036038101906104c991906131af565b610ed8565b005b3480156104dc57600080fd5b506104f760048036038101906104f29190612d22565b610f3a565b6040516105049190612cca565b60405180910390f35b34801561051957600080fd5b5061052261108c565b60405161052f9190612f86565b60405180910390f35b34801561054457600080fd5b5061055f600480360381019061055a9190612fa1565b6110b0565b005b34801561056d57600080fd5b506105766110d9565b6040516105839190612e66565b60405180910390f35b34801561059857600080fd5b506105b360048036038101906105ae9190613232565b611120565b6040516105c09190612c16565b60405180910390f35b60006105d4826111b4565b806105e457506105e382611296565b5b9050919050565b6060600080546105fa906132a1565b80601f0160208091040260200160405190810160405280929190818152602001828054610626906132a1565b80156106735780601f1061064857610100808354040283529160200191610673565b820191906000526020600020905b81548152906001019060200180831161065657829003601f168201915b5050505050905090565b600061068882611310565b6106c7576040517f08c379a00000000000000000000000000000000000000000000000000000000081526004016106be90613345565b60405180910390fd5b6004600083815260200190815260200160002060009054906101000a900473ffffffffffffffffffffffffffffffffffffffff169050919050565b60008061070e8361137c565b905061073a7f9f2df0fed2c77648de5860a4cc508cd0818c85b8b8a1ab4ceeef8d981c8956a682610dbe565b610779576040517f08c379a0000000000000000000000000000000000000000000000000000000008152600401610770906133d7565b60405180910390fd5b82602001353410156107c0576040517f08c379a00000000000000000000000000000000000000000000000000000000081526004016107b790613443565b60405180910390fd5b6107ce8184600001356113ee565b61082e83600001358480604001906107e69190613472565b8080601f016020809104026020016040519081016040528093929190818152602001838380828437600081840152601f19601f820116905080830192505050505050506115bc565b61083d81858560000135611630565b34600860008373ffffffffffffffffffffffffffffffffffffffff1673ffffffffffffffffffffffffffffffffffffffff168152602001908152602001600020600082825461088c9190613504565b92505081905550826000013591505092915050565b60006108ac82610c54565b90508073ffffffffffffffffffffffffffffffffffffffff168373ffffffffffffffffffffffffffffffffffffffff16141561091d576040517f08c379a0000000000000000000000000000000000000000000000000000000008152600401610914906135cc565b60405180910390fd5b8073ffffffffffffffffffffffffffffffffffffffff1661093c61188c565b73ffffffffffffffffffffffffffffffffffffffff16148061096b575061096a8161096561188c565b611120565b5b6109aa576040517f08c379a00000000000000000000000000000000000000000000000000000000081526004016109a19061365e565b60405180910390fd5b6109b48383611894565b505050565b6109ca6109c461188c565b8261194d565b610a09576040517f08c379a0000000000000000000000000000000000000000000000000000000008152600401610a00906136f0565b60405180910390fd5b610a14838383611630565b505050565b600060076000838152602001908152602001600020600101549050919050565b610a4282610a19565b610a5381610a4e61188c565b611a2b565b610a5d8383611ac8565b505050565b610a6a61188c565b73ffffffffffffffffffffffffffffffffffffffff168173ffffffffffffffffffffffffffffffffffffffff1614610ad7576040517f08c379a0000000000000000000000000000000000000000000000000000000008152600401610ace90613782565b60405180910390fd5b610ae18282611ba9565b5050565b610b0f7f9f2df0fed2c77648de5860a4cc508cd0818c85b8b8a1ab4ceeef8d981c8956a633610dbe565b610b4e576040517f08c379a0000000000000000000000000000000000000000000000000000000008152600401610b4590613814565b60405180910390fd5b60003390506000600860008373ffffffffffffffffffffffffffffffffffffffff1673ffffffffffffffffffffffffffffffffffffffff1681526020019081526020016000205490506000600860008473ffffffffffffffffffffffffffffffffffffffff1673ffffffffffffffffffffffffffffffffffffffff168152602001908152602001600020819055508173ffffffffffffffffffffffffffffffffffffffff166108fc829081150290604051600060405180830381858888f19350505050158015610c22573d6000803e3d6000fd5b505050565b610c4283838360405180602001604052806000815250610ed8565b505050565b6000804690508091505090565b6000806002600084815260200190815260200160002060009054906101000a900473ffffffffffffffffffffffffffffffffffffffff169050600073ffffffffffffffffffffffffffffffffffffffff168173ffffffffffffffffffffffffffffffffffffffff161415610cfd576040517f08c379a0000000000000000000000000000000000000000000000000000000008152600401610cf4906138a6565b60405180910390fd5b80915050919050565b60008073ffffffffffffffffffffffffffffffffffffffff168273ffffffffffffffffffffffffffffffffffffffff161415610d77576040517f08c379a0000000000000000000000000000000000000000000000000000000008152600401610d6e90613938565b60405180910390fd5b600360008373ffffffffffffffffffffffffffffffffffffffff1673ffffffffffffffffffffffffffffffffffffffff168152602001908152602001600020549050919050565b60006007600084815260200190815260200160002060000160008373ffffffffffffffffffffffffffffffffffffffff1673ffffffffffffffffffffffffffffffffffffffff16815260200190815260200160002060009054906101000a900460ff16905092915050565b606060018054610e38906132a1565b80601f0160208091040260200160405190810160405280929190818152602001828054610e64906132a1565b8015610eb15780601f10610e8657610100808354040283529160200191610eb1565b820191906000526020600020905b815481529060010190602001808311610e9457829003601f168201915b5050505050905090565b6000801b81565b610ed4610ecd61188c565b8383611c8b565b5050565b610ee9610ee361188c565b8361194d565b610f28576040517f08c379a0000000000000000000000000000000000000000000000000000000008152600401610f1f906136f0565b60405180910390fd5b610f3484848484611df8565b50505050565b6060610f4582611310565b610f84576040517f08c379a0000000000000000000000000000000000000000000000000000000008152600401610f7b906139ca565b60405180910390fd5b6000600660008481526020019081526020016000208054610fa4906132a1565b80601f0160208091040260200160405190810160405280929190818152602001828054610fd0906132a1565b801561101d5780601f10610ff25761010080835404028352916020019161101d565b820191906000526020600020905b81548152906001019060200180831161100057829003601f168201915b50505050509050600061102e611e54565b9050600081511415611044578192505050611087565b600082511115611079578082604051602001611061929190613a26565b60405160208183030381529060405292505050611087565b61108284611e6b565b925050505b919050565b7f9f2df0fed2c77648de5860a4cc508cd0818c85b8b8a1ab4ceeef8d981c8956a681565b6110b982610a19565b6110ca816110c561188c565b611a2b565b6110d48383611ba9565b505050565b6000600860003373ffffffffffffffffffffffffffffffffffffffff1673ffffffffffffffffffffffffffffffffffffffff16815260200190815260200160002054905090565b6000600560008473ffffffffffffffffffffffffffffffffffffffff1673ffffffffffffffffffffffffffffffffffffffff16815260200190815260200160002060008373ffffffffffffffffffffffffffffffffffffffff1673ffffffffffffffffffffffffffffffffffffffff16815260200190815260200160002060009054906101000a900460ff16905092915050565b60007f80ac58cd000000000000000000000000000000000000000000000000000000007bffffffffffffffffffffffffffffffffffffffffffffffffffffffff1916827bffffffffffffffffffffffffffffffffffffffffffffffffffffffff1916148061127f57507f5b5e139f000000000000000000000000000000000000000000000000000000007bffffffffffffffffffffffffffffffffffffffffffffffffffffffff1916827bffffffffffffffffffffffffffffffffffffffffffffffffffffffff1916145b8061128f575061128e82611f12565b5b9050919050565b60007f7965db0b000000000000000000000000000000000000000000000000000000007bffffffffffffffffffffffffffffffffffffffffffffffffffffffff1916827bffffffffffffffffffffffffffffffffffffffffffffffffffffffff191614806113095750611308826111b4565b5b9050919050565b60008073ffffffffffffffffffffffffffffffffffffffff166002600084815260200190815260200160002060009054906101000a900473ffffffffffffffffffffffffffffffffffffffff1673ffffffffffffffffffffffffffffffffffffffff1614159050919050565b60008061138883611f7c565b90506113e68184806060019061139e9190613a4a565b8080601f016020809104026020016040519081016040528093929190818152602001838380828437600081840152601f19601f82011690508083019250505050505050612007565b915050919050565b600073ffffffffffffffffffffffffffffffffffffffff168273ffffffffffffffffffffffffffffffffffffffff16141561145e576040517f08c379a000000000000000000000000000000000000000000000000000000000815260040161145590613af9565b60405180910390fd5b61146781611310565b156114a7576040517f08c379a000000000000000000000000000000000000000000000000000000000815260040161149e90613b65565b60405180910390fd5b6114b36000838361202e565b6001600360008473ffffffffffffffffffffffffffffffffffffffff1673ffffffffffffffffffffffffffffffffffffffff16815260200190815260200160002060008282546115039190613504565b92505081905550816002600083815260200190815260200160002060006101000a81548173ffffffffffffffffffffffffffffffffffffffff021916908373ffffffffffffffffffffffffffffffffffffffff160217905550808273ffffffffffffffffffffffffffffffffffffffff16600073ffffffffffffffffffffffffffffffffffffffff167fddf252ad1be2c89b69c2b068fc378daa952ba7f163c4a11628f55a4df523b3ef60405160405180910390a45050565b6115c582611310565b611604576040517f08c379a00000000000000000000000000000000000000000000000000000000081526004016115fb90613bf7565b60405180910390fd5b8060066000848152602001908152602001600020908051906020019061162b929190612abf565b505050565b8273ffffffffffffffffffffffffffffffffffffffff1661165082610c54565b73ffffffffffffffffffffffffffffffffffffffff16146116a6576040517f08c379a000000000000000000000000000000000000000000000000000000000815260040161169d90613c89565b60405180910390fd5b600073ffffffffffffffffffffffffffffffffffffffff168273ffffffffffffffffffffffffffffffffffffffff161415611716576040517f08c379a000000000000000000000000000000000000000000000000000000000815260040161170d90613d1b565b60405180910390fd5b61172183838361202e565b61172c600082611894565b6001600360008573ffffffffffffffffffffffffffffffffffffffff1673ffffffffffffffffffffffffffffffffffffffff168152602001908152602001600020600082825461177c9190613d3b565b925050819055506001600360008473ffffffffffffffffffffffffffffffffffffffff1673ffffffffffffffffffffffffffffffffffffffff16815260200190815260200160002060008282546117d39190613504565b92505081905550816002600083815260200190815260200160002060006101000a81548173ffffffffffffffffffffffffffffffffffffffff021916908373ffffffffffffffffffffffffffffffffffffffff160217905550808273ffffffffffffffffffffffffffffffffffffffff168473ffffffffffffffffffffffffffffffffffffffff167fddf252ad1be2c89b69c2b068fc378daa952ba7f163c4a11628f55a4df523b3ef60405160405180910390a4505050565b600033905090565b816004600083815260200190815260200160002060006101000a81548173ffffffffffffffffffffffffffffffffffffffff021916908373ffffffffffffffffffffffffffffffffffffffff160217905550808273ffffffffffffffffffffffffffffffffffffffff1661190783610c54565b73ffffffffffffffffffffffffffffffffffffffff167f8c5be1e5ebec7d5bd14f71427d1e84f3dd0314c0f7b2291e5b200ac8c7c3b92560405160405180910390a45050565b600061195882611310565b611997576040517f08c379a000000000000000000000000000000000000000000000000000000000815260040161198e90613de1565b60405180910390fd5b60006119a283610c54565b90508073ffffffffffffffffffffffffffffffffffffffff168473ffffffffffffffffffffffffffffffffffffffff161480611a1157508373ffffffffffffffffffffffffffffffffffffffff166119f98461067d565b73ffffffffffffffffffffffffffffffffffffffff16145b80611a225750611a218185611120565b5b91505092915050565b611a358282610dbe565b611ac457611a5a8173ffffffffffffffffffffffffffffffffffffffff166014612033565b611a688360001c6020612033565b604051602001611a79929190613e99565b6040516020818303038152906040526040517f08c379a0000000000000000000000000000000000000000000000000000000008152600401611abb9190612cca565b60405180910390fd5b5050565b611ad28282610dbe565b611ba55760016007600084815260200190815260200160002060000160008373ffffffffffffffffffffffffffffffffffffffff1673ffffffffffffffffffffffffffffffffffffffff16815260200190815260200160002060006101000a81548160ff021916908315150217905550611b4a61188c565b73ffffffffffffffffffffffffffffffffffffffff168173ffffffffffffffffffffffffffffffffffffffff16837f2f8788117e7eff1d82e926ec794901d17c78024a50270940304540a733656f0d60405160405180910390a45b5050565b611bb38282610dbe565b15611c875760006007600084815260200190815260200160002060000160008373ffffffffffffffffffffffffffffffffffffffff1673ffffffffffffffffffffffffffffffffffffffff16815260200190815260200160002060006101000a81548160ff021916908315150217905550611c2c61188c565b73ffffffffffffffffffffffffffffffffffffffff168173ffffffffffffffffffffffffffffffffffffffff16837ff6391f5c32d9c69d2a47ea670b442974b53935d1edc7fd64eb21e047a839171b60405160405180910390a45b5050565b8173ffffffffffffffffffffffffffffffffffffffff168373ffffffffffffffffffffffffffffffffffffffff161415611cfa576040517f08c379a0000000000000000000000000000000000000000000000000000000008152600401611cf190613f1f565b60405180910390fd5b80600560008573ffffffffffffffffffffffffffffffffffffffff1673ffffffffffffffffffffffffffffffffffffffff16815260200190815260200160002060008473ffffffffffffffffffffffffffffffffffffffff1673ffffffffffffffffffffffffffffffffffffffff16815260200190815260200160002060006101000a81548160ff0219169083151502179055508173ffffffffffffffffffffffffffffffffffffffff168373ffffffffffffffffffffffffffffffffffffffff167f17307eab39ab6107e8899845ad3d59bd9653f200f220920489ca2b5937696c3183604051611deb9190612c16565b60405180910390a3505050565b611e03848484611630565b611e0f8484848461226f565b611e4e576040517f08c379a0000000000000000000000000000000000000000000000000000000008152600401611e4590613fb1565b60405180910390fd5b50505050565b606060405180602001604052806000815250905090565b6060611e7682611310565b611eb5576040517f08c379a0000000000000000000000000000000000000000000000000000000008152600401611eac90614043565b60405180910390fd5b6000611ebf611e54565b90506000815111611edf5760405180602001604052806000815250611f0a565b80611ee9846123f7565b604051602001611efa929190613a26565b6040516020818303038152906040525b915050919050565b60007f01ffc9a7000000000000000000000000000000000000000000000000000000007bffffffffffffffffffffffffffffffffffffffffffffffffffffffff1916827bffffffffffffffffffffffffffffffffffffffffffffffffffffffff1916149050919050565b60006120007f6316f9ddd4d59a364f3b95c26bab9d392c3380ace0fff15e91ed76f0d8bcd15a83600001358460200135858060400190611fbc9190613472565b604051611fca929190614093565b6040518091039020604051602001611fe594939291906140ac565b60405160208183030381529060405280519060200120612558565b9050919050565b60008060006120168585612572565b91509150612023816125f5565b819250505092915050565b505050565b60606000600283600261204691906140f1565b6120509190613504565b67ffffffffffffffff81111561206957612068613084565b5b6040519080825280601f01601f19166020018201604052801561209b5781602001600182028036833780820191505090505b5090507f3000000000000000000000000000000000000000000000000000000000000000816000815181106120d3576120d261414b565b5b60200101907effffffffffffffffffffffffffffffffffffffffffffffffffffffffffffff1916908160001a9053507f7800000000000000000000000000000000000000000000000000000000000000816001815181106121375761213661414b565b5b60200101907effffffffffffffffffffffffffffffffffffffffffffffffffffffffffffff1916908160001a9053506000600184600261217791906140f1565b6121819190613504565b90505b6001811115612221577f3031323334353637383961626364656600000000000000000000000000000000600f8616601081106121c3576121c261414b565b5b1a60f81b8282815181106121da576121d961414b565b5b60200101907effffffffffffffffffffffffffffffffffffffffffffffffffffffffffffff1916908160001a905350600485901c94508061221a9061417a565b9050612184565b5060008414612265576040517f08c379a000000000000000000000000000000000000000000000000000000000815260040161225c906141f0565b60405180910390fd5b8091505092915050565b60006122908473ffffffffffffffffffffffffffffffffffffffff166127ca565b156123ea578373ffffffffffffffffffffffffffffffffffffffff1663150b7a026122b961188c565b8786866040518563ffffffff1660e01b81526004016122db9493929190614265565b6020604051808303816000875af192505050801561231757506040513d601f19601f8201168201806040525081019061231491906142c6565b60015b61239a573d8060008114612347576040519150601f19603f3d011682016040523d82523d6000602084013e61234c565b606091505b50600081511415612392576040517f08c379a000000000000000000000000000000000000000000000000000000000815260040161238990613fb1565b60405180910390fd5b805181602001fd5b63150b7a0260e01b7bffffffffffffffffffffffffffffffffffffffffffffffffffffffff1916817bffffffffffffffffffffffffffffffffffffffffffffffffffffffff1916149150506123ef565b600190505b949350505050565b6060600082141561243f576040518060400160405280600181526020017f30000000000000000000000000000000000000000000000000000000000000008152509050612553565b600082905060005b6000821461247157808061245a906142f3565b915050600a8261246a919061436b565b9150612447565b60008167ffffffffffffffff81111561248d5761248c613084565b5b6040519080825280601f01601f1916602001820160405280156124bf5781602001600182028036833780820191505090505b5090505b6000851461254c576001826124d89190613d3b565b9150600a856124e7919061439c565b60306124f39190613504565b60f81b8183815181106125095761250861414b565b5b60200101907effffffffffffffffffffffffffffffffffffffffffffffffffffffffffffff1916908160001a905350600a85612545919061436b565b94506124c3565b8093505050505b919050565b600061256b6125656127dd565b836128f7565b9050919050565b6000806041835114156125b45760008060006020860151925060408601519150606086015160001a90506125a88782858561292a565b945094505050506125ee565b6040835114156125e55760008060208501519150604085015190506125da868383612a37565b9350935050506125ee565b60006002915091505b9250929050565b60006004811115612609576126086143cd565b5b81600481111561261c5761261b6143cd565b5b1415612627576127c7565b6001600481111561263b5761263a6143cd565b5b81600481111561264e5761264d6143cd565b5b141561268f576040517f08c379a000000000000000000000000000000000000000000000000000000000815260040161268690614448565b60405180910390fd5b600260048111156126a3576126a26143cd565b5b8160048111156126b6576126b56143cd565b5b14156126f7576040517f08c379a00000000000000000000000000000000000000000000000000000000081526004016126ee906144b4565b60405180910390fd5b6003600481111561270b5761270a6143cd565b5b81600481111561271e5761271d6143cd565b5b141561275f576040517f08c379a000000000000000000000000000000000000000000000000000000000815260040161275690614546565b60405180910390fd5b600480811115612772576127716143cd565b5b816004811115612785576127846143cd565b5b14156127c6576040517f08c379a00000000000000000000000000000000000000000000000000000000081526004016127bd906145d8565b60405180910390fd5b5b50565b600080823b905060008111915050919050565b60007f000000000000000000000000000000000000000000000000000000000000000073ffffffffffffffffffffffffffffffffffffffff163073ffffffffffffffffffffffffffffffffffffffff1614801561285957507f000000000000000000000000000000000000000000000000000000000000000046145b15612886577f000000000000000000000000000000000000000000000000000000000000000090506128f4565b6128f17f00000000000000000000000000000000000000000000000000000000000000007f00000000000000000000000000000000000000000000000000000000000000007f0000000000000000000000000000000000000000000000000000000000000000612a85565b90505b90565b6000828260405160200161290c929190614665565b60405160208183030381529060405280519060200120905092915050565b6000807f7fffffffffffffffffffffffffffffff5d576e7357a4501ddfe92f46681b20a08360001c1115612965576000600391509150612a2e565b601b8560ff161415801561297d5750601c8560ff1614155b1561298f576000600491509150612a2e565b6000600187878787604051600081526020016040526040516129b494939291906146b8565b6020604051602081039080840390855afa1580156129d6573d6000803e3d6000fd5b505050602060405103519050600073ffffffffffffffffffffffffffffffffffffffff168173ffffffffffffffffffffffffffffffffffffffff161415612a2557600060019250925050612a2e565b80600092509250505b94509492505050565b6000806000807f7fffffffffffffffffffffffffffffffffffffffffffffffffffffffffffffff85169150601b8560ff1c019050612a778782888561292a565b935093505050935093915050565b60008383834630604051602001612aa09594939291906146fd565b6040516020818303038152906040528051906020012090509392505050565b828054612acb906132a1565b90600052602060002090601f016020900481019282612aed5760008555612b34565b82601f10612b0657805160ff1916838001178555612b34565b82800160010185558215612b34579182015b82811115612b33578251825591602001919060010190612b18565b5b509050612b419190612b45565b5090565b5b80821115612b5e576000816000905550600101612b46565b5090565b6000604051905090565b600080fd5b600080fd5b60007fffffffff0000000000000000000000000000000000000000000000000000000082169050919050565b612bab81612b76565b8114612bb657600080fd5b50565b600081359050612bc881612ba2565b92915050565b600060208284031215612be457612be3612b6c565b5b6000612bf284828501612bb9565b91505092915050565b60008115159050919050565b612c1081612bfb565b82525050565b6000602082019050612c2b6000830184612c07565b92915050565b600081519050919050565b600082825260208201905092915050565b60005b83811015612c6b578082015181840152602081019050612c50565b83811115612c7a576000848401525b50505050565b6000601f19601f8301169050919050565b6000612c9c82612c31565b612ca68185612c3c565b9350612cb6818560208601612c4d565b612cbf81612c80565b840191505092915050565b60006020820190508181036000830152612ce48184612c91565b905092915050565b6000819050919050565b612cff81612cec565b8114612d0a57600080fd5b50565b600081359050612d1c81612cf6565b92915050565b600060208284031215612d3857612d37612b6c565b5b6000612d4684828501612d0d565b91505092915050565b600073ffffffffffffffffffffffffffffffffffffffff82169050919050565b6000612d7a82612d4f565b9050919050565b612d8a81612d6f565b82525050565b6000602082019050612da56000830184612d81565b92915050565b612db481612d6f565b8114612dbf57600080fd5b50565b600081359050612dd181612dab565b92915050565b600080fd5b600060808284031215612df257612df1612dd7565b5b81905092915050565b60008060408385031215612e1257612e11612b6c565b5b6000612e2085828601612dc2565b925050602083013567ffffffffffffffff811115612e4157612e40612b71565b5b612e4d85828601612ddc565b9150509250929050565b612e6081612cec565b82525050565b6000602082019050612e7b6000830184612e57565b92915050565b60008060408385031215612e9857612e97612b6c565b5b6000612ea685828601612dc2565b9250506020612eb785828601612d0d565b9150509250929050565b600080600060608486031215612eda57612ed9612b6c565b5b6000612ee886828701612dc2565b9350506020612ef986828701612dc2565b9250506040612f0a86828701612d0d565b9150509250925092565b6000819050919050565b612f2781612f14565b8114612f3257600080fd5b50565b600081359050612f4481612f1e565b92915050565b600060208284031215612f6057612f5f612b6c565b5b6000612f6e84828501612f35565b91505092915050565b612f8081612f14565b82525050565b6000602082019050612f9b6000830184612f77565b92915050565b60008060408385031215612fb857612fb7612b6c565b5b6000612fc685828601612f35565b9250506020612fd785828601612dc2565b9150509250929050565b600060208284031215612ff757612ff6612b6c565b5b600061300584828501612dc2565b91505092915050565b61301781612bfb565b811461302257600080fd5b50565b6000813590506130348161300e565b92915050565b6000806040838503121561305157613050612b6c565b5b600061305f85828601612dc2565b925050602061307085828601613025565b9150509250929050565b600080fd5b600080fd5b7f4e487b7100000000000000000000000000000000000000000000000000000000600052604160045260246000fd5b6130bc82612c80565b810181811067ffffffffffffffff821117156130db576130da613084565b5b80604052505050565b60006130ee612b62565b90506130fa82826130b3565b919050565b600067ffffffffffffffff82111561311a57613119613084565b5b61312382612c80565b9050602081019050919050565b82818337600083830152505050565b600061315261314d846130ff565b6130e4565b90508281526020810184848401111561316e5761316d61307f565b5b613179848285613130565b509392505050565b600082601f8301126131965761319561307a565b5b81356131a684826020860161313f565b91505092915050565b600080600080608085870312156131c9576131c8612b6c565b5b60006131d787828801612dc2565b94505060206131e887828801612dc2565b93505060406131f987828801612d0d565b925050606085013567ffffffffffffffff81111561321a57613219612b71565b5b61322687828801613181565b91505092959194509250565b6000806040838503121561324957613248612b6c565b5b600061325785828601612dc2565b925050602061326885828601612dc2565b9150509250929050565b7f4e487b7100000000000000000000000000000000000000000000000000000000600052602260045260246000fd5b600060028204905060018216806132b957607f821691505b602082108114156132cd576132cc613272565b5b50919050565b7f4552433732313a20617070726f76656420717565727920666f72206e6f6e657860008201527f697374656e7420746f6b656e0000000000000000000000000000000000000000602082015250565b600061332f602c83612c3c565b915061333a826132d3565b604082019050919050565b6000602082019050818103600083015261335e81613322565b9050919050565b7f5369676e617475726520696e76616c6964206f7220756e617574686f72697a6560008201527f6400000000000000000000000000000000000000000000000000000000000000602082015250565b60006133c1602183612c3c565b91506133cc82613365565b604082019050919050565b600060208201905081810360008301526133f0816133b4565b9050919050565b7f496e73756666696369656e742066756e647320746f2072656465656d00000000600082015250565b600061342d601c83612c3c565b9150613438826133f7565b602082019050919050565b6000602082019050818103600083015261345c81613420565b9050919050565b600080fd5b600080fd5b600080fd5b6000808335600160200384360303811261348f5761348e613463565b5b80840192508235915067ffffffffffffffff8211156134b1576134b0613468565b5b6020830192506001820236038313156134cd576134cc61346d565b5b509250929050565b7f4e487b7100000000000000000000000000000000000000000000000000000000600052601160045260246000fd5b600061350f82612cec565b915061351a83612cec565b9250827fffffffffffffffffffffffffffffffffffffffffffffffffffffffffffffffff0382111561354f5761354e6134d5565b5b828201905092915050565b7f4552433732313a20617070726f76616c20746f2063757272656e74206f776e6560008201527f7200000000000000000000000000000000000000000000000000000000000000602082015250565b60006135b6602183612c3c565b91506135c18261355a565b604082019050919050565b600060208201905081810360008301526135e5816135a9565b9050919050565b7f4552433732313a20617070726f76652063616c6c6572206973206e6f74206f7760008201527f6e6572206e6f7220617070726f76656420666f7220616c6c0000000000000000602082015250565b6000613648603883612c3c565b9150613653826135ec565b604082019050919050565b600060208201905081810360008301526136778161363b565b9050919050565b7f4552433732313a207472616e736665722063616c6c6572206973206e6f74206f60008201527f776e6572206e6f7220617070726f766564000000000000000000000000000000602082015250565b60006136da603183612c3c565b91506136e58261367e565b604082019050919050565b60006020820190508181036000830152613709816136cd565b9050919050565b7f416363657373436f6e74726f6c3a2063616e206f6e6c792072656e6f756e636560008201527f20726f6c657320666f722073656c660000000000000000000000000000000000602082015250565b600061376c602f83612c3c565b915061377782613710565b604082019050919050565b6000602082019050818103600083015261379b8161375f565b9050919050565b7f4f6e6c7920617574686f72697a6564206d696e746572732063616e207769746860008201527f6472617700000000000000000000000000000000000000000000000000000000602082015250565b60006137fe602483612c3c565b9150613809826137a2565b604082019050919050565b6000602082019050818103600083015261382d816137f1565b9050919050565b7f4552433732313a206f776e657220717565727920666f72206e6f6e657869737460008201527f656e7420746f6b656e0000000000000000000000000000000000000000000000602082015250565b6000613890602983612c3c565b915061389b82613834565b604082019050919050565b600060208201905081810360008301526138bf81613883565b9050919050565b7f4552433732313a2062616c616e636520717565727920666f7220746865207a6560008201527f726f206164647265737300000000000000000000000000000000000000000000602082015250565b6000613922602a83612c3c565b915061392d826138c6565b604082019050919050565b6000602082019050818103600083015261395181613915565b9050919050565b7f45524337323155524953746f726167653a2055524920717565727920666f722060008201527f6e6f6e6578697374656e7420746f6b656e000000000000000000000000000000602082015250565b60006139b4603183612c3c565b91506139bf82613958565b604082019050919050565b600060208201905081810360008301526139e3816139a7565b9050919050565b600081905092915050565b6000613a0082612c31565b613a0a81856139ea565b9350613a1a818560208601612c4d565b80840191505092915050565b6000613a3282856139f5565b9150613a3e82846139f5565b91508190509392505050565b60008083356001602003843603038112613a6757613a66613463565b5b80840192508235915067ffffffffffffffff821115613a8957613a88613468565b5b602083019250600182023603831315613aa557613aa461346d565b5b509250929050565b7f4552433732313a206d696e7420746f20746865207a65726f2061646472657373600082015250565b6000613ae3602083612c3c565b9150613aee82613aad565b602082019050919050565b60006020820190508181036000830152613b1281613ad6565b9050919050565b7f4552433732313a20746f6b656e20616c7265616479206d696e74656400000000600082015250565b6000613b4f601c83612c3c565b9150613b5a82613b19565b602082019050919050565b60006020820190508181036000830152613b7e81613b42565b9050919050565b7f45524337323155524953746f726167653a2055524920736574206f66206e6f6e60008201527f6578697374656e7420746f6b656e000000000000000000000000000000000000602082015250565b6000613be1602e83612c3c565b9150613bec82613b85565b604082019050919050565b60006020820190508181036000830152613c1081613bd4565b9050919050565b7f4552433732313a207472616e73666572206f6620746f6b656e2074686174206960008201527f73206e6f74206f776e0000000000000000000000000000000000000000000000602082015250565b6000613c73602983612c3c565b9150613c7e82613c17565b604082019050919050565b60006020820190508181036000830152613ca281613c66565b9050919050565b7f4552433732313a207472616e7366657220746f20746865207a65726f2061646460008201527f7265737300000000000000000000000000000000000000000000000000000000602082015250565b6000613d05602483612c3c565b9150613d1082613ca9565b604082019050919050565b60006020820190508181036000830152613d3481613cf8565b9050919050565b6000613d4682612cec565b9150613d5183612cec565b925082821015613d6457613d636134d5565b5b828203905092915050565b7f4552433732313a206f70657261746f7220717565727920666f72206e6f6e657860008201527f697374656e7420746f6b656e0000000000000000000000000000000000000000602082015250565b6000613dcb602c83612c3c565b9150613dd682613d6f565b604082019050919050565b60006020820190508181036000830152613dfa81613dbe565b9050919050565b7f416363657373436f6e74726f6c3a206163636f756e7420000000000000000000600082015250565b6000613e376017836139ea565b9150613e4282613e01565b601782019050919050565b7f206973206d697373696e6720726f6c6520000000000000000000000000000000600082015250565b6000613e836011836139ea565b9150613e8e82613e4d565b601182019050919050565b6000613ea482613e2a565b9150613eb082856139f5565b9150613ebb82613e76565b9150613ec782846139f5565b91508190509392505050565b7f4552433732313a20617070726f766520746f2063616c6c657200000000000000600082015250565b6000613f09601983612c3c565b9150613f1482613ed3565b602082019050919050565b60006020820190508181036000830152613f3881613efc565b9050919050565b7f4552433732313a207472616e7366657220746f206e6f6e20455243373231526560008201527f63656976657220696d706c656d656e7465720000000000000000000000000000602082015250565b6000613f9b603283612c3c565b9150613fa682613f3f565b604082019050919050565b60006020820190508181036000830152613fca81613f8e565b9050919050565b7f4552433732314d657461646174613a2055524920717565727920666f72206e6f60008201527f6e6578697374656e7420746f6b656e0000000000000000000000000000000000602082015250565b600061402d602f83612c3c565b915061403882613fd1565b604082019050919050565b6000602082019050818103600083015261405c81614020565b9050919050565b600081905092915050565b600061407a8385614063565b9350614087838584613130565b82840190509392505050565b60006140a082848661406e565b91508190509392505050565b60006080820190506140c16000830187612f77565b6140ce6020830186612e57565b6140db6040830185612e57565b6140e86060830184612f77565b95945050505050565b60006140fc82612cec565b915061410783612cec565b9250817fffffffffffffffffffffffffffffffffffffffffffffffffffffffffffffffff04831182151516156141405761413f6134d5565b5b828202905092915050565b7f4e487b7100000000000000000000000000000000000000000000000000000000600052603260045260246000fd5b600061418582612cec565b91506000821415614199576141986134d5565b5b600182039050919050565b7f537472696e67733a20686578206c656e67746820696e73756666696369656e74600082015250565b60006141da602083612c3c565b91506141e5826141a4565b602082019050919050565b60006020820190508181036000830152614209816141cd565b9050919050565b600081519050919050565b600082825260208201905092915050565b600061423782614210565b614241818561421b565b9350614251818560208601612c4d565b61425a81612c80565b840191505092915050565b600060808201905061427a6000830187612d81565b6142876020830186612d81565b6142946040830185612e57565b81810360608301526142a6818461422c565b905095945050505050565b6000815190506142c081612ba2565b92915050565b6000602082840312156142dc576142db612b6c565b5b60006142ea848285016142b1565b91505092915050565b60006142fe82612cec565b91507fffffffffffffffffffffffffffffffffffffffffffffffffffffffffffffffff821415614331576143306134d5565b5b600182019050919050565b7f4e487b7100000000000000000000000000000000000000000000000000000000600052601260045260246000fd5b600061437682612cec565b915061438183612cec565b9250826143915761439061433c565b5b828204905092915050565b60006143a782612cec565b91506143b283612cec565b9250826143c2576143c161433c565b5b828206905092915050565b7f4e487b7100000000000000000000000000000000000000000000000000000000600052602160045260246000fd5b7f45434453413a20696e76616c6964207369676e61747572650000000000000000600082015250565b6000614432601883612c3c565b915061443d826143fc565b602082019050919050565b6000602082019050818103600083015261446181614425565b9050919050565b7f45434453413a20696e76616c6964207369676e6174757265206c656e67746800600082015250565b600061449e601f83612c3c565b91506144a982614468565b602082019050919050565b600060208201905081810360008301526144cd81614491565b9050919050565b7f45434453413a20696e76616c6964207369676e6174757265202773272076616c60008201527f7565000000000000000000000000000000000000000000000000000000000000602082015250565b6000614530602283612c3c565b915061453b826144d4565b604082019050919050565b6000602082019050818103600083015261455f81614523565b9050919050565b7f45434453413a20696e76616c6964207369676e6174757265202776272076616c60008201527f7565000000000000000000000000000000000000000000000000000000000000602082015250565b60006145c2602283612c3c565b91506145cd82614566565b604082019050919050565b600060208201905081810360008301526145f1816145b5565b9050919050565b7f1901000000000000000000000000000000000000000000000000000000000000600082015250565b600061462e6002836139ea565b9150614639826145f8565b600282019050919050565b6000819050919050565b61465f61465a82612f14565b614644565b82525050565b600061467082614621565b915061467c828561464e565b60208201915061468c828461464e565b6020820191508190509392505050565b600060ff82169050919050565b6146b28161469c565b82525050565b60006080820190506146cd6000830187612f77565b6146da60208301866146a9565b6146e76040830185612f77565b6146f46060830184612f77565b95945050505050565b600060a0820190506147126000830188612f77565b61471f6020830187612f77565b61472c6040830186612f77565b6147396060830185612e57565b6147466080830184612d81565b969550505050505056fea2646970667358221220fab878acdd8bc4811334a2c5e0cd5af69db7fea31d47dfdae86c65f31a9d974864736f6c634300080a0033",
  "immutableReferences": {
    "2493": [
      {
        "length": 32,
        "start": 10336
      }
    ],
    "2495": [
      {
        "length": 32,
        "start": 10295
      }
    ],
    "2497": [
      {
        "length": 32,
        "start": 10209
      }
    ],
    "2499": [
      {
        "length": 32,
        "start": 10412
      }
    ],
    "2501": [
      {
        "length": 32,
        "start": 10445
      }
    ],
    "2503": [
      {
        "length": 32,
        "start": 10379
      }
    ]
  },
  "source": "//SPDX-License-Identifier: Unlicense\npragma solidity ^0.8.0;\npragma abicoder v2; // required to accept structs as function parameters\n\nimport \"@openzeppelin/contracts/access/AccessControl.sol\";\nimport \"@openzeppelin/contracts/token/ERC721/ERC721.sol\";\nimport \"@openzeppelin/contracts/token/ERC721/extensions/ERC721URIStorage.sol\";\nimport \"@openzeppelin/contracts/utils/cryptography/ECDSA.sol\";\nimport \"@openzeppelin/contracts/utils/cryptography/draft-EIP712.sol\";\n\ncontract LazyNFT is ERC721URIStorage, EIP712, AccessControl {\n  bytes32 public constant MINTER_ROLE = keccak256(\"MINTER_ROLE\");\n  string private constant SIGNING_DOMAIN = \"LazyNFT-Voucher\";\n  string private constant SIGNATURE_VERSION = \"1\";\n\n  mapping (address => uint256) pendingWithdrawals;\n\n  constructor(address payable minter)\n    ERC721(\"Cold Behavior NFT\", \"CBN\") \n    EIP712(SIGNING_DOMAIN, SIGNATURE_VERSION) {\n      _setupRole(MINTER_ROLE, minter);\n    }\n\n  /// @notice Represents an un-minted NFT, which has not yet been recorded into the blockchain. A signed voucher can be redeemed for a real NFT using the redeem function.\n  struct NFTVoucher {\n    /// @notice The id of the token to be redeemed. Must be unique - if another token with this ID already exists, the redeem function will revert.\n    uint256 tokenId;\n\n    /// @notice The minimum price (in wei) that the NFT creator is willing to accept for the initial sale of this NFT.\n    uint256 minPrice;\n\n    /// @notice The metadata URI to associate with this token.\n    string uri;\n\n    /// @notice the EIP-712 signature of all other fields in the NFTVoucher struct. For a voucher to be valid, it must be signed by an account with the MINTER_ROLE.\n    bytes signature;\n  }\n\n\n  /// @notice Redeems an NFTVoucher for an actual NFT, creating it in the process.\n  /// @param redeemer The address of the account which will receive the NFT upon success.\n  /// @param voucher A signed NFTVoucher that describes the NFT to be redeemed.\n  function redeem(address redeemer, NFTVoucher calldata voucher) public payable returns (uint256) {\n    // make sure signature is valid and get the address of the signer\n    address signer = _verify(voucher);\n\n    // make sure that the signer is authorized to mint NFTs\n    require(hasRole(MINTER_ROLE, signer), \"Signature invalid or unauthorized\");\n\n    // make sure that the redeemer is paying enough to cover the buyer's cost\n    require(msg.value >= voucher.minPrice, \"Insufficient funds to redeem\");\n\n    // first assign the token to the signer, to establish provenance on-chain\n    _mint(signer, voucher.tokenId);\n    _setTokenURI(voucher.tokenId, voucher.uri);\n    \n    // transfer the token to the redeemer\n    _transfer(signer, redeemer, voucher.tokenId);\n\n    // record payment to signer's withdrawal balance\n    pendingWithdrawals[signer] += msg.value;\n\n    return voucher.tokenId;\n  }\n\n  /// @notice Transfers all pending withdrawal balance to the caller. Reverts if the caller is not an authorized minter.\n  function withdraw() public {\n    require(hasRole(MINTER_ROLE, msg.sender), \"Only authorized minters can withdraw\");\n    \n    // IMPORTANT: casting msg.sender to a payable address is only safe if ALL members of the minter role are payable addresses.\n    address payable receiver = payable(msg.sender);\n\n    uint amount = pendingWithdrawals[receiver];\n    // zero account before transfer to prevent re-entrancy attack\n    pendingWithdrawals[receiver] = 0;\n    receiver.transfer(amount);\n  }\n\n  /// @notice Retuns the amount of Ether available to the caller to withdraw.\n  function availableToWithdraw() public view returns (uint256) {\n    return pendingWithdrawals[msg.sender];\n  }\n\n  /// @notice Returns a hash of the given NFTVoucher, prepared using EIP712 typed data hashing rules.\n  /// @param voucher An NFTVoucher to hash.\n  function _hash(NFTVoucher calldata voucher) internal view returns (bytes32) {\n    return _hashTypedDataV4(keccak256(abi.encode(\n      keccak256(\"NFTVoucher(uint256 tokenId,uint256 minPrice,string uri)\"),\n      voucher.tokenId,\n      voucher.minPrice,\n      keccak256(bytes(voucher.uri))\n    )));\n  }\n\n  /// @notice Returns the chain id of the current blockchain.\n  /// @dev This is used to workaround an issue with ganache returning different values from the on-chain chainid() function and\n  ///  the eth_chainId RPC method. See https://github.com/protocol/nft-website/issues/121 for context.\n  function getChainID() external view returns (uint256) {\n    uint256 id;\n    assembly {\n        id := chainid()\n    }\n    return id;\n  }\n\n  /// @notice Verifies the signature for a given NFTVoucher, returning the address of the signer.\n  /// @dev Will revert if the signature is invalid. Does not verify that the signer is authorized to mint NFTs.\n  /// @param voucher An NFTVoucher describing an unminted NFT.\n  function _verify(NFTVoucher calldata voucher) internal view returns (address) {\n    bytes32 digest = _hash(voucher);\n    return ECDSA.recover(digest, voucher.signature);\n  }\n\n  function supportsInterface(bytes4 interfaceId) public view virtual override (AccessControl, ERC721) returns (bool) {\n    return ERC721.supportsInterface(interfaceId) || AccessControl.supportsInterface(interfaceId);\n  }\n}",
  "sourcePath": "/Users/warrenschwartz/Projects/ColdBehaviour/contracts/contracts/NftVoucher.sol",
  "compiler": {
    "name": "solc",
    "version": "0.8.10+commit.fc410830.Emscripten.clang"
  },
  "schemaVersion": "3.4.3",
  "updatedAt": "2022-02-23T13:49:13.154Z",
  "devdoc": {
    "kind": "dev",
    "methods": {
      "approve(address,uint256)": {
        "details": "See {IERC721-approve}."
      },
      "balanceOf(address)": {
        "details": "See {IERC721-balanceOf}."
      },
      "getApproved(uint256)": {
        "details": "See {IERC721-getApproved}."
      },
      "getChainID()": {
        "details": "This is used to workaround an issue with ganache returning different values from the on-chain chainid() function and  the eth_chainId RPC method. See https://github.com/protocol/nft-website/issues/121 for context."
      },
      "getRoleAdmin(bytes32)": {
        "details": "Returns the admin role that controls `role`. See {grantRole} and {revokeRole}. To change a role's admin, use {_setRoleAdmin}."
      },
      "grantRole(bytes32,address)": {
        "details": "Grants `role` to `account`. If `account` had not been already granted `role`, emits a {RoleGranted} event. Requirements: - the caller must have ``role``'s admin role."
      },
      "hasRole(bytes32,address)": {
        "details": "Returns `true` if `account` has been granted `role`."
      },
      "isApprovedForAll(address,address)": {
        "details": "See {IERC721-isApprovedForAll}."
      },
      "name()": {
        "details": "See {IERC721Metadata-name}."
      },
      "ownerOf(uint256)": {
        "details": "See {IERC721-ownerOf}."
      },
      "redeem(address,(uint256,uint256,string,bytes))": {
        "params": {
          "redeemer": "The address of the account which will receive the NFT upon success.",
          "voucher": "A signed NFTVoucher that describes the NFT to be redeemed."
        }
      },
      "renounceRole(bytes32,address)": {
        "details": "Revokes `role` from the calling account. Roles are often managed via {grantRole} and {revokeRole}: this function's purpose is to provide a mechanism for accounts to lose their privileges if they are compromised (such as when a trusted device is misplaced). If the calling account had been revoked `role`, emits a {RoleRevoked} event. Requirements: - the caller must be `account`."
      },
      "revokeRole(bytes32,address)": {
        "details": "Revokes `role` from `account`. If `account` had been granted `role`, emits a {RoleRevoked} event. Requirements: - the caller must have ``role``'s admin role."
      },
      "safeTransferFrom(address,address,uint256)": {
        "details": "See {IERC721-safeTransferFrom}."
      },
      "safeTransferFrom(address,address,uint256,bytes)": {
        "details": "See {IERC721-safeTransferFrom}."
      },
      "setApprovalForAll(address,bool)": {
        "details": "See {IERC721-setApprovalForAll}."
      },
      "symbol()": {
        "details": "See {IERC721Metadata-symbol}."
      },
      "tokenURI(uint256)": {
        "details": "See {IERC721Metadata-tokenURI}."
      },
      "transferFrom(address,address,uint256)": {
        "details": "See {IERC721-transferFrom}."
      }
    },
    "version": 1
  },
  "userdoc": {
    "kind": "user",
    "methods": {
      "availableToWithdraw()": {
        "notice": "Retuns the amount of Ether available to the caller to withdraw."
      },
      "getChainID()": {
        "notice": "Returns the chain id of the current blockchain."
      },
      "redeem(address,(uint256,uint256,string,bytes))": {
        "notice": "Redeems an NFTVoucher for an actual NFT, creating it in the process."
      },
      "withdraw()": {
        "notice": "Transfers all pending withdrawal balance to the caller. Reverts if the caller is not an authorized minter."
      }
    },
    "version": 1
  }
}