{
  "contractName": "Raffle",
  "abi": [
    {
      "inputs": [
        {
          "internalType": "address",
          "name": "_nftContract",
          "type": "address"
        },
        {
          "internalType": "uint256",
          "name": "_drawMinimum",
          "type": "uint256"
        },
        {
          "internalType": "uint256",
          "name": "_entryMinimum",
          "type": "uint256"
        },
        {
          "internalType": "uint256",
          "name": "_whiteListMaximum",
          "type": "uint256"
        }
      ],
      "stateMutability": "nonpayable",
      "type": "constructor"
    },
    {
      "anonymous": false,
      "inputs": [],
      "name": "Drawn",
      "type": "event"
    },
    {
      "anonymous": false,
      "inputs": [
        {
          "indexed": false,
          "internalType": "address",
          "name": "_participant",
          "type": "address"
        },
        {
          "indexed": false,
          "internalType": "uint256",
          "name": "_entryCount",
          "type": "uint256"
        }
      ],
      "name": "Entered",
      "type": "event"
    },
    {
      "anonymous": false,
      "inputs": [
        {
          "indexed": true,
          "internalType": "address",
          "name": "previousOwner",
          "type": "address"
        },
        {
          "indexed": true,
          "internalType": "address",
          "name": "newOwner",
          "type": "address"
        }
      ],
      "name": "OwnershipTransferred",
      "type": "event"
    },
    {
      "inputs": [],
      "name": "owner",
      "outputs": [
        {
          "internalType": "address",
          "name": "",
          "type": "address"
        }
      ],
      "stateMutability": "view",
      "type": "function"
    },
    {
      "inputs": [
        {
          "internalType": "uint256",
          "name": "",
          "type": "uint256"
        }
      ],
      "name": "participants",
      "outputs": [
        {
          "internalType": "address",
          "name": "",
          "type": "address"
        }
      ],
      "stateMutability": "view",
      "type": "function"
    },
    {
      "inputs": [],
      "name": "renounceOwnership",
      "outputs": [],
      "stateMutability": "nonpayable",
      "type": "function"
    },
    {
      "inputs": [
        {
          "internalType": "address",
          "name": "newOwner",
          "type": "address"
        }
      ],
      "name": "transferOwnership",
      "outputs": [],
      "stateMutability": "nonpayable",
      "type": "function"
    },
    {
      "inputs": [
        {
          "internalType": "uint256",
          "name": "",
          "type": "uint256"
        }
      ],
      "name": "whiteList",
      "outputs": [
        {
          "internalType": "address",
          "name": "",
          "type": "address"
        }
      ],
      "stateMutability": "view",
      "type": "function"
    },
    {
      "inputs": [
        {
          "internalType": "address",
          "name": "_nftContract",
          "type": "address"
        },
        {
          "internalType": "uint256",
          "name": "_drawMinimum",
          "type": "uint256"
        },
        {
          "internalType": "uint256",
          "name": "_entryMinimum",
          "type": "uint256"
        },
        {
          "internalType": "uint256",
          "name": "_whiteListMaximum",
          "type": "uint256"
        }
      ],
      "name": "initialize",
      "outputs": [],
      "stateMutability": "nonpayable",
      "type": "function"
    },
    {
      "inputs": [],
      "name": "draw",
      "outputs": [],
      "stateMutability": "nonpayable",
      "type": "function"
    },
    {
      "inputs": [],
      "name": "enter",
      "outputs": [],
      "stateMutability": "nonpayable",
      "type": "function"
    }
  ],
  "bytecode": "0x608060405260006003553480156200001657600080fd5b50604051620015f7380380620015f783398181016040528101906200003c91906200031a565b6200005c620000506200009560201b60201c565b6200009d60201b60201c565b62000070848484846200016160201b60201c565b6000600560006101000a81548160ff021916908315150217905550505050506200040f565b600033905090565b60008060009054906101000a900473ffffffffffffffffffffffffffffffffffffffff169050816000806101000a81548173ffffffffffffffffffffffffffffffffffffffff021916908373ffffffffffffffffffffffffffffffffffffffff1602179055508173ffffffffffffffffffffffffffffffffffffffff168173ffffffffffffffffffffffffffffffffffffffff167f8be0079c531659141344cd1fd0a4f28419497f9722a3daafe3b4186f6b6457e060405160405180910390a35050565b620001716200009560201b60201c565b73ffffffffffffffffffffffffffffffffffffffff16620001976200024c60201b60201c565b73ffffffffffffffffffffffffffffffffffffffff1614620001f0576040517f08c379a0000000000000000000000000000000000000000000000000000000008152600401620001e790620003ed565b60405180910390fd5b83600160006101000a81548173ffffffffffffffffffffffffffffffffffffffff021916908373ffffffffffffffffffffffffffffffffffffffff16021790555082600281905550816004819055508060068190555050505050565b60008060009054906101000a900473ffffffffffffffffffffffffffffffffffffffff16905090565b600080fd5b600073ffffffffffffffffffffffffffffffffffffffff82169050919050565b6000620002a7826200027a565b9050919050565b620002b9816200029a565b8114620002c557600080fd5b50565b600081519050620002d981620002ae565b92915050565b6000819050919050565b620002f481620002df565b81146200030057600080fd5b50565b6000815190506200031481620002e9565b92915050565b6000806000806080858703121562000337576200033662000275565b5b60006200034787828801620002c8565b94505060206200035a8782880162000303565b93505060406200036d8782880162000303565b9250506060620003808782880162000303565b91505092959194509250565b600082825260208201905092915050565b7f4f776e61626c653a2063616c6c6572206973206e6f7420746865206f776e6572600082015250565b6000620003d56020836200038c565b9150620003e2826200039d565b602082019050919050565b600060208201905081810360008301526200040881620003c6565b9050919050565b6111d8806200041f6000396000f3fe608060405234801561001057600080fd5b50600436106100885760003560e01c8063715018a61161005b578063715018a6146101135780638da5cb5b1461011d578063e97dcb621461013b578063f2fde38b1461014557610088565b80630eecae211461008d57806335c1d349146100975780634ec81af1146100c75780635c475d42146100e3575b600080fd5b610095610161565b005b6100b160048036038101906100ac9190610af0565b61052d565b6040516100be9190610b5e565b60405180910390f35b6100e160048036038101906100dc9190610ba5565b610560565b005b6100fd60048036038101906100f89190610af0565b610638565b60405161010a9190610b5e565b60405180910390f35b61011b61066b565b005b6101256106f3565b6040516101329190610b5e565b60405180910390f35b61014361071c565b005b61015f600480360381019061015a9190610c0c565b6108f1565b005b6101696109e9565b73ffffffffffffffffffffffffffffffffffffffff166101876106f3565b73ffffffffffffffffffffffffffffffffffffffff16146101dd576040517f08c379a00000000000000000000000000000000000000000000000000000000081526004016101d490610c96565b60405180910390fd5b600560009054906101000a900460ff161561022d576040517f08c379a000000000000000000000000000000000000000000000000000000000815260040161022490610d28565b60405180910390fd5b6000600654905060006001905060035482111561024e57600354915061025f565b8160035461025c9190610da6565b90505b6000805b83811015610365576002546007600083815260200190815260200160002060009054906101000a900473ffffffffffffffffffffffffffffffffffffffff1673ffffffffffffffffffffffffffffffffffffffff163110610352576007600082815260200190815260200160002060009054906101000a900473ffffffffffffffffffffffffffffffffffffffff166008600084815260200190815260200160002060006101000a81548173ffffffffffffffffffffffffffffffffffffffff021916908373ffffffffffffffffffffffffffffffffffffffff160217905550818061034e90610dd7565b9250505b828161035e9190610e20565b9050610263565b5060008167ffffffffffffffff81111561038257610381610e76565b5b6040519080825280602002602001820160405280156103b05781602001602082028036833780820191505090505b50905060005b82811015610452576008600082815260200190815260200160002060009054906101000a900473ffffffffffffffffffffffffffffffffffffffff1682828151811061040557610404610ea5565b5b602002602001019073ffffffffffffffffffffffffffffffffffffffff16908173ffffffffffffffffffffffffffffffffffffffff1681525050808061044a90610dd7565b9150506103b6565b50600160009054906101000a900473ffffffffffffffffffffffffffffffffffffffff1673ffffffffffffffffffffffffffffffffffffffff1663f18e33e1826040518263ffffffff1660e01b81526004016104ae9190610f92565b600060405180830381600087803b1580156104c857600080fd5b505af11580156104dc573d6000803e3d6000fd5b505050506001600560006101000a81548160ff0219169083151502179055507f58f32fd898804285fb915b4c0a82163b1495ec481eb99a43daba0d8d3c8fac2460405160405180910390a150505050565b60076020528060005260406000206000915054906101000a900473ffffffffffffffffffffffffffffffffffffffff1681565b6105686109e9565b73ffffffffffffffffffffffffffffffffffffffff166105866106f3565b73ffffffffffffffffffffffffffffffffffffffff16146105dc576040517f08c379a00000000000000000000000000000000000000000000000000000000081526004016105d390610c96565b60405180910390fd5b83600160006101000a81548173ffffffffffffffffffffffffffffffffffffffff021916908373ffffffffffffffffffffffffffffffffffffffff16021790555082600281905550816004819055508060068190555050505050565b60086020528060005260406000206000915054906101000a900473ffffffffffffffffffffffffffffffffffffffff1681565b6106736109e9565b73ffffffffffffffffffffffffffffffffffffffff166106916106f3565b73ffffffffffffffffffffffffffffffffffffffff16146106e7576040517f08c379a00000000000000000000000000000000000000000000000000000000081526004016106de90610c96565b60405180910390fd5b6106f160006109f1565b565b60008060009054906101000a900473ffffffffffffffffffffffffffffffffffffffff16905090565b6004543373ffffffffffffffffffffffffffffffffffffffff16311015610778576040517f08c379a000000000000000000000000000000000000000000000000000000000815260040161076f90611026565b60405180910390fd5b6000805b600354811015610805573373ffffffffffffffffffffffffffffffffffffffff166007600083815260200190815260200160002060009054906101000a900473ffffffffffffffffffffffffffffffffffffffff1673ffffffffffffffffffffffffffffffffffffffff1614156107f257600191505b80806107fd90610dd7565b91505061077c565b508015610847576040517f08c379a000000000000000000000000000000000000000000000000000000000815260040161083e906110b8565b60405180910390fd5b3360076000600354815260200190815260200160002060006101000a81548173ffffffffffffffffffffffffffffffffffffffff021916908373ffffffffffffffffffffffffffffffffffffffff160217905550600360008154809291906108ae90610dd7565b91905055507fdb4b459b9af0810582f21ec0ec043ee9c3f91ea26a3d3a675dea0e9e5e099f05336003546040516108e69291906110e7565b60405180910390a150565b6108f96109e9565b73ffffffffffffffffffffffffffffffffffffffff166109176106f3565b73ffffffffffffffffffffffffffffffffffffffff161461096d576040517f08c379a000000000000000000000000000000000000000000000000000000000815260040161096490610c96565b60405180910390fd5b600073ffffffffffffffffffffffffffffffffffffffff168173ffffffffffffffffffffffffffffffffffffffff1614156109dd576040517f08c379a00000000000000000000000000000000000000000000000000000000081526004016109d490611182565b60405180910390fd5b6109e6816109f1565b50565b600033905090565b60008060009054906101000a900473ffffffffffffffffffffffffffffffffffffffff169050816000806101000a81548173ffffffffffffffffffffffffffffffffffffffff021916908373ffffffffffffffffffffffffffffffffffffffff1602179055508173ffffffffffffffffffffffffffffffffffffffff168173ffffffffffffffffffffffffffffffffffffffff167f8be0079c531659141344cd1fd0a4f28419497f9722a3daafe3b4186f6b6457e060405160405180910390a35050565b600080fd5b6000819050919050565b610acd81610aba565b8114610ad857600080fd5b50565b600081359050610aea81610ac4565b92915050565b600060208284031215610b0657610b05610ab5565b5b6000610b1484828501610adb565b91505092915050565b600073ffffffffffffffffffffffffffffffffffffffff82169050919050565b6000610b4882610b1d565b9050919050565b610b5881610b3d565b82525050565b6000602082019050610b736000830184610b4f565b92915050565b610b8281610b3d565b8114610b8d57600080fd5b50565b600081359050610b9f81610b79565b92915050565b60008060008060808587031215610bbf57610bbe610ab5565b5b6000610bcd87828801610b90565b9450506020610bde87828801610adb565b9350506040610bef87828801610adb565b9250506060610c0087828801610adb565b91505092959194509250565b600060208284031215610c2257610c21610ab5565b5b6000610c3084828501610b90565b91505092915050565b600082825260208201905092915050565b7f4f776e61626c653a2063616c6c6572206973206e6f7420746865206f776e6572600082015250565b6000610c80602083610c39565b9150610c8b82610c4a565b602082019050919050565b60006020820190508181036000830152610caf81610c73565b9050919050565b7f5468697320726166666c652068617320616c7265616479206265656e2064726160008201527f776e000000000000000000000000000000000000000000000000000000000000602082015250565b6000610d12602283610c39565b9150610d1d82610cb6565b604082019050919050565b60006020820190508181036000830152610d4181610d05565b9050919050565b7f4e487b7100000000000000000000000000000000000000000000000000000000600052601260045260246000fd5b7f4e487b7100000000000000000000000000000000000000000000000000000000600052601160045260246000fd5b6000610db182610aba565b9150610dbc83610aba565b925082610dcc57610dcb610d48565b5b828204905092915050565b6000610de282610aba565b91507fffffffffffffffffffffffffffffffffffffffffffffffffffffffffffffffff821415610e1557610e14610d77565b5b600182019050919050565b6000610e2b82610aba565b9150610e3683610aba565b9250827fffffffffffffffffffffffffffffffffffffffffffffffffffffffffffffffff03821115610e6b57610e6a610d77565b5b828201905092915050565b7f4e487b7100000000000000000000000000000000000000000000000000000000600052604160045260246000fd5b7f4e487b7100000000000000000000000000000000000000000000000000000000600052603260045260246000fd5b600081519050919050565b600082825260208201905092915050565b6000819050602082019050919050565b610f0981610b3d565b82525050565b6000610f1b8383610f00565b60208301905092915050565b6000602082019050919050565b6000610f3f82610ed4565b610f498185610edf565b9350610f5483610ef0565b8060005b83811015610f85578151610f6c8882610f0f565b9750610f7783610f27565b925050600181019050610f58565b5085935050505092915050565b60006020820190508181036000830152610fac8184610f34565b905092915050565b7f596f75722062616c616e636520646f6573206e6f74206d65657420746865206d60008201527f696e696d756d20656e74727920726571756972656d656e740000000000000000602082015250565b6000611010603883610c39565b915061101b82610fb4565b604082019050919050565b6000602082019050818103600083015261103f81611003565b9050919050565b7f596f75206861766520616c726561647920656e7465726564207468652072616660008201527f666c650000000000000000000000000000000000000000000000000000000000602082015250565b60006110a2602383610c39565b91506110ad82611046565b604082019050919050565b600060208201905081810360008301526110d181611095565b9050919050565b6110e181610aba565b82525050565b60006040820190506110fc6000830185610b4f565b61110960208301846110d8565b9392505050565b7f4f776e61626c653a206e6577206f776e657220697320746865207a65726f206160008201527f6464726573730000000000000000000000000000000000000000000000000000602082015250565b600061116c602683610c39565b915061117782611110565b604082019050919050565b6000602082019050818103600083015261119b8161115f565b905091905056fea2646970667358221220862a51cba806980d4bda14264eea2251876c444ce12ce08313de9cbe7a2d991264736f6c634300080a0033",
  "immutableReferences": {},
  "source": "// SPDX-License-Identifier: MIT\npragma solidity ^0.8.2;\n\nimport \"@openzeppelin/contracts/access/Ownable.sol\";\nimport \"./IArtist.sol\";\n\ncontract Raffle is Ownable {\n  IArtist nftContract;\n  uint drawMinimum;\n  uint entryCount = 0;\n  uint entryMinimum;\n  bool isDrawn;\n  uint whiteListMaximum;\n\n  mapping (uint => address) public participants;\n  mapping (uint => address) public whiteList;\n\n  event Entered(address _participant, uint _entryCount);\n  event Drawn();\n\n  constructor(\n    address _nftContract,\n    uint _drawMinimum,\n    uint _entryMinimum,\n    uint _whiteListMaximum\n  ) {\n    initialize(_nftContract, _drawMinimum, _entryMinimum, _whiteListMaximum);\n    isDrawn = false;\n  }\n\n  function initialize(\n    address _nftContract,\n    uint _drawMinimum,\n    uint _entryMinimum,\n    uint _whiteListMaximum\n  ) \n  public onlyOwner \n  {\n    nftContract = IArtist(_nftContract);\n    drawMinimum = _drawMinimum;\n    entryMinimum = _entryMinimum;\n    whiteListMaximum = _whiteListMaximum;\n  }\n\n  function draw() external onlyOwner {\n    require(!isDrawn, \"This raffle has already been drawn\");\n\n    uint count = whiteListMaximum;\n    uint interval = 1;\n    if (count > entryCount) {\n      count = entryCount;\n    } else {\n      interval = entryCount / count;\n    }\n\n    uint y = 0;\n    for (uint x = 0; x < count; x += interval) {\n      if (participants[x].balance >= drawMinimum) {\n        whiteList[y] = participants[x];\n        y++;\n      }\n    }\n    \n    address[] memory wl = new address[](y);\n    for (uint x = 0; x < y; x++) {\n      wl[x] = whiteList[x];\n    }\n\n    nftContract.addMinter(wl);\n\n    isDrawn = true;\n\n    emit Drawn();\n  }\n\n  function enter() external \n  {\n    require(msg.sender.balance >= entryMinimum, \"Your balance does not meet the minimum entry requirement\");\n    bool exists = false;\n    for (uint x = 0; x < entryCount; x++) {\n      if (participants[x] == msg.sender) {\n        exists = true;\n      }\n    }\n    require(!exists, \"You have already entered the raffle\");\n\n    participants[entryCount] = msg.sender;\n    entryCount++;\n\n    emit Entered(msg.sender, entryCount);\n  }\n}\n",
  "sourcePath": "/Users/warrenschwartz/Projects/ColdBehaviour/contracts/contracts/Raffle.sol",
  "compiler": {
    "name": "solc",
    "version": "0.8.10+commit.fc410830.Emscripten.clang"
  },
  "schemaVersion": "3.4.3",
  "updatedAt": "2022-01-26T08:18:52.300Z",
  "devdoc": {
    "kind": "dev",
    "methods": {
      "owner()": {
        "details": "Returns the address of the current owner."
      },
      "renounceOwnership()": {
        "details": "Leaves the contract without owner. It will not be possible to call `onlyOwner` functions anymore. Can only be called by the current owner. NOTE: Renouncing ownership will leave the contract without an owner, thereby removing any functionality that is only available to the owner."
      },
      "transferOwnership(address)": {
        "details": "Transfers ownership of the contract to a new account (`newOwner`). Can only be called by the current owner."
      }
    },
    "version": 1
  },
  "userdoc": {
    "kind": "user",
    "methods": {},
    "version": 1
  }
}