{
  "contractName": "Raffle",
  "abi": [
    {
      "inputs": [
        {
          "internalType": "address",
          "name": "_nftContract",
          "type": "address"
        },
        {
          "internalType": "uint256",
          "name": "_drawMinimum",
          "type": "uint256"
        },
        {
          "internalType": "uint256",
          "name": "_entryMinimum",
          "type": "uint256"
        },
        {
          "internalType": "uint256",
          "name": "_whiteListMaximum",
          "type": "uint256"
        }
      ],
      "stateMutability": "nonpayable",
      "type": "constructor"
    },
    {
      "anonymous": false,
      "inputs": [
        {
          "indexed": true,
          "internalType": "address",
          "name": "previousOwner",
          "type": "address"
        },
        {
          "indexed": true,
          "internalType": "address",
          "name": "newOwner",
          "type": "address"
        }
      ],
      "name": "OwnershipTransferred",
      "type": "event"
    },
    {
      "inputs": [],
      "name": "owner",
      "outputs": [
        {
          "internalType": "address",
          "name": "",
          "type": "address"
        }
      ],
      "stateMutability": "view",
      "type": "function"
    },
    {
      "inputs": [
        {
          "internalType": "uint256",
          "name": "",
          "type": "uint256"
        }
      ],
      "name": "participants",
      "outputs": [
        {
          "internalType": "address",
          "name": "",
          "type": "address"
        }
      ],
      "stateMutability": "view",
      "type": "function"
    },
    {
      "inputs": [],
      "name": "renounceOwnership",
      "outputs": [],
      "stateMutability": "nonpayable",
      "type": "function"
    },
    {
      "inputs": [
        {
          "internalType": "address",
          "name": "newOwner",
          "type": "address"
        }
      ],
      "name": "transferOwnership",
      "outputs": [],
      "stateMutability": "nonpayable",
      "type": "function"
    },
    {
      "inputs": [
        {
          "internalType": "uint256",
          "name": "",
          "type": "uint256"
        }
      ],
      "name": "whiteList",
      "outputs": [
        {
          "internalType": "address",
          "name": "",
          "type": "address"
        }
      ],
      "stateMutability": "view",
      "type": "function"
    },
    {
      "inputs": [
        {
          "internalType": "address",
          "name": "_nftContract",
          "type": "address"
        },
        {
          "internalType": "uint256",
          "name": "_drawMinimum",
          "type": "uint256"
        },
        {
          "internalType": "uint256",
          "name": "_entryMinimum",
          "type": "uint256"
        },
        {
          "internalType": "uint256",
          "name": "_whiteListMaximum",
          "type": "uint256"
        }
      ],
      "name": "initialize",
      "outputs": [],
      "stateMutability": "nonpayable",
      "type": "function"
    },
    {
      "inputs": [],
      "name": "draw",
      "outputs": [],
      "stateMutability": "nonpayable",
      "type": "function"
    },
    {
      "inputs": [],
      "name": "enter",
      "outputs": [],
      "stateMutability": "nonpayable",
      "type": "function"
    }
  ],
  "bytecode": "0x608060405260006003553480156200001657600080fd5b50604051620013243803806200132483398181016040528101906200003c91906200031a565b6200005c620000506200009560201b60201c565b6200009d60201b60201c565b62000070848484846200016160201b60201c565b6000600560006101000a81548160ff021916908315150217905550505050506200040f565b600033905090565b60008060009054906101000a900473ffffffffffffffffffffffffffffffffffffffff169050816000806101000a81548173ffffffffffffffffffffffffffffffffffffffff021916908373ffffffffffffffffffffffffffffffffffffffff1602179055508173ffffffffffffffffffffffffffffffffffffffff168173ffffffffffffffffffffffffffffffffffffffff167f8be0079c531659141344cd1fd0a4f28419497f9722a3daafe3b4186f6b6457e060405160405180910390a35050565b620001716200009560201b60201c565b73ffffffffffffffffffffffffffffffffffffffff16620001976200024c60201b60201c565b73ffffffffffffffffffffffffffffffffffffffff1614620001f0576040517f08c379a0000000000000000000000000000000000000000000000000000000008152600401620001e790620003ed565b60405180910390fd5b83600160006101000a81548173ffffffffffffffffffffffffffffffffffffffff021916908373ffffffffffffffffffffffffffffffffffffffff16021790555082600281905550816004819055508060068190555050505050565b60008060009054906101000a900473ffffffffffffffffffffffffffffffffffffffff16905090565b600080fd5b600073ffffffffffffffffffffffffffffffffffffffff82169050919050565b6000620002a7826200027a565b9050919050565b620002b9816200029a565b8114620002c557600080fd5b50565b600081519050620002d981620002ae565b92915050565b6000819050919050565b620002f481620002df565b81146200030057600080fd5b50565b6000815190506200031481620002e9565b92915050565b6000806000806080858703121562000337576200033662000275565b5b60006200034787828801620002c8565b94505060206200035a8782880162000303565b93505060406200036d8782880162000303565b9250506060620003808782880162000303565b91505092959194509250565b600082825260208201905092915050565b7f4f776e61626c653a2063616c6c6572206973206e6f7420746865206f776e6572600082015250565b6000620003d56020836200038c565b9150620003e2826200039d565b602082019050919050565b600060208201905081810360008301526200040881620003c6565b9050919050565b610f05806200041f6000396000f3fe608060405234801561001057600080fd5b50600436106100885760003560e01c8063715018a61161005b578063715018a6146101135780638da5cb5b1461011d578063e97dcb621461013b578063f2fde38b1461014557610088565b80630eecae211461008d57806335c1d349146100975780634ec81af1146100c75780635c475d42146100e3575b600080fd5b610095610161565b005b6100b160048036038101906100ac919061099d565b6104e5565b6040516100be9190610a0b565b60405180910390f35b6100e160048036038101906100dc9190610a52565b610518565b005b6100fd60048036038101906100f8919061099d565b6105f0565b60405161010a9190610a0b565b60405180910390f35b61011b610623565b005b6101256106ab565b6040516101329190610a0b565b60405180910390f35b6101436106d4565b005b61015f600480360381019061015a9190610ab9565b61079e565b005b610169610896565b73ffffffffffffffffffffffffffffffffffffffff166101876106ab565b73ffffffffffffffffffffffffffffffffffffffff16146101dd576040517f08c379a00000000000000000000000000000000000000000000000000000000081526004016101d490610b43565b60405180910390fd5b600560009054906101000a900460ff161561022d576040517f08c379a000000000000000000000000000000000000000000000000000000000815260040161022490610bd5565b60405180910390fd5b600060065490506003548111156102445760035490505b6000805b8281101561034a576002546007600083815260200190815260200160002060009054906101000a900473ffffffffffffffffffffffffffffffffffffffff1673ffffffffffffffffffffffffffffffffffffffff163110610337576007600082815260200190815260200160002060009054906101000a900473ffffffffffffffffffffffffffffffffffffffff166008600084815260200190815260200160002060006101000a81548173ffffffffffffffffffffffffffffffffffffffff021916908373ffffffffffffffffffffffffffffffffffffffff160217905550818061033390610c24565b9250505b808061034290610c24565b915050610248565b5060008167ffffffffffffffff81111561036757610366610c6d565b5b6040519080825280602002602001820160405280156103955781602001602082028036833780820191505090505b50905060005b82811015610437576008600082815260200190815260200160002060009054906101000a900473ffffffffffffffffffffffffffffffffffffffff168282815181106103ea576103e9610c9c565b5b602002602001019073ffffffffffffffffffffffffffffffffffffffff16908173ffffffffffffffffffffffffffffffffffffffff1681525050808061042f90610c24565b91505061039b565b50600160009054906101000a900473ffffffffffffffffffffffffffffffffffffffff1673ffffffffffffffffffffffffffffffffffffffff1663f18e33e1826040518263ffffffff1660e01b81526004016104939190610d89565b600060405180830381600087803b1580156104ad57600080fd5b505af11580156104c1573d6000803e3d6000fd5b505050506001600560006101000a81548160ff021916908315150217905550505050565b60076020528060005260406000206000915054906101000a900473ffffffffffffffffffffffffffffffffffffffff1681565b610520610896565b73ffffffffffffffffffffffffffffffffffffffff1661053e6106ab565b73ffffffffffffffffffffffffffffffffffffffff1614610594576040517f08c379a000000000000000000000000000000000000000000000000000000000815260040161058b90610b43565b60405180910390fd5b83600160006101000a81548173ffffffffffffffffffffffffffffffffffffffff021916908373ffffffffffffffffffffffffffffffffffffffff16021790555082600281905550816004819055508060068190555050505050565b60086020528060005260406000206000915054906101000a900473ffffffffffffffffffffffffffffffffffffffff1681565b61062b610896565b73ffffffffffffffffffffffffffffffffffffffff166106496106ab565b73ffffffffffffffffffffffffffffffffffffffff161461069f576040517f08c379a000000000000000000000000000000000000000000000000000000000815260040161069690610b43565b60405180910390fd5b6106a9600061089e565b565b60008060009054906101000a900473ffffffffffffffffffffffffffffffffffffffff16905090565b6004543373ffffffffffffffffffffffffffffffffffffffff16311015610730576040517f08c379a000000000000000000000000000000000000000000000000000000000815260040161072790610e1d565b60405180910390fd5b3360076000600354815260200190815260200160002060006101000a81548173ffffffffffffffffffffffffffffffffffffffff021916908373ffffffffffffffffffffffffffffffffffffffff1602179055506003600081548092919061079790610c24565b9190505550565b6107a6610896565b73ffffffffffffffffffffffffffffffffffffffff166107c46106ab565b73ffffffffffffffffffffffffffffffffffffffff161461081a576040517f08c379a000000000000000000000000000000000000000000000000000000000815260040161081190610b43565b60405180910390fd5b600073ffffffffffffffffffffffffffffffffffffffff168173ffffffffffffffffffffffffffffffffffffffff16141561088a576040517f08c379a000000000000000000000000000000000000000000000000000000000815260040161088190610eaf565b60405180910390fd5b6108938161089e565b50565b600033905090565b60008060009054906101000a900473ffffffffffffffffffffffffffffffffffffffff169050816000806101000a81548173ffffffffffffffffffffffffffffffffffffffff021916908373ffffffffffffffffffffffffffffffffffffffff1602179055508173ffffffffffffffffffffffffffffffffffffffff168173ffffffffffffffffffffffffffffffffffffffff167f8be0079c531659141344cd1fd0a4f28419497f9722a3daafe3b4186f6b6457e060405160405180910390a35050565b600080fd5b6000819050919050565b61097a81610967565b811461098557600080fd5b50565b60008135905061099781610971565b92915050565b6000602082840312156109b3576109b2610962565b5b60006109c184828501610988565b91505092915050565b600073ffffffffffffffffffffffffffffffffffffffff82169050919050565b60006109f5826109ca565b9050919050565b610a05816109ea565b82525050565b6000602082019050610a2060008301846109fc565b92915050565b610a2f816109ea565b8114610a3a57600080fd5b50565b600081359050610a4c81610a26565b92915050565b60008060008060808587031215610a6c57610a6b610962565b5b6000610a7a87828801610a3d565b9450506020610a8b87828801610988565b9350506040610a9c87828801610988565b9250506060610aad87828801610988565b91505092959194509250565b600060208284031215610acf57610ace610962565b5b6000610add84828501610a3d565b91505092915050565b600082825260208201905092915050565b7f4f776e61626c653a2063616c6c6572206973206e6f7420746865206f776e6572600082015250565b6000610b2d602083610ae6565b9150610b3882610af7565b602082019050919050565b60006020820190508181036000830152610b5c81610b20565b9050919050565b7f5468697320726166666c652068617320616c7265616479206265656e2064726160008201527f776e000000000000000000000000000000000000000000000000000000000000602082015250565b6000610bbf602283610ae6565b9150610bca82610b63565b604082019050919050565b60006020820190508181036000830152610bee81610bb2565b9050919050565b7f4e487b7100000000000000000000000000000000000000000000000000000000600052601160045260246000fd5b6000610c2f82610967565b91507fffffffffffffffffffffffffffffffffffffffffffffffffffffffffffffffff821415610c6257610c61610bf5565b5b600182019050919050565b7f4e487b7100000000000000000000000000000000000000000000000000000000600052604160045260246000fd5b7f4e487b7100000000000000000000000000000000000000000000000000000000600052603260045260246000fd5b600081519050919050565b600082825260208201905092915050565b6000819050602082019050919050565b610d00816109ea565b82525050565b6000610d128383610cf7565b60208301905092915050565b6000602082019050919050565b6000610d3682610ccb565b610d408185610cd6565b9350610d4b83610ce7565b8060005b83811015610d7c578151610d638882610d06565b9750610d6e83610d1e565b925050600181019050610d4f565b5085935050505092915050565b60006020820190508181036000830152610da38184610d2b565b905092915050565b7f596f75722062616c616e636520646f6573206e6f74206d65657420746865206d60008201527f696e696d756d20656e74727920726571756972656d656e740000000000000000602082015250565b6000610e07603883610ae6565b9150610e1282610dab565b604082019050919050565b60006020820190508181036000830152610e3681610dfa565b9050919050565b7f4f776e61626c653a206e6577206f776e657220697320746865207a65726f206160008201527f6464726573730000000000000000000000000000000000000000000000000000602082015250565b6000610e99602683610ae6565b9150610ea482610e3d565b604082019050919050565b60006020820190508181036000830152610ec881610e8c565b905091905056fea2646970667358221220f34c28a29931de3c8fbdee467be97769e94a528d8518c4485bf87b8b69af74f064736f6c634300080a0033",
  "immutableReferences": {},
  "source": "// SPDX-License-Identifier: MIT\npragma solidity ^0.8.2;\n\nimport \"@openzeppelin/contracts/access/Ownable.sol\";\nimport \"./IArtist.sol\";\n\ncontract Raffle is Ownable {\n  IArtist nftContract;\n  uint drawMinimum;\n  uint entryCount = 0;\n  uint entryMinimum;\n  bool isDrawn;\n  uint whiteListMaximum;\n\n  mapping (uint => address) public participants;\n  mapping (uint => address) public whiteList;\n\n  constructor(\n    address _nftContract,\n    uint _drawMinimum,\n    uint _entryMinimum,\n    uint _whiteListMaximum\n  ) {\n    initialize(_nftContract, _drawMinimum, _entryMinimum, _whiteListMaximum);\n    isDrawn = false;\n  }\n\n  function initialize(\n    address _nftContract,\n    uint _drawMinimum,\n    uint _entryMinimum,\n    uint _whiteListMaximum\n  ) \n  public onlyOwner \n  {\n    nftContract = IArtist(_nftContract);\n    drawMinimum = _drawMinimum;\n    entryMinimum = _entryMinimum;\n    whiteListMaximum = _whiteListMaximum;\n  }\n\n  function draw() external onlyOwner {\n    require(!isDrawn, \"This raffle has already been drawn\");\n\n    uint count = whiteListMaximum;\n    if (count > entryCount) {\n      count = entryCount;\n    }\n\n    uint y = 0;\n    for (uint x = 0; x < count; x++) {\n      if (participants[x].balance >= drawMinimum) {\n        whiteList[y] = participants[x];\n        y++;\n      }\n    }\n    \n    address[] memory wl = new address[](y);\n    for (uint x = 0; x < y; x++) {\n      wl[x] = whiteList[x];\n    }\n\n    nftContract.addMinter(wl);\n\n    isDrawn = true;\n  }\n\n  function enter() external \n  {\n    require(msg.sender.balance >= entryMinimum, \"Your balance does not meet the minimum entry requirement\");\n    participants[entryCount] = msg.sender;\n    entryCount++;\n  }\n}\n",
  "sourcePath": "/Users/warrenschwartz/Projects/ColdBehaviour/contracts/contracts/Raffle.sol",
  "compiler": {
    "name": "solc",
    "version": "0.8.10+commit.fc410830.Emscripten.clang"
  },
  "schemaVersion": "3.4.3",
  "updatedAt": "2022-01-21T14:32:13.082Z",
  "devdoc": {
    "kind": "dev",
    "methods": {
      "owner()": {
        "details": "Returns the address of the current owner."
      },
      "renounceOwnership()": {
        "details": "Leaves the contract without owner. It will not be possible to call `onlyOwner` functions anymore. Can only be called by the current owner. NOTE: Renouncing ownership will leave the contract without an owner, thereby removing any functionality that is only available to the owner."
      },
      "transferOwnership(address)": {
        "details": "Transfers ownership of the contract to a new account (`newOwner`). Can only be called by the current owner."
      }
    },
    "version": 1
  },
  "userdoc": {
    "kind": "user",
    "methods": {},
    "version": 1
  }
}