{
  "contractName": "Traits",
  "abi": [
    {
      "inputs": [
        {
          "internalType": "uint16",
          "name": "_dimensions",
          "type": "uint16"
        }
      ],
      "stateMutability": "nonpayable",
      "type": "constructor"
    },
    {
      "anonymous": false,
      "inputs": [
        {
          "indexed": true,
          "internalType": "address",
          "name": "previousOwner",
          "type": "address"
        },
        {
          "indexed": true,
          "internalType": "address",
          "name": "newOwner",
          "type": "address"
        }
      ],
      "name": "OwnershipTransferred",
      "type": "event"
    },
    {
      "inputs": [],
      "name": "artist",
      "outputs": [
        {
          "internalType": "contract IArtist",
          "name": "",
          "type": "address"
        }
      ],
      "stateMutability": "view",
      "type": "function"
    },
    {
      "inputs": [],
      "name": "owner",
      "outputs": [
        {
          "internalType": "address",
          "name": "",
          "type": "address"
        }
      ],
      "stateMutability": "view",
      "type": "function"
    },
    {
      "inputs": [],
      "name": "renounceOwnership",
      "outputs": [],
      "stateMutability": "nonpayable",
      "type": "function"
    },
    {
      "inputs": [
        {
          "internalType": "uint8",
          "name": "",
          "type": "uint8"
        },
        {
          "internalType": "uint8",
          "name": "",
          "type": "uint8"
        }
      ],
      "name": "traitData",
      "outputs": [
        {
          "internalType": "string",
          "name": "name",
          "type": "string"
        },
        {
          "internalType": "string",
          "name": "png",
          "type": "string"
        }
      ],
      "stateMutability": "view",
      "type": "function"
    },
    {
      "inputs": [
        {
          "internalType": "address",
          "name": "newOwner",
          "type": "address"
        }
      ],
      "name": "transferOwnership",
      "outputs": [],
      "stateMutability": "nonpayable",
      "type": "function"
    },
    {
      "inputs": [
        {
          "internalType": "uint8",
          "name": "traitType",
          "type": "uint8"
        },
        {
          "internalType": "uint8[]",
          "name": "traitIds",
          "type": "uint8[]"
        },
        {
          "components": [
            {
              "internalType": "string",
              "name": "name",
              "type": "string"
            },
            {
              "internalType": "string",
              "name": "png",
              "type": "string"
            }
          ],
          "internalType": "struct Traits.Trait[]",
          "name": "traits",
          "type": "tuple[]"
        }
      ],
      "name": "uploadTraits",
      "outputs": [],
      "stateMutability": "nonpayable",
      "type": "function"
    },
    {
      "inputs": [
        {
          "internalType": "uint256",
          "name": "tokenId",
          "type": "uint256"
        }
      ],
      "name": "drawSVG",
      "outputs": [
        {
          "internalType": "string",
          "name": "",
          "type": "string"
        }
      ],
      "stateMutability": "view",
      "type": "function"
    },
    {
      "inputs": [
        {
          "internalType": "uint256",
          "name": "tokenId",
          "type": "uint256"
        }
      ],
      "name": "tokenURI",
      "outputs": [
        {
          "internalType": "string",
          "name": "",
          "type": "string"
        }
      ],
      "stateMutability": "view",
      "type": "function"
    }
  ],
  "bytecode": "0x60806040526040518061014001604052806040518060400160405280600a81526020017f6261636b67726f756e640000000000000000000000000000000000000000000081525081526020016040518060400160405280600481526020017f736b696e0000000000000000000000000000000000000000000000000000000081525081526020016040518060400160405280600481526020017f6e65636b0000000000000000000000000000000000000000000000000000000081525081526020016040518060400160405280600481526020017f686561640000000000000000000000000000000000000000000000000000000081525081526020016040518060400160405280600581526020017f6d6f75746800000000000000000000000000000000000000000000000000000081525081526020016040518060400160405280600581526020017f626561726400000000000000000000000000000000000000000000000000000081525081526020016040518060400160405280600481526020017f657965730000000000000000000000000000000000000000000000000000000081525081526020016040518060400160405280600781526020017f636c6f746865730000000000000000000000000000000000000000000000000081525081526020016040518060400160405280600881526020017f65617272696e677300000000000000000000000000000000000000000000000081525081526020016040518060400160405280600781526020017f676c617373657300000000000000000000000000000000000000000000000000815250815250600290600a6200026e929190620003fe565b503480156200027c57600080fd5b5060405162003081380380620030818339818101604052810190620002a29190620005ba565b620002c2620002b66200033260201b60201c565b6200033a60201b60201c565b620100008161ffff16106200030e576040517f08c379a0000000000000000000000000000000000000000000000000000000008152600401620003059062000673565b60405180910390fd5b80600160146101000a81548161ffff021916908361ffff16021790555050620006fa565b600033905090565b60008060009054906101000a900473ffffffffffffffffffffffffffffffffffffffff169050816000806101000a81548173ffffffffffffffffffffffffffffffffffffffff021916908373ffffffffffffffffffffffffffffffffffffffff1602179055508173ffffffffffffffffffffffffffffffffffffffff168173ffffffffffffffffffffffffffffffffffffffff167f8be0079c531659141344cd1fd0a4f28419497f9722a3daafe3b4186f6b6457e060405160405180910390a35050565b82600a810192821562000445579160200282015b82811115620004445782518290805190602001906200043392919062000458565b509160200191906001019062000412565b5b509050620004549190620004e9565b5090565b8280546200046690620006c4565b90600052602060002090601f0160209004810192826200048a5760008555620004d6565b82601f10620004a557805160ff1916838001178555620004d6565b82800160010185558215620004d6579182015b82811115620004d5578251825591602001919060010190620004b8565b5b509050620004e5919062000511565b5090565b5b808211156200050d576000818162000503919062000530565b50600101620004ea565b5090565b5b808211156200052c57600081600090555060010162000512565b5090565b5080546200053e90620006c4565b6000825580601f1062000552575062000573565b601f01602090049060005260206000209081019062000572919062000511565b5b50565b600080fd5b600061ffff82169050919050565b62000594816200057b565b8114620005a057600080fd5b50565b600081519050620005b48162000589565b92915050565b600060208284031215620005d357620005d262000576565b5b6000620005e384828501620005a3565b91505092915050565b600082825260208201905092915050565b7f4e756d62657220697320746f6f206c6172676520616e642077696c6c2063617560008201527f736520616e206f766572666c6f7720657863657074696f6e0000000000000000602082015250565b60006200065b603883620005ec565b91506200066882620005fd565b604082019050919050565b600060208201905081810360008301526200068e816200064c565b9050919050565b7f4e487b7100000000000000000000000000000000000000000000000000000000600052602260045260246000fd5b60006002820490506001821680620006dd57607f821691505b60208210811415620006f457620006f362000695565b5b50919050565b612977806200070a6000396000f3fe608060405234801561001057600080fd5b50600436106100885760003560e01c80639bf2ee351161005b5780639bf2ee3514610103578063c87b56dd14610134578063d93ae3d914610164578063f2fde38b1461018057610088565b806343bc16121461008d578063715018a6146100ab5780637abecb86146100b55780638da5cb5b146100e5575b600080fd5b61009561019c565b6040516100a29190611a3c565b60405180910390f35b6100b36101c2565b005b6100cf60048036038101906100ca9190611aa1565b61024a565b6040516100dc9190611b67565b60405180910390f35b6100ed611199565b6040516100fa9190611baa565b60405180910390f35b61011d60048036038101906101189190611bfe565b6111c2565b60405161012b929190611c3e565b60405180910390f35b61014e60048036038101906101499190611aa1565b611303565b60405161015b9190611b67565b60405180910390f35b61017e60048036038101906101799190611d30565b61130a565b005b61019a60048036038101906101959190611df1565b61158c565b005b600160009054906101000a900473ffffffffffffffffffffffffffffffffffffffff1681565b6101ca611684565b73ffffffffffffffffffffffffffffffffffffffff166101e8611199565b73ffffffffffffffffffffffffffffffffffffffff161461023e576040517f08c379a000000000000000000000000000000000000000000000000000000000815260040161023590611e6a565b60405180910390fd5b610248600061168c565b565b60606000600160009054906101000a900473ffffffffffffffffffffffffffffffffffffffff1673ffffffffffffffffffffffffffffffffffffffff166394e56847846040518263ffffffff1660e01b81526004016102a99190611e99565b61014060405180830381865afa1580156102c7573d6000803e3d6000fd5b505050506040513d601f19601f820116820180604052508101906102eb919061203f565b90506000610457600c60008060ff1681526020019081526020016000206000846000015160ff1660ff16815260200190815260200160002060405180604001604052908160008201805461033e9061209c565b80601f016020809104026020016040519081016040528092919081815260200182805461036a9061209c565b80156103b75780601f1061038c576101008083540402835291602001916103b7565b820191906000526020600020905b81548152906001019060200180831161039a57829003601f168201915b505050505081526020016001820180546103d09061209c565b80601f01602080910402602001604051908101604052809291908181526020018280546103fc9061209c565b80156104495780601f1061041e57610100808354040283529160200191610449565b820191906000526020600020905b81548152906001019060200180831161042c57829003601f168201915b505050505081525050611750565b6105c0600c6000600160ff1681526020019081526020016000206000856020015160ff1660ff1681526020019081526020016000206040518060400160405290816000820180546104a79061209c565b80601f01602080910402602001604051908101604052809291908181526020018280546104d39061209c565b80156105205780601f106104f557610100808354040283529160200191610520565b820191906000526020600020905b81548152906001019060200180831161050357829003601f168201915b505050505081526020016001820180546105399061209c565b80601f01602080910402602001604051908101604052809291908181526020018280546105659061209c565b80156105b25780601f10610587576101008083540402835291602001916105b2565b820191906000526020600020905b81548152906001019060200180831161059557829003601f168201915b505050505081525050611750565b610729600c6000600260ff1681526020019081526020016000206000866040015160ff1660ff1681526020019081526020016000206040518060400160405290816000820180546106109061209c565b80601f016020809104026020016040519081016040528092919081815260200182805461063c9061209c565b80156106895780601f1061065e57610100808354040283529160200191610689565b820191906000526020600020905b81548152906001019060200180831161066c57829003601f168201915b505050505081526020016001820180546106a29061209c565b80601f01602080910402602001604051908101604052809291908181526020018280546106ce9061209c565b801561071b5780601f106106f05761010080835404028352916020019161071b565b820191906000526020600020905b8154815290600101906020018083116106fe57829003601f168201915b505050505081525050611750565b610892600c6000600360ff1681526020019081526020016000206000876060015160ff1660ff1681526020019081526020016000206040518060400160405290816000820180546107799061209c565b80601f01602080910402602001604051908101604052809291908181526020018280546107a59061209c565b80156107f25780601f106107c7576101008083540402835291602001916107f2565b820191906000526020600020905b8154815290600101906020018083116107d557829003601f168201915b5050505050815260200160018201805461080b9061209c565b80601f01602080910402602001604051908101604052809291908181526020018280546108379061209c565b80156108845780601f1061085957610100808354040283529160200191610884565b820191906000526020600020905b81548152906001019060200180831161086757829003601f168201915b505050505081525050611750565b6109fb600c6000600460ff1681526020019081526020016000206000886080015160ff1660ff1681526020019081526020016000206040518060400160405290816000820180546108e29061209c565b80601f016020809104026020016040519081016040528092919081815260200182805461090e9061209c565b801561095b5780601f106109305761010080835404028352916020019161095b565b820191906000526020600020905b81548152906001019060200180831161093e57829003601f168201915b505050505081526020016001820180546109749061209c565b80601f01602080910402602001604051908101604052809291908181526020018280546109a09061209c565b80156109ed5780601f106109c2576101008083540402835291602001916109ed565b820191906000526020600020905b8154815290600101906020018083116109d057829003601f168201915b505050505081525050611750565b610b64600c6000600560ff16815260200190815260200160002060008960a0015160ff1660ff168152602001908152602001600020604051806040016040529081600082018054610a4b9061209c565b80601f0160208091040260200160405190810160405280929190818152602001828054610a779061209c565b8015610ac45780601f10610a9957610100808354040283529160200191610ac4565b820191906000526020600020905b815481529060010190602001808311610aa757829003601f168201915b50505050508152602001600182018054610add9061209c565b80601f0160208091040260200160405190810160405280929190818152602001828054610b099061209c565b8015610b565780601f10610b2b57610100808354040283529160200191610b56565b820191906000526020600020905b815481529060010190602001808311610b3957829003601f168201915b505050505081525050611750565b610ccd600c6000600660ff16815260200190815260200160002060008a60c0015160ff1660ff168152602001908152602001600020604051806040016040529081600082018054610bb49061209c565b80601f0160208091040260200160405190810160405280929190818152602001828054610be09061209c565b8015610c2d5780601f10610c0257610100808354040283529160200191610c2d565b820191906000526020600020905b815481529060010190602001808311610c1057829003601f168201915b50505050508152602001600182018054610c469061209c565b80601f0160208091040260200160405190810160405280929190818152602001828054610c729061209c565b8015610cbf5780601f10610c9457610100808354040283529160200191610cbf565b820191906000526020600020905b815481529060010190602001808311610ca257829003601f168201915b505050505081525050611750565b610e36600c6000600760ff16815260200190815260200160002060008b60e0015160ff1660ff168152602001908152602001600020604051806040016040529081600082018054610d1d9061209c565b80601f0160208091040260200160405190810160405280929190818152602001828054610d499061209c565b8015610d965780601f10610d6b57610100808354040283529160200191610d96565b820191906000526020600020905b815481529060010190602001808311610d7957829003601f168201915b50505050508152602001600182018054610daf9061209c565b80601f0160208091040260200160405190810160405280929190818152602001828054610ddb9061209c565b8015610e285780601f10610dfd57610100808354040283529160200191610e28565b820191906000526020600020905b815481529060010190602001808311610e0b57829003601f168201915b505050505081525050611750565b610fa0600c6000600860ff16815260200190815260200160002060008c610100015160ff1660ff168152602001908152602001600020604051806040016040529081600082018054610e879061209c565b80601f0160208091040260200160405190810160405280929190818152602001828054610eb39061209c565b8015610f005780601f10610ed557610100808354040283529160200191610f00565b820191906000526020600020905b815481529060010190602001808311610ee357829003601f168201915b50505050508152602001600182018054610f199061209c565b80601f0160208091040260200160405190810160405280929190818152602001828054610f459061209c565b8015610f925780601f10610f6757610100808354040283529160200191610f92565b820191906000526020600020905b815481529060010190602001808311610f7557829003601f168201915b505050505081525050611750565b61110a600c6000600960ff16815260200190815260200160002060008d610120015160ff1660ff168152602001908152602001600020604051806040016040529081600082018054610ff19061209c565b80601f016020809104026020016040519081016040528092919081815260200182805461101d9061209c565b801561106a5780601f1061103f5761010080835404028352916020019161106a565b820191906000526020600020905b81548152906001019060200180831161104d57829003601f168201915b505050505081526020016001820180546110839061209c565b80601f01602080910402602001604051908101604052809291908181526020018280546110af9061209c565b80156110fc5780601f106110d1576101008083540402835291602001916110fc565b820191906000526020600020905b8154815290600101906020018083116110df57829003601f168201915b505050505081525050611750565b6040516020016111239a9998979695949392919061210a565b6040516020818303038152906040529050611151600160149054906101000a900461ffff1661ffff166117b9565b61116e600160149054906101000a900461ffff1661ffff166117b9565b826040516020016111819392919061235e565b60405160208183030381529060405292505050919050565b60008060009054906101000a900473ffffffffffffffffffffffffffffffffffffffff16905090565b600c602052816000526040600020602052806000526040600020600091509150508060000180546111f29061209c565b80601f016020809104026020016040519081016040528092919081815260200182805461121e9061209c565b801561126b5780601f106112405761010080835404028352916020019161126b565b820191906000526020600020905b81548152906001019060200180831161124e57829003601f168201915b5050505050908060010180546112809061209c565b80601f01602080910402602001604051908101604052809291908181526020018280546112ac9061209c565b80156112f95780601f106112ce576101008083540402835291602001916112f9565b820191906000526020600020905b8154815290600101906020018083116112dc57829003601f168201915b5050505050905082565b6060919050565b611312611684565b73ffffffffffffffffffffffffffffffffffffffff16611330611199565b73ffffffffffffffffffffffffffffffffffffffff1614611386576040517f08c379a000000000000000000000000000000000000000000000000000000000815260040161137d90611e6a565b60405180910390fd5b8181905084849050146113ce576040517f08c379a00000000000000000000000000000000000000000000000000000000081526004016113c59061242d565b60405180910390fd5b60005b828290508110156115845760405180604001604052808484848181106113fa576113f961244d565b5b905060200281019061140c919061248b565b806000019061141b91906124b3565b8080601f016020809104026020016040519081016040528093929190818152602001838380828437600081840152601f19601f8201169050808301925050505050505081526020018484848181106114765761147561244d565b5b9050602002810190611488919061248b565b806020019061149791906124b3565b8080601f016020809104026020016040519081016040528093929190818152602001838380828437600081840152601f19601f82011690508083019250505050505050815250600c60008860ff1660ff168152602001908152602001600020600087878581811061150b5761150a61244d565b5b90506020020160208101906115209190612516565b60ff1660ff168152602001908152602001600020600082015181600001908051906020019061155092919061191a565b50602082015181600101908051906020019061156d92919061191a565b50905050808061157c90612572565b9150506113d1565b505050505050565b611594611684565b73ffffffffffffffffffffffffffffffffffffffff166115b2611199565b73ffffffffffffffffffffffffffffffffffffffff1614611608576040517f08c379a00000000000000000000000000000000000000000000000000000000081526004016115ff90611e6a565b60405180910390fd5b600073ffffffffffffffffffffffffffffffffffffffff168173ffffffffffffffffffffffffffffffffffffffff161415611678576040517f08c379a000000000000000000000000000000000000000000000000000000000815260040161166f9061262d565b60405180910390fd5b6116818161168c565b50565b600033905090565b60008060009054906101000a900473ffffffffffffffffffffffffffffffffffffffff169050816000806101000a81548173ffffffffffffffffffffffffffffffffffffffff021916908373ffffffffffffffffffffffffffffffffffffffff1602179055508173ffffffffffffffffffffffffffffffffffffffff168173ffffffffffffffffffffffffffffffffffffffff167f8be0079c531659141344cd1fd0a4f28419497f9722a3daafe3b4186f6b6457e060405160405180910390a35050565b606061176f600160149054906101000a900461ffff1661ffff166117b9565b61178c600160149054906101000a900461ffff1661ffff166117b9565b83602001516040516020016117a3939291906127c9565b6040516020818303038152906040529050919050565b60606000821415611801576040518060400160405280600181526020017f30000000000000000000000000000000000000000000000000000000000000008152509050611915565b600082905060005b6000821461183357808061181c90612572565b915050600a8261182c9190612855565b9150611809565b60008167ffffffffffffffff81111561184f5761184e611eb9565b5b6040519080825280601f01601f1916602001820160405280156118815781602001600182028036833780820191505090505b5090505b6000851461190e5760018261189a9190612886565b9150600a856118a991906128ba565b60306118b591906128eb565b60f81b8183815181106118cb576118ca61244d565b5b60200101907effffffffffffffffffffffffffffffffffffffffffffffffffffffffffffff1916908160001a905350600a856119079190612855565b9450611885565b8093505050505b919050565b8280546119269061209c565b90600052602060002090601f016020900481019282611948576000855561198f565b82601f1061196157805160ff191683800117855561198f565b8280016001018555821561198f579182015b8281111561198e578251825591602001919060010190611973565b5b50905061199c91906119a0565b5090565b5b808211156119b95760008160009055506001016119a1565b5090565b600073ffffffffffffffffffffffffffffffffffffffff82169050919050565b6000819050919050565b6000611a026119fd6119f8846119bd565b6119dd565b6119bd565b9050919050565b6000611a14826119e7565b9050919050565b6000611a2682611a09565b9050919050565b611a3681611a1b565b82525050565b6000602082019050611a516000830184611a2d565b92915050565b6000604051905090565b600080fd5b600080fd5b6000819050919050565b611a7e81611a6b565b8114611a8957600080fd5b50565b600081359050611a9b81611a75565b92915050565b600060208284031215611ab757611ab6611a61565b5b6000611ac584828501611a8c565b91505092915050565b600081519050919050565b600082825260208201905092915050565b60005b83811015611b08578082015181840152602081019050611aed565b83811115611b17576000848401525b50505050565b6000601f19601f8301169050919050565b6000611b3982611ace565b611b438185611ad9565b9350611b53818560208601611aea565b611b5c81611b1d565b840191505092915050565b60006020820190508181036000830152611b818184611b2e565b905092915050565b6000611b94826119bd565b9050919050565b611ba481611b89565b82525050565b6000602082019050611bbf6000830184611b9b565b92915050565b600060ff82169050919050565b611bdb81611bc5565b8114611be657600080fd5b50565b600081359050611bf881611bd2565b92915050565b60008060408385031215611c1557611c14611a61565b5b6000611c2385828601611be9565b9250506020611c3485828601611be9565b9150509250929050565b60006040820190508181036000830152611c588185611b2e565b90508181036020830152611c6c8184611b2e565b90509392505050565b600080fd5b600080fd5b600080fd5b60008083601f840112611c9a57611c99611c75565b5b8235905067ffffffffffffffff811115611cb757611cb6611c7a565b5b602083019150836020820283011115611cd357611cd2611c7f565b5b9250929050565b60008083601f840112611cf057611cef611c75565b5b8235905067ffffffffffffffff811115611d0d57611d0c611c7a565b5b602083019150836020820283011115611d2957611d28611c7f565b5b9250929050565b600080600080600060608688031215611d4c57611d4b611a61565b5b6000611d5a88828901611be9565b955050602086013567ffffffffffffffff811115611d7b57611d7a611a66565b5b611d8788828901611c84565b9450945050604086013567ffffffffffffffff811115611daa57611da9611a66565b5b611db688828901611cda565b92509250509295509295909350565b611dce81611b89565b8114611dd957600080fd5b50565b600081359050611deb81611dc5565b92915050565b600060208284031215611e0757611e06611a61565b5b6000611e1584828501611ddc565b91505092915050565b7f4f776e61626c653a2063616c6c6572206973206e6f7420746865206f776e6572600082015250565b6000611e54602083611ad9565b9150611e5f82611e1e565b602082019050919050565b60006020820190508181036000830152611e8381611e47565b9050919050565b611e9381611a6b565b82525050565b6000602082019050611eae6000830184611e8a565b92915050565b600080fd5b7f4e487b7100000000000000000000000000000000000000000000000000000000600052604160045260246000fd5b611ef182611b1d565b810181811067ffffffffffffffff82111715611f1057611f0f611eb9565b5b80604052505050565b6000611f23611a57565b9050611f2f8282611ee8565b919050565b600081519050611f4381611bd2565b92915050565b60006101408284031215611f6057611f5f611eb4565b5b611f6b610140611f19565b90506000611f7b84828501611f34565b6000830152506020611f8f84828501611f34565b6020830152506040611fa384828501611f34565b6040830152506060611fb784828501611f34565b6060830152506080611fcb84828501611f34565b60808301525060a0611fdf84828501611f34565b60a08301525060c0611ff384828501611f34565b60c08301525060e061200784828501611f34565b60e08301525061010061201c84828501611f34565b6101008301525061012061203284828501611f34565b6101208301525092915050565b6000610140828403121561205657612055611a61565b5b600061206484828501611f49565b91505092915050565b7f4e487b7100000000000000000000000000000000000000000000000000000000600052602260045260246000fd5b600060028204905060018216806120b457607f821691505b602082108114156120c8576120c761206d565b5b50919050565b600081905092915050565b60006120e482611ace565b6120ee81856120ce565b93506120fe818560208601611aea565b80840191505092915050565b6000612116828d6120d9565b9150612122828c6120d9565b915061212e828b6120d9565b915061213a828a6120d9565b915061214682896120d9565b915061215282886120d9565b915061215e82876120d9565b915061216a82866120d9565b915061217682856120d9565b915061218282846120d9565b91508190509b9a5050505050505050505050565b7f3c7376672069643d22776f6f6c66222077696474683d2231303025222068656960008201527f6768743d2231303025222076657273696f6e3d22312e31222076696577426f7860208201527f3d22302030200000000000000000000000000000000000000000000000000000604082015250565b60006122186046836120ce565b915061222382612196565b604682019050919050565b7f2000000000000000000000000000000000000000000000000000000000000000600082015250565b60006122646001836120ce565b915061226f8261222e565b600182019050919050565b7f2220786d6c6e733d22687474703a2f2f7777772e77332e6f72672f323030302f60008201527f7376672220786d6c6e733a786c696e6b3d22687474703a2f2f7777772e77332e60208201527f6f72672f313939392f786c696e6b223e00000000000000000000000000000000604082015250565b60006122fc6050836120ce565b91506123078261227a565b605082019050919050565b7f3c2f7376673e0000000000000000000000000000000000000000000000000000600082015250565b60006123486006836120ce565b915061235382612312565b600682019050919050565b60006123698261220b565b915061237582866120d9565b915061238082612257565b915061238c82856120d9565b9150612397826122ef565b91506123a382846120d9565b91506123ae8261233b565b9150819050949350505050565b7f4964732073686f756c64206d6174636820746865206e756d626572206f66207460008201527f7261697473000000000000000000000000000000000000000000000000000000602082015250565b6000612417602583611ad9565b9150612422826123bb565b604082019050919050565b600060208201905081810360008301526124468161240a565b9050919050565b7f4e487b7100000000000000000000000000000000000000000000000000000000600052603260045260246000fd5b600080fd5b600080fd5b600080fd5b6000823560016040038336030381126124a7576124a661247c565b5b80830191505092915050565b600080833560016020038436030381126124d0576124cf61247c565b5b80840192508235915067ffffffffffffffff8211156124f2576124f1612481565b5b60208301925060018202360383131561250e5761250d612486565b5b509250929050565b60006020828403121561252c5761252b611a61565b5b600061253a84828501611be9565b91505092915050565b7f4e487b7100000000000000000000000000000000000000000000000000000000600052601160045260246000fd5b600061257d82611a6b565b91507fffffffffffffffffffffffffffffffffffffffffffffffffffffffffffffffff8214156125b0576125af612543565b5b600182019050919050565b7f4f776e61626c653a206e6577206f776e657220697320746865207a65726f206160008201527f6464726573730000000000000000000000000000000000000000000000000000602082015250565b6000612617602683611ad9565b9150612622826125bb565b604082019050919050565b600060208201905081810360008301526126468161260a565b9050919050565b7f3c696d61676520783d22302220793d2230222077696474683d22000000000000600082015250565b6000612683601a836120ce565b915061268e8261264d565b601a82019050919050565b7f22206865696768743d2200000000000000000000000000000000000000000000600082015250565b60006126cf600a836120ce565b91506126da82612699565b600a82019050919050565b7f2220696d6167652d72656e646572696e673d22706978656c617465642220707260008201527f657365727665417370656374526174696f3d22784d6964794d69642220786c6960208201527f6e6b3a687265663d22646174613a696d6167652f706e673b6261736536342c00604082015250565b6000612767605f836120ce565b9150612772826126e5565b605f82019050919050565b7f22202f3e00000000000000000000000000000000000000000000000000000000600082015250565b60006127b36004836120ce565b91506127be8261277d565b600482019050919050565b60006127d482612676565b91506127e082866120d9565b91506127eb826126c2565b91506127f782856120d9565b91506128028261275a565b915061280e82846120d9565b9150612819826127a6565b9150819050949350505050565b7f4e487b7100000000000000000000000000000000000000000000000000000000600052601260045260246000fd5b600061286082611a6b565b915061286b83611a6b565b92508261287b5761287a612826565b5b828204905092915050565b600061289182611a6b565b915061289c83611a6b565b9250828210156128af576128ae612543565b5b828203905092915050565b60006128c582611a6b565b91506128d083611a6b565b9250826128e0576128df612826565b5b828206905092915050565b60006128f682611a6b565b915061290183611a6b565b9250827fffffffffffffffffffffffffffffffffffffffffffffffffffffffffffffffff0382111561293657612935612543565b5b82820190509291505056fea2646970667358221220e35a3f9484e01c95cd70a83e46177ed4af6010aeda97502733d85dc471ab418664736f6c634300080a0033",
  "immutableReferences": {},
  "source": "// SPDX-License-Identifier: MIT\npragma solidity ^0.8.2;\n\nimport \"@openzeppelin/contracts/access/Ownable.sol\";\nimport \"@openzeppelin/contracts/utils/Strings.sol\";\nimport \"./IArtist.sol\";\nimport \"./ITraits.sol\";\n\ncontract Traits is ITraits, Ownable {\n  using Strings for uint256;\n\n  struct Trait {\n    string name;\n    string png;\n  }\n\n  IArtist public artist;\n  uint16 dimensions;\n\n  constructor(uint16 _dimensions) {\n    require(_dimensions < 65536, \"Number is too large and will cause an overflow exception\");\n    dimensions = _dimensions;\n  }\n\n  string[10] _traitTypes = [\n    \"background\",\n    \"skin\",\n    \"neck\",\n    \"head\",\n    \"mouth\",\n    \"beard\",\n    \"eyes\",\n    \"clothes\",\n    \"earrings\",\n    \"glasses\"\n  ];\n\n  mapping(uint8 => mapping(uint8 => Trait)) public traitData;\n\n  /* contract owner to upload names and images of each trait as base64 encoded PNGs */\n  function uploadTraits(uint8 traitType, uint8[] calldata traitIds, Trait[] calldata traits) external onlyOwner {\n    require(traitIds.length == traits.length, \"Ids should match the number of traits\");\n    for (uint x = 0; x < traits.length; x++) {\n      traitData[traitType][traitIds[x]] = Trait(\n        traits[x].name,\n        traits[x].png\n      );\n    }\n  }\n\n  /* generates a data uri for the source of an image element */\n  function drawTrait(Trait memory trait) internal view returns (string memory) {\n    return string(abi.encodePacked(\n      '<image x=\"0\" y=\"0\" width=\"',\n      Strings.toString(dimensions),\n      '\" height=\"',\n      Strings.toString(dimensions),\n      '\" image-rendering=\"pixelated\" preserveAspectRatio=\"xMidyMid\" xlink:href=\"data:image/png;base64,', \n      trait.png,\n      '\" />'  \n    ));\n  }\n\n  /* generates a SVG file from the layered PNGs */\n  function drawSVG(uint256 tokenId) public view returns (string memory) {\n    IArtist.Person memory a = artist.getTokenTraits(tokenId);\n    string memory svgString = string(abi.encodePacked(\n      drawTrait(traitData[0][a.background]),\n      drawTrait(traitData[1][a.skin]),\n      drawTrait(traitData[2][a.neck]),\n      drawTrait(traitData[3][a.head]),\n      drawTrait(traitData[4][a.mouth]),\n      drawTrait(traitData[5][a.beard]),\n      drawTrait(traitData[6][a.eyes]),\n      drawTrait(traitData[7][a.clothes]),\n      drawTrait(traitData[8][a.earrings]),\n      drawTrait(traitData[9][a.glasses])\n    ));\n\n    return string(abi.encodePacked(\n      '<svg id=\"woolf\" width=\"100%\" height=\"100%\" version=\"1.1\" viewBox=\"0 0 ',\n      Strings.toString(dimensions),\n      ' ',\n      Strings.toString(dimensions),\n      '\" xmlns=\"http://www.w3.org/2000/svg\" xmlns:xlink=\"http://www.w3.org/1999/xlink\">',\n      svgString,\n      \"</svg>\"\n    ));\n  }\n\n  function tokenURI(uint256 tokenId) public view override returns (string memory) {\n\n  }\n}\n",
  "sourcePath": "/Users/warrenschwartz/Projects/ColdBehaviour/contracts/contracts/Traits.sol",
  "compiler": {
    "name": "solc",
    "version": "0.8.10+commit.fc410830.Emscripten.clang"
  },
  "schemaVersion": "3.4.3",
  "updatedAt": "2022-01-19T12:39:53.001Z",
  "devdoc": {
    "kind": "dev",
    "methods": {
      "owner()": {
        "details": "Returns the address of the current owner."
      },
      "renounceOwnership()": {
        "details": "Leaves the contract without owner. It will not be possible to call `onlyOwner` functions anymore. Can only be called by the current owner. NOTE: Renouncing ownership will leave the contract without an owner, thereby removing any functionality that is only available to the owner."
      },
      "transferOwnership(address)": {
        "details": "Transfers ownership of the contract to a new account (`newOwner`). Can only be called by the current owner."
      }
    },
    "version": 1
  },
  "userdoc": {
    "kind": "user",
    "methods": {},
    "version": 1
  }
}