{
  "contractName": "Traits",
  "abi": [
    {
      "inputs": [],
      "stateMutability": "nonpayable",
      "type": "constructor"
    },
    {
      "anonymous": false,
      "inputs": [
        {
          "indexed": true,
          "internalType": "address",
          "name": "previousOwner",
          "type": "address"
        },
        {
          "indexed": true,
          "internalType": "address",
          "name": "newOwner",
          "type": "address"
        }
      ],
      "name": "OwnershipTransferred",
      "type": "event"
    },
    {
      "inputs": [],
      "name": "artist",
      "outputs": [
        {
          "internalType": "contract IArtist",
          "name": "",
          "type": "address"
        }
      ],
      "stateMutability": "view",
      "type": "function"
    },
    {
      "inputs": [],
      "name": "owner",
      "outputs": [
        {
          "internalType": "address",
          "name": "",
          "type": "address"
        }
      ],
      "stateMutability": "view",
      "type": "function"
    },
    {
      "inputs": [],
      "name": "renounceOwnership",
      "outputs": [],
      "stateMutability": "nonpayable",
      "type": "function"
    },
    {
      "inputs": [
        {
          "internalType": "uint8",
          "name": "",
          "type": "uint8"
        },
        {
          "internalType": "uint8",
          "name": "",
          "type": "uint8"
        }
      ],
      "name": "traitData",
      "outputs": [
        {
          "internalType": "string",
          "name": "name",
          "type": "string"
        },
        {
          "internalType": "string",
          "name": "cid",
          "type": "string"
        }
      ],
      "stateMutability": "view",
      "type": "function"
    },
    {
      "inputs": [
        {
          "internalType": "address",
          "name": "newOwner",
          "type": "address"
        }
      ],
      "name": "transferOwnership",
      "outputs": [],
      "stateMutability": "nonpayable",
      "type": "function"
    },
    {
      "inputs": [
        {
          "internalType": "uint8",
          "name": "traitType",
          "type": "uint8"
        },
        {
          "internalType": "uint8[]",
          "name": "traitIds",
          "type": "uint8[]"
        },
        {
          "components": [
            {
              "internalType": "string",
              "name": "name",
              "type": "string"
            },
            {
              "internalType": "string",
              "name": "cid",
              "type": "string"
            }
          ],
          "internalType": "struct Traits.Trait[]",
          "name": "traits",
          "type": "tuple[]"
        }
      ],
      "name": "uploadTraits",
      "outputs": [],
      "stateMutability": "nonpayable",
      "type": "function"
    },
    {
      "inputs": [
        {
          "internalType": "uint256",
          "name": "tokenId",
          "type": "uint256"
        }
      ],
      "name": "drawSVG",
      "outputs": [
        {
          "internalType": "string",
          "name": "",
          "type": "string"
        }
      ],
      "stateMutability": "view",
      "type": "function"
    },
    {
      "inputs": [
        {
          "internalType": "uint256",
          "name": "tokenId",
          "type": "uint256"
        }
      ],
      "name": "compileAttributes",
      "outputs": [
        {
          "internalType": "string",
          "name": "",
          "type": "string"
        }
      ],
      "stateMutability": "view",
      "type": "function"
    },
    {
      "inputs": [
        {
          "internalType": "uint256",
          "name": "tokenId",
          "type": "uint256"
        }
      ],
      "name": "tokenURI",
      "outputs": [
        {
          "internalType": "string",
          "name": "",
          "type": "string"
        }
      ],
      "stateMutability": "view",
      "type": "function"
    }
  ],
  "bytecode": "0x60806040526040518061012001604052806040518060400160405280600a81526020017f6261636b67726f756e640000000000000000000000000000000000000000000081525081526020016040518060400160405280600481526020017f626f64790000000000000000000000000000000000000000000000000000000081525081526020016040518060400160405280600481526020017f657965730000000000000000000000000000000000000000000000000000000081525081526020016040518060400160405280600581526020017f746565746800000000000000000000000000000000000000000000000000000081525081526020016040518060400160405280600781526020017f6761726d656e740000000000000000000000000000000000000000000000000081525081526020016040518060400160405280600581526020017f636861696e00000000000000000000000000000000000000000000000000000081525081526020016040518060400160405280600481526020017f666163650000000000000000000000000000000000000000000000000000000081525081526020016040518060400160405280600381526020017f656172000000000000000000000000000000000000000000000000000000000081525081526020016040518060400160405280600481526020017f686561640000000000000000000000000000000000000000000000000000000081525081525060029060096200023392919062000353565b503480156200024157600080fd5b5062000262620002566200028760201b60201c565b6200028f60201b60201c565b610400600160146101000a81548161ffff021916908361ffff16021790555062000530565b600033905090565b60008060009054906101000a900473ffffffffffffffffffffffffffffffffffffffff169050816000806101000a81548173ffffffffffffffffffffffffffffffffffffffff021916908373ffffffffffffffffffffffffffffffffffffffff1602179055508173ffffffffffffffffffffffffffffffffffffffff168173ffffffffffffffffffffffffffffffffffffffff167f8be0079c531659141344cd1fd0a4f28419497f9722a3daafe3b4186f6b6457e060405160405180910390a35050565b82600981019282156200039a579160200282015b828111156200039957825182908051906020019062000388929190620003ad565b509160200191906001019062000367565b5b509050620003a991906200043e565b5090565b828054620003bb90620004fa565b90600052602060002090601f016020900481019282620003df57600085556200042b565b82601f10620003fa57805160ff19168380011785556200042b565b828001600101855582156200042b579182015b828111156200042a5782518255916020019190600101906200040d565b5b5090506200043a919062000466565b5090565b5b8082111562000462576000818162000458919062000485565b506001016200043f565b5090565b5b808211156200048157600081600090555060010162000467565b5090565b5080546200049390620004fa565b6000825580601f10620004a75750620004c8565b601f016020900490600052602060002090810190620004c7919062000466565b5b50565b7f4e487b7100000000000000000000000000000000000000000000000000000000600052602260045260246000fd5b600060028204905060018216806200051357607f821691505b602082108114156200052a5762000529620004cb565b5b50919050565b613d8780620005406000396000f3fe608060405234801561001057600080fd5b50600436106100935760003560e01c80638da5cb5b116100665780638da5cb5b146101205780639bf2ee351461013e578063c87b56dd1461016f578063d93ae3d91461019f578063f2fde38b146101bb57610093565b806343bc16121461009857806368dba5e5146100b6578063715018a6146100e65780637abecb86146100f0575b600080fd5b6100a06101d7565b6040516100ad9190612894565b60405180910390f35b6100d060048036038101906100cb91906128f9565b6101fd565b6040516100dd91906129bf565b60405180910390f35b6100ee610f61565b005b61010a600480360381019061010591906128f9565b610fe9565b60405161011791906129bf565b60405180910390f35b610128611dcd565b6040516101359190612a02565b60405180910390f35b61015860048036038101906101539190612a56565b611df6565b604051610166929190612a96565b60405180910390f35b610189600480360381019061018491906128f9565b611f37565b60405161019691906129bf565b60405180910390f35b6101b960048036038101906101b49190612b88565b611fb1565b005b6101d560048036038101906101d09190612c49565b612233565b005b600160009054906101000a900473ffffffffffffffffffffffffffffffffffffffff1681565b60606000600160009054906101000a900473ffffffffffffffffffffffffffffffffffffffff1673ffffffffffffffffffffffffffffffffffffffff166394e56847846040518263ffffffff1660e01b815260040161025c9190612c85565b61012060405180830381865afa15801561027a573d6000803e3d6000fd5b505050506040513d601f19601f8201168201806040525081019061029e9190612e15565b9050600061040660026000600981106102ba576102b9612e43565b5b0180546102c690612ea1565b80601f01602080910402602001604051908101604052809291908181526020018280546102f290612ea1565b801561033f5780601f106103145761010080835404028352916020019161033f565b820191906000526020600020905b81548152906001019060200180831161032257829003601f168201915b5050505050600b60008060ff1681526020019081526020016000206000856000015160ff1660ff168152602001908152602001600020600001805461038390612ea1565b80601f01602080910402602001604051908101604052809291908181526020018280546103af90612ea1565b80156103fc5780601f106103d1576101008083540402835291602001916103fc565b820191906000526020600020905b8154815290600101906020018083116103df57829003601f168201915b505050505061232b565b61056b600260016009811061041e5761041d612e43565b5b01805461042a90612ea1565b80601f016020809104026020016040519081016040528092919081815260200182805461045690612ea1565b80156104a35780601f10610478576101008083540402835291602001916104a3565b820191906000526020600020905b81548152906001019060200180831161048657829003601f168201915b5050505050600b6000600160ff1681526020019081526020016000206000866020015160ff1660ff16815260200190815260200160002060000180546104e890612ea1565b80601f016020809104026020016040519081016040528092919081815260200182805461051490612ea1565b80156105615780601f1061053657610100808354040283529160200191610561565b820191906000526020600020905b81548152906001019060200180831161054457829003601f168201915b505050505061232b565b6106cf6002806009811061058257610581612e43565b5b01805461058e90612ea1565b80601f01602080910402602001604051908101604052809291908181526020018280546105ba90612ea1565b80156106075780601f106105dc57610100808354040283529160200191610607565b820191906000526020600020905b8154815290600101906020018083116105ea57829003601f168201915b5050505050600b6000600260ff1681526020019081526020016000206000876040015160ff1660ff168152602001908152602001600020600001805461064c90612ea1565b80601f016020809104026020016040519081016040528092919081815260200182805461067890612ea1565b80156106c55780601f1061069a576101008083540402835291602001916106c5565b820191906000526020600020905b8154815290600101906020018083116106a857829003601f168201915b505050505061232b565b61083460026003600981106106e7576106e6612e43565b5b0180546106f390612ea1565b80601f016020809104026020016040519081016040528092919081815260200182805461071f90612ea1565b801561076c5780601f106107415761010080835404028352916020019161076c565b820191906000526020600020905b81548152906001019060200180831161074f57829003601f168201915b5050505050600b6000600360ff1681526020019081526020016000206000886060015160ff1660ff16815260200190815260200160002060000180546107b190612ea1565b80601f01602080910402602001604051908101604052809291908181526020018280546107dd90612ea1565b801561082a5780601f106107ff5761010080835404028352916020019161082a565b820191906000526020600020905b81548152906001019060200180831161080d57829003601f168201915b505050505061232b565b610999600260046009811061084c5761084b612e43565b5b01805461085890612ea1565b80601f016020809104026020016040519081016040528092919081815260200182805461088490612ea1565b80156108d15780601f106108a6576101008083540402835291602001916108d1565b820191906000526020600020905b8154815290600101906020018083116108b457829003601f168201915b5050505050600b6000600460ff1681526020019081526020016000206000896080015160ff1660ff168152602001908152602001600020600001805461091690612ea1565b80601f016020809104026020016040519081016040528092919081815260200182805461094290612ea1565b801561098f5780601f106109645761010080835404028352916020019161098f565b820191906000526020600020905b81548152906001019060200180831161097257829003601f168201915b505050505061232b565b610afe60026005600981106109b1576109b0612e43565b5b0180546109bd90612ea1565b80601f01602080910402602001604051908101604052809291908181526020018280546109e990612ea1565b8015610a365780601f10610a0b57610100808354040283529160200191610a36565b820191906000526020600020905b815481529060010190602001808311610a1957829003601f168201915b5050505050600b6000600560ff16815260200190815260200160002060008a60a0015160ff1660ff1681526020019081526020016000206000018054610a7b90612ea1565b80601f0160208091040260200160405190810160405280929190818152602001828054610aa790612ea1565b8015610af45780601f10610ac957610100808354040283529160200191610af4565b820191906000526020600020905b815481529060010190602001808311610ad757829003601f168201915b505050505061232b565b610c636002600660098110610b1657610b15612e43565b5b018054610b2290612ea1565b80601f0160208091040260200160405190810160405280929190818152602001828054610b4e90612ea1565b8015610b9b5780601f10610b7057610100808354040283529160200191610b9b565b820191906000526020600020905b815481529060010190602001808311610b7e57829003601f168201915b5050505050600b6000600660ff16815260200190815260200160002060008b60c0015160ff1660ff1681526020019081526020016000206000018054610be090612ea1565b80601f0160208091040260200160405190810160405280929190818152602001828054610c0c90612ea1565b8015610c595780601f10610c2e57610100808354040283529160200191610c59565b820191906000526020600020905b815481529060010190602001808311610c3c57829003601f168201915b505050505061232b565b610dc86002600760098110610c7b57610c7a612e43565b5b018054610c8790612ea1565b80601f0160208091040260200160405190810160405280929190818152602001828054610cb390612ea1565b8015610d005780601f10610cd557610100808354040283529160200191610d00565b820191906000526020600020905b815481529060010190602001808311610ce357829003601f168201915b5050505050600b6000600760ff16815260200190815260200160002060008c60e0015160ff1660ff1681526020019081526020016000206000018054610d4590612ea1565b80601f0160208091040260200160405190810160405280929190818152602001828054610d7190612ea1565b8015610dbe5780601f10610d9357610100808354040283529160200191610dbe565b820191906000526020600020905b815481529060010190602001808311610da157829003601f168201915b505050505061232b565b610f2e6002600860098110610de057610ddf612e43565b5b018054610dec90612ea1565b80601f0160208091040260200160405190810160405280929190818152602001828054610e1890612ea1565b8015610e655780601f10610e3a57610100808354040283529160200191610e65565b820191906000526020600020905b815481529060010190602001808311610e4857829003601f168201915b5050505050600b6000600860ff16815260200190815260200160002060008d610100015160ff1660ff1681526020019081526020016000206000018054610eab90612ea1565b80601f0160208091040260200160405190810160405280929190818152602001828054610ed790612ea1565b8015610f245780601f10610ef957610100808354040283529160200191610f24565b820191906000526020600020905b815481529060010190602001808311610f0757829003601f168201915b505050505061232b565b604051602001610f4699989796959493929190612fa7565b60405160208183030381529060405290508092505050919050565b610f69612357565b73ffffffffffffffffffffffffffffffffffffffff16610f87611dcd565b73ffffffffffffffffffffffffffffffffffffffff1614610fdd576040517f08c379a0000000000000000000000000000000000000000000000000000000008152600401610fd4906130d5565b60405180910390fd5b610fe7600061235f565b565b60606000600160009054906101000a900473ffffffffffffffffffffffffffffffffffffffff1673ffffffffffffffffffffffffffffffffffffffff166394e56847846040518263ffffffff1660e01b81526004016110489190612c85565b61012060405180830381865afa158015611066573d6000803e3d6000fd5b505050506040513d601f19601f8201168201806040525081019061108a9190612e15565b905060006111f6600b60008060ff1681526020019081526020016000206000846000015160ff1660ff1681526020019081526020016000206040518060400160405290816000820180546110dd90612ea1565b80601f016020809104026020016040519081016040528092919081815260200182805461110990612ea1565b80156111565780601f1061112b57610100808354040283529160200191611156565b820191906000526020600020905b81548152906001019060200180831161113957829003601f168201915b5050505050815260200160018201805461116f90612ea1565b80601f016020809104026020016040519081016040528092919081815260200182805461119b90612ea1565b80156111e85780601f106111bd576101008083540402835291602001916111e8565b820191906000526020600020905b8154815290600101906020018083116111cb57829003601f168201915b505050505081525050612423565b61135f600b6000600160ff1681526020019081526020016000206000856020015160ff1660ff16815260200190815260200160002060405180604001604052908160008201805461124690612ea1565b80601f016020809104026020016040519081016040528092919081815260200182805461127290612ea1565b80156112bf5780601f10611294576101008083540402835291602001916112bf565b820191906000526020600020905b8154815290600101906020018083116112a257829003601f168201915b505050505081526020016001820180546112d890612ea1565b80601f016020809104026020016040519081016040528092919081815260200182805461130490612ea1565b80156113515780601f1061132657610100808354040283529160200191611351565b820191906000526020600020905b81548152906001019060200180831161133457829003601f168201915b505050505081525050612423565b6114c8600b6000600260ff1681526020019081526020016000206000866040015160ff1660ff1681526020019081526020016000206040518060400160405290816000820180546113af90612ea1565b80601f01602080910402602001604051908101604052809291908181526020018280546113db90612ea1565b80156114285780601f106113fd57610100808354040283529160200191611428565b820191906000526020600020905b81548152906001019060200180831161140b57829003601f168201915b5050505050815260200160018201805461144190612ea1565b80601f016020809104026020016040519081016040528092919081815260200182805461146d90612ea1565b80156114ba5780601f1061148f576101008083540402835291602001916114ba565b820191906000526020600020905b81548152906001019060200180831161149d57829003601f168201915b505050505081525050612423565b611631600b6000600360ff1681526020019081526020016000206000876060015160ff1660ff16815260200190815260200160002060405180604001604052908160008201805461151890612ea1565b80601f016020809104026020016040519081016040528092919081815260200182805461154490612ea1565b80156115915780601f1061156657610100808354040283529160200191611591565b820191906000526020600020905b81548152906001019060200180831161157457829003601f168201915b505050505081526020016001820180546115aa90612ea1565b80601f01602080910402602001604051908101604052809291908181526020018280546115d690612ea1565b80156116235780601f106115f857610100808354040283529160200191611623565b820191906000526020600020905b81548152906001019060200180831161160657829003601f168201915b505050505081525050612423565b61179a600b6000600460ff1681526020019081526020016000206000886080015160ff1660ff16815260200190815260200160002060405180604001604052908160008201805461168190612ea1565b80601f01602080910402602001604051908101604052809291908181526020018280546116ad90612ea1565b80156116fa5780601f106116cf576101008083540402835291602001916116fa565b820191906000526020600020905b8154815290600101906020018083116116dd57829003601f168201915b5050505050815260200160018201805461171390612ea1565b80601f016020809104026020016040519081016040528092919081815260200182805461173f90612ea1565b801561178c5780601f106117615761010080835404028352916020019161178c565b820191906000526020600020905b81548152906001019060200180831161176f57829003601f168201915b505050505081525050612423565b611903600b6000600560ff16815260200190815260200160002060008960a0015160ff1660ff1681526020019081526020016000206040518060400160405290816000820180546117ea90612ea1565b80601f016020809104026020016040519081016040528092919081815260200182805461181690612ea1565b80156118635780601f1061183857610100808354040283529160200191611863565b820191906000526020600020905b81548152906001019060200180831161184657829003601f168201915b5050505050815260200160018201805461187c90612ea1565b80601f01602080910402602001604051908101604052809291908181526020018280546118a890612ea1565b80156118f55780601f106118ca576101008083540402835291602001916118f5565b820191906000526020600020905b8154815290600101906020018083116118d857829003601f168201915b505050505081525050612423565b611a6c600b6000600660ff16815260200190815260200160002060008a60c0015160ff1660ff16815260200190815260200160002060405180604001604052908160008201805461195390612ea1565b80601f016020809104026020016040519081016040528092919081815260200182805461197f90612ea1565b80156119cc5780601f106119a1576101008083540402835291602001916119cc565b820191906000526020600020905b8154815290600101906020018083116119af57829003601f168201915b505050505081526020016001820180546119e590612ea1565b80601f0160208091040260200160405190810160405280929190818152602001828054611a1190612ea1565b8015611a5e5780601f10611a3357610100808354040283529160200191611a5e565b820191906000526020600020905b815481529060010190602001808311611a4157829003601f168201915b505050505081525050612423565b611bd5600b6000600760ff16815260200190815260200160002060008b60e0015160ff1660ff168152602001908152602001600020604051806040016040529081600082018054611abc90612ea1565b80601f0160208091040260200160405190810160405280929190818152602001828054611ae890612ea1565b8015611b355780601f10611b0a57610100808354040283529160200191611b35565b820191906000526020600020905b815481529060010190602001808311611b1857829003601f168201915b50505050508152602001600182018054611b4e90612ea1565b80601f0160208091040260200160405190810160405280929190818152602001828054611b7a90612ea1565b8015611bc75780601f10611b9c57610100808354040283529160200191611bc7565b820191906000526020600020905b815481529060010190602001808311611baa57829003601f168201915b505050505081525050612423565b611d3f600b6000600860ff16815260200190815260200160002060008c610100015160ff1660ff168152602001908152602001600020604051806040016040529081600082018054611c2690612ea1565b80601f0160208091040260200160405190810160405280929190818152602001828054611c5290612ea1565b8015611c9f5780601f10611c7457610100808354040283529160200191611c9f565b820191906000526020600020905b815481529060010190602001808311611c8257829003601f168201915b50505050508152602001600182018054611cb890612ea1565b80601f0160208091040260200160405190810160405280929190818152602001828054611ce490612ea1565b8015611d315780601f10611d0657610100808354040283529160200191611d31565b820191906000526020600020905b815481529060010190602001808311611d1457829003601f168201915b505050505081525050612423565b604051602001611d57999897969594939291906130f5565b6040516020818303038152906040529050611d85600160149054906101000a900461ffff1661ffff1661248c565b611da2600160149054906101000a900461ffff1661ffff1661248c565b82604051602001611db59392919061333c565b60405160208183030381529060405292505050919050565b60008060009054906101000a900473ffffffffffffffffffffffffffffffffffffffff16905090565b600b60205281600052604060002060205280600052604060002060009150915050806000018054611e2690612ea1565b80601f0160208091040260200160405190810160405280929190818152602001828054611e5290612ea1565b8015611e9f5780601f10611e7457610100808354040283529160200191611e9f565b820191906000526020600020905b815481529060010190602001808311611e8257829003601f168201915b505050505090806001018054611eb490612ea1565b80601f0160208091040260200160405190810160405280929190818152602001828054611ee090612ea1565b8015611f2d5780601f10611f0257610100808354040283529160200191611f2d565b820191906000526020600020905b815481529060010190602001808311611f1057829003601f168201915b5050505050905082565b60606000611f448361248c565b611f55611f5085610fe9565b6125ed565b611f5e856101fd565b604051602001611f7093929190613561565b6040516020818303038152906040529050611f8a816125ed565b604051602001611f9a9190613615565b604051602081830303815290604052915050919050565b611fb9612357565b73ffffffffffffffffffffffffffffffffffffffff16611fd7611dcd565b73ffffffffffffffffffffffffffffffffffffffff161461202d576040517f08c379a0000000000000000000000000000000000000000000000000000000008152600401612024906130d5565b60405180910390fd5b818190508484905014612075576040517f08c379a000000000000000000000000000000000000000000000000000000000815260040161206c906136a9565b60405180910390fd5b60005b8282905081101561222b5760405180604001604052808484848181106120a1576120a0612e43565b5b90506020028101906120b391906136d8565b80600001906120c29190613700565b8080601f016020809104026020016040519081016040528093929190818152602001838380828437600081840152601f19601f82011690508083019250505050505050815260200184848481811061211d5761211c612e43565b5b905060200281019061212f91906136d8565b806020019061213e9190613700565b8080601f016020809104026020016040519081016040528093929190818152602001838380828437600081840152601f19601f82011690508083019250505050505050815250600b60008860ff1660ff16815260200190815260200160002060008787858181106121b2576121b1612e43565b5b90506020020160208101906121c79190613763565b60ff1660ff16815260200190815260200160002060008201518160000190805190602001906121f7929190612772565b506020820151816001019080519060200190612214929190612772565b509050508080612223906137bf565b915050612078565b505050505050565b61223b612357565b73ffffffffffffffffffffffffffffffffffffffff16612259611dcd565b73ffffffffffffffffffffffffffffffffffffffff16146122af576040517f08c379a00000000000000000000000000000000000000000000000000000000081526004016122a6906130d5565b60405180910390fd5b600073ffffffffffffffffffffffffffffffffffffffff168173ffffffffffffffffffffffffffffffffffffffff16141561231f576040517f08c379a00000000000000000000000000000000000000000000000000000000081526004016123169061387a565b60405180910390fd5b6123288161235f565b50565b6060828260405160200161234092919061397e565b604051602081830303815290604052905092915050565b600033905090565b60008060009054906101000a900473ffffffffffffffffffffffffffffffffffffffff169050816000806101000a81548173ffffffffffffffffffffffffffffffffffffffff021916908373ffffffffffffffffffffffffffffffffffffffff1602179055508173ffffffffffffffffffffffffffffffffffffffff168173ffffffffffffffffffffffffffffffffffffffff167f8be0079c531659141344cd1fd0a4f28419497f9722a3daafe3b4186f6b6457e060405160405180910390a35050565b6060612442600160149054906101000a900461ffff1661ffff1661248c565b61245f600160149054906101000a900461ffff1661ffff1661248c565b836020015160405160200161247693929190613b3f565b6040516020818303038152906040529050919050565b606060008214156124d4576040518060400160405280600181526020017f300000000000000000000000000000000000000000000000000000000000000081525090506125e8565b600082905060005b600082146125065780806124ef906137bf565b915050600a826124ff9190613bcb565b91506124dc565b60008167ffffffffffffffff81111561252257612521612ca5565b5b6040519080825280601f01601f1916602001820160405280156125545781602001600182028036833780820191505090505b5090505b600085146125e15760018261256d9190613bfc565b9150600a8561257c9190613c30565b60306125889190613c61565b60f81b81838151811061259e5761259d612e43565b5b60200101907effffffffffffffffffffffffffffffffffffffffffffffffffffffffffffff1916908160001a905350600a856125da9190613bcb565b9450612558565b8093505050505b919050565b60606000825114156126105760405180602001604052806000815250905061276d565b6000604051806060016040528060408152602001613d12604091399050600060036002855161263f9190613c61565b6126499190613bcb565b60046126559190613cb7565b905060006020826126669190613c61565b67ffffffffffffffff81111561267f5761267e612ca5565b5b6040519080825280601f01601f1916602001820160405280156126b15781602001600182028036833780820191505090505b509050818152600183018586518101602084015b8183101561272c576003830192508251603f8160121c1685015160f81b8252600182019150603f81600c1c1685015160f81b8252600182019150603f8160061c1685015160f81b8252600182019150603f811685015160f81b8252600182019150506126c5565b600389510660018114612746576002811461275657612761565b613d3d60f01b6002830352612761565b603d60f81b60018303525b50505050508093505050505b919050565b82805461277e90612ea1565b90600052602060002090601f0160209004810192826127a057600085556127e7565b82601f106127b957805160ff19168380011785556127e7565b828001600101855582156127e7579182015b828111156127e65782518255916020019190600101906127cb565b5b5090506127f491906127f8565b5090565b5b808211156128115760008160009055506001016127f9565b5090565b600073ffffffffffffffffffffffffffffffffffffffff82169050919050565b6000819050919050565b600061285a61285561285084612815565b612835565b612815565b9050919050565b600061286c8261283f565b9050919050565b600061287e82612861565b9050919050565b61288e81612873565b82525050565b60006020820190506128a96000830184612885565b92915050565b6000604051905090565b600080fd5b600080fd5b6000819050919050565b6128d6816128c3565b81146128e157600080fd5b50565b6000813590506128f3816128cd565b92915050565b60006020828403121561290f5761290e6128b9565b5b600061291d848285016128e4565b91505092915050565b600081519050919050565b600082825260208201905092915050565b60005b83811015612960578082015181840152602081019050612945565b8381111561296f576000848401525b50505050565b6000601f19601f8301169050919050565b600061299182612926565b61299b8185612931565b93506129ab818560208601612942565b6129b481612975565b840191505092915050565b600060208201905081810360008301526129d98184612986565b905092915050565b60006129ec82612815565b9050919050565b6129fc816129e1565b82525050565b6000602082019050612a1760008301846129f3565b92915050565b600060ff82169050919050565b612a3381612a1d565b8114612a3e57600080fd5b50565b600081359050612a5081612a2a565b92915050565b60008060408385031215612a6d57612a6c6128b9565b5b6000612a7b85828601612a41565b9250506020612a8c85828601612a41565b9150509250929050565b60006040820190508181036000830152612ab08185612986565b90508181036020830152612ac48184612986565b90509392505050565b600080fd5b600080fd5b600080fd5b60008083601f840112612af257612af1612acd565b5b8235905067ffffffffffffffff811115612b0f57612b0e612ad2565b5b602083019150836020820283011115612b2b57612b2a612ad7565b5b9250929050565b60008083601f840112612b4857612b47612acd565b5b8235905067ffffffffffffffff811115612b6557612b64612ad2565b5b602083019150836020820283011115612b8157612b80612ad7565b5b9250929050565b600080600080600060608688031215612ba457612ba36128b9565b5b6000612bb288828901612a41565b955050602086013567ffffffffffffffff811115612bd357612bd26128be565b5b612bdf88828901612adc565b9450945050604086013567ffffffffffffffff811115612c0257612c016128be565b5b612c0e88828901612b32565b92509250509295509295909350565b612c26816129e1565b8114612c3157600080fd5b50565b600081359050612c4381612c1d565b92915050565b600060208284031215612c5f57612c5e6128b9565b5b6000612c6d84828501612c34565b91505092915050565b612c7f816128c3565b82525050565b6000602082019050612c9a6000830184612c76565b92915050565b600080fd5b7f4e487b7100000000000000000000000000000000000000000000000000000000600052604160045260246000fd5b612cdd82612975565b810181811067ffffffffffffffff82111715612cfc57612cfb612ca5565b5b80604052505050565b6000612d0f6128af565b9050612d1b8282612cd4565b919050565b600081519050612d2f81612a2a565b92915050565b60006101208284031215612d4c57612d4b612ca0565b5b612d57610120612d05565b90506000612d6784828501612d20565b6000830152506020612d7b84828501612d20565b6020830152506040612d8f84828501612d20565b6040830152506060612da384828501612d20565b6060830152506080612db784828501612d20565b60808301525060a0612dcb84828501612d20565b60a08301525060c0612ddf84828501612d20565b60c08301525060e0612df384828501612d20565b60e083015250610100612e0884828501612d20565b6101008301525092915050565b60006101208284031215612e2c57612e2b6128b9565b5b6000612e3a84828501612d35565b91505092915050565b7f4e487b7100000000000000000000000000000000000000000000000000000000600052603260045260246000fd5b7f4e487b7100000000000000000000000000000000000000000000000000000000600052602260045260246000fd5b60006002820490506001821680612eb957607f821691505b60208210811415612ecd57612ecc612e72565b5b50919050565b600081905092915050565b7f5b00000000000000000000000000000000000000000000000000000000000000600082015250565b6000612f14600183612ed3565b9150612f1f82612ede565b600182019050919050565b6000612f3582612926565b612f3f8185612ed3565b9350612f4f818560208601612942565b80840191505092915050565b7f2c00000000000000000000000000000000000000000000000000000000000000600082015250565b6000612f91600183612ed3565b9150612f9c82612f5b565b600182019050919050565b6000612fb282612f07565b9150612fbe828c612f2a565b9150612fca828b612f2a565b9150612fd582612f84565b9150612fe1828a612f2a565b9150612fec82612f84565b9150612ff88289612f2a565b915061300382612f84565b915061300f8288612f2a565b915061301a82612f84565b91506130268287612f2a565b915061303182612f84565b915061303d8286612f2a565b915061304882612f84565b91506130548285612f2a565b915061305f82612f84565b915061306b8284612f2a565b915061307682612f84565b91508190509a9950505050505050505050565b7f4f776e61626c653a2063616c6c6572206973206e6f7420746865206f776e6572600082015250565b60006130bf602083612931565b91506130ca82613089565b602082019050919050565b600060208201905081810360008301526130ee816130b2565b9050919050565b6000613101828c612f2a565b915061310d828b612f2a565b9150613119828a612f2a565b91506131258289612f2a565b91506131318288612f2a565b915061313d8287612f2a565b91506131498286612f2a565b91506131558285612f2a565b91506131618284612f2a565b91508190509a9950505050505050505050565b7f3c7376672069643d22617274697374222077696474683d22313030252220686560008201527f696768743d2231303025222076657273696f6e3d22312e31222076696577426f60208201527f783d223020302000000000000000000000000000000000000000000000000000604082015250565b60006131f6604783612ed3565b915061320182613174565b604782019050919050565b7f2000000000000000000000000000000000000000000000000000000000000000600082015250565b6000613242600183612ed3565b915061324d8261320c565b600182019050919050565b7f2220786d6c6e733d22687474703a2f2f7777772e77332e6f72672f323030302f60008201527f7376672220786d6c6e733a786c696e6b3d22687474703a2f2f7777772e77332e60208201527f6f72672f313939392f786c696e6b223e00000000000000000000000000000000604082015250565b60006132da605083612ed3565b91506132e582613258565b605082019050919050565b7f3c2f7376673e0000000000000000000000000000000000000000000000000000600082015250565b6000613326600683612ed3565b9150613331826132f0565b600682019050919050565b6000613347826131e9565b91506133538286612f2a565b915061335e82613235565b915061336a8285612f2a565b9150613375826132cd565b91506133818284612f2a565b915061338c82613319565b9150819050949350505050565b7f7b226e616d65223a202200000000000000000000000000000000000000000000600082015250565b60006133cf600a83612ed3565b91506133da82613399565b600a82019050919050565b7f4172746973742023000000000000000000000000000000000000000000000000600082015250565b600061341b600883612ed3565b9150613426826133e5565b600882019050919050565b7f222c20226465736372697074696f6e223a2022426c616820426c616820426c6160008201527f682e222c2022696d616765223a2022646174613a696d6167652f7376672b786d60208201527f6c3b6261736536342c0000000000000000000000000000000000000000000000604082015250565b60006134b3604983612ed3565b91506134be82613431565b604982019050919050565b7f222c202261747472696275746573223a00000000000000000000000000000000600082015250565b60006134ff601083612ed3565b915061350a826134c9565b601082019050919050565b7f7d00000000000000000000000000000000000000000000000000000000000000600082015250565b600061354b600183612ed3565b915061355682613515565b600182019050919050565b600061356c826133c2565b91506135778261340e565b91506135838286612f2a565b915061358e826134a6565b915061359a8285612f2a565b91506135a5826134f2565b91506135b18284612f2a565b91506135bc8261353e565b9150819050949350505050565b7f646174613a6170706c69636174696f6e2f6a736f6e3b6261736536342c000000600082015250565b60006135ff601d83612ed3565b915061360a826135c9565b601d82019050919050565b6000613620826135f2565b915061362c8284612f2a565b915081905092915050565b7f4964732073686f756c64206d6174636820746865206e756d626572206f66207460008201527f7261697473000000000000000000000000000000000000000000000000000000602082015250565b6000613693602583612931565b915061369e82613637565b604082019050919050565b600060208201905081810360008301526136c281613686565b9050919050565b600080fd5b600080fd5b600080fd5b6000823560016040038336030381126136f4576136f36136c9565b5b80830191505092915050565b6000808335600160200384360303811261371d5761371c6136c9565b5b80840192508235915067ffffffffffffffff82111561373f5761373e6136ce565b5b60208301925060018202360383131561375b5761375a6136d3565b5b509250929050565b600060208284031215613779576137786128b9565b5b600061378784828501612a41565b91505092915050565b7f4e487b7100000000000000000000000000000000000000000000000000000000600052601160045260246000fd5b60006137ca826128c3565b91507fffffffffffffffffffffffffffffffffffffffffffffffffffffffffffffffff8214156137fd576137fc613790565b5b600182019050919050565b7f4f776e61626c653a206e6577206f776e657220697320746865207a65726f206160008201527f6464726573730000000000000000000000000000000000000000000000000000602082015250565b6000613864602683612931565b915061386f82613808565b604082019050919050565b6000602082019050818103600083015261389381613857565b9050919050565b7f7b2274726169745f74797065223a220000000000000000000000000000000000600082015250565b60006138d0600f83612ed3565b91506138db8261389a565b600f82019050919050565b7f222c2276616c7565223a22000000000000000000000000000000000000000000600082015250565b600061391c600b83612ed3565b9150613927826138e6565b600b82019050919050565b7f227d000000000000000000000000000000000000000000000000000000000000600082015250565b6000613968600283612ed3565b915061397382613932565b600282019050919050565b6000613989826138c3565b91506139958285612f2a565b91506139a08261390f565b91506139ac8284612f2a565b91506139b78261395b565b91508190509392505050565b7f3c696d61676520783d22302220793d2230222077696474683d22000000000000600082015250565b60006139f9601a83612ed3565b9150613a04826139c3565b601a82019050919050565b7f22206865696768743d2200000000000000000000000000000000000000000000600082015250565b6000613a45600a83612ed3565b9150613a5082613a0f565b600a82019050919050565b7f2220696d6167652d72656e646572696e673d22706978656c617465642220707260008201527f657365727665417370656374526174696f3d22784d6964794d69642220786c6960208201527f6e6b3a687265663d2268747470733a2f2f697066732e696f2f697066732f0000604082015250565b6000613add605e83612ed3565b9150613ae882613a5b565b605e82019050919050565b7f22202f3e00000000000000000000000000000000000000000000000000000000600082015250565b6000613b29600483612ed3565b9150613b3482613af3565b600482019050919050565b6000613b4a826139ec565b9150613b568286612f2a565b9150613b6182613a38565b9150613b6d8285612f2a565b9150613b7882613ad0565b9150613b848284612f2a565b9150613b8f82613b1c565b9150819050949350505050565b7f4e487b7100000000000000000000000000000000000000000000000000000000600052601260045260246000fd5b6000613bd6826128c3565b9150613be1836128c3565b925082613bf157613bf0613b9c565b5b828204905092915050565b6000613c07826128c3565b9150613c12836128c3565b925082821015613c2557613c24613790565b5b828203905092915050565b6000613c3b826128c3565b9150613c46836128c3565b925082613c5657613c55613b9c565b5b828206905092915050565b6000613c6c826128c3565b9150613c77836128c3565b9250827fffffffffffffffffffffffffffffffffffffffffffffffffffffffffffffffff03821115613cac57613cab613790565b5b828201905092915050565b6000613cc2826128c3565b9150613ccd836128c3565b9250817fffffffffffffffffffffffffffffffffffffffffffffffffffffffffffffffff0483118215151615613d0657613d05613790565b5b82820290509291505056fe4142434445464748494a4b4c4d4e4f505152535455565758595a6162636465666768696a6b6c6d6e6f707172737475767778797a303132333435363738392b2fa2646970667358221220f3d5d689626b151bfd69446758e217ef72f4fdba3b1986aedc614969dc7eae1b64736f6c634300080a0033",
  "immutableReferences": {},
  "source": "// SPDX-License-Identifier: MIT\npragma solidity ^0.8.2;\n\nimport \"@openzeppelin/contracts/access/Ownable.sol\";\nimport \"@openzeppelin/contracts/utils/Strings.sol\";\nimport \"./IArtist.sol\";\nimport \"./ITraits.sol\";\n\ncontract Traits is ITraits, Ownable {\n  using Strings for uint256;\n\n  struct Trait {\n    string name;\n    string cid;\n  }\n\n  IArtist public artist;\n  uint16 dimensions;\n\n  constructor() {\n    dimensions = 1024;\n  }\n\n  string[9] _traitTypes = [\n    \"background\",\n    \"body\",\n    \"eyes\",\n    \"teeth\",\n    \"garment\",\n    \"chain\",\n    \"face\",\n    \"ear\",\n    \"head\"\n  ];\n\n  mapping(uint8 => mapping(uint8 => Trait)) public traitData;\n\n  /* contract owner to upload names and images of each trait as base64 encoded PNGs */\n  function uploadTraits(uint8 traitType, uint8[] calldata traitIds, Trait[] calldata traits) external onlyOwner {\n    require(traitIds.length == traits.length, \"Ids should match the number of traits\");\n    for (uint x = 0; x < traits.length; x++) {\n      traitData[traitType][traitIds[x]] = Trait(\n        traits[x].name,\n        traits[x].cid\n      );\n    }\n  }\n\n  /* generates a data uri for the source of an image element */\n  function drawTrait(Trait memory trait) internal view returns (string memory) {\n    return string(abi.encodePacked(\n      '<image x=\"0\" y=\"0\" width=\"',\n      Strings.toString(dimensions),\n      '\" height=\"',\n      Strings.toString(dimensions),\n      '\" image-rendering=\"pixelated\" preserveAspectRatio=\"xMidyMid\" xlink:href=\"https://ipfs.io/ipfs/', \n      trait.cid,\n      '\" />'  \n    ));\n  }\n\n  /* generates a SVG file from the layered PNGs */\n  function drawSVG(uint256 tokenId) public view returns (string memory) {\n    IArtist.Person memory a = artist.getTokenTraits(tokenId);\n    string memory svgString = string(abi.encodePacked(\n      drawTrait(traitData[0][a.background]),\n      drawTrait(traitData[1][a.body]),\n      drawTrait(traitData[2][a.eyes]),\n      drawTrait(traitData[3][a.teeth]),\n      drawTrait(traitData[4][a.garment]),\n      drawTrait(traitData[5][a.chain]),\n      drawTrait(traitData[6][a.face]),\n      drawTrait(traitData[7][a.ear]),\n      drawTrait(traitData[8][a.head])\n    ));\n\n    return string(abi.encodePacked(\n      '<svg id=\"artist\" width=\"100%\" height=\"100%\" version=\"1.1\" viewBox=\"0 0 ',\n      Strings.toString(dimensions),\n      ' ',\n      Strings.toString(dimensions),\n      '\" xmlns=\"http://www.w3.org/2000/svg\" xmlns:xlink=\"http://www.w3.org/1999/xlink\">',\n      svgString,\n      \"</svg>\"\n    ));\n  }\n\n  /* generates an attribute according to the OpenSea Metadata standard */\n  function attributeForTypeAndValue(string memory traitType, string memory value) internal pure returns (string memory) {\n    return string(abi.encodePacked(\n      '{\"trait_type\":\"',\n      traitType,\n      '\",\"value\":\"',\n      value,\n      '\"}'\n    ));\n  }\n\n  /* compiles a collection of attributes for according to the OpenSea Metadata standard */\n  function compileAttributes(uint256 tokenId) public view returns (string memory) {\n    IArtist.Person memory a = artist.getTokenTraits(tokenId);\n    string memory traits = string(abi.encodePacked(\n      '[',\n      attributeForTypeAndValue(_traitTypes[0], traitData[0][a.background].name),\n      attributeForTypeAndValue(_traitTypes[1], traitData[1][a.body].name), ',',\n      attributeForTypeAndValue(_traitTypes[2], traitData[2][a.eyes].name), ',',\n      attributeForTypeAndValue(_traitTypes[3], traitData[3][a.teeth].name), ',',\n      attributeForTypeAndValue(_traitTypes[4], traitData[4][a.garment].name), ',',\n      attributeForTypeAndValue(_traitTypes[5], traitData[5][a.chain].name), ',',\n      attributeForTypeAndValue(_traitTypes[6], traitData[6][a.face].name), ',',\n      attributeForTypeAndValue(_traitTypes[7], traitData[7][a.ear].name), ',',\n      attributeForTypeAndValue(_traitTypes[8], traitData[8][a.head].name), ','\n    ));\n\n    return traits;\n  }\n\n  function tokenURI(uint256 tokenId) public view override returns (string memory) {\n    string memory metadata = string(abi.encodePacked(\n      '{\"name\": \"',\n      'Artist #',\n      tokenId.toString(),\n      '\", \"description\": \"Blah Blah Blah.\", \"image\": \"data:image/svg+xml;base64,',\n      base64(bytes(drawSVG(tokenId))),\n      '\", \"attributes\":',\n      compileAttributes(tokenId),\n      \"}\"\n    ));\n\n    return string(abi.encodePacked(\n      \"data:application/json;base64,\",\n      base64(bytes(metadata))\n    ));\n  }\n\n  /** BASE 64 - Written by Brech Devos */\n  \n  string internal constant TABLE = 'ABCDEFGHIJKLMNOPQRSTUVWXYZabcdefghijklmnopqrstuvwxyz0123456789+/';\n\n  function base64(bytes memory data) internal pure returns (string memory) {\n    if (data.length == 0) return '';\n    \n    // load the table into memory\n    string memory table = TABLE;\n\n    // multiply by 4/3 rounded up\n    uint256 encodedLen = 4 * ((data.length + 2) / 3);\n\n    // add some extra buffer at the end required for the writing\n    string memory result = new string(encodedLen + 32);\n\n    assembly {\n      // set the actual output length\n      mstore(result, encodedLen)\n      \n      // prepare the lookup table\n      let tablePtr := add(table, 1)\n      \n      // input ptr\n      let dataPtr := data\n      let endPtr := add(dataPtr, mload(data))\n      \n      // result ptr, jump over length\n      let resultPtr := add(result, 32)\n      \n      // run over the input, 3 bytes at a time\n      for {} lt(dataPtr, endPtr) {}\n      {\n          dataPtr := add(dataPtr, 3)\n          \n          // read 3 bytes\n          let input := mload(dataPtr)\n          \n          // write 4 characters\n          mstore(resultPtr, shl(248, mload(add(tablePtr, and(shr(18, input), 0x3F)))))\n          resultPtr := add(resultPtr, 1)\n          mstore(resultPtr, shl(248, mload(add(tablePtr, and(shr(12, input), 0x3F)))))\n          resultPtr := add(resultPtr, 1)\n          mstore(resultPtr, shl(248, mload(add(tablePtr, and(shr( 6, input), 0x3F)))))\n          resultPtr := add(resultPtr, 1)\n          mstore(resultPtr, shl(248, mload(add(tablePtr, and(        input,  0x3F)))))\n          resultPtr := add(resultPtr, 1)\n      }\n      \n      // padding with '='\n      switch mod(mload(data), 3)\n      case 1 { mstore(sub(resultPtr, 2), shl(240, 0x3d3d)) }\n      case 2 { mstore(sub(resultPtr, 1), shl(248, 0x3d)) }\n    }\n    \n    return result;\n  }\n}\n",
  "sourcePath": "/Users/warrenschwartz/Projects/ColdBehaviour/contracts/contracts/Traits.sol",
  "compiler": {
    "name": "solc",
    "version": "0.8.10+commit.fc410830.Emscripten.clang"
  },
  "schemaVersion": "3.4.3",
  "updatedAt": "2022-01-26T08:10:52.323Z",
  "devdoc": {
    "kind": "dev",
    "methods": {
      "owner()": {
        "details": "Returns the address of the current owner."
      },
      "renounceOwnership()": {
        "details": "Leaves the contract without owner. It will not be possible to call `onlyOwner` functions anymore. Can only be called by the current owner. NOTE: Renouncing ownership will leave the contract without an owner, thereby removing any functionality that is only available to the owner."
      },
      "transferOwnership(address)": {
        "details": "Transfers ownership of the contract to a new account (`newOwner`). Can only be called by the current owner."
      }
    },
    "version": 1
  },
  "userdoc": {
    "kind": "user",
    "methods": {},
    "version": 1
  }
}