{
  "contractName": "Traits",
  "abi": [
    {
      "inputs": [
        {
          "internalType": "uint16",
          "name": "_dimensions",
          "type": "uint16"
        }
      ],
      "stateMutability": "nonpayable",
      "type": "constructor"
    },
    {
      "anonymous": false,
      "inputs": [
        {
          "indexed": true,
          "internalType": "address",
          "name": "previousOwner",
          "type": "address"
        },
        {
          "indexed": true,
          "internalType": "address",
          "name": "newOwner",
          "type": "address"
        }
      ],
      "name": "OwnershipTransferred",
      "type": "event"
    },
    {
      "inputs": [],
      "name": "artist",
      "outputs": [
        {
          "internalType": "contract IArtist",
          "name": "",
          "type": "address"
        }
      ],
      "stateMutability": "view",
      "type": "function"
    },
    {
      "inputs": [],
      "name": "owner",
      "outputs": [
        {
          "internalType": "address",
          "name": "",
          "type": "address"
        }
      ],
      "stateMutability": "view",
      "type": "function"
    },
    {
      "inputs": [],
      "name": "renounceOwnership",
      "outputs": [],
      "stateMutability": "nonpayable",
      "type": "function"
    },
    {
      "inputs": [
        {
          "internalType": "uint8",
          "name": "",
          "type": "uint8"
        },
        {
          "internalType": "uint8",
          "name": "",
          "type": "uint8"
        }
      ],
      "name": "traitData",
      "outputs": [
        {
          "internalType": "string",
          "name": "name",
          "type": "string"
        },
        {
          "internalType": "string",
          "name": "png",
          "type": "string"
        }
      ],
      "stateMutability": "view",
      "type": "function"
    },
    {
      "inputs": [
        {
          "internalType": "address",
          "name": "newOwner",
          "type": "address"
        }
      ],
      "name": "transferOwnership",
      "outputs": [],
      "stateMutability": "nonpayable",
      "type": "function"
    },
    {
      "inputs": [
        {
          "internalType": "uint8",
          "name": "traitType",
          "type": "uint8"
        },
        {
          "internalType": "uint8[]",
          "name": "traitIds",
          "type": "uint8[]"
        },
        {
          "components": [
            {
              "internalType": "string",
              "name": "name",
              "type": "string"
            },
            {
              "internalType": "string",
              "name": "png",
              "type": "string"
            }
          ],
          "internalType": "struct Traits.Trait[]",
          "name": "traits",
          "type": "tuple[]"
        }
      ],
      "name": "uploadTraits",
      "outputs": [],
      "stateMutability": "nonpayable",
      "type": "function"
    },
    {
      "inputs": [
        {
          "internalType": "uint256",
          "name": "tokenId",
          "type": "uint256"
        }
      ],
      "name": "drawSVG",
      "outputs": [
        {
          "internalType": "string",
          "name": "",
          "type": "string"
        }
      ],
      "stateMutability": "view",
      "type": "function"
    },
    {
      "inputs": [
        {
          "internalType": "uint256",
          "name": "tokenId",
          "type": "uint256"
        }
      ],
      "name": "compileAttributes",
      "outputs": [
        {
          "internalType": "string",
          "name": "",
          "type": "string"
        }
      ],
      "stateMutability": "view",
      "type": "function"
    },
    {
      "inputs": [
        {
          "internalType": "uint256",
          "name": "tokenId",
          "type": "uint256"
        }
      ],
      "name": "tokenURI",
      "outputs": [
        {
          "internalType": "string",
          "name": "",
          "type": "string"
        }
      ],
      "stateMutability": "view",
      "type": "function"
    }
  ],
  "bytecode": "0x60806040526040518061014001604052806040518060400160405280600a81526020017f6261636b67726f756e640000000000000000000000000000000000000000000081525081526020016040518060400160405280600481526020017f736b696e0000000000000000000000000000000000000000000000000000000081525081526020016040518060400160405280600481526020017f6e65636b0000000000000000000000000000000000000000000000000000000081525081526020016040518060400160405280600481526020017f686561640000000000000000000000000000000000000000000000000000000081525081526020016040518060400160405280600581526020017f6d6f75746800000000000000000000000000000000000000000000000000000081525081526020016040518060400160405280600581526020017f626561726400000000000000000000000000000000000000000000000000000081525081526020016040518060400160405280600481526020017f657965730000000000000000000000000000000000000000000000000000000081525081526020016040518060400160405280600781526020017f636c6f746865730000000000000000000000000000000000000000000000000081525081526020016040518060400160405280600881526020017f65617272696e677300000000000000000000000000000000000000000000000081525081526020016040518060400160405280600781526020017f676c617373657300000000000000000000000000000000000000000000000000815250815250600290600a6200026e929190620003fe565b503480156200027c57600080fd5b50604051620047ea380380620047ea8339818101604052810190620002a29190620005ba565b620002c2620002b66200033260201b60201c565b6200033a60201b60201c565b620100008161ffff16106200030e576040517f08c379a0000000000000000000000000000000000000000000000000000000008152600401620003059062000673565b60405180910390fd5b80600160146101000a81548161ffff021916908361ffff16021790555050620006fa565b600033905090565b60008060009054906101000a900473ffffffffffffffffffffffffffffffffffffffff169050816000806101000a81548173ffffffffffffffffffffffffffffffffffffffff021916908373ffffffffffffffffffffffffffffffffffffffff1602179055508173ffffffffffffffffffffffffffffffffffffffff168173ffffffffffffffffffffffffffffffffffffffff167f8be0079c531659141344cd1fd0a4f28419497f9722a3daafe3b4186f6b6457e060405160405180910390a35050565b82600a810192821562000445579160200282015b82811115620004445782518290805190602001906200043392919062000458565b509160200191906001019062000412565b5b509050620004549190620004e9565b5090565b8280546200046690620006c4565b90600052602060002090601f0160209004810192826200048a5760008555620004d6565b82601f10620004a557805160ff1916838001178555620004d6565b82800160010185558215620004d6579182015b82811115620004d5578251825591602001919060010190620004b8565b5b509050620004e5919062000511565b5090565b5b808211156200050d576000818162000503919062000530565b50600101620004ea565b5090565b5b808211156200052c57600081600090555060010162000512565b5090565b5080546200053e90620006c4565b6000825580601f1062000552575062000573565b601f01602090049060005260206000209081019062000572919062000511565b5b50565b600080fd5b600061ffff82169050919050565b62000594816200057b565b8114620005a057600080fd5b50565b600081519050620005b48162000589565b92915050565b600060208284031215620005d357620005d262000576565b5b6000620005e384828501620005a3565b91505092915050565b600082825260208201905092915050565b7f4e756d62657220697320746f6f206c6172676520616e642077696c6c2063617560008201527f736520616e206f766572666c6f7720657863657074696f6e0000000000000000602082015250565b60006200065b603883620005ec565b91506200066882620005fd565b604082019050919050565b600060208201905081810360008301526200068e816200064c565b9050919050565b7f4e487b7100000000000000000000000000000000000000000000000000000000600052602260045260246000fd5b60006002820490506001821680620006dd57607f821691505b60208210811415620006f457620006f362000695565b5b50919050565b6140e0806200070a6000396000f3fe608060405234801561001057600080fd5b50600436106100935760003560e01c80638da5cb5b116100665780638da5cb5b146101205780639bf2ee351461013e578063c87b56dd1461016f578063d93ae3d91461019f578063f2fde38b146101bb57610093565b806343bc16121461009857806368dba5e5146100b6578063715018a6146100e65780637abecb86146100f0575b600080fd5b6100a06101d7565b6040516100ad9190612b66565b60405180910390f35b6100d060048036038101906100cb9190612bcb565b6101fd565b6040516100dd9190612c91565b60405180910390f35b6100ee6110c8565b005b61010a60048036038101906101059190612bcb565b611150565b6040516101179190612c91565b60405180910390f35b61012861209f565b6040516101359190612cd4565b60405180910390f35b61015860048036038101906101539190612d28565b6120c8565b604051610166929190612d68565b60405180910390f35b61018960048036038101906101849190612bcb565b612209565b6040516101969190612c91565b60405180910390f35b6101b960048036038101906101b49190612e5a565b612283565b005b6101d560048036038101906101d09190612f1b565b612505565b005b600160009054906101000a900473ffffffffffffffffffffffffffffffffffffffff1681565b60606000600160009054906101000a900473ffffffffffffffffffffffffffffffffffffffff1673ffffffffffffffffffffffffffffffffffffffff166394e56847846040518263ffffffff1660e01b815260040161025c9190612f57565b61014060405180830381865afa15801561027a573d6000803e3d6000fd5b505050506040513d601f19601f8201168201806040525081019061029e91906130fd565b9050600061040660026000600a81106102ba576102b961312b565b5b0180546102c690613189565b80601f01602080910402602001604051908101604052809291908181526020018280546102f290613189565b801561033f5780601f106103145761010080835404028352916020019161033f565b820191906000526020600020905b81548152906001019060200180831161032257829003601f168201915b5050505050600c60008060ff1681526020019081526020016000206000856000015160ff1660ff168152602001908152602001600020600001805461038390613189565b80601f01602080910402602001604051908101604052809291908181526020018280546103af90613189565b80156103fc5780601f106103d1576101008083540402835291602001916103fc565b820191906000526020600020905b8154815290600101906020018083116103df57829003601f168201915b50505050506125fd565b61056b60026001600a811061041e5761041d61312b565b5b01805461042a90613189565b80601f016020809104026020016040519081016040528092919081815260200182805461045690613189565b80156104a35780601f10610478576101008083540402835291602001916104a3565b820191906000526020600020905b81548152906001019060200180831161048657829003601f168201915b5050505050600c6000600160ff1681526020019081526020016000206000866020015160ff1660ff16815260200190815260200160002060000180546104e890613189565b80601f016020809104026020016040519081016040528092919081815260200182805461051490613189565b80156105615780601f1061053657610100808354040283529160200191610561565b820191906000526020600020905b81548152906001019060200180831161054457829003601f168201915b50505050506125fd565b6106cf600280600a81106105825761058161312b565b5b01805461058e90613189565b80601f01602080910402602001604051908101604052809291908181526020018280546105ba90613189565b80156106075780601f106105dc57610100808354040283529160200191610607565b820191906000526020600020905b8154815290600101906020018083116105ea57829003601f168201915b5050505050600c6000600260ff1681526020019081526020016000206000876040015160ff1660ff168152602001908152602001600020600001805461064c90613189565b80601f016020809104026020016040519081016040528092919081815260200182805461067890613189565b80156106c55780601f1061069a576101008083540402835291602001916106c5565b820191906000526020600020905b8154815290600101906020018083116106a857829003601f168201915b50505050506125fd565b61083460026003600a81106106e7576106e661312b565b5b0180546106f390613189565b80601f016020809104026020016040519081016040528092919081815260200182805461071f90613189565b801561076c5780601f106107415761010080835404028352916020019161076c565b820191906000526020600020905b81548152906001019060200180831161074f57829003601f168201915b5050505050600c6000600360ff1681526020019081526020016000206000886060015160ff1660ff16815260200190815260200160002060000180546107b190613189565b80601f01602080910402602001604051908101604052809291908181526020018280546107dd90613189565b801561082a5780601f106107ff5761010080835404028352916020019161082a565b820191906000526020600020905b81548152906001019060200180831161080d57829003601f168201915b50505050506125fd565b61099960026004600a811061084c5761084b61312b565b5b01805461085890613189565b80601f016020809104026020016040519081016040528092919081815260200182805461088490613189565b80156108d15780601f106108a6576101008083540402835291602001916108d1565b820191906000526020600020905b8154815290600101906020018083116108b457829003601f168201915b5050505050600c6000600460ff1681526020019081526020016000206000896080015160ff1660ff168152602001908152602001600020600001805461091690613189565b80601f016020809104026020016040519081016040528092919081815260200182805461094290613189565b801561098f5780601f106109645761010080835404028352916020019161098f565b820191906000526020600020905b81548152906001019060200180831161097257829003601f168201915b50505050506125fd565b610afe60026005600a81106109b1576109b061312b565b5b0180546109bd90613189565b80601f01602080910402602001604051908101604052809291908181526020018280546109e990613189565b8015610a365780601f10610a0b57610100808354040283529160200191610a36565b820191906000526020600020905b815481529060010190602001808311610a1957829003601f168201915b5050505050600c6000600560ff16815260200190815260200160002060008a60a0015160ff1660ff1681526020019081526020016000206000018054610a7b90613189565b80601f0160208091040260200160405190810160405280929190818152602001828054610aa790613189565b8015610af45780601f10610ac957610100808354040283529160200191610af4565b820191906000526020600020905b815481529060010190602001808311610ad757829003601f168201915b50505050506125fd565b610c6360026006600a8110610b1657610b1561312b565b5b018054610b2290613189565b80601f0160208091040260200160405190810160405280929190818152602001828054610b4e90613189565b8015610b9b5780601f10610b7057610100808354040283529160200191610b9b565b820191906000526020600020905b815481529060010190602001808311610b7e57829003601f168201915b5050505050600c6000600660ff16815260200190815260200160002060008b60c0015160ff1660ff1681526020019081526020016000206000018054610be090613189565b80601f0160208091040260200160405190810160405280929190818152602001828054610c0c90613189565b8015610c595780601f10610c2e57610100808354040283529160200191610c59565b820191906000526020600020905b815481529060010190602001808311610c3c57829003601f168201915b50505050506125fd565b610dc860026007600a8110610c7b57610c7a61312b565b5b018054610c8790613189565b80601f0160208091040260200160405190810160405280929190818152602001828054610cb390613189565b8015610d005780601f10610cd557610100808354040283529160200191610d00565b820191906000526020600020905b815481529060010190602001808311610ce357829003601f168201915b5050505050600c6000600760ff16815260200190815260200160002060008c60e0015160ff1660ff1681526020019081526020016000206000018054610d4590613189565b80601f0160208091040260200160405190810160405280929190818152602001828054610d7190613189565b8015610dbe5780601f10610d9357610100808354040283529160200191610dbe565b820191906000526020600020905b815481529060010190602001808311610da157829003601f168201915b50505050506125fd565b610f2e60026008600a8110610de057610ddf61312b565b5b018054610dec90613189565b80601f0160208091040260200160405190810160405280929190818152602001828054610e1890613189565b8015610e655780601f10610e3a57610100808354040283529160200191610e65565b820191906000526020600020905b815481529060010190602001808311610e4857829003601f168201915b5050505050600c6000600860ff16815260200190815260200160002060008d610100015160ff1660ff1681526020019081526020016000206000018054610eab90613189565b80601f0160208091040260200160405190810160405280929190818152602001828054610ed790613189565b8015610f245780601f10610ef957610100808354040283529160200191610f24565b820191906000526020600020905b815481529060010190602001808311610f0757829003601f168201915b50505050506125fd565b61109460026009600a8110610f4657610f4561312b565b5b018054610f5290613189565b80601f0160208091040260200160405190810160405280929190818152602001828054610f7e90613189565b8015610fcb5780601f10610fa057610100808354040283529160200191610fcb565b820191906000526020600020905b815481529060010190602001808311610fae57829003601f168201915b5050505050600c6000600960ff16815260200190815260200160002060008e610120015160ff1660ff168152602001908152602001600020600001805461101190613189565b80601f016020809104026020016040519081016040528092919081815260200182805461103d90613189565b801561108a5780601f1061105f5761010080835404028352916020019161108a565b820191906000526020600020905b81548152906001019060200180831161106d57829003601f168201915b50505050506125fd565b6040516020016110ad9a999897969594939291906132db565b60405160208183030381529060405290508092505050919050565b6110d0612629565b73ffffffffffffffffffffffffffffffffffffffff166110ee61209f565b73ffffffffffffffffffffffffffffffffffffffff1614611144576040517f08c379a000000000000000000000000000000000000000000000000000000000815260040161113b90613421565b60405180910390fd5b61114e6000612631565b565b60606000600160009054906101000a900473ffffffffffffffffffffffffffffffffffffffff1673ffffffffffffffffffffffffffffffffffffffff166394e56847846040518263ffffffff1660e01b81526004016111af9190612f57565b61014060405180830381865afa1580156111cd573d6000803e3d6000fd5b505050506040513d601f19601f820116820180604052508101906111f191906130fd565b9050600061135d600c60008060ff1681526020019081526020016000206000846000015160ff1660ff16815260200190815260200160002060405180604001604052908160008201805461124490613189565b80601f016020809104026020016040519081016040528092919081815260200182805461127090613189565b80156112bd5780601f10611292576101008083540402835291602001916112bd565b820191906000526020600020905b8154815290600101906020018083116112a057829003601f168201915b505050505081526020016001820180546112d690613189565b80601f016020809104026020016040519081016040528092919081815260200182805461130290613189565b801561134f5780601f106113245761010080835404028352916020019161134f565b820191906000526020600020905b81548152906001019060200180831161133257829003601f168201915b5050505050815250506126f5565b6114c6600c6000600160ff1681526020019081526020016000206000856020015160ff1660ff1681526020019081526020016000206040518060400160405290816000820180546113ad90613189565b80601f01602080910402602001604051908101604052809291908181526020018280546113d990613189565b80156114265780601f106113fb57610100808354040283529160200191611426565b820191906000526020600020905b81548152906001019060200180831161140957829003601f168201915b5050505050815260200160018201805461143f90613189565b80601f016020809104026020016040519081016040528092919081815260200182805461146b90613189565b80156114b85780601f1061148d576101008083540402835291602001916114b8565b820191906000526020600020905b81548152906001019060200180831161149b57829003601f168201915b5050505050815250506126f5565b61162f600c6000600260ff1681526020019081526020016000206000866040015160ff1660ff16815260200190815260200160002060405180604001604052908160008201805461151690613189565b80601f016020809104026020016040519081016040528092919081815260200182805461154290613189565b801561158f5780601f106115645761010080835404028352916020019161158f565b820191906000526020600020905b81548152906001019060200180831161157257829003601f168201915b505050505081526020016001820180546115a890613189565b80601f01602080910402602001604051908101604052809291908181526020018280546115d490613189565b80156116215780601f106115f657610100808354040283529160200191611621565b820191906000526020600020905b81548152906001019060200180831161160457829003601f168201915b5050505050815250506126f5565b611798600c6000600360ff1681526020019081526020016000206000876060015160ff1660ff16815260200190815260200160002060405180604001604052908160008201805461167f90613189565b80601f01602080910402602001604051908101604052809291908181526020018280546116ab90613189565b80156116f85780601f106116cd576101008083540402835291602001916116f8565b820191906000526020600020905b8154815290600101906020018083116116db57829003601f168201915b5050505050815260200160018201805461171190613189565b80601f016020809104026020016040519081016040528092919081815260200182805461173d90613189565b801561178a5780601f1061175f5761010080835404028352916020019161178a565b820191906000526020600020905b81548152906001019060200180831161176d57829003601f168201915b5050505050815250506126f5565b611901600c6000600460ff1681526020019081526020016000206000886080015160ff1660ff1681526020019081526020016000206040518060400160405290816000820180546117e890613189565b80601f016020809104026020016040519081016040528092919081815260200182805461181490613189565b80156118615780601f1061183657610100808354040283529160200191611861565b820191906000526020600020905b81548152906001019060200180831161184457829003601f168201915b5050505050815260200160018201805461187a90613189565b80601f01602080910402602001604051908101604052809291908181526020018280546118a690613189565b80156118f35780601f106118c8576101008083540402835291602001916118f3565b820191906000526020600020905b8154815290600101906020018083116118d657829003601f168201915b5050505050815250506126f5565b611a6a600c6000600560ff16815260200190815260200160002060008960a0015160ff1660ff16815260200190815260200160002060405180604001604052908160008201805461195190613189565b80601f016020809104026020016040519081016040528092919081815260200182805461197d90613189565b80156119ca5780601f1061199f576101008083540402835291602001916119ca565b820191906000526020600020905b8154815290600101906020018083116119ad57829003601f168201915b505050505081526020016001820180546119e390613189565b80601f0160208091040260200160405190810160405280929190818152602001828054611a0f90613189565b8015611a5c5780601f10611a3157610100808354040283529160200191611a5c565b820191906000526020600020905b815481529060010190602001808311611a3f57829003601f168201915b5050505050815250506126f5565b611bd3600c6000600660ff16815260200190815260200160002060008a60c0015160ff1660ff168152602001908152602001600020604051806040016040529081600082018054611aba90613189565b80601f0160208091040260200160405190810160405280929190818152602001828054611ae690613189565b8015611b335780601f10611b0857610100808354040283529160200191611b33565b820191906000526020600020905b815481529060010190602001808311611b1657829003601f168201915b50505050508152602001600182018054611b4c90613189565b80601f0160208091040260200160405190810160405280929190818152602001828054611b7890613189565b8015611bc55780601f10611b9a57610100808354040283529160200191611bc5565b820191906000526020600020905b815481529060010190602001808311611ba857829003601f168201915b5050505050815250506126f5565b611d3c600c6000600760ff16815260200190815260200160002060008b60e0015160ff1660ff168152602001908152602001600020604051806040016040529081600082018054611c2390613189565b80601f0160208091040260200160405190810160405280929190818152602001828054611c4f90613189565b8015611c9c5780601f10611c7157610100808354040283529160200191611c9c565b820191906000526020600020905b815481529060010190602001808311611c7f57829003601f168201915b50505050508152602001600182018054611cb590613189565b80601f0160208091040260200160405190810160405280929190818152602001828054611ce190613189565b8015611d2e5780601f10611d0357610100808354040283529160200191611d2e565b820191906000526020600020905b815481529060010190602001808311611d1157829003601f168201915b5050505050815250506126f5565b611ea6600c6000600860ff16815260200190815260200160002060008c610100015160ff1660ff168152602001908152602001600020604051806040016040529081600082018054611d8d90613189565b80601f0160208091040260200160405190810160405280929190818152602001828054611db990613189565b8015611e065780601f10611ddb57610100808354040283529160200191611e06565b820191906000526020600020905b815481529060010190602001808311611de957829003601f168201915b50505050508152602001600182018054611e1f90613189565b80601f0160208091040260200160405190810160405280929190818152602001828054611e4b90613189565b8015611e985780601f10611e6d57610100808354040283529160200191611e98565b820191906000526020600020905b815481529060010190602001808311611e7b57829003601f168201915b5050505050815250506126f5565b612010600c6000600960ff16815260200190815260200160002060008d610120015160ff1660ff168152602001908152602001600020604051806040016040529081600082018054611ef790613189565b80601f0160208091040260200160405190810160405280929190818152602001828054611f2390613189565b8015611f705780601f10611f4557610100808354040283529160200191611f70565b820191906000526020600020905b815481529060010190602001808311611f5357829003601f168201915b50505050508152602001600182018054611f8990613189565b80601f0160208091040260200160405190810160405280929190818152602001828054611fb590613189565b80156120025780601f10611fd757610100808354040283529160200191612002565b820191906000526020600020905b815481529060010190602001808311611fe557829003601f168201915b5050505050815250506126f5565b6040516020016120299a99989796959493929190613441565b6040516020818303038152906040529050612057600160149054906101000a900461ffff1661ffff1661275e565b612074600160149054906101000a900461ffff1661ffff1661275e565b8260405160200161208793929190613695565b60405160208183030381529060405292505050919050565b60008060009054906101000a900473ffffffffffffffffffffffffffffffffffffffff16905090565b600c602052816000526040600020602052806000526040600020600091509150508060000180546120f890613189565b80601f016020809104026020016040519081016040528092919081815260200182805461212490613189565b80156121715780601f1061214657610100808354040283529160200191612171565b820191906000526020600020905b81548152906001019060200180831161215457829003601f168201915b50505050509080600101805461218690613189565b80601f01602080910402602001604051908101604052809291908181526020018280546121b290613189565b80156121ff5780601f106121d4576101008083540402835291602001916121ff565b820191906000526020600020905b8154815290600101906020018083116121e257829003601f168201915b5050505050905082565b606060006122168361275e565b61222761222285611150565b6128bf565b612230856101fd565b604051602001612242939291906138ba565b604051602081830303815290604052905061225c816128bf565b60405160200161226c919061396e565b604051602081830303815290604052915050919050565b61228b612629565b73ffffffffffffffffffffffffffffffffffffffff166122a961209f565b73ffffffffffffffffffffffffffffffffffffffff16146122ff576040517f08c379a00000000000000000000000000000000000000000000000000000000081526004016122f690613421565b60405180910390fd5b818190508484905014612347576040517f08c379a000000000000000000000000000000000000000000000000000000000815260040161233e90613a02565b60405180910390fd5b60005b828290508110156124fd5760405180604001604052808484848181106123735761237261312b565b5b90506020028101906123859190613a31565b80600001906123949190613a59565b8080601f016020809104026020016040519081016040528093929190818152602001838380828437600081840152601f19601f8201169050808301925050505050505081526020018484848181106123ef576123ee61312b565b5b90506020028101906124019190613a31565b80602001906124109190613a59565b8080601f016020809104026020016040519081016040528093929190818152602001838380828437600081840152601f19601f82011690508083019250505050505050815250600c60008860ff1660ff16815260200190815260200160002060008787858181106124845761248361312b565b5b90506020020160208101906124999190613abc565b60ff1660ff16815260200190815260200160002060008201518160000190805190602001906124c9929190612a44565b5060208201518160010190805190602001906124e6929190612a44565b5090505080806124f590613b18565b91505061234a565b505050505050565b61250d612629565b73ffffffffffffffffffffffffffffffffffffffff1661252b61209f565b73ffffffffffffffffffffffffffffffffffffffff1614612581576040517f08c379a000000000000000000000000000000000000000000000000000000000815260040161257890613421565b60405180910390fd5b600073ffffffffffffffffffffffffffffffffffffffff168173ffffffffffffffffffffffffffffffffffffffff1614156125f1576040517f08c379a00000000000000000000000000000000000000000000000000000000081526004016125e890613bd3565b60405180910390fd5b6125fa81612631565b50565b60608282604051602001612612929190613cd7565b604051602081830303815290604052905092915050565b600033905090565b60008060009054906101000a900473ffffffffffffffffffffffffffffffffffffffff169050816000806101000a81548173ffffffffffffffffffffffffffffffffffffffff021916908373ffffffffffffffffffffffffffffffffffffffff1602179055508173ffffffffffffffffffffffffffffffffffffffff168173ffffffffffffffffffffffffffffffffffffffff167f8be0079c531659141344cd1fd0a4f28419497f9722a3daafe3b4186f6b6457e060405160405180910390a35050565b6060612714600160149054906101000a900461ffff1661ffff1661275e565b612731600160149054906101000a900461ffff1661ffff1661275e565b836020015160405160200161274893929190613e98565b6040516020818303038152906040529050919050565b606060008214156127a6576040518060400160405280600181526020017f300000000000000000000000000000000000000000000000000000000000000081525090506128ba565b600082905060005b600082146127d85780806127c190613b18565b915050600a826127d19190613f24565b91506127ae565b60008167ffffffffffffffff8111156127f4576127f3612f77565b5b6040519080825280601f01601f1916602001820160405280156128265781602001600182028036833780820191505090505b5090505b600085146128b35760018261283f9190613f55565b9150600a8561284e9190613f89565b603061285a9190613fba565b60f81b8183815181106128705761286f61312b565b5b60200101907effffffffffffffffffffffffffffffffffffffffffffffffffffffffffffff1916908160001a905350600a856128ac9190613f24565b945061282a565b8093505050505b919050565b60606000825114156128e257604051806020016040528060008152509050612a3f565b600060405180606001604052806040815260200161406b60409139905060006003600285516129119190613fba565b61291b9190613f24565b60046129279190614010565b905060006020826129389190613fba565b67ffffffffffffffff81111561295157612950612f77565b5b6040519080825280601f01601f1916602001820160405280156129835781602001600182028036833780820191505090505b509050818152600183018586518101602084015b818310156129fe576003830192508251603f8160121c1685015160f81b8252600182019150603f81600c1c1685015160f81b8252600182019150603f8160061c1685015160f81b8252600182019150603f811685015160f81b825260018201915050612997565b600389510660018114612a185760028114612a2857612a33565b613d3d60f01b6002830352612a33565b603d60f81b60018303525b50505050508093505050505b919050565b828054612a5090613189565b90600052602060002090601f016020900481019282612a725760008555612ab9565b82601f10612a8b57805160ff1916838001178555612ab9565b82800160010185558215612ab9579182015b82811115612ab8578251825591602001919060010190612a9d565b5b509050612ac69190612aca565b5090565b5b80821115612ae3576000816000905550600101612acb565b5090565b600073ffffffffffffffffffffffffffffffffffffffff82169050919050565b6000819050919050565b6000612b2c612b27612b2284612ae7565b612b07565b612ae7565b9050919050565b6000612b3e82612b11565b9050919050565b6000612b5082612b33565b9050919050565b612b6081612b45565b82525050565b6000602082019050612b7b6000830184612b57565b92915050565b6000604051905090565b600080fd5b600080fd5b6000819050919050565b612ba881612b95565b8114612bb357600080fd5b50565b600081359050612bc581612b9f565b92915050565b600060208284031215612be157612be0612b8b565b5b6000612bef84828501612bb6565b91505092915050565b600081519050919050565b600082825260208201905092915050565b60005b83811015612c32578082015181840152602081019050612c17565b83811115612c41576000848401525b50505050565b6000601f19601f8301169050919050565b6000612c6382612bf8565b612c6d8185612c03565b9350612c7d818560208601612c14565b612c8681612c47565b840191505092915050565b60006020820190508181036000830152612cab8184612c58565b905092915050565b6000612cbe82612ae7565b9050919050565b612cce81612cb3565b82525050565b6000602082019050612ce96000830184612cc5565b92915050565b600060ff82169050919050565b612d0581612cef565b8114612d1057600080fd5b50565b600081359050612d2281612cfc565b92915050565b60008060408385031215612d3f57612d3e612b8b565b5b6000612d4d85828601612d13565b9250506020612d5e85828601612d13565b9150509250929050565b60006040820190508181036000830152612d828185612c58565b90508181036020830152612d968184612c58565b90509392505050565b600080fd5b600080fd5b600080fd5b60008083601f840112612dc457612dc3612d9f565b5b8235905067ffffffffffffffff811115612de157612de0612da4565b5b602083019150836020820283011115612dfd57612dfc612da9565b5b9250929050565b60008083601f840112612e1a57612e19612d9f565b5b8235905067ffffffffffffffff811115612e3757612e36612da4565b5b602083019150836020820283011115612e5357612e52612da9565b5b9250929050565b600080600080600060608688031215612e7657612e75612b8b565b5b6000612e8488828901612d13565b955050602086013567ffffffffffffffff811115612ea557612ea4612b90565b5b612eb188828901612dae565b9450945050604086013567ffffffffffffffff811115612ed457612ed3612b90565b5b612ee088828901612e04565b92509250509295509295909350565b612ef881612cb3565b8114612f0357600080fd5b50565b600081359050612f1581612eef565b92915050565b600060208284031215612f3157612f30612b8b565b5b6000612f3f84828501612f06565b91505092915050565b612f5181612b95565b82525050565b6000602082019050612f6c6000830184612f48565b92915050565b600080fd5b7f4e487b7100000000000000000000000000000000000000000000000000000000600052604160045260246000fd5b612faf82612c47565b810181811067ffffffffffffffff82111715612fce57612fcd612f77565b5b80604052505050565b6000612fe1612b81565b9050612fed8282612fa6565b919050565b60008151905061300181612cfc565b92915050565b6000610140828403121561301e5761301d612f72565b5b613029610140612fd7565b9050600061303984828501612ff2565b600083015250602061304d84828501612ff2565b602083015250604061306184828501612ff2565b604083015250606061307584828501612ff2565b606083015250608061308984828501612ff2565b60808301525060a061309d84828501612ff2565b60a08301525060c06130b184828501612ff2565b60c08301525060e06130c584828501612ff2565b60e0830152506101006130da84828501612ff2565b610100830152506101206130f084828501612ff2565b6101208301525092915050565b6000610140828403121561311457613113612b8b565b5b600061312284828501613007565b91505092915050565b7f4e487b7100000000000000000000000000000000000000000000000000000000600052603260045260246000fd5b7f4e487b7100000000000000000000000000000000000000000000000000000000600052602260045260246000fd5b600060028204905060018216806131a157607f821691505b602082108114156131b5576131b461315a565b5b50919050565b600081905092915050565b7f5b00000000000000000000000000000000000000000000000000000000000000600082015250565b60006131fc6001836131bb565b9150613207826131c6565b600182019050919050565b600061321d82612bf8565b61322781856131bb565b9350613237818560208601612c14565b80840191505092915050565b7f2c00000000000000000000000000000000000000000000000000000000000000600082015250565b60006132796001836131bb565b915061328482613243565b600182019050919050565b7f5d00000000000000000000000000000000000000000000000000000000000000600082015250565b60006132c56001836131bb565b91506132d08261328f565b600182019050919050565b60006132e6826131ef565b91506132f2828d613212565b91506132fe828c613212565b91506133098261326c565b9150613315828b613212565b91506133208261326c565b915061332c828a613212565b91506133378261326c565b91506133438289613212565b915061334e8261326c565b915061335a8288613212565b91506133658261326c565b91506133718287613212565b915061337c8261326c565b91506133888286613212565b91506133938261326c565b915061339f8285613212565b91506133aa8261326c565b91506133b68284613212565b91506133c1826132b8565b91508190509b9a5050505050505050505050565b7f4f776e61626c653a2063616c6c6572206973206e6f7420746865206f776e6572600082015250565b600061340b602083612c03565b9150613416826133d5565b602082019050919050565b6000602082019050818103600083015261343a816133fe565b9050919050565b600061344d828d613212565b9150613459828c613212565b9150613465828b613212565b9150613471828a613212565b915061347d8289613212565b91506134898288613212565b91506134958287613212565b91506134a18286613212565b91506134ad8285613212565b91506134b98284613212565b91508190509b9a5050505050505050505050565b7f3c7376672069643d22776f6f6c66222077696474683d2231303025222068656960008201527f6768743d2231303025222076657273696f6e3d22312e31222076696577426f7860208201527f3d22302030200000000000000000000000000000000000000000000000000000604082015250565b600061354f6046836131bb565b915061355a826134cd565b604682019050919050565b7f2000000000000000000000000000000000000000000000000000000000000000600082015250565b600061359b6001836131bb565b91506135a682613565565b600182019050919050565b7f2220786d6c6e733d22687474703a2f2f7777772e77332e6f72672f323030302f60008201527f7376672220786d6c6e733a786c696e6b3d22687474703a2f2f7777772e77332e60208201527f6f72672f313939392f786c696e6b223e00000000000000000000000000000000604082015250565b60006136336050836131bb565b915061363e826135b1565b605082019050919050565b7f3c2f7376673e0000000000000000000000000000000000000000000000000000600082015250565b600061367f6006836131bb565b915061368a82613649565b600682019050919050565b60006136a082613542565b91506136ac8286613212565b91506136b78261358e565b91506136c38285613212565b91506136ce82613626565b91506136da8284613212565b91506136e582613672565b9150819050949350505050565b7f7b226e616d65223a202200000000000000000000000000000000000000000000600082015250565b6000613728600a836131bb565b9150613733826136f2565b600a82019050919050565b7f4172746973742023000000000000000000000000000000000000000000000000600082015250565b60006137746008836131bb565b915061377f8261373e565b600882019050919050565b7f222c20226465736372697074696f6e223a2022426c616820426c616820426c6160008201527f682e222c2022696d616765223a2022646174613a696d6167652f7376672b786d60208201527f6c3b6261736536342c0000000000000000000000000000000000000000000000604082015250565b600061380c6049836131bb565b91506138178261378a565b604982019050919050565b7f222c202261747472696275746573223a00000000000000000000000000000000600082015250565b60006138586010836131bb565b915061386382613822565b601082019050919050565b7f7d00000000000000000000000000000000000000000000000000000000000000600082015250565b60006138a46001836131bb565b91506138af8261386e565b600182019050919050565b60006138c58261371b565b91506138d082613767565b91506138dc8286613212565b91506138e7826137ff565b91506138f38285613212565b91506138fe8261384b565b915061390a8284613212565b915061391582613897565b9150819050949350505050565b7f646174613a6170706c69636174696f6e2f6a736f6e3b6261736536342c000000600082015250565b6000613958601d836131bb565b915061396382613922565b601d82019050919050565b60006139798261394b565b91506139858284613212565b915081905092915050565b7f4964732073686f756c64206d6174636820746865206e756d626572206f66207460008201527f7261697473000000000000000000000000000000000000000000000000000000602082015250565b60006139ec602583612c03565b91506139f782613990565b604082019050919050565b60006020820190508181036000830152613a1b816139df565b9050919050565b600080fd5b600080fd5b600080fd5b600082356001604003833603038112613a4d57613a4c613a22565b5b80830191505092915050565b60008083356001602003843603038112613a7657613a75613a22565b5b80840192508235915067ffffffffffffffff821115613a9857613a97613a27565b5b602083019250600182023603831315613ab457613ab3613a2c565b5b509250929050565b600060208284031215613ad257613ad1612b8b565b5b6000613ae084828501612d13565b91505092915050565b7f4e487b7100000000000000000000000000000000000000000000000000000000600052601160045260246000fd5b6000613b2382612b95565b91507fffffffffffffffffffffffffffffffffffffffffffffffffffffffffffffffff821415613b5657613b55613ae9565b5b600182019050919050565b7f4f776e61626c653a206e6577206f776e657220697320746865207a65726f206160008201527f6464726573730000000000000000000000000000000000000000000000000000602082015250565b6000613bbd602683612c03565b9150613bc882613b61565b604082019050919050565b60006020820190508181036000830152613bec81613bb0565b9050919050565b7f7b2274726169745f74797065223a220000000000000000000000000000000000600082015250565b6000613c29600f836131bb565b9150613c3482613bf3565b600f82019050919050565b7f222c2276616c7565223a22000000000000000000000000000000000000000000600082015250565b6000613c75600b836131bb565b9150613c8082613c3f565b600b82019050919050565b7f227d000000000000000000000000000000000000000000000000000000000000600082015250565b6000613cc16002836131bb565b9150613ccc82613c8b565b600282019050919050565b6000613ce282613c1c565b9150613cee8285613212565b9150613cf982613c68565b9150613d058284613212565b9150613d1082613cb4565b91508190509392505050565b7f3c696d61676520783d22302220793d2230222077696474683d22000000000000600082015250565b6000613d52601a836131bb565b9150613d5d82613d1c565b601a82019050919050565b7f22206865696768743d2200000000000000000000000000000000000000000000600082015250565b6000613d9e600a836131bb565b9150613da982613d68565b600a82019050919050565b7f2220696d6167652d72656e646572696e673d22706978656c617465642220707260008201527f657365727665417370656374526174696f3d22784d6964794d69642220786c6960208201527f6e6b3a687265663d22646174613a696d6167652f706e673b6261736536342c00604082015250565b6000613e36605f836131bb565b9150613e4182613db4565b605f82019050919050565b7f22202f3e00000000000000000000000000000000000000000000000000000000600082015250565b6000613e826004836131bb565b9150613e8d82613e4c565b600482019050919050565b6000613ea382613d45565b9150613eaf8286613212565b9150613eba82613d91565b9150613ec68285613212565b9150613ed182613e29565b9150613edd8284613212565b9150613ee882613e75565b9150819050949350505050565b7f4e487b7100000000000000000000000000000000000000000000000000000000600052601260045260246000fd5b6000613f2f82612b95565b9150613f3a83612b95565b925082613f4a57613f49613ef5565b5b828204905092915050565b6000613f6082612b95565b9150613f6b83612b95565b925082821015613f7e57613f7d613ae9565b5b828203905092915050565b6000613f9482612b95565b9150613f9f83612b95565b925082613faf57613fae613ef5565b5b828206905092915050565b6000613fc582612b95565b9150613fd083612b95565b9250827fffffffffffffffffffffffffffffffffffffffffffffffffffffffffffffffff0382111561400557614004613ae9565b5b828201905092915050565b600061401b82612b95565b915061402683612b95565b9250817fffffffffffffffffffffffffffffffffffffffffffffffffffffffffffffffff048311821515161561405f5761405e613ae9565b5b82820290509291505056fe4142434445464748494a4b4c4d4e4f505152535455565758595a6162636465666768696a6b6c6d6e6f707172737475767778797a303132333435363738392b2fa26469706673582212202c0291cb7053d7892817d4577a3bff3d5606766d0494b729fa3b7c3e0554705064736f6c634300080a0033",
  "immutableReferences": {},
  "source": "// SPDX-License-Identifier: MIT\npragma solidity ^0.8.2;\n\nimport \"@openzeppelin/contracts/access/Ownable.sol\";\nimport \"@openzeppelin/contracts/utils/Strings.sol\";\nimport \"./IArtist.sol\";\nimport \"./ITraits.sol\";\n\ncontract Traits is ITraits, Ownable {\n  using Strings for uint256;\n\n  struct Trait {\n    string name;\n    string png;\n  }\n\n  IArtist public artist;\n  uint16 dimensions;\n\n  constructor(uint16 _dimensions) {\n    require(_dimensions < 65536, \"Number is too large and will cause an overflow exception\");\n    dimensions = _dimensions;\n  }\n\n  string[10] _traitTypes = [\n    \"background\",\n    \"skin\",\n    \"neck\",\n    \"head\",\n    \"mouth\",\n    \"beard\",\n    \"eyes\",\n    \"clothes\",\n    \"earrings\",\n    \"glasses\"\n  ];\n\n  mapping(uint8 => mapping(uint8 => Trait)) public traitData;\n\n  /* contract owner to upload names and images of each trait as base64 encoded PNGs */\n  function uploadTraits(uint8 traitType, uint8[] calldata traitIds, Trait[] calldata traits) external onlyOwner {\n    require(traitIds.length == traits.length, \"Ids should match the number of traits\");\n    for (uint x = 0; x < traits.length; x++) {\n      traitData[traitType][traitIds[x]] = Trait(\n        traits[x].name,\n        traits[x].png\n      );\n    }\n  }\n\n  /* generates a data uri for the source of an image element */\n  function drawTrait(Trait memory trait) internal view returns (string memory) {\n    return string(abi.encodePacked(\n      '<image x=\"0\" y=\"0\" width=\"',\n      Strings.toString(dimensions),\n      '\" height=\"',\n      Strings.toString(dimensions),\n      '\" image-rendering=\"pixelated\" preserveAspectRatio=\"xMidyMid\" xlink:href=\"data:image/png;base64,', \n      trait.png,\n      '\" />'  \n    ));\n  }\n\n  /* generates a SVG file from the layered PNGs */\n  function drawSVG(uint256 tokenId) public view returns (string memory) {\n    IArtist.Person memory a = artist.getTokenTraits(tokenId);\n    string memory svgString = string(abi.encodePacked(\n      drawTrait(traitData[0][a.background]),\n      drawTrait(traitData[1][a.skin]),\n      drawTrait(traitData[2][a.neck]),\n      drawTrait(traitData[3][a.head]),\n      drawTrait(traitData[4][a.mouth]),\n      drawTrait(traitData[5][a.beard]),\n      drawTrait(traitData[6][a.eyes]),\n      drawTrait(traitData[7][a.clothes]),\n      drawTrait(traitData[8][a.earrings]),\n      drawTrait(traitData[9][a.glasses])\n    ));\n\n    return string(abi.encodePacked(\n      '<svg id=\"woolf\" width=\"100%\" height=\"100%\" version=\"1.1\" viewBox=\"0 0 ',\n      Strings.toString(dimensions),\n      ' ',\n      Strings.toString(dimensions),\n      '\" xmlns=\"http://www.w3.org/2000/svg\" xmlns:xlink=\"http://www.w3.org/1999/xlink\">',\n      svgString,\n      \"</svg>\"\n    ));\n  }\n\n  /* generates an attribute according to the OpenSea Metadata standard */\n  function attributeForTypeAndValue(string memory traitType, string memory value) internal pure returns (string memory) {\n    return string(abi.encodePacked(\n      '{\"trait_type\":\"',\n      traitType,\n      '\",\"value\":\"',\n      value,\n      '\"}'\n    ));\n  }\n\n  /* compiles a collection of attributes for according to the OpenSea Metadata standard */\n  function compileAttributes(uint256 tokenId) public view returns (string memory) {\n    IArtist.Person memory a = artist.getTokenTraits(tokenId);\n    string memory traits = string(abi.encodePacked(\n      '[',\n      attributeForTypeAndValue(_traitTypes[0], traitData[0][a.background].name),\n      attributeForTypeAndValue(_traitTypes[1], traitData[1][a.skin].name), ',',\n      attributeForTypeAndValue(_traitTypes[2], traitData[2][a.neck].name), ',',\n      attributeForTypeAndValue(_traitTypes[3], traitData[3][a.head].name), ',',\n      attributeForTypeAndValue(_traitTypes[4], traitData[4][a.mouth].name), ',',\n      attributeForTypeAndValue(_traitTypes[5], traitData[5][a.beard].name), ',',\n      attributeForTypeAndValue(_traitTypes[6], traitData[6][a.eyes].name), ',',\n      attributeForTypeAndValue(_traitTypes[7], traitData[7][a.clothes].name), ',',\n      attributeForTypeAndValue(_traitTypes[8], traitData[8][a.earrings].name), ',',\n      attributeForTypeAndValue(_traitTypes[9], traitData[9][a.glasses].name), ']'\n    ));\n\n    return traits;\n  }\n\n  function tokenURI(uint256 tokenId) public view override returns (string memory) {\n    string memory metadata = string(abi.encodePacked(\n      '{\"name\": \"',\n      'Artist #',\n      tokenId.toString(),\n      '\", \"description\": \"Blah Blah Blah.\", \"image\": \"data:image/svg+xml;base64,',\n      base64(bytes(drawSVG(tokenId))),\n      '\", \"attributes\":',\n      compileAttributes(tokenId),\n      \"}\"\n    ));\n\n    return string(abi.encodePacked(\n      \"data:application/json;base64,\",\n      base64(bytes(metadata))\n    ));\n  }\n\n  /** BASE 64 - Written by Brech Devos */\n  \n  string internal constant TABLE = 'ABCDEFGHIJKLMNOPQRSTUVWXYZabcdefghijklmnopqrstuvwxyz0123456789+/';\n\n  function base64(bytes memory data) internal pure returns (string memory) {\n    if (data.length == 0) return '';\n    \n    // load the table into memory\n    string memory table = TABLE;\n\n    // multiply by 4/3 rounded up\n    uint256 encodedLen = 4 * ((data.length + 2) / 3);\n\n    // add some extra buffer at the end required for the writing\n    string memory result = new string(encodedLen + 32);\n\n    assembly {\n      // set the actual output length\n      mstore(result, encodedLen)\n      \n      // prepare the lookup table\n      let tablePtr := add(table, 1)\n      \n      // input ptr\n      let dataPtr := data\n      let endPtr := add(dataPtr, mload(data))\n      \n      // result ptr, jump over length\n      let resultPtr := add(result, 32)\n      \n      // run over the input, 3 bytes at a time\n      for {} lt(dataPtr, endPtr) {}\n      {\n          dataPtr := add(dataPtr, 3)\n          \n          // read 3 bytes\n          let input := mload(dataPtr)\n          \n          // write 4 characters\n          mstore(resultPtr, shl(248, mload(add(tablePtr, and(shr(18, input), 0x3F)))))\n          resultPtr := add(resultPtr, 1)\n          mstore(resultPtr, shl(248, mload(add(tablePtr, and(shr(12, input), 0x3F)))))\n          resultPtr := add(resultPtr, 1)\n          mstore(resultPtr, shl(248, mload(add(tablePtr, and(shr( 6, input), 0x3F)))))\n          resultPtr := add(resultPtr, 1)\n          mstore(resultPtr, shl(248, mload(add(tablePtr, and(        input,  0x3F)))))\n          resultPtr := add(resultPtr, 1)\n      }\n      \n      // padding with '='\n      switch mod(mload(data), 3)\n      case 1 { mstore(sub(resultPtr, 2), shl(240, 0x3d3d)) }\n      case 2 { mstore(sub(resultPtr, 1), shl(248, 0x3d)) }\n    }\n    \n    return result;\n  }\n}\n",
  "sourcePath": "/Users/warrenschwartz/Projects/ColdBehaviour/contracts/contracts/Traits.sol",
  "compiler": {
    "name": "solc",
    "version": "0.8.10+commit.fc410830.Emscripten.clang"
  },
  "schemaVersion": "3.4.3",
  "updatedAt": "2022-01-19T16:25:31.611Z",
  "devdoc": {
    "kind": "dev",
    "methods": {
      "owner()": {
        "details": "Returns the address of the current owner."
      },
      "renounceOwnership()": {
        "details": "Leaves the contract without owner. It will not be possible to call `onlyOwner` functions anymore. Can only be called by the current owner. NOTE: Renouncing ownership will leave the contract without an owner, thereby removing any functionality that is only available to the owner."
      },
      "transferOwnership(address)": {
        "details": "Transfers ownership of the contract to a new account (`newOwner`). Can only be called by the current owner."
      }
    },
    "version": 1
  },
  "userdoc": {
    "kind": "user",
    "methods": {},
    "version": 1
  }
}